{
	"data": {
		"bytecode": {
			"linkReferences": {},
			"object": "60806040525f6006555f600a555f600d555f600e555f600f555f60105534801562000028575f80fd5b5060405162004d0c38038062004d0c8339810160408190526200004b91620000a2565b60015f81905560028054336001600160a01b0319918216811790925560038054821683179055600480548216831790556005805482169092179091558154166001600160a01b0392909216919091179055620000d1565b5f60208284031215620000b3575f80fd5b81516001600160a01b0381168114620000ca575f80fd5b9392505050565b614c2d80620000df5f395ff3fe608060405234801561000f575f80fd5b50600436106102e3575f3560e01c80638e0d920e11610187578063c204642c116100dd578063ebce65c211610093578063fb632b7c1161006e578063fb632b7c1461075d578063fc0c546a14610766578063fcf038a314610786575f80fd5b8063ebce65c214610724578063f0a507da14610737578063f2fde38b1461074a575f80fd5b8063ca9b5e39116100c3578063ca9b5e39146106eb578063ced91a72146106fe578063e97ffdc114610711575f80fd5b8063c204642c146106cf578063c5408d50146106e2575f80fd5b8063ac4511851161013d578063b936bee011610118578063b936bee01461066e578063bb79412014610677578063c084b10b1461068a575f80fd5b8063ac4511851461061c578063b6b55f251461063c578063b8e21a5b1461064f575f80fd5b8063954671771161016d57806395467177146105e1578063aad605ba146105f4578063abb1dc4414610607575f80fd5b80638e0d920e146105ae578063901690b1146105c1575f80fd5b8063457e1a491161023c5780636ba13a82116101f257806385107367116101cd578063851073671461054e5780638d1a4b281461056e5780638da5cb5b1461058e575f80fd5b80636ba13a82146104e05780636f77926b146104e957806370d5ae0514610509575f80fd5b80634b0e7216116102225780634b0e72161461049b5780635abdb0dc146104ae5780636313091c146104c1575f80fd5b8063457e1a491461047257806345982a661461047b575f80fd5b80632b956ff71161029c57806330ff7abe1161027757806330ff7abe146103d8578063365b98b2146103eb5780633c28f9ce1461045f575f80fd5b80632b956ff71461037d5780632e1a7d4d146103b25780632edcbd60146103c5575f80fd5b8063152c8685116102cc578063152c86851461033657806323471d181461034b578063291c38191461035e575f80fd5b80630cec2a76146102e7578063117a5b901461030d575b5f80fd5b6102fa6102f5366004614040565b61078f565b6040519081526020015b60405180910390f35b61032061031b366004614060565b61080c565b6040516103049a999897969594939291906140e2565b610349610344366004614040565b610983565b005b610349610359366004614040565b610a50565b6102fa61036c366004614040565b60086020525f908152604090205481565b6102fa61038b366004614040565b73ffffffffffffffffffffffffffffffffffffffff165f908152600c602052604090205490565b6103496103c0366004614060565b610b18565b6103496103d3366004614060565b610d72565b6103496103e6366004614162565b611198565b61042f6103f9366004614060565b600b6020525f9081526040902080546001820154600290920154909173ffffffffffffffffffffffffffffffffffffffff169083565b6040805193845273ffffffffffffffffffffffffffffffffffffffff909216602084015290820152606001610304565b61034961046d366004614182565b611462565b6102fa60105481565b61048e610489366004614162565b61162d565b60405161030491906141aa565b6103496104a9366004614040565b6117ff565b6103496104bc366004614060565b6118c7565b6102fa6104cf366004614060565b60096020525f908152604090205481565b6102fa600a5481565b6104fc6104f7366004614040565b61194d565b6040516103049190614221565b6003546105299073ffffffffffffffffffffffffffffffffffffffff1681565b60405173ffffffffffffffffffffffffffffffffffffffff9091168152602001610304565b6004546105299073ffffffffffffffffffffffffffffffffffffffff1681565b61058161057c366004614040565b6119de565b6040516103049190614302565b6002546105299073ffffffffffffffffffffffffffffffffffffffff1681565b6103496105bc366004614060565b611c11565b6005546105299073ffffffffffffffffffffffffffffffffffffffff1681565b6103496105ef366004614182565b61201a565b610349610602366004614162565b61224e565b61060f612501565b6040516103049190614314565b61062f61062a366004614162565b612730565b6040516103049190614380565b61034961064a366004614060565b612ab0565b6102fa61065d366004614040565b600c6020525f908152604090205481565b6102fa600f5481565b610349610685366004614513565b612c08565b6102fa610698366004614040565b73ffffffffffffffffffffffffffffffffffffffff165f908152600c60209081526040808320548352600b90915290206002015490565b6103496106dd36600461459d565b612f7b565b6102fa600d5481565b6103496106f9366004614182565b613133565b61058161070c36600461464b565b613396565b61034961071f366004614162565b6135f6565b610349610732366004614685565b613835565b610349610745366004614182565b613b6e565b610349610758366004614040565b613d98565b6102fa60065481565b6001546105299073ffffffffffffffffffffffffffffffffffffffff1681565b6102fa600e5481565b73ffffffffffffffffffffffffffffffffffffffff8082165f818152600c60209081526040808320548352600b90915281206001015490921603610805575073ffffffffffffffffffffffffffffffffffffffff165f908152600c60209081526040808320548352600b90915290206002015490565b505f919050565b60076020525f90815260409020805460018201805491929161082d90614717565b80601f016020809104026020016040519081016040528092919081815260200182805461085990614717565b80156108a45780601f1061087b576101008083540402835291602001916108a4565b820191905f5260205f20905b81548152906001019060200180831161088757829003601f168201915b505050505090806002015490806003015f9054906101000a900473ffffffffffffffffffffffffffffffffffffffff169080600401549080600501549080600601549080600701549080600801549080600901805461090290614717565b80601f016020809104026020016040519081016040528092919081815260200182805461092e90614717565b80156109795780601f1061095057610100808354040283529160200191610979565b820191905f5260205f20905b81548152906001019060200180831161095c57829003601f168201915b505050505090508a565b60025473ffffffffffffffffffffffffffffffffffffffff163314610a09576040517f08c379a000000000000000000000000000000000000000000000000000000000815260206004820152600a60248201527f4f6e6c79206f776e65720000000000000000000000000000000000000000000060448201526064015b60405180910390fd5b600580547fffffffffffffffffffffffff00000000000000000000000000000000000000001673ffffffffffffffffffffffffffffffffffffffff92909216919091179055565b60025473ffffffffffffffffffffffffffffffffffffffff163314610ad1576040517f08c379a000000000000000000000000000000000000000000000000000000000815260206004820152600a60248201527f4f6e6c79206f776e6572000000000000000000000000000000000000000000006044820152606401610a00565b600480547fffffffffffffffffffffffff00000000000000000000000000000000000000001673ffffffffffffffffffffffffffffffffffffffff92909216919091179055565b610b20613e60565b335f908152600c6020908152604080832054808452600b909252909120601054831015610ba9576040517f08c379a000000000000000000000000000000000000000000000000000000000815260206004820152601d60248201527f416d6f756e74206c657373207468616e206d696e2077697468647261770000006044820152606401610a00565b600181015473ffffffffffffffffffffffffffffffffffffffff163314610c2c576040517f08c379a000000000000000000000000000000000000000000000000000000000815260206004820152600f60248201527f55736572206e6f742065786973747300000000000000000000000000000000006044820152606401610a00565b8281600201541015610c9a576040517f08c379a000000000000000000000000000000000000000000000000000000000815260206004820152601b60248201527f4e6f7420656e6f75676874206465706f7369742062616c616e636500000000006044820152606401610a00565b6001546040517fa9059cbb0000000000000000000000000000000000000000000000000000000081523360048201526024810185905273ffffffffffffffffffffffffffffffffffffffff9091169063a9059cbb906044016020604051808303815f875af1158015610d0e573d5f803e3d5ffd5b505050506040513d601f19601f82011682018060405250810190610d329190614768565b5082816002015f828254610d4691906147b4565b9250508190555082600d5f828254610d5e91906147b4565b909155505060015f5550610d6f9050565b50565b335f818152600860209081526040808320548352600790915290206003015473ffffffffffffffffffffffffffffffffffffffff1614610e0e576040517f08c379a000000000000000000000000000000000000000000000000000000000815260206004820152601260248201527f4f6e6c792067616d6520636f6e747261637400000000000000000000000000006044820152606401610a00565b610e16613e60565b335f908152600860209081526040808320548084526007909252822060060154909190606490610e4690856147c7565b610e5091906147de565b5f8381526007602081905260408220015491925090606490610e7290866147c7565b610e7c91906147de565b5f8481526007602052604081206008015491925090606490610e9e90876147c7565b610ea891906147de565b905080610eb58385614816565b610ebf9190614816565b5f8581526007602052604090206004015410610f355780610ee08385614816565b610eea9190614816565b5f8581526007602052604081206004018054909190610f0a9084906147b4565b90915550610f1a90508284614816565b600e5f828254610f2a91906147b4565b90915550610f9b9050565b80610f408385614816565b610f4a9190614816565b5f8581526007602052604081206005018054909190610f6a908490614816565b90915550819050610f7b8385614816565b610f859190614816565b600f5f828254610f959190614816565b90915550505b821561103f576001546003546040517fa9059cbb00000000000000000000000000000000000000000000000000000000815273ffffffffffffffffffffffffffffffffffffffff91821660048201526024810186905291169063a9059cbb906044016020604051808303815f875af1158015611019573d5f803e3d5ffd5b505050506040513d601f19601f8201168201806040525081019061103d9190614768565b505b81156110e757600154600480546040517fa9059cbb00000000000000000000000000000000000000000000000000000000815273ffffffffffffffffffffffffffffffffffffffff91821692810192909252602482018590529091169063a9059cbb906044016020604051808303815f875af11580156110c1573d5f803e3d5ffd5b505050506040513d601f19601f820116820180604052508101906110e59190614768565b505b801561118b576001546005546040517fa9059cbb00000000000000000000000000000000000000000000000000000000815273ffffffffffffffffffffffffffffffffffffffff91821660048201526024810184905291169063a9059cbb906044016020604051808303815f875af1158015611165573d5f803e3d5ffd5b505050506040513d601f19601f820116820180604052508101906111899190614768565b505b50505050610d6f60015f55565b60025473ffffffffffffffffffffffffffffffffffffffff163314611219576040517f08c379a000000000000000000000000000000000000000000000000000000000815260206004820152600a60248201527f4f6e6c79206f776e6572000000000000000000000000000000000000000000006044820152606401610a00565b611221613e60565b5f828152600760205260409020548214611297576040517f08c379a000000000000000000000000000000000000000000000000000000000815260206004820152601060248201527f47616d65206e6f7420666f756e646564000000000000000000000000000000006044820152606401610a00565b5f8111611300576040517f08c379a000000000000000000000000000000000000000000000000000000000815260206004820152601d60248201527f416d6f756e74206d7573742062652067726561746572207468616e20300000006044820152606401610a00565b5f8281526007602052604090206005015481111561137a576040517f08c379a000000000000000000000000000000000000000000000000000000000815260206004820152600f60248201527f546f6f206d75636820616d6f756e7400000000000000000000000000000000006044820152606401610a00565b6001546040517f23b872dd0000000000000000000000000000000000000000000000000000000081523360048201523060248201526044810183905273ffffffffffffffffffffffffffffffffffffffff909116906323b872dd906064016020604051808303815f875af11580156113f4573d5f803e3d5ffd5b505050506040513d601f19601f820116820180604052508101906114189190614768565b505f82815260076020526040812060050180548392906114399084906147b4565b9250508190555080600f5f82825461145191906147b4565b909155505060015f555050565b5050565b60025473ffffffffffffffffffffffffffffffffffffffff1633146114e3576040517f08c379a000000000000000000000000000000000000000000000000000000000815260206004820152600a60248201527f4f6e6c79206f776e6572000000000000000000000000000000000000000000006044820152606401610a00565b60015473ffffffffffffffffffffffffffffffffffffffff9081169083160361158e576040517f08c379a000000000000000000000000000000000000000000000000000000000815260206004820152602b60248201527f43616e74207265636f7765722067616d6520746f6b656e2e204f6e6c7920626160448201527f6e6b2077697468647261770000000000000000000000000000000000000000006064820152608401610a00565b6002546040517fa9059cbb00000000000000000000000000000000000000000000000000000000815273ffffffffffffffffffffffffffffffffffffffff9182166004820152602481018390529083169063a9059cbb906044016020604051808303815f875af1158015611604573d5f803e3d5ffd5b505050506040513d601f19601f820116820180604052508101906116289190614768565b505050565b6060600a548311156116a057604080515f8082526020820190925290611698565b61168560405180606001604052805f81526020015f73ffffffffffffffffffffffffffffffffffffffff1681526020015f81525090565b81526020019060019003908161164e5790505b5090506117f9565b821580156116ac575081155b156116b757600a5491505b600a546116c48385614816565b11156116db5782600a546116d891906147b4565b91505b5f8267ffffffffffffffff8111156116f5576116f5614400565b60405190808252806020026020018201604052801561175d57816020015b61174a60405180606001604052805f81526020015f73ffffffffffffffffffffffffffffffffffffffff1681526020015f81525090565b8152602001906001900390816117135790505b5090505f5b838110156117f557600b5f8683600a5461177c91906147b4565b61178691906147b4565b815260208082019290925260409081015f20815160608101835281548152600182015473ffffffffffffffffffffffffffffffffffffffff1693810193909352600201549082015282518390839081106117e2576117e2614829565b6020908102919091010152600101611762565b5090505b92915050565b60025473ffffffffffffffffffffffffffffffffffffffff163314611880576040517f08c379a000000000000000000000000000000000000000000000000000000000815260206004820152600a60248201527f4f6e6c79206f776e6572000000000000000000000000000000000000000000006044820152606401610a00565b600380547fffffffffffffffffffffffff00000000000000000000000000000000000000001673ffffffffffffffffffffffffffffffffffffffff92909216919091179055565b60025473ffffffffffffffffffffffffffffffffffffffff163314611948576040517f08c379a000000000000000000000000000000000000000000000000000000000815260206004820152600a60248201527f4f6e6c79206f776e6572000000000000000000000000000000000000000000006044820152606401610a00565b601055565b61198460405180606001604052805f81526020015f73ffffffffffffffffffffffffffffffffffffffff1681526020015f81525090565b5073ffffffffffffffffffffffffffffffffffffffff9081165f908152600c60209081526040808320548352600b825291829020825160608101845281548152600182015490941691840191909152600201549082015290565b611a456040518061014001604052805f8152602001606081526020015f80191681526020015f73ffffffffffffffffffffffffffffffffffffffff1681526020015f81526020015f81526020015f81526020015f81526020015f8152602001606081525090565b73ffffffffffffffffffffffffffffffffffffffff82165f908152600860209081526040808320548352600782529182902082516101408101909352805483526001810180549192840191611a9990614717565b80601f0160208091040260200160405190810160405280929190818152602001828054611ac590614717565b8015611b105780601f10611ae757610100808354040283529160200191611b10565b820191905f5260205f20905b815481529060010190602001808311611af357829003601f168201915b505050918352505060028201546020820152600382015473ffffffffffffffffffffffffffffffffffffffff1660408201526004820154606082015260058201546080820152600682015460a0820152600782015460c0820152600882015460e082015260098201805461010090920191611b8a90614717565b80601f0160208091040260200160405190810160405280929190818152602001828054611bb690614717565b8015611c015780601f10611bd857610100808354040283529160200191611c01565b820191905f5260205f20905b815481529060010190602001808311611be457829003601f168201915b5050505050815250509050919050565b60025473ffffffffffffffffffffffffffffffffffffffff163314611c92576040517f08c379a000000000000000000000000000000000000000000000000000000000815260206004820152600a60248201527f4f6e6c79206f776e6572000000000000000000000000000000000000000000006044820152606401610a00565b5f81815260076020526040902054819003610d6f575f8181526007602052604090206004015415611d44576040517f08c379a0000000000000000000000000000000000000000000000000000000008152602060048201526024808201527f43616e742072656d6f76652067616d652077697468206e6f7420656d7074792060448201527f62616e6b000000000000000000000000000000000000000000000000000000006064820152608401610a00565b5f8181526007602052604090206005015415611de2576040517f08c379a000000000000000000000000000000000000000000000000000000000815260206004820152602c60248201527f43616e742072656d6f76652067616d652077697468206e6f7420656d7074792060448201527f70656e64696e672062616e6b00000000000000000000000000000000000000006064820152608401610a00565b5f818152600760205260409020600381015460029091015460065473ffffffffffffffffffffffffffffffffffffffff90921691831015611f4557600680545f908152600760205260408082208690559154815281812085825291902081548155600180820190611e55908401826148a1565b506002828101549082015560038083015490820180547fffffffffffffffffffffffff00000000000000000000000000000000000000001673ffffffffffffffffffffffffffffffffffffffff9092169190911790556004808301549082015560058083015490820155600680830154908201556007808301549082015560088083015490820155600980820190611eef908401826148a1565b5050600680545f9081526007602081815260408084206003015473ffffffffffffffffffffffffffffffffffffffff16845260088252808420899055935483529081528282206002015482526009905220849055505b6006545f90815260076020526040812081815590611f666001830182613fce565b5f600283018190556003830180547fffffffffffffffffffffffff00000000000000000000000000000000000000001690556004830181905560058301819055600683018190556007830181905560088301819055611fc9906009840190613fce565b505073ffffffffffffffffffffffffffffffffffffffff82165f908152600860209081526040808320839055838352600990915281208190556006805491612010836149d2565b9190505550505050565b335f818152600860209081526040808320548352600790915290206003015473ffffffffffffffffffffffffffffffffffffffff16146120b6576040517f08c379a000000000000000000000000000000000000000000000000000000000815260206004820152601260248201527f4f6e6c792067616d6520636f6e747261637400000000000000000000000000006044820152606401610a00565b6120be613e60565b73ffffffffffffffffffffffffffffffffffffffff8083165f818152600c60209081526040808320543384526008835281842054818552600b9093529220600101549193909291161461216d576040517f08c379a000000000000000000000000000000000000000000000000000000000815260206004820152601060248201527f55736572206e6f7420666f756e646564000000000000000000000000000000006044820152606401610a00565b5f8181526007602052604090206004015483116121c7575f81815260076020526040812060040180548592906121a49084906147b4565b9250508190555082600e5f8282546121bc91906147b4565b909155506122059050565b5f81815260076020526040812060050180548592906121e7908490614816565b9250508190555082600f5f8282546121ff9190614816565b90915550505b5f828152600b602052604081206002018054859290612225908490614816565b9250508190555082600d5f82825461223d9190614816565b909155505060015f555061145e9050565b60025473ffffffffffffffffffffffffffffffffffffffff1633146122cf576040517f08c379a000000000000000000000000000000000000000000000000000000000815260206004820152600a60248201527f4f6e6c79206f776e6572000000000000000000000000000000000000000000006044820152606401610a00565b6122d7613e60565b5f82815260076020526040902054821461234d576040517f08c379a000000000000000000000000000000000000000000000000000000000815260206004820152601060248201527f47616d65206e6f7420666f756e646564000000000000000000000000000000006044820152606401610a00565b5f81116123b6576040517f08c379a000000000000000000000000000000000000000000000000000000000815260206004820152601d60248201527f416d6f756e74206d7573742062652067726561746572207468616e20300000006044820152606401610a00565b5f82815260076020526040902060040154811115612430576040517f08c379a000000000000000000000000000000000000000000000000000000000815260206004820152601760248201527f456e676f75742067616d652062616e6b20616d6f756e740000000000000000006044820152606401610a00565b6001546040517fa9059cbb0000000000000000000000000000000000000000000000000000000081523360048201526024810183905273ffffffffffffffffffffffffffffffffffffffff9091169063a9059cbb906044016020604051808303815f875af11580156124a4573d5f803e3d5ffd5b505050506040513d601f19601f820116820180604052508101906124c89190614768565b505f82815260076020526040812060040180548392906124e99084906147b4565b9250508190555080600e5f82825461145191906147b4565b61252760405180606001604052805f60ff16815260200160608152602001606081525090565b604051806060016040528060015f9054906101000a900473ffffffffffffffffffffffffffffffffffffffff1673ffffffffffffffffffffffffffffffffffffffff1663313ce5676040518163ffffffff1660e01b8152600401602060405180830381865afa15801561259c573d5f803e3d5ffd5b505050506040513d601f19601f820116820180604052508101906125c09190614a06565b60ff16815260200160015f9054906101000a900473ffffffffffffffffffffffffffffffffffffffff1673ffffffffffffffffffffffffffffffffffffffff166395d89b416040518163ffffffff1660e01b81526004015f60405180830381865afa158015612631573d5f803e3d5ffd5b505050506040513d5f823e601f3d9081017fffffffffffffffffffffffffffffffffffffffffffffffffffffffffffffffe01682016040526126769190810190614a26565b815260200160015f9054906101000a900473ffffffffffffffffffffffffffffffffffffffff1673ffffffffffffffffffffffffffffffffffffffff166306fdde036040518163ffffffff1660e01b81526004015f60405180830381865afa1580156126e4573d5f803e3d5ffd5b505050506040513d5f823e601f3d9081017fffffffffffffffffffffffffffffffffffffffffffffffffffffffffffffffe01682016040526127299190810190614a26565b9052919050565b60606006548311156127d257604080515f8082526020820190925290611698565b6127b86040518061014001604052805f8152602001606081526020015f80191681526020015f73ffffffffffffffffffffffffffffffffffffffff1681526020015f81526020015f81526020015f81526020015f81526020015f8152602001606081525090565b8152602001906001900390816127515790505090506117f9565b821580156127de575081155b156127e95760065491505b6006546127f68385614816565b111561280d578260065461280a91906147b4565b91505b5f8267ffffffffffffffff81111561282757612827614400565b6040519080825280602002602001820160405280156128bf57816020015b6128ac6040518061014001604052805f8152602001606081526020015f80191681526020015f73ffffffffffffffffffffffffffffffffffffffff1681526020015f81526020015f81526020015f81526020015f81526020015f8152602001606081525090565b8152602001906001900390816128455790505b5090505f5b838110156117f55760075f86836006546128de91906147b4565b6128e891906147b4565b81526020019081526020015f20604051806101400160405290815f820154815260200160018201805461291a90614717565b80601f016020809104026020016040519081016040528092919081815260200182805461294690614717565b80156129915780601f1061296857610100808354040283529160200191612991565b820191905f5260205f20905b81548152906001019060200180831161297457829003601f168201915b505050918352505060028201546020820152600382015473ffffffffffffffffffffffffffffffffffffffff1660408201526004820154606082015260058201546080820152600682015460a0820152600782015460c0820152600882015460e082015260098201805461010090920191612a0b90614717565b80601f0160208091040260200160405190810160405280929190818152602001828054612a3790614717565b8015612a825780601f10612a5957610100808354040283529160200191612a82565b820191905f5260205f20905b815481529060010190602001808311612a6557829003601f168201915b505050505081525050828281518110612a9d57612a9d614829565b60209081029190910101526001016128c4565b612ab8613e60565b5f8111612b21576040517f08c379a000000000000000000000000000000000000000000000000000000000815260206004820152601d60248201527f416d6f756e74206d7573742062652067726561746572207468616e20300000006044820152606401610a00565b6001546040517f23b872dd0000000000000000000000000000000000000000000000000000000081523360048201523060248201526044810183905273ffffffffffffffffffffffffffffffffffffffff909116906323b872dd906064016020604051808303815f875af1158015612b9b573d5f803e3d5ffd5b505050506040513d601f19601f82011682018060405250810190612bbf9190614768565b505f612bca33613ed1565b5f818152600b602052604081206002810180549394509092859290612bf0908490614816565b9250508190555082600d5f828254610d5e9190614816565b60025473ffffffffffffffffffffffffffffffffffffffff163314612c89576040517f08c379a000000000000000000000000000000000000000000000000000000000815260206004820152600a60248201527f4f6e6c79206f776e6572000000000000000000000000000000000000000000006044820152606401610a00565b606481612c968486614816565b612ca09190614816565b1115612d08576040517f08c379a000000000000000000000000000000000000000000000000000000000815260206004820152601d60248201527f6275726e2b7374616b652b676173206d757374206265203c3d203130300000006044820152606401610a00565b5f85604051602001612d1a9190614a8f565b604080517fffffffffffffffffffffffffffffffffffffffffffffffffffffffffffffffe081840301815291815281516020928301205f818152600990935291205490915015612dec576040517f08c379a000000000000000000000000000000000000000000000000000000000815260206004820152602260248201527f47616d652077697468207468697320436f646520616c7265616479206578697360448201527f74730000000000000000000000000000000000000000000000000000000000006064820152608401610a00565b73ffffffffffffffffffffffffffffffffffffffff87165f908152600860205260408120549003612f725760068054905f612e2683614aaa565b909155505060065473ffffffffffffffffffffffffffffffffffffffff88165f818152600860209081526040808320859055858352600982528083208590558051610140810182528581528083018c815281830188905260608201959095526080810184905260a0810184905260c081018a905260e08101899052610100810188905261012081018b9052948352600790915290208251815590516001820190612ed09082614ae1565b506040820151600282015560608201516003820180547fffffffffffffffffffffffff00000000000000000000000000000000000000001673ffffffffffffffffffffffffffffffffffffffff9092169190911790556080820151600482015560a0820151600582015560c0820151600682015560e0820151600782015561010082015160088201556101208201516009820190612f6e9082614ae1565b5050505b50505050505050565b60025473ffffffffffffffffffffffffffffffffffffffff163314612ffc576040517f08c379a000000000000000000000000000000000000000000000000000000000815260206004820152600a60248201527f4f6e6c79206f776e6572000000000000000000000000000000000000000000006044820152606401610a00565b613004613e60565b5f82518261301291906147c7565b6001546040517f23b872dd0000000000000000000000000000000000000000000000000000000081523360048201523060248201526044810183905291925073ffffffffffffffffffffffffffffffffffffffff16906323b872dd906064016020604051808303815f875af115801561308d573d5f803e3d5ffd5b505050506040513d601f19601f820116820180604052508101906130b19190614768565b505f5b8351811015613113575f6130e08583815181106130d3576130d3614829565b6020026020010151613ed1565b905083600b5f8381526020019081526020015f206002015f8282546131059190614816565b9091555050506001016130b4565b5080600d5f8282546131259190614816565b909155505060015f55505050565b60025473ffffffffffffffffffffffffffffffffffffffff1633146131b4576040517f08c379a000000000000000000000000000000000000000000000000000000000815260206004820152600a60248201527f4f6e6c79206f776e6572000000000000000000000000000000000000000000006044820152606401610a00565b6131bc613e60565b73ffffffffffffffffffffffffffffffffffffffff8083165f818152600c6020908152604080832054808452600b909252909120600181015491939092911614613262576040517f08c379a000000000000000000000000000000000000000000000000000000000815260206004820152600f60248201527f55736572206e6f742065786973747300000000000000000000000000000000006044820152606401610a00565b82816002015410156132d0576040517f08c379a000000000000000000000000000000000000000000000000000000000815260206004820152601b60248201527f4e6f7420656e6f75676874206465706f7369742062616c616e636500000000006044820152606401610a00565b6001546040517fa9059cbb00000000000000000000000000000000000000000000000000000000815273ffffffffffffffffffffffffffffffffffffffff8681166004830152602482018690529091169063a9059cbb906044016020604051808303815f875af1158015613346573d5f803e3d5ffd5b505050506040513d601f19601f8201168201806040525081019061336a9190614768565b5082816002015f82825461337e91906147b4565b9250508190555082600d5f82825461223d91906147b4565b6133fd6040518061014001604052805f8152602001606081526020015f80191681526020015f73ffffffffffffffffffffffffffffffffffffffff1681526020015f81526020015f81526020015f81526020015f81526020015f8152602001606081525090565b5f8260405160200161340f9190614a8f565b604080517fffffffffffffffffffffffffffffffffffffffffffffffffffffffffffffffe081840301815282825280516020918201205f8181526009835283812054815260078352839020610140850190935282548452600183018054919550918401919061347d90614717565b80601f01602080910402602001604051908101604052809291908181526020018280546134a990614717565b80156134f45780601f106134cb576101008083540402835291602001916134f4565b820191905f5260205f20905b8154815290600101906020018083116134d757829003601f168201915b505050918352505060028201546020820152600382015473ffffffffffffffffffffffffffffffffffffffff1660408201526004820154606082015260058201546080820152600682015460a0820152600782015460c0820152600882015460e08201526009820180546101009092019161356e90614717565b80601f016020809104026020016040519081016040528092919081815260200182805461359a90614717565b80156135e55780601f106135bc576101008083540402835291602001916135e5565b820191905f5260205f20905b8154815290600101906020018083116135c857829003601f168201915b505050505081525050915050919050565b60025473ffffffffffffffffffffffffffffffffffffffff163314613677576040517f08c379a000000000000000000000000000000000000000000000000000000000815260206004820152600a60248201527f4f6e6c79206f776e6572000000000000000000000000000000000000000000006044820152606401610a00565b61367f613e60565b5f8281526007602052604090205482146136f5576040517f08c379a000000000000000000000000000000000000000000000000000000000815260206004820152601060248201527f47616d65206e6f7420666f756e646564000000000000000000000000000000006044820152606401610a00565b5f811161375e576040517f08c379a000000000000000000000000000000000000000000000000000000000815260206004820152601d60248201527f416d6f756e74206d7573742062652067726561746572207468616e20300000006044820152606401610a00565b6001546040517f23b872dd0000000000000000000000000000000000000000000000000000000081523360048201523060248201526044810183905273ffffffffffffffffffffffffffffffffffffffff909116906323b872dd906064016020604051808303815f875af11580156137d8573d5f803e3d5ffd5b505050506040513d601f19601f820116820180604052508101906137fc9190614768565b505f828152600760205260408120600401805483929061381d908490614816565b9250508190555080600e5f8282546114519190614816565b60025473ffffffffffffffffffffffffffffffffffffffff1633146138b6576040517f08c379a000000000000000000000000000000000000000000000000000000000815260206004820152600a60248201527f4f6e6c79206f776e6572000000000000000000000000000000000000000000006044820152606401610a00565b6064816138c38486614816565b6138cd9190614816565b1115613935576040517f08c379a000000000000000000000000000000000000000000000000000000000815260206004820152601d60248201527f6275726e2b7374616b652b676173206d757374206265203c3d203130300000006044820152606401610a00565b5f856040516020016139479190614a8f565b604080517fffffffffffffffffffffffffffffffffffffffffffffffffffffffffffffffe081840301815291815281516020928301205f8b81526007909352912054909150889003613b64575f888152600760205260409020600201548114613a74575f8181526009602052604090205415613a45576040517f08c379a000000000000000000000000000000000000000000000000000000000815260206004820152602260248201527f47616d652077697468207468697320636f646520616c7265616479206578697360448201527f74730000000000000000000000000000000000000000000000000000000000006064820152608401610a00565b5f8881526007602090815260408083206002018054845260099092528083208390559083905582825290208890555b5f888152600760205260409020600901613a8e8682614ae1565b505f888152600760205260409020600101613aa98782614ae1565b505f88815260076020819052604090912060068101869055908101849055600881018390556003015473ffffffffffffffffffffffffffffffffffffffff888116911614613b64575f888152600760208181526040808420600301805473ffffffffffffffffffffffffffffffffffffffff9081168652600884528286208690558c168086529185208d9055938c905291905281547fffffffffffffffffffffffff0000000000000000000000000000000000000000161790555b5050505050505050565b335f818152600860209081526040808320548352600790915290206003015473ffffffffffffffffffffffffffffffffffffffff1614613c0a576040517f08c379a000000000000000000000000000000000000000000000000000000000815260206004820152601260248201527f4f6e6c792067616d6520636f6e747261637400000000000000000000000000006044820152606401610a00565b613c12613e60565b73ffffffffffffffffffffffffffffffffffffffff8083165f818152600c60209081526040808320543384526008835281842054818552600b90935292206001015491939092911614613cc1576040517f08c379a000000000000000000000000000000000000000000000000000000000815260206004820152601060248201527f55736572206e6f7420666f756e646564000000000000000000000000000000006044820152606401610a00565b5f828152600b6020526040902060020154831115613d3b576040517f08c379a000000000000000000000000000000000000000000000000000000000815260206004820152601260248201527f4e6f7420656e6f7574682062616c616e636500000000000000000000000000006044820152606401610a00565b5f828152600b602052604081206002018054859290613d5b9084906147b4565b90915550505f8181526007602052604081206004018054859290613d80908490614816565b9250508190555082600e5f82825461337e9190614816565b60025473ffffffffffffffffffffffffffffffffffffffff163314613e19576040517f08c379a000000000000000000000000000000000000000000000000000000000815260206004820152600a60248201527f4f6e6c79206f776e6572000000000000000000000000000000000000000000006044820152606401610a00565b600280547fffffffffffffffffffffffff00000000000000000000000000000000000000001673ffffffffffffffffffffffffffffffffffffffff92909216919091179055565b60025f5403613ecb576040517f08c379a000000000000000000000000000000000000000000000000000000000815260206004820152601f60248201527f5265656e7472616e637947756172643a207265656e7472616e742063616c6c006044820152606401610a00565b60025f55565b73ffffffffffffffffffffffffffffffffffffffff81165f908152600c60205260408120548103613fa657600a8054905f613f0b83614aaa565b9091555050600a805473ffffffffffffffffffffffffffffffffffffffff9384165f818152600c602090815260408083208590558051606081018252858152808301948552808201848152958452600b9092529091209051815590516001820180547fffffffffffffffffffffffff000000000000000000000000000000000000000016919096161790945551600290930192909255505490565b5073ffffffffffffffffffffffffffffffffffffffff165f908152600c602052604090205490565b508054613fda90614717565b5f825580601f10613fe9575050565b601f0160209004905f5260205f2090810190610d6f91905b80821115614014575f8155600101614001565b5090565b803573ffffffffffffffffffffffffffffffffffffffff8116811461403b575f80fd5b919050565b5f60208284031215614050575f80fd5b61405982614018565b9392505050565b5f60208284031215614070575f80fd5b5035919050565b5f5b83811015614091578181015183820152602001614079565b50505f910152565b5f81518084526140b0816020860160208601614077565b601f017fffffffffffffffffffffffffffffffffffffffffffffffffffffffffffffffe0169290920160200192915050565b5f6101408c83528060208401526140fb8184018d614099565b90508a604084015273ffffffffffffffffffffffffffffffffffffffff8a1660608401528860808401528760a08401528660c08401528560e0840152846101008401528281036101208401526141518185614099565b9d9c50505050505050505050505050565b5f8060408385031215614173575f80fd5b50508035926020909101359150565b5f8060408385031215614193575f80fd5b61419c83614018565b946020939093013593505050565b602080825282518282018190525f9190848201906040850190845b81811015614215576142028385518051825260208082015173ffffffffffffffffffffffffffffffffffffffff1690830152604090810151910152565b92840192606092909201916001016141c5565b50909695505050505050565b8151815260208083015173ffffffffffffffffffffffffffffffffffffffff169082015260408083015190820152606081016117f9565b5f61014082518452602083015181602086015261427782860182614099565b9150506040830151604085015260608301516142ab606086018273ffffffffffffffffffffffffffffffffffffffff169052565b506080830151608085015260a083015160a085015260c083015160c085015260e083015160e085015261010080840151818601525061012080840151858303828701526142f88382614099565b9695505050505050565b602081525f6140596020830184614258565b6020815260ff82511660208201525f60208301516060604084015261433c6080840182614099565b905060408401517fffffffffffffffffffffffffffffffffffffffffffffffffffffffffffffffe08483030160608501526143778282614099565b95945050505050565b5f60208083016020845280855180835260408601915060408160051b8701019250602087015f5b828110156143f3577fffffffffffffffffffffffffffffffffffffffffffffffffffffffffffffffc08886030184526143e1858351614258565b945092850192908501906001016143a7565b5092979650505050505050565b7f4e487b71000000000000000000000000000000000000000000000000000000005f52604160045260245ffd5b604051601f82017fffffffffffffffffffffffffffffffffffffffffffffffffffffffffffffffe016810167ffffffffffffffff8111828210171561447457614474614400565b604052919050565b5f67ffffffffffffffff82111561449557614495614400565b50601f017fffffffffffffffffffffffffffffffffffffffffffffffffffffffffffffffe01660200190565b5f82601f8301126144d0575f80fd5b81356144e36144de8261447c565b61442d565b8181528460208386010111156144f7575f80fd5b816020850160208301375f918101602001919091529392505050565b5f805f805f8060c08789031215614528575f80fd5b61453187614018565b9550602087013567ffffffffffffffff8082111561454d575f80fd5b6145598a838b016144c1565b9650604089013591508082111561456e575f80fd5b5061457b89828a016144c1565b945050606087013592506080870135915060a087013590509295509295509295565b5f80604083850312156145ae575f80fd5b823567ffffffffffffffff808211156145c5575f80fd5b818501915085601f8301126145d8575f80fd5b81356020828211156145ec576145ec614400565b8160051b92506145fd81840161442d565b8281529284018101928181019089851115614616575f80fd5b948201945b8486101561463b5761462c86614018565b8252948201949082019061461b565b9997909101359750505050505050565b5f6020828403121561465b575f80fd5b813567ffffffffffffffff811115614671575f80fd5b61467d848285016144c1565b949350505050565b5f805f805f805f60e0888a03121561469b575f80fd5b873596506146ab60208901614018565b9550604088013567ffffffffffffffff808211156146c7575f80fd5b6146d38b838c016144c1565b965060608a01359150808211156146e8575f80fd5b506146f58a828b016144c1565b979a969950949760808101359660a0820135965060c090910135945092505050565b600181811c9082168061472b57607f821691505b602082108103614762577f4e487b71000000000000000000000000000000000000000000000000000000005f52602260045260245ffd5b50919050565b5f60208284031215614778575f80fd5b81518015158114614059575f80fd5b7f4e487b71000000000000000000000000000000000000000000000000000000005f52601160045260245ffd5b818103818111156117f9576117f9614787565b80820281158282048414176117f9576117f9614787565b5f82614811577f4e487b71000000000000000000000000000000000000000000000000000000005f52601260045260245ffd5b500490565b808201808211156117f9576117f9614787565b7f4e487b71000000000000000000000000000000000000000000000000000000005f52603260045260245ffd5b601f82111561162857805f5260205f20601f840160051c8101602085101561487b5750805b601f840160051c820191505b8181101561489a575f8155600101614887565b5050505050565b8181036148ac575050565b6148b68254614717565b67ffffffffffffffff8111156148ce576148ce614400565b6148e2816148dc8454614717565b84614856565b5f601f821160018114614932575f83156148fc5750848201545b7fffffffffffffffffffffffffffffffffffffffffffffffffffffffffffffffff600385901b1c1916600184901b17845561489a565b5f85815260208082208683529082207fffffffffffffffffffffffffffffffffffffffffffffffffffffffffffffffe08616925b838110156149865782860154825560019586019590910190602001614966565b50858310156149c257818501547fffffffffffffffffffffffffffffffffffffffffffffffffffffffffffffffff600388901b60f8161c191681555b5050505050600190811b01905550565b5f816149e0576149e0614787565b507fffffffffffffffffffffffffffffffffffffffffffffffffffffffffffffffff0190565b5f60208284031215614a16575f80fd5b815160ff81168114614059575f80fd5b5f60208284031215614a36575f80fd5b815167ffffffffffffffff811115614a4c575f80fd5b8201601f81018413614a5c575f80fd5b8051614a6a6144de8261447c565b818152856020838501011115614a7e575f80fd5b614377826020830160208601614077565b5f8251614aa0818460208701614077565b9190910192915050565b5f7fffffffffffffffffffffffffffffffffffffffffffffffffffffffffffffffff8203614ada57614ada614787565b5060010190565b815167ffffffffffffffff811115614afb57614afb614400565b614b09816148dc8454614717565b602080601f831160018114614b5b575f8415614b255750858301515b7fffffffffffffffffffffffffffffffffffffffffffffffffffffffffffffffff600386901b1c1916600185901b178555614bef565b5f858152602081207fffffffffffffffffffffffffffffffffffffffffffffffffffffffffffffffe08616915b82811015614ba757888601518255948401946001909101908401614b88565b5085821015614be357878501517fffffffffffffffffffffffffffffffffffffffffffffffffffffffffffffffff600388901b60f8161c191681555b505060018460011b0185555b50505050505056fea2646970667358221220be9f31efc068e672c76fa2f07894e7d7a2c1d4af3fd6f53e2cb537ed410447dd64736f6c63430008180033",
			"opcodes": "PUSH1 0x80 PUSH1 0x40 MSTORE PUSH0 PUSH1 0x6 SSTORE PUSH0 PUSH1 0xA SSTORE PUSH0 PUSH1 0xD SSTORE PUSH0 PUSH1 0xE SSTORE PUSH0 PUSH1 0xF SSTORE PUSH0 PUSH1 0x10 SSTORE CALLVALUE DUP1 ISZERO PUSH3 0x28 JUMPI PUSH0 DUP1 REVERT JUMPDEST POP PUSH1 0x40 MLOAD PUSH3 0x4D0C CODESIZE SUB DUP1 PUSH3 0x4D0C DUP4 CODECOPY DUP2 ADD PUSH1 0x40 DUP2 SWAP1 MSTORE PUSH3 0x4B SWAP2 PUSH3 0xA2 JUMP JUMPDEST PUSH1 0x1 PUSH0 DUP2 SWAP1 SSTORE PUSH1 0x2 DUP1 SLOAD CALLER PUSH1 0x1 PUSH1 0x1 PUSH1 0xA0 SHL SUB NOT SWAP2 DUP3 AND DUP2 OR SWAP1 SWAP3 SSTORE PUSH1 0x3 DUP1 SLOAD DUP3 AND DUP4 OR SWAP1 SSTORE PUSH1 0x4 DUP1 SLOAD DUP3 AND DUP4 OR SWAP1 SSTORE PUSH1 0x5 DUP1 SLOAD DUP3 AND SWAP1 SWAP3 OR SWAP1 SWAP2 SSTORE DUP2 SLOAD AND PUSH1 0x1 PUSH1 0x1 PUSH1 0xA0 SHL SUB SWAP3 SWAP1 SWAP3 AND SWAP2 SWAP1 SWAP2 OR SWAP1 SSTORE PUSH3 0xD1 JUMP JUMPDEST PUSH0 PUSH1 0x20 DUP3 DUP5 SUB SLT ISZERO PUSH3 0xB3 JUMPI PUSH0 DUP1 REVERT JUMPDEST DUP2 MLOAD PUSH1 0x1 PUSH1 0x1 PUSH1 0xA0 SHL SUB DUP2 AND DUP2 EQ PUSH3 0xCA JUMPI PUSH0 DUP1 REVERT JUMPDEST SWAP4 SWAP3 POP POP POP JUMP JUMPDEST PUSH2 0x4C2D DUP1 PUSH3 0xDF PUSH0 CODECOPY PUSH0 RETURN INVALID PUSH1 0x80 PUSH1 0x40 MSTORE CALLVALUE DUP1 ISZERO PUSH2 0xF JUMPI PUSH0 DUP1 REVERT JUMPDEST POP PUSH1 0x4 CALLDATASIZE LT PUSH2 0x2E3 JUMPI PUSH0 CALLDATALOAD PUSH1 0xE0 SHR DUP1 PUSH4 0x8E0D920E GT PUSH2 0x187 JUMPI DUP1 PUSH4 0xC204642C GT PUSH2 0xDD JUMPI DUP1 PUSH4 0xEBCE65C2 GT PUSH2 0x93 JUMPI DUP1 PUSH4 0xFB632B7C GT PUSH2 0x6E JUMPI DUP1 PUSH4 0xFB632B7C EQ PUSH2 0x75D JUMPI DUP1 PUSH4 0xFC0C546A EQ PUSH2 0x766 JUMPI DUP1 PUSH4 0xFCF038A3 EQ PUSH2 0x786 JUMPI PUSH0 DUP1 REVERT JUMPDEST DUP1 PUSH4 0xEBCE65C2 EQ PUSH2 0x724 JUMPI DUP1 PUSH4 0xF0A507DA EQ PUSH2 0x737 JUMPI DUP1 PUSH4 0xF2FDE38B EQ PUSH2 0x74A JUMPI PUSH0 DUP1 REVERT JUMPDEST DUP1 PUSH4 0xCA9B5E39 GT PUSH2 0xC3 JUMPI DUP1 PUSH4 0xCA9B5E39 EQ PUSH2 0x6EB JUMPI DUP1 PUSH4 0xCED91A72 EQ PUSH2 0x6FE JUMPI DUP1 PUSH4 0xE97FFDC1 EQ PUSH2 0x711 JUMPI PUSH0 DUP1 REVERT JUMPDEST DUP1 PUSH4 0xC204642C EQ PUSH2 0x6CF JUMPI DUP1 PUSH4 0xC5408D50 EQ PUSH2 0x6E2 JUMPI PUSH0 DUP1 REVERT JUMPDEST DUP1 PUSH4 0xAC451185 GT PUSH2 0x13D JUMPI DUP1 PUSH4 0xB936BEE0 GT PUSH2 0x118 JUMPI DUP1 PUSH4 0xB936BEE0 EQ PUSH2 0x66E JUMPI DUP1 PUSH4 0xBB794120 EQ PUSH2 0x677 JUMPI DUP1 PUSH4 0xC084B10B EQ PUSH2 0x68A JUMPI PUSH0 DUP1 REVERT JUMPDEST DUP1 PUSH4 0xAC451185 EQ PUSH2 0x61C JUMPI DUP1 PUSH4 0xB6B55F25 EQ PUSH2 0x63C JUMPI DUP1 PUSH4 0xB8E21A5B EQ PUSH2 0x64F JUMPI PUSH0 DUP1 REVERT JUMPDEST DUP1 PUSH4 0x95467177 GT PUSH2 0x16D JUMPI DUP1 PUSH4 0x95467177 EQ PUSH2 0x5E1 JUMPI DUP1 PUSH4 0xAAD605BA EQ PUSH2 0x5F4 JUMPI DUP1 PUSH4 0xABB1DC44 EQ PUSH2 0x607 JUMPI PUSH0 DUP1 REVERT JUMPDEST DUP1 PUSH4 0x8E0D920E EQ PUSH2 0x5AE JUMPI DUP1 PUSH4 0x901690B1 EQ PUSH2 0x5C1 JUMPI PUSH0 DUP1 REVERT JUMPDEST DUP1 PUSH4 0x457E1A49 GT PUSH2 0x23C JUMPI DUP1 PUSH4 0x6BA13A82 GT PUSH2 0x1F2 JUMPI DUP1 PUSH4 0x85107367 GT PUSH2 0x1CD JUMPI DUP1 PUSH4 0x85107367 EQ PUSH2 0x54E JUMPI DUP1 PUSH4 0x8D1A4B28 EQ PUSH2 0x56E JUMPI DUP1 PUSH4 0x8DA5CB5B EQ PUSH2 0x58E JUMPI PUSH0 DUP1 REVERT JUMPDEST DUP1 PUSH4 0x6BA13A82 EQ PUSH2 0x4E0 JUMPI DUP1 PUSH4 0x6F77926B EQ PUSH2 0x4E9 JUMPI DUP1 PUSH4 0x70D5AE05 EQ PUSH2 0x509 JUMPI PUSH0 DUP1 REVERT JUMPDEST DUP1 PUSH4 0x4B0E7216 GT PUSH2 0x222 JUMPI DUP1 PUSH4 0x4B0E7216 EQ PUSH2 0x49B JUMPI DUP1 PUSH4 0x5ABDB0DC EQ PUSH2 0x4AE JUMPI DUP1 PUSH4 0x6313091C EQ PUSH2 0x4C1 JUMPI PUSH0 DUP1 REVERT JUMPDEST DUP1 PUSH4 0x457E1A49 EQ PUSH2 0x472 JUMPI DUP1 PUSH4 0x45982A66 EQ PUSH2 0x47B JUMPI PUSH0 DUP1 REVERT JUMPDEST DUP1 PUSH4 0x2B956FF7 GT PUSH2 0x29C JUMPI DUP1 PUSH4 0x30FF7ABE GT PUSH2 0x277 JUMPI DUP1 PUSH4 0x30FF7ABE EQ PUSH2 0x3D8 JUMPI DUP1 PUSH4 0x365B98B2 EQ PUSH2 0x3EB JUMPI DUP1 PUSH4 0x3C28F9CE EQ PUSH2 0x45F JUMPI PUSH0 DUP1 REVERT JUMPDEST DUP1 PUSH4 0x2B956FF7 EQ PUSH2 0x37D JUMPI DUP1 PUSH4 0x2E1A7D4D EQ PUSH2 0x3B2 JUMPI DUP1 PUSH4 0x2EDCBD60 EQ PUSH2 0x3C5 JUMPI PUSH0 DUP1 REVERT JUMPDEST DUP1 PUSH4 0x152C8685 GT PUSH2 0x2CC JUMPI DUP1 PUSH4 0x152C8685 EQ PUSH2 0x336 JUMPI DUP1 PUSH4 0x23471D18 EQ PUSH2 0x34B JUMPI DUP1 PUSH4 0x291C3819 EQ PUSH2 0x35E JUMPI PUSH0 DUP1 REVERT JUMPDEST DUP1 PUSH4 0xCEC2A76 EQ PUSH2 0x2E7 JUMPI DUP1 PUSH4 0x117A5B90 EQ PUSH2 0x30D JUMPI JUMPDEST PUSH0 DUP1 REVERT JUMPDEST PUSH2 0x2FA PUSH2 0x2F5 CALLDATASIZE PUSH1 0x4 PUSH2 0x4040 JUMP JUMPDEST PUSH2 0x78F JUMP JUMPDEST PUSH1 0x40 MLOAD SWAP1 DUP2 MSTORE PUSH1 0x20 ADD JUMPDEST PUSH1 0x40 MLOAD DUP1 SWAP2 SUB SWAP1 RETURN JUMPDEST PUSH2 0x320 PUSH2 0x31B CALLDATASIZE PUSH1 0x4 PUSH2 0x4060 JUMP JUMPDEST PUSH2 0x80C JUMP JUMPDEST PUSH1 0x40 MLOAD PUSH2 0x304 SWAP11 SWAP10 SWAP9 SWAP8 SWAP7 SWAP6 SWAP5 SWAP4 SWAP3 SWAP2 SWAP1 PUSH2 0x40E2 JUMP JUMPDEST PUSH2 0x349 PUSH2 0x344 CALLDATASIZE PUSH1 0x4 PUSH2 0x4040 JUMP JUMPDEST PUSH2 0x983 JUMP JUMPDEST STOP JUMPDEST PUSH2 0x349 PUSH2 0x359 CALLDATASIZE PUSH1 0x4 PUSH2 0x4040 JUMP JUMPDEST PUSH2 0xA50 JUMP JUMPDEST PUSH2 0x2FA PUSH2 0x36C CALLDATASIZE PUSH1 0x4 PUSH2 0x4040 JUMP JUMPDEST PUSH1 0x8 PUSH1 0x20 MSTORE PUSH0 SWAP1 DUP2 MSTORE PUSH1 0x40 SWAP1 KECCAK256 SLOAD DUP2 JUMP JUMPDEST PUSH2 0x2FA PUSH2 0x38B CALLDATASIZE PUSH1 0x4 PUSH2 0x4040 JUMP JUMPDEST PUSH20 0xFFFFFFFFFFFFFFFFFFFFFFFFFFFFFFFFFFFFFFFF AND PUSH0 SWAP1 DUP2 MSTORE PUSH1 0xC PUSH1 0x20 MSTORE PUSH1 0x40 SWAP1 KECCAK256 SLOAD SWAP1 JUMP JUMPDEST PUSH2 0x349 PUSH2 0x3C0 CALLDATASIZE PUSH1 0x4 PUSH2 0x4060 JUMP JUMPDEST PUSH2 0xB18 JUMP JUMPDEST PUSH2 0x349 PUSH2 0x3D3 CALLDATASIZE PUSH1 0x4 PUSH2 0x4060 JUMP JUMPDEST PUSH2 0xD72 JUMP JUMPDEST PUSH2 0x349 PUSH2 0x3E6 CALLDATASIZE PUSH1 0x4 PUSH2 0x4162 JUMP JUMPDEST PUSH2 0x1198 JUMP JUMPDEST PUSH2 0x42F PUSH2 0x3F9 CALLDATASIZE PUSH1 0x4 PUSH2 0x4060 JUMP JUMPDEST PUSH1 0xB PUSH1 0x20 MSTORE PUSH0 SWAP1 DUP2 MSTORE PUSH1 0x40 SWAP1 KECCAK256 DUP1 SLOAD PUSH1 0x1 DUP3 ADD SLOAD PUSH1 0x2 SWAP1 SWAP3 ADD SLOAD SWAP1 SWAP2 PUSH20 0xFFFFFFFFFFFFFFFFFFFFFFFFFFFFFFFFFFFFFFFF AND SWAP1 DUP4 JUMP JUMPDEST PUSH1 0x40 DUP1 MLOAD SWAP4 DUP5 MSTORE PUSH20 0xFFFFFFFFFFFFFFFFFFFFFFFFFFFFFFFFFFFFFFFF SWAP1 SWAP3 AND PUSH1 0x20 DUP5 ADD MSTORE SWAP1 DUP3 ADD MSTORE PUSH1 0x60 ADD PUSH2 0x304 JUMP JUMPDEST PUSH2 0x349 PUSH2 0x46D CALLDATASIZE PUSH1 0x4 PUSH2 0x4182 JUMP JUMPDEST PUSH2 0x1462 JUMP JUMPDEST PUSH2 0x2FA PUSH1 0x10 SLOAD DUP2 JUMP JUMPDEST PUSH2 0x48E PUSH2 0x489 CALLDATASIZE PUSH1 0x4 PUSH2 0x4162 JUMP JUMPDEST PUSH2 0x162D JUMP JUMPDEST PUSH1 0x40 MLOAD PUSH2 0x304 SWAP2 SWAP1 PUSH2 0x41AA JUMP JUMPDEST PUSH2 0x349 PUSH2 0x4A9 CALLDATASIZE PUSH1 0x4 PUSH2 0x4040 JUMP JUMPDEST PUSH2 0x17FF JUMP JUMPDEST PUSH2 0x349 PUSH2 0x4BC CALLDATASIZE PUSH1 0x4 PUSH2 0x4060 JUMP JUMPDEST PUSH2 0x18C7 JUMP JUMPDEST PUSH2 0x2FA PUSH2 0x4CF CALLDATASIZE PUSH1 0x4 PUSH2 0x4060 JUMP JUMPDEST PUSH1 0x9 PUSH1 0x20 MSTORE PUSH0 SWAP1 DUP2 MSTORE PUSH1 0x40 SWAP1 KECCAK256 SLOAD DUP2 JUMP JUMPDEST PUSH2 0x2FA PUSH1 0xA SLOAD DUP2 JUMP JUMPDEST PUSH2 0x4FC PUSH2 0x4F7 CALLDATASIZE PUSH1 0x4 PUSH2 0x4040 JUMP JUMPDEST PUSH2 0x194D JUMP JUMPDEST PUSH1 0x40 MLOAD PUSH2 0x304 SWAP2 SWAP1 PUSH2 0x4221 JUMP JUMPDEST PUSH1 0x3 SLOAD PUSH2 0x529 SWAP1 PUSH20 0xFFFFFFFFFFFFFFFFFFFFFFFFFFFFFFFFFFFFFFFF AND DUP2 JUMP JUMPDEST PUSH1 0x40 MLOAD PUSH20 0xFFFFFFFFFFFFFFFFFFFFFFFFFFFFFFFFFFFFFFFF SWAP1 SWAP2 AND DUP2 MSTORE PUSH1 0x20 ADD PUSH2 0x304 JUMP JUMPDEST PUSH1 0x4 SLOAD PUSH2 0x529 SWAP1 PUSH20 0xFFFFFFFFFFFFFFFFFFFFFFFFFFFFFFFFFFFFFFFF AND DUP2 JUMP JUMPDEST PUSH2 0x581 PUSH2 0x57C CALLDATASIZE PUSH1 0x4 PUSH2 0x4040 JUMP JUMPDEST PUSH2 0x19DE JUMP JUMPDEST PUSH1 0x40 MLOAD PUSH2 0x304 SWAP2 SWAP1 PUSH2 0x4302 JUMP JUMPDEST PUSH1 0x2 SLOAD PUSH2 0x529 SWAP1 PUSH20 0xFFFFFFFFFFFFFFFFFFFFFFFFFFFFFFFFFFFFFFFF AND DUP2 JUMP JUMPDEST PUSH2 0x349 PUSH2 0x5BC CALLDATASIZE PUSH1 0x4 PUSH2 0x4060 JUMP JUMPDEST PUSH2 0x1C11 JUMP JUMPDEST PUSH1 0x5 SLOAD PUSH2 0x529 SWAP1 PUSH20 0xFFFFFFFFFFFFFFFFFFFFFFFFFFFFFFFFFFFFFFFF AND DUP2 JUMP JUMPDEST PUSH2 0x349 PUSH2 0x5EF CALLDATASIZE PUSH1 0x4 PUSH2 0x4182 JUMP JUMPDEST PUSH2 0x201A JUMP JUMPDEST PUSH2 0x349 PUSH2 0x602 CALLDATASIZE PUSH1 0x4 PUSH2 0x4162 JUMP JUMPDEST PUSH2 0x224E JUMP JUMPDEST PUSH2 0x60F PUSH2 0x2501 JUMP JUMPDEST PUSH1 0x40 MLOAD PUSH2 0x304 SWAP2 SWAP1 PUSH2 0x4314 JUMP JUMPDEST PUSH2 0x62F PUSH2 0x62A CALLDATASIZE PUSH1 0x4 PUSH2 0x4162 JUMP JUMPDEST PUSH2 0x2730 JUMP JUMPDEST PUSH1 0x40 MLOAD PUSH2 0x304 SWAP2 SWAP1 PUSH2 0x4380 JUMP JUMPDEST PUSH2 0x349 PUSH2 0x64A CALLDATASIZE PUSH1 0x4 PUSH2 0x4060 JUMP JUMPDEST PUSH2 0x2AB0 JUMP JUMPDEST PUSH2 0x2FA PUSH2 0x65D CALLDATASIZE PUSH1 0x4 PUSH2 0x4040 JUMP JUMPDEST PUSH1 0xC PUSH1 0x20 MSTORE PUSH0 SWAP1 DUP2 MSTORE PUSH1 0x40 SWAP1 KECCAK256 SLOAD DUP2 JUMP JUMPDEST PUSH2 0x2FA PUSH1 0xF SLOAD DUP2 JUMP JUMPDEST PUSH2 0x349 PUSH2 0x685 CALLDATASIZE PUSH1 0x4 PUSH2 0x4513 JUMP JUMPDEST PUSH2 0x2C08 JUMP JUMPDEST PUSH2 0x2FA PUSH2 0x698 CALLDATASIZE PUSH1 0x4 PUSH2 0x4040 JUMP JUMPDEST PUSH20 0xFFFFFFFFFFFFFFFFFFFFFFFFFFFFFFFFFFFFFFFF AND PUSH0 SWAP1 DUP2 MSTORE PUSH1 0xC PUSH1 0x20 SWAP1 DUP2 MSTORE PUSH1 0x40 DUP1 DUP4 KECCAK256 SLOAD DUP4 MSTORE PUSH1 0xB SWAP1 SWAP2 MSTORE SWAP1 KECCAK256 PUSH1 0x2 ADD SLOAD SWAP1 JUMP JUMPDEST PUSH2 0x349 PUSH2 0x6DD CALLDATASIZE PUSH1 0x4 PUSH2 0x459D JUMP JUMPDEST PUSH2 0x2F7B JUMP JUMPDEST PUSH2 0x2FA PUSH1 0xD SLOAD DUP2 JUMP JUMPDEST PUSH2 0x349 PUSH2 0x6F9 CALLDATASIZE PUSH1 0x4 PUSH2 0x4182 JUMP JUMPDEST PUSH2 0x3133 JUMP JUMPDEST PUSH2 0x581 PUSH2 0x70C CALLDATASIZE PUSH1 0x4 PUSH2 0x464B JUMP JUMPDEST PUSH2 0x3396 JUMP JUMPDEST PUSH2 0x349 PUSH2 0x71F CALLDATASIZE PUSH1 0x4 PUSH2 0x4162 JUMP JUMPDEST PUSH2 0x35F6 JUMP JUMPDEST PUSH2 0x349 PUSH2 0x732 CALLDATASIZE PUSH1 0x4 PUSH2 0x4685 JUMP JUMPDEST PUSH2 0x3835 JUMP JUMPDEST PUSH2 0x349 PUSH2 0x745 CALLDATASIZE PUSH1 0x4 PUSH2 0x4182 JUMP JUMPDEST PUSH2 0x3B6E JUMP JUMPDEST PUSH2 0x349 PUSH2 0x758 CALLDATASIZE PUSH1 0x4 PUSH2 0x4040 JUMP JUMPDEST PUSH2 0x3D98 JUMP JUMPDEST PUSH2 0x2FA PUSH1 0x6 SLOAD DUP2 JUMP JUMPDEST PUSH1 0x1 SLOAD PUSH2 0x529 SWAP1 PUSH20 0xFFFFFFFFFFFFFFFFFFFFFFFFFFFFFFFFFFFFFFFF AND DUP2 JUMP JUMPDEST PUSH2 0x2FA PUSH1 0xE SLOAD DUP2 JUMP JUMPDEST PUSH20 0xFFFFFFFFFFFFFFFFFFFFFFFFFFFFFFFFFFFFFFFF DUP1 DUP3 AND PUSH0 DUP2 DUP2 MSTORE PUSH1 0xC PUSH1 0x20 SWAP1 DUP2 MSTORE PUSH1 0x40 DUP1 DUP4 KECCAK256 SLOAD DUP4 MSTORE PUSH1 0xB SWAP1 SWAP2 MSTORE DUP2 KECCAK256 PUSH1 0x1 ADD SLOAD SWAP1 SWAP3 AND SUB PUSH2 0x805 JUMPI POP PUSH20 0xFFFFFFFFFFFFFFFFFFFFFFFFFFFFFFFFFFFFFFFF AND PUSH0 SWAP1 DUP2 MSTORE PUSH1 0xC PUSH1 0x20 SWAP1 DUP2 MSTORE PUSH1 0x40 DUP1 DUP4 KECCAK256 SLOAD DUP4 MSTORE PUSH1 0xB SWAP1 SWAP2 MSTORE SWAP1 KECCAK256 PUSH1 0x2 ADD SLOAD SWAP1 JUMP JUMPDEST POP PUSH0 SWAP2 SWAP1 POP JUMP JUMPDEST PUSH1 0x7 PUSH1 0x20 MSTORE PUSH0 SWAP1 DUP2 MSTORE PUSH1 0x40 SWAP1 KECCAK256 DUP1 SLOAD PUSH1 0x1 DUP3 ADD DUP1 SLOAD SWAP2 SWAP3 SWAP2 PUSH2 0x82D SWAP1 PUSH2 0x4717 JUMP JUMPDEST DUP1 PUSH1 0x1F ADD PUSH1 0x20 DUP1 SWAP2 DIV MUL PUSH1 0x20 ADD PUSH1 0x40 MLOAD SWAP1 DUP2 ADD PUSH1 0x40 MSTORE DUP1 SWAP3 SWAP2 SWAP1 DUP2 DUP2 MSTORE PUSH1 0x20 ADD DUP3 DUP1 SLOAD PUSH2 0x859 SWAP1 PUSH2 0x4717 JUMP JUMPDEST DUP1 ISZERO PUSH2 0x8A4 JUMPI DUP1 PUSH1 0x1F LT PUSH2 0x87B JUMPI PUSH2 0x100 DUP1 DUP4 SLOAD DIV MUL DUP4 MSTORE SWAP2 PUSH1 0x20 ADD SWAP2 PUSH2 0x8A4 JUMP JUMPDEST DUP3 ADD SWAP2 SWAP1 PUSH0 MSTORE PUSH1 0x20 PUSH0 KECCAK256 SWAP1 JUMPDEST DUP2 SLOAD DUP2 MSTORE SWAP1 PUSH1 0x1 ADD SWAP1 PUSH1 0x20 ADD DUP1 DUP4 GT PUSH2 0x887 JUMPI DUP3 SWAP1 SUB PUSH1 0x1F AND DUP3 ADD SWAP2 JUMPDEST POP POP POP POP POP SWAP1 DUP1 PUSH1 0x2 ADD SLOAD SWAP1 DUP1 PUSH1 0x3 ADD PUSH0 SWAP1 SLOAD SWAP1 PUSH2 0x100 EXP SWAP1 DIV PUSH20 0xFFFFFFFFFFFFFFFFFFFFFFFFFFFFFFFFFFFFFFFF AND SWAP1 DUP1 PUSH1 0x4 ADD SLOAD SWAP1 DUP1 PUSH1 0x5 ADD SLOAD SWAP1 DUP1 PUSH1 0x6 ADD SLOAD SWAP1 DUP1 PUSH1 0x7 ADD SLOAD SWAP1 DUP1 PUSH1 0x8 ADD SLOAD SWAP1 DUP1 PUSH1 0x9 ADD DUP1 SLOAD PUSH2 0x902 SWAP1 PUSH2 0x4717 JUMP JUMPDEST DUP1 PUSH1 0x1F ADD PUSH1 0x20 DUP1 SWAP2 DIV MUL PUSH1 0x20 ADD PUSH1 0x40 MLOAD SWAP1 DUP2 ADD PUSH1 0x40 MSTORE DUP1 SWAP3 SWAP2 SWAP1 DUP2 DUP2 MSTORE PUSH1 0x20 ADD DUP3 DUP1 SLOAD PUSH2 0x92E SWAP1 PUSH2 0x4717 JUMP JUMPDEST DUP1 ISZERO PUSH2 0x979 JUMPI DUP1 PUSH1 0x1F LT PUSH2 0x950 JUMPI PUSH2 0x100 DUP1 DUP4 SLOAD DIV MUL DUP4 MSTORE SWAP2 PUSH1 0x20 ADD SWAP2 PUSH2 0x979 JUMP JUMPDEST DUP3 ADD SWAP2 SWAP1 PUSH0 MSTORE PUSH1 0x20 PUSH0 KECCAK256 SWAP1 JUMPDEST DUP2 SLOAD DUP2 MSTORE SWAP1 PUSH1 0x1 ADD SWAP1 PUSH1 0x20 ADD DUP1 DUP4 GT PUSH2 0x95C JUMPI DUP3 SWAP1 SUB PUSH1 0x1F AND DUP3 ADD SWAP2 JUMPDEST POP POP POP POP POP SWAP1 POP DUP11 JUMP JUMPDEST PUSH1 0x2 SLOAD PUSH20 0xFFFFFFFFFFFFFFFFFFFFFFFFFFFFFFFFFFFFFFFF AND CALLER EQ PUSH2 0xA09 JUMPI PUSH1 0x40 MLOAD PUSH32 0x8C379A000000000000000000000000000000000000000000000000000000000 DUP2 MSTORE PUSH1 0x20 PUSH1 0x4 DUP3 ADD MSTORE PUSH1 0xA PUSH1 0x24 DUP3 ADD MSTORE PUSH32 0x4F6E6C79206F776E657200000000000000000000000000000000000000000000 PUSH1 0x44 DUP3 ADD MSTORE PUSH1 0x64 ADD JUMPDEST PUSH1 0x40 MLOAD DUP1 SWAP2 SUB SWAP1 REVERT JUMPDEST PUSH1 0x5 DUP1 SLOAD PUSH32 0xFFFFFFFFFFFFFFFFFFFFFFFF0000000000000000000000000000000000000000 AND PUSH20 0xFFFFFFFFFFFFFFFFFFFFFFFFFFFFFFFFFFFFFFFF SWAP3 SWAP1 SWAP3 AND SWAP2 SWAP1 SWAP2 OR SWAP1 SSTORE JUMP JUMPDEST PUSH1 0x2 SLOAD PUSH20 0xFFFFFFFFFFFFFFFFFFFFFFFFFFFFFFFFFFFFFFFF AND CALLER EQ PUSH2 0xAD1 JUMPI PUSH1 0x40 MLOAD PUSH32 0x8C379A000000000000000000000000000000000000000000000000000000000 DUP2 MSTORE PUSH1 0x20 PUSH1 0x4 DUP3 ADD MSTORE PUSH1 0xA PUSH1 0x24 DUP3 ADD MSTORE PUSH32 0x4F6E6C79206F776E657200000000000000000000000000000000000000000000 PUSH1 0x44 DUP3 ADD MSTORE PUSH1 0x64 ADD PUSH2 0xA00 JUMP JUMPDEST PUSH1 0x4 DUP1 SLOAD PUSH32 0xFFFFFFFFFFFFFFFFFFFFFFFF0000000000000000000000000000000000000000 AND PUSH20 0xFFFFFFFFFFFFFFFFFFFFFFFFFFFFFFFFFFFFFFFF SWAP3 SWAP1 SWAP3 AND SWAP2 SWAP1 SWAP2 OR SWAP1 SSTORE JUMP JUMPDEST PUSH2 0xB20 PUSH2 0x3E60 JUMP JUMPDEST CALLER PUSH0 SWAP1 DUP2 MSTORE PUSH1 0xC PUSH1 0x20 SWAP1 DUP2 MSTORE PUSH1 0x40 DUP1 DUP4 KECCAK256 SLOAD DUP1 DUP5 MSTORE PUSH1 0xB SWAP1 SWAP3 MSTORE SWAP1 SWAP2 KECCAK256 PUSH1 0x10 SLOAD DUP4 LT ISZERO PUSH2 0xBA9 JUMPI PUSH1 0x40 MLOAD PUSH32 0x8C379A000000000000000000000000000000000000000000000000000000000 DUP2 MSTORE PUSH1 0x20 PUSH1 0x4 DUP3 ADD MSTORE PUSH1 0x1D PUSH1 0x24 DUP3 ADD MSTORE PUSH32 0x416D6F756E74206C657373207468616E206D696E207769746864726177000000 PUSH1 0x44 DUP3 ADD MSTORE PUSH1 0x64 ADD PUSH2 0xA00 JUMP JUMPDEST PUSH1 0x1 DUP2 ADD SLOAD PUSH20 0xFFFFFFFFFFFFFFFFFFFFFFFFFFFFFFFFFFFFFFFF AND CALLER EQ PUSH2 0xC2C JUMPI PUSH1 0x40 MLOAD PUSH32 0x8C379A000000000000000000000000000000000000000000000000000000000 DUP2 MSTORE PUSH1 0x20 PUSH1 0x4 DUP3 ADD MSTORE PUSH1 0xF PUSH1 0x24 DUP3 ADD MSTORE PUSH32 0x55736572206E6F74206578697374730000000000000000000000000000000000 PUSH1 0x44 DUP3 ADD MSTORE PUSH1 0x64 ADD PUSH2 0xA00 JUMP JUMPDEST DUP3 DUP2 PUSH1 0x2 ADD SLOAD LT ISZERO PUSH2 0xC9A JUMPI PUSH1 0x40 MLOAD PUSH32 0x8C379A000000000000000000000000000000000000000000000000000000000 DUP2 MSTORE PUSH1 0x20 PUSH1 0x4 DUP3 ADD MSTORE PUSH1 0x1B PUSH1 0x24 DUP3 ADD MSTORE PUSH32 0x4E6F7420656E6F75676874206465706F7369742062616C616E63650000000000 PUSH1 0x44 DUP3 ADD MSTORE PUSH1 0x64 ADD PUSH2 0xA00 JUMP JUMPDEST PUSH1 0x1 SLOAD PUSH1 0x40 MLOAD PUSH32 0xA9059CBB00000000000000000000000000000000000000000000000000000000 DUP2 MSTORE CALLER PUSH1 0x4 DUP3 ADD MSTORE PUSH1 0x24 DUP2 ADD DUP6 SWAP1 MSTORE PUSH20 0xFFFFFFFFFFFFFFFFFFFFFFFFFFFFFFFFFFFFFFFF SWAP1 SWAP2 AND SWAP1 PUSH4 0xA9059CBB SWAP1 PUSH1 0x44 ADD PUSH1 0x20 PUSH1 0x40 MLOAD DUP1 DUP4 SUB DUP2 PUSH0 DUP8 GAS CALL ISZERO DUP1 ISZERO PUSH2 0xD0E JUMPI RETURNDATASIZE PUSH0 DUP1 RETURNDATACOPY RETURNDATASIZE PUSH0 REVERT JUMPDEST POP POP POP POP PUSH1 0x40 MLOAD RETURNDATASIZE PUSH1 0x1F NOT PUSH1 0x1F DUP3 ADD AND DUP3 ADD DUP1 PUSH1 0x40 MSTORE POP DUP2 ADD SWAP1 PUSH2 0xD32 SWAP2 SWAP1 PUSH2 0x4768 JUMP JUMPDEST POP DUP3 DUP2 PUSH1 0x2 ADD PUSH0 DUP3 DUP3 SLOAD PUSH2 0xD46 SWAP2 SWAP1 PUSH2 0x47B4 JUMP JUMPDEST SWAP3 POP POP DUP2 SWAP1 SSTORE POP DUP3 PUSH1 0xD PUSH0 DUP3 DUP3 SLOAD PUSH2 0xD5E SWAP2 SWAP1 PUSH2 0x47B4 JUMP JUMPDEST SWAP1 SWAP2 SSTORE POP POP PUSH1 0x1 PUSH0 SSTORE POP PUSH2 0xD6F SWAP1 POP JUMP JUMPDEST POP JUMP JUMPDEST CALLER PUSH0 DUP2 DUP2 MSTORE PUSH1 0x8 PUSH1 0x20 SWAP1 DUP2 MSTORE PUSH1 0x40 DUP1 DUP4 KECCAK256 SLOAD DUP4 MSTORE PUSH1 0x7 SWAP1 SWAP2 MSTORE SWAP1 KECCAK256 PUSH1 0x3 ADD SLOAD PUSH20 0xFFFFFFFFFFFFFFFFFFFFFFFFFFFFFFFFFFFFFFFF AND EQ PUSH2 0xE0E JUMPI PUSH1 0x40 MLOAD PUSH32 0x8C379A000000000000000000000000000000000000000000000000000000000 DUP2 MSTORE PUSH1 0x20 PUSH1 0x4 DUP3 ADD MSTORE PUSH1 0x12 PUSH1 0x24 DUP3 ADD MSTORE PUSH32 0x4F6E6C792067616D6520636F6E74726163740000000000000000000000000000 PUSH1 0x44 DUP3 ADD MSTORE PUSH1 0x64 ADD PUSH2 0xA00 JUMP JUMPDEST PUSH2 0xE16 PUSH2 0x3E60 JUMP JUMPDEST CALLER PUSH0 SWAP1 DUP2 MSTORE PUSH1 0x8 PUSH1 0x20 SWAP1 DUP2 MSTORE PUSH1 0x40 DUP1 DUP4 KECCAK256 SLOAD DUP1 DUP5 MSTORE PUSH1 0x7 SWAP1 SWAP3 MSTORE DUP3 KECCAK256 PUSH1 0x6 ADD SLOAD SWAP1 SWAP2 SWAP1 PUSH1 0x64 SWAP1 PUSH2 0xE46 SWAP1 DUP6 PUSH2 0x47C7 JUMP JUMPDEST PUSH2 0xE50 SWAP2 SWAP1 PUSH2 0x47DE JUMP JUMPDEST PUSH0 DUP4 DUP2 MSTORE PUSH1 0x7 PUSH1 0x20 DUP2 SWAP1 MSTORE PUSH1 0x40 DUP3 KECCAK256 ADD SLOAD SWAP2 SWAP3 POP SWAP1 PUSH1 0x64 SWAP1 PUSH2 0xE72 SWAP1 DUP7 PUSH2 0x47C7 JUMP JUMPDEST PUSH2 0xE7C SWAP2 SWAP1 PUSH2 0x47DE JUMP JUMPDEST PUSH0 DUP5 DUP2 MSTORE PUSH1 0x7 PUSH1 0x20 MSTORE PUSH1 0x40 DUP2 KECCAK256 PUSH1 0x8 ADD SLOAD SWAP2 SWAP3 POP SWAP1 PUSH1 0x64 SWAP1 PUSH2 0xE9E SWAP1 DUP8 PUSH2 0x47C7 JUMP JUMPDEST PUSH2 0xEA8 SWAP2 SWAP1 PUSH2 0x47DE JUMP JUMPDEST SWAP1 POP DUP1 PUSH2 0xEB5 DUP4 DUP6 PUSH2 0x4816 JUMP JUMPDEST PUSH2 0xEBF SWAP2 SWAP1 PUSH2 0x4816 JUMP JUMPDEST PUSH0 DUP6 DUP2 MSTORE PUSH1 0x7 PUSH1 0x20 MSTORE PUSH1 0x40 SWAP1 KECCAK256 PUSH1 0x4 ADD SLOAD LT PUSH2 0xF35 JUMPI DUP1 PUSH2 0xEE0 DUP4 DUP6 PUSH2 0x4816 JUMP JUMPDEST PUSH2 0xEEA SWAP2 SWAP1 PUSH2 0x4816 JUMP JUMPDEST PUSH0 DUP6 DUP2 MSTORE PUSH1 0x7 PUSH1 0x20 MSTORE PUSH1 0x40 DUP2 KECCAK256 PUSH1 0x4 ADD DUP1 SLOAD SWAP1 SWAP2 SWAP1 PUSH2 0xF0A SWAP1 DUP5 SWAP1 PUSH2 0x47B4 JUMP JUMPDEST SWAP1 SWAP2 SSTORE POP PUSH2 0xF1A SWAP1 POP DUP3 DUP5 PUSH2 0x4816 JUMP JUMPDEST PUSH1 0xE PUSH0 DUP3 DUP3 SLOAD PUSH2 0xF2A SWAP2 SWAP1 PUSH2 0x47B4 JUMP JUMPDEST SWAP1 SWAP2 SSTORE POP PUSH2 0xF9B SWAP1 POP JUMP JUMPDEST DUP1 PUSH2 0xF40 DUP4 DUP6 PUSH2 0x4816 JUMP JUMPDEST PUSH2 0xF4A SWAP2 SWAP1 PUSH2 0x4816 JUMP JUMPDEST PUSH0 DUP6 DUP2 MSTORE PUSH1 0x7 PUSH1 0x20 MSTORE PUSH1 0x40 DUP2 KECCAK256 PUSH1 0x5 ADD DUP1 SLOAD SWAP1 SWAP2 SWAP1 PUSH2 0xF6A SWAP1 DUP5 SWAP1 PUSH2 0x4816 JUMP JUMPDEST SWAP1 SWAP2 SSTORE POP DUP2 SWAP1 POP PUSH2 0xF7B DUP4 DUP6 PUSH2 0x4816 JUMP JUMPDEST PUSH2 0xF85 SWAP2 SWAP1 PUSH2 0x4816 JUMP JUMPDEST PUSH1 0xF PUSH0 DUP3 DUP3 SLOAD PUSH2 0xF95 SWAP2 SWAP1 PUSH2 0x4816 JUMP JUMPDEST SWAP1 SWAP2 SSTORE POP POP JUMPDEST DUP3 ISZERO PUSH2 0x103F JUMPI PUSH1 0x1 SLOAD PUSH1 0x3 SLOAD PUSH1 0x40 MLOAD PUSH32 0xA9059CBB00000000000000000000000000000000000000000000000000000000 DUP2 MSTORE PUSH20 0xFFFFFFFFFFFFFFFFFFFFFFFFFFFFFFFFFFFFFFFF SWAP2 DUP3 AND PUSH1 0x4 DUP3 ADD MSTORE PUSH1 0x24 DUP2 ADD DUP7 SWAP1 MSTORE SWAP2 AND SWAP1 PUSH4 0xA9059CBB SWAP1 PUSH1 0x44 ADD PUSH1 0x20 PUSH1 0x40 MLOAD DUP1 DUP4 SUB DUP2 PUSH0 DUP8 GAS CALL ISZERO DUP1 ISZERO PUSH2 0x1019 JUMPI RETURNDATASIZE PUSH0 DUP1 RETURNDATACOPY RETURNDATASIZE PUSH0 REVERT JUMPDEST POP POP POP POP PUSH1 0x40 MLOAD RETURNDATASIZE PUSH1 0x1F NOT PUSH1 0x1F DUP3 ADD AND DUP3 ADD DUP1 PUSH1 0x40 MSTORE POP DUP2 ADD SWAP1 PUSH2 0x103D SWAP2 SWAP1 PUSH2 0x4768 JUMP JUMPDEST POP JUMPDEST DUP2 ISZERO PUSH2 0x10E7 JUMPI PUSH1 0x1 SLOAD PUSH1 0x4 DUP1 SLOAD PUSH1 0x40 MLOAD PUSH32 0xA9059CBB00000000000000000000000000000000000000000000000000000000 DUP2 MSTORE PUSH20 0xFFFFFFFFFFFFFFFFFFFFFFFFFFFFFFFFFFFFFFFF SWAP2 DUP3 AND SWAP3 DUP2 ADD SWAP3 SWAP1 SWAP3 MSTORE PUSH1 0x24 DUP3 ADD DUP6 SWAP1 MSTORE SWAP1 SWAP2 AND SWAP1 PUSH4 0xA9059CBB SWAP1 PUSH1 0x44 ADD PUSH1 0x20 PUSH1 0x40 MLOAD DUP1 DUP4 SUB DUP2 PUSH0 DUP8 GAS CALL ISZERO DUP1 ISZERO PUSH2 0x10C1 JUMPI RETURNDATASIZE PUSH0 DUP1 RETURNDATACOPY RETURNDATASIZE PUSH0 REVERT JUMPDEST POP POP POP POP PUSH1 0x40 MLOAD RETURNDATASIZE PUSH1 0x1F NOT PUSH1 0x1F DUP3 ADD AND DUP3 ADD DUP1 PUSH1 0x40 MSTORE POP DUP2 ADD SWAP1 PUSH2 0x10E5 SWAP2 SWAP1 PUSH2 0x4768 JUMP JUMPDEST POP JUMPDEST DUP1 ISZERO PUSH2 0x118B JUMPI PUSH1 0x1 SLOAD PUSH1 0x5 SLOAD PUSH1 0x40 MLOAD PUSH32 0xA9059CBB00000000000000000000000000000000000000000000000000000000 DUP2 MSTORE PUSH20 0xFFFFFFFFFFFFFFFFFFFFFFFFFFFFFFFFFFFFFFFF SWAP2 DUP3 AND PUSH1 0x4 DUP3 ADD MSTORE PUSH1 0x24 DUP2 ADD DUP5 SWAP1 MSTORE SWAP2 AND SWAP1 PUSH4 0xA9059CBB SWAP1 PUSH1 0x44 ADD PUSH1 0x20 PUSH1 0x40 MLOAD DUP1 DUP4 SUB DUP2 PUSH0 DUP8 GAS CALL ISZERO DUP1 ISZERO PUSH2 0x1165 JUMPI RETURNDATASIZE PUSH0 DUP1 RETURNDATACOPY RETURNDATASIZE PUSH0 REVERT JUMPDEST POP POP POP POP PUSH1 0x40 MLOAD RETURNDATASIZE PUSH1 0x1F NOT PUSH1 0x1F DUP3 ADD AND DUP3 ADD DUP1 PUSH1 0x40 MSTORE POP DUP2 ADD SWAP1 PUSH2 0x1189 SWAP2 SWAP1 PUSH2 0x4768 JUMP JUMPDEST POP JUMPDEST POP POP POP POP PUSH2 0xD6F PUSH1 0x1 PUSH0 SSTORE JUMP JUMPDEST PUSH1 0x2 SLOAD PUSH20 0xFFFFFFFFFFFFFFFFFFFFFFFFFFFFFFFFFFFFFFFF AND CALLER EQ PUSH2 0x1219 JUMPI PUSH1 0x40 MLOAD PUSH32 0x8C379A000000000000000000000000000000000000000000000000000000000 DUP2 MSTORE PUSH1 0x20 PUSH1 0x4 DUP3 ADD MSTORE PUSH1 0xA PUSH1 0x24 DUP3 ADD MSTORE PUSH32 0x4F6E6C79206F776E657200000000000000000000000000000000000000000000 PUSH1 0x44 DUP3 ADD MSTORE PUSH1 0x64 ADD PUSH2 0xA00 JUMP JUMPDEST PUSH2 0x1221 PUSH2 0x3E60 JUMP JUMPDEST PUSH0 DUP3 DUP2 MSTORE PUSH1 0x7 PUSH1 0x20 MSTORE PUSH1 0x40 SWAP1 KECCAK256 SLOAD DUP3 EQ PUSH2 0x1297 JUMPI PUSH1 0x40 MLOAD PUSH32 0x8C379A000000000000000000000000000000000000000000000000000000000 DUP2 MSTORE PUSH1 0x20 PUSH1 0x4 DUP3 ADD MSTORE PUSH1 0x10 PUSH1 0x24 DUP3 ADD MSTORE PUSH32 0x47616D65206E6F7420666F756E64656400000000000000000000000000000000 PUSH1 0x44 DUP3 ADD MSTORE PUSH1 0x64 ADD PUSH2 0xA00 JUMP JUMPDEST PUSH0 DUP2 GT PUSH2 0x1300 JUMPI PUSH1 0x40 MLOAD PUSH32 0x8C379A000000000000000000000000000000000000000000000000000000000 DUP2 MSTORE PUSH1 0x20 PUSH1 0x4 DUP3 ADD MSTORE PUSH1 0x1D PUSH1 0x24 DUP3 ADD MSTORE PUSH32 0x416D6F756E74206D7573742062652067726561746572207468616E2030000000 PUSH1 0x44 DUP3 ADD MSTORE PUSH1 0x64 ADD PUSH2 0xA00 JUMP JUMPDEST PUSH0 DUP3 DUP2 MSTORE PUSH1 0x7 PUSH1 0x20 MSTORE PUSH1 0x40 SWAP1 KECCAK256 PUSH1 0x5 ADD SLOAD DUP2 GT ISZERO PUSH2 0x137A JUMPI PUSH1 0x40 MLOAD PUSH32 0x8C379A000000000000000000000000000000000000000000000000000000000 DUP2 MSTORE PUSH1 0x20 PUSH1 0x4 DUP3 ADD MSTORE PUSH1 0xF PUSH1 0x24 DUP3 ADD MSTORE PUSH32 0x546F6F206D75636820616D6F756E740000000000000000000000000000000000 PUSH1 0x44 DUP3 ADD MSTORE PUSH1 0x64 ADD PUSH2 0xA00 JUMP JUMPDEST PUSH1 0x1 SLOAD PUSH1 0x40 MLOAD PUSH32 0x23B872DD00000000000000000000000000000000000000000000000000000000 DUP2 MSTORE CALLER PUSH1 0x4 DUP3 ADD MSTORE ADDRESS PUSH1 0x24 DUP3 ADD MSTORE PUSH1 0x44 DUP2 ADD DUP4 SWAP1 MSTORE PUSH20 0xFFFFFFFFFFFFFFFFFFFFFFFFFFFFFFFFFFFFFFFF SWAP1 SWAP2 AND SWAP1 PUSH4 0x23B872DD SWAP1 PUSH1 0x64 ADD PUSH1 0x20 PUSH1 0x40 MLOAD DUP1 DUP4 SUB DUP2 PUSH0 DUP8 GAS CALL ISZERO DUP1 ISZERO PUSH2 0x13F4 JUMPI RETURNDATASIZE PUSH0 DUP1 RETURNDATACOPY RETURNDATASIZE PUSH0 REVERT JUMPDEST POP POP POP POP PUSH1 0x40 MLOAD RETURNDATASIZE PUSH1 0x1F NOT PUSH1 0x1F DUP3 ADD AND DUP3 ADD DUP1 PUSH1 0x40 MSTORE POP DUP2 ADD SWAP1 PUSH2 0x1418 SWAP2 SWAP1 PUSH2 0x4768 JUMP JUMPDEST POP PUSH0 DUP3 DUP2 MSTORE PUSH1 0x7 PUSH1 0x20 MSTORE PUSH1 0x40 DUP2 KECCAK256 PUSH1 0x5 ADD DUP1 SLOAD DUP4 SWAP3 SWAP1 PUSH2 0x1439 SWAP1 DUP5 SWAP1 PUSH2 0x47B4 JUMP JUMPDEST SWAP3 POP POP DUP2 SWAP1 SSTORE POP DUP1 PUSH1 0xF PUSH0 DUP3 DUP3 SLOAD PUSH2 0x1451 SWAP2 SWAP1 PUSH2 0x47B4 JUMP JUMPDEST SWAP1 SWAP2 SSTORE POP POP PUSH1 0x1 PUSH0 SSTORE POP POP JUMP JUMPDEST POP POP JUMP JUMPDEST PUSH1 0x2 SLOAD PUSH20 0xFFFFFFFFFFFFFFFFFFFFFFFFFFFFFFFFFFFFFFFF AND CALLER EQ PUSH2 0x14E3 JUMPI PUSH1 0x40 MLOAD PUSH32 0x8C379A000000000000000000000000000000000000000000000000000000000 DUP2 MSTORE PUSH1 0x20 PUSH1 0x4 DUP3 ADD MSTORE PUSH1 0xA PUSH1 0x24 DUP3 ADD MSTORE PUSH32 0x4F6E6C79206F776E657200000000000000000000000000000000000000000000 PUSH1 0x44 DUP3 ADD MSTORE PUSH1 0x64 ADD PUSH2 0xA00 JUMP JUMPDEST PUSH1 0x1 SLOAD PUSH20 0xFFFFFFFFFFFFFFFFFFFFFFFFFFFFFFFFFFFFFFFF SWAP1 DUP2 AND SWAP1 DUP4 AND SUB PUSH2 0x158E JUMPI PUSH1 0x40 MLOAD PUSH32 0x8C379A000000000000000000000000000000000000000000000000000000000 DUP2 MSTORE PUSH1 0x20 PUSH1 0x4 DUP3 ADD MSTORE PUSH1 0x2B PUSH1 0x24 DUP3 ADD MSTORE PUSH32 0x43616E74207265636F7765722067616D6520746F6B656E2E204F6E6C79206261 PUSH1 0x44 DUP3 ADD MSTORE PUSH32 0x6E6B207769746864726177000000000000000000000000000000000000000000 PUSH1 0x64 DUP3 ADD MSTORE PUSH1 0x84 ADD PUSH2 0xA00 JUMP JUMPDEST PUSH1 0x2 SLOAD PUSH1 0x40 MLOAD PUSH32 0xA9059CBB00000000000000000000000000000000000000000000000000000000 DUP2 MSTORE PUSH20 0xFFFFFFFFFFFFFFFFFFFFFFFFFFFFFFFFFFFFFFFF SWAP2 DUP3 AND PUSH1 0x4 DUP3 ADD MSTORE PUSH1 0x24 DUP2 ADD DUP4 SWAP1 MSTORE SWAP1 DUP4 AND SWAP1 PUSH4 0xA9059CBB SWAP1 PUSH1 0x44 ADD PUSH1 0x20 PUSH1 0x40 MLOAD DUP1 DUP4 SUB DUP2 PUSH0 DUP8 GAS CALL ISZERO DUP1 ISZERO PUSH2 0x1604 JUMPI RETURNDATASIZE PUSH0 DUP1 RETURNDATACOPY RETURNDATASIZE PUSH0 REVERT JUMPDEST POP POP POP POP PUSH1 0x40 MLOAD RETURNDATASIZE PUSH1 0x1F NOT PUSH1 0x1F DUP3 ADD AND DUP3 ADD DUP1 PUSH1 0x40 MSTORE POP DUP2 ADD SWAP1 PUSH2 0x1628 SWAP2 SWAP1 PUSH2 0x4768 JUMP JUMPDEST POP POP POP JUMP JUMPDEST PUSH1 0x60 PUSH1 0xA SLOAD DUP4 GT ISZERO PUSH2 0x16A0 JUMPI PUSH1 0x40 DUP1 MLOAD PUSH0 DUP1 DUP3 MSTORE PUSH1 0x20 DUP3 ADD SWAP1 SWAP3 MSTORE SWAP1 PUSH2 0x1698 JUMP JUMPDEST PUSH2 0x1685 PUSH1 0x40 MLOAD DUP1 PUSH1 0x60 ADD PUSH1 0x40 MSTORE DUP1 PUSH0 DUP2 MSTORE PUSH1 0x20 ADD PUSH0 PUSH20 0xFFFFFFFFFFFFFFFFFFFFFFFFFFFFFFFFFFFFFFFF AND DUP2 MSTORE PUSH1 0x20 ADD PUSH0 DUP2 MSTORE POP SWAP1 JUMP JUMPDEST DUP2 MSTORE PUSH1 0x20 ADD SWAP1 PUSH1 0x1 SWAP1 SUB SWAP1 DUP2 PUSH2 0x164E JUMPI SWAP1 POP JUMPDEST POP SWAP1 POP PUSH2 0x17F9 JUMP JUMPDEST DUP3 ISZERO DUP1 ISZERO PUSH2 0x16AC JUMPI POP DUP2 ISZERO JUMPDEST ISZERO PUSH2 0x16B7 JUMPI PUSH1 0xA SLOAD SWAP2 POP JUMPDEST PUSH1 0xA SLOAD PUSH2 0x16C4 DUP4 DUP6 PUSH2 0x4816 JUMP JUMPDEST GT ISZERO PUSH2 0x16DB JUMPI DUP3 PUSH1 0xA SLOAD PUSH2 0x16D8 SWAP2 SWAP1 PUSH2 0x47B4 JUMP JUMPDEST SWAP2 POP JUMPDEST PUSH0 DUP3 PUSH8 0xFFFFFFFFFFFFFFFF DUP2 GT ISZERO PUSH2 0x16F5 JUMPI PUSH2 0x16F5 PUSH2 0x4400 JUMP JUMPDEST PUSH1 0x40 MLOAD SWAP1 DUP1 DUP3 MSTORE DUP1 PUSH1 0x20 MUL PUSH1 0x20 ADD DUP3 ADD PUSH1 0x40 MSTORE DUP1 ISZERO PUSH2 0x175D JUMPI DUP2 PUSH1 0x20 ADD JUMPDEST PUSH2 0x174A PUSH1 0x40 MLOAD DUP1 PUSH1 0x60 ADD PUSH1 0x40 MSTORE DUP1 PUSH0 DUP2 MSTORE PUSH1 0x20 ADD PUSH0 PUSH20 0xFFFFFFFFFFFFFFFFFFFFFFFFFFFFFFFFFFFFFFFF AND DUP2 MSTORE PUSH1 0x20 ADD PUSH0 DUP2 MSTORE POP SWAP1 JUMP JUMPDEST DUP2 MSTORE PUSH1 0x20 ADD SWAP1 PUSH1 0x1 SWAP1 SUB SWAP1 DUP2 PUSH2 0x1713 JUMPI SWAP1 POP JUMPDEST POP SWAP1 POP PUSH0 JUMPDEST DUP4 DUP2 LT ISZERO PUSH2 0x17F5 JUMPI PUSH1 0xB PUSH0 DUP7 DUP4 PUSH1 0xA SLOAD PUSH2 0x177C SWAP2 SWAP1 PUSH2 0x47B4 JUMP JUMPDEST PUSH2 0x1786 SWAP2 SWAP1 PUSH2 0x47B4 JUMP JUMPDEST DUP2 MSTORE PUSH1 0x20 DUP1 DUP3 ADD SWAP3 SWAP1 SWAP3 MSTORE PUSH1 0x40 SWAP1 DUP2 ADD PUSH0 KECCAK256 DUP2 MLOAD PUSH1 0x60 DUP2 ADD DUP4 MSTORE DUP2 SLOAD DUP2 MSTORE PUSH1 0x1 DUP3 ADD SLOAD PUSH20 0xFFFFFFFFFFFFFFFFFFFFFFFFFFFFFFFFFFFFFFFF AND SWAP4 DUP2 ADD SWAP4 SWAP1 SWAP4 MSTORE PUSH1 0x2 ADD SLOAD SWAP1 DUP3 ADD MSTORE DUP3 MLOAD DUP4 SWAP1 DUP4 SWAP1 DUP2 LT PUSH2 0x17E2 JUMPI PUSH2 0x17E2 PUSH2 0x4829 JUMP JUMPDEST PUSH1 0x20 SWAP1 DUP2 MUL SWAP2 SWAP1 SWAP2 ADD ADD MSTORE PUSH1 0x1 ADD PUSH2 0x1762 JUMP JUMPDEST POP SWAP1 POP JUMPDEST SWAP3 SWAP2 POP POP JUMP JUMPDEST PUSH1 0x2 SLOAD PUSH20 0xFFFFFFFFFFFFFFFFFFFFFFFFFFFFFFFFFFFFFFFF AND CALLER EQ PUSH2 0x1880 JUMPI PUSH1 0x40 MLOAD PUSH32 0x8C379A000000000000000000000000000000000000000000000000000000000 DUP2 MSTORE PUSH1 0x20 PUSH1 0x4 DUP3 ADD MSTORE PUSH1 0xA PUSH1 0x24 DUP3 ADD MSTORE PUSH32 0x4F6E6C79206F776E657200000000000000000000000000000000000000000000 PUSH1 0x44 DUP3 ADD MSTORE PUSH1 0x64 ADD PUSH2 0xA00 JUMP JUMPDEST PUSH1 0x3 DUP1 SLOAD PUSH32 0xFFFFFFFFFFFFFFFFFFFFFFFF0000000000000000000000000000000000000000 AND PUSH20 0xFFFFFFFFFFFFFFFFFFFFFFFFFFFFFFFFFFFFFFFF SWAP3 SWAP1 SWAP3 AND SWAP2 SWAP1 SWAP2 OR SWAP1 SSTORE JUMP JUMPDEST PUSH1 0x2 SLOAD PUSH20 0xFFFFFFFFFFFFFFFFFFFFFFFFFFFFFFFFFFFFFFFF AND CALLER EQ PUSH2 0x1948 JUMPI PUSH1 0x40 MLOAD PUSH32 0x8C379A000000000000000000000000000000000000000000000000000000000 DUP2 MSTORE PUSH1 0x20 PUSH1 0x4 DUP3 ADD MSTORE PUSH1 0xA PUSH1 0x24 DUP3 ADD MSTORE PUSH32 0x4F6E6C79206F776E657200000000000000000000000000000000000000000000 PUSH1 0x44 DUP3 ADD MSTORE PUSH1 0x64 ADD PUSH2 0xA00 JUMP JUMPDEST PUSH1 0x10 SSTORE JUMP JUMPDEST PUSH2 0x1984 PUSH1 0x40 MLOAD DUP1 PUSH1 0x60 ADD PUSH1 0x40 MSTORE DUP1 PUSH0 DUP2 MSTORE PUSH1 0x20 ADD PUSH0 PUSH20 0xFFFFFFFFFFFFFFFFFFFFFFFFFFFFFFFFFFFFFFFF AND DUP2 MSTORE PUSH1 0x20 ADD PUSH0 DUP2 MSTORE POP SWAP1 JUMP JUMPDEST POP PUSH20 0xFFFFFFFFFFFFFFFFFFFFFFFFFFFFFFFFFFFFFFFF SWAP1 DUP2 AND PUSH0 SWAP1 DUP2 MSTORE PUSH1 0xC PUSH1 0x20 SWAP1 DUP2 MSTORE PUSH1 0x40 DUP1 DUP4 KECCAK256 SLOAD DUP4 MSTORE PUSH1 0xB DUP3 MSTORE SWAP2 DUP3 SWAP1 KECCAK256 DUP3 MLOAD PUSH1 0x60 DUP2 ADD DUP5 MSTORE DUP2 SLOAD DUP2 MSTORE PUSH1 0x1 DUP3 ADD SLOAD SWAP1 SWAP5 AND SWAP2 DUP5 ADD SWAP2 SWAP1 SWAP2 MSTORE PUSH1 0x2 ADD SLOAD SWAP1 DUP3 ADD MSTORE SWAP1 JUMP JUMPDEST PUSH2 0x1A45 PUSH1 0x40 MLOAD DUP1 PUSH2 0x140 ADD PUSH1 0x40 MSTORE DUP1 PUSH0 DUP2 MSTORE PUSH1 0x20 ADD PUSH1 0x60 DUP2 MSTORE PUSH1 0x20 ADD PUSH0 DUP1 NOT AND DUP2 MSTORE PUSH1 0x20 ADD PUSH0 PUSH20 0xFFFFFFFFFFFFFFFFFFFFFFFFFFFFFFFFFFFFFFFF AND DUP2 MSTORE PUSH1 0x20 ADD PUSH0 DUP2 MSTORE PUSH1 0x20 ADD PUSH0 DUP2 MSTORE PUSH1 0x20 ADD PUSH0 DUP2 MSTORE PUSH1 0x20 ADD PUSH0 DUP2 MSTORE PUSH1 0x20 ADD PUSH0 DUP2 MSTORE PUSH1 0x20 ADD PUSH1 0x60 DUP2 MSTORE POP SWAP1 JUMP JUMPDEST PUSH20 0xFFFFFFFFFFFFFFFFFFFFFFFFFFFFFFFFFFFFFFFF DUP3 AND PUSH0 SWAP1 DUP2 MSTORE PUSH1 0x8 PUSH1 0x20 SWAP1 DUP2 MSTORE PUSH1 0x40 DUP1 DUP4 KECCAK256 SLOAD DUP4 MSTORE PUSH1 0x7 DUP3 MSTORE SWAP2 DUP3 SWAP1 KECCAK256 DUP3 MLOAD PUSH2 0x140 DUP2 ADD SWAP1 SWAP4 MSTORE DUP1 SLOAD DUP4 MSTORE PUSH1 0x1 DUP2 ADD DUP1 SLOAD SWAP2 SWAP3 DUP5 ADD SWAP2 PUSH2 0x1A99 SWAP1 PUSH2 0x4717 JUMP JUMPDEST DUP1 PUSH1 0x1F ADD PUSH1 0x20 DUP1 SWAP2 DIV MUL PUSH1 0x20 ADD PUSH1 0x40 MLOAD SWAP1 DUP2 ADD PUSH1 0x40 MSTORE DUP1 SWAP3 SWAP2 SWAP1 DUP2 DUP2 MSTORE PUSH1 0x20 ADD DUP3 DUP1 SLOAD PUSH2 0x1AC5 SWAP1 PUSH2 0x4717 JUMP JUMPDEST DUP1 ISZERO PUSH2 0x1B10 JUMPI DUP1 PUSH1 0x1F LT PUSH2 0x1AE7 JUMPI PUSH2 0x100 DUP1 DUP4 SLOAD DIV MUL DUP4 MSTORE SWAP2 PUSH1 0x20 ADD SWAP2 PUSH2 0x1B10 JUMP JUMPDEST DUP3 ADD SWAP2 SWAP1 PUSH0 MSTORE PUSH1 0x20 PUSH0 KECCAK256 SWAP1 JUMPDEST DUP2 SLOAD DUP2 MSTORE SWAP1 PUSH1 0x1 ADD SWAP1 PUSH1 0x20 ADD DUP1 DUP4 GT PUSH2 0x1AF3 JUMPI DUP3 SWAP1 SUB PUSH1 0x1F AND DUP3 ADD SWAP2 JUMPDEST POP POP POP SWAP2 DUP4 MSTORE POP POP PUSH1 0x2 DUP3 ADD SLOAD PUSH1 0x20 DUP3 ADD MSTORE PUSH1 0x3 DUP3 ADD SLOAD PUSH20 0xFFFFFFFFFFFFFFFFFFFFFFFFFFFFFFFFFFFFFFFF AND PUSH1 0x40 DUP3 ADD MSTORE PUSH1 0x4 DUP3 ADD SLOAD PUSH1 0x60 DUP3 ADD MSTORE PUSH1 0x5 DUP3 ADD SLOAD PUSH1 0x80 DUP3 ADD MSTORE PUSH1 0x6 DUP3 ADD SLOAD PUSH1 0xA0 DUP3 ADD MSTORE PUSH1 0x7 DUP3 ADD SLOAD PUSH1 0xC0 DUP3 ADD MSTORE PUSH1 0x8 DUP3 ADD SLOAD PUSH1 0xE0 DUP3 ADD MSTORE PUSH1 0x9 DUP3 ADD DUP1 SLOAD PUSH2 0x100 SWAP1 SWAP3 ADD SWAP2 PUSH2 0x1B8A SWAP1 PUSH2 0x4717 JUMP JUMPDEST DUP1 PUSH1 0x1F ADD PUSH1 0x20 DUP1 SWAP2 DIV MUL PUSH1 0x20 ADD PUSH1 0x40 MLOAD SWAP1 DUP2 ADD PUSH1 0x40 MSTORE DUP1 SWAP3 SWAP2 SWAP1 DUP2 DUP2 MSTORE PUSH1 0x20 ADD DUP3 DUP1 SLOAD PUSH2 0x1BB6 SWAP1 PUSH2 0x4717 JUMP JUMPDEST DUP1 ISZERO PUSH2 0x1C01 JUMPI DUP1 PUSH1 0x1F LT PUSH2 0x1BD8 JUMPI PUSH2 0x100 DUP1 DUP4 SLOAD DIV MUL DUP4 MSTORE SWAP2 PUSH1 0x20 ADD SWAP2 PUSH2 0x1C01 JUMP JUMPDEST DUP3 ADD SWAP2 SWAP1 PUSH0 MSTORE PUSH1 0x20 PUSH0 KECCAK256 SWAP1 JUMPDEST DUP2 SLOAD DUP2 MSTORE SWAP1 PUSH1 0x1 ADD SWAP1 PUSH1 0x20 ADD DUP1 DUP4 GT PUSH2 0x1BE4 JUMPI DUP3 SWAP1 SUB PUSH1 0x1F AND DUP3 ADD SWAP2 JUMPDEST POP POP POP POP POP DUP2 MSTORE POP POP SWAP1 POP SWAP2 SWAP1 POP JUMP JUMPDEST PUSH1 0x2 SLOAD PUSH20 0xFFFFFFFFFFFFFFFFFFFFFFFFFFFFFFFFFFFFFFFF AND CALLER EQ PUSH2 0x1C92 JUMPI PUSH1 0x40 MLOAD PUSH32 0x8C379A000000000000000000000000000000000000000000000000000000000 DUP2 MSTORE PUSH1 0x20 PUSH1 0x4 DUP3 ADD MSTORE PUSH1 0xA PUSH1 0x24 DUP3 ADD MSTORE PUSH32 0x4F6E6C79206F776E657200000000000000000000000000000000000000000000 PUSH1 0x44 DUP3 ADD MSTORE PUSH1 0x64 ADD PUSH2 0xA00 JUMP JUMPDEST PUSH0 DUP2 DUP2 MSTORE PUSH1 0x7 PUSH1 0x20 MSTORE PUSH1 0x40 SWAP1 KECCAK256 SLOAD DUP2 SWAP1 SUB PUSH2 0xD6F JUMPI PUSH0 DUP2 DUP2 MSTORE PUSH1 0x7 PUSH1 0x20 MSTORE PUSH1 0x40 SWAP1 KECCAK256 PUSH1 0x4 ADD SLOAD ISZERO PUSH2 0x1D44 JUMPI PUSH1 0x40 MLOAD PUSH32 0x8C379A000000000000000000000000000000000000000000000000000000000 DUP2 MSTORE PUSH1 0x20 PUSH1 0x4 DUP3 ADD MSTORE PUSH1 0x24 DUP1 DUP3 ADD MSTORE PUSH32 0x43616E742072656D6F76652067616D652077697468206E6F7420656D70747920 PUSH1 0x44 DUP3 ADD MSTORE PUSH32 0x62616E6B00000000000000000000000000000000000000000000000000000000 PUSH1 0x64 DUP3 ADD MSTORE PUSH1 0x84 ADD PUSH2 0xA00 JUMP JUMPDEST PUSH0 DUP2 DUP2 MSTORE PUSH1 0x7 PUSH1 0x20 MSTORE PUSH1 0x40 SWAP1 KECCAK256 PUSH1 0x5 ADD SLOAD ISZERO PUSH2 0x1DE2 JUMPI PUSH1 0x40 MLOAD PUSH32 0x8C379A000000000000000000000000000000000000000000000000000000000 DUP2 MSTORE PUSH1 0x20 PUSH1 0x4 DUP3 ADD MSTORE PUSH1 0x2C PUSH1 0x24 DUP3 ADD MSTORE PUSH32 0x43616E742072656D6F76652067616D652077697468206E6F7420656D70747920 PUSH1 0x44 DUP3 ADD MSTORE PUSH32 0x70656E64696E672062616E6B0000000000000000000000000000000000000000 PUSH1 0x64 DUP3 ADD MSTORE PUSH1 0x84 ADD PUSH2 0xA00 JUMP JUMPDEST PUSH0 DUP2 DUP2 MSTORE PUSH1 0x7 PUSH1 0x20 MSTORE PUSH1 0x40 SWAP1 KECCAK256 PUSH1 0x3 DUP2 ADD SLOAD PUSH1 0x2 SWAP1 SWAP2 ADD SLOAD PUSH1 0x6 SLOAD PUSH20 0xFFFFFFFFFFFFFFFFFFFFFFFFFFFFFFFFFFFFFFFF SWAP1 SWAP3 AND SWAP2 DUP4 LT ISZERO PUSH2 0x1F45 JUMPI PUSH1 0x6 DUP1 SLOAD PUSH0 SWAP1 DUP2 MSTORE PUSH1 0x7 PUSH1 0x20 MSTORE PUSH1 0x40 DUP1 DUP3 KECCAK256 DUP7 SWAP1 SSTORE SWAP2 SLOAD DUP2 MSTORE DUP2 DUP2 KECCAK256 DUP6 DUP3 MSTORE SWAP2 SWAP1 KECCAK256 DUP2 SLOAD DUP2 SSTORE PUSH1 0x1 DUP1 DUP3 ADD SWAP1 PUSH2 0x1E55 SWAP1 DUP5 ADD DUP3 PUSH2 0x48A1 JUMP JUMPDEST POP PUSH1 0x2 DUP3 DUP2 ADD SLOAD SWAP1 DUP3 ADD SSTORE PUSH1 0x3 DUP1 DUP4 ADD SLOAD SWAP1 DUP3 ADD DUP1 SLOAD PUSH32 0xFFFFFFFFFFFFFFFFFFFFFFFF0000000000000000000000000000000000000000 AND PUSH20 0xFFFFFFFFFFFFFFFFFFFFFFFFFFFFFFFFFFFFFFFF SWAP1 SWAP3 AND SWAP2 SWAP1 SWAP2 OR SWAP1 SSTORE PUSH1 0x4 DUP1 DUP4 ADD SLOAD SWAP1 DUP3 ADD SSTORE PUSH1 0x5 DUP1 DUP4 ADD SLOAD SWAP1 DUP3 ADD SSTORE PUSH1 0x6 DUP1 DUP4 ADD SLOAD SWAP1 DUP3 ADD SSTORE PUSH1 0x7 DUP1 DUP4 ADD SLOAD SWAP1 DUP3 ADD SSTORE PUSH1 0x8 DUP1 DUP4 ADD SLOAD SWAP1 DUP3 ADD SSTORE PUSH1 0x9 DUP1 DUP3 ADD SWAP1 PUSH2 0x1EEF SWAP1 DUP5 ADD DUP3 PUSH2 0x48A1 JUMP JUMPDEST POP POP PUSH1 0x6 DUP1 SLOAD PUSH0 SWAP1 DUP2 MSTORE PUSH1 0x7 PUSH1 0x20 DUP2 DUP2 MSTORE PUSH1 0x40 DUP1 DUP5 KECCAK256 PUSH1 0x3 ADD SLOAD PUSH20 0xFFFFFFFFFFFFFFFFFFFFFFFFFFFFFFFFFFFFFFFF AND DUP5 MSTORE PUSH1 0x8 DUP3 MSTORE DUP1 DUP5 KECCAK256 DUP10 SWAP1 SSTORE SWAP4 SLOAD DUP4 MSTORE SWAP1 DUP2 MSTORE DUP3 DUP3 KECCAK256 PUSH1 0x2 ADD SLOAD DUP3 MSTORE PUSH1 0x9 SWAP1 MSTORE KECCAK256 DUP5 SWAP1 SSTORE POP JUMPDEST PUSH1 0x6 SLOAD PUSH0 SWAP1 DUP2 MSTORE PUSH1 0x7 PUSH1 0x20 MSTORE PUSH1 0x40 DUP2 KECCAK256 DUP2 DUP2 SSTORE SWAP1 PUSH2 0x1F66 PUSH1 0x1 DUP4 ADD DUP3 PUSH2 0x3FCE JUMP JUMPDEST PUSH0 PUSH1 0x2 DUP4 ADD DUP2 SWAP1 SSTORE PUSH1 0x3 DUP4 ADD DUP1 SLOAD PUSH32 0xFFFFFFFFFFFFFFFFFFFFFFFF0000000000000000000000000000000000000000 AND SWAP1 SSTORE PUSH1 0x4 DUP4 ADD DUP2 SWAP1 SSTORE PUSH1 0x5 DUP4 ADD DUP2 SWAP1 SSTORE PUSH1 0x6 DUP4 ADD DUP2 SWAP1 SSTORE PUSH1 0x7 DUP4 ADD DUP2 SWAP1 SSTORE PUSH1 0x8 DUP4 ADD DUP2 SWAP1 SSTORE PUSH2 0x1FC9 SWAP1 PUSH1 0x9 DUP5 ADD SWAP1 PUSH2 0x3FCE JUMP JUMPDEST POP POP PUSH20 0xFFFFFFFFFFFFFFFFFFFFFFFFFFFFFFFFFFFFFFFF DUP3 AND PUSH0 SWAP1 DUP2 MSTORE PUSH1 0x8 PUSH1 0x20 SWAP1 DUP2 MSTORE PUSH1 0x40 DUP1 DUP4 KECCAK256 DUP4 SWAP1 SSTORE DUP4 DUP4 MSTORE PUSH1 0x9 SWAP1 SWAP2 MSTORE DUP2 KECCAK256 DUP2 SWAP1 SSTORE PUSH1 0x6 DUP1 SLOAD SWAP2 PUSH2 0x2010 DUP4 PUSH2 0x49D2 JUMP JUMPDEST SWAP2 SWAP1 POP SSTORE POP POP POP POP JUMP JUMPDEST CALLER PUSH0 DUP2 DUP2 MSTORE PUSH1 0x8 PUSH1 0x20 SWAP1 DUP2 MSTORE PUSH1 0x40 DUP1 DUP4 KECCAK256 SLOAD DUP4 MSTORE PUSH1 0x7 SWAP1 SWAP2 MSTORE SWAP1 KECCAK256 PUSH1 0x3 ADD SLOAD PUSH20 0xFFFFFFFFFFFFFFFFFFFFFFFFFFFFFFFFFFFFFFFF AND EQ PUSH2 0x20B6 JUMPI PUSH1 0x40 MLOAD PUSH32 0x8C379A000000000000000000000000000000000000000000000000000000000 DUP2 MSTORE PUSH1 0x20 PUSH1 0x4 DUP3 ADD MSTORE PUSH1 0x12 PUSH1 0x24 DUP3 ADD MSTORE PUSH32 0x4F6E6C792067616D6520636F6E74726163740000000000000000000000000000 PUSH1 0x44 DUP3 ADD MSTORE PUSH1 0x64 ADD PUSH2 0xA00 JUMP JUMPDEST PUSH2 0x20BE PUSH2 0x3E60 JUMP JUMPDEST PUSH20 0xFFFFFFFFFFFFFFFFFFFFFFFFFFFFFFFFFFFFFFFF DUP1 DUP4 AND PUSH0 DUP2 DUP2 MSTORE PUSH1 0xC PUSH1 0x20 SWAP1 DUP2 MSTORE PUSH1 0x40 DUP1 DUP4 KECCAK256 SLOAD CALLER DUP5 MSTORE PUSH1 0x8 DUP4 MSTORE DUP2 DUP5 KECCAK256 SLOAD DUP2 DUP6 MSTORE PUSH1 0xB SWAP1 SWAP4 MSTORE SWAP3 KECCAK256 PUSH1 0x1 ADD SLOAD SWAP2 SWAP4 SWAP1 SWAP3 SWAP2 AND EQ PUSH2 0x216D JUMPI PUSH1 0x40 MLOAD PUSH32 0x8C379A000000000000000000000000000000000000000000000000000000000 DUP2 MSTORE PUSH1 0x20 PUSH1 0x4 DUP3 ADD MSTORE PUSH1 0x10 PUSH1 0x24 DUP3 ADD MSTORE PUSH32 0x55736572206E6F7420666F756E64656400000000000000000000000000000000 PUSH1 0x44 DUP3 ADD MSTORE PUSH1 0x64 ADD PUSH2 0xA00 JUMP JUMPDEST PUSH0 DUP2 DUP2 MSTORE PUSH1 0x7 PUSH1 0x20 MSTORE PUSH1 0x40 SWAP1 KECCAK256 PUSH1 0x4 ADD SLOAD DUP4 GT PUSH2 0x21C7 JUMPI PUSH0 DUP2 DUP2 MSTORE PUSH1 0x7 PUSH1 0x20 MSTORE PUSH1 0x40 DUP2 KECCAK256 PUSH1 0x4 ADD DUP1 SLOAD DUP6 SWAP3 SWAP1 PUSH2 0x21A4 SWAP1 DUP5 SWAP1 PUSH2 0x47B4 JUMP JUMPDEST SWAP3 POP POP DUP2 SWAP1 SSTORE POP DUP3 PUSH1 0xE PUSH0 DUP3 DUP3 SLOAD PUSH2 0x21BC SWAP2 SWAP1 PUSH2 0x47B4 JUMP JUMPDEST SWAP1 SWAP2 SSTORE POP PUSH2 0x2205 SWAP1 POP JUMP JUMPDEST PUSH0 DUP2 DUP2 MSTORE PUSH1 0x7 PUSH1 0x20 MSTORE PUSH1 0x40 DUP2 KECCAK256 PUSH1 0x5 ADD DUP1 SLOAD DUP6 SWAP3 SWAP1 PUSH2 0x21E7 SWAP1 DUP5 SWAP1 PUSH2 0x4816 JUMP JUMPDEST SWAP3 POP POP DUP2 SWAP1 SSTORE POP DUP3 PUSH1 0xF PUSH0 DUP3 DUP3 SLOAD PUSH2 0x21FF SWAP2 SWAP1 PUSH2 0x4816 JUMP JUMPDEST SWAP1 SWAP2 SSTORE POP POP JUMPDEST PUSH0 DUP3 DUP2 MSTORE PUSH1 0xB PUSH1 0x20 MSTORE PUSH1 0x40 DUP2 KECCAK256 PUSH1 0x2 ADD DUP1 SLOAD DUP6 SWAP3 SWAP1 PUSH2 0x2225 SWAP1 DUP5 SWAP1 PUSH2 0x4816 JUMP JUMPDEST SWAP3 POP POP DUP2 SWAP1 SSTORE POP DUP3 PUSH1 0xD PUSH0 DUP3 DUP3 SLOAD PUSH2 0x223D SWAP2 SWAP1 PUSH2 0x4816 JUMP JUMPDEST SWAP1 SWAP2 SSTORE POP POP PUSH1 0x1 PUSH0 SSTORE POP PUSH2 0x145E SWAP1 POP JUMP JUMPDEST PUSH1 0x2 SLOAD PUSH20 0xFFFFFFFFFFFFFFFFFFFFFFFFFFFFFFFFFFFFFFFF AND CALLER EQ PUSH2 0x22CF JUMPI PUSH1 0x40 MLOAD PUSH32 0x8C379A000000000000000000000000000000000000000000000000000000000 DUP2 MSTORE PUSH1 0x20 PUSH1 0x4 DUP3 ADD MSTORE PUSH1 0xA PUSH1 0x24 DUP3 ADD MSTORE PUSH32 0x4F6E6C79206F776E657200000000000000000000000000000000000000000000 PUSH1 0x44 DUP3 ADD MSTORE PUSH1 0x64 ADD PUSH2 0xA00 JUMP JUMPDEST PUSH2 0x22D7 PUSH2 0x3E60 JUMP JUMPDEST PUSH0 DUP3 DUP2 MSTORE PUSH1 0x7 PUSH1 0x20 MSTORE PUSH1 0x40 SWAP1 KECCAK256 SLOAD DUP3 EQ PUSH2 0x234D JUMPI PUSH1 0x40 MLOAD PUSH32 0x8C379A000000000000000000000000000000000000000000000000000000000 DUP2 MSTORE PUSH1 0x20 PUSH1 0x4 DUP3 ADD MSTORE PUSH1 0x10 PUSH1 0x24 DUP3 ADD MSTORE PUSH32 0x47616D65206E6F7420666F756E64656400000000000000000000000000000000 PUSH1 0x44 DUP3 ADD MSTORE PUSH1 0x64 ADD PUSH2 0xA00 JUMP JUMPDEST PUSH0 DUP2 GT PUSH2 0x23B6 JUMPI PUSH1 0x40 MLOAD PUSH32 0x8C379A000000000000000000000000000000000000000000000000000000000 DUP2 MSTORE PUSH1 0x20 PUSH1 0x4 DUP3 ADD MSTORE PUSH1 0x1D PUSH1 0x24 DUP3 ADD MSTORE PUSH32 0x416D6F756E74206D7573742062652067726561746572207468616E2030000000 PUSH1 0x44 DUP3 ADD MSTORE PUSH1 0x64 ADD PUSH2 0xA00 JUMP JUMPDEST PUSH0 DUP3 DUP2 MSTORE PUSH1 0x7 PUSH1 0x20 MSTORE PUSH1 0x40 SWAP1 KECCAK256 PUSH1 0x4 ADD SLOAD DUP2 GT ISZERO PUSH2 0x2430 JUMPI PUSH1 0x40 MLOAD PUSH32 0x8C379A000000000000000000000000000000000000000000000000000000000 DUP2 MSTORE PUSH1 0x20 PUSH1 0x4 DUP3 ADD MSTORE PUSH1 0x17 PUSH1 0x24 DUP3 ADD MSTORE PUSH32 0x456E676F75742067616D652062616E6B20616D6F756E74000000000000000000 PUSH1 0x44 DUP3 ADD MSTORE PUSH1 0x64 ADD PUSH2 0xA00 JUMP JUMPDEST PUSH1 0x1 SLOAD PUSH1 0x40 MLOAD PUSH32 0xA9059CBB00000000000000000000000000000000000000000000000000000000 DUP2 MSTORE CALLER PUSH1 0x4 DUP3 ADD MSTORE PUSH1 0x24 DUP2 ADD DUP4 SWAP1 MSTORE PUSH20 0xFFFFFFFFFFFFFFFFFFFFFFFFFFFFFFFFFFFFFFFF SWAP1 SWAP2 AND SWAP1 PUSH4 0xA9059CBB SWAP1 PUSH1 0x44 ADD PUSH1 0x20 PUSH1 0x40 MLOAD DUP1 DUP4 SUB DUP2 PUSH0 DUP8 GAS CALL ISZERO DUP1 ISZERO PUSH2 0x24A4 JUMPI RETURNDATASIZE PUSH0 DUP1 RETURNDATACOPY RETURNDATASIZE PUSH0 REVERT JUMPDEST POP POP POP POP PUSH1 0x40 MLOAD RETURNDATASIZE PUSH1 0x1F NOT PUSH1 0x1F DUP3 ADD AND DUP3 ADD DUP1 PUSH1 0x40 MSTORE POP DUP2 ADD SWAP1 PUSH2 0x24C8 SWAP2 SWAP1 PUSH2 0x4768 JUMP JUMPDEST POP PUSH0 DUP3 DUP2 MSTORE PUSH1 0x7 PUSH1 0x20 MSTORE PUSH1 0x40 DUP2 KECCAK256 PUSH1 0x4 ADD DUP1 SLOAD DUP4 SWAP3 SWAP1 PUSH2 0x24E9 SWAP1 DUP5 SWAP1 PUSH2 0x47B4 JUMP JUMPDEST SWAP3 POP POP DUP2 SWAP1 SSTORE POP DUP1 PUSH1 0xE PUSH0 DUP3 DUP3 SLOAD PUSH2 0x1451 SWAP2 SWAP1 PUSH2 0x47B4 JUMP JUMPDEST PUSH2 0x2527 PUSH1 0x40 MLOAD DUP1 PUSH1 0x60 ADD PUSH1 0x40 MSTORE DUP1 PUSH0 PUSH1 0xFF AND DUP2 MSTORE PUSH1 0x20 ADD PUSH1 0x60 DUP2 MSTORE PUSH1 0x20 ADD PUSH1 0x60 DUP2 MSTORE POP SWAP1 JUMP JUMPDEST PUSH1 0x40 MLOAD DUP1 PUSH1 0x60 ADD PUSH1 0x40 MSTORE DUP1 PUSH1 0x1 PUSH0 SWAP1 SLOAD SWAP1 PUSH2 0x100 EXP SWAP1 DIV PUSH20 0xFFFFFFFFFFFFFFFFFFFFFFFFFFFFFFFFFFFFFFFF AND PUSH20 0xFFFFFFFFFFFFFFFFFFFFFFFFFFFFFFFFFFFFFFFF AND PUSH4 0x313CE567 PUSH1 0x40 MLOAD DUP2 PUSH4 0xFFFFFFFF AND PUSH1 0xE0 SHL DUP2 MSTORE PUSH1 0x4 ADD PUSH1 0x20 PUSH1 0x40 MLOAD DUP1 DUP4 SUB DUP2 DUP7 GAS STATICCALL ISZERO DUP1 ISZERO PUSH2 0x259C JUMPI RETURNDATASIZE PUSH0 DUP1 RETURNDATACOPY RETURNDATASIZE PUSH0 REVERT JUMPDEST POP POP POP POP PUSH1 0x40 MLOAD RETURNDATASIZE PUSH1 0x1F NOT PUSH1 0x1F DUP3 ADD AND DUP3 ADD DUP1 PUSH1 0x40 MSTORE POP DUP2 ADD SWAP1 PUSH2 0x25C0 SWAP2 SWAP1 PUSH2 0x4A06 JUMP JUMPDEST PUSH1 0xFF AND DUP2 MSTORE PUSH1 0x20 ADD PUSH1 0x1 PUSH0 SWAP1 SLOAD SWAP1 PUSH2 0x100 EXP SWAP1 DIV PUSH20 0xFFFFFFFFFFFFFFFFFFFFFFFFFFFFFFFFFFFFFFFF AND PUSH20 0xFFFFFFFFFFFFFFFFFFFFFFFFFFFFFFFFFFFFFFFF AND PUSH4 0x95D89B41 PUSH1 0x40 MLOAD DUP2 PUSH4 0xFFFFFFFF AND PUSH1 0xE0 SHL DUP2 MSTORE PUSH1 0x4 ADD PUSH0 PUSH1 0x40 MLOAD DUP1 DUP4 SUB DUP2 DUP7 GAS STATICCALL ISZERO DUP1 ISZERO PUSH2 0x2631 JUMPI RETURNDATASIZE PUSH0 DUP1 RETURNDATACOPY RETURNDATASIZE PUSH0 REVERT JUMPDEST POP POP POP POP PUSH1 0x40 MLOAD RETURNDATASIZE PUSH0 DUP3 RETURNDATACOPY PUSH1 0x1F RETURNDATASIZE SWAP1 DUP2 ADD PUSH32 0xFFFFFFFFFFFFFFFFFFFFFFFFFFFFFFFFFFFFFFFFFFFFFFFFFFFFFFFFFFFFFFE0 AND DUP3 ADD PUSH1 0x40 MSTORE PUSH2 0x2676 SWAP2 SWAP1 DUP2 ADD SWAP1 PUSH2 0x4A26 JUMP JUMPDEST DUP2 MSTORE PUSH1 0x20 ADD PUSH1 0x1 PUSH0 SWAP1 SLOAD SWAP1 PUSH2 0x100 EXP SWAP1 DIV PUSH20 0xFFFFFFFFFFFFFFFFFFFFFFFFFFFFFFFFFFFFFFFF AND PUSH20 0xFFFFFFFFFFFFFFFFFFFFFFFFFFFFFFFFFFFFFFFF AND PUSH4 0x6FDDE03 PUSH1 0x40 MLOAD DUP2 PUSH4 0xFFFFFFFF AND PUSH1 0xE0 SHL DUP2 MSTORE PUSH1 0x4 ADD PUSH0 PUSH1 0x40 MLOAD DUP1 DUP4 SUB DUP2 DUP7 GAS STATICCALL ISZERO DUP1 ISZERO PUSH2 0x26E4 JUMPI RETURNDATASIZE PUSH0 DUP1 RETURNDATACOPY RETURNDATASIZE PUSH0 REVERT JUMPDEST POP POP POP POP PUSH1 0x40 MLOAD RETURNDATASIZE PUSH0 DUP3 RETURNDATACOPY PUSH1 0x1F RETURNDATASIZE SWAP1 DUP2 ADD PUSH32 0xFFFFFFFFFFFFFFFFFFFFFFFFFFFFFFFFFFFFFFFFFFFFFFFFFFFFFFFFFFFFFFE0 AND DUP3 ADD PUSH1 0x40 MSTORE PUSH2 0x2729 SWAP2 SWAP1 DUP2 ADD SWAP1 PUSH2 0x4A26 JUMP JUMPDEST SWAP1 MSTORE SWAP2 SWAP1 POP JUMP JUMPDEST PUSH1 0x60 PUSH1 0x6 SLOAD DUP4 GT ISZERO PUSH2 0x27D2 JUMPI PUSH1 0x40 DUP1 MLOAD PUSH0 DUP1 DUP3 MSTORE PUSH1 0x20 DUP3 ADD SWAP1 SWAP3 MSTORE SWAP1 PUSH2 0x1698 JUMP JUMPDEST PUSH2 0x27B8 PUSH1 0x40 MLOAD DUP1 PUSH2 0x140 ADD PUSH1 0x40 MSTORE DUP1 PUSH0 DUP2 MSTORE PUSH1 0x20 ADD PUSH1 0x60 DUP2 MSTORE PUSH1 0x20 ADD PUSH0 DUP1 NOT AND DUP2 MSTORE PUSH1 0x20 ADD PUSH0 PUSH20 0xFFFFFFFFFFFFFFFFFFFFFFFFFFFFFFFFFFFFFFFF AND DUP2 MSTORE PUSH1 0x20 ADD PUSH0 DUP2 MSTORE PUSH1 0x20 ADD PUSH0 DUP2 MSTORE PUSH1 0x20 ADD PUSH0 DUP2 MSTORE PUSH1 0x20 ADD PUSH0 DUP2 MSTORE PUSH1 0x20 ADD PUSH0 DUP2 MSTORE PUSH1 0x20 ADD PUSH1 0x60 DUP2 MSTORE POP SWAP1 JUMP JUMPDEST DUP2 MSTORE PUSH1 0x20 ADD SWAP1 PUSH1 0x1 SWAP1 SUB SWAP1 DUP2 PUSH2 0x2751 JUMPI SWAP1 POP POP SWAP1 POP PUSH2 0x17F9 JUMP JUMPDEST DUP3 ISZERO DUP1 ISZERO PUSH2 0x27DE JUMPI POP DUP2 ISZERO JUMPDEST ISZERO PUSH2 0x27E9 JUMPI PUSH1 0x6 SLOAD SWAP2 POP JUMPDEST PUSH1 0x6 SLOAD PUSH2 0x27F6 DUP4 DUP6 PUSH2 0x4816 JUMP JUMPDEST GT ISZERO PUSH2 0x280D JUMPI DUP3 PUSH1 0x6 SLOAD PUSH2 0x280A SWAP2 SWAP1 PUSH2 0x47B4 JUMP JUMPDEST SWAP2 POP JUMPDEST PUSH0 DUP3 PUSH8 0xFFFFFFFFFFFFFFFF DUP2 GT ISZERO PUSH2 0x2827 JUMPI PUSH2 0x2827 PUSH2 0x4400 JUMP JUMPDEST PUSH1 0x40 MLOAD SWAP1 DUP1 DUP3 MSTORE DUP1 PUSH1 0x20 MUL PUSH1 0x20 ADD DUP3 ADD PUSH1 0x40 MSTORE DUP1 ISZERO PUSH2 0x28BF JUMPI DUP2 PUSH1 0x20 ADD JUMPDEST PUSH2 0x28AC PUSH1 0x40 MLOAD DUP1 PUSH2 0x140 ADD PUSH1 0x40 MSTORE DUP1 PUSH0 DUP2 MSTORE PUSH1 0x20 ADD PUSH1 0x60 DUP2 MSTORE PUSH1 0x20 ADD PUSH0 DUP1 NOT AND DUP2 MSTORE PUSH1 0x20 ADD PUSH0 PUSH20 0xFFFFFFFFFFFFFFFFFFFFFFFFFFFFFFFFFFFFFFFF AND DUP2 MSTORE PUSH1 0x20 ADD PUSH0 DUP2 MSTORE PUSH1 0x20 ADD PUSH0 DUP2 MSTORE PUSH1 0x20 ADD PUSH0 DUP2 MSTORE PUSH1 0x20 ADD PUSH0 DUP2 MSTORE PUSH1 0x20 ADD PUSH0 DUP2 MSTORE PUSH1 0x20 ADD PUSH1 0x60 DUP2 MSTORE POP SWAP1 JUMP JUMPDEST DUP2 MSTORE PUSH1 0x20 ADD SWAP1 PUSH1 0x1 SWAP1 SUB SWAP1 DUP2 PUSH2 0x2845 JUMPI SWAP1 POP JUMPDEST POP SWAP1 POP PUSH0 JUMPDEST DUP4 DUP2 LT ISZERO PUSH2 0x17F5 JUMPI PUSH1 0x7 PUSH0 DUP7 DUP4 PUSH1 0x6 SLOAD PUSH2 0x28DE SWAP2 SWAP1 PUSH2 0x47B4 JUMP JUMPDEST PUSH2 0x28E8 SWAP2 SWAP1 PUSH2 0x47B4 JUMP JUMPDEST DUP2 MSTORE PUSH1 0x20 ADD SWAP1 DUP2 MSTORE PUSH1 0x20 ADD PUSH0 KECCAK256 PUSH1 0x40 MLOAD DUP1 PUSH2 0x140 ADD PUSH1 0x40 MSTORE SWAP1 DUP2 PUSH0 DUP3 ADD SLOAD DUP2 MSTORE PUSH1 0x20 ADD PUSH1 0x1 DUP3 ADD DUP1 SLOAD PUSH2 0x291A SWAP1 PUSH2 0x4717 JUMP JUMPDEST DUP1 PUSH1 0x1F ADD PUSH1 0x20 DUP1 SWAP2 DIV MUL PUSH1 0x20 ADD PUSH1 0x40 MLOAD SWAP1 DUP2 ADD PUSH1 0x40 MSTORE DUP1 SWAP3 SWAP2 SWAP1 DUP2 DUP2 MSTORE PUSH1 0x20 ADD DUP3 DUP1 SLOAD PUSH2 0x2946 SWAP1 PUSH2 0x4717 JUMP JUMPDEST DUP1 ISZERO PUSH2 0x2991 JUMPI DUP1 PUSH1 0x1F LT PUSH2 0x2968 JUMPI PUSH2 0x100 DUP1 DUP4 SLOAD DIV MUL DUP4 MSTORE SWAP2 PUSH1 0x20 ADD SWAP2 PUSH2 0x2991 JUMP JUMPDEST DUP3 ADD SWAP2 SWAP1 PUSH0 MSTORE PUSH1 0x20 PUSH0 KECCAK256 SWAP1 JUMPDEST DUP2 SLOAD DUP2 MSTORE SWAP1 PUSH1 0x1 ADD SWAP1 PUSH1 0x20 ADD DUP1 DUP4 GT PUSH2 0x2974 JUMPI DUP3 SWAP1 SUB PUSH1 0x1F AND DUP3 ADD SWAP2 JUMPDEST POP POP POP SWAP2 DUP4 MSTORE POP POP PUSH1 0x2 DUP3 ADD SLOAD PUSH1 0x20 DUP3 ADD MSTORE PUSH1 0x3 DUP3 ADD SLOAD PUSH20 0xFFFFFFFFFFFFFFFFFFFFFFFFFFFFFFFFFFFFFFFF AND PUSH1 0x40 DUP3 ADD MSTORE PUSH1 0x4 DUP3 ADD SLOAD PUSH1 0x60 DUP3 ADD MSTORE PUSH1 0x5 DUP3 ADD SLOAD PUSH1 0x80 DUP3 ADD MSTORE PUSH1 0x6 DUP3 ADD SLOAD PUSH1 0xA0 DUP3 ADD MSTORE PUSH1 0x7 DUP3 ADD SLOAD PUSH1 0xC0 DUP3 ADD MSTORE PUSH1 0x8 DUP3 ADD SLOAD PUSH1 0xE0 DUP3 ADD MSTORE PUSH1 0x9 DUP3 ADD DUP1 SLOAD PUSH2 0x100 SWAP1 SWAP3 ADD SWAP2 PUSH2 0x2A0B SWAP1 PUSH2 0x4717 JUMP JUMPDEST DUP1 PUSH1 0x1F ADD PUSH1 0x20 DUP1 SWAP2 DIV MUL PUSH1 0x20 ADD PUSH1 0x40 MLOAD SWAP1 DUP2 ADD PUSH1 0x40 MSTORE DUP1 SWAP3 SWAP2 SWAP1 DUP2 DUP2 MSTORE PUSH1 0x20 ADD DUP3 DUP1 SLOAD PUSH2 0x2A37 SWAP1 PUSH2 0x4717 JUMP JUMPDEST DUP1 ISZERO PUSH2 0x2A82 JUMPI DUP1 PUSH1 0x1F LT PUSH2 0x2A59 JUMPI PUSH2 0x100 DUP1 DUP4 SLOAD DIV MUL DUP4 MSTORE SWAP2 PUSH1 0x20 ADD SWAP2 PUSH2 0x2A82 JUMP JUMPDEST DUP3 ADD SWAP2 SWAP1 PUSH0 MSTORE PUSH1 0x20 PUSH0 KECCAK256 SWAP1 JUMPDEST DUP2 SLOAD DUP2 MSTORE SWAP1 PUSH1 0x1 ADD SWAP1 PUSH1 0x20 ADD DUP1 DUP4 GT PUSH2 0x2A65 JUMPI DUP3 SWAP1 SUB PUSH1 0x1F AND DUP3 ADD SWAP2 JUMPDEST POP POP POP POP POP DUP2 MSTORE POP POP DUP3 DUP3 DUP2 MLOAD DUP2 LT PUSH2 0x2A9D JUMPI PUSH2 0x2A9D PUSH2 0x4829 JUMP JUMPDEST PUSH1 0x20 SWAP1 DUP2 MUL SWAP2 SWAP1 SWAP2 ADD ADD MSTORE PUSH1 0x1 ADD PUSH2 0x28C4 JUMP JUMPDEST PUSH2 0x2AB8 PUSH2 0x3E60 JUMP JUMPDEST PUSH0 DUP2 GT PUSH2 0x2B21 JUMPI PUSH1 0x40 MLOAD PUSH32 0x8C379A000000000000000000000000000000000000000000000000000000000 DUP2 MSTORE PUSH1 0x20 PUSH1 0x4 DUP3 ADD MSTORE PUSH1 0x1D PUSH1 0x24 DUP3 ADD MSTORE PUSH32 0x416D6F756E74206D7573742062652067726561746572207468616E2030000000 PUSH1 0x44 DUP3 ADD MSTORE PUSH1 0x64 ADD PUSH2 0xA00 JUMP JUMPDEST PUSH1 0x1 SLOAD PUSH1 0x40 MLOAD PUSH32 0x23B872DD00000000000000000000000000000000000000000000000000000000 DUP2 MSTORE CALLER PUSH1 0x4 DUP3 ADD MSTORE ADDRESS PUSH1 0x24 DUP3 ADD MSTORE PUSH1 0x44 DUP2 ADD DUP4 SWAP1 MSTORE PUSH20 0xFFFFFFFFFFFFFFFFFFFFFFFFFFFFFFFFFFFFFFFF SWAP1 SWAP2 AND SWAP1 PUSH4 0x23B872DD SWAP1 PUSH1 0x64 ADD PUSH1 0x20 PUSH1 0x40 MLOAD DUP1 DUP4 SUB DUP2 PUSH0 DUP8 GAS CALL ISZERO DUP1 ISZERO PUSH2 0x2B9B JUMPI RETURNDATASIZE PUSH0 DUP1 RETURNDATACOPY RETURNDATASIZE PUSH0 REVERT JUMPDEST POP POP POP POP PUSH1 0x40 MLOAD RETURNDATASIZE PUSH1 0x1F NOT PUSH1 0x1F DUP3 ADD AND DUP3 ADD DUP1 PUSH1 0x40 MSTORE POP DUP2 ADD SWAP1 PUSH2 0x2BBF SWAP2 SWAP1 PUSH2 0x4768 JUMP JUMPDEST POP PUSH0 PUSH2 0x2BCA CALLER PUSH2 0x3ED1 JUMP JUMPDEST PUSH0 DUP2 DUP2 MSTORE PUSH1 0xB PUSH1 0x20 MSTORE PUSH1 0x40 DUP2 KECCAK256 PUSH1 0x2 DUP2 ADD DUP1 SLOAD SWAP4 SWAP5 POP SWAP1 SWAP3 DUP6 SWAP3 SWAP1 PUSH2 0x2BF0 SWAP1 DUP5 SWAP1 PUSH2 0x4816 JUMP JUMPDEST SWAP3 POP POP DUP2 SWAP1 SSTORE POP DUP3 PUSH1 0xD PUSH0 DUP3 DUP3 SLOAD PUSH2 0xD5E SWAP2 SWAP1 PUSH2 0x4816 JUMP JUMPDEST PUSH1 0x2 SLOAD PUSH20 0xFFFFFFFFFFFFFFFFFFFFFFFFFFFFFFFFFFFFFFFF AND CALLER EQ PUSH2 0x2C89 JUMPI PUSH1 0x40 MLOAD PUSH32 0x8C379A000000000000000000000000000000000000000000000000000000000 DUP2 MSTORE PUSH1 0x20 PUSH1 0x4 DUP3 ADD MSTORE PUSH1 0xA PUSH1 0x24 DUP3 ADD MSTORE PUSH32 0x4F6E6C79206F776E657200000000000000000000000000000000000000000000 PUSH1 0x44 DUP3 ADD MSTORE PUSH1 0x64 ADD PUSH2 0xA00 JUMP JUMPDEST PUSH1 0x64 DUP2 PUSH2 0x2C96 DUP5 DUP7 PUSH2 0x4816 JUMP JUMPDEST PUSH2 0x2CA0 SWAP2 SWAP1 PUSH2 0x4816 JUMP JUMPDEST GT ISZERO PUSH2 0x2D08 JUMPI PUSH1 0x40 MLOAD PUSH32 0x8C379A000000000000000000000000000000000000000000000000000000000 DUP2 MSTORE PUSH1 0x20 PUSH1 0x4 DUP3 ADD MSTORE PUSH1 0x1D PUSH1 0x24 DUP3 ADD MSTORE PUSH32 0x6275726E2B7374616B652B676173206D757374206265203C3D20313030000000 PUSH1 0x44 DUP3 ADD MSTORE PUSH1 0x64 ADD PUSH2 0xA00 JUMP JUMPDEST PUSH0 DUP6 PUSH1 0x40 MLOAD PUSH1 0x20 ADD PUSH2 0x2D1A SWAP2 SWAP1 PUSH2 0x4A8F JUMP JUMPDEST PUSH1 0x40 DUP1 MLOAD PUSH32 0xFFFFFFFFFFFFFFFFFFFFFFFFFFFFFFFFFFFFFFFFFFFFFFFFFFFFFFFFFFFFFFE0 DUP2 DUP5 SUB ADD DUP2 MSTORE SWAP2 DUP2 MSTORE DUP2 MLOAD PUSH1 0x20 SWAP3 DUP4 ADD KECCAK256 PUSH0 DUP2 DUP2 MSTORE PUSH1 0x9 SWAP1 SWAP4 MSTORE SWAP2 KECCAK256 SLOAD SWAP1 SWAP2 POP ISZERO PUSH2 0x2DEC JUMPI PUSH1 0x40 MLOAD PUSH32 0x8C379A000000000000000000000000000000000000000000000000000000000 DUP2 MSTORE PUSH1 0x20 PUSH1 0x4 DUP3 ADD MSTORE PUSH1 0x22 PUSH1 0x24 DUP3 ADD MSTORE PUSH32 0x47616D652077697468207468697320436F646520616C72656164792065786973 PUSH1 0x44 DUP3 ADD MSTORE PUSH32 0x7473000000000000000000000000000000000000000000000000000000000000 PUSH1 0x64 DUP3 ADD MSTORE PUSH1 0x84 ADD PUSH2 0xA00 JUMP JUMPDEST PUSH20 0xFFFFFFFFFFFFFFFFFFFFFFFFFFFFFFFFFFFFFFFF DUP8 AND PUSH0 SWAP1 DUP2 MSTORE PUSH1 0x8 PUSH1 0x20 MSTORE PUSH1 0x40 DUP2 KECCAK256 SLOAD SWAP1 SUB PUSH2 0x2F72 JUMPI PUSH1 0x6 DUP1 SLOAD SWAP1 PUSH0 PUSH2 0x2E26 DUP4 PUSH2 0x4AAA JUMP JUMPDEST SWAP1 SWAP2 SSTORE POP POP PUSH1 0x6 SLOAD PUSH20 0xFFFFFFFFFFFFFFFFFFFFFFFFFFFFFFFFFFFFFFFF DUP9 AND PUSH0 DUP2 DUP2 MSTORE PUSH1 0x8 PUSH1 0x20 SWAP1 DUP2 MSTORE PUSH1 0x40 DUP1 DUP4 KECCAK256 DUP6 SWAP1 SSTORE DUP6 DUP4 MSTORE PUSH1 0x9 DUP3 MSTORE DUP1 DUP4 KECCAK256 DUP6 SWAP1 SSTORE DUP1 MLOAD PUSH2 0x140 DUP2 ADD DUP3 MSTORE DUP6 DUP2 MSTORE DUP1 DUP4 ADD DUP13 DUP2 MSTORE DUP2 DUP4 ADD DUP9 SWAP1 MSTORE PUSH1 0x60 DUP3 ADD SWAP6 SWAP1 SWAP6 MSTORE PUSH1 0x80 DUP2 ADD DUP5 SWAP1 MSTORE PUSH1 0xA0 DUP2 ADD DUP5 SWAP1 MSTORE PUSH1 0xC0 DUP2 ADD DUP11 SWAP1 MSTORE PUSH1 0xE0 DUP2 ADD DUP10 SWAP1 MSTORE PUSH2 0x100 DUP2 ADD DUP9 SWAP1 MSTORE PUSH2 0x120 DUP2 ADD DUP12 SWAP1 MSTORE SWAP5 DUP4 MSTORE PUSH1 0x7 SWAP1 SWAP2 MSTORE SWAP1 KECCAK256 DUP3 MLOAD DUP2 SSTORE SWAP1 MLOAD PUSH1 0x1 DUP3 ADD SWAP1 PUSH2 0x2ED0 SWAP1 DUP3 PUSH2 0x4AE1 JUMP JUMPDEST POP PUSH1 0x40 DUP3 ADD MLOAD PUSH1 0x2 DUP3 ADD SSTORE PUSH1 0x60 DUP3 ADD MLOAD PUSH1 0x3 DUP3 ADD DUP1 SLOAD PUSH32 0xFFFFFFFFFFFFFFFFFFFFFFFF0000000000000000000000000000000000000000 AND PUSH20 0xFFFFFFFFFFFFFFFFFFFFFFFFFFFFFFFFFFFFFFFF SWAP1 SWAP3 AND SWAP2 SWAP1 SWAP2 OR SWAP1 SSTORE PUSH1 0x80 DUP3 ADD MLOAD PUSH1 0x4 DUP3 ADD SSTORE PUSH1 0xA0 DUP3 ADD MLOAD PUSH1 0x5 DUP3 ADD SSTORE PUSH1 0xC0 DUP3 ADD MLOAD PUSH1 0x6 DUP3 ADD SSTORE PUSH1 0xE0 DUP3 ADD MLOAD PUSH1 0x7 DUP3 ADD SSTORE PUSH2 0x100 DUP3 ADD MLOAD PUSH1 0x8 DUP3 ADD SSTORE PUSH2 0x120 DUP3 ADD MLOAD PUSH1 0x9 DUP3 ADD SWAP1 PUSH2 0x2F6E SWAP1 DUP3 PUSH2 0x4AE1 JUMP JUMPDEST POP POP POP JUMPDEST POP POP POP POP POP POP POP JUMP JUMPDEST PUSH1 0x2 SLOAD PUSH20 0xFFFFFFFFFFFFFFFFFFFFFFFFFFFFFFFFFFFFFFFF AND CALLER EQ PUSH2 0x2FFC JUMPI PUSH1 0x40 MLOAD PUSH32 0x8C379A000000000000000000000000000000000000000000000000000000000 DUP2 MSTORE PUSH1 0x20 PUSH1 0x4 DUP3 ADD MSTORE PUSH1 0xA PUSH1 0x24 DUP3 ADD MSTORE PUSH32 0x4F6E6C79206F776E657200000000000000000000000000000000000000000000 PUSH1 0x44 DUP3 ADD MSTORE PUSH1 0x64 ADD PUSH2 0xA00 JUMP JUMPDEST PUSH2 0x3004 PUSH2 0x3E60 JUMP JUMPDEST PUSH0 DUP3 MLOAD DUP3 PUSH2 0x3012 SWAP2 SWAP1 PUSH2 0x47C7 JUMP JUMPDEST PUSH1 0x1 SLOAD PUSH1 0x40 MLOAD PUSH32 0x23B872DD00000000000000000000000000000000000000000000000000000000 DUP2 MSTORE CALLER PUSH1 0x4 DUP3 ADD MSTORE ADDRESS PUSH1 0x24 DUP3 ADD MSTORE PUSH1 0x44 DUP2 ADD DUP4 SWAP1 MSTORE SWAP2 SWAP3 POP PUSH20 0xFFFFFFFFFFFFFFFFFFFFFFFFFFFFFFFFFFFFFFFF AND SWAP1 PUSH4 0x23B872DD SWAP1 PUSH1 0x64 ADD PUSH1 0x20 PUSH1 0x40 MLOAD DUP1 DUP4 SUB DUP2 PUSH0 DUP8 GAS CALL ISZERO DUP1 ISZERO PUSH2 0x308D JUMPI RETURNDATASIZE PUSH0 DUP1 RETURNDATACOPY RETURNDATASIZE PUSH0 REVERT JUMPDEST POP POP POP POP PUSH1 0x40 MLOAD RETURNDATASIZE PUSH1 0x1F NOT PUSH1 0x1F DUP3 ADD AND DUP3 ADD DUP1 PUSH1 0x40 MSTORE POP DUP2 ADD SWAP1 PUSH2 0x30B1 SWAP2 SWAP1 PUSH2 0x4768 JUMP JUMPDEST POP PUSH0 JUMPDEST DUP4 MLOAD DUP2 LT ISZERO PUSH2 0x3113 JUMPI PUSH0 PUSH2 0x30E0 DUP6 DUP4 DUP2 MLOAD DUP2 LT PUSH2 0x30D3 JUMPI PUSH2 0x30D3 PUSH2 0x4829 JUMP JUMPDEST PUSH1 0x20 MUL PUSH1 0x20 ADD ADD MLOAD PUSH2 0x3ED1 JUMP JUMPDEST SWAP1 POP DUP4 PUSH1 0xB PUSH0 DUP4 DUP2 MSTORE PUSH1 0x20 ADD SWAP1 DUP2 MSTORE PUSH1 0x20 ADD PUSH0 KECCAK256 PUSH1 0x2 ADD PUSH0 DUP3 DUP3 SLOAD PUSH2 0x3105 SWAP2 SWAP1 PUSH2 0x4816 JUMP JUMPDEST SWAP1 SWAP2 SSTORE POP POP POP PUSH1 0x1 ADD PUSH2 0x30B4 JUMP JUMPDEST POP DUP1 PUSH1 0xD PUSH0 DUP3 DUP3 SLOAD PUSH2 0x3125 SWAP2 SWAP1 PUSH2 0x4816 JUMP JUMPDEST SWAP1 SWAP2 SSTORE POP POP PUSH1 0x1 PUSH0 SSTORE POP POP POP JUMP JUMPDEST PUSH1 0x2 SLOAD PUSH20 0xFFFFFFFFFFFFFFFFFFFFFFFFFFFFFFFFFFFFFFFF AND CALLER EQ PUSH2 0x31B4 JUMPI PUSH1 0x40 MLOAD PUSH32 0x8C379A000000000000000000000000000000000000000000000000000000000 DUP2 MSTORE PUSH1 0x20 PUSH1 0x4 DUP3 ADD MSTORE PUSH1 0xA PUSH1 0x24 DUP3 ADD MSTORE PUSH32 0x4F6E6C79206F776E657200000000000000000000000000000000000000000000 PUSH1 0x44 DUP3 ADD MSTORE PUSH1 0x64 ADD PUSH2 0xA00 JUMP JUMPDEST PUSH2 0x31BC PUSH2 0x3E60 JUMP JUMPDEST PUSH20 0xFFFFFFFFFFFFFFFFFFFFFFFFFFFFFFFFFFFFFFFF DUP1 DUP4 AND PUSH0 DUP2 DUP2 MSTORE PUSH1 0xC PUSH1 0x20 SWAP1 DUP2 MSTORE PUSH1 0x40 DUP1 DUP4 KECCAK256 SLOAD DUP1 DUP5 MSTORE PUSH1 0xB SWAP1 SWAP3 MSTORE SWAP1 SWAP2 KECCAK256 PUSH1 0x1 DUP2 ADD SLOAD SWAP2 SWAP4 SWAP1 SWAP3 SWAP2 AND EQ PUSH2 0x3262 JUMPI PUSH1 0x40 MLOAD PUSH32 0x8C379A000000000000000000000000000000000000000000000000000000000 DUP2 MSTORE PUSH1 0x20 PUSH1 0x4 DUP3 ADD MSTORE PUSH1 0xF PUSH1 0x24 DUP3 ADD MSTORE PUSH32 0x55736572206E6F74206578697374730000000000000000000000000000000000 PUSH1 0x44 DUP3 ADD MSTORE PUSH1 0x64 ADD PUSH2 0xA00 JUMP JUMPDEST DUP3 DUP2 PUSH1 0x2 ADD SLOAD LT ISZERO PUSH2 0x32D0 JUMPI PUSH1 0x40 MLOAD PUSH32 0x8C379A000000000000000000000000000000000000000000000000000000000 DUP2 MSTORE PUSH1 0x20 PUSH1 0x4 DUP3 ADD MSTORE PUSH1 0x1B PUSH1 0x24 DUP3 ADD MSTORE PUSH32 0x4E6F7420656E6F75676874206465706F7369742062616C616E63650000000000 PUSH1 0x44 DUP3 ADD MSTORE PUSH1 0x64 ADD PUSH2 0xA00 JUMP JUMPDEST PUSH1 0x1 SLOAD PUSH1 0x40 MLOAD PUSH32 0xA9059CBB00000000000000000000000000000000000000000000000000000000 DUP2 MSTORE PUSH20 0xFFFFFFFFFFFFFFFFFFFFFFFFFFFFFFFFFFFFFFFF DUP7 DUP2 AND PUSH1 0x4 DUP4 ADD MSTORE PUSH1 0x24 DUP3 ADD DUP7 SWAP1 MSTORE SWAP1 SWAP2 AND SWAP1 PUSH4 0xA9059CBB SWAP1 PUSH1 0x44 ADD PUSH1 0x20 PUSH1 0x40 MLOAD DUP1 DUP4 SUB DUP2 PUSH0 DUP8 GAS CALL ISZERO DUP1 ISZERO PUSH2 0x3346 JUMPI RETURNDATASIZE PUSH0 DUP1 RETURNDATACOPY RETURNDATASIZE PUSH0 REVERT JUMPDEST POP POP POP POP PUSH1 0x40 MLOAD RETURNDATASIZE PUSH1 0x1F NOT PUSH1 0x1F DUP3 ADD AND DUP3 ADD DUP1 PUSH1 0x40 MSTORE POP DUP2 ADD SWAP1 PUSH2 0x336A SWAP2 SWAP1 PUSH2 0x4768 JUMP JUMPDEST POP DUP3 DUP2 PUSH1 0x2 ADD PUSH0 DUP3 DUP3 SLOAD PUSH2 0x337E SWAP2 SWAP1 PUSH2 0x47B4 JUMP JUMPDEST SWAP3 POP POP DUP2 SWAP1 SSTORE POP DUP3 PUSH1 0xD PUSH0 DUP3 DUP3 SLOAD PUSH2 0x223D SWAP2 SWAP1 PUSH2 0x47B4 JUMP JUMPDEST PUSH2 0x33FD PUSH1 0x40 MLOAD DUP1 PUSH2 0x140 ADD PUSH1 0x40 MSTORE DUP1 PUSH0 DUP2 MSTORE PUSH1 0x20 ADD PUSH1 0x60 DUP2 MSTORE PUSH1 0x20 ADD PUSH0 DUP1 NOT AND DUP2 MSTORE PUSH1 0x20 ADD PUSH0 PUSH20 0xFFFFFFFFFFFFFFFFFFFFFFFFFFFFFFFFFFFFFFFF AND DUP2 MSTORE PUSH1 0x20 ADD PUSH0 DUP2 MSTORE PUSH1 0x20 ADD PUSH0 DUP2 MSTORE PUSH1 0x20 ADD PUSH0 DUP2 MSTORE PUSH1 0x20 ADD PUSH0 DUP2 MSTORE PUSH1 0x20 ADD PUSH0 DUP2 MSTORE PUSH1 0x20 ADD PUSH1 0x60 DUP2 MSTORE POP SWAP1 JUMP JUMPDEST PUSH0 DUP3 PUSH1 0x40 MLOAD PUSH1 0x20 ADD PUSH2 0x340F SWAP2 SWAP1 PUSH2 0x4A8F JUMP JUMPDEST PUSH1 0x40 DUP1 MLOAD PUSH32 0xFFFFFFFFFFFFFFFFFFFFFFFFFFFFFFFFFFFFFFFFFFFFFFFFFFFFFFFFFFFFFFE0 DUP2 DUP5 SUB ADD DUP2 MSTORE DUP3 DUP3 MSTORE DUP1 MLOAD PUSH1 0x20 SWAP2 DUP3 ADD KECCAK256 PUSH0 DUP2 DUP2 MSTORE PUSH1 0x9 DUP4 MSTORE DUP4 DUP2 KECCAK256 SLOAD DUP2 MSTORE PUSH1 0x7 DUP4 MSTORE DUP4 SWAP1 KECCAK256 PUSH2 0x140 DUP6 ADD SWAP1 SWAP4 MSTORE DUP3 SLOAD DUP5 MSTORE PUSH1 0x1 DUP4 ADD DUP1 SLOAD SWAP2 SWAP6 POP SWAP2 DUP5 ADD SWAP2 SWAP1 PUSH2 0x347D SWAP1 PUSH2 0x4717 JUMP JUMPDEST DUP1 PUSH1 0x1F ADD PUSH1 0x20 DUP1 SWAP2 DIV MUL PUSH1 0x20 ADD PUSH1 0x40 MLOAD SWAP1 DUP2 ADD PUSH1 0x40 MSTORE DUP1 SWAP3 SWAP2 SWAP1 DUP2 DUP2 MSTORE PUSH1 0x20 ADD DUP3 DUP1 SLOAD PUSH2 0x34A9 SWAP1 PUSH2 0x4717 JUMP JUMPDEST DUP1 ISZERO PUSH2 0x34F4 JUMPI DUP1 PUSH1 0x1F LT PUSH2 0x34CB JUMPI PUSH2 0x100 DUP1 DUP4 SLOAD DIV MUL DUP4 MSTORE SWAP2 PUSH1 0x20 ADD SWAP2 PUSH2 0x34F4 JUMP JUMPDEST DUP3 ADD SWAP2 SWAP1 PUSH0 MSTORE PUSH1 0x20 PUSH0 KECCAK256 SWAP1 JUMPDEST DUP2 SLOAD DUP2 MSTORE SWAP1 PUSH1 0x1 ADD SWAP1 PUSH1 0x20 ADD DUP1 DUP4 GT PUSH2 0x34D7 JUMPI DUP3 SWAP1 SUB PUSH1 0x1F AND DUP3 ADD SWAP2 JUMPDEST POP POP POP SWAP2 DUP4 MSTORE POP POP PUSH1 0x2 DUP3 ADD SLOAD PUSH1 0x20 DUP3 ADD MSTORE PUSH1 0x3 DUP3 ADD SLOAD PUSH20 0xFFFFFFFFFFFFFFFFFFFFFFFFFFFFFFFFFFFFFFFF AND PUSH1 0x40 DUP3 ADD MSTORE PUSH1 0x4 DUP3 ADD SLOAD PUSH1 0x60 DUP3 ADD MSTORE PUSH1 0x5 DUP3 ADD SLOAD PUSH1 0x80 DUP3 ADD MSTORE PUSH1 0x6 DUP3 ADD SLOAD PUSH1 0xA0 DUP3 ADD MSTORE PUSH1 0x7 DUP3 ADD SLOAD PUSH1 0xC0 DUP3 ADD MSTORE PUSH1 0x8 DUP3 ADD SLOAD PUSH1 0xE0 DUP3 ADD MSTORE PUSH1 0x9 DUP3 ADD DUP1 SLOAD PUSH2 0x100 SWAP1 SWAP3 ADD SWAP2 PUSH2 0x356E SWAP1 PUSH2 0x4717 JUMP JUMPDEST DUP1 PUSH1 0x1F ADD PUSH1 0x20 DUP1 SWAP2 DIV MUL PUSH1 0x20 ADD PUSH1 0x40 MLOAD SWAP1 DUP2 ADD PUSH1 0x40 MSTORE DUP1 SWAP3 SWAP2 SWAP1 DUP2 DUP2 MSTORE PUSH1 0x20 ADD DUP3 DUP1 SLOAD PUSH2 0x359A SWAP1 PUSH2 0x4717 JUMP JUMPDEST DUP1 ISZERO PUSH2 0x35E5 JUMPI DUP1 PUSH1 0x1F LT PUSH2 0x35BC JUMPI PUSH2 0x100 DUP1 DUP4 SLOAD DIV MUL DUP4 MSTORE SWAP2 PUSH1 0x20 ADD SWAP2 PUSH2 0x35E5 JUMP JUMPDEST DUP3 ADD SWAP2 SWAP1 PUSH0 MSTORE PUSH1 0x20 PUSH0 KECCAK256 SWAP1 JUMPDEST DUP2 SLOAD DUP2 MSTORE SWAP1 PUSH1 0x1 ADD SWAP1 PUSH1 0x20 ADD DUP1 DUP4 GT PUSH2 0x35C8 JUMPI DUP3 SWAP1 SUB PUSH1 0x1F AND DUP3 ADD SWAP2 JUMPDEST POP POP POP POP POP DUP2 MSTORE POP POP SWAP2 POP POP SWAP2 SWAP1 POP JUMP JUMPDEST PUSH1 0x2 SLOAD PUSH20 0xFFFFFFFFFFFFFFFFFFFFFFFFFFFFFFFFFFFFFFFF AND CALLER EQ PUSH2 0x3677 JUMPI PUSH1 0x40 MLOAD PUSH32 0x8C379A000000000000000000000000000000000000000000000000000000000 DUP2 MSTORE PUSH1 0x20 PUSH1 0x4 DUP3 ADD MSTORE PUSH1 0xA PUSH1 0x24 DUP3 ADD MSTORE PUSH32 0x4F6E6C79206F776E657200000000000000000000000000000000000000000000 PUSH1 0x44 DUP3 ADD MSTORE PUSH1 0x64 ADD PUSH2 0xA00 JUMP JUMPDEST PUSH2 0x367F PUSH2 0x3E60 JUMP JUMPDEST PUSH0 DUP3 DUP2 MSTORE PUSH1 0x7 PUSH1 0x20 MSTORE PUSH1 0x40 SWAP1 KECCAK256 SLOAD DUP3 EQ PUSH2 0x36F5 JUMPI PUSH1 0x40 MLOAD PUSH32 0x8C379A000000000000000000000000000000000000000000000000000000000 DUP2 MSTORE PUSH1 0x20 PUSH1 0x4 DUP3 ADD MSTORE PUSH1 0x10 PUSH1 0x24 DUP3 ADD MSTORE PUSH32 0x47616D65206E6F7420666F756E64656400000000000000000000000000000000 PUSH1 0x44 DUP3 ADD MSTORE PUSH1 0x64 ADD PUSH2 0xA00 JUMP JUMPDEST PUSH0 DUP2 GT PUSH2 0x375E JUMPI PUSH1 0x40 MLOAD PUSH32 0x8C379A000000000000000000000000000000000000000000000000000000000 DUP2 MSTORE PUSH1 0x20 PUSH1 0x4 DUP3 ADD MSTORE PUSH1 0x1D PUSH1 0x24 DUP3 ADD MSTORE PUSH32 0x416D6F756E74206D7573742062652067726561746572207468616E2030000000 PUSH1 0x44 DUP3 ADD MSTORE PUSH1 0x64 ADD PUSH2 0xA00 JUMP JUMPDEST PUSH1 0x1 SLOAD PUSH1 0x40 MLOAD PUSH32 0x23B872DD00000000000000000000000000000000000000000000000000000000 DUP2 MSTORE CALLER PUSH1 0x4 DUP3 ADD MSTORE ADDRESS PUSH1 0x24 DUP3 ADD MSTORE PUSH1 0x44 DUP2 ADD DUP4 SWAP1 MSTORE PUSH20 0xFFFFFFFFFFFFFFFFFFFFFFFFFFFFFFFFFFFFFFFF SWAP1 SWAP2 AND SWAP1 PUSH4 0x23B872DD SWAP1 PUSH1 0x64 ADD PUSH1 0x20 PUSH1 0x40 MLOAD DUP1 DUP4 SUB DUP2 PUSH0 DUP8 GAS CALL ISZERO DUP1 ISZERO PUSH2 0x37D8 JUMPI RETURNDATASIZE PUSH0 DUP1 RETURNDATACOPY RETURNDATASIZE PUSH0 REVERT JUMPDEST POP POP POP POP PUSH1 0x40 MLOAD RETURNDATASIZE PUSH1 0x1F NOT PUSH1 0x1F DUP3 ADD AND DUP3 ADD DUP1 PUSH1 0x40 MSTORE POP DUP2 ADD SWAP1 PUSH2 0x37FC SWAP2 SWAP1 PUSH2 0x4768 JUMP JUMPDEST POP PUSH0 DUP3 DUP2 MSTORE PUSH1 0x7 PUSH1 0x20 MSTORE PUSH1 0x40 DUP2 KECCAK256 PUSH1 0x4 ADD DUP1 SLOAD DUP4 SWAP3 SWAP1 PUSH2 0x381D SWAP1 DUP5 SWAP1 PUSH2 0x4816 JUMP JUMPDEST SWAP3 POP POP DUP2 SWAP1 SSTORE POP DUP1 PUSH1 0xE PUSH0 DUP3 DUP3 SLOAD PUSH2 0x1451 SWAP2 SWAP1 PUSH2 0x4816 JUMP JUMPDEST PUSH1 0x2 SLOAD PUSH20 0xFFFFFFFFFFFFFFFFFFFFFFFFFFFFFFFFFFFFFFFF AND CALLER EQ PUSH2 0x38B6 JUMPI PUSH1 0x40 MLOAD PUSH32 0x8C379A000000000000000000000000000000000000000000000000000000000 DUP2 MSTORE PUSH1 0x20 PUSH1 0x4 DUP3 ADD MSTORE PUSH1 0xA PUSH1 0x24 DUP3 ADD MSTORE PUSH32 0x4F6E6C79206F776E657200000000000000000000000000000000000000000000 PUSH1 0x44 DUP3 ADD MSTORE PUSH1 0x64 ADD PUSH2 0xA00 JUMP JUMPDEST PUSH1 0x64 DUP2 PUSH2 0x38C3 DUP5 DUP7 PUSH2 0x4816 JUMP JUMPDEST PUSH2 0x38CD SWAP2 SWAP1 PUSH2 0x4816 JUMP JUMPDEST GT ISZERO PUSH2 0x3935 JUMPI PUSH1 0x40 MLOAD PUSH32 0x8C379A000000000000000000000000000000000000000000000000000000000 DUP2 MSTORE PUSH1 0x20 PUSH1 0x4 DUP3 ADD MSTORE PUSH1 0x1D PUSH1 0x24 DUP3 ADD MSTORE PUSH32 0x6275726E2B7374616B652B676173206D757374206265203C3D20313030000000 PUSH1 0x44 DUP3 ADD MSTORE PUSH1 0x64 ADD PUSH2 0xA00 JUMP JUMPDEST PUSH0 DUP6 PUSH1 0x40 MLOAD PUSH1 0x20 ADD PUSH2 0x3947 SWAP2 SWAP1 PUSH2 0x4A8F JUMP JUMPDEST PUSH1 0x40 DUP1 MLOAD PUSH32 0xFFFFFFFFFFFFFFFFFFFFFFFFFFFFFFFFFFFFFFFFFFFFFFFFFFFFFFFFFFFFFFE0 DUP2 DUP5 SUB ADD DUP2 MSTORE SWAP2 DUP2 MSTORE DUP2 MLOAD PUSH1 0x20 SWAP3 DUP4 ADD KECCAK256 PUSH0 DUP12 DUP2 MSTORE PUSH1 0x7 SWAP1 SWAP4 MSTORE SWAP2 KECCAK256 SLOAD SWAP1 SWAP2 POP DUP9 SWAP1 SUB PUSH2 0x3B64 JUMPI PUSH0 DUP9 DUP2 MSTORE PUSH1 0x7 PUSH1 0x20 MSTORE PUSH1 0x40 SWAP1 KECCAK256 PUSH1 0x2 ADD SLOAD DUP2 EQ PUSH2 0x3A74 JUMPI PUSH0 DUP2 DUP2 MSTORE PUSH1 0x9 PUSH1 0x20 MSTORE PUSH1 0x40 SWAP1 KECCAK256 SLOAD ISZERO PUSH2 0x3A45 JUMPI PUSH1 0x40 MLOAD PUSH32 0x8C379A000000000000000000000000000000000000000000000000000000000 DUP2 MSTORE PUSH1 0x20 PUSH1 0x4 DUP3 ADD MSTORE PUSH1 0x22 PUSH1 0x24 DUP3 ADD MSTORE PUSH32 0x47616D652077697468207468697320636F646520616C72656164792065786973 PUSH1 0x44 DUP3 ADD MSTORE PUSH32 0x7473000000000000000000000000000000000000000000000000000000000000 PUSH1 0x64 DUP3 ADD MSTORE PUSH1 0x84 ADD PUSH2 0xA00 JUMP JUMPDEST PUSH0 DUP9 DUP2 MSTORE PUSH1 0x7 PUSH1 0x20 SWAP1 DUP2 MSTORE PUSH1 0x40 DUP1 DUP4 KECCAK256 PUSH1 0x2 ADD DUP1 SLOAD DUP5 MSTORE PUSH1 0x9 SWAP1 SWAP3 MSTORE DUP1 DUP4 KECCAK256 DUP4 SWAP1 SSTORE SWAP1 DUP4 SWAP1 SSTORE DUP3 DUP3 MSTORE SWAP1 KECCAK256 DUP9 SWAP1 SSTORE JUMPDEST PUSH0 DUP9 DUP2 MSTORE PUSH1 0x7 PUSH1 0x20 MSTORE PUSH1 0x40 SWAP1 KECCAK256 PUSH1 0x9 ADD PUSH2 0x3A8E DUP7 DUP3 PUSH2 0x4AE1 JUMP JUMPDEST POP PUSH0 DUP9 DUP2 MSTORE PUSH1 0x7 PUSH1 0x20 MSTORE PUSH1 0x40 SWAP1 KECCAK256 PUSH1 0x1 ADD PUSH2 0x3AA9 DUP8 DUP3 PUSH2 0x4AE1 JUMP JUMPDEST POP PUSH0 DUP9 DUP2 MSTORE PUSH1 0x7 PUSH1 0x20 DUP2 SWAP1 MSTORE PUSH1 0x40 SWAP1 SWAP2 KECCAK256 PUSH1 0x6 DUP2 ADD DUP7 SWAP1 SSTORE SWAP1 DUP2 ADD DUP5 SWAP1 SSTORE PUSH1 0x8 DUP2 ADD DUP4 SWAP1 SSTORE PUSH1 0x3 ADD SLOAD PUSH20 0xFFFFFFFFFFFFFFFFFFFFFFFFFFFFFFFFFFFFFFFF DUP9 DUP2 AND SWAP2 AND EQ PUSH2 0x3B64 JUMPI PUSH0 DUP9 DUP2 MSTORE PUSH1 0x7 PUSH1 0x20 DUP2 DUP2 MSTORE PUSH1 0x40 DUP1 DUP5 KECCAK256 PUSH1 0x3 ADD DUP1 SLOAD PUSH20 0xFFFFFFFFFFFFFFFFFFFFFFFFFFFFFFFFFFFFFFFF SWAP1 DUP2 AND DUP7 MSTORE PUSH1 0x8 DUP5 MSTORE DUP3 DUP7 KECCAK256 DUP7 SWAP1 SSTORE DUP13 AND DUP1 DUP7 MSTORE SWAP2 DUP6 KECCAK256 DUP14 SWAP1 SSTORE SWAP4 DUP13 SWAP1 MSTORE SWAP2 SWAP1 MSTORE DUP2 SLOAD PUSH32 0xFFFFFFFFFFFFFFFFFFFFFFFF0000000000000000000000000000000000000000 AND OR SWAP1 SSTORE JUMPDEST POP POP POP POP POP POP POP POP JUMP JUMPDEST CALLER PUSH0 DUP2 DUP2 MSTORE PUSH1 0x8 PUSH1 0x20 SWAP1 DUP2 MSTORE PUSH1 0x40 DUP1 DUP4 KECCAK256 SLOAD DUP4 MSTORE PUSH1 0x7 SWAP1 SWAP2 MSTORE SWAP1 KECCAK256 PUSH1 0x3 ADD SLOAD PUSH20 0xFFFFFFFFFFFFFFFFFFFFFFFFFFFFFFFFFFFFFFFF AND EQ PUSH2 0x3C0A JUMPI PUSH1 0x40 MLOAD PUSH32 0x8C379A000000000000000000000000000000000000000000000000000000000 DUP2 MSTORE PUSH1 0x20 PUSH1 0x4 DUP3 ADD MSTORE PUSH1 0x12 PUSH1 0x24 DUP3 ADD MSTORE PUSH32 0x4F6E6C792067616D6520636F6E74726163740000000000000000000000000000 PUSH1 0x44 DUP3 ADD MSTORE PUSH1 0x64 ADD PUSH2 0xA00 JUMP JUMPDEST PUSH2 0x3C12 PUSH2 0x3E60 JUMP JUMPDEST PUSH20 0xFFFFFFFFFFFFFFFFFFFFFFFFFFFFFFFFFFFFFFFF DUP1 DUP4 AND PUSH0 DUP2 DUP2 MSTORE PUSH1 0xC PUSH1 0x20 SWAP1 DUP2 MSTORE PUSH1 0x40 DUP1 DUP4 KECCAK256 SLOAD CALLER DUP5 MSTORE PUSH1 0x8 DUP4 MSTORE DUP2 DUP5 KECCAK256 SLOAD DUP2 DUP6 MSTORE PUSH1 0xB SWAP1 SWAP4 MSTORE SWAP3 KECCAK256 PUSH1 0x1 ADD SLOAD SWAP2 SWAP4 SWAP1 SWAP3 SWAP2 AND EQ PUSH2 0x3CC1 JUMPI PUSH1 0x40 MLOAD PUSH32 0x8C379A000000000000000000000000000000000000000000000000000000000 DUP2 MSTORE PUSH1 0x20 PUSH1 0x4 DUP3 ADD MSTORE PUSH1 0x10 PUSH1 0x24 DUP3 ADD MSTORE PUSH32 0x55736572206E6F7420666F756E64656400000000000000000000000000000000 PUSH1 0x44 DUP3 ADD MSTORE PUSH1 0x64 ADD PUSH2 0xA00 JUMP JUMPDEST PUSH0 DUP3 DUP2 MSTORE PUSH1 0xB PUSH1 0x20 MSTORE PUSH1 0x40 SWAP1 KECCAK256 PUSH1 0x2 ADD SLOAD DUP4 GT ISZERO PUSH2 0x3D3B JUMPI PUSH1 0x40 MLOAD PUSH32 0x8C379A000000000000000000000000000000000000000000000000000000000 DUP2 MSTORE PUSH1 0x20 PUSH1 0x4 DUP3 ADD MSTORE PUSH1 0x12 PUSH1 0x24 DUP3 ADD MSTORE PUSH32 0x4E6F7420656E6F7574682062616C616E63650000000000000000000000000000 PUSH1 0x44 DUP3 ADD MSTORE PUSH1 0x64 ADD PUSH2 0xA00 JUMP JUMPDEST PUSH0 DUP3 DUP2 MSTORE PUSH1 0xB PUSH1 0x20 MSTORE PUSH1 0x40 DUP2 KECCAK256 PUSH1 0x2 ADD DUP1 SLOAD DUP6 SWAP3 SWAP1 PUSH2 0x3D5B SWAP1 DUP5 SWAP1 PUSH2 0x47B4 JUMP JUMPDEST SWAP1 SWAP2 SSTORE POP POP PUSH0 DUP2 DUP2 MSTORE PUSH1 0x7 PUSH1 0x20 MSTORE PUSH1 0x40 DUP2 KECCAK256 PUSH1 0x4 ADD DUP1 SLOAD DUP6 SWAP3 SWAP1 PUSH2 0x3D80 SWAP1 DUP5 SWAP1 PUSH2 0x4816 JUMP JUMPDEST SWAP3 POP POP DUP2 SWAP1 SSTORE POP DUP3 PUSH1 0xE PUSH0 DUP3 DUP3 SLOAD PUSH2 0x337E SWAP2 SWAP1 PUSH2 0x4816 JUMP JUMPDEST PUSH1 0x2 SLOAD PUSH20 0xFFFFFFFFFFFFFFFFFFFFFFFFFFFFFFFFFFFFFFFF AND CALLER EQ PUSH2 0x3E19 JUMPI PUSH1 0x40 MLOAD PUSH32 0x8C379A000000000000000000000000000000000000000000000000000000000 DUP2 MSTORE PUSH1 0x20 PUSH1 0x4 DUP3 ADD MSTORE PUSH1 0xA PUSH1 0x24 DUP3 ADD MSTORE PUSH32 0x4F6E6C79206F776E657200000000000000000000000000000000000000000000 PUSH1 0x44 DUP3 ADD MSTORE PUSH1 0x64 ADD PUSH2 0xA00 JUMP JUMPDEST PUSH1 0x2 DUP1 SLOAD PUSH32 0xFFFFFFFFFFFFFFFFFFFFFFFF0000000000000000000000000000000000000000 AND PUSH20 0xFFFFFFFFFFFFFFFFFFFFFFFFFFFFFFFFFFFFFFFF SWAP3 SWAP1 SWAP3 AND SWAP2 SWAP1 SWAP2 OR SWAP1 SSTORE JUMP JUMPDEST PUSH1 0x2 PUSH0 SLOAD SUB PUSH2 0x3ECB JUMPI PUSH1 0x40 MLOAD PUSH32 0x8C379A000000000000000000000000000000000000000000000000000000000 DUP2 MSTORE PUSH1 0x20 PUSH1 0x4 DUP3 ADD MSTORE PUSH1 0x1F PUSH1 0x24 DUP3 ADD MSTORE PUSH32 0x5265656E7472616E637947756172643A207265656E7472616E742063616C6C00 PUSH1 0x44 DUP3 ADD MSTORE PUSH1 0x64 ADD PUSH2 0xA00 JUMP JUMPDEST PUSH1 0x2 PUSH0 SSTORE JUMP JUMPDEST PUSH20 0xFFFFFFFFFFFFFFFFFFFFFFFFFFFFFFFFFFFFFFFF DUP2 AND PUSH0 SWAP1 DUP2 MSTORE PUSH1 0xC PUSH1 0x20 MSTORE PUSH1 0x40 DUP2 KECCAK256 SLOAD DUP2 SUB PUSH2 0x3FA6 JUMPI PUSH1 0xA DUP1 SLOAD SWAP1 PUSH0 PUSH2 0x3F0B DUP4 PUSH2 0x4AAA JUMP JUMPDEST SWAP1 SWAP2 SSTORE POP POP PUSH1 0xA DUP1 SLOAD PUSH20 0xFFFFFFFFFFFFFFFFFFFFFFFFFFFFFFFFFFFFFFFF SWAP4 DUP5 AND PUSH0 DUP2 DUP2 MSTORE PUSH1 0xC PUSH1 0x20 SWAP1 DUP2 MSTORE PUSH1 0x40 DUP1 DUP4 KECCAK256 DUP6 SWAP1 SSTORE DUP1 MLOAD PUSH1 0x60 DUP2 ADD DUP3 MSTORE DUP6 DUP2 MSTORE DUP1 DUP4 ADD SWAP5 DUP6 MSTORE DUP1 DUP3 ADD DUP5 DUP2 MSTORE SWAP6 DUP5 MSTORE PUSH1 0xB SWAP1 SWAP3 MSTORE SWAP1 SWAP2 KECCAK256 SWAP1 MLOAD DUP2 SSTORE SWAP1 MLOAD PUSH1 0x1 DUP3 ADD DUP1 SLOAD PUSH32 0xFFFFFFFFFFFFFFFFFFFFFFFF0000000000000000000000000000000000000000 AND SWAP2 SWAP1 SWAP7 AND OR SWAP1 SWAP5 SSTORE MLOAD PUSH1 0x2 SWAP1 SWAP4 ADD SWAP3 SWAP1 SWAP3 SSTORE POP SLOAD SWAP1 JUMP JUMPDEST POP PUSH20 0xFFFFFFFFFFFFFFFFFFFFFFFFFFFFFFFFFFFFFFFF AND PUSH0 SWAP1 DUP2 MSTORE PUSH1 0xC PUSH1 0x20 MSTORE PUSH1 0x40 SWAP1 KECCAK256 SLOAD SWAP1 JUMP JUMPDEST POP DUP1 SLOAD PUSH2 0x3FDA SWAP1 PUSH2 0x4717 JUMP JUMPDEST PUSH0 DUP3 SSTORE DUP1 PUSH1 0x1F LT PUSH2 0x3FE9 JUMPI POP POP JUMP JUMPDEST PUSH1 0x1F ADD PUSH1 0x20 SWAP1 DIV SWAP1 PUSH0 MSTORE PUSH1 0x20 PUSH0 KECCAK256 SWAP1 DUP2 ADD SWAP1 PUSH2 0xD6F SWAP2 SWAP1 JUMPDEST DUP1 DUP3 GT ISZERO PUSH2 0x4014 JUMPI PUSH0 DUP2 SSTORE PUSH1 0x1 ADD PUSH2 0x4001 JUMP JUMPDEST POP SWAP1 JUMP JUMPDEST DUP1 CALLDATALOAD PUSH20 0xFFFFFFFFFFFFFFFFFFFFFFFFFFFFFFFFFFFFFFFF DUP2 AND DUP2 EQ PUSH2 0x403B JUMPI PUSH0 DUP1 REVERT JUMPDEST SWAP2 SWAP1 POP JUMP JUMPDEST PUSH0 PUSH1 0x20 DUP3 DUP5 SUB SLT ISZERO PUSH2 0x4050 JUMPI PUSH0 DUP1 REVERT JUMPDEST PUSH2 0x4059 DUP3 PUSH2 0x4018 JUMP JUMPDEST SWAP4 SWAP3 POP POP POP JUMP JUMPDEST PUSH0 PUSH1 0x20 DUP3 DUP5 SUB SLT ISZERO PUSH2 0x4070 JUMPI PUSH0 DUP1 REVERT JUMPDEST POP CALLDATALOAD SWAP2 SWAP1 POP JUMP JUMPDEST PUSH0 JUMPDEST DUP4 DUP2 LT ISZERO PUSH2 0x4091 JUMPI DUP2 DUP2 ADD MLOAD DUP4 DUP3 ADD MSTORE PUSH1 0x20 ADD PUSH2 0x4079 JUMP JUMPDEST POP POP PUSH0 SWAP2 ADD MSTORE JUMP JUMPDEST PUSH0 DUP2 MLOAD DUP1 DUP5 MSTORE PUSH2 0x40B0 DUP2 PUSH1 0x20 DUP7 ADD PUSH1 0x20 DUP7 ADD PUSH2 0x4077 JUMP JUMPDEST PUSH1 0x1F ADD PUSH32 0xFFFFFFFFFFFFFFFFFFFFFFFFFFFFFFFFFFFFFFFFFFFFFFFFFFFFFFFFFFFFFFE0 AND SWAP3 SWAP1 SWAP3 ADD PUSH1 0x20 ADD SWAP3 SWAP2 POP POP JUMP JUMPDEST PUSH0 PUSH2 0x140 DUP13 DUP4 MSTORE DUP1 PUSH1 0x20 DUP5 ADD MSTORE PUSH2 0x40FB DUP2 DUP5 ADD DUP14 PUSH2 0x4099 JUMP JUMPDEST SWAP1 POP DUP11 PUSH1 0x40 DUP5 ADD MSTORE PUSH20 0xFFFFFFFFFFFFFFFFFFFFFFFFFFFFFFFFFFFFFFFF DUP11 AND PUSH1 0x60 DUP5 ADD MSTORE DUP9 PUSH1 0x80 DUP5 ADD MSTORE DUP8 PUSH1 0xA0 DUP5 ADD MSTORE DUP7 PUSH1 0xC0 DUP5 ADD MSTORE DUP6 PUSH1 0xE0 DUP5 ADD MSTORE DUP5 PUSH2 0x100 DUP5 ADD MSTORE DUP3 DUP2 SUB PUSH2 0x120 DUP5 ADD MSTORE PUSH2 0x4151 DUP2 DUP6 PUSH2 0x4099 JUMP JUMPDEST SWAP14 SWAP13 POP POP POP POP POP POP POP POP POP POP POP POP POP JUMP JUMPDEST PUSH0 DUP1 PUSH1 0x40 DUP4 DUP6 SUB SLT ISZERO PUSH2 0x4173 JUMPI PUSH0 DUP1 REVERT JUMPDEST POP POP DUP1 CALLDATALOAD SWAP3 PUSH1 0x20 SWAP1 SWAP2 ADD CALLDATALOAD SWAP2 POP JUMP JUMPDEST PUSH0 DUP1 PUSH1 0x40 DUP4 DUP6 SUB SLT ISZERO PUSH2 0x4193 JUMPI PUSH0 DUP1 REVERT JUMPDEST PUSH2 0x419C DUP4 PUSH2 0x4018 JUMP JUMPDEST SWAP5 PUSH1 0x20 SWAP4 SWAP1 SWAP4 ADD CALLDATALOAD SWAP4 POP POP POP JUMP JUMPDEST PUSH1 0x20 DUP1 DUP3 MSTORE DUP3 MLOAD DUP3 DUP3 ADD DUP2 SWAP1 MSTORE PUSH0 SWAP2 SWAP1 DUP5 DUP3 ADD SWAP1 PUSH1 0x40 DUP6 ADD SWAP1 DUP5 JUMPDEST DUP2 DUP2 LT ISZERO PUSH2 0x4215 JUMPI PUSH2 0x4202 DUP4 DUP6 MLOAD DUP1 MLOAD DUP3 MSTORE PUSH1 0x20 DUP1 DUP3 ADD MLOAD PUSH20 0xFFFFFFFFFFFFFFFFFFFFFFFFFFFFFFFFFFFFFFFF AND SWAP1 DUP4 ADD MSTORE PUSH1 0x40 SWAP1 DUP2 ADD MLOAD SWAP2 ADD MSTORE JUMP JUMPDEST SWAP3 DUP5 ADD SWAP3 PUSH1 0x60 SWAP3 SWAP1 SWAP3 ADD SWAP2 PUSH1 0x1 ADD PUSH2 0x41C5 JUMP JUMPDEST POP SWAP1 SWAP7 SWAP6 POP POP POP POP POP POP JUMP JUMPDEST DUP2 MLOAD DUP2 MSTORE PUSH1 0x20 DUP1 DUP4 ADD MLOAD PUSH20 0xFFFFFFFFFFFFFFFFFFFFFFFFFFFFFFFFFFFFFFFF AND SWAP1 DUP3 ADD MSTORE PUSH1 0x40 DUP1 DUP4 ADD MLOAD SWAP1 DUP3 ADD MSTORE PUSH1 0x60 DUP2 ADD PUSH2 0x17F9 JUMP JUMPDEST PUSH0 PUSH2 0x140 DUP3 MLOAD DUP5 MSTORE PUSH1 0x20 DUP4 ADD MLOAD DUP2 PUSH1 0x20 DUP7 ADD MSTORE PUSH2 0x4277 DUP3 DUP7 ADD DUP3 PUSH2 0x4099 JUMP JUMPDEST SWAP2 POP POP PUSH1 0x40 DUP4 ADD MLOAD PUSH1 0x40 DUP6 ADD MSTORE PUSH1 0x60 DUP4 ADD MLOAD PUSH2 0x42AB PUSH1 0x60 DUP7 ADD DUP3 PUSH20 0xFFFFFFFFFFFFFFFFFFFFFFFFFFFFFFFFFFFFFFFF AND SWAP1 MSTORE JUMP JUMPDEST POP PUSH1 0x80 DUP4 ADD MLOAD PUSH1 0x80 DUP6 ADD MSTORE PUSH1 0xA0 DUP4 ADD MLOAD PUSH1 0xA0 DUP6 ADD MSTORE PUSH1 0xC0 DUP4 ADD MLOAD PUSH1 0xC0 DUP6 ADD MSTORE PUSH1 0xE0 DUP4 ADD MLOAD PUSH1 0xE0 DUP6 ADD MSTORE PUSH2 0x100 DUP1 DUP5 ADD MLOAD DUP2 DUP7 ADD MSTORE POP PUSH2 0x120 DUP1 DUP5 ADD MLOAD DUP6 DUP4 SUB DUP3 DUP8 ADD MSTORE PUSH2 0x42F8 DUP4 DUP3 PUSH2 0x4099 JUMP JUMPDEST SWAP7 SWAP6 POP POP POP POP POP POP JUMP JUMPDEST PUSH1 0x20 DUP2 MSTORE PUSH0 PUSH2 0x4059 PUSH1 0x20 DUP4 ADD DUP5 PUSH2 0x4258 JUMP JUMPDEST PUSH1 0x20 DUP2 MSTORE PUSH1 0xFF DUP3 MLOAD AND PUSH1 0x20 DUP3 ADD MSTORE PUSH0 PUSH1 0x20 DUP4 ADD MLOAD PUSH1 0x60 PUSH1 0x40 DUP5 ADD MSTORE PUSH2 0x433C PUSH1 0x80 DUP5 ADD DUP3 PUSH2 0x4099 JUMP JUMPDEST SWAP1 POP PUSH1 0x40 DUP5 ADD MLOAD PUSH32 0xFFFFFFFFFFFFFFFFFFFFFFFFFFFFFFFFFFFFFFFFFFFFFFFFFFFFFFFFFFFFFFE0 DUP5 DUP4 SUB ADD PUSH1 0x60 DUP6 ADD MSTORE PUSH2 0x4377 DUP3 DUP3 PUSH2 0x4099 JUMP JUMPDEST SWAP6 SWAP5 POP POP POP POP POP JUMP JUMPDEST PUSH0 PUSH1 0x20 DUP1 DUP4 ADD PUSH1 0x20 DUP5 MSTORE DUP1 DUP6 MLOAD DUP1 DUP4 MSTORE PUSH1 0x40 DUP7 ADD SWAP2 POP PUSH1 0x40 DUP2 PUSH1 0x5 SHL DUP8 ADD ADD SWAP3 POP PUSH1 0x20 DUP8 ADD PUSH0 JUMPDEST DUP3 DUP2 LT ISZERO PUSH2 0x43F3 JUMPI PUSH32 0xFFFFFFFFFFFFFFFFFFFFFFFFFFFFFFFFFFFFFFFFFFFFFFFFFFFFFFFFFFFFFFC0 DUP9 DUP7 SUB ADD DUP5 MSTORE PUSH2 0x43E1 DUP6 DUP4 MLOAD PUSH2 0x4258 JUMP JUMPDEST SWAP5 POP SWAP3 DUP6 ADD SWAP3 SWAP1 DUP6 ADD SWAP1 PUSH1 0x1 ADD PUSH2 0x43A7 JUMP JUMPDEST POP SWAP3 SWAP8 SWAP7 POP POP POP POP POP POP POP JUMP JUMPDEST PUSH32 0x4E487B7100000000000000000000000000000000000000000000000000000000 PUSH0 MSTORE PUSH1 0x41 PUSH1 0x4 MSTORE PUSH1 0x24 PUSH0 REVERT JUMPDEST PUSH1 0x40 MLOAD PUSH1 0x1F DUP3 ADD PUSH32 0xFFFFFFFFFFFFFFFFFFFFFFFFFFFFFFFFFFFFFFFFFFFFFFFFFFFFFFFFFFFFFFE0 AND DUP2 ADD PUSH8 0xFFFFFFFFFFFFFFFF DUP2 GT DUP3 DUP3 LT OR ISZERO PUSH2 0x4474 JUMPI PUSH2 0x4474 PUSH2 0x4400 JUMP JUMPDEST PUSH1 0x40 MSTORE SWAP2 SWAP1 POP JUMP JUMPDEST PUSH0 PUSH8 0xFFFFFFFFFFFFFFFF DUP3 GT ISZERO PUSH2 0x4495 JUMPI PUSH2 0x4495 PUSH2 0x4400 JUMP JUMPDEST POP PUSH1 0x1F ADD PUSH32 0xFFFFFFFFFFFFFFFFFFFFFFFFFFFFFFFFFFFFFFFFFFFFFFFFFFFFFFFFFFFFFFE0 AND PUSH1 0x20 ADD SWAP1 JUMP JUMPDEST PUSH0 DUP3 PUSH1 0x1F DUP4 ADD SLT PUSH2 0x44D0 JUMPI PUSH0 DUP1 REVERT JUMPDEST DUP2 CALLDATALOAD PUSH2 0x44E3 PUSH2 0x44DE DUP3 PUSH2 0x447C JUMP JUMPDEST PUSH2 0x442D JUMP JUMPDEST DUP2 DUP2 MSTORE DUP5 PUSH1 0x20 DUP4 DUP7 ADD ADD GT ISZERO PUSH2 0x44F7 JUMPI PUSH0 DUP1 REVERT JUMPDEST DUP2 PUSH1 0x20 DUP6 ADD PUSH1 0x20 DUP4 ADD CALLDATACOPY PUSH0 SWAP2 DUP2 ADD PUSH1 0x20 ADD SWAP2 SWAP1 SWAP2 MSTORE SWAP4 SWAP3 POP POP POP JUMP JUMPDEST PUSH0 DUP1 PUSH0 DUP1 PUSH0 DUP1 PUSH1 0xC0 DUP8 DUP10 SUB SLT ISZERO PUSH2 0x4528 JUMPI PUSH0 DUP1 REVERT JUMPDEST PUSH2 0x4531 DUP8 PUSH2 0x4018 JUMP JUMPDEST SWAP6 POP PUSH1 0x20 DUP8 ADD CALLDATALOAD PUSH8 0xFFFFFFFFFFFFFFFF DUP1 DUP3 GT ISZERO PUSH2 0x454D JUMPI PUSH0 DUP1 REVERT JUMPDEST PUSH2 0x4559 DUP11 DUP4 DUP12 ADD PUSH2 0x44C1 JUMP JUMPDEST SWAP7 POP PUSH1 0x40 DUP10 ADD CALLDATALOAD SWAP2 POP DUP1 DUP3 GT ISZERO PUSH2 0x456E JUMPI PUSH0 DUP1 REVERT JUMPDEST POP PUSH2 0x457B DUP10 DUP3 DUP11 ADD PUSH2 0x44C1 JUMP JUMPDEST SWAP5 POP POP PUSH1 0x60 DUP8 ADD CALLDATALOAD SWAP3 POP PUSH1 0x80 DUP8 ADD CALLDATALOAD SWAP2 POP PUSH1 0xA0 DUP8 ADD CALLDATALOAD SWAP1 POP SWAP3 SWAP6 POP SWAP3 SWAP6 POP SWAP3 SWAP6 JUMP JUMPDEST PUSH0 DUP1 PUSH1 0x40 DUP4 DUP6 SUB SLT ISZERO PUSH2 0x45AE JUMPI PUSH0 DUP1 REVERT JUMPDEST DUP3 CALLDATALOAD PUSH8 0xFFFFFFFFFFFFFFFF DUP1 DUP3 GT ISZERO PUSH2 0x45C5 JUMPI PUSH0 DUP1 REVERT JUMPDEST DUP2 DUP6 ADD SWAP2 POP DUP6 PUSH1 0x1F DUP4 ADD SLT PUSH2 0x45D8 JUMPI PUSH0 DUP1 REVERT JUMPDEST DUP2 CALLDATALOAD PUSH1 0x20 DUP3 DUP3 GT ISZERO PUSH2 0x45EC JUMPI PUSH2 0x45EC PUSH2 0x4400 JUMP JUMPDEST DUP2 PUSH1 0x5 SHL SWAP3 POP PUSH2 0x45FD DUP2 DUP5 ADD PUSH2 0x442D JUMP JUMPDEST DUP3 DUP2 MSTORE SWAP3 DUP5 ADD DUP2 ADD SWAP3 DUP2 DUP2 ADD SWAP1 DUP10 DUP6 GT ISZERO PUSH2 0x4616 JUMPI PUSH0 DUP1 REVERT JUMPDEST SWAP5 DUP3 ADD SWAP5 JUMPDEST DUP5 DUP7 LT ISZERO PUSH2 0x463B JUMPI PUSH2 0x462C DUP7 PUSH2 0x4018 JUMP JUMPDEST DUP3 MSTORE SWAP5 DUP3 ADD SWAP5 SWAP1 DUP3 ADD SWAP1 PUSH2 0x461B JUMP JUMPDEST SWAP10 SWAP8 SWAP1 SWAP2 ADD CALLDATALOAD SWAP8 POP POP POP POP POP POP POP JUMP JUMPDEST PUSH0 PUSH1 0x20 DUP3 DUP5 SUB SLT ISZERO PUSH2 0x465B JUMPI PUSH0 DUP1 REVERT JUMPDEST DUP2 CALLDATALOAD PUSH8 0xFFFFFFFFFFFFFFFF DUP2 GT ISZERO PUSH2 0x4671 JUMPI PUSH0 DUP1 REVERT JUMPDEST PUSH2 0x467D DUP5 DUP3 DUP6 ADD PUSH2 0x44C1 JUMP JUMPDEST SWAP5 SWAP4 POP POP POP POP JUMP JUMPDEST PUSH0 DUP1 PUSH0 DUP1 PUSH0 DUP1 PUSH0 PUSH1 0xE0 DUP9 DUP11 SUB SLT ISZERO PUSH2 0x469B JUMPI PUSH0 DUP1 REVERT JUMPDEST DUP8 CALLDATALOAD SWAP7 POP PUSH2 0x46AB PUSH1 0x20 DUP10 ADD PUSH2 0x4018 JUMP JUMPDEST SWAP6 POP PUSH1 0x40 DUP9 ADD CALLDATALOAD PUSH8 0xFFFFFFFFFFFFFFFF DUP1 DUP3 GT ISZERO PUSH2 0x46C7 JUMPI PUSH0 DUP1 REVERT JUMPDEST PUSH2 0x46D3 DUP12 DUP4 DUP13 ADD PUSH2 0x44C1 JUMP JUMPDEST SWAP7 POP PUSH1 0x60 DUP11 ADD CALLDATALOAD SWAP2 POP DUP1 DUP3 GT ISZERO PUSH2 0x46E8 JUMPI PUSH0 DUP1 REVERT JUMPDEST POP PUSH2 0x46F5 DUP11 DUP3 DUP12 ADD PUSH2 0x44C1 JUMP JUMPDEST SWAP8 SWAP11 SWAP7 SWAP10 POP SWAP5 SWAP8 PUSH1 0x80 DUP2 ADD CALLDATALOAD SWAP7 PUSH1 0xA0 DUP3 ADD CALLDATALOAD SWAP7 POP PUSH1 0xC0 SWAP1 SWAP2 ADD CALLDATALOAD SWAP5 POP SWAP3 POP POP POP JUMP JUMPDEST PUSH1 0x1 DUP2 DUP2 SHR SWAP1 DUP3 AND DUP1 PUSH2 0x472B JUMPI PUSH1 0x7F DUP3 AND SWAP2 POP JUMPDEST PUSH1 0x20 DUP3 LT DUP2 SUB PUSH2 0x4762 JUMPI PUSH32 0x4E487B7100000000000000000000000000000000000000000000000000000000 PUSH0 MSTORE PUSH1 0x22 PUSH1 0x4 MSTORE PUSH1 0x24 PUSH0 REVERT JUMPDEST POP SWAP2 SWAP1 POP JUMP JUMPDEST PUSH0 PUSH1 0x20 DUP3 DUP5 SUB SLT ISZERO PUSH2 0x4778 JUMPI PUSH0 DUP1 REVERT JUMPDEST DUP2 MLOAD DUP1 ISZERO ISZERO DUP2 EQ PUSH2 0x4059 JUMPI PUSH0 DUP1 REVERT JUMPDEST PUSH32 0x4E487B7100000000000000000000000000000000000000000000000000000000 PUSH0 MSTORE PUSH1 0x11 PUSH1 0x4 MSTORE PUSH1 0x24 PUSH0 REVERT JUMPDEST DUP2 DUP2 SUB DUP2 DUP2 GT ISZERO PUSH2 0x17F9 JUMPI PUSH2 0x17F9 PUSH2 0x4787 JUMP JUMPDEST DUP1 DUP3 MUL DUP2 ISZERO DUP3 DUP3 DIV DUP5 EQ OR PUSH2 0x17F9 JUMPI PUSH2 0x17F9 PUSH2 0x4787 JUMP JUMPDEST PUSH0 DUP3 PUSH2 0x4811 JUMPI PUSH32 0x4E487B7100000000000000000000000000000000000000000000000000000000 PUSH0 MSTORE PUSH1 0x12 PUSH1 0x4 MSTORE PUSH1 0x24 PUSH0 REVERT JUMPDEST POP DIV SWAP1 JUMP JUMPDEST DUP1 DUP3 ADD DUP1 DUP3 GT ISZERO PUSH2 0x17F9 JUMPI PUSH2 0x17F9 PUSH2 0x4787 JUMP JUMPDEST PUSH32 0x4E487B7100000000000000000000000000000000000000000000000000000000 PUSH0 MSTORE PUSH1 0x32 PUSH1 0x4 MSTORE PUSH1 0x24 PUSH0 REVERT JUMPDEST PUSH1 0x1F DUP3 GT ISZERO PUSH2 0x1628 JUMPI DUP1 PUSH0 MSTORE PUSH1 0x20 PUSH0 KECCAK256 PUSH1 0x1F DUP5 ADD PUSH1 0x5 SHR DUP2 ADD PUSH1 0x20 DUP6 LT ISZERO PUSH2 0x487B JUMPI POP DUP1 JUMPDEST PUSH1 0x1F DUP5 ADD PUSH1 0x5 SHR DUP3 ADD SWAP2 POP JUMPDEST DUP2 DUP2 LT ISZERO PUSH2 0x489A JUMPI PUSH0 DUP2 SSTORE PUSH1 0x1 ADD PUSH2 0x4887 JUMP JUMPDEST POP POP POP POP POP JUMP JUMPDEST DUP2 DUP2 SUB PUSH2 0x48AC JUMPI POP POP JUMP JUMPDEST PUSH2 0x48B6 DUP3 SLOAD PUSH2 0x4717 JUMP JUMPDEST PUSH8 0xFFFFFFFFFFFFFFFF DUP2 GT ISZERO PUSH2 0x48CE JUMPI PUSH2 0x48CE PUSH2 0x4400 JUMP JUMPDEST PUSH2 0x48E2 DUP2 PUSH2 0x48DC DUP5 SLOAD PUSH2 0x4717 JUMP JUMPDEST DUP5 PUSH2 0x4856 JUMP JUMPDEST PUSH0 PUSH1 0x1F DUP3 GT PUSH1 0x1 DUP2 EQ PUSH2 0x4932 JUMPI PUSH0 DUP4 ISZERO PUSH2 0x48FC JUMPI POP DUP5 DUP3 ADD SLOAD JUMPDEST PUSH32 0xFFFFFFFFFFFFFFFFFFFFFFFFFFFFFFFFFFFFFFFFFFFFFFFFFFFFFFFFFFFFFFFF PUSH1 0x3 DUP6 SWAP1 SHL SHR NOT AND PUSH1 0x1 DUP5 SWAP1 SHL OR DUP5 SSTORE PUSH2 0x489A JUMP JUMPDEST PUSH0 DUP6 DUP2 MSTORE PUSH1 0x20 DUP1 DUP3 KECCAK256 DUP7 DUP4 MSTORE SWAP1 DUP3 KECCAK256 PUSH32 0xFFFFFFFFFFFFFFFFFFFFFFFFFFFFFFFFFFFFFFFFFFFFFFFFFFFFFFFFFFFFFFE0 DUP7 AND SWAP3 JUMPDEST DUP4 DUP2 LT ISZERO PUSH2 0x4986 JUMPI DUP3 DUP7 ADD SLOAD DUP3 SSTORE PUSH1 0x1 SWAP6 DUP7 ADD SWAP6 SWAP1 SWAP2 ADD SWAP1 PUSH1 0x20 ADD PUSH2 0x4966 JUMP JUMPDEST POP DUP6 DUP4 LT ISZERO PUSH2 0x49C2 JUMPI DUP2 DUP6 ADD SLOAD PUSH32 0xFFFFFFFFFFFFFFFFFFFFFFFFFFFFFFFFFFFFFFFFFFFFFFFFFFFFFFFFFFFFFFFF PUSH1 0x3 DUP9 SWAP1 SHL PUSH1 0xF8 AND SHR NOT AND DUP2 SSTORE JUMPDEST POP POP POP POP POP PUSH1 0x1 SWAP1 DUP2 SHL ADD SWAP1 SSTORE POP JUMP JUMPDEST PUSH0 DUP2 PUSH2 0x49E0 JUMPI PUSH2 0x49E0 PUSH2 0x4787 JUMP JUMPDEST POP PUSH32 0xFFFFFFFFFFFFFFFFFFFFFFFFFFFFFFFFFFFFFFFFFFFFFFFFFFFFFFFFFFFFFFFF ADD SWAP1 JUMP JUMPDEST PUSH0 PUSH1 0x20 DUP3 DUP5 SUB SLT ISZERO PUSH2 0x4A16 JUMPI PUSH0 DUP1 REVERT JUMPDEST DUP2 MLOAD PUSH1 0xFF DUP2 AND DUP2 EQ PUSH2 0x4059 JUMPI PUSH0 DUP1 REVERT JUMPDEST PUSH0 PUSH1 0x20 DUP3 DUP5 SUB SLT ISZERO PUSH2 0x4A36 JUMPI PUSH0 DUP1 REVERT JUMPDEST DUP2 MLOAD PUSH8 0xFFFFFFFFFFFFFFFF DUP2 GT ISZERO PUSH2 0x4A4C JUMPI PUSH0 DUP1 REVERT JUMPDEST DUP3 ADD PUSH1 0x1F DUP2 ADD DUP5 SGT PUSH2 0x4A5C JUMPI PUSH0 DUP1 REVERT JUMPDEST DUP1 MLOAD PUSH2 0x4A6A PUSH2 0x44DE DUP3 PUSH2 0x447C JUMP JUMPDEST DUP2 DUP2 MSTORE DUP6 PUSH1 0x20 DUP4 DUP6 ADD ADD GT ISZERO PUSH2 0x4A7E JUMPI PUSH0 DUP1 REVERT JUMPDEST PUSH2 0x4377 DUP3 PUSH1 0x20 DUP4 ADD PUSH1 0x20 DUP7 ADD PUSH2 0x4077 JUMP JUMPDEST PUSH0 DUP3 MLOAD PUSH2 0x4AA0 DUP2 DUP5 PUSH1 0x20 DUP8 ADD PUSH2 0x4077 JUMP JUMPDEST SWAP2 SWAP1 SWAP2 ADD SWAP3 SWAP2 POP POP JUMP JUMPDEST PUSH0 PUSH32 0xFFFFFFFFFFFFFFFFFFFFFFFFFFFFFFFFFFFFFFFFFFFFFFFFFFFFFFFFFFFFFFFF DUP3 SUB PUSH2 0x4ADA JUMPI PUSH2 0x4ADA PUSH2 0x4787 JUMP JUMPDEST POP PUSH1 0x1 ADD SWAP1 JUMP JUMPDEST DUP2 MLOAD PUSH8 0xFFFFFFFFFFFFFFFF DUP2 GT ISZERO PUSH2 0x4AFB JUMPI PUSH2 0x4AFB PUSH2 0x4400 JUMP JUMPDEST PUSH2 0x4B09 DUP2 PUSH2 0x48DC DUP5 SLOAD PUSH2 0x4717 JUMP JUMPDEST PUSH1 0x20 DUP1 PUSH1 0x1F DUP4 GT PUSH1 0x1 DUP2 EQ PUSH2 0x4B5B JUMPI PUSH0 DUP5 ISZERO PUSH2 0x4B25 JUMPI POP DUP6 DUP4 ADD MLOAD JUMPDEST PUSH32 0xFFFFFFFFFFFFFFFFFFFFFFFFFFFFFFFFFFFFFFFFFFFFFFFFFFFFFFFFFFFFFFFF PUSH1 0x3 DUP7 SWAP1 SHL SHR NOT AND PUSH1 0x1 DUP6 SWAP1 SHL OR DUP6 SSTORE PUSH2 0x4BEF JUMP JUMPDEST PUSH0 DUP6 DUP2 MSTORE PUSH1 0x20 DUP2 KECCAK256 PUSH32 0xFFFFFFFFFFFFFFFFFFFFFFFFFFFFFFFFFFFFFFFFFFFFFFFFFFFFFFFFFFFFFFE0 DUP7 AND SWAP2 JUMPDEST DUP3 DUP2 LT ISZERO PUSH2 0x4BA7 JUMPI DUP9 DUP7 ADD MLOAD DUP3 SSTORE SWAP5 DUP5 ADD SWAP5 PUSH1 0x1 SWAP1 SWAP2 ADD SWAP1 DUP5 ADD PUSH2 0x4B88 JUMP JUMPDEST POP DUP6 DUP3 LT ISZERO PUSH2 0x4BE3 JUMPI DUP8 DUP6 ADD MLOAD PUSH32 0xFFFFFFFFFFFFFFFFFFFFFFFFFFFFFFFFFFFFFFFFFFFFFFFFFFFFFFFFFFFFFFFF PUSH1 0x3 DUP9 SWAP1 SHL PUSH1 0xF8 AND SHR NOT AND DUP2 SSTORE JUMPDEST POP POP PUSH1 0x1 DUP5 PUSH1 0x1 SHL ADD DUP6 SSTORE JUMPDEST POP POP POP POP POP POP JUMP INVALID LOG2 PUSH5 0x6970667358 0x22 SLT KECCAK256 0xBE SWAP16 BALANCE 0xEF 0xC0 PUSH9 0xE672C76FA2F07894E7 0xD7 LOG2 0xC1 0xD4 0xAF EXTCODEHASH 0xD6 CREATE2 RETURNDATACOPY 0x2C 0xB5 CALLDATACOPY 0xED COINBASE DIV SELFBALANCE 0xDD PUSH5 0x736F6C6343 STOP ADDMOD XOR STOP CALLER "
		},
		"gasEstimates": {
			"creation": {
				"codeDepositCost": "3900200",
				"executionCost": "infinite",
				"totalCost": "infinite"
			},
			"external": {
				"addGame(address,string,string,uint256,uint256,uint256)": "infinite",
				"airdrop(address[],uint256)": "infinite",
				"burnAddress()": "2424",
				"closeDeposit(address,uint256)": "infinite",
				"delGame(uint256)": "infinite",
				"deposit(uint256)": "infinite",
				"depositGameBank(uint256,uint256)": "infinite",
				"depositPendingGameBank(uint256,uint256)": "infinite",
				"editGame(uint256,address,string,string,uint256,uint256,uint256)": "infinite",
				"gameBurnAndStake(uint256)": "infinite",
				"gameDepositUserDeposit(address,uint256)": "infinite",
				"gameWithdrawUserDeposit(address,uint256)": "infinite",
				"games(uint256)": "infinite",
				"gamesByCode(bytes32)": "2536",
				"gamesCount()": "2349",
				"gamesIds(address)": "2606",
				"gasAddress()": "2403",
				"getGame(address)": "infinite",
				"getGameByCode(string)": "infinite",
				"getGames(uint256,uint256)": "infinite",
				"getTokenInfo()": "infinite",
				"getUser(address)": "9295",
				"getUserDeposit(address)": "4788",
				"getUserDepositAmount(address)": "9144",
				"getUserId(address)": "2568",
				"getUsers(uint256,uint256)": "infinite",
				"minWithdrawAmount()": "2352",
				"owner()": "2423",
				"recoverWrongToken(address,uint256)": "infinite",
				"setBurnAddress(address)": "26726",
				"setGasAddress(address)": "26727",
				"setMinWithdrawAmount(uint256)": "24540",
				"setStakeAddress(address)": "26749",
				"stakeAddress()": "2379",
				"token()": "2400",
				"totalBankAmount()": "2393",
				"totalDepositAmount()": "2373",
				"totalPendingBankAmount()": "2350",
				"transferOwnership(address)": "26769",
				"users(uint256)": "6809",
				"usersCount()": "2351",
				"usersIds(address)": "2605",
				"withdraw(uint256)": "infinite",
				"withdrawGameBank(uint256,uint256)": "infinite"
			},
			"internal": {
				"registerUser(address)": "infinite"
			}
		},
		"methodIdentifiers": {
			"addGame(address,string,string,uint256,uint256,uint256)": "bb794120",
			"airdrop(address[],uint256)": "c204642c",
			"burnAddress()": "70d5ae05",
			"closeDeposit(address,uint256)": "ca9b5e39",
			"delGame(uint256)": "8e0d920e",
			"deposit(uint256)": "b6b55f25",
			"depositGameBank(uint256,uint256)": "e97ffdc1",
			"depositPendingGameBank(uint256,uint256)": "30ff7abe",
			"editGame(uint256,address,string,string,uint256,uint256,uint256)": "ebce65c2",
			"gameBurnAndStake(uint256)": "2edcbd60",
			"gameDepositUserDeposit(address,uint256)": "95467177",
			"gameWithdrawUserDeposit(address,uint256)": "f0a507da",
			"games(uint256)": "117a5b90",
			"gamesByCode(bytes32)": "6313091c",
			"gamesCount()": "fb632b7c",
			"gamesIds(address)": "291c3819",
			"gasAddress()": "901690b1",
			"getGame(address)": "8d1a4b28",
			"getGameByCode(string)": "ced91a72",
			"getGames(uint256,uint256)": "ac451185",
			"getTokenInfo()": "abb1dc44",
			"getUser(address)": "6f77926b",
			"getUserDeposit(address)": "c084b10b",
			"getUserDepositAmount(address)": "0cec2a76",
			"getUserId(address)": "2b956ff7",
			"getUsers(uint256,uint256)": "45982a66",
			"minWithdrawAmount()": "457e1a49",
			"owner()": "8da5cb5b",
			"recoverWrongToken(address,uint256)": "3c28f9ce",
			"setBurnAddress(address)": "4b0e7216",
			"setGasAddress(address)": "152c8685",
			"setMinWithdrawAmount(uint256)": "5abdb0dc",
			"setStakeAddress(address)": "23471d18",
			"stakeAddress()": "85107367",
			"token()": "fc0c546a",
			"totalBankAmount()": "fcf038a3",
			"totalDepositAmount()": "c5408d50",
			"totalPendingBankAmount()": "b936bee0",
			"transferOwnership(address)": "f2fde38b",
			"users(uint256)": "365b98b2",
			"usersCount()": "6ba13a82",
			"usersIds(address)": "b8e21a5b",
			"withdraw(uint256)": "2e1a7d4d",
			"withdrawGameBank(uint256,uint256)": "aad605ba"
		}
	},
	"abi": [
		{
			"inputs": [
				{
					"internalType": "address",
					"name": "tokenAddress",
					"type": "address"
				}
			],
			"stateMutability": "nonpayable",
			"type": "constructor"
		},
		{
			"inputs": [
				{
					"internalType": "address",
					"name": "gameAddress",
					"type": "address"
				},
				{
					"internalType": "string",
					"name": "code",
					"type": "string"
				},
				{
					"internalType": "string",
					"name": "description",
					"type": "string"
				},
				{
					"internalType": "uint256",
					"name": "burnPercent",
					"type": "uint256"
				},
				{
					"internalType": "uint256",
					"name": "stakePercent",
					"type": "uint256"
				},
				{
					"internalType": "uint256",
					"name": "gasPercent",
					"type": "uint256"
				}
			],
			"name": "addGame",
			"outputs": [],
			"stateMutability": "nonpayable",
			"type": "function"
		},
		{
			"inputs": [
				{
					"internalType": "address[]",
					"name": "_users",
					"type": "address[]"
				},
				{
					"internalType": "uint256",
					"name": "amountPerUser",
					"type": "uint256"
				}
			],
			"name": "airdrop",
			"outputs": [],
			"stateMutability": "nonpayable",
			"type": "function"
		},
		{
			"inputs": [],
			"name": "burnAddress",
			"outputs": [
				{
					"internalType": "address",
					"name": "",
					"type": "address"
				}
			],
			"stateMutability": "view",
			"type": "function"
		},
		{
			"inputs": [
				{
					"internalType": "address",
					"name": "userAddress",
					"type": "address"
				},
				{
					"internalType": "uint256",
					"name": "amount",
					"type": "uint256"
				}
			],
			"name": "closeDeposit",
			"outputs": [],
			"stateMutability": "nonpayable",
			"type": "function"
		},
		{
			"inputs": [
				{
					"internalType": "uint256",
					"name": "gameId",
					"type": "uint256"
				}
			],
			"name": "delGame",
			"outputs": [],
			"stateMutability": "nonpayable",
			"type": "function"
		},
		{
			"inputs": [
				{
					"internalType": "uint256",
					"name": "amount",
					"type": "uint256"
				}
			],
			"name": "deposit",
			"outputs": [],
			"stateMutability": "nonpayable",
			"type": "function"
		},
		{
			"inputs": [
				{
					"internalType": "uint256",
					"name": "gameId",
					"type": "uint256"
				},
				{
					"internalType": "uint256",
					"name": "amount",
					"type": "uint256"
				}
			],
			"name": "depositGameBank",
			"outputs": [],
			"stateMutability": "nonpayable",
			"type": "function"
		},
		{
			"inputs": [
				{
					"internalType": "uint256",
					"name": "gameId",
					"type": "uint256"
				},
				{
					"internalType": "uint256",
					"name": "amount",
					"type": "uint256"
				}
			],
			"name": "depositPendingGameBank",
			"outputs": [],
			"stateMutability": "nonpayable",
			"type": "function"
		},
		{
			"inputs": [
				{
					"internalType": "uint256",
					"name": "gameId",
					"type": "uint256"
				},
				{
					"internalType": "address",
					"name": "gameAddress",
					"type": "address"
				},
				{
					"internalType": "string",
					"name": "code",
					"type": "string"
				},
				{
					"internalType": "string",
					"name": "description",
					"type": "string"
				},
				{
					"internalType": "uint256",
					"name": "burnPercent",
					"type": "uint256"
				},
				{
					"internalType": "uint256",
					"name": "stakePercent",
					"type": "uint256"
				},
				{
					"internalType": "uint256",
					"name": "gasPercent",
					"type": "uint256"
				}
			],
			"name": "editGame",
			"outputs": [],
			"stateMutability": "nonpayable",
			"type": "function"
		},
		{
			"inputs": [
				{
					"internalType": "uint256",
					"name": "fromAmount",
					"type": "uint256"
				}
			],
			"name": "gameBurnAndStake",
			"outputs": [],
			"stateMutability": "nonpayable",
			"type": "function"
		},
		{
			"inputs": [
				{
					"internalType": "address",
					"name": "userAddress",
					"type": "address"
				},
				{
					"internalType": "uint256",
					"name": "amount",
					"type": "uint256"
				}
			],
			"name": "gameDepositUserDeposit",
			"outputs": [],
			"stateMutability": "nonpayable",
			"type": "function"
		},
		{
			"inputs": [
				{
					"internalType": "address",
					"name": "userAddress",
					"type": "address"
				},
				{
					"internalType": "uint256",
					"name": "amount",
					"type": "uint256"
				}
			],
			"name": "gameWithdrawUserDeposit",
			"outputs": [],
			"stateMutability": "nonpayable",
			"type": "function"
		},
		{
			"inputs": [
				{
					"internalType": "uint256",
					"name": "",
					"type": "uint256"
				}
			],
			"name": "games",
			"outputs": [
				{
					"internalType": "uint256",
					"name": "gameId",
					"type": "uint256"
				},
				{
					"internalType": "string",
					"name": "gameCode",
					"type": "string"
				},
				{
					"internalType": "bytes32",
					"name": "gameCodeHash",
					"type": "bytes32"
				},
				{
					"internalType": "address",
					"name": "gameAddress",
					"type": "address"
				},
				{
					"internalType": "uint256",
					"name": "bankAmount",
					"type": "uint256"
				},
				{
					"internalType": "uint256",
					"name": "pendingBankAmount",
					"type": "uint256"
				},
				{
					"internalType": "uint256",
					"name": "burnPercent",
					"type": "uint256"
				},
				{
					"internalType": "uint256",
					"name": "stakePercent",
					"type": "uint256"
				},
				{
					"internalType": "uint256",
					"name": "gasPercent",
					"type": "uint256"
				},
				{
					"internalType": "string",
					"name": "description",
					"type": "string"
				}
			],
			"stateMutability": "view",
			"type": "function"
		},
		{
			"inputs": [
				{
					"internalType": "bytes32",
					"name": "",
					"type": "bytes32"
				}
			],
			"name": "gamesByCode",
			"outputs": [
				{
					"internalType": "uint256",
					"name": "",
					"type": "uint256"
				}
			],
			"stateMutability": "view",
			"type": "function"
		},
		{
			"inputs": [],
			"name": "gamesCount",
			"outputs": [
				{
					"internalType": "uint256",
					"name": "",
					"type": "uint256"
				}
			],
			"stateMutability": "view",
			"type": "function"
		},
		{
			"inputs": [
				{
					"internalType": "address",
					"name": "",
					"type": "address"
				}
			],
			"name": "gamesIds",
			"outputs": [
				{
					"internalType": "uint256",
					"name": "",
					"type": "uint256"
				}
			],
			"stateMutability": "view",
			"type": "function"
		},
		{
			"inputs": [],
			"name": "gasAddress",
			"outputs": [
				{
					"internalType": "address",
					"name": "",
					"type": "address"
				}
			],
			"stateMutability": "view",
			"type": "function"
		},
		{
			"inputs": [
				{
					"internalType": "address",
					"name": "gameAddress",
					"type": "address"
				}
			],
			"name": "getGame",
			"outputs": [
				{
					"components": [
						{
							"internalType": "uint256",
							"name": "gameId",
							"type": "uint256"
						},
						{
							"internalType": "string",
							"name": "gameCode",
							"type": "string"
						},
						{
							"internalType": "bytes32",
							"name": "gameCodeHash",
							"type": "bytes32"
						},
						{
							"internalType": "address",
							"name": "gameAddress",
							"type": "address"
						},
						{
							"internalType": "uint256",
							"name": "bankAmount",
							"type": "uint256"
						},
						{
							"internalType": "uint256",
							"name": "pendingBankAmount",
							"type": "uint256"
						},
						{
							"internalType": "uint256",
							"name": "burnPercent",
							"type": "uint256"
						},
						{
							"internalType": "uint256",
							"name": "stakePercent",
							"type": "uint256"
						},
						{
							"internalType": "uint256",
							"name": "gasPercent",
							"type": "uint256"
						},
						{
							"internalType": "string",
							"name": "description",
							"type": "string"
						}
					],
					"internalType": "struct GGWDeposit.Game",
					"name": "",
					"type": "tuple"
				}
			],
			"stateMutability": "view",
			"type": "function"
		},
		{
			"inputs": [
				{
					"internalType": "string",
					"name": "code",
					"type": "string"
				}
			],
			"name": "getGameByCode",
			"outputs": [
				{
					"components": [
						{
							"internalType": "uint256",
							"name": "gameId",
							"type": "uint256"
						},
						{
							"internalType": "string",
							"name": "gameCode",
							"type": "string"
						},
						{
							"internalType": "bytes32",
							"name": "gameCodeHash",
							"type": "bytes32"
						},
						{
							"internalType": "address",
							"name": "gameAddress",
							"type": "address"
						},
						{
							"internalType": "uint256",
							"name": "bankAmount",
							"type": "uint256"
						},
						{
							"internalType": "uint256",
							"name": "pendingBankAmount",
							"type": "uint256"
						},
						{
							"internalType": "uint256",
							"name": "burnPercent",
							"type": "uint256"
						},
						{
							"internalType": "uint256",
							"name": "stakePercent",
							"type": "uint256"
						},
						{
							"internalType": "uint256",
							"name": "gasPercent",
							"type": "uint256"
						},
						{
							"internalType": "string",
							"name": "description",
							"type": "string"
						}
					],
					"internalType": "struct GGWDeposit.Game",
					"name": "ret",
					"type": "tuple"
				}
			],
			"stateMutability": "view",
			"type": "function"
		},
		{
			"inputs": [
				{
					"internalType": "uint256",
					"name": "offset",
					"type": "uint256"
				},
				{
					"internalType": "uint256",
					"name": "limit",
					"type": "uint256"
				}
			],
			"name": "getGames",
			"outputs": [
				{
					"components": [
						{
							"internalType": "uint256",
							"name": "gameId",
							"type": "uint256"
						},
						{
							"internalType": "string",
							"name": "gameCode",
							"type": "string"
						},
						{
							"internalType": "bytes32",
							"name": "gameCodeHash",
							"type": "bytes32"
						},
						{
							"internalType": "address",
							"name": "gameAddress",
							"type": "address"
						},
						{
							"internalType": "uint256",
							"name": "bankAmount",
							"type": "uint256"
						},
						{
							"internalType": "uint256",
							"name": "pendingBankAmount",
							"type": "uint256"
						},
						{
							"internalType": "uint256",
							"name": "burnPercent",
							"type": "uint256"
						},
						{
							"internalType": "uint256",
							"name": "stakePercent",
							"type": "uint256"
						},
						{
							"internalType": "uint256",
							"name": "gasPercent",
							"type": "uint256"
						},
						{
							"internalType": "string",
							"name": "description",
							"type": "string"
						}
					],
					"internalType": "struct GGWDeposit.Game[]",
					"name": "",
					"type": "tuple[]"
				}
			],
			"stateMutability": "view",
			"type": "function"
		},
		{
			"inputs": [],
			"name": "getTokenInfo",
			"outputs": [
				{
					"components": [
						{
							"internalType": "uint8",
							"name": "decimals",
							"type": "uint8"
						},
						{
							"internalType": "string",
							"name": "symbol",
							"type": "string"
						},
						{
							"internalType": "string",
							"name": "name",
							"type": "string"
						}
					],
					"internalType": "struct GGWDeposit.TokenInfo",
					"name": "ret",
					"type": "tuple"
				}
			],
			"stateMutability": "view",
			"type": "function"
		},
		{
			"inputs": [
				{
					"internalType": "address",
					"name": "userAddress",
					"type": "address"
				}
			],
			"name": "getUser",
			"outputs": [
				{
					"components": [
						{
							"internalType": "uint256",
							"name": "userId",
							"type": "uint256"
						},
						{
							"internalType": "address",
							"name": "userAddress",
							"type": "address"
						},
						{
							"internalType": "uint256",
							"name": "depositAmount",
							"type": "uint256"
						}
					],
					"internalType": "struct GGWDeposit.User",
					"name": "",
					"type": "tuple"
				}
			],
			"stateMutability": "view",
			"type": "function"
		},
		{
			"inputs": [
				{
					"internalType": "address",
					"name": "userAddress",
					"type": "address"
				}
			],
			"name": "getUserDeposit",
			"outputs": [
				{
					"internalType": "uint256",
					"name": "",
					"type": "uint256"
				}
			],
			"stateMutability": "view",
			"type": "function"
		},
		{
			"inputs": [
				{
					"internalType": "address",
					"name": "userAddress",
					"type": "address"
				}
			],
			"name": "getUserDepositAmount",
			"outputs": [
				{
					"internalType": "uint256",
					"name": "amount",
					"type": "uint256"
				}
			],
			"stateMutability": "view",
			"type": "function"
		},
		{
			"inputs": [
				{
					"internalType": "address",
					"name": "userAddress",
					"type": "address"
				}
			],
			"name": "getUserId",
			"outputs": [
				{
					"internalType": "uint256",
					"name": "",
					"type": "uint256"
				}
			],
			"stateMutability": "view",
			"type": "function"
		},
		{
			"inputs": [
				{
					"internalType": "uint256",
					"name": "offset",
					"type": "uint256"
				},
				{
					"internalType": "uint256",
					"name": "limit",
					"type": "uint256"
				}
			],
			"name": "getUsers",
			"outputs": [
				{
					"components": [
						{
							"internalType": "uint256",
							"name": "userId",
							"type": "uint256"
						},
						{
							"internalType": "address",
							"name": "userAddress",
							"type": "address"
						},
						{
							"internalType": "uint256",
							"name": "depositAmount",
							"type": "uint256"
						}
					],
					"internalType": "struct GGWDeposit.User[]",
					"name": "",
					"type": "tuple[]"
				}
			],
			"stateMutability": "view",
			"type": "function"
		},
		{
			"inputs": [],
			"name": "minWithdrawAmount",
			"outputs": [
				{
					"internalType": "uint256",
					"name": "",
					"type": "uint256"
				}
			],
			"stateMutability": "view",
			"type": "function"
		},
		{
			"inputs": [],
			"name": "owner",
			"outputs": [
				{
					"internalType": "address",
					"name": "",
					"type": "address"
				}
			],
			"stateMutability": "view",
			"type": "function"
		},
		{
			"inputs": [
				{
					"internalType": "address",
					"name": "tokenAddress",
					"type": "address"
				},
				{
					"internalType": "uint256",
					"name": "amount",
					"type": "uint256"
				}
			],
			"name": "recoverWrongToken",
			"outputs": [],
			"stateMutability": "nonpayable",
			"type": "function"
		},
		{
			"inputs": [
				{
					"internalType": "address",
					"name": "_address",
					"type": "address"
				}
			],
			"name": "setBurnAddress",
			"outputs": [],
			"stateMutability": "nonpayable",
			"type": "function"
		},
		{
			"inputs": [
				{
					"internalType": "address",
					"name": "_address",
					"type": "address"
				}
			],
			"name": "setGasAddress",
			"outputs": [],
			"stateMutability": "nonpayable",
			"type": "function"
		},
		{
			"inputs": [
				{
					"internalType": "uint256",
					"name": "amount",
					"type": "uint256"
				}
			],
			"name": "setMinWithdrawAmount",
			"outputs": [],
			"stateMutability": "nonpayable",
			"type": "function"
		},
		{
			"inputs": [
				{
					"internalType": "address",
					"name": "_address",
					"type": "address"
				}
			],
			"name": "setStakeAddress",
			"outputs": [],
			"stateMutability": "nonpayable",
			"type": "function"
		},
		{
			"inputs": [],
			"name": "stakeAddress",
			"outputs": [
				{
					"internalType": "address",
					"name": "",
					"type": "address"
				}
			],
			"stateMutability": "view",
			"type": "function"
		},
		{
			"inputs": [],
			"name": "token",
			"outputs": [
				{
					"internalType": "contract IERC20",
					"name": "",
					"type": "address"
				}
			],
			"stateMutability": "view",
			"type": "function"
		},
		{
			"inputs": [],
			"name": "totalBankAmount",
			"outputs": [
				{
					"internalType": "uint256",
					"name": "",
					"type": "uint256"
				}
			],
			"stateMutability": "view",
			"type": "function"
		},
		{
			"inputs": [],
			"name": "totalDepositAmount",
			"outputs": [
				{
					"internalType": "uint256",
					"name": "",
					"type": "uint256"
				}
			],
			"stateMutability": "view",
			"type": "function"
		},
		{
			"inputs": [],
			"name": "totalPendingBankAmount",
			"outputs": [
				{
					"internalType": "uint256",
					"name": "",
					"type": "uint256"
				}
			],
			"stateMutability": "view",
			"type": "function"
		},
		{
			"inputs": [
				{
					"internalType": "address",
					"name": "newOwner",
					"type": "address"
				}
			],
			"name": "transferOwnership",
			"outputs": [],
			"stateMutability": "nonpayable",
			"type": "function"
		},
		{
			"inputs": [
				{
					"internalType": "uint256",
					"name": "",
					"type": "uint256"
				}
			],
			"name": "users",
			"outputs": [
				{
					"internalType": "uint256",
					"name": "userId",
					"type": "uint256"
				},
				{
					"internalType": "address",
					"name": "userAddress",
					"type": "address"
				},
				{
					"internalType": "uint256",
					"name": "depositAmount",
					"type": "uint256"
				}
			],
			"stateMutability": "view",
			"type": "function"
		},
		{
			"inputs": [],
			"name": "usersCount",
			"outputs": [
				{
					"internalType": "uint256",
					"name": "",
					"type": "uint256"
				}
			],
			"stateMutability": "view",
			"type": "function"
		},
		{
			"inputs": [
				{
					"internalType": "address",
					"name": "",
					"type": "address"
				}
			],
			"name": "usersIds",
			"outputs": [
				{
					"internalType": "uint256",
					"name": "",
					"type": "uint256"
				}
			],
			"stateMutability": "view",
			"type": "function"
		},
		{
			"inputs": [
				{
					"internalType": "uint256",
					"name": "amount",
					"type": "uint256"
				}
			],
			"name": "withdraw",
			"outputs": [],
			"stateMutability": "nonpayable",
			"type": "function"
		},
		{
			"inputs": [
				{
					"internalType": "uint256",
					"name": "gameId",
					"type": "uint256"
				},
				{
					"internalType": "uint256",
					"name": "amount",
					"type": "uint256"
				}
			],
			"name": "withdrawGameBank",
			"outputs": [],
			"stateMutability": "nonpayable",
			"type": "function"
		}
	]
}