{
	"data": {
		"bytecode": {
			"linkReferences": {},
			"object": "60a06040526001600555670de0b6b3a76400006006555f600a5534801562000025575f80fd5b5060405162004ec038038062004ec0833981016040819052620000489162000112565b60015f556001600160a01b038216620000965760405162461bcd60e51b815260206004820152600b60248201526a546f6b656e3a207a65726f60a81b60448201526064015b60405180910390fd5b612710811115620000d85760405162461bcd60e51b815260206004820152600b60248201526a52617465203e203130302560a81b60448201526064016200008d565b60018054336001600160a01b031991821681179092556002805490911690911790556001600160a01b03919091166080526004556200014b565b5f806040838503121562000124575f80fd5b82516001600160a01b03811681146200013b575f80fd5b6020939093015192949293505050565b608051614d01620001bf5f395f81816106cb0152818161107d015281816116c20152818161174a015281816117d10152818161185801528181612308015281816125750152818161296001528181612b7901528181612fc10152818161311d015281816136260152613b3f0152614d015ff3fe608060405234801561000f575f80fd5b50600436106103d4575f3560e01c80637dc0d1d011610200578063b29a81401161011f578063d3d83445116100b4578063e2842d7911610084578063e2842d7914610907578063f2fde38b1461090f578063f4f8c84714610922578063f8799e1a1461092b578063fe4ab90a14610934575f80fd5b8063d3d83445146108b1578063d6a13301146108c4578063d7d43c78146108ec578063dd4824a8146108f4575f80fd5b8063ccaac244116100ef578063ccaac2441461086e578063ccbd00071461088d578063d188e3ae14610896578063d37528301461089e575f80fd5b8063b29a81401461081f578063b42a275e14610832578063be2ff4a91461083b578063c491eecd1461084e575f80fd5b80639be572f611610195578063a5c62cb411610165578063a5c62cb4146107cf578063a9783cd7146107d7578063b02c43d0146107df578063b18e71f21461080c575f80fd5b80639be572f6146107955780639d13fa011461079d578063a2bdedf4146107bc578063a4a1e26314610795575f80fd5b806391ba50cd116101d057806391ba50cd14610754578063936d4ffa1461076757806394c92f6d1461076f5780639521abc614610782575f80fd5b80637dc0d1d0146107135780638c90926f146107265780638da5cb5b1461072e57806390693ca714610741575f80fd5b806323e0ceb2116102f75780634698b8831161028c578063647fc56c1161025c578063647fc56c146106a05780637196d3e2146106b357806372f702f3146106c657806372fada5c146106ed5780637adbf97314610700575f80fd5b80634698b883146106475780634b4d7aa81461065a5780634eff3d3d1461066d5780636241ca791461068d575f80fd5b80634106ee75116102c75780634106ee75146105c657806341aff23e146105e65780634209fff11461060557806345982a6614610627575f80fd5b806323e0ceb21461056c5780632e0e30641461058b5780632ffb3d2a1461059e57806336261236146105b1575f80fd5b8063168a48221161036d5780631d0205b81161033d5780631d0205b8146104f95780631fb3bd93146105275780632290d5771461053a57806323b28a5414610559575f80fd5b8063168a4822146104965780631bfc77611461049e5780631c5dc54c146104be5780631cc39d57146104c7575f80fd5b806308f43333116103a857806308f43333146104255780630f68ae401461043857806310aef8121461044b578063137760e41461046b575f80fd5b80620d6386146103d857806305a163b6146103f457806306f960bb14610409578063088042751461041c575b5f80fd5b6103e1600a5481565b6040519081526020015b60405180910390f35b6104076104023660046142f1565b61093d565b005b610407610417366004614348565b610bcc565b6103e160065481565b6103e1610433366004614394565b610c81565b6104076104463660046143bc565b610cac565b61045e610459366004614418565b610cdb565b6040516103eb91906144b9565b60035461047e906001600160a01b031681565b6040516001600160a01b0390911681526020016103eb565b600b546103e1565b6104b16104ac3660046143bc565b610dd7565b6040516103eb91906145b5565b6103e160125481565b6104e96104d53660046143bc565b600d6020525f908152604090205460ff1681565b60405190151581526020016103eb565b61050c6105073660046143bc565b610ecc565b604080519384526020840192909252908201526060016103eb565b6104076105353660046143bc565b610efd565b6103e16105483660046143bc565b600c6020525f908152604090205481565b6104076105673660046145c4565b611178565b6103e161057a3660046143bc565b600f6020525f908152604090205481565b6103e16105993660046143bc565b611202565b6104076105ac366004614635565b611480565b6105b96115fa565b6040516103eb9190614715565b6105d96105d4366004614824565b6118cf565b6040516103eb9190614844565b6103e16105f43660046143bc565b60156020525f908152604090205481565b6104e9610613366004614886565b60086020525f908152604090205460ff1681565b61063a610635366004614824565b611b16565b6040516103eb919061489f565b6105d96106553660046148df565b611c42565b6104076106683660046143bc565b611ee3565b61068061067b366004614824565b611f12565b6040516103eb919061490f565b61040761069b3660046143bc565b61210a565b6104076106ae3660046143bc565b6123df565b6103e16106c13660046142f1565b612663565b61047e7f000000000000000000000000000000000000000000000000000000000000000081565b6104076106fb3660046143bc565b612806565b61040761070e366004614886565b612a40565b60025461047e906001600160a01b031681565b6103e1612a8c565b60015461047e906001600160a01b031681565b6103e161074f3660046143bc565b612ab4565b6104076107623660046143bc565b612ad3565b6014546103e1565b61040761077d366004614886565b612c20565b6104076107903660046143bc565b612c6c565b6007546103e1565b6103e16107ab3660046143bc565b60166020525f908152604090205481565b61047e6107ca3660046143bc565b612cf3565b6103e1612d1b565b610407612da6565b6107f26107ed3660046143bc565b612ee4565b6040516103eb9e9d9c9b9a99989796959493929190614983565b61040761081a366004614824565b612f72565b61040761082d366004614394565b612f95565b6103e160135481565b6104076108493660046143bc565b6130b5565b61086161085c366004614886565b6131d1565b6040516103eb9190614a0e565b6103e161087c3660046143bc565b60176020525f908152604090205481565b6103e160105481565b6103e161323a565b6105d96108ac366004614824565b613285565b6104076108bf3660046143bc565b613496565b6103e16108d2366004614886565b6001600160a01b03165f9081526009602052604090205490565b600e546103e1565b6103e16109023660046145c4565b6136f7565b61063a6138a3565b61040761091d366004614886565b613903565b6103e160045481565b6103e160055481565b6103e160115481565b6001546001600160a01b031633146109705760405162461bcd60e51b815260040161096790614a45565b60405180910390fd5b60145484106109ad5760405162461bcd60e51b815260206004820152600960248201526824b73232bc1027a7a160b91b6044820152606401610967565b8183106109ec5760405162461bcd60e51b815260206004820152600d60248201526c496e76616c69642072616e676560981b6044820152606401610967565b8015610a1457612710811115610a145760405162461bcd60e51b815260040161096790614a69565b428311610a4d5760405162461bcd60e51b815260206004820152600760248201526614dd185c9d195960ca1b6044820152606401610967565b8315610ab5576014610a60600186614aa2565b81548110610a7057610a70614ab5565b905f5260205f20906003020160010154831015610ab55760405162461bcd60e51b815260206004820152600360248201526253657160e81b6044820152606401610967565b601454610ac3856001614ac9565b1015610b2e576014610ad6856001614ac9565b81548110610ae657610ae6614ab5565b905f5260205f2090600302015f0154821115610b2e5760405162461bcd60e51b815260206004820152600760248201526604f7665726c61760cc1b6044820152606401610967565b60405180606001604052808481526020018381526020018281525060148581548110610b5c57610b5c614ab5565b5f9182526020918290208351600390920201908155828201516001820155604092830151600290910155815185815290810184905290810182905284907f68f039af08c3a62dae4b7e4244543803dce43c9c5a2ad9ef05fea8366f4c86239060600160405180910390a250505050565b610bd4613975565b6001546001600160a01b0316331480610bf757506002546001600160a01b031633145b610c3a5760405162461bcd60e51b81526020600482015260146024820152734f6e6c79206f776e6572206f72206f7261636c6560601b6044820152606401610967565b8115610c6257612710811115610c625760405162461bcd60e51b815260040161096790614a69565b610c718585858585600161399d565b610c7a60015f55565b5050505050565b6009602052815f5260405f208181548110610c9a575f80fd5b905f5260205f20015f91509150505481565b6001546001600160a01b03163314610cd65760405162461bcd60e51b815260040161096790614a45565b600655565b6060815167ffffffffffffffff811115610cf757610cf76143d3565b604051908082528060200260200182016040528015610d3b57816020015b604080518082019091525f8082526020820152815260200190600190039081610d155790505b5090505f5b8251811015610dd1576040518060400160405280848381518110610d6657610d66614ab5565b60200260200101518152602001600c5f868581518110610d8857610d88614ab5565b602002602001015181526020019081526020015f2054815250828281518110610db357610db3614ab5565b60200260200101819052508080610dc990614adc565b915050610d40565b50919050565b610ddf614281565b600b8281548110610df257610df2614ab5565b5f918252602091829020604080516101c081018252600d9093029091018054835260018101546001600160a01b0316938301939093526002830154908201526003820154606082015260048201546080820152600582015460a0820152600682015460c0820152600782015460e0820152600882015461010080830191909152600983015460ff808216151561012085015291900481161515610140830152600a830154610160830152600b830154161515610180820152600c909101546101a08201529050610ec182611202565b610100820152919050565b60148181548110610edb575f80fd5b5f91825260209091206003909102018054600182015460029092015490925083565b610f05613975565b5f600b8281548110610f1957610f19614ab5565b5f9182526020909120600d90910201600981015490915060ff1615610f6c5760405162461bcd60e51b815260206004820152600960248201526849732061637469766560b81b6044820152606401610967565b60018101546001600160a01b03163314610f985760405162461bcd60e51b815260040161096790614af4565b6009810154610100900460ff16610fdd5760405162461bcd60e51b8152602060048201526009602482015268139bdd081cd85d995960ba1b6044820152606401610967565b80600a015460135410156110035760405162461bcd60e51b815260040161096790614b17565b5f81600a015490508060135f82825461101c9190614aa2565b925050819055508060125f8282546110349190614ac9565b90915550505f838152600c602052604081208054839290611056908490614ac9565b9091555050801561110b5760405163a9059cbb60e01b8152336004820152602481018290527f00000000000000000000000000000000000000000000000000000000000000006001600160a01b03169063a9059cbb906044016020604051808303815f875af11580156110cb573d5f803e3d5ffd5b505050506040513d601f19601f820116820180604052508101906110ef9190614b3b565b61110b5760405162461bcd60e51b815260040161096790614b56565b60098201805461ff00191690555f600a8301556001820154825460408051918252602082018490526001600160a01b03909216917f89944602fcc483994090377f9abd25a68ee71ae7ef66db82411cc0739ab35cd8910160405180910390a2505061117560015f55565b50565b6001546001600160a01b031633146111a25760405162461bcd60e51b815260040161096790614a45565b6111ad838383613f59565b6014546111bc90600190614aa2565b60408051858152602081018590529081018390527f901d51af3f40466612c7be89ba349f0b5aa321186bb4de023367f1ca25acdced9060600160405180910390a2505050565b5f80600b838154811061121757611217614ab5565b5f918252602091829020604080516101c081018252600d9093029091018054835260018101546001600160a01b0316938301939093526002830154908201526003820154606082015260048201546080820152600582015460a0820152600682015460c0820152600782015460e0820152600882015461010080830191909152600983015460ff80821615156101208501529190048116158015610140840152600a840154610160840152600b8401549091161515610180830152600c909201546101a082015291506112ef57610160015192915050565b604081015115806113035750806101200151155b1561131057505f92915050565b60e08101515f61132082826140cf565b905081811161133357505f949350505050565b60408301515f90835b83811015611474575f6014828154811061135857611358614ab5565b905f5260205f2090600302016040518060600160405290815f82015481526020016001820154815260200160028201548152505090505f8761018001516113a7576113a28361411d565b6113ae565b876101a001515b90505f6127106113be8387614b7f565b6113c89190614b96565b90508860600151840361145157825160208401515f6113e78383614aa2565b90505f838d60800151116113fb5783611401565b8c608001515b905082808210611418575050505050505050611462565b5f6114238383614aa2565b9050836114308289614b7f565b61143a9190614b96565b611444908d614ac9565b9b5050505050505061145e565b61145b8187614ac9565b95505b5050505b8061146c81614adc565b91505061133c565b50909695505050505050565b6001546001600160a01b031633146114aa5760405162461bcd60e51b815260040161096790614a45565b84831480156114b857508481145b6114f65760405162461bcd60e51b815260206004820152600f60248201526e098cadccee8d040dad2e6dac2e8c6d608b1b6044820152606401610967565b8461152b5760405162461bcd60e51b8152602060048201526005602482015264456d70747960d81b6044820152606401610967565b5f5b8581101561159a5761158887878381811061154a5761154a614ab5565b9050602002013586868481811061156357611563614ab5565b9050602002013585858581811061157c5761157c614ab5565b90506020020135613f59565b8061159281614adc565b91505061152d565b506014547fab080e234ebab87937f1d48c107ecb8ab6361d9012a0670705e920b9cffe1011906115cb908790614aa2565b6014546115da90600190614aa2565b6040805192835260208301919091520160405180910390a1505050505050565b61167e6040518061022001604052805f81526020015f81526020015f81526020015f81526020015f81526020015f81526020015f60ff16815260200160608152602001606081526020015f6001600160a01b031681526020015f81526020015f81526020015f81526020015f81526020015f81526020015f81526020015f81525090565b60405180610220016040528060078054905081526020016010548152602001600b8054905081526020016011548152602001601254815260200160135481526020017f00000000000000000000000000000000000000000000000000000000000000006001600160a01b031663313ce5676040518163ffffffff1660e01b8152600401602060405180830381865afa15801561171c573d5f803e3d5ffd5b505050506040513d601f19601f820116820180604052508101906117409190614bb5565b60ff1681526020017f00000000000000000000000000000000000000000000000000000000000000006001600160a01b03166306fdde036040518163ffffffff1660e01b81526004015f60405180830381865afa1580156117a3573d5f803e3d5ffd5b505050506040513d5f823e601f3d908101601f191682016040526117ca9190810190614bd5565b81526020017f00000000000000000000000000000000000000000000000000000000000000006001600160a01b03166395d89b416040518163ffffffff1660e01b81526004015f60405180830381865afa15801561182a573d5f803e3d5ffd5b505050506040513d5f823e601f3d908101601f191682016040526118519190810190614bd5565b81526020017f00000000000000000000000000000000000000000000000000000000000000006001600160a01b031681526020016004548152602001600554815260200160065481526020016118a5612a8c565b81526020016118b261323a565b81526020016118bf612d1b565b8152601454602090910152919050565b6060815f036118de57600e5491505b5f6118e98385614ac9565b600e549091508411156118fc5750611b10565b600e5481111561190b5750600e545b6119158482614aa2565b67ffffffffffffffff81111561192d5761192d6143d3565b60405190808252806020026020018201604052801561196657816020015b611953614281565b81526020019060019003908161194b5790505b5091505f5b6119758583614aa2565b811015611b0d57600b600e60018784600e805490506119949190614aa2565b61199e9190614aa2565b6119a89190614aa2565b815481106119b8576119b8614ab5565b905f5260205f200154815481106119d1576119d1614ab5565b5f918252602091829020604080516101c081018252600d9093029091018054835260018101546001600160a01b0316938301939093526002830154908201526003820154606082015260048201546080820152600582015460a0820152600682015460c0820152600782015460e0820152600882015461010080830191909152600983015460ff808216151561012085015291900481161515610140830152600a830154610160830152600b830154161515610180820152600c909101546101a08201528351849083908110611aa957611aa9614ab5565b6020026020010181905250611ad9838281518110611ac957611ac9614ab5565b60200260200101515f0151611202565b838281518110611aeb57611aeb614ab5565b6020908102919091010151610100015280611b0581614adc565b91505061196b565b50505b92915050565b6060815f03611b255760075491505b5f611b308385614ac9565b600754909150841115611b435750611b10565b600754811115611b5257506007545b611b5c8482614aa2565b67ffffffffffffffff811115611b7457611b746143d3565b604051908082528060200260200182016040528015611b9d578160200160208202803683370190505b5091505f5b611bac8583614aa2565b811015611b0d57600780546001908790611bc7908590614aa2565b611bd19190614aa2565b611bdb9190614aa2565b81548110611beb57611beb614ab5565b905f5260205f20015f9054906101000a90046001600160a01b0316838281518110611c1857611c18614ab5565b6001600160a01b039092166020928302919091019091015280611c3a81614adc565b915050611ba2565b6060815f03611c66576001600160a01b0384165f9081526009602052604090205491505b5f611c718385614ac9565b6001600160a01b0386165f90815260096020526040902054909150841115611c995750611edc565b6001600160a01b0385165f90815260096020526040902054811115611cd257506001600160a01b0384165f908152600960205260409020545b611cdc8482614aa2565b67ffffffffffffffff811115611cf457611cf46143d3565b604051908082528060200260200182016040528015611d2d57816020015b611d1a614281565b815260200190600190039081611d125790505b5091505f5b611d3c8583614aa2565b811015611ed9576001600160a01b0386165f9081526009602052604090208054600b91906001908890611d70908690614aa2565b611d7a9190614aa2565b611d849190614aa2565b81548110611d9457611d94614ab5565b905f5260205f20015481548110611dad57611dad614ab5565b5f918252602091829020604080516101c081018252600d9093029091018054835260018101546001600160a01b0316938301939093526002830154908201526003820154606082015260048201546080820152600582015460a0820152600682015460c0820152600782015460e0820152600882015461010080830191909152600983015460ff808216151561012085015291900481161515610140830152600a830154610160830152600b830154161515610180820152600c909101546101a08201528351849083908110611e8557611e85614ab5565b6020026020010181905250611ea5838281518110611ac957611ac9614ab5565b838281518110611eb757611eb7614ab5565b6020908102919091010151610100015280611ed181614adc565b915050611d32565b50505b9392505050565b6001546001600160a01b03163314611f0d5760405162461bcd60e51b815260040161096790614a45565b600555565b6060815f03611f215760145491505b5f611f2c8385614ac9565b601454909150841115611f3f5750611b10565b601454811115611f4e57506014545b611f588482614aa2565b67ffffffffffffffff811115611f7057611f706143d3565b604051908082528060200260200182016040528015611fda57816020015b611fc76040518060e001604052805f81526020015f81526020015f81526020015f81526020015f81526020015f81526020015f81525090565b815260200190600190039081611f8e5790505b5091505f5b611fe98583614aa2565b811015611b0d575f600186836014805490506120059190614aa2565b61200f9190614aa2565b6120199190614aa2565b90506040518060e001604052808281526020016014838154811061203f5761203f614ab5565b905f5260205f2090600302015f015481526020016014838154811061206657612066614ab5565b905f5260205f2090600302016001015481526020016014838154811061208e5761208e614ab5565b5f91825260208083206002600390930201919091015483528482526015815260408083205484830152858352601682528083205481850152858352601790915290205460609091015284518590849081106120eb576120eb614ab5565b602002602001018190525050808061210290614adc565b915050611fdf565b612112613975565b5f600b828154811061212657612126614ab5565b5f9182526020909120600d90910201600981015490915060ff1661215c5760405162461bcd60e51b815260040161096790614c64565b60018101546001600160a01b031633146121885760405162461bcd60e51b815260040161096790614af4565b5f612191612d1b565b905081600601548110156121d05760405162461bcd60e51b8152602060048201526006602482015265131bd8dad95960d21b6044820152606401610967565b5f6121da84611202565b90508060135410156121fe5760405162461bcd60e51b815260040161096790614b17565b5f81846002015461220f9190614ac9565b9050836002015460115f8282546122269190614aa2565b909155505060098401805460ff1916905542600585015560078401545f9061224e90826140cf565b60078601819055600a859055601080549192505f61226b83614c86565b91905055508260135f8282546122819190614aa2565b925050819055508260125f8282546122999190614ac9565b90915550505f868152600c6020526040812080548592906122bb908490614ac9565b909155506122ca90508661415b565b5f84815260176020526040812080548592906122e7908490614ac9565b909155505060405163a9059cbb60e01b8152336004820152602481018390527f00000000000000000000000000000000000000000000000000000000000000006001600160a01b03169063a9059cbb906044016020604051808303815f875af1158015612356573d5f803e3d5ffd5b505050506040513d601f19601f8201168201806040525081019061237a9190614b3b565b6123965760405162461bcd60e51b815260040161096790614b56565b604080518781526020810184905233917f217ea3989b9d3112d2133a930216f444b7fbcaeaa4d5bc0220d099fdc928e71e910160405180910390a2505050505061117560015f55565b6123e7613975565b5f600b82815481106123fb576123fb614ab5565b5f9182526020909120600d90910201600981015490915060ff166124315760405162461bcd60e51b815260040161096790614c64565b60018101546001600160a01b0316331461245d5760405162461bcd60e51b815260040161096790614af4565b5f612466612d1b565b905081600601548110156124a55760405162461bcd60e51b8152602060048201526006602482015265131bd8dad95960d21b6044820152606401610967565b5f6124af84611202565b9050826002015460115f8282546124c69190614aa2565b909155505060098301805461ffff1916610100179055600a80840182905542600585015582905560108054905f6124fc83614c86565b919050555061250a8461415b565b5f8281526017602052604081208054839290612527908490614ac9565b925050819055508060125f82825461253f9190614ac9565b90915550506001830154600284015460405163a9059cbb60e01b81526001600160a01b03928316600482015260248101919091527f00000000000000000000000000000000000000000000000000000000000000009091169063a9059cbb906044016020604051808303815f875af11580156125bd573d5f803e3d5ffd5b505050506040513d601f19601f820116820180604052508101906125e19190614b3b565b6125fd5760405162461bcd60e51b815260040161096790614b56565b60018301548354600285015460408051928352602083019190915281018390526001600160a01b03909116907f2bb9e1005bd12abff0a36b08286208299f11bac0718c4590fd6f4eabd7667cf9906060015b60405180910390a250505061117560015f55565b5f84158061266f575082155b8061267c57506014548410155b1561268857505f6127fe565b5f6126938486614ac9565b6014549091508111156126b457506014548481116126b4575f9150506127fe565b825f036126bf574292505b805f865b828110156127f8576014548110156127f8575f601482815481106126e9576126e9614ab5565b905f5260205f2090600302016040518060600160405290815f82015481526020016001820154815260200160028201548152505090505f6127298361411d565b90505f612710612739838e614b7f565b6127439190614b96565b90508a84036127d557825160208401515f61275e8383614aa2565b90505f838d1161276e5783612770565b8c5b9050828082106127875750505050505050506127e6565b5f6127928383614aa2565b9050835f036127a9575050505050505050506127e6565b836127b48289614b7f565b6127be9190614b96565b6127c8908c614ac9565b9a505050505050506127e2565b6127df8186614ac9565b94505b5050505b806127f081614adc565b9150506126c3565b50925050505b949350505050565b61280e613975565b6001546001600160a01b031633146128385760405162461bcd60e51b815260040161096790614a45565b5f600b828154811061284c5761284c614ab5565b5f9182526020909120600d90910201600981015490915060ff166128a55760405162461bcd60e51b815260206004820152601060248201526f4465706f73697420696e61637469766560801b6044820152606401610967565b80545f908152600d602052604090205460ff166129045760405162461bcd60e51b815260206004820152601f60248201527f43616e206f6e6c792063616e63656c206f7261636c65206465706f73697473006044820152606401610967565b60098101805460ff1916905560108054905f61291f83614c86565b9190505550806002015460115f8282546129399190614aa2565b9091555050600281015460405163a9059cbb60e01b815233600482015260248101919091527f00000000000000000000000000000000000000000000000000000000000000006001600160a01b03169063a9059cbb906044016020604051808303815f875af11580156129ae573d5f803e3d5ffd5b505050506040513d601f19601f820116820180604052508101906129d29190614b3b565b6129ee5760405162461bcd60e51b815260040161096790614b56565b8054600282015460405133927f24c9e122007bd4087408943168fbcd65248594530e482b6a9abe4484767eb0c392612a2e92918252602082015260400190565b60405180910390a25061117560015f55565b6001546001600160a01b03163314612a6a5760405162461bcd60e51b815260040161096790614a45565b600280546001600160a01b0319166001600160a01b0392909216919091179055565b5f80600454905061271081601154612aa49190614b7f565b612aae9190614b96565b91505090565b600e8181548110612ac3575f80fd5b5f91825260209091200154905081565b6001546001600160a01b0316331480612af657506003546001600160a01b031633145b80612b0b57506003546001600160a01b031632145b612b575760405162461bcd60e51b815260206004820152601960248201527f4f6e6c79206f776e6572206f72207374616b65206f72636c65000000000000006044820152606401610967565b6040516323b872dd60e01b8152336004820152306024820152604481018290527f00000000000000000000000000000000000000000000000000000000000000006001600160a01b0316906323b872dd906064016020604051808303815f875af1158015612bc7573d5f803e3d5ffd5b505050506040513d601f19601f82011682018060405250810190612beb9190614b3b565b612c075760405162461bcd60e51b815260040161096790614c9b565b8060135f828254612c189190614ac9565b909155505050565b6001546001600160a01b03163314612c4a5760405162461bcd60e51b815260040161096790614a45565b600380546001600160a01b0319166001600160a01b0392909216919091179055565b6001546001600160a01b03163314612c965760405162461bcd60e51b815260040161096790614a45565b612710811115612cb85760405162461bcd60e51b815260040161096790614a69565b60048190556040518181527f71ca8c1a2bc00717637fb3e9d048da574b351106cfcf0832e2dfe20f4e633dcf9060200160405180910390a150565b60078181548110612d02575f80fd5b5f918252602090912001546001600160a01b0316905081565b600a545f9042905b601454811015612d9c5760148181548110612d4057612d40614ab5565b905f5260205f2090600302015f01548210158015612d7f575060148181548110612d6c57612d6c614ab5565b905f5260205f2090600302016001015482105b15612d8a5792915050565b80612d9481614adc565b915050612d23565b5050601454919050565b6001546001600160a01b03163314612dd05760405162461bcd60e51b815260040161096790614a45565b601454612e085760405162461bcd60e51b8152600401610967906020808252600490820152634e6f6e6560e01b604082015260600190565b60148054429190612e1b90600190614aa2565b81548110612e2b57612e2b614ab5565b905f5260205f2090600302015f015411612e715760405162461bcd60e51b815260206004820152600760248201526614dd185c9d195960ca1b6044820152606401610967565b6014805480612e8257612e82614cb7565b5f8281526020812060035f1990930192830201818155600181018290556002015590556014546040517fd84ba012185e6b11c267bbf53304405446699fded2a2a85c6c6523d2cd3fd79091612eda9190815260200190565b60405180910390a1565b600b8181548110612ef3575f80fd5b5f9182526020909120600d9091020180546001820154600283015460038401546004850154600586015460068701546007880154600889015460098a0154600a8b0154600b8c0154600c909c01549a9c506001600160a01b039099169a979996989597949693959294919360ff8083169461010090930481169316908e565b612f7a613975565b612f883383835f805f61399d565b612f9160015f55565b5050565b6001546001600160a01b03163314612fbf5760405162461bcd60e51b815260040161096790614a45565b7f00000000000000000000000000000000000000000000000000000000000000006001600160a01b0316826001600160a01b0316036130105760405162461bcd60e51b815260040161096790614c9b565b60015460405163a9059cbb60e01b81526001600160a01b039182166004820152602481018390529083169063a9059cbb906044016020604051808303815f875af1158015613060573d5f803e3d5ffd5b505050506040513d601f19601f820116820180604052508101906130849190614b3b565b612f915760405162461bcd60e51b8152602060048201526002602482015261229960f11b6044820152606401610967565b6001546001600160a01b031633146130df5760405162461bcd60e51b815260040161096790614a45565b8060135410156131015760405162461bcd60e51b815260040161096790614c9b565b60405163a9059cbb60e01b8152336004820152602481018290527f00000000000000000000000000000000000000000000000000000000000000006001600160a01b03169063a9059cbb906044016020604051808303815f875af115801561316b573d5f803e3d5ffd5b505050506040513d601f19601f8201168201806040525081019061318f9190614b3b565b6131c05760405162461bcd60e51b8152602060048201526002602482015261229960f11b6044820152606401610967565b8060135f828254612c189190614aa2565b6001600160a01b0381165f9081526009602090815260409182902080548351818402810184019094528084526060939283018282801561322e57602002820191905f5260205f20905b81548152602001906001019080831161321a575b50505050509050919050565b5f80613244612d1b565b6014549091508110613257575f91505090565b5f6132618261411d565b9050612710816011546132749190614b7f565b61327e9190614b96565b9250505090565b6060815f0361329457600b5491505b5f61329f8385614ac9565b600b549091508411156132b25750611b10565b600b548111156132c15750600b545b6132cb8482614aa2565b67ffffffffffffffff8111156132e3576132e36143d3565b60405190808252806020026020018201604052801561331c57816020015b613309614281565b8152602001906001900390816133015790505b5091505f5b61332b8583614aa2565b811015611b0d57600b80546001908790613346908590614aa2565b6133509190614aa2565b61335a9190614aa2565b8154811061336a5761336a614ab5565b5f918252602091829020604080516101c081018252600d9093029091018054835260018101546001600160a01b0316938301939093526002830154908201526003820154606082015260048201546080820152600582015460a0820152600682015460c0820152600782015460e0820152600882015461010080830191909152600983015460ff808216151561012085015291900481161515610140830152600a830154610160830152600b830154161515610180820152600c909101546101a0820152835184908390811061344257613442614ab5565b6020026020010181905250613462838281518110611ac957611ac9614ab5565b83828151811061347457613474614ab5565b602090810291909101015161010001528061348e81614adc565b915050613321565b61349e613975565b5f600b82815481106134b2576134b2614ab5565b5f9182526020909120600d90910201600981015490915060ff166134e85760405162461bcd60e51b815260040161096790614c64565b60018101546001600160a01b031633146135145760405162461bcd60e51b815260040161096790614af4565b5f61351e83611202565b90505f811161355c5760405162461bcd60e51b815260206004820152600a6024820152694e6f207265776172647360b01b6044820152606401610967565b80601354101561357e5760405162461bcd60e51b815260040161096790614b17565b5f61358d83600701545f6140cf565b90508083600701819055508160135f8282546135a99190614aa2565b925050819055508160125f8282546135c19190614ac9565b90915550505f848152600c6020526040812080548492906135e3908490614ac9565b90915550505f8181526017602052604081208054849290613605908490614ac9565b909155505060405163a9059cbb60e01b8152336004820152602481018390527f00000000000000000000000000000000000000000000000000000000000000006001600160a01b03169063a9059cbb906044016020604051808303815f875af1158015613674573d5f803e3d5ffd5b505050506040513d601f19601f820116820180604052508101906136989190614b3b565b6136b45760405162461bcd60e51b815260040161096790614b56565b6136bc612d1b565b600a55604080518581526020810184905233917ffa73d3ab3a92ed3f2b694757d8e4b2f3c293654b11b9c79111f8971f861b22b2910161264f565b5f831580613703575082155b1561370f57505f611edc565b815f0361371a574291505b5f61372483614205565b6014549091508110613739575f915050611edc565b5f6137448583614ac9565b60145490915081111561375657506014545b818111613767575f92505050611edc565b5f825b82811015613898575f6014828154811061378657613786614ab5565b905f5260205f2090600302016040518060600160405290815f82015481526020016001820154815260200160028201548152505090505f6137c68361411d565b90505f6127106137d6838d614b7f565b6137e09190614b96565b90508684036138755782515f908a116137fa5783516137fc565b895b6020850151909150808210613815575050505050613886565b5f6138208383614aa2565b90505f865f015187602001516138369190614aa2565b9050805f0361384b5750505050505050613886565b806138568387614b7f565b6138609190614b96565b61386a908a614ac9565b985050505050613882565b61387f8186614ac9565b94505b5050505b8061389081614adc565b91505061376a565b509695505050505050565b606060078054806020026020016040519081016040528092919081815260200182805480156138f957602002820191905f5260205f20905b81546001600160a01b031681526001909101906020018083116138db575b5050505050905090565b6001546001600160a01b0316331461392d5760405162461bcd60e51b815260040161096790614a45565b6001600160a01b0381166139535760405162461bcd60e51b815260040161096790614c9b565b600180546001600160a01b0319166001600160a01b0392909216919091179055565b60025f540361399757604051633ee5aeb560e01b815260040160405180910390fd5b60025f55565b6006548510156139dc5760405162461bcd60e51b815260206004820152600a602482015269135a5b88185b5bdd5b9d60b21b6044820152606401610967565b600554841015613a245760405162461bcd60e51b81526020600482015260136024820152722637b1b59036bab9ba1031329033b932b0b2b960691b6044820152606401610967565b601454613a5f5760405162461bcd60e51b81526020600482015260096024820152684e6f206d6f6e74687360b81b6044820152606401610967565b5f613a68612d1b565b6014549091508110613aaf5760405162461bcd60e51b815260206004820152601060248201526f151a5b59481b9bdd0818dbdd995c995960821b6044820152606401610967565b5f613aba8683614ac9565b601454909150811115613b1d5760405162461bcd60e51b815260206004820152602560248201527f4c6f636b20706572696f64206578636565647320636f6e66696775726564206d6044820152646f6e74687360d81b6064820152608401610967565b6040516323b872dd60e01b8152336004820152306024820152604481018890527f00000000000000000000000000000000000000000000000000000000000000006001600160a01b0316906323b872dd906064016020604051808303815f875af1158015613b8d573d5f803e3d5ffd5b505050506040513d601f19601f82011682018060405250810190613bb19190614b3b565b613bcd5760405162461bcd60e51b815260040161096790614b56565b6001600160a01b0388165f9081526008602052604090205460ff16613c51576001600160a01b0388165f818152600860205260408120805460ff191660019081179091556007805491820181559091527fa66cc928b5edb82af9bd49922954155ab7b0942694bea4ce44661d9a8736c6880180546001600160a01b03191690911790555b600b604051806101c00160405280600b8054905081526020018a6001600160a01b031681526020018981526020018481526020014281526020015f81526020018381526020018481526020015f81526020016001151581526020015f151581526020015f8152602001871515815260200186815250908060018154018082558091505060019003905f5260205f2090600d02015f909190919091505f820151815f01556020820151816001015f6101000a8154816001600160a01b0302191690836001600160a01b0316021790555060408201518160020155606082015181600301556080820151816004015560a0820151816005015560c0820151816006015560e082015181600701556101008201518160080155610120820151816009015f6101000a81548160ff0219169083151502179055506101408201518160090160016101000a81548160ff02191690831515021790555061016082015181600a015561018082015181600b015f6101000a81548160ff0219169083151502179055506101a082015181600c015550505f6001600b80549050613df39190614aa2565b5f818152600d60209081526040808320805460ff19168915151790556001600160a01b038d168352600982528220805460018101825590835290822001829055600a859055601180549293508a92909190613e4f908490614ac9565b909155505060108054905f613e6383614adc565b9091555050600e8054600181810183555f8390527fbb7b4a454dc3493923482f07822329ed19e8244eff582cc204f8554c3620c3fd9091018390559054613eaa9190614aa2565b5f828152600f602090815260408083209390935585825260159052908120805491613ed483614adc565b90915550505f83815260166020526040812080548a9290613ef6908490614ac9565b909155505060408051828152602081018a9052908101889052606081018390526001600160a01b038a16907f554f20505671494900b631b0e443e9e7a59743ec9889b05e28d8ac9ea158266b9060800160405180910390a2505050505050505050565b818310613f985760405162461bcd60e51b815260206004820152600d60248201526c496e76616c69642072616e676560981b6044820152606401610967565b8015613fc057612710811115613fc05760405162461bcd60e51b815260040161096790614a69565b6014541561402d5760148054613fd890600190614aa2565b81548110613fe857613fe8614ab5565b905f5260205f2090600302016001015483101561402d5760405162461bcd60e51b815260206004820152600360248201526253657160e81b6044820152606401610967565b60408051606081018252938452602084019283528301908152601480546001810182555f9190915292517fce6d7b5282bd9a3661ae061feed1dbda4e52ab073b1f9285be6e155d9c38d4ec60039094029384015590517fce6d7b5282bd9a3661ae061feed1dbda4e52ab073b1f9285be6e155d9c38d4ed830155517fce6d7b5282bd9a3661ae061feed1dbda4e52ab073b1f9285be6e155d9c38d4ee90910155565b5f815f036140db574291505b825b60145481108015614110575082601482815481106140fd576140fd614ab5565b905f5260205f2090600302016001015411155b15611edc576001016140dd565b5f806014838154811061413257614132614ab5565b905f5260205f209060030201600201549050805f146141515780611edc565b6004549392505050565b5f818152600f6020526040812054600e805491929161417c90600190614aa2565b8154811061418c5761418c614ab5565b905f5260205f200154905080600e83815481106141ab576141ab614ab5565b5f918252602080832090910192909255828152600f90915260409020829055600e8054806141db576141db614cb7565b5f828152602080822083015f19908101839055909201909255938152600f90935250506040812055565b5f805b601454811015612d9c576014818154811061422557614225614ab5565b905f5260205f2090600302015f0154831015801561426457506014818154811061425157614251614ab5565b905f5260205f2090600302016001015483105b1561426f5792915050565b8061427981614adc565b915050614208565b604051806101c001604052805f81526020015f6001600160a01b031681526020015f81526020015f81526020015f81526020015f81526020015f81526020015f81526020015f81526020015f151581526020015f151581526020015f81526020015f151581526020015f81525090565b5f805f8060808587031215614304575f80fd5b5050823594602084013594506040840135936060013592509050565b80356001600160a01b0381168114614336575f80fd5b919050565b8015158114611175575f80fd5b5f805f805f60a0868803121561435c575f80fd5b61436586614320565b9450602086013593506040860135925060608601356143838161433b565b949793965091946080013592915050565b5f80604083850312156143a5575f80fd5b6143ae83614320565b946020939093013593505050565b5f602082840312156143cc575f80fd5b5035919050565b634e487b7160e01b5f52604160045260245ffd5b604051601f8201601f1916810167ffffffffffffffff81118282101715614410576144106143d3565b604052919050565b5f6020808385031215614429575f80fd5b823567ffffffffffffffff80821115614440575f80fd5b818501915085601f830112614453575f80fd5b813581811115614465576144656143d3565b8060051b91506144768483016143e7565b818152918301840191848101908884111561448f575f80fd5b938501935b838510156144ad57843582529385019390850190614494565b98975050505050505050565b602080825282518282018190525f919060409081850190868401855b828110156144fa578151805185528601518685015292840192908501906001016144d5565b5091979650505050505050565b80518252602081015161452560208401826001600160a01b03169052565b5060408101516040830152606081015160608301526080810151608083015260a081015160a083015260c081015160c083015260e081015160e0830152610100808201518184015250610120808201516145828285018215159052565b5050610140818101511515908301526101608082015190830152610180808201511515908301526101a090810151910152565b6101c08101611b108284614507565b5f805f606084860312156145d6575f80fd5b505081359360208301359350604090920135919050565b5f8083601f8401126145fd575f80fd5b50813567ffffffffffffffff811115614614575f80fd5b6020830191508360208260051b850101111561462e575f80fd5b9250929050565b5f805f805f806060878903121561464a575f80fd5b863567ffffffffffffffff80821115614661575f80fd5b61466d8a838b016145ed565b90985096506020890135915080821115614685575f80fd5b6146918a838b016145ed565b909650945060408901359150808211156146a9575f80fd5b506146b689828a016145ed565b979a9699509497509295939492505050565b5f5b838110156146e25781810151838201526020016146ca565b50505f910152565b5f81518084526147018160208601602086016146c8565b601f01601f19169290920160200192915050565b6020815281516020820152602082015160408201526040820151606082015260608201516080820152608082015160a082015260a082015160c08201525f60c083015161476760e084018260ff169052565b5060e083015161022061010081818601526147866102408601846146ea565b9250808601519050610120601f1986850301818701526147a684836146ea565b9350808701519150506101406147c6818701836001600160a01b03169052565b86015161016086810191909152860151610180808701919091528601516101a0808701919091528601516101c0808701919091528601516101e080870191909152860151610200808701919091529095015193019290925250919050565b5f8060408385031215614835575f80fd5b50508035926020909101359150565b602080825282518282018190525f9190848201906040850190845b8181101561147457614872838551614507565b928401926101c0929092019160010161485f565b5f60208284031215614896575f80fd5b611edc82614320565b602080825282518282018190525f9190848201906040850190845b818110156114745783516001600160a01b0316835292840192918401916001016148ba565b5f805f606084860312156148f1575f80fd5b6148fa84614320565b95602085013595506040909401359392505050565b602080825282518282018190525f919060409081850190868401855b828110156144fa5781518051855286810151878601528581015186860152606080820151908601526080808201519086015260a0808201519086015260c0908101519085015260e0909301929085019060010161492b565b8e81526001600160a01b038e166020820152604081018d9052606081018c9052608081018b905260a081018a905260c0810189905260e0810188905261010081018790528515156101208201528415156101408201526101c08101846101608301526149f461018083018515159052565b826101a08301529f9e505050505050505050505050505050565b602080825282518282018190525f9190848201906040850190845b8181101561147457835183529284019291840191600101614a29565b6020808252600a908201526927b7363c9037bbb732b960b11b604082015260600190565b6020808252600b908201526a52617465203e203130302560a81b604082015260600190565b634e487b7160e01b5f52601160045260245ffd5b81810381811115611b1057611b10614a8e565b634e487b7160e01b5f52603260045260245ffd5b80820180821115611b1057611b10614a8e565b5f60018201614aed57614aed614a8e565b5060010190565b6020808252600990820152682737ba1037bbb732b960b91b604082015260600190565b6020808252600a9082015269456d7074792062616e6b60b01b604082015260600190565b5f60208284031215614b4b575f80fd5b8151611edc8161433b565b6020808252600f908201526e151c985b9cd9995c8819985a5b1959608a1b604082015260600190565b8082028115828204841417611b1057611b10614a8e565b5f82614bb057634e487b7160e01b5f52601260045260245ffd5b500490565b5f60208284031215614bc5575f80fd5b815160ff81168114611edc575f80fd5b5f60208284031215614be5575f80fd5b815167ffffffffffffffff80821115614bfc575f80fd5b818401915084601f830112614c0f575f80fd5b815181811115614c2157614c216143d3565b614c34601f8201601f19166020016143e7565b9150808252856020828501011115614c4a575f80fd5b614c5b8160208401602086016146c8565b50949350505050565b602080825260089082015267496e61637469766560c01b604082015260600190565b5f81614c9457614c94614a8e565b505f190190565b602080825260029082015261453160f01b604082015260600190565b634e487b7160e01b5f52603160045260245ffdfea26469706673582212206a2ae7925a1cb7a79ffca2162e1a3f0f93246de9a53227a0ef2c44f896df3e4664736f6c63430008140033",
			"opcodes": "PUSH1 0xA0 PUSH1 0x40 MSTORE PUSH1 0x1 PUSH1 0x5 SSTORE PUSH8 0xDE0B6B3A7640000 PUSH1 0x6 SSTORE PUSH0 PUSH1 0xA SSTORE CALLVALUE DUP1 ISZERO PUSH3 0x25 JUMPI PUSH0 DUP1 REVERT JUMPDEST POP PUSH1 0x40 MLOAD PUSH3 0x4EC0 CODESIZE SUB DUP1 PUSH3 0x4EC0 DUP4 CODECOPY DUP2 ADD PUSH1 0x40 DUP2 SWAP1 MSTORE PUSH3 0x48 SWAP2 PUSH3 0x112 JUMP JUMPDEST PUSH1 0x1 PUSH0 SSTORE PUSH1 0x1 PUSH1 0x1 PUSH1 0xA0 SHL SUB DUP3 AND PUSH3 0x96 JUMPI PUSH1 0x40 MLOAD PUSH3 0x461BCD PUSH1 0xE5 SHL DUP2 MSTORE PUSH1 0x20 PUSH1 0x4 DUP3 ADD MSTORE PUSH1 0xB PUSH1 0x24 DUP3 ADD MSTORE PUSH11 0x546F6B656E3A207A65726F PUSH1 0xA8 SHL PUSH1 0x44 DUP3 ADD MSTORE PUSH1 0x64 ADD JUMPDEST PUSH1 0x40 MLOAD DUP1 SWAP2 SUB SWAP1 REVERT JUMPDEST PUSH2 0x2710 DUP2 GT ISZERO PUSH3 0xD8 JUMPI PUSH1 0x40 MLOAD PUSH3 0x461BCD PUSH1 0xE5 SHL DUP2 MSTORE PUSH1 0x20 PUSH1 0x4 DUP3 ADD MSTORE PUSH1 0xB PUSH1 0x24 DUP3 ADD MSTORE PUSH11 0x52617465203E2031303025 PUSH1 0xA8 SHL PUSH1 0x44 DUP3 ADD MSTORE PUSH1 0x64 ADD PUSH3 0x8D JUMP JUMPDEST PUSH1 0x1 DUP1 SLOAD CALLER PUSH1 0x1 PUSH1 0x1 PUSH1 0xA0 SHL SUB NOT SWAP2 DUP3 AND DUP2 OR SWAP1 SWAP3 SSTORE PUSH1 0x2 DUP1 SLOAD SWAP1 SWAP2 AND SWAP1 SWAP2 OR SWAP1 SSTORE PUSH1 0x1 PUSH1 0x1 PUSH1 0xA0 SHL SUB SWAP2 SWAP1 SWAP2 AND PUSH1 0x80 MSTORE PUSH1 0x4 SSTORE PUSH3 0x14B JUMP JUMPDEST PUSH0 DUP1 PUSH1 0x40 DUP4 DUP6 SUB SLT ISZERO PUSH3 0x124 JUMPI PUSH0 DUP1 REVERT JUMPDEST DUP3 MLOAD PUSH1 0x1 PUSH1 0x1 PUSH1 0xA0 SHL SUB DUP2 AND DUP2 EQ PUSH3 0x13B JUMPI PUSH0 DUP1 REVERT JUMPDEST PUSH1 0x20 SWAP4 SWAP1 SWAP4 ADD MLOAD SWAP3 SWAP5 SWAP3 SWAP4 POP POP POP JUMP JUMPDEST PUSH1 0x80 MLOAD PUSH2 0x4D01 PUSH3 0x1BF PUSH0 CODECOPY PUSH0 DUP2 DUP2 PUSH2 0x6CB ADD MSTORE DUP2 DUP2 PUSH2 0x107D ADD MSTORE DUP2 DUP2 PUSH2 0x16C2 ADD MSTORE DUP2 DUP2 PUSH2 0x174A ADD MSTORE DUP2 DUP2 PUSH2 0x17D1 ADD MSTORE DUP2 DUP2 PUSH2 0x1858 ADD MSTORE DUP2 DUP2 PUSH2 0x2308 ADD MSTORE DUP2 DUP2 PUSH2 0x2575 ADD MSTORE DUP2 DUP2 PUSH2 0x2960 ADD MSTORE DUP2 DUP2 PUSH2 0x2B79 ADD MSTORE DUP2 DUP2 PUSH2 0x2FC1 ADD MSTORE DUP2 DUP2 PUSH2 0x311D ADD MSTORE DUP2 DUP2 PUSH2 0x3626 ADD MSTORE PUSH2 0x3B3F ADD MSTORE PUSH2 0x4D01 PUSH0 RETURN INVALID PUSH1 0x80 PUSH1 0x40 MSTORE CALLVALUE DUP1 ISZERO PUSH2 0xF JUMPI PUSH0 DUP1 REVERT JUMPDEST POP PUSH1 0x4 CALLDATASIZE LT PUSH2 0x3D4 JUMPI PUSH0 CALLDATALOAD PUSH1 0xE0 SHR DUP1 PUSH4 0x7DC0D1D0 GT PUSH2 0x200 JUMPI DUP1 PUSH4 0xB29A8140 GT PUSH2 0x11F JUMPI DUP1 PUSH4 0xD3D83445 GT PUSH2 0xB4 JUMPI DUP1 PUSH4 0xE2842D79 GT PUSH2 0x84 JUMPI DUP1 PUSH4 0xE2842D79 EQ PUSH2 0x907 JUMPI DUP1 PUSH4 0xF2FDE38B EQ PUSH2 0x90F JUMPI DUP1 PUSH4 0xF4F8C847 EQ PUSH2 0x922 JUMPI DUP1 PUSH4 0xF8799E1A EQ PUSH2 0x92B JUMPI DUP1 PUSH4 0xFE4AB90A EQ PUSH2 0x934 JUMPI PUSH0 DUP1 REVERT JUMPDEST DUP1 PUSH4 0xD3D83445 EQ PUSH2 0x8B1 JUMPI DUP1 PUSH4 0xD6A13301 EQ PUSH2 0x8C4 JUMPI DUP1 PUSH4 0xD7D43C78 EQ PUSH2 0x8EC JUMPI DUP1 PUSH4 0xDD4824A8 EQ PUSH2 0x8F4 JUMPI PUSH0 DUP1 REVERT JUMPDEST DUP1 PUSH4 0xCCAAC244 GT PUSH2 0xEF JUMPI DUP1 PUSH4 0xCCAAC244 EQ PUSH2 0x86E JUMPI DUP1 PUSH4 0xCCBD0007 EQ PUSH2 0x88D JUMPI DUP1 PUSH4 0xD188E3AE EQ PUSH2 0x896 JUMPI DUP1 PUSH4 0xD3752830 EQ PUSH2 0x89E JUMPI PUSH0 DUP1 REVERT JUMPDEST DUP1 PUSH4 0xB29A8140 EQ PUSH2 0x81F JUMPI DUP1 PUSH4 0xB42A275E EQ PUSH2 0x832 JUMPI DUP1 PUSH4 0xBE2FF4A9 EQ PUSH2 0x83B JUMPI DUP1 PUSH4 0xC491EECD EQ PUSH2 0x84E JUMPI PUSH0 DUP1 REVERT JUMPDEST DUP1 PUSH4 0x9BE572F6 GT PUSH2 0x195 JUMPI DUP1 PUSH4 0xA5C62CB4 GT PUSH2 0x165 JUMPI DUP1 PUSH4 0xA5C62CB4 EQ PUSH2 0x7CF JUMPI DUP1 PUSH4 0xA9783CD7 EQ PUSH2 0x7D7 JUMPI DUP1 PUSH4 0xB02C43D0 EQ PUSH2 0x7DF JUMPI DUP1 PUSH4 0xB18E71F2 EQ PUSH2 0x80C JUMPI PUSH0 DUP1 REVERT JUMPDEST DUP1 PUSH4 0x9BE572F6 EQ PUSH2 0x795 JUMPI DUP1 PUSH4 0x9D13FA01 EQ PUSH2 0x79D JUMPI DUP1 PUSH4 0xA2BDEDF4 EQ PUSH2 0x7BC JUMPI DUP1 PUSH4 0xA4A1E263 EQ PUSH2 0x795 JUMPI PUSH0 DUP1 REVERT JUMPDEST DUP1 PUSH4 0x91BA50CD GT PUSH2 0x1D0 JUMPI DUP1 PUSH4 0x91BA50CD EQ PUSH2 0x754 JUMPI DUP1 PUSH4 0x936D4FFA EQ PUSH2 0x767 JUMPI DUP1 PUSH4 0x94C92F6D EQ PUSH2 0x76F JUMPI DUP1 PUSH4 0x9521ABC6 EQ PUSH2 0x782 JUMPI PUSH0 DUP1 REVERT JUMPDEST DUP1 PUSH4 0x7DC0D1D0 EQ PUSH2 0x713 JUMPI DUP1 PUSH4 0x8C90926F EQ PUSH2 0x726 JUMPI DUP1 PUSH4 0x8DA5CB5B EQ PUSH2 0x72E JUMPI DUP1 PUSH4 0x90693CA7 EQ PUSH2 0x741 JUMPI PUSH0 DUP1 REVERT JUMPDEST DUP1 PUSH4 0x23E0CEB2 GT PUSH2 0x2F7 JUMPI DUP1 PUSH4 0x4698B883 GT PUSH2 0x28C JUMPI DUP1 PUSH4 0x647FC56C GT PUSH2 0x25C JUMPI DUP1 PUSH4 0x647FC56C EQ PUSH2 0x6A0 JUMPI DUP1 PUSH4 0x7196D3E2 EQ PUSH2 0x6B3 JUMPI DUP1 PUSH4 0x72F702F3 EQ PUSH2 0x6C6 JUMPI DUP1 PUSH4 0x72FADA5C EQ PUSH2 0x6ED JUMPI DUP1 PUSH4 0x7ADBF973 EQ PUSH2 0x700 JUMPI PUSH0 DUP1 REVERT JUMPDEST DUP1 PUSH4 0x4698B883 EQ PUSH2 0x647 JUMPI DUP1 PUSH4 0x4B4D7AA8 EQ PUSH2 0x65A JUMPI DUP1 PUSH4 0x4EFF3D3D EQ PUSH2 0x66D JUMPI DUP1 PUSH4 0x6241CA79 EQ PUSH2 0x68D JUMPI PUSH0 DUP1 REVERT JUMPDEST DUP1 PUSH4 0x4106EE75 GT PUSH2 0x2C7 JUMPI DUP1 PUSH4 0x4106EE75 EQ PUSH2 0x5C6 JUMPI DUP1 PUSH4 0x41AFF23E EQ PUSH2 0x5E6 JUMPI DUP1 PUSH4 0x4209FFF1 EQ PUSH2 0x605 JUMPI DUP1 PUSH4 0x45982A66 EQ PUSH2 0x627 JUMPI PUSH0 DUP1 REVERT JUMPDEST DUP1 PUSH4 0x23E0CEB2 EQ PUSH2 0x56C JUMPI DUP1 PUSH4 0x2E0E3064 EQ PUSH2 0x58B JUMPI DUP1 PUSH4 0x2FFB3D2A EQ PUSH2 0x59E JUMPI DUP1 PUSH4 0x36261236 EQ PUSH2 0x5B1 JUMPI PUSH0 DUP1 REVERT JUMPDEST DUP1 PUSH4 0x168A4822 GT PUSH2 0x36D JUMPI DUP1 PUSH4 0x1D0205B8 GT PUSH2 0x33D JUMPI DUP1 PUSH4 0x1D0205B8 EQ PUSH2 0x4F9 JUMPI DUP1 PUSH4 0x1FB3BD93 EQ PUSH2 0x527 JUMPI DUP1 PUSH4 0x2290D577 EQ PUSH2 0x53A JUMPI DUP1 PUSH4 0x23B28A54 EQ PUSH2 0x559 JUMPI PUSH0 DUP1 REVERT JUMPDEST DUP1 PUSH4 0x168A4822 EQ PUSH2 0x496 JUMPI DUP1 PUSH4 0x1BFC7761 EQ PUSH2 0x49E JUMPI DUP1 PUSH4 0x1C5DC54C EQ PUSH2 0x4BE JUMPI DUP1 PUSH4 0x1CC39D57 EQ PUSH2 0x4C7 JUMPI PUSH0 DUP1 REVERT JUMPDEST DUP1 PUSH4 0x8F43333 GT PUSH2 0x3A8 JUMPI DUP1 PUSH4 0x8F43333 EQ PUSH2 0x425 JUMPI DUP1 PUSH4 0xF68AE40 EQ PUSH2 0x438 JUMPI DUP1 PUSH4 0x10AEF812 EQ PUSH2 0x44B JUMPI DUP1 PUSH4 0x137760E4 EQ PUSH2 0x46B JUMPI PUSH0 DUP1 REVERT JUMPDEST DUP1 PUSH3 0xD6386 EQ PUSH2 0x3D8 JUMPI DUP1 PUSH4 0x5A163B6 EQ PUSH2 0x3F4 JUMPI DUP1 PUSH4 0x6F960BB EQ PUSH2 0x409 JUMPI DUP1 PUSH4 0x8804275 EQ PUSH2 0x41C JUMPI JUMPDEST PUSH0 DUP1 REVERT JUMPDEST PUSH2 0x3E1 PUSH1 0xA SLOAD DUP2 JUMP JUMPDEST PUSH1 0x40 MLOAD SWAP1 DUP2 MSTORE PUSH1 0x20 ADD JUMPDEST PUSH1 0x40 MLOAD DUP1 SWAP2 SUB SWAP1 RETURN JUMPDEST PUSH2 0x407 PUSH2 0x402 CALLDATASIZE PUSH1 0x4 PUSH2 0x42F1 JUMP JUMPDEST PUSH2 0x93D JUMP JUMPDEST STOP JUMPDEST PUSH2 0x407 PUSH2 0x417 CALLDATASIZE PUSH1 0x4 PUSH2 0x4348 JUMP JUMPDEST PUSH2 0xBCC JUMP JUMPDEST PUSH2 0x3E1 PUSH1 0x6 SLOAD DUP2 JUMP JUMPDEST PUSH2 0x3E1 PUSH2 0x433 CALLDATASIZE PUSH1 0x4 PUSH2 0x4394 JUMP JUMPDEST PUSH2 0xC81 JUMP JUMPDEST PUSH2 0x407 PUSH2 0x446 CALLDATASIZE PUSH1 0x4 PUSH2 0x43BC JUMP JUMPDEST PUSH2 0xCAC JUMP JUMPDEST PUSH2 0x45E PUSH2 0x459 CALLDATASIZE PUSH1 0x4 PUSH2 0x4418 JUMP JUMPDEST PUSH2 0xCDB JUMP JUMPDEST PUSH1 0x40 MLOAD PUSH2 0x3EB SWAP2 SWAP1 PUSH2 0x44B9 JUMP JUMPDEST PUSH1 0x3 SLOAD PUSH2 0x47E SWAP1 PUSH1 0x1 PUSH1 0x1 PUSH1 0xA0 SHL SUB AND DUP2 JUMP JUMPDEST PUSH1 0x40 MLOAD PUSH1 0x1 PUSH1 0x1 PUSH1 0xA0 SHL SUB SWAP1 SWAP2 AND DUP2 MSTORE PUSH1 0x20 ADD PUSH2 0x3EB JUMP JUMPDEST PUSH1 0xB SLOAD PUSH2 0x3E1 JUMP JUMPDEST PUSH2 0x4B1 PUSH2 0x4AC CALLDATASIZE PUSH1 0x4 PUSH2 0x43BC JUMP JUMPDEST PUSH2 0xDD7 JUMP JUMPDEST PUSH1 0x40 MLOAD PUSH2 0x3EB SWAP2 SWAP1 PUSH2 0x45B5 JUMP JUMPDEST PUSH2 0x3E1 PUSH1 0x12 SLOAD DUP2 JUMP JUMPDEST PUSH2 0x4E9 PUSH2 0x4D5 CALLDATASIZE PUSH1 0x4 PUSH2 0x43BC JUMP JUMPDEST PUSH1 0xD PUSH1 0x20 MSTORE PUSH0 SWAP1 DUP2 MSTORE PUSH1 0x40 SWAP1 KECCAK256 SLOAD PUSH1 0xFF AND DUP2 JUMP JUMPDEST PUSH1 0x40 MLOAD SWAP1 ISZERO ISZERO DUP2 MSTORE PUSH1 0x20 ADD PUSH2 0x3EB JUMP JUMPDEST PUSH2 0x50C PUSH2 0x507 CALLDATASIZE PUSH1 0x4 PUSH2 0x43BC JUMP JUMPDEST PUSH2 0xECC JUMP JUMPDEST PUSH1 0x40 DUP1 MLOAD SWAP4 DUP5 MSTORE PUSH1 0x20 DUP5 ADD SWAP3 SWAP1 SWAP3 MSTORE SWAP1 DUP3 ADD MSTORE PUSH1 0x60 ADD PUSH2 0x3EB JUMP JUMPDEST PUSH2 0x407 PUSH2 0x535 CALLDATASIZE PUSH1 0x4 PUSH2 0x43BC JUMP JUMPDEST PUSH2 0xEFD JUMP JUMPDEST PUSH2 0x3E1 PUSH2 0x548 CALLDATASIZE PUSH1 0x4 PUSH2 0x43BC JUMP JUMPDEST PUSH1 0xC PUSH1 0x20 MSTORE PUSH0 SWAP1 DUP2 MSTORE PUSH1 0x40 SWAP1 KECCAK256 SLOAD DUP2 JUMP JUMPDEST PUSH2 0x407 PUSH2 0x567 CALLDATASIZE PUSH1 0x4 PUSH2 0x45C4 JUMP JUMPDEST PUSH2 0x1178 JUMP JUMPDEST PUSH2 0x3E1 PUSH2 0x57A CALLDATASIZE PUSH1 0x4 PUSH2 0x43BC JUMP JUMPDEST PUSH1 0xF PUSH1 0x20 MSTORE PUSH0 SWAP1 DUP2 MSTORE PUSH1 0x40 SWAP1 KECCAK256 SLOAD DUP2 JUMP JUMPDEST PUSH2 0x3E1 PUSH2 0x599 CALLDATASIZE PUSH1 0x4 PUSH2 0x43BC JUMP JUMPDEST PUSH2 0x1202 JUMP JUMPDEST PUSH2 0x407 PUSH2 0x5AC CALLDATASIZE PUSH1 0x4 PUSH2 0x4635 JUMP JUMPDEST PUSH2 0x1480 JUMP JUMPDEST PUSH2 0x5B9 PUSH2 0x15FA JUMP JUMPDEST PUSH1 0x40 MLOAD PUSH2 0x3EB SWAP2 SWAP1 PUSH2 0x4715 JUMP JUMPDEST PUSH2 0x5D9 PUSH2 0x5D4 CALLDATASIZE PUSH1 0x4 PUSH2 0x4824 JUMP JUMPDEST PUSH2 0x18CF JUMP JUMPDEST PUSH1 0x40 MLOAD PUSH2 0x3EB SWAP2 SWAP1 PUSH2 0x4844 JUMP JUMPDEST PUSH2 0x3E1 PUSH2 0x5F4 CALLDATASIZE PUSH1 0x4 PUSH2 0x43BC JUMP JUMPDEST PUSH1 0x15 PUSH1 0x20 MSTORE PUSH0 SWAP1 DUP2 MSTORE PUSH1 0x40 SWAP1 KECCAK256 SLOAD DUP2 JUMP JUMPDEST PUSH2 0x4E9 PUSH2 0x613 CALLDATASIZE PUSH1 0x4 PUSH2 0x4886 JUMP JUMPDEST PUSH1 0x8 PUSH1 0x20 MSTORE PUSH0 SWAP1 DUP2 MSTORE PUSH1 0x40 SWAP1 KECCAK256 SLOAD PUSH1 0xFF AND DUP2 JUMP JUMPDEST PUSH2 0x63A PUSH2 0x635 CALLDATASIZE PUSH1 0x4 PUSH2 0x4824 JUMP JUMPDEST PUSH2 0x1B16 JUMP JUMPDEST PUSH1 0x40 MLOAD PUSH2 0x3EB SWAP2 SWAP1 PUSH2 0x489F JUMP JUMPDEST PUSH2 0x5D9 PUSH2 0x655 CALLDATASIZE PUSH1 0x4 PUSH2 0x48DF JUMP JUMPDEST PUSH2 0x1C42 JUMP JUMPDEST PUSH2 0x407 PUSH2 0x668 CALLDATASIZE PUSH1 0x4 PUSH2 0x43BC JUMP JUMPDEST PUSH2 0x1EE3 JUMP JUMPDEST PUSH2 0x680 PUSH2 0x67B CALLDATASIZE PUSH1 0x4 PUSH2 0x4824 JUMP JUMPDEST PUSH2 0x1F12 JUMP JUMPDEST PUSH1 0x40 MLOAD PUSH2 0x3EB SWAP2 SWAP1 PUSH2 0x490F JUMP JUMPDEST PUSH2 0x407 PUSH2 0x69B CALLDATASIZE PUSH1 0x4 PUSH2 0x43BC JUMP JUMPDEST PUSH2 0x210A JUMP JUMPDEST PUSH2 0x407 PUSH2 0x6AE CALLDATASIZE PUSH1 0x4 PUSH2 0x43BC JUMP JUMPDEST PUSH2 0x23DF JUMP JUMPDEST PUSH2 0x3E1 PUSH2 0x6C1 CALLDATASIZE PUSH1 0x4 PUSH2 0x42F1 JUMP JUMPDEST PUSH2 0x2663 JUMP JUMPDEST PUSH2 0x47E PUSH32 0x0 DUP2 JUMP JUMPDEST PUSH2 0x407 PUSH2 0x6FB CALLDATASIZE PUSH1 0x4 PUSH2 0x43BC JUMP JUMPDEST PUSH2 0x2806 JUMP JUMPDEST PUSH2 0x407 PUSH2 0x70E CALLDATASIZE PUSH1 0x4 PUSH2 0x4886 JUMP JUMPDEST PUSH2 0x2A40 JUMP JUMPDEST PUSH1 0x2 SLOAD PUSH2 0x47E SWAP1 PUSH1 0x1 PUSH1 0x1 PUSH1 0xA0 SHL SUB AND DUP2 JUMP JUMPDEST PUSH2 0x3E1 PUSH2 0x2A8C JUMP JUMPDEST PUSH1 0x1 SLOAD PUSH2 0x47E SWAP1 PUSH1 0x1 PUSH1 0x1 PUSH1 0xA0 SHL SUB AND DUP2 JUMP JUMPDEST PUSH2 0x3E1 PUSH2 0x74F CALLDATASIZE PUSH1 0x4 PUSH2 0x43BC JUMP JUMPDEST PUSH2 0x2AB4 JUMP JUMPDEST PUSH2 0x407 PUSH2 0x762 CALLDATASIZE PUSH1 0x4 PUSH2 0x43BC JUMP JUMPDEST PUSH2 0x2AD3 JUMP JUMPDEST PUSH1 0x14 SLOAD PUSH2 0x3E1 JUMP JUMPDEST PUSH2 0x407 PUSH2 0x77D CALLDATASIZE PUSH1 0x4 PUSH2 0x4886 JUMP JUMPDEST PUSH2 0x2C20 JUMP JUMPDEST PUSH2 0x407 PUSH2 0x790 CALLDATASIZE PUSH1 0x4 PUSH2 0x43BC JUMP JUMPDEST PUSH2 0x2C6C JUMP JUMPDEST PUSH1 0x7 SLOAD PUSH2 0x3E1 JUMP JUMPDEST PUSH2 0x3E1 PUSH2 0x7AB CALLDATASIZE PUSH1 0x4 PUSH2 0x43BC JUMP JUMPDEST PUSH1 0x16 PUSH1 0x20 MSTORE PUSH0 SWAP1 DUP2 MSTORE PUSH1 0x40 SWAP1 KECCAK256 SLOAD DUP2 JUMP JUMPDEST PUSH2 0x47E PUSH2 0x7CA CALLDATASIZE PUSH1 0x4 PUSH2 0x43BC JUMP JUMPDEST PUSH2 0x2CF3 JUMP JUMPDEST PUSH2 0x3E1 PUSH2 0x2D1B JUMP JUMPDEST PUSH2 0x407 PUSH2 0x2DA6 JUMP JUMPDEST PUSH2 0x7F2 PUSH2 0x7ED CALLDATASIZE PUSH1 0x4 PUSH2 0x43BC JUMP JUMPDEST PUSH2 0x2EE4 JUMP JUMPDEST PUSH1 0x40 MLOAD PUSH2 0x3EB SWAP15 SWAP14 SWAP13 SWAP12 SWAP11 SWAP10 SWAP9 SWAP8 SWAP7 SWAP6 SWAP5 SWAP4 SWAP3 SWAP2 SWAP1 PUSH2 0x4983 JUMP JUMPDEST PUSH2 0x407 PUSH2 0x81A CALLDATASIZE PUSH1 0x4 PUSH2 0x4824 JUMP JUMPDEST PUSH2 0x2F72 JUMP JUMPDEST PUSH2 0x407 PUSH2 0x82D CALLDATASIZE PUSH1 0x4 PUSH2 0x4394 JUMP JUMPDEST PUSH2 0x2F95 JUMP JUMPDEST PUSH2 0x3E1 PUSH1 0x13 SLOAD DUP2 JUMP JUMPDEST PUSH2 0x407 PUSH2 0x849 CALLDATASIZE PUSH1 0x4 PUSH2 0x43BC JUMP JUMPDEST PUSH2 0x30B5 JUMP JUMPDEST PUSH2 0x861 PUSH2 0x85C CALLDATASIZE PUSH1 0x4 PUSH2 0x4886 JUMP JUMPDEST PUSH2 0x31D1 JUMP JUMPDEST PUSH1 0x40 MLOAD PUSH2 0x3EB SWAP2 SWAP1 PUSH2 0x4A0E JUMP JUMPDEST PUSH2 0x3E1 PUSH2 0x87C CALLDATASIZE PUSH1 0x4 PUSH2 0x43BC JUMP JUMPDEST PUSH1 0x17 PUSH1 0x20 MSTORE PUSH0 SWAP1 DUP2 MSTORE PUSH1 0x40 SWAP1 KECCAK256 SLOAD DUP2 JUMP JUMPDEST PUSH2 0x3E1 PUSH1 0x10 SLOAD DUP2 JUMP JUMPDEST PUSH2 0x3E1 PUSH2 0x323A JUMP JUMPDEST PUSH2 0x5D9 PUSH2 0x8AC CALLDATASIZE PUSH1 0x4 PUSH2 0x4824 JUMP JUMPDEST PUSH2 0x3285 JUMP JUMPDEST PUSH2 0x407 PUSH2 0x8BF CALLDATASIZE PUSH1 0x4 PUSH2 0x43BC JUMP JUMPDEST PUSH2 0x3496 JUMP JUMPDEST PUSH2 0x3E1 PUSH2 0x8D2 CALLDATASIZE PUSH1 0x4 PUSH2 0x4886 JUMP JUMPDEST PUSH1 0x1 PUSH1 0x1 PUSH1 0xA0 SHL SUB AND PUSH0 SWAP1 DUP2 MSTORE PUSH1 0x9 PUSH1 0x20 MSTORE PUSH1 0x40 SWAP1 KECCAK256 SLOAD SWAP1 JUMP JUMPDEST PUSH1 0xE SLOAD PUSH2 0x3E1 JUMP JUMPDEST PUSH2 0x3E1 PUSH2 0x902 CALLDATASIZE PUSH1 0x4 PUSH2 0x45C4 JUMP JUMPDEST PUSH2 0x36F7 JUMP JUMPDEST PUSH2 0x63A PUSH2 0x38A3 JUMP JUMPDEST PUSH2 0x407 PUSH2 0x91D CALLDATASIZE PUSH1 0x4 PUSH2 0x4886 JUMP JUMPDEST PUSH2 0x3903 JUMP JUMPDEST PUSH2 0x3E1 PUSH1 0x4 SLOAD DUP2 JUMP JUMPDEST PUSH2 0x3E1 PUSH1 0x5 SLOAD DUP2 JUMP JUMPDEST PUSH2 0x3E1 PUSH1 0x11 SLOAD DUP2 JUMP JUMPDEST PUSH1 0x1 SLOAD PUSH1 0x1 PUSH1 0x1 PUSH1 0xA0 SHL SUB AND CALLER EQ PUSH2 0x970 JUMPI PUSH1 0x40 MLOAD PUSH3 0x461BCD PUSH1 0xE5 SHL DUP2 MSTORE PUSH1 0x4 ADD PUSH2 0x967 SWAP1 PUSH2 0x4A45 JUMP JUMPDEST PUSH1 0x40 MLOAD DUP1 SWAP2 SUB SWAP1 REVERT JUMPDEST PUSH1 0x14 SLOAD DUP5 LT PUSH2 0x9AD JUMPI PUSH1 0x40 MLOAD PUSH3 0x461BCD PUSH1 0xE5 SHL DUP2 MSTORE PUSH1 0x20 PUSH1 0x4 DUP3 ADD MSTORE PUSH1 0x9 PUSH1 0x24 DUP3 ADD MSTORE PUSH9 0x24B73232BC1027A7A1 PUSH1 0xB9 SHL PUSH1 0x44 DUP3 ADD MSTORE PUSH1 0x64 ADD PUSH2 0x967 JUMP JUMPDEST DUP2 DUP4 LT PUSH2 0x9EC JUMPI PUSH1 0x40 MLOAD PUSH3 0x461BCD PUSH1 0xE5 SHL DUP2 MSTORE PUSH1 0x20 PUSH1 0x4 DUP3 ADD MSTORE PUSH1 0xD PUSH1 0x24 DUP3 ADD MSTORE PUSH13 0x496E76616C69642072616E6765 PUSH1 0x98 SHL PUSH1 0x44 DUP3 ADD MSTORE PUSH1 0x64 ADD PUSH2 0x967 JUMP JUMPDEST DUP1 ISZERO PUSH2 0xA14 JUMPI PUSH2 0x2710 DUP2 GT ISZERO PUSH2 0xA14 JUMPI PUSH1 0x40 MLOAD PUSH3 0x461BCD PUSH1 0xE5 SHL DUP2 MSTORE PUSH1 0x4 ADD PUSH2 0x967 SWAP1 PUSH2 0x4A69 JUMP JUMPDEST TIMESTAMP DUP4 GT PUSH2 0xA4D JUMPI PUSH1 0x40 MLOAD PUSH3 0x461BCD PUSH1 0xE5 SHL DUP2 MSTORE PUSH1 0x20 PUSH1 0x4 DUP3 ADD MSTORE PUSH1 0x7 PUSH1 0x24 DUP3 ADD MSTORE PUSH7 0x14DD185C9D1959 PUSH1 0xCA SHL PUSH1 0x44 DUP3 ADD MSTORE PUSH1 0x64 ADD PUSH2 0x967 JUMP JUMPDEST DUP4 ISZERO PUSH2 0xAB5 JUMPI PUSH1 0x14 PUSH2 0xA60 PUSH1 0x1 DUP7 PUSH2 0x4AA2 JUMP JUMPDEST DUP2 SLOAD DUP2 LT PUSH2 0xA70 JUMPI PUSH2 0xA70 PUSH2 0x4AB5 JUMP JUMPDEST SWAP1 PUSH0 MSTORE PUSH1 0x20 PUSH0 KECCAK256 SWAP1 PUSH1 0x3 MUL ADD PUSH1 0x1 ADD SLOAD DUP4 LT ISZERO PUSH2 0xAB5 JUMPI PUSH1 0x40 MLOAD PUSH3 0x461BCD PUSH1 0xE5 SHL DUP2 MSTORE PUSH1 0x20 PUSH1 0x4 DUP3 ADD MSTORE PUSH1 0x3 PUSH1 0x24 DUP3 ADD MSTORE PUSH3 0x536571 PUSH1 0xE8 SHL PUSH1 0x44 DUP3 ADD MSTORE PUSH1 0x64 ADD PUSH2 0x967 JUMP JUMPDEST PUSH1 0x14 SLOAD PUSH2 0xAC3 DUP6 PUSH1 0x1 PUSH2 0x4AC9 JUMP JUMPDEST LT ISZERO PUSH2 0xB2E JUMPI PUSH1 0x14 PUSH2 0xAD6 DUP6 PUSH1 0x1 PUSH2 0x4AC9 JUMP JUMPDEST DUP2 SLOAD DUP2 LT PUSH2 0xAE6 JUMPI PUSH2 0xAE6 PUSH2 0x4AB5 JUMP JUMPDEST SWAP1 PUSH0 MSTORE PUSH1 0x20 PUSH0 KECCAK256 SWAP1 PUSH1 0x3 MUL ADD PUSH0 ADD SLOAD DUP3 GT ISZERO PUSH2 0xB2E JUMPI PUSH1 0x40 MLOAD PUSH3 0x461BCD PUSH1 0xE5 SHL DUP2 MSTORE PUSH1 0x20 PUSH1 0x4 DUP3 ADD MSTORE PUSH1 0x7 PUSH1 0x24 DUP3 ADD MSTORE PUSH7 0x4F7665726C617 PUSH1 0xCC SHL PUSH1 0x44 DUP3 ADD MSTORE PUSH1 0x64 ADD PUSH2 0x967 JUMP JUMPDEST PUSH1 0x40 MLOAD DUP1 PUSH1 0x60 ADD PUSH1 0x40 MSTORE DUP1 DUP5 DUP2 MSTORE PUSH1 0x20 ADD DUP4 DUP2 MSTORE PUSH1 0x20 ADD DUP3 DUP2 MSTORE POP PUSH1 0x14 DUP6 DUP2 SLOAD DUP2 LT PUSH2 0xB5C JUMPI PUSH2 0xB5C PUSH2 0x4AB5 JUMP JUMPDEST PUSH0 SWAP2 DUP3 MSTORE PUSH1 0x20 SWAP2 DUP3 SWAP1 KECCAK256 DUP4 MLOAD PUSH1 0x3 SWAP1 SWAP3 MUL ADD SWAP1 DUP2 SSTORE DUP3 DUP3 ADD MLOAD PUSH1 0x1 DUP3 ADD SSTORE PUSH1 0x40 SWAP3 DUP4 ADD MLOAD PUSH1 0x2 SWAP1 SWAP2 ADD SSTORE DUP2 MLOAD DUP6 DUP2 MSTORE SWAP1 DUP2 ADD DUP5 SWAP1 MSTORE SWAP1 DUP2 ADD DUP3 SWAP1 MSTORE DUP5 SWAP1 PUSH32 0x68F039AF08C3A62DAE4B7E4244543803DCE43C9C5A2AD9EF05FEA8366F4C8623 SWAP1 PUSH1 0x60 ADD PUSH1 0x40 MLOAD DUP1 SWAP2 SUB SWAP1 LOG2 POP POP POP POP JUMP JUMPDEST PUSH2 0xBD4 PUSH2 0x3975 JUMP JUMPDEST PUSH1 0x1 SLOAD PUSH1 0x1 PUSH1 0x1 PUSH1 0xA0 SHL SUB AND CALLER EQ DUP1 PUSH2 0xBF7 JUMPI POP PUSH1 0x2 SLOAD PUSH1 0x1 PUSH1 0x1 PUSH1 0xA0 SHL SUB AND CALLER EQ JUMPDEST PUSH2 0xC3A JUMPI PUSH1 0x40 MLOAD PUSH3 0x461BCD PUSH1 0xE5 SHL DUP2 MSTORE PUSH1 0x20 PUSH1 0x4 DUP3 ADD MSTORE PUSH1 0x14 PUSH1 0x24 DUP3 ADD MSTORE PUSH20 0x4F6E6C79206F776E6572206F72206F7261636C65 PUSH1 0x60 SHL PUSH1 0x44 DUP3 ADD MSTORE PUSH1 0x64 ADD PUSH2 0x967 JUMP JUMPDEST DUP2 ISZERO PUSH2 0xC62 JUMPI PUSH2 0x2710 DUP2 GT ISZERO PUSH2 0xC62 JUMPI PUSH1 0x40 MLOAD PUSH3 0x461BCD PUSH1 0xE5 SHL DUP2 MSTORE PUSH1 0x4 ADD PUSH2 0x967 SWAP1 PUSH2 0x4A69 JUMP JUMPDEST PUSH2 0xC71 DUP6 DUP6 DUP6 DUP6 DUP6 PUSH1 0x1 PUSH2 0x399D JUMP JUMPDEST PUSH2 0xC7A PUSH1 0x1 PUSH0 SSTORE JUMP JUMPDEST POP POP POP POP POP JUMP JUMPDEST PUSH1 0x9 PUSH1 0x20 MSTORE DUP2 PUSH0 MSTORE PUSH1 0x40 PUSH0 KECCAK256 DUP2 DUP2 SLOAD DUP2 LT PUSH2 0xC9A JUMPI PUSH0 DUP1 REVERT JUMPDEST SWAP1 PUSH0 MSTORE PUSH1 0x20 PUSH0 KECCAK256 ADD PUSH0 SWAP2 POP SWAP2 POP POP SLOAD DUP2 JUMP JUMPDEST PUSH1 0x1 SLOAD PUSH1 0x1 PUSH1 0x1 PUSH1 0xA0 SHL SUB AND CALLER EQ PUSH2 0xCD6 JUMPI PUSH1 0x40 MLOAD PUSH3 0x461BCD PUSH1 0xE5 SHL DUP2 MSTORE PUSH1 0x4 ADD PUSH2 0x967 SWAP1 PUSH2 0x4A45 JUMP JUMPDEST PUSH1 0x6 SSTORE JUMP JUMPDEST PUSH1 0x60 DUP2 MLOAD PUSH8 0xFFFFFFFFFFFFFFFF DUP2 GT ISZERO PUSH2 0xCF7 JUMPI PUSH2 0xCF7 PUSH2 0x43D3 JUMP JUMPDEST PUSH1 0x40 MLOAD SWAP1 DUP1 DUP3 MSTORE DUP1 PUSH1 0x20 MUL PUSH1 0x20 ADD DUP3 ADD PUSH1 0x40 MSTORE DUP1 ISZERO PUSH2 0xD3B JUMPI DUP2 PUSH1 0x20 ADD JUMPDEST PUSH1 0x40 DUP1 MLOAD DUP1 DUP3 ADD SWAP1 SWAP2 MSTORE PUSH0 DUP1 DUP3 MSTORE PUSH1 0x20 DUP3 ADD MSTORE DUP2 MSTORE PUSH1 0x20 ADD SWAP1 PUSH1 0x1 SWAP1 SUB SWAP1 DUP2 PUSH2 0xD15 JUMPI SWAP1 POP JUMPDEST POP SWAP1 POP PUSH0 JUMPDEST DUP3 MLOAD DUP2 LT ISZERO PUSH2 0xDD1 JUMPI PUSH1 0x40 MLOAD DUP1 PUSH1 0x40 ADD PUSH1 0x40 MSTORE DUP1 DUP5 DUP4 DUP2 MLOAD DUP2 LT PUSH2 0xD66 JUMPI PUSH2 0xD66 PUSH2 0x4AB5 JUMP JUMPDEST PUSH1 0x20 MUL PUSH1 0x20 ADD ADD MLOAD DUP2 MSTORE PUSH1 0x20 ADD PUSH1 0xC PUSH0 DUP7 DUP6 DUP2 MLOAD DUP2 LT PUSH2 0xD88 JUMPI PUSH2 0xD88 PUSH2 0x4AB5 JUMP JUMPDEST PUSH1 0x20 MUL PUSH1 0x20 ADD ADD MLOAD DUP2 MSTORE PUSH1 0x20 ADD SWAP1 DUP2 MSTORE PUSH1 0x20 ADD PUSH0 KECCAK256 SLOAD DUP2 MSTORE POP DUP3 DUP3 DUP2 MLOAD DUP2 LT PUSH2 0xDB3 JUMPI PUSH2 0xDB3 PUSH2 0x4AB5 JUMP JUMPDEST PUSH1 0x20 MUL PUSH1 0x20 ADD ADD DUP2 SWAP1 MSTORE POP DUP1 DUP1 PUSH2 0xDC9 SWAP1 PUSH2 0x4ADC JUMP JUMPDEST SWAP2 POP POP PUSH2 0xD40 JUMP JUMPDEST POP SWAP2 SWAP1 POP JUMP JUMPDEST PUSH2 0xDDF PUSH2 0x4281 JUMP JUMPDEST PUSH1 0xB DUP3 DUP2 SLOAD DUP2 LT PUSH2 0xDF2 JUMPI PUSH2 0xDF2 PUSH2 0x4AB5 JUMP JUMPDEST PUSH0 SWAP2 DUP3 MSTORE PUSH1 0x20 SWAP2 DUP3 SWAP1 KECCAK256 PUSH1 0x40 DUP1 MLOAD PUSH2 0x1C0 DUP2 ADD DUP3 MSTORE PUSH1 0xD SWAP1 SWAP4 MUL SWAP1 SWAP2 ADD DUP1 SLOAD DUP4 MSTORE PUSH1 0x1 DUP2 ADD SLOAD PUSH1 0x1 PUSH1 0x1 PUSH1 0xA0 SHL SUB AND SWAP4 DUP4 ADD SWAP4 SWAP1 SWAP4 MSTORE PUSH1 0x2 DUP4 ADD SLOAD SWAP1 DUP3 ADD MSTORE PUSH1 0x3 DUP3 ADD SLOAD PUSH1 0x60 DUP3 ADD MSTORE PUSH1 0x4 DUP3 ADD SLOAD PUSH1 0x80 DUP3 ADD MSTORE PUSH1 0x5 DUP3 ADD SLOAD PUSH1 0xA0 DUP3 ADD MSTORE PUSH1 0x6 DUP3 ADD SLOAD PUSH1 0xC0 DUP3 ADD MSTORE PUSH1 0x7 DUP3 ADD SLOAD PUSH1 0xE0 DUP3 ADD MSTORE PUSH1 0x8 DUP3 ADD SLOAD PUSH2 0x100 DUP1 DUP4 ADD SWAP2 SWAP1 SWAP2 MSTORE PUSH1 0x9 DUP4 ADD SLOAD PUSH1 0xFF DUP1 DUP3 AND ISZERO ISZERO PUSH2 0x120 DUP6 ADD MSTORE SWAP2 SWAP1 DIV DUP2 AND ISZERO ISZERO PUSH2 0x140 DUP4 ADD MSTORE PUSH1 0xA DUP4 ADD SLOAD PUSH2 0x160 DUP4 ADD MSTORE PUSH1 0xB DUP4 ADD SLOAD AND ISZERO ISZERO PUSH2 0x180 DUP3 ADD MSTORE PUSH1 0xC SWAP1 SWAP2 ADD SLOAD PUSH2 0x1A0 DUP3 ADD MSTORE SWAP1 POP PUSH2 0xEC1 DUP3 PUSH2 0x1202 JUMP JUMPDEST PUSH2 0x100 DUP3 ADD MSTORE SWAP2 SWAP1 POP JUMP JUMPDEST PUSH1 0x14 DUP2 DUP2 SLOAD DUP2 LT PUSH2 0xEDB JUMPI PUSH0 DUP1 REVERT JUMPDEST PUSH0 SWAP2 DUP3 MSTORE PUSH1 0x20 SWAP1 SWAP2 KECCAK256 PUSH1 0x3 SWAP1 SWAP2 MUL ADD DUP1 SLOAD PUSH1 0x1 DUP3 ADD SLOAD PUSH1 0x2 SWAP1 SWAP3 ADD SLOAD SWAP1 SWAP3 POP DUP4 JUMP JUMPDEST PUSH2 0xF05 PUSH2 0x3975 JUMP JUMPDEST PUSH0 PUSH1 0xB DUP3 DUP2 SLOAD DUP2 LT PUSH2 0xF19 JUMPI PUSH2 0xF19 PUSH2 0x4AB5 JUMP JUMPDEST PUSH0 SWAP2 DUP3 MSTORE PUSH1 0x20 SWAP1 SWAP2 KECCAK256 PUSH1 0xD SWAP1 SWAP2 MUL ADD PUSH1 0x9 DUP2 ADD SLOAD SWAP1 SWAP2 POP PUSH1 0xFF AND ISZERO PUSH2 0xF6C JUMPI PUSH1 0x40 MLOAD PUSH3 0x461BCD PUSH1 0xE5 SHL DUP2 MSTORE PUSH1 0x20 PUSH1 0x4 DUP3 ADD MSTORE PUSH1 0x9 PUSH1 0x24 DUP3 ADD MSTORE PUSH9 0x497320616374697665 PUSH1 0xB8 SHL PUSH1 0x44 DUP3 ADD MSTORE PUSH1 0x64 ADD PUSH2 0x967 JUMP JUMPDEST PUSH1 0x1 DUP2 ADD SLOAD PUSH1 0x1 PUSH1 0x1 PUSH1 0xA0 SHL SUB AND CALLER EQ PUSH2 0xF98 JUMPI PUSH1 0x40 MLOAD PUSH3 0x461BCD PUSH1 0xE5 SHL DUP2 MSTORE PUSH1 0x4 ADD PUSH2 0x967 SWAP1 PUSH2 0x4AF4 JUMP JUMPDEST PUSH1 0x9 DUP2 ADD SLOAD PUSH2 0x100 SWAP1 DIV PUSH1 0xFF AND PUSH2 0xFDD JUMPI PUSH1 0x40 MLOAD PUSH3 0x461BCD PUSH1 0xE5 SHL DUP2 MSTORE PUSH1 0x20 PUSH1 0x4 DUP3 ADD MSTORE PUSH1 0x9 PUSH1 0x24 DUP3 ADD MSTORE PUSH9 0x139BDD081CD85D9959 PUSH1 0xBA SHL PUSH1 0x44 DUP3 ADD MSTORE PUSH1 0x64 ADD PUSH2 0x967 JUMP JUMPDEST DUP1 PUSH1 0xA ADD SLOAD PUSH1 0x13 SLOAD LT ISZERO PUSH2 0x1003 JUMPI PUSH1 0x40 MLOAD PUSH3 0x461BCD PUSH1 0xE5 SHL DUP2 MSTORE PUSH1 0x4 ADD PUSH2 0x967 SWAP1 PUSH2 0x4B17 JUMP JUMPDEST PUSH0 DUP2 PUSH1 0xA ADD SLOAD SWAP1 POP DUP1 PUSH1 0x13 PUSH0 DUP3 DUP3 SLOAD PUSH2 0x101C SWAP2 SWAP1 PUSH2 0x4AA2 JUMP JUMPDEST SWAP3 POP POP DUP2 SWAP1 SSTORE POP DUP1 PUSH1 0x12 PUSH0 DUP3 DUP3 SLOAD PUSH2 0x1034 SWAP2 SWAP1 PUSH2 0x4AC9 JUMP JUMPDEST SWAP1 SWAP2 SSTORE POP POP PUSH0 DUP4 DUP2 MSTORE PUSH1 0xC PUSH1 0x20 MSTORE PUSH1 0x40 DUP2 KECCAK256 DUP1 SLOAD DUP4 SWAP3 SWAP1 PUSH2 0x1056 SWAP1 DUP5 SWAP1 PUSH2 0x4AC9 JUMP JUMPDEST SWAP1 SWAP2 SSTORE POP POP DUP1 ISZERO PUSH2 0x110B JUMPI PUSH1 0x40 MLOAD PUSH4 0xA9059CBB PUSH1 0xE0 SHL DUP2 MSTORE CALLER PUSH1 0x4 DUP3 ADD MSTORE PUSH1 0x24 DUP2 ADD DUP3 SWAP1 MSTORE PUSH32 0x0 PUSH1 0x1 PUSH1 0x1 PUSH1 0xA0 SHL SUB AND SWAP1 PUSH4 0xA9059CBB SWAP1 PUSH1 0x44 ADD PUSH1 0x20 PUSH1 0x40 MLOAD DUP1 DUP4 SUB DUP2 PUSH0 DUP8 GAS CALL ISZERO DUP1 ISZERO PUSH2 0x10CB JUMPI RETURNDATASIZE PUSH0 DUP1 RETURNDATACOPY RETURNDATASIZE PUSH0 REVERT JUMPDEST POP POP POP POP PUSH1 0x40 MLOAD RETURNDATASIZE PUSH1 0x1F NOT PUSH1 0x1F DUP3 ADD AND DUP3 ADD DUP1 PUSH1 0x40 MSTORE POP DUP2 ADD SWAP1 PUSH2 0x10EF SWAP2 SWAP1 PUSH2 0x4B3B JUMP JUMPDEST PUSH2 0x110B JUMPI PUSH1 0x40 MLOAD PUSH3 0x461BCD PUSH1 0xE5 SHL DUP2 MSTORE PUSH1 0x4 ADD PUSH2 0x967 SWAP1 PUSH2 0x4B56 JUMP JUMPDEST PUSH1 0x9 DUP3 ADD DUP1 SLOAD PUSH2 0xFF00 NOT AND SWAP1 SSTORE PUSH0 PUSH1 0xA DUP4 ADD SSTORE PUSH1 0x1 DUP3 ADD SLOAD DUP3 SLOAD PUSH1 0x40 DUP1 MLOAD SWAP2 DUP3 MSTORE PUSH1 0x20 DUP3 ADD DUP5 SWAP1 MSTORE PUSH1 0x1 PUSH1 0x1 PUSH1 0xA0 SHL SUB SWAP1 SWAP3 AND SWAP2 PUSH32 0x89944602FCC483994090377F9ABD25A68EE71AE7EF66DB82411CC0739AB35CD8 SWAP2 ADD PUSH1 0x40 MLOAD DUP1 SWAP2 SUB SWAP1 LOG2 POP POP PUSH2 0x1175 PUSH1 0x1 PUSH0 SSTORE JUMP JUMPDEST POP JUMP JUMPDEST PUSH1 0x1 SLOAD PUSH1 0x1 PUSH1 0x1 PUSH1 0xA0 SHL SUB AND CALLER EQ PUSH2 0x11A2 JUMPI PUSH1 0x40 MLOAD PUSH3 0x461BCD PUSH1 0xE5 SHL DUP2 MSTORE PUSH1 0x4 ADD PUSH2 0x967 SWAP1 PUSH2 0x4A45 JUMP JUMPDEST PUSH2 0x11AD DUP4 DUP4 DUP4 PUSH2 0x3F59 JUMP JUMPDEST PUSH1 0x14 SLOAD PUSH2 0x11BC SWAP1 PUSH1 0x1 SWAP1 PUSH2 0x4AA2 JUMP JUMPDEST PUSH1 0x40 DUP1 MLOAD DUP6 DUP2 MSTORE PUSH1 0x20 DUP2 ADD DUP6 SWAP1 MSTORE SWAP1 DUP2 ADD DUP4 SWAP1 MSTORE PUSH32 0x901D51AF3F40466612C7BE89BA349F0B5AA321186BB4DE023367F1CA25ACDCED SWAP1 PUSH1 0x60 ADD PUSH1 0x40 MLOAD DUP1 SWAP2 SUB SWAP1 LOG2 POP POP POP JUMP JUMPDEST PUSH0 DUP1 PUSH1 0xB DUP4 DUP2 SLOAD DUP2 LT PUSH2 0x1217 JUMPI PUSH2 0x1217 PUSH2 0x4AB5 JUMP JUMPDEST PUSH0 SWAP2 DUP3 MSTORE PUSH1 0x20 SWAP2 DUP3 SWAP1 KECCAK256 PUSH1 0x40 DUP1 MLOAD PUSH2 0x1C0 DUP2 ADD DUP3 MSTORE PUSH1 0xD SWAP1 SWAP4 MUL SWAP1 SWAP2 ADD DUP1 SLOAD DUP4 MSTORE PUSH1 0x1 DUP2 ADD SLOAD PUSH1 0x1 PUSH1 0x1 PUSH1 0xA0 SHL SUB AND SWAP4 DUP4 ADD SWAP4 SWAP1 SWAP4 MSTORE PUSH1 0x2 DUP4 ADD SLOAD SWAP1 DUP3 ADD MSTORE PUSH1 0x3 DUP3 ADD SLOAD PUSH1 0x60 DUP3 ADD MSTORE PUSH1 0x4 DUP3 ADD SLOAD PUSH1 0x80 DUP3 ADD MSTORE PUSH1 0x5 DUP3 ADD SLOAD PUSH1 0xA0 DUP3 ADD MSTORE PUSH1 0x6 DUP3 ADD SLOAD PUSH1 0xC0 DUP3 ADD MSTORE PUSH1 0x7 DUP3 ADD SLOAD PUSH1 0xE0 DUP3 ADD MSTORE PUSH1 0x8 DUP3 ADD SLOAD PUSH2 0x100 DUP1 DUP4 ADD SWAP2 SWAP1 SWAP2 MSTORE PUSH1 0x9 DUP4 ADD SLOAD PUSH1 0xFF DUP1 DUP3 AND ISZERO ISZERO PUSH2 0x120 DUP6 ADD MSTORE SWAP2 SWAP1 DIV DUP2 AND ISZERO DUP1 ISZERO PUSH2 0x140 DUP5 ADD MSTORE PUSH1 0xA DUP5 ADD SLOAD PUSH2 0x160 DUP5 ADD MSTORE PUSH1 0xB DUP5 ADD SLOAD SWAP1 SWAP2 AND ISZERO ISZERO PUSH2 0x180 DUP4 ADD MSTORE PUSH1 0xC SWAP1 SWAP3 ADD SLOAD PUSH2 0x1A0 DUP3 ADD MSTORE SWAP2 POP PUSH2 0x12EF JUMPI PUSH2 0x160 ADD MLOAD SWAP3 SWAP2 POP POP JUMP JUMPDEST PUSH1 0x40 DUP2 ADD MLOAD ISZERO DUP1 PUSH2 0x1303 JUMPI POP DUP1 PUSH2 0x120 ADD MLOAD ISZERO JUMPDEST ISZERO PUSH2 0x1310 JUMPI POP PUSH0 SWAP3 SWAP2 POP POP JUMP JUMPDEST PUSH1 0xE0 DUP2 ADD MLOAD PUSH0 PUSH2 0x1320 DUP3 DUP3 PUSH2 0x40CF JUMP JUMPDEST SWAP1 POP DUP2 DUP2 GT PUSH2 0x1333 JUMPI POP PUSH0 SWAP5 SWAP4 POP POP POP POP JUMP JUMPDEST PUSH1 0x40 DUP4 ADD MLOAD PUSH0 SWAP1 DUP4 JUMPDEST DUP4 DUP2 LT ISZERO PUSH2 0x1474 JUMPI PUSH0 PUSH1 0x14 DUP3 DUP2 SLOAD DUP2 LT PUSH2 0x1358 JUMPI PUSH2 0x1358 PUSH2 0x4AB5 JUMP JUMPDEST SWAP1 PUSH0 MSTORE PUSH1 0x20 PUSH0 KECCAK256 SWAP1 PUSH1 0x3 MUL ADD PUSH1 0x40 MLOAD DUP1 PUSH1 0x60 ADD PUSH1 0x40 MSTORE SWAP1 DUP2 PUSH0 DUP3 ADD SLOAD DUP2 MSTORE PUSH1 0x20 ADD PUSH1 0x1 DUP3 ADD SLOAD DUP2 MSTORE PUSH1 0x20 ADD PUSH1 0x2 DUP3 ADD SLOAD DUP2 MSTORE POP POP SWAP1 POP PUSH0 DUP8 PUSH2 0x180 ADD MLOAD PUSH2 0x13A7 JUMPI PUSH2 0x13A2 DUP4 PUSH2 0x411D JUMP JUMPDEST PUSH2 0x13AE JUMP JUMPDEST DUP8 PUSH2 0x1A0 ADD MLOAD JUMPDEST SWAP1 POP PUSH0 PUSH2 0x2710 PUSH2 0x13BE DUP4 DUP8 PUSH2 0x4B7F JUMP JUMPDEST PUSH2 0x13C8 SWAP2 SWAP1 PUSH2 0x4B96 JUMP JUMPDEST SWAP1 POP DUP9 PUSH1 0x60 ADD MLOAD DUP5 SUB PUSH2 0x1451 JUMPI DUP3 MLOAD PUSH1 0x20 DUP5 ADD MLOAD PUSH0 PUSH2 0x13E7 DUP4 DUP4 PUSH2 0x4AA2 JUMP JUMPDEST SWAP1 POP PUSH0 DUP4 DUP14 PUSH1 0x80 ADD MLOAD GT PUSH2 0x13FB JUMPI DUP4 PUSH2 0x1401 JUMP JUMPDEST DUP13 PUSH1 0x80 ADD MLOAD JUMPDEST SWAP1 POP DUP3 DUP1 DUP3 LT PUSH2 0x1418 JUMPI POP POP POP POP POP POP POP POP PUSH2 0x1462 JUMP JUMPDEST PUSH0 PUSH2 0x1423 DUP4 DUP4 PUSH2 0x4AA2 JUMP JUMPDEST SWAP1 POP DUP4 PUSH2 0x1430 DUP3 DUP10 PUSH2 0x4B7F JUMP JUMPDEST PUSH2 0x143A SWAP2 SWAP1 PUSH2 0x4B96 JUMP JUMPDEST PUSH2 0x1444 SWAP1 DUP14 PUSH2 0x4AC9 JUMP JUMPDEST SWAP12 POP POP POP POP POP POP POP PUSH2 0x145E JUMP JUMPDEST PUSH2 0x145B DUP2 DUP8 PUSH2 0x4AC9 JUMP JUMPDEST SWAP6 POP JUMPDEST POP POP POP JUMPDEST DUP1 PUSH2 0x146C DUP2 PUSH2 0x4ADC JUMP JUMPDEST SWAP2 POP POP PUSH2 0x133C JUMP JUMPDEST POP SWAP1 SWAP7 SWAP6 POP POP POP POP POP POP JUMP JUMPDEST PUSH1 0x1 SLOAD PUSH1 0x1 PUSH1 0x1 PUSH1 0xA0 SHL SUB AND CALLER EQ PUSH2 0x14AA JUMPI PUSH1 0x40 MLOAD PUSH3 0x461BCD PUSH1 0xE5 SHL DUP2 MSTORE PUSH1 0x4 ADD PUSH2 0x967 SWAP1 PUSH2 0x4A45 JUMP JUMPDEST DUP5 DUP4 EQ DUP1 ISZERO PUSH2 0x14B8 JUMPI POP DUP5 DUP2 EQ JUMPDEST PUSH2 0x14F6 JUMPI PUSH1 0x40 MLOAD PUSH3 0x461BCD PUSH1 0xE5 SHL DUP2 MSTORE PUSH1 0x20 PUSH1 0x4 DUP3 ADD MSTORE PUSH1 0xF PUSH1 0x24 DUP3 ADD MSTORE PUSH15 0x98CADCCEE8D040DAD2E6DAC2E8C6D PUSH1 0x8B SHL PUSH1 0x44 DUP3 ADD MSTORE PUSH1 0x64 ADD PUSH2 0x967 JUMP JUMPDEST DUP5 PUSH2 0x152B JUMPI PUSH1 0x40 MLOAD PUSH3 0x461BCD PUSH1 0xE5 SHL DUP2 MSTORE PUSH1 0x20 PUSH1 0x4 DUP3 ADD MSTORE PUSH1 0x5 PUSH1 0x24 DUP3 ADD MSTORE PUSH5 0x456D707479 PUSH1 0xD8 SHL PUSH1 0x44 DUP3 ADD MSTORE PUSH1 0x64 ADD PUSH2 0x967 JUMP JUMPDEST PUSH0 JUMPDEST DUP6 DUP2 LT ISZERO PUSH2 0x159A JUMPI PUSH2 0x1588 DUP8 DUP8 DUP4 DUP2 DUP2 LT PUSH2 0x154A JUMPI PUSH2 0x154A PUSH2 0x4AB5 JUMP JUMPDEST SWAP1 POP PUSH1 0x20 MUL ADD CALLDATALOAD DUP7 DUP7 DUP5 DUP2 DUP2 LT PUSH2 0x1563 JUMPI PUSH2 0x1563 PUSH2 0x4AB5 JUMP JUMPDEST SWAP1 POP PUSH1 0x20 MUL ADD CALLDATALOAD DUP6 DUP6 DUP6 DUP2 DUP2 LT PUSH2 0x157C JUMPI PUSH2 0x157C PUSH2 0x4AB5 JUMP JUMPDEST SWAP1 POP PUSH1 0x20 MUL ADD CALLDATALOAD PUSH2 0x3F59 JUMP JUMPDEST DUP1 PUSH2 0x1592 DUP2 PUSH2 0x4ADC JUMP JUMPDEST SWAP2 POP POP PUSH2 0x152D JUMP JUMPDEST POP PUSH1 0x14 SLOAD PUSH32 0xAB080E234EBAB87937F1D48C107ECB8AB6361D9012A0670705E920B9CFFE1011 SWAP1 PUSH2 0x15CB SWAP1 DUP8 SWAP1 PUSH2 0x4AA2 JUMP JUMPDEST PUSH1 0x14 SLOAD PUSH2 0x15DA SWAP1 PUSH1 0x1 SWAP1 PUSH2 0x4AA2 JUMP JUMPDEST PUSH1 0x40 DUP1 MLOAD SWAP3 DUP4 MSTORE PUSH1 0x20 DUP4 ADD SWAP2 SWAP1 SWAP2 MSTORE ADD PUSH1 0x40 MLOAD DUP1 SWAP2 SUB SWAP1 LOG1 POP POP POP POP POP POP JUMP JUMPDEST PUSH2 0x167E PUSH1 0x40 MLOAD DUP1 PUSH2 0x220 ADD PUSH1 0x40 MSTORE DUP1 PUSH0 DUP2 MSTORE PUSH1 0x20 ADD PUSH0 DUP2 MSTORE PUSH1 0x20 ADD PUSH0 DUP2 MSTORE PUSH1 0x20 ADD PUSH0 DUP2 MSTORE PUSH1 0x20 ADD PUSH0 DUP2 MSTORE PUSH1 0x20 ADD PUSH0 DUP2 MSTORE PUSH1 0x20 ADD PUSH0 PUSH1 0xFF AND DUP2 MSTORE PUSH1 0x20 ADD PUSH1 0x60 DUP2 MSTORE PUSH1 0x20 ADD PUSH1 0x60 DUP2 MSTORE PUSH1 0x20 ADD PUSH0 PUSH1 0x1 PUSH1 0x1 PUSH1 0xA0 SHL SUB AND DUP2 MSTORE PUSH1 0x20 ADD PUSH0 DUP2 MSTORE PUSH1 0x20 ADD PUSH0 DUP2 MSTORE PUSH1 0x20 ADD PUSH0 DUP2 MSTORE PUSH1 0x20 ADD PUSH0 DUP2 MSTORE PUSH1 0x20 ADD PUSH0 DUP2 MSTORE PUSH1 0x20 ADD PUSH0 DUP2 MSTORE PUSH1 0x20 ADD PUSH0 DUP2 MSTORE POP SWAP1 JUMP JUMPDEST PUSH1 0x40 MLOAD DUP1 PUSH2 0x220 ADD PUSH1 0x40 MSTORE DUP1 PUSH1 0x7 DUP1 SLOAD SWAP1 POP DUP2 MSTORE PUSH1 0x20 ADD PUSH1 0x10 SLOAD DUP2 MSTORE PUSH1 0x20 ADD PUSH1 0xB DUP1 SLOAD SWAP1 POP DUP2 MSTORE PUSH1 0x20 ADD PUSH1 0x11 SLOAD DUP2 MSTORE PUSH1 0x20 ADD PUSH1 0x12 SLOAD DUP2 MSTORE PUSH1 0x20 ADD PUSH1 0x13 SLOAD DUP2 MSTORE PUSH1 0x20 ADD PUSH32 0x0 PUSH1 0x1 PUSH1 0x1 PUSH1 0xA0 SHL SUB AND PUSH4 0x313CE567 PUSH1 0x40 MLOAD DUP2 PUSH4 0xFFFFFFFF AND PUSH1 0xE0 SHL DUP2 MSTORE PUSH1 0x4 ADD PUSH1 0x20 PUSH1 0x40 MLOAD DUP1 DUP4 SUB DUP2 DUP7 GAS STATICCALL ISZERO DUP1 ISZERO PUSH2 0x171C JUMPI RETURNDATASIZE PUSH0 DUP1 RETURNDATACOPY RETURNDATASIZE PUSH0 REVERT JUMPDEST POP POP POP POP PUSH1 0x40 MLOAD RETURNDATASIZE PUSH1 0x1F NOT PUSH1 0x1F DUP3 ADD AND DUP3 ADD DUP1 PUSH1 0x40 MSTORE POP DUP2 ADD SWAP1 PUSH2 0x1740 SWAP2 SWAP1 PUSH2 0x4BB5 JUMP JUMPDEST PUSH1 0xFF AND DUP2 MSTORE PUSH1 0x20 ADD PUSH32 0x0 PUSH1 0x1 PUSH1 0x1 PUSH1 0xA0 SHL SUB AND PUSH4 0x6FDDE03 PUSH1 0x40 MLOAD DUP2 PUSH4 0xFFFFFFFF AND PUSH1 0xE0 SHL DUP2 MSTORE PUSH1 0x4 ADD PUSH0 PUSH1 0x40 MLOAD DUP1 DUP4 SUB DUP2 DUP7 GAS STATICCALL ISZERO DUP1 ISZERO PUSH2 0x17A3 JUMPI RETURNDATASIZE PUSH0 DUP1 RETURNDATACOPY RETURNDATASIZE PUSH0 REVERT JUMPDEST POP POP POP POP PUSH1 0x40 MLOAD RETURNDATASIZE PUSH0 DUP3 RETURNDATACOPY PUSH1 0x1F RETURNDATASIZE SWAP1 DUP2 ADD PUSH1 0x1F NOT AND DUP3 ADD PUSH1 0x40 MSTORE PUSH2 0x17CA SWAP2 SWAP1 DUP2 ADD SWAP1 PUSH2 0x4BD5 JUMP JUMPDEST DUP2 MSTORE PUSH1 0x20 ADD PUSH32 0x0 PUSH1 0x1 PUSH1 0x1 PUSH1 0xA0 SHL SUB AND PUSH4 0x95D89B41 PUSH1 0x40 MLOAD DUP2 PUSH4 0xFFFFFFFF AND PUSH1 0xE0 SHL DUP2 MSTORE PUSH1 0x4 ADD PUSH0 PUSH1 0x40 MLOAD DUP1 DUP4 SUB DUP2 DUP7 GAS STATICCALL ISZERO DUP1 ISZERO PUSH2 0x182A JUMPI RETURNDATASIZE PUSH0 DUP1 RETURNDATACOPY RETURNDATASIZE PUSH0 REVERT JUMPDEST POP POP POP POP PUSH1 0x40 MLOAD RETURNDATASIZE PUSH0 DUP3 RETURNDATACOPY PUSH1 0x1F RETURNDATASIZE SWAP1 DUP2 ADD PUSH1 0x1F NOT AND DUP3 ADD PUSH1 0x40 MSTORE PUSH2 0x1851 SWAP2 SWAP1 DUP2 ADD SWAP1 PUSH2 0x4BD5 JUMP JUMPDEST DUP2 MSTORE PUSH1 0x20 ADD PUSH32 0x0 PUSH1 0x1 PUSH1 0x1 PUSH1 0xA0 SHL SUB AND DUP2 MSTORE PUSH1 0x20 ADD PUSH1 0x4 SLOAD DUP2 MSTORE PUSH1 0x20 ADD PUSH1 0x5 SLOAD DUP2 MSTORE PUSH1 0x20 ADD PUSH1 0x6 SLOAD DUP2 MSTORE PUSH1 0x20 ADD PUSH2 0x18A5 PUSH2 0x2A8C JUMP JUMPDEST DUP2 MSTORE PUSH1 0x20 ADD PUSH2 0x18B2 PUSH2 0x323A JUMP JUMPDEST DUP2 MSTORE PUSH1 0x20 ADD PUSH2 0x18BF PUSH2 0x2D1B JUMP JUMPDEST DUP2 MSTORE PUSH1 0x14 SLOAD PUSH1 0x20 SWAP1 SWAP2 ADD MSTORE SWAP2 SWAP1 POP JUMP JUMPDEST PUSH1 0x60 DUP2 PUSH0 SUB PUSH2 0x18DE JUMPI PUSH1 0xE SLOAD SWAP2 POP JUMPDEST PUSH0 PUSH2 0x18E9 DUP4 DUP6 PUSH2 0x4AC9 JUMP JUMPDEST PUSH1 0xE SLOAD SWAP1 SWAP2 POP DUP5 GT ISZERO PUSH2 0x18FC JUMPI POP PUSH2 0x1B10 JUMP JUMPDEST PUSH1 0xE SLOAD DUP2 GT ISZERO PUSH2 0x190B JUMPI POP PUSH1 0xE SLOAD JUMPDEST PUSH2 0x1915 DUP5 DUP3 PUSH2 0x4AA2 JUMP JUMPDEST PUSH8 0xFFFFFFFFFFFFFFFF DUP2 GT ISZERO PUSH2 0x192D JUMPI PUSH2 0x192D PUSH2 0x43D3 JUMP JUMPDEST PUSH1 0x40 MLOAD SWAP1 DUP1 DUP3 MSTORE DUP1 PUSH1 0x20 MUL PUSH1 0x20 ADD DUP3 ADD PUSH1 0x40 MSTORE DUP1 ISZERO PUSH2 0x1966 JUMPI DUP2 PUSH1 0x20 ADD JUMPDEST PUSH2 0x1953 PUSH2 0x4281 JUMP JUMPDEST DUP2 MSTORE PUSH1 0x20 ADD SWAP1 PUSH1 0x1 SWAP1 SUB SWAP1 DUP2 PUSH2 0x194B JUMPI SWAP1 POP JUMPDEST POP SWAP2 POP PUSH0 JUMPDEST PUSH2 0x1975 DUP6 DUP4 PUSH2 0x4AA2 JUMP JUMPDEST DUP2 LT ISZERO PUSH2 0x1B0D JUMPI PUSH1 0xB PUSH1 0xE PUSH1 0x1 DUP8 DUP5 PUSH1 0xE DUP1 SLOAD SWAP1 POP PUSH2 0x1994 SWAP2 SWAP1 PUSH2 0x4AA2 JUMP JUMPDEST PUSH2 0x199E SWAP2 SWAP1 PUSH2 0x4AA2 JUMP JUMPDEST PUSH2 0x19A8 SWAP2 SWAP1 PUSH2 0x4AA2 JUMP JUMPDEST DUP2 SLOAD DUP2 LT PUSH2 0x19B8 JUMPI PUSH2 0x19B8 PUSH2 0x4AB5 JUMP JUMPDEST SWAP1 PUSH0 MSTORE PUSH1 0x20 PUSH0 KECCAK256 ADD SLOAD DUP2 SLOAD DUP2 LT PUSH2 0x19D1 JUMPI PUSH2 0x19D1 PUSH2 0x4AB5 JUMP JUMPDEST PUSH0 SWAP2 DUP3 MSTORE PUSH1 0x20 SWAP2 DUP3 SWAP1 KECCAK256 PUSH1 0x40 DUP1 MLOAD PUSH2 0x1C0 DUP2 ADD DUP3 MSTORE PUSH1 0xD SWAP1 SWAP4 MUL SWAP1 SWAP2 ADD DUP1 SLOAD DUP4 MSTORE PUSH1 0x1 DUP2 ADD SLOAD PUSH1 0x1 PUSH1 0x1 PUSH1 0xA0 SHL SUB AND SWAP4 DUP4 ADD SWAP4 SWAP1 SWAP4 MSTORE PUSH1 0x2 DUP4 ADD SLOAD SWAP1 DUP3 ADD MSTORE PUSH1 0x3 DUP3 ADD SLOAD PUSH1 0x60 DUP3 ADD MSTORE PUSH1 0x4 DUP3 ADD SLOAD PUSH1 0x80 DUP3 ADD MSTORE PUSH1 0x5 DUP3 ADD SLOAD PUSH1 0xA0 DUP3 ADD MSTORE PUSH1 0x6 DUP3 ADD SLOAD PUSH1 0xC0 DUP3 ADD MSTORE PUSH1 0x7 DUP3 ADD SLOAD PUSH1 0xE0 DUP3 ADD MSTORE PUSH1 0x8 DUP3 ADD SLOAD PUSH2 0x100 DUP1 DUP4 ADD SWAP2 SWAP1 SWAP2 MSTORE PUSH1 0x9 DUP4 ADD SLOAD PUSH1 0xFF DUP1 DUP3 AND ISZERO ISZERO PUSH2 0x120 DUP6 ADD MSTORE SWAP2 SWAP1 DIV DUP2 AND ISZERO ISZERO PUSH2 0x140 DUP4 ADD MSTORE PUSH1 0xA DUP4 ADD SLOAD PUSH2 0x160 DUP4 ADD MSTORE PUSH1 0xB DUP4 ADD SLOAD AND ISZERO ISZERO PUSH2 0x180 DUP3 ADD MSTORE PUSH1 0xC SWAP1 SWAP2 ADD SLOAD PUSH2 0x1A0 DUP3 ADD MSTORE DUP4 MLOAD DUP5 SWAP1 DUP4 SWAP1 DUP2 LT PUSH2 0x1AA9 JUMPI PUSH2 0x1AA9 PUSH2 0x4AB5 JUMP JUMPDEST PUSH1 0x20 MUL PUSH1 0x20 ADD ADD DUP2 SWAP1 MSTORE POP PUSH2 0x1AD9 DUP4 DUP3 DUP2 MLOAD DUP2 LT PUSH2 0x1AC9 JUMPI PUSH2 0x1AC9 PUSH2 0x4AB5 JUMP JUMPDEST PUSH1 0x20 MUL PUSH1 0x20 ADD ADD MLOAD PUSH0 ADD MLOAD PUSH2 0x1202 JUMP JUMPDEST DUP4 DUP3 DUP2 MLOAD DUP2 LT PUSH2 0x1AEB JUMPI PUSH2 0x1AEB PUSH2 0x4AB5 JUMP JUMPDEST PUSH1 0x20 SWAP1 DUP2 MUL SWAP2 SWAP1 SWAP2 ADD ADD MLOAD PUSH2 0x100 ADD MSTORE DUP1 PUSH2 0x1B05 DUP2 PUSH2 0x4ADC JUMP JUMPDEST SWAP2 POP POP PUSH2 0x196B JUMP JUMPDEST POP POP JUMPDEST SWAP3 SWAP2 POP POP JUMP JUMPDEST PUSH1 0x60 DUP2 PUSH0 SUB PUSH2 0x1B25 JUMPI PUSH1 0x7 SLOAD SWAP2 POP JUMPDEST PUSH0 PUSH2 0x1B30 DUP4 DUP6 PUSH2 0x4AC9 JUMP JUMPDEST PUSH1 0x7 SLOAD SWAP1 SWAP2 POP DUP5 GT ISZERO PUSH2 0x1B43 JUMPI POP PUSH2 0x1B10 JUMP JUMPDEST PUSH1 0x7 SLOAD DUP2 GT ISZERO PUSH2 0x1B52 JUMPI POP PUSH1 0x7 SLOAD JUMPDEST PUSH2 0x1B5C DUP5 DUP3 PUSH2 0x4AA2 JUMP JUMPDEST PUSH8 0xFFFFFFFFFFFFFFFF DUP2 GT ISZERO PUSH2 0x1B74 JUMPI PUSH2 0x1B74 PUSH2 0x43D3 JUMP JUMPDEST PUSH1 0x40 MLOAD SWAP1 DUP1 DUP3 MSTORE DUP1 PUSH1 0x20 MUL PUSH1 0x20 ADD DUP3 ADD PUSH1 0x40 MSTORE DUP1 ISZERO PUSH2 0x1B9D JUMPI DUP2 PUSH1 0x20 ADD PUSH1 0x20 DUP3 MUL DUP1 CALLDATASIZE DUP4 CALLDATACOPY ADD SWAP1 POP JUMPDEST POP SWAP2 POP PUSH0 JUMPDEST PUSH2 0x1BAC DUP6 DUP4 PUSH2 0x4AA2 JUMP JUMPDEST DUP2 LT ISZERO PUSH2 0x1B0D JUMPI PUSH1 0x7 DUP1 SLOAD PUSH1 0x1 SWAP1 DUP8 SWAP1 PUSH2 0x1BC7 SWAP1 DUP6 SWAP1 PUSH2 0x4AA2 JUMP JUMPDEST PUSH2 0x1BD1 SWAP2 SWAP1 PUSH2 0x4AA2 JUMP JUMPDEST PUSH2 0x1BDB SWAP2 SWAP1 PUSH2 0x4AA2 JUMP JUMPDEST DUP2 SLOAD DUP2 LT PUSH2 0x1BEB JUMPI PUSH2 0x1BEB PUSH2 0x4AB5 JUMP JUMPDEST SWAP1 PUSH0 MSTORE PUSH1 0x20 PUSH0 KECCAK256 ADD PUSH0 SWAP1 SLOAD SWAP1 PUSH2 0x100 EXP SWAP1 DIV PUSH1 0x1 PUSH1 0x1 PUSH1 0xA0 SHL SUB AND DUP4 DUP3 DUP2 MLOAD DUP2 LT PUSH2 0x1C18 JUMPI PUSH2 0x1C18 PUSH2 0x4AB5 JUMP JUMPDEST PUSH1 0x1 PUSH1 0x1 PUSH1 0xA0 SHL SUB SWAP1 SWAP3 AND PUSH1 0x20 SWAP3 DUP4 MUL SWAP2 SWAP1 SWAP2 ADD SWAP1 SWAP2 ADD MSTORE DUP1 PUSH2 0x1C3A DUP2 PUSH2 0x4ADC JUMP JUMPDEST SWAP2 POP POP PUSH2 0x1BA2 JUMP JUMPDEST PUSH1 0x60 DUP2 PUSH0 SUB PUSH2 0x1C66 JUMPI PUSH1 0x1 PUSH1 0x1 PUSH1 0xA0 SHL SUB DUP5 AND PUSH0 SWAP1 DUP2 MSTORE PUSH1 0x9 PUSH1 0x20 MSTORE PUSH1 0x40 SWAP1 KECCAK256 SLOAD SWAP2 POP JUMPDEST PUSH0 PUSH2 0x1C71 DUP4 DUP6 PUSH2 0x4AC9 JUMP JUMPDEST PUSH1 0x1 PUSH1 0x1 PUSH1 0xA0 SHL SUB DUP7 AND PUSH0 SWAP1 DUP2 MSTORE PUSH1 0x9 PUSH1 0x20 MSTORE PUSH1 0x40 SWAP1 KECCAK256 SLOAD SWAP1 SWAP2 POP DUP5 GT ISZERO PUSH2 0x1C99 JUMPI POP PUSH2 0x1EDC JUMP JUMPDEST PUSH1 0x1 PUSH1 0x1 PUSH1 0xA0 SHL SUB DUP6 AND PUSH0 SWAP1 DUP2 MSTORE PUSH1 0x9 PUSH1 0x20 MSTORE PUSH1 0x40 SWAP1 KECCAK256 SLOAD DUP2 GT ISZERO PUSH2 0x1CD2 JUMPI POP PUSH1 0x1 PUSH1 0x1 PUSH1 0xA0 SHL SUB DUP5 AND PUSH0 SWAP1 DUP2 MSTORE PUSH1 0x9 PUSH1 0x20 MSTORE PUSH1 0x40 SWAP1 KECCAK256 SLOAD JUMPDEST PUSH2 0x1CDC DUP5 DUP3 PUSH2 0x4AA2 JUMP JUMPDEST PUSH8 0xFFFFFFFFFFFFFFFF DUP2 GT ISZERO PUSH2 0x1CF4 JUMPI PUSH2 0x1CF4 PUSH2 0x43D3 JUMP JUMPDEST PUSH1 0x40 MLOAD SWAP1 DUP1 DUP3 MSTORE DUP1 PUSH1 0x20 MUL PUSH1 0x20 ADD DUP3 ADD PUSH1 0x40 MSTORE DUP1 ISZERO PUSH2 0x1D2D JUMPI DUP2 PUSH1 0x20 ADD JUMPDEST PUSH2 0x1D1A PUSH2 0x4281 JUMP JUMPDEST DUP2 MSTORE PUSH1 0x20 ADD SWAP1 PUSH1 0x1 SWAP1 SUB SWAP1 DUP2 PUSH2 0x1D12 JUMPI SWAP1 POP JUMPDEST POP SWAP2 POP PUSH0 JUMPDEST PUSH2 0x1D3C DUP6 DUP4 PUSH2 0x4AA2 JUMP JUMPDEST DUP2 LT ISZERO PUSH2 0x1ED9 JUMPI PUSH1 0x1 PUSH1 0x1 PUSH1 0xA0 SHL SUB DUP7 AND PUSH0 SWAP1 DUP2 MSTORE PUSH1 0x9 PUSH1 0x20 MSTORE PUSH1 0x40 SWAP1 KECCAK256 DUP1 SLOAD PUSH1 0xB SWAP2 SWAP1 PUSH1 0x1 SWAP1 DUP9 SWAP1 PUSH2 0x1D70 SWAP1 DUP7 SWAP1 PUSH2 0x4AA2 JUMP JUMPDEST PUSH2 0x1D7A SWAP2 SWAP1 PUSH2 0x4AA2 JUMP JUMPDEST PUSH2 0x1D84 SWAP2 SWAP1 PUSH2 0x4AA2 JUMP JUMPDEST DUP2 SLOAD DUP2 LT PUSH2 0x1D94 JUMPI PUSH2 0x1D94 PUSH2 0x4AB5 JUMP JUMPDEST SWAP1 PUSH0 MSTORE PUSH1 0x20 PUSH0 KECCAK256 ADD SLOAD DUP2 SLOAD DUP2 LT PUSH2 0x1DAD JUMPI PUSH2 0x1DAD PUSH2 0x4AB5 JUMP JUMPDEST PUSH0 SWAP2 DUP3 MSTORE PUSH1 0x20 SWAP2 DUP3 SWAP1 KECCAK256 PUSH1 0x40 DUP1 MLOAD PUSH2 0x1C0 DUP2 ADD DUP3 MSTORE PUSH1 0xD SWAP1 SWAP4 MUL SWAP1 SWAP2 ADD DUP1 SLOAD DUP4 MSTORE PUSH1 0x1 DUP2 ADD SLOAD PUSH1 0x1 PUSH1 0x1 PUSH1 0xA0 SHL SUB AND SWAP4 DUP4 ADD SWAP4 SWAP1 SWAP4 MSTORE PUSH1 0x2 DUP4 ADD SLOAD SWAP1 DUP3 ADD MSTORE PUSH1 0x3 DUP3 ADD SLOAD PUSH1 0x60 DUP3 ADD MSTORE PUSH1 0x4 DUP3 ADD SLOAD PUSH1 0x80 DUP3 ADD MSTORE PUSH1 0x5 DUP3 ADD SLOAD PUSH1 0xA0 DUP3 ADD MSTORE PUSH1 0x6 DUP3 ADD SLOAD PUSH1 0xC0 DUP3 ADD MSTORE PUSH1 0x7 DUP3 ADD SLOAD PUSH1 0xE0 DUP3 ADD MSTORE PUSH1 0x8 DUP3 ADD SLOAD PUSH2 0x100 DUP1 DUP4 ADD SWAP2 SWAP1 SWAP2 MSTORE PUSH1 0x9 DUP4 ADD SLOAD PUSH1 0xFF DUP1 DUP3 AND ISZERO ISZERO PUSH2 0x120 DUP6 ADD MSTORE SWAP2 SWAP1 DIV DUP2 AND ISZERO ISZERO PUSH2 0x140 DUP4 ADD MSTORE PUSH1 0xA DUP4 ADD SLOAD PUSH2 0x160 DUP4 ADD MSTORE PUSH1 0xB DUP4 ADD SLOAD AND ISZERO ISZERO PUSH2 0x180 DUP3 ADD MSTORE PUSH1 0xC SWAP1 SWAP2 ADD SLOAD PUSH2 0x1A0 DUP3 ADD MSTORE DUP4 MLOAD DUP5 SWAP1 DUP4 SWAP1 DUP2 LT PUSH2 0x1E85 JUMPI PUSH2 0x1E85 PUSH2 0x4AB5 JUMP JUMPDEST PUSH1 0x20 MUL PUSH1 0x20 ADD ADD DUP2 SWAP1 MSTORE POP PUSH2 0x1EA5 DUP4 DUP3 DUP2 MLOAD DUP2 LT PUSH2 0x1AC9 JUMPI PUSH2 0x1AC9 PUSH2 0x4AB5 JUMP JUMPDEST DUP4 DUP3 DUP2 MLOAD DUP2 LT PUSH2 0x1EB7 JUMPI PUSH2 0x1EB7 PUSH2 0x4AB5 JUMP JUMPDEST PUSH1 0x20 SWAP1 DUP2 MUL SWAP2 SWAP1 SWAP2 ADD ADD MLOAD PUSH2 0x100 ADD MSTORE DUP1 PUSH2 0x1ED1 DUP2 PUSH2 0x4ADC JUMP JUMPDEST SWAP2 POP POP PUSH2 0x1D32 JUMP JUMPDEST POP POP JUMPDEST SWAP4 SWAP3 POP POP POP JUMP JUMPDEST PUSH1 0x1 SLOAD PUSH1 0x1 PUSH1 0x1 PUSH1 0xA0 SHL SUB AND CALLER EQ PUSH2 0x1F0D JUMPI PUSH1 0x40 MLOAD PUSH3 0x461BCD PUSH1 0xE5 SHL DUP2 MSTORE PUSH1 0x4 ADD PUSH2 0x967 SWAP1 PUSH2 0x4A45 JUMP JUMPDEST PUSH1 0x5 SSTORE JUMP JUMPDEST PUSH1 0x60 DUP2 PUSH0 SUB PUSH2 0x1F21 JUMPI PUSH1 0x14 SLOAD SWAP2 POP JUMPDEST PUSH0 PUSH2 0x1F2C DUP4 DUP6 PUSH2 0x4AC9 JUMP JUMPDEST PUSH1 0x14 SLOAD SWAP1 SWAP2 POP DUP5 GT ISZERO PUSH2 0x1F3F JUMPI POP PUSH2 0x1B10 JUMP JUMPDEST PUSH1 0x14 SLOAD DUP2 GT ISZERO PUSH2 0x1F4E JUMPI POP PUSH1 0x14 SLOAD JUMPDEST PUSH2 0x1F58 DUP5 DUP3 PUSH2 0x4AA2 JUMP JUMPDEST PUSH8 0xFFFFFFFFFFFFFFFF DUP2 GT ISZERO PUSH2 0x1F70 JUMPI PUSH2 0x1F70 PUSH2 0x43D3 JUMP JUMPDEST PUSH1 0x40 MLOAD SWAP1 DUP1 DUP3 MSTORE DUP1 PUSH1 0x20 MUL PUSH1 0x20 ADD DUP3 ADD PUSH1 0x40 MSTORE DUP1 ISZERO PUSH2 0x1FDA JUMPI DUP2 PUSH1 0x20 ADD JUMPDEST PUSH2 0x1FC7 PUSH1 0x40 MLOAD DUP1 PUSH1 0xE0 ADD PUSH1 0x40 MSTORE DUP1 PUSH0 DUP2 MSTORE PUSH1 0x20 ADD PUSH0 DUP2 MSTORE PUSH1 0x20 ADD PUSH0 DUP2 MSTORE PUSH1 0x20 ADD PUSH0 DUP2 MSTORE PUSH1 0x20 ADD PUSH0 DUP2 MSTORE PUSH1 0x20 ADD PUSH0 DUP2 MSTORE PUSH1 0x20 ADD PUSH0 DUP2 MSTORE POP SWAP1 JUMP JUMPDEST DUP2 MSTORE PUSH1 0x20 ADD SWAP1 PUSH1 0x1 SWAP1 SUB SWAP1 DUP2 PUSH2 0x1F8E JUMPI SWAP1 POP JUMPDEST POP SWAP2 POP PUSH0 JUMPDEST PUSH2 0x1FE9 DUP6 DUP4 PUSH2 0x4AA2 JUMP JUMPDEST DUP2 LT ISZERO PUSH2 0x1B0D JUMPI PUSH0 PUSH1 0x1 DUP7 DUP4 PUSH1 0x14 DUP1 SLOAD SWAP1 POP PUSH2 0x2005 SWAP2 SWAP1 PUSH2 0x4AA2 JUMP JUMPDEST PUSH2 0x200F SWAP2 SWAP1 PUSH2 0x4AA2 JUMP JUMPDEST PUSH2 0x2019 SWAP2 SWAP1 PUSH2 0x4AA2 JUMP JUMPDEST SWAP1 POP PUSH1 0x40 MLOAD DUP1 PUSH1 0xE0 ADD PUSH1 0x40 MSTORE DUP1 DUP3 DUP2 MSTORE PUSH1 0x20 ADD PUSH1 0x14 DUP4 DUP2 SLOAD DUP2 LT PUSH2 0x203F JUMPI PUSH2 0x203F PUSH2 0x4AB5 JUMP JUMPDEST SWAP1 PUSH0 MSTORE PUSH1 0x20 PUSH0 KECCAK256 SWAP1 PUSH1 0x3 MUL ADD PUSH0 ADD SLOAD DUP2 MSTORE PUSH1 0x20 ADD PUSH1 0x14 DUP4 DUP2 SLOAD DUP2 LT PUSH2 0x2066 JUMPI PUSH2 0x2066 PUSH2 0x4AB5 JUMP JUMPDEST SWAP1 PUSH0 MSTORE PUSH1 0x20 PUSH0 KECCAK256 SWAP1 PUSH1 0x3 MUL ADD PUSH1 0x1 ADD SLOAD DUP2 MSTORE PUSH1 0x20 ADD PUSH1 0x14 DUP4 DUP2 SLOAD DUP2 LT PUSH2 0x208E JUMPI PUSH2 0x208E PUSH2 0x4AB5 JUMP JUMPDEST PUSH0 SWAP2 DUP3 MSTORE PUSH1 0x20 DUP1 DUP4 KECCAK256 PUSH1 0x2 PUSH1 0x3 SWAP1 SWAP4 MUL ADD SWAP2 SWAP1 SWAP2 ADD SLOAD DUP4 MSTORE DUP5 DUP3 MSTORE PUSH1 0x15 DUP2 MSTORE PUSH1 0x40 DUP1 DUP4 KECCAK256 SLOAD DUP5 DUP4 ADD MSTORE DUP6 DUP4 MSTORE PUSH1 0x16 DUP3 MSTORE DUP1 DUP4 KECCAK256 SLOAD DUP2 DUP6 ADD MSTORE DUP6 DUP4 MSTORE PUSH1 0x17 SWAP1 SWAP2 MSTORE SWAP1 KECCAK256 SLOAD PUSH1 0x60 SWAP1 SWAP2 ADD MSTORE DUP5 MLOAD DUP6 SWAP1 DUP5 SWAP1 DUP2 LT PUSH2 0x20EB JUMPI PUSH2 0x20EB PUSH2 0x4AB5 JUMP JUMPDEST PUSH1 0x20 MUL PUSH1 0x20 ADD ADD DUP2 SWAP1 MSTORE POP POP DUP1 DUP1 PUSH2 0x2102 SWAP1 PUSH2 0x4ADC JUMP JUMPDEST SWAP2 POP POP PUSH2 0x1FDF JUMP JUMPDEST PUSH2 0x2112 PUSH2 0x3975 JUMP JUMPDEST PUSH0 PUSH1 0xB DUP3 DUP2 SLOAD DUP2 LT PUSH2 0x2126 JUMPI PUSH2 0x2126 PUSH2 0x4AB5 JUMP JUMPDEST PUSH0 SWAP2 DUP3 MSTORE PUSH1 0x20 SWAP1 SWAP2 KECCAK256 PUSH1 0xD SWAP1 SWAP2 MUL ADD PUSH1 0x9 DUP2 ADD SLOAD SWAP1 SWAP2 POP PUSH1 0xFF AND PUSH2 0x215C JUMPI PUSH1 0x40 MLOAD PUSH3 0x461BCD PUSH1 0xE5 SHL DUP2 MSTORE PUSH1 0x4 ADD PUSH2 0x967 SWAP1 PUSH2 0x4C64 JUMP JUMPDEST PUSH1 0x1 DUP2 ADD SLOAD PUSH1 0x1 PUSH1 0x1 PUSH1 0xA0 SHL SUB AND CALLER EQ PUSH2 0x2188 JUMPI PUSH1 0x40 MLOAD PUSH3 0x461BCD PUSH1 0xE5 SHL DUP2 MSTORE PUSH1 0x4 ADD PUSH2 0x967 SWAP1 PUSH2 0x4AF4 JUMP JUMPDEST PUSH0 PUSH2 0x2191 PUSH2 0x2D1B JUMP JUMPDEST SWAP1 POP DUP2 PUSH1 0x6 ADD SLOAD DUP2 LT ISZERO PUSH2 0x21D0 JUMPI PUSH1 0x40 MLOAD PUSH3 0x461BCD PUSH1 0xE5 SHL DUP2 MSTORE PUSH1 0x20 PUSH1 0x4 DUP3 ADD MSTORE PUSH1 0x6 PUSH1 0x24 DUP3 ADD MSTORE PUSH6 0x131BD8DAD959 PUSH1 0xD2 SHL PUSH1 0x44 DUP3 ADD MSTORE PUSH1 0x64 ADD PUSH2 0x967 JUMP JUMPDEST PUSH0 PUSH2 0x21DA DUP5 PUSH2 0x1202 JUMP JUMPDEST SWAP1 POP DUP1 PUSH1 0x13 SLOAD LT ISZERO PUSH2 0x21FE JUMPI PUSH1 0x40 MLOAD PUSH3 0x461BCD PUSH1 0xE5 SHL DUP2 MSTORE PUSH1 0x4 ADD PUSH2 0x967 SWAP1 PUSH2 0x4B17 JUMP JUMPDEST PUSH0 DUP2 DUP5 PUSH1 0x2 ADD SLOAD PUSH2 0x220F SWAP2 SWAP1 PUSH2 0x4AC9 JUMP JUMPDEST SWAP1 POP DUP4 PUSH1 0x2 ADD SLOAD PUSH1 0x11 PUSH0 DUP3 DUP3 SLOAD PUSH2 0x2226 SWAP2 SWAP1 PUSH2 0x4AA2 JUMP JUMPDEST SWAP1 SWAP2 SSTORE POP POP PUSH1 0x9 DUP5 ADD DUP1 SLOAD PUSH1 0xFF NOT AND SWAP1 SSTORE TIMESTAMP PUSH1 0x5 DUP6 ADD SSTORE PUSH1 0x7 DUP5 ADD SLOAD PUSH0 SWAP1 PUSH2 0x224E SWAP1 DUP3 PUSH2 0x40CF JUMP JUMPDEST PUSH1 0x7 DUP7 ADD DUP2 SWAP1 SSTORE PUSH1 0xA DUP6 SWAP1 SSTORE PUSH1 0x10 DUP1 SLOAD SWAP2 SWAP3 POP PUSH0 PUSH2 0x226B DUP4 PUSH2 0x4C86 JUMP JUMPDEST SWAP2 SWAP1 POP SSTORE POP DUP3 PUSH1 0x13 PUSH0 DUP3 DUP3 SLOAD PUSH2 0x2281 SWAP2 SWAP1 PUSH2 0x4AA2 JUMP JUMPDEST SWAP3 POP POP DUP2 SWAP1 SSTORE POP DUP3 PUSH1 0x12 PUSH0 DUP3 DUP3 SLOAD PUSH2 0x2299 SWAP2 SWAP1 PUSH2 0x4AC9 JUMP JUMPDEST SWAP1 SWAP2 SSTORE POP POP PUSH0 DUP7 DUP2 MSTORE PUSH1 0xC PUSH1 0x20 MSTORE PUSH1 0x40 DUP2 KECCAK256 DUP1 SLOAD DUP6 SWAP3 SWAP1 PUSH2 0x22BB SWAP1 DUP5 SWAP1 PUSH2 0x4AC9 JUMP JUMPDEST SWAP1 SWAP2 SSTORE POP PUSH2 0x22CA SWAP1 POP DUP7 PUSH2 0x415B JUMP JUMPDEST PUSH0 DUP5 DUP2 MSTORE PUSH1 0x17 PUSH1 0x20 MSTORE PUSH1 0x40 DUP2 KECCAK256 DUP1 SLOAD DUP6 SWAP3 SWAP1 PUSH2 0x22E7 SWAP1 DUP5 SWAP1 PUSH2 0x4AC9 JUMP JUMPDEST SWAP1 SWAP2 SSTORE POP POP PUSH1 0x40 MLOAD PUSH4 0xA9059CBB PUSH1 0xE0 SHL DUP2 MSTORE CALLER PUSH1 0x4 DUP3 ADD MSTORE PUSH1 0x24 DUP2 ADD DUP4 SWAP1 MSTORE PUSH32 0x0 PUSH1 0x1 PUSH1 0x1 PUSH1 0xA0 SHL SUB AND SWAP1 PUSH4 0xA9059CBB SWAP1 PUSH1 0x44 ADD PUSH1 0x20 PUSH1 0x40 MLOAD DUP1 DUP4 SUB DUP2 PUSH0 DUP8 GAS CALL ISZERO DUP1 ISZERO PUSH2 0x2356 JUMPI RETURNDATASIZE PUSH0 DUP1 RETURNDATACOPY RETURNDATASIZE PUSH0 REVERT JUMPDEST POP POP POP POP PUSH1 0x40 MLOAD RETURNDATASIZE PUSH1 0x1F NOT PUSH1 0x1F DUP3 ADD AND DUP3 ADD DUP1 PUSH1 0x40 MSTORE POP DUP2 ADD SWAP1 PUSH2 0x237A SWAP2 SWAP1 PUSH2 0x4B3B JUMP JUMPDEST PUSH2 0x2396 JUMPI PUSH1 0x40 MLOAD PUSH3 0x461BCD PUSH1 0xE5 SHL DUP2 MSTORE PUSH1 0x4 ADD PUSH2 0x967 SWAP1 PUSH2 0x4B56 JUMP JUMPDEST PUSH1 0x40 DUP1 MLOAD DUP8 DUP2 MSTORE PUSH1 0x20 DUP2 ADD DUP5 SWAP1 MSTORE CALLER SWAP2 PUSH32 0x217EA3989B9D3112D2133A930216F444B7FBCAEAA4D5BC0220D099FDC928E71E SWAP2 ADD PUSH1 0x40 MLOAD DUP1 SWAP2 SUB SWAP1 LOG2 POP POP POP POP POP PUSH2 0x1175 PUSH1 0x1 PUSH0 SSTORE JUMP JUMPDEST PUSH2 0x23E7 PUSH2 0x3975 JUMP JUMPDEST PUSH0 PUSH1 0xB DUP3 DUP2 SLOAD DUP2 LT PUSH2 0x23FB JUMPI PUSH2 0x23FB PUSH2 0x4AB5 JUMP JUMPDEST PUSH0 SWAP2 DUP3 MSTORE PUSH1 0x20 SWAP1 SWAP2 KECCAK256 PUSH1 0xD SWAP1 SWAP2 MUL ADD PUSH1 0x9 DUP2 ADD SLOAD SWAP1 SWAP2 POP PUSH1 0xFF AND PUSH2 0x2431 JUMPI PUSH1 0x40 MLOAD PUSH3 0x461BCD PUSH1 0xE5 SHL DUP2 MSTORE PUSH1 0x4 ADD PUSH2 0x967 SWAP1 PUSH2 0x4C64 JUMP JUMPDEST PUSH1 0x1 DUP2 ADD SLOAD PUSH1 0x1 PUSH1 0x1 PUSH1 0xA0 SHL SUB AND CALLER EQ PUSH2 0x245D JUMPI PUSH1 0x40 MLOAD PUSH3 0x461BCD PUSH1 0xE5 SHL DUP2 MSTORE PUSH1 0x4 ADD PUSH2 0x967 SWAP1 PUSH2 0x4AF4 JUMP JUMPDEST PUSH0 PUSH2 0x2466 PUSH2 0x2D1B JUMP JUMPDEST SWAP1 POP DUP2 PUSH1 0x6 ADD SLOAD DUP2 LT ISZERO PUSH2 0x24A5 JUMPI PUSH1 0x40 MLOAD PUSH3 0x461BCD PUSH1 0xE5 SHL DUP2 MSTORE PUSH1 0x20 PUSH1 0x4 DUP3 ADD MSTORE PUSH1 0x6 PUSH1 0x24 DUP3 ADD MSTORE PUSH6 0x131BD8DAD959 PUSH1 0xD2 SHL PUSH1 0x44 DUP3 ADD MSTORE PUSH1 0x64 ADD PUSH2 0x967 JUMP JUMPDEST PUSH0 PUSH2 0x24AF DUP5 PUSH2 0x1202 JUMP JUMPDEST SWAP1 POP DUP3 PUSH1 0x2 ADD SLOAD PUSH1 0x11 PUSH0 DUP3 DUP3 SLOAD PUSH2 0x24C6 SWAP2 SWAP1 PUSH2 0x4AA2 JUMP JUMPDEST SWAP1 SWAP2 SSTORE POP POP PUSH1 0x9 DUP4 ADD DUP1 SLOAD PUSH2 0xFFFF NOT AND PUSH2 0x100 OR SWAP1 SSTORE PUSH1 0xA DUP1 DUP5 ADD DUP3 SWAP1 SSTORE TIMESTAMP PUSH1 0x5 DUP6 ADD SSTORE DUP3 SWAP1 SSTORE PUSH1 0x10 DUP1 SLOAD SWAP1 PUSH0 PUSH2 0x24FC DUP4 PUSH2 0x4C86 JUMP JUMPDEST SWAP2 SWAP1 POP SSTORE POP PUSH2 0x250A DUP5 PUSH2 0x415B JUMP JUMPDEST PUSH0 DUP3 DUP2 MSTORE PUSH1 0x17 PUSH1 0x20 MSTORE PUSH1 0x40 DUP2 KECCAK256 DUP1 SLOAD DUP4 SWAP3 SWAP1 PUSH2 0x2527 SWAP1 DUP5 SWAP1 PUSH2 0x4AC9 JUMP JUMPDEST SWAP3 POP POP DUP2 SWAP1 SSTORE POP DUP1 PUSH1 0x12 PUSH0 DUP3 DUP3 SLOAD PUSH2 0x253F SWAP2 SWAP1 PUSH2 0x4AC9 JUMP JUMPDEST SWAP1 SWAP2 SSTORE POP POP PUSH1 0x1 DUP4 ADD SLOAD PUSH1 0x2 DUP5 ADD SLOAD PUSH1 0x40 MLOAD PUSH4 0xA9059CBB PUSH1 0xE0 SHL DUP2 MSTORE PUSH1 0x1 PUSH1 0x1 PUSH1 0xA0 SHL SUB SWAP3 DUP4 AND PUSH1 0x4 DUP3 ADD MSTORE PUSH1 0x24 DUP2 ADD SWAP2 SWAP1 SWAP2 MSTORE PUSH32 0x0 SWAP1 SWAP2 AND SWAP1 PUSH4 0xA9059CBB SWAP1 PUSH1 0x44 ADD PUSH1 0x20 PUSH1 0x40 MLOAD DUP1 DUP4 SUB DUP2 PUSH0 DUP8 GAS CALL ISZERO DUP1 ISZERO PUSH2 0x25BD JUMPI RETURNDATASIZE PUSH0 DUP1 RETURNDATACOPY RETURNDATASIZE PUSH0 REVERT JUMPDEST POP POP POP POP PUSH1 0x40 MLOAD RETURNDATASIZE PUSH1 0x1F NOT PUSH1 0x1F DUP3 ADD AND DUP3 ADD DUP1 PUSH1 0x40 MSTORE POP DUP2 ADD SWAP1 PUSH2 0x25E1 SWAP2 SWAP1 PUSH2 0x4B3B JUMP JUMPDEST PUSH2 0x25FD JUMPI PUSH1 0x40 MLOAD PUSH3 0x461BCD PUSH1 0xE5 SHL DUP2 MSTORE PUSH1 0x4 ADD PUSH2 0x967 SWAP1 PUSH2 0x4B56 JUMP JUMPDEST PUSH1 0x1 DUP4 ADD SLOAD DUP4 SLOAD PUSH1 0x2 DUP6 ADD SLOAD PUSH1 0x40 DUP1 MLOAD SWAP3 DUP4 MSTORE PUSH1 0x20 DUP4 ADD SWAP2 SWAP1 SWAP2 MSTORE DUP2 ADD DUP4 SWAP1 MSTORE PUSH1 0x1 PUSH1 0x1 PUSH1 0xA0 SHL SUB SWAP1 SWAP2 AND SWAP1 PUSH32 0x2BB9E1005BD12ABFF0A36B08286208299F11BAC0718C4590FD6F4EABD7667CF9 SWAP1 PUSH1 0x60 ADD JUMPDEST PUSH1 0x40 MLOAD DUP1 SWAP2 SUB SWAP1 LOG2 POP POP POP PUSH2 0x1175 PUSH1 0x1 PUSH0 SSTORE JUMP JUMPDEST PUSH0 DUP5 ISZERO DUP1 PUSH2 0x266F JUMPI POP DUP3 ISZERO JUMPDEST DUP1 PUSH2 0x267C JUMPI POP PUSH1 0x14 SLOAD DUP5 LT ISZERO JUMPDEST ISZERO PUSH2 0x2688 JUMPI POP PUSH0 PUSH2 0x27FE JUMP JUMPDEST PUSH0 PUSH2 0x2693 DUP5 DUP7 PUSH2 0x4AC9 JUMP JUMPDEST PUSH1 0x14 SLOAD SWAP1 SWAP2 POP DUP2 GT ISZERO PUSH2 0x26B4 JUMPI POP PUSH1 0x14 SLOAD DUP5 DUP2 GT PUSH2 0x26B4 JUMPI PUSH0 SWAP2 POP POP PUSH2 0x27FE JUMP JUMPDEST DUP3 PUSH0 SUB PUSH2 0x26BF JUMPI TIMESTAMP SWAP3 POP JUMPDEST DUP1 PUSH0 DUP7 JUMPDEST DUP3 DUP2 LT ISZERO PUSH2 0x27F8 JUMPI PUSH1 0x14 SLOAD DUP2 LT ISZERO PUSH2 0x27F8 JUMPI PUSH0 PUSH1 0x14 DUP3 DUP2 SLOAD DUP2 LT PUSH2 0x26E9 JUMPI PUSH2 0x26E9 PUSH2 0x4AB5 JUMP JUMPDEST SWAP1 PUSH0 MSTORE PUSH1 0x20 PUSH0 KECCAK256 SWAP1 PUSH1 0x3 MUL ADD PUSH1 0x40 MLOAD DUP1 PUSH1 0x60 ADD PUSH1 0x40 MSTORE SWAP1 DUP2 PUSH0 DUP3 ADD SLOAD DUP2 MSTORE PUSH1 0x20 ADD PUSH1 0x1 DUP3 ADD SLOAD DUP2 MSTORE PUSH1 0x20 ADD PUSH1 0x2 DUP3 ADD SLOAD DUP2 MSTORE POP POP SWAP1 POP PUSH0 PUSH2 0x2729 DUP4 PUSH2 0x411D JUMP JUMPDEST SWAP1 POP PUSH0 PUSH2 0x2710 PUSH2 0x2739 DUP4 DUP15 PUSH2 0x4B7F JUMP JUMPDEST PUSH2 0x2743 SWAP2 SWAP1 PUSH2 0x4B96 JUMP JUMPDEST SWAP1 POP DUP11 DUP5 SUB PUSH2 0x27D5 JUMPI DUP3 MLOAD PUSH1 0x20 DUP5 ADD MLOAD PUSH0 PUSH2 0x275E DUP4 DUP4 PUSH2 0x4AA2 JUMP JUMPDEST SWAP1 POP PUSH0 DUP4 DUP14 GT PUSH2 0x276E JUMPI DUP4 PUSH2 0x2770 JUMP JUMPDEST DUP13 JUMPDEST SWAP1 POP DUP3 DUP1 DUP3 LT PUSH2 0x2787 JUMPI POP POP POP POP POP POP POP POP PUSH2 0x27E6 JUMP JUMPDEST PUSH0 PUSH2 0x2792 DUP4 DUP4 PUSH2 0x4AA2 JUMP JUMPDEST SWAP1 POP DUP4 PUSH0 SUB PUSH2 0x27A9 JUMPI POP POP POP POP POP POP POP POP POP PUSH2 0x27E6 JUMP JUMPDEST DUP4 PUSH2 0x27B4 DUP3 DUP10 PUSH2 0x4B7F JUMP JUMPDEST PUSH2 0x27BE SWAP2 SWAP1 PUSH2 0x4B96 JUMP JUMPDEST PUSH2 0x27C8 SWAP1 DUP13 PUSH2 0x4AC9 JUMP JUMPDEST SWAP11 POP POP POP POP POP POP POP PUSH2 0x27E2 JUMP JUMPDEST PUSH2 0x27DF DUP2 DUP7 PUSH2 0x4AC9 JUMP JUMPDEST SWAP5 POP JUMPDEST POP POP POP JUMPDEST DUP1 PUSH2 0x27F0 DUP2 PUSH2 0x4ADC JUMP JUMPDEST SWAP2 POP POP PUSH2 0x26C3 JUMP JUMPDEST POP SWAP3 POP POP POP JUMPDEST SWAP5 SWAP4 POP POP POP POP JUMP JUMPDEST PUSH2 0x280E PUSH2 0x3975 JUMP JUMPDEST PUSH1 0x1 SLOAD PUSH1 0x1 PUSH1 0x1 PUSH1 0xA0 SHL SUB AND CALLER EQ PUSH2 0x2838 JUMPI PUSH1 0x40 MLOAD PUSH3 0x461BCD PUSH1 0xE5 SHL DUP2 MSTORE PUSH1 0x4 ADD PUSH2 0x967 SWAP1 PUSH2 0x4A45 JUMP JUMPDEST PUSH0 PUSH1 0xB DUP3 DUP2 SLOAD DUP2 LT PUSH2 0x284C JUMPI PUSH2 0x284C PUSH2 0x4AB5 JUMP JUMPDEST PUSH0 SWAP2 DUP3 MSTORE PUSH1 0x20 SWAP1 SWAP2 KECCAK256 PUSH1 0xD SWAP1 SWAP2 MUL ADD PUSH1 0x9 DUP2 ADD SLOAD SWAP1 SWAP2 POP PUSH1 0xFF AND PUSH2 0x28A5 JUMPI PUSH1 0x40 MLOAD PUSH3 0x461BCD PUSH1 0xE5 SHL DUP2 MSTORE PUSH1 0x20 PUSH1 0x4 DUP3 ADD MSTORE PUSH1 0x10 PUSH1 0x24 DUP3 ADD MSTORE PUSH16 0x4465706F73697420696E616374697665 PUSH1 0x80 SHL PUSH1 0x44 DUP3 ADD MSTORE PUSH1 0x64 ADD PUSH2 0x967 JUMP JUMPDEST DUP1 SLOAD PUSH0 SWAP1 DUP2 MSTORE PUSH1 0xD PUSH1 0x20 MSTORE PUSH1 0x40 SWAP1 KECCAK256 SLOAD PUSH1 0xFF AND PUSH2 0x2904 JUMPI PUSH1 0x40 MLOAD PUSH3 0x461BCD PUSH1 0xE5 SHL DUP2 MSTORE PUSH1 0x20 PUSH1 0x4 DUP3 ADD MSTORE PUSH1 0x1F PUSH1 0x24 DUP3 ADD MSTORE PUSH32 0x43616E206F6E6C792063616E63656C206F7261636C65206465706F7369747300 PUSH1 0x44 DUP3 ADD MSTORE PUSH1 0x64 ADD PUSH2 0x967 JUMP JUMPDEST PUSH1 0x9 DUP2 ADD DUP1 SLOAD PUSH1 0xFF NOT AND SWAP1 SSTORE PUSH1 0x10 DUP1 SLOAD SWAP1 PUSH0 PUSH2 0x291F DUP4 PUSH2 0x4C86 JUMP JUMPDEST SWAP2 SWAP1 POP SSTORE POP DUP1 PUSH1 0x2 ADD SLOAD PUSH1 0x11 PUSH0 DUP3 DUP3 SLOAD PUSH2 0x2939 SWAP2 SWAP1 PUSH2 0x4AA2 JUMP JUMPDEST SWAP1 SWAP2 SSTORE POP POP PUSH1 0x2 DUP2 ADD SLOAD PUSH1 0x40 MLOAD PUSH4 0xA9059CBB PUSH1 0xE0 SHL DUP2 MSTORE CALLER PUSH1 0x4 DUP3 ADD MSTORE PUSH1 0x24 DUP2 ADD SWAP2 SWAP1 SWAP2 MSTORE PUSH32 0x0 PUSH1 0x1 PUSH1 0x1 PUSH1 0xA0 SHL SUB AND SWAP1 PUSH4 0xA9059CBB SWAP1 PUSH1 0x44 ADD PUSH1 0x20 PUSH1 0x40 MLOAD DUP1 DUP4 SUB DUP2 PUSH0 DUP8 GAS CALL ISZERO DUP1 ISZERO PUSH2 0x29AE JUMPI RETURNDATASIZE PUSH0 DUP1 RETURNDATACOPY RETURNDATASIZE PUSH0 REVERT JUMPDEST POP POP POP POP PUSH1 0x40 MLOAD RETURNDATASIZE PUSH1 0x1F NOT PUSH1 0x1F DUP3 ADD AND DUP3 ADD DUP1 PUSH1 0x40 MSTORE POP DUP2 ADD SWAP1 PUSH2 0x29D2 SWAP2 SWAP1 PUSH2 0x4B3B JUMP JUMPDEST PUSH2 0x29EE JUMPI PUSH1 0x40 MLOAD PUSH3 0x461BCD PUSH1 0xE5 SHL DUP2 MSTORE PUSH1 0x4 ADD PUSH2 0x967 SWAP1 PUSH2 0x4B56 JUMP JUMPDEST DUP1 SLOAD PUSH1 0x2 DUP3 ADD SLOAD PUSH1 0x40 MLOAD CALLER SWAP3 PUSH32 0x24C9E122007BD4087408943168FBCD65248594530E482B6A9ABE4484767EB0C3 SWAP3 PUSH2 0x2A2E SWAP3 SWAP2 DUP3 MSTORE PUSH1 0x20 DUP3 ADD MSTORE PUSH1 0x40 ADD SWAP1 JUMP JUMPDEST PUSH1 0x40 MLOAD DUP1 SWAP2 SUB SWAP1 LOG2 POP PUSH2 0x1175 PUSH1 0x1 PUSH0 SSTORE JUMP JUMPDEST PUSH1 0x1 SLOAD PUSH1 0x1 PUSH1 0x1 PUSH1 0xA0 SHL SUB AND CALLER EQ PUSH2 0x2A6A JUMPI PUSH1 0x40 MLOAD PUSH3 0x461BCD PUSH1 0xE5 SHL DUP2 MSTORE PUSH1 0x4 ADD PUSH2 0x967 SWAP1 PUSH2 0x4A45 JUMP JUMPDEST PUSH1 0x2 DUP1 SLOAD PUSH1 0x1 PUSH1 0x1 PUSH1 0xA0 SHL SUB NOT AND PUSH1 0x1 PUSH1 0x1 PUSH1 0xA0 SHL SUB SWAP3 SWAP1 SWAP3 AND SWAP2 SWAP1 SWAP2 OR SWAP1 SSTORE JUMP JUMPDEST PUSH0 DUP1 PUSH1 0x4 SLOAD SWAP1 POP PUSH2 0x2710 DUP2 PUSH1 0x11 SLOAD PUSH2 0x2AA4 SWAP2 SWAP1 PUSH2 0x4B7F JUMP JUMPDEST PUSH2 0x2AAE SWAP2 SWAP1 PUSH2 0x4B96 JUMP JUMPDEST SWAP2 POP POP SWAP1 JUMP JUMPDEST PUSH1 0xE DUP2 DUP2 SLOAD DUP2 LT PUSH2 0x2AC3 JUMPI PUSH0 DUP1 REVERT JUMPDEST PUSH0 SWAP2 DUP3 MSTORE PUSH1 0x20 SWAP1 SWAP2 KECCAK256 ADD SLOAD SWAP1 POP DUP2 JUMP JUMPDEST PUSH1 0x1 SLOAD PUSH1 0x1 PUSH1 0x1 PUSH1 0xA0 SHL SUB AND CALLER EQ DUP1 PUSH2 0x2AF6 JUMPI POP PUSH1 0x3 SLOAD PUSH1 0x1 PUSH1 0x1 PUSH1 0xA0 SHL SUB AND CALLER EQ JUMPDEST DUP1 PUSH2 0x2B0B JUMPI POP PUSH1 0x3 SLOAD PUSH1 0x1 PUSH1 0x1 PUSH1 0xA0 SHL SUB AND ORIGIN EQ JUMPDEST PUSH2 0x2B57 JUMPI PUSH1 0x40 MLOAD PUSH3 0x461BCD PUSH1 0xE5 SHL DUP2 MSTORE PUSH1 0x20 PUSH1 0x4 DUP3 ADD MSTORE PUSH1 0x19 PUSH1 0x24 DUP3 ADD MSTORE PUSH32 0x4F6E6C79206F776E6572206F72207374616B65206F72636C6500000000000000 PUSH1 0x44 DUP3 ADD MSTORE PUSH1 0x64 ADD PUSH2 0x967 JUMP JUMPDEST PUSH1 0x40 MLOAD PUSH4 0x23B872DD PUSH1 0xE0 SHL DUP2 MSTORE CALLER PUSH1 0x4 DUP3 ADD MSTORE ADDRESS PUSH1 0x24 DUP3 ADD MSTORE PUSH1 0x44 DUP2 ADD DUP3 SWAP1 MSTORE PUSH32 0x0 PUSH1 0x1 PUSH1 0x1 PUSH1 0xA0 SHL SUB AND SWAP1 PUSH4 0x23B872DD SWAP1 PUSH1 0x64 ADD PUSH1 0x20 PUSH1 0x40 MLOAD DUP1 DUP4 SUB DUP2 PUSH0 DUP8 GAS CALL ISZERO DUP1 ISZERO PUSH2 0x2BC7 JUMPI RETURNDATASIZE PUSH0 DUP1 RETURNDATACOPY RETURNDATASIZE PUSH0 REVERT JUMPDEST POP POP POP POP PUSH1 0x40 MLOAD RETURNDATASIZE PUSH1 0x1F NOT PUSH1 0x1F DUP3 ADD AND DUP3 ADD DUP1 PUSH1 0x40 MSTORE POP DUP2 ADD SWAP1 PUSH2 0x2BEB SWAP2 SWAP1 PUSH2 0x4B3B JUMP JUMPDEST PUSH2 0x2C07 JUMPI PUSH1 0x40 MLOAD PUSH3 0x461BCD PUSH1 0xE5 SHL DUP2 MSTORE PUSH1 0x4 ADD PUSH2 0x967 SWAP1 PUSH2 0x4C9B JUMP JUMPDEST DUP1 PUSH1 0x13 PUSH0 DUP3 DUP3 SLOAD PUSH2 0x2C18 SWAP2 SWAP1 PUSH2 0x4AC9 JUMP JUMPDEST SWAP1 SWAP2 SSTORE POP POP POP JUMP JUMPDEST PUSH1 0x1 SLOAD PUSH1 0x1 PUSH1 0x1 PUSH1 0xA0 SHL SUB AND CALLER EQ PUSH2 0x2C4A JUMPI PUSH1 0x40 MLOAD PUSH3 0x461BCD PUSH1 0xE5 SHL DUP2 MSTORE PUSH1 0x4 ADD PUSH2 0x967 SWAP1 PUSH2 0x4A45 JUMP JUMPDEST PUSH1 0x3 DUP1 SLOAD PUSH1 0x1 PUSH1 0x1 PUSH1 0xA0 SHL SUB NOT AND PUSH1 0x1 PUSH1 0x1 PUSH1 0xA0 SHL SUB SWAP3 SWAP1 SWAP3 AND SWAP2 SWAP1 SWAP2 OR SWAP1 SSTORE JUMP JUMPDEST PUSH1 0x1 SLOAD PUSH1 0x1 PUSH1 0x1 PUSH1 0xA0 SHL SUB AND CALLER EQ PUSH2 0x2C96 JUMPI PUSH1 0x40 MLOAD PUSH3 0x461BCD PUSH1 0xE5 SHL DUP2 MSTORE PUSH1 0x4 ADD PUSH2 0x967 SWAP1 PUSH2 0x4A45 JUMP JUMPDEST PUSH2 0x2710 DUP2 GT ISZERO PUSH2 0x2CB8 JUMPI PUSH1 0x40 MLOAD PUSH3 0x461BCD PUSH1 0xE5 SHL DUP2 MSTORE PUSH1 0x4 ADD PUSH2 0x967 SWAP1 PUSH2 0x4A69 JUMP JUMPDEST PUSH1 0x4 DUP2 SWAP1 SSTORE PUSH1 0x40 MLOAD DUP2 DUP2 MSTORE PUSH32 0x71CA8C1A2BC00717637FB3E9D048DA574B351106CFCF0832E2DFE20F4E633DCF SWAP1 PUSH1 0x20 ADD PUSH1 0x40 MLOAD DUP1 SWAP2 SUB SWAP1 LOG1 POP JUMP JUMPDEST PUSH1 0x7 DUP2 DUP2 SLOAD DUP2 LT PUSH2 0x2D02 JUMPI PUSH0 DUP1 REVERT JUMPDEST PUSH0 SWAP2 DUP3 MSTORE PUSH1 0x20 SWAP1 SWAP2 KECCAK256 ADD SLOAD PUSH1 0x1 PUSH1 0x1 PUSH1 0xA0 SHL SUB AND SWAP1 POP DUP2 JUMP JUMPDEST PUSH1 0xA SLOAD PUSH0 SWAP1 TIMESTAMP SWAP1 JUMPDEST PUSH1 0x14 SLOAD DUP2 LT ISZERO PUSH2 0x2D9C JUMPI PUSH1 0x14 DUP2 DUP2 SLOAD DUP2 LT PUSH2 0x2D40 JUMPI PUSH2 0x2D40 PUSH2 0x4AB5 JUMP JUMPDEST SWAP1 PUSH0 MSTORE PUSH1 0x20 PUSH0 KECCAK256 SWAP1 PUSH1 0x3 MUL ADD PUSH0 ADD SLOAD DUP3 LT ISZERO DUP1 ISZERO PUSH2 0x2D7F JUMPI POP PUSH1 0x14 DUP2 DUP2 SLOAD DUP2 LT PUSH2 0x2D6C JUMPI PUSH2 0x2D6C PUSH2 0x4AB5 JUMP JUMPDEST SWAP1 PUSH0 MSTORE PUSH1 0x20 PUSH0 KECCAK256 SWAP1 PUSH1 0x3 MUL ADD PUSH1 0x1 ADD SLOAD DUP3 LT JUMPDEST ISZERO PUSH2 0x2D8A JUMPI SWAP3 SWAP2 POP POP JUMP JUMPDEST DUP1 PUSH2 0x2D94 DUP2 PUSH2 0x4ADC JUMP JUMPDEST SWAP2 POP POP PUSH2 0x2D23 JUMP JUMPDEST POP POP PUSH1 0x14 SLOAD SWAP2 SWAP1 POP JUMP JUMPDEST PUSH1 0x1 SLOAD PUSH1 0x1 PUSH1 0x1 PUSH1 0xA0 SHL SUB AND CALLER EQ PUSH2 0x2DD0 JUMPI PUSH1 0x40 MLOAD PUSH3 0x461BCD PUSH1 0xE5 SHL DUP2 MSTORE PUSH1 0x4 ADD PUSH2 0x967 SWAP1 PUSH2 0x4A45 JUMP JUMPDEST PUSH1 0x14 SLOAD PUSH2 0x2E08 JUMPI PUSH1 0x40 MLOAD PUSH3 0x461BCD PUSH1 0xE5 SHL DUP2 MSTORE PUSH1 0x4 ADD PUSH2 0x967 SWAP1 PUSH1 0x20 DUP1 DUP3 MSTORE PUSH1 0x4 SWAP1 DUP3 ADD MSTORE PUSH4 0x4E6F6E65 PUSH1 0xE0 SHL PUSH1 0x40 DUP3 ADD MSTORE PUSH1 0x60 ADD SWAP1 JUMP JUMPDEST PUSH1 0x14 DUP1 SLOAD TIMESTAMP SWAP2 SWAP1 PUSH2 0x2E1B SWAP1 PUSH1 0x1 SWAP1 PUSH2 0x4AA2 JUMP JUMPDEST DUP2 SLOAD DUP2 LT PUSH2 0x2E2B JUMPI PUSH2 0x2E2B PUSH2 0x4AB5 JUMP JUMPDEST SWAP1 PUSH0 MSTORE PUSH1 0x20 PUSH0 KECCAK256 SWAP1 PUSH1 0x3 MUL ADD PUSH0 ADD SLOAD GT PUSH2 0x2E71 JUMPI PUSH1 0x40 MLOAD PUSH3 0x461BCD PUSH1 0xE5 SHL DUP2 MSTORE PUSH1 0x20 PUSH1 0x4 DUP3 ADD MSTORE PUSH1 0x7 PUSH1 0x24 DUP3 ADD MSTORE PUSH7 0x14DD185C9D1959 PUSH1 0xCA SHL PUSH1 0x44 DUP3 ADD MSTORE PUSH1 0x64 ADD PUSH2 0x967 JUMP JUMPDEST PUSH1 0x14 DUP1 SLOAD DUP1 PUSH2 0x2E82 JUMPI PUSH2 0x2E82 PUSH2 0x4CB7 JUMP JUMPDEST PUSH0 DUP3 DUP2 MSTORE PUSH1 0x20 DUP2 KECCAK256 PUSH1 0x3 PUSH0 NOT SWAP1 SWAP4 ADD SWAP3 DUP4 MUL ADD DUP2 DUP2 SSTORE PUSH1 0x1 DUP2 ADD DUP3 SWAP1 SSTORE PUSH1 0x2 ADD SSTORE SWAP1 SSTORE PUSH1 0x14 SLOAD PUSH1 0x40 MLOAD PUSH32 0xD84BA012185E6B11C267BBF53304405446699FDED2A2A85C6C6523D2CD3FD790 SWAP2 PUSH2 0x2EDA SWAP2 SWAP1 DUP2 MSTORE PUSH1 0x20 ADD SWAP1 JUMP JUMPDEST PUSH1 0x40 MLOAD DUP1 SWAP2 SUB SWAP1 LOG1 JUMP JUMPDEST PUSH1 0xB DUP2 DUP2 SLOAD DUP2 LT PUSH2 0x2EF3 JUMPI PUSH0 DUP1 REVERT JUMPDEST PUSH0 SWAP2 DUP3 MSTORE PUSH1 0x20 SWAP1 SWAP2 KECCAK256 PUSH1 0xD SWAP1 SWAP2 MUL ADD DUP1 SLOAD PUSH1 0x1 DUP3 ADD SLOAD PUSH1 0x2 DUP4 ADD SLOAD PUSH1 0x3 DUP5 ADD SLOAD PUSH1 0x4 DUP6 ADD SLOAD PUSH1 0x5 DUP7 ADD SLOAD PUSH1 0x6 DUP8 ADD SLOAD PUSH1 0x7 DUP9 ADD SLOAD PUSH1 0x8 DUP10 ADD SLOAD PUSH1 0x9 DUP11 ADD SLOAD PUSH1 0xA DUP12 ADD SLOAD PUSH1 0xB DUP13 ADD SLOAD PUSH1 0xC SWAP1 SWAP13 ADD SLOAD SWAP11 SWAP13 POP PUSH1 0x1 PUSH1 0x1 PUSH1 0xA0 SHL SUB SWAP1 SWAP10 AND SWAP11 SWAP8 SWAP10 SWAP7 SWAP9 SWAP6 SWAP8 SWAP5 SWAP7 SWAP4 SWAP6 SWAP3 SWAP5 SWAP2 SWAP4 PUSH1 0xFF DUP1 DUP4 AND SWAP5 PUSH2 0x100 SWAP1 SWAP4 DIV DUP2 AND SWAP4 AND SWAP1 DUP15 JUMP JUMPDEST PUSH2 0x2F7A PUSH2 0x3975 JUMP JUMPDEST PUSH2 0x2F88 CALLER DUP4 DUP4 PUSH0 DUP1 PUSH0 PUSH2 0x399D JUMP JUMPDEST PUSH2 0x2F91 PUSH1 0x1 PUSH0 SSTORE JUMP JUMPDEST POP POP JUMP JUMPDEST PUSH1 0x1 SLOAD PUSH1 0x1 PUSH1 0x1 PUSH1 0xA0 SHL SUB AND CALLER EQ PUSH2 0x2FBF JUMPI PUSH1 0x40 MLOAD PUSH3 0x461BCD PUSH1 0xE5 SHL DUP2 MSTORE PUSH1 0x4 ADD PUSH2 0x967 SWAP1 PUSH2 0x4A45 JUMP JUMPDEST PUSH32 0x0 PUSH1 0x1 PUSH1 0x1 PUSH1 0xA0 SHL SUB AND DUP3 PUSH1 0x1 PUSH1 0x1 PUSH1 0xA0 SHL SUB AND SUB PUSH2 0x3010 JUMPI PUSH1 0x40 MLOAD PUSH3 0x461BCD PUSH1 0xE5 SHL DUP2 MSTORE PUSH1 0x4 ADD PUSH2 0x967 SWAP1 PUSH2 0x4C9B JUMP JUMPDEST PUSH1 0x1 SLOAD PUSH1 0x40 MLOAD PUSH4 0xA9059CBB PUSH1 0xE0 SHL DUP2 MSTORE PUSH1 0x1 PUSH1 0x1 PUSH1 0xA0 SHL SUB SWAP2 DUP3 AND PUSH1 0x4 DUP3 ADD MSTORE PUSH1 0x24 DUP2 ADD DUP4 SWAP1 MSTORE SWAP1 DUP4 AND SWAP1 PUSH4 0xA9059CBB SWAP1 PUSH1 0x44 ADD PUSH1 0x20 PUSH1 0x40 MLOAD DUP1 DUP4 SUB DUP2 PUSH0 DUP8 GAS CALL ISZERO DUP1 ISZERO PUSH2 0x3060 JUMPI RETURNDATASIZE PUSH0 DUP1 RETURNDATACOPY RETURNDATASIZE PUSH0 REVERT JUMPDEST POP POP POP POP PUSH1 0x40 MLOAD RETURNDATASIZE PUSH1 0x1F NOT PUSH1 0x1F DUP3 ADD AND DUP3 ADD DUP1 PUSH1 0x40 MSTORE POP DUP2 ADD SWAP1 PUSH2 0x3084 SWAP2 SWAP1 PUSH2 0x4B3B JUMP JUMPDEST PUSH2 0x2F91 JUMPI PUSH1 0x40 MLOAD PUSH3 0x461BCD PUSH1 0xE5 SHL DUP2 MSTORE PUSH1 0x20 PUSH1 0x4 DUP3 ADD MSTORE PUSH1 0x2 PUSH1 0x24 DUP3 ADD MSTORE PUSH2 0x2299 PUSH1 0xF1 SHL PUSH1 0x44 DUP3 ADD MSTORE PUSH1 0x64 ADD PUSH2 0x967 JUMP JUMPDEST PUSH1 0x1 SLOAD PUSH1 0x1 PUSH1 0x1 PUSH1 0xA0 SHL SUB AND CALLER EQ PUSH2 0x30DF JUMPI PUSH1 0x40 MLOAD PUSH3 0x461BCD PUSH1 0xE5 SHL DUP2 MSTORE PUSH1 0x4 ADD PUSH2 0x967 SWAP1 PUSH2 0x4A45 JUMP JUMPDEST DUP1 PUSH1 0x13 SLOAD LT ISZERO PUSH2 0x3101 JUMPI PUSH1 0x40 MLOAD PUSH3 0x461BCD PUSH1 0xE5 SHL DUP2 MSTORE PUSH1 0x4 ADD PUSH2 0x967 SWAP1 PUSH2 0x4C9B JUMP JUMPDEST PUSH1 0x40 MLOAD PUSH4 0xA9059CBB PUSH1 0xE0 SHL DUP2 MSTORE CALLER PUSH1 0x4 DUP3 ADD MSTORE PUSH1 0x24 DUP2 ADD DUP3 SWAP1 MSTORE PUSH32 0x0 PUSH1 0x1 PUSH1 0x1 PUSH1 0xA0 SHL SUB AND SWAP1 PUSH4 0xA9059CBB SWAP1 PUSH1 0x44 ADD PUSH1 0x20 PUSH1 0x40 MLOAD DUP1 DUP4 SUB DUP2 PUSH0 DUP8 GAS CALL ISZERO DUP1 ISZERO PUSH2 0x316B JUMPI RETURNDATASIZE PUSH0 DUP1 RETURNDATACOPY RETURNDATASIZE PUSH0 REVERT JUMPDEST POP POP POP POP PUSH1 0x40 MLOAD RETURNDATASIZE PUSH1 0x1F NOT PUSH1 0x1F DUP3 ADD AND DUP3 ADD DUP1 PUSH1 0x40 MSTORE POP DUP2 ADD SWAP1 PUSH2 0x318F SWAP2 SWAP1 PUSH2 0x4B3B JUMP JUMPDEST PUSH2 0x31C0 JUMPI PUSH1 0x40 MLOAD PUSH3 0x461BCD PUSH1 0xE5 SHL DUP2 MSTORE PUSH1 0x20 PUSH1 0x4 DUP3 ADD MSTORE PUSH1 0x2 PUSH1 0x24 DUP3 ADD MSTORE PUSH2 0x2299 PUSH1 0xF1 SHL PUSH1 0x44 DUP3 ADD MSTORE PUSH1 0x64 ADD PUSH2 0x967 JUMP JUMPDEST DUP1 PUSH1 0x13 PUSH0 DUP3 DUP3 SLOAD PUSH2 0x2C18 SWAP2 SWAP1 PUSH2 0x4AA2 JUMP JUMPDEST PUSH1 0x1 PUSH1 0x1 PUSH1 0xA0 SHL SUB DUP2 AND PUSH0 SWAP1 DUP2 MSTORE PUSH1 0x9 PUSH1 0x20 SWAP1 DUP2 MSTORE PUSH1 0x40 SWAP2 DUP3 SWAP1 KECCAK256 DUP1 SLOAD DUP4 MLOAD DUP2 DUP5 MUL DUP2 ADD DUP5 ADD SWAP1 SWAP5 MSTORE DUP1 DUP5 MSTORE PUSH1 0x60 SWAP4 SWAP3 DUP4 ADD DUP3 DUP3 DUP1 ISZERO PUSH2 0x322E JUMPI PUSH1 0x20 MUL DUP3 ADD SWAP2 SWAP1 PUSH0 MSTORE PUSH1 0x20 PUSH0 KECCAK256 SWAP1 JUMPDEST DUP2 SLOAD DUP2 MSTORE PUSH1 0x20 ADD SWAP1 PUSH1 0x1 ADD SWAP1 DUP1 DUP4 GT PUSH2 0x321A JUMPI JUMPDEST POP POP POP POP POP SWAP1 POP SWAP2 SWAP1 POP JUMP JUMPDEST PUSH0 DUP1 PUSH2 0x3244 PUSH2 0x2D1B JUMP JUMPDEST PUSH1 0x14 SLOAD SWAP1 SWAP2 POP DUP2 LT PUSH2 0x3257 JUMPI PUSH0 SWAP2 POP POP SWAP1 JUMP JUMPDEST PUSH0 PUSH2 0x3261 DUP3 PUSH2 0x411D JUMP JUMPDEST SWAP1 POP PUSH2 0x2710 DUP2 PUSH1 0x11 SLOAD PUSH2 0x3274 SWAP2 SWAP1 PUSH2 0x4B7F JUMP JUMPDEST PUSH2 0x327E SWAP2 SWAP1 PUSH2 0x4B96 JUMP JUMPDEST SWAP3 POP POP POP SWAP1 JUMP JUMPDEST PUSH1 0x60 DUP2 PUSH0 SUB PUSH2 0x3294 JUMPI PUSH1 0xB SLOAD SWAP2 POP JUMPDEST PUSH0 PUSH2 0x329F DUP4 DUP6 PUSH2 0x4AC9 JUMP JUMPDEST PUSH1 0xB SLOAD SWAP1 SWAP2 POP DUP5 GT ISZERO PUSH2 0x32B2 JUMPI POP PUSH2 0x1B10 JUMP JUMPDEST PUSH1 0xB SLOAD DUP2 GT ISZERO PUSH2 0x32C1 JUMPI POP PUSH1 0xB SLOAD JUMPDEST PUSH2 0x32CB DUP5 DUP3 PUSH2 0x4AA2 JUMP JUMPDEST PUSH8 0xFFFFFFFFFFFFFFFF DUP2 GT ISZERO PUSH2 0x32E3 JUMPI PUSH2 0x32E3 PUSH2 0x43D3 JUMP JUMPDEST PUSH1 0x40 MLOAD SWAP1 DUP1 DUP3 MSTORE DUP1 PUSH1 0x20 MUL PUSH1 0x20 ADD DUP3 ADD PUSH1 0x40 MSTORE DUP1 ISZERO PUSH2 0x331C JUMPI DUP2 PUSH1 0x20 ADD JUMPDEST PUSH2 0x3309 PUSH2 0x4281 JUMP JUMPDEST DUP2 MSTORE PUSH1 0x20 ADD SWAP1 PUSH1 0x1 SWAP1 SUB SWAP1 DUP2 PUSH2 0x3301 JUMPI SWAP1 POP JUMPDEST POP SWAP2 POP PUSH0 JUMPDEST PUSH2 0x332B DUP6 DUP4 PUSH2 0x4AA2 JUMP JUMPDEST DUP2 LT ISZERO PUSH2 0x1B0D JUMPI PUSH1 0xB DUP1 SLOAD PUSH1 0x1 SWAP1 DUP8 SWAP1 PUSH2 0x3346 SWAP1 DUP6 SWAP1 PUSH2 0x4AA2 JUMP JUMPDEST PUSH2 0x3350 SWAP2 SWAP1 PUSH2 0x4AA2 JUMP JUMPDEST PUSH2 0x335A SWAP2 SWAP1 PUSH2 0x4AA2 JUMP JUMPDEST DUP2 SLOAD DUP2 LT PUSH2 0x336A JUMPI PUSH2 0x336A PUSH2 0x4AB5 JUMP JUMPDEST PUSH0 SWAP2 DUP3 MSTORE PUSH1 0x20 SWAP2 DUP3 SWAP1 KECCAK256 PUSH1 0x40 DUP1 MLOAD PUSH2 0x1C0 DUP2 ADD DUP3 MSTORE PUSH1 0xD SWAP1 SWAP4 MUL SWAP1 SWAP2 ADD DUP1 SLOAD DUP4 MSTORE PUSH1 0x1 DUP2 ADD SLOAD PUSH1 0x1 PUSH1 0x1 PUSH1 0xA0 SHL SUB AND SWAP4 DUP4 ADD SWAP4 SWAP1 SWAP4 MSTORE PUSH1 0x2 DUP4 ADD SLOAD SWAP1 DUP3 ADD MSTORE PUSH1 0x3 DUP3 ADD SLOAD PUSH1 0x60 DUP3 ADD MSTORE PUSH1 0x4 DUP3 ADD SLOAD PUSH1 0x80 DUP3 ADD MSTORE PUSH1 0x5 DUP3 ADD SLOAD PUSH1 0xA0 DUP3 ADD MSTORE PUSH1 0x6 DUP3 ADD SLOAD PUSH1 0xC0 DUP3 ADD MSTORE PUSH1 0x7 DUP3 ADD SLOAD PUSH1 0xE0 DUP3 ADD MSTORE PUSH1 0x8 DUP3 ADD SLOAD PUSH2 0x100 DUP1 DUP4 ADD SWAP2 SWAP1 SWAP2 MSTORE PUSH1 0x9 DUP4 ADD SLOAD PUSH1 0xFF DUP1 DUP3 AND ISZERO ISZERO PUSH2 0x120 DUP6 ADD MSTORE SWAP2 SWAP1 DIV DUP2 AND ISZERO ISZERO PUSH2 0x140 DUP4 ADD MSTORE PUSH1 0xA DUP4 ADD SLOAD PUSH2 0x160 DUP4 ADD MSTORE PUSH1 0xB DUP4 ADD SLOAD AND ISZERO ISZERO PUSH2 0x180 DUP3 ADD MSTORE PUSH1 0xC SWAP1 SWAP2 ADD SLOAD PUSH2 0x1A0 DUP3 ADD MSTORE DUP4 MLOAD DUP5 SWAP1 DUP4 SWAP1 DUP2 LT PUSH2 0x3442 JUMPI PUSH2 0x3442 PUSH2 0x4AB5 JUMP JUMPDEST PUSH1 0x20 MUL PUSH1 0x20 ADD ADD DUP2 SWAP1 MSTORE POP PUSH2 0x3462 DUP4 DUP3 DUP2 MLOAD DUP2 LT PUSH2 0x1AC9 JUMPI PUSH2 0x1AC9 PUSH2 0x4AB5 JUMP JUMPDEST DUP4 DUP3 DUP2 MLOAD DUP2 LT PUSH2 0x3474 JUMPI PUSH2 0x3474 PUSH2 0x4AB5 JUMP JUMPDEST PUSH1 0x20 SWAP1 DUP2 MUL SWAP2 SWAP1 SWAP2 ADD ADD MLOAD PUSH2 0x100 ADD MSTORE DUP1 PUSH2 0x348E DUP2 PUSH2 0x4ADC JUMP JUMPDEST SWAP2 POP POP PUSH2 0x3321 JUMP JUMPDEST PUSH2 0x349E PUSH2 0x3975 JUMP JUMPDEST PUSH0 PUSH1 0xB DUP3 DUP2 SLOAD DUP2 LT PUSH2 0x34B2 JUMPI PUSH2 0x34B2 PUSH2 0x4AB5 JUMP JUMPDEST PUSH0 SWAP2 DUP3 MSTORE PUSH1 0x20 SWAP1 SWAP2 KECCAK256 PUSH1 0xD SWAP1 SWAP2 MUL ADD PUSH1 0x9 DUP2 ADD SLOAD SWAP1 SWAP2 POP PUSH1 0xFF AND PUSH2 0x34E8 JUMPI PUSH1 0x40 MLOAD PUSH3 0x461BCD PUSH1 0xE5 SHL DUP2 MSTORE PUSH1 0x4 ADD PUSH2 0x967 SWAP1 PUSH2 0x4C64 JUMP JUMPDEST PUSH1 0x1 DUP2 ADD SLOAD PUSH1 0x1 PUSH1 0x1 PUSH1 0xA0 SHL SUB AND CALLER EQ PUSH2 0x3514 JUMPI PUSH1 0x40 MLOAD PUSH3 0x461BCD PUSH1 0xE5 SHL DUP2 MSTORE PUSH1 0x4 ADD PUSH2 0x967 SWAP1 PUSH2 0x4AF4 JUMP JUMPDEST PUSH0 PUSH2 0x351E DUP4 PUSH2 0x1202 JUMP JUMPDEST SWAP1 POP PUSH0 DUP2 GT PUSH2 0x355C JUMPI PUSH1 0x40 MLOAD PUSH3 0x461BCD PUSH1 0xE5 SHL DUP2 MSTORE PUSH1 0x20 PUSH1 0x4 DUP3 ADD MSTORE PUSH1 0xA PUSH1 0x24 DUP3 ADD MSTORE PUSH10 0x4E6F2072657761726473 PUSH1 0xB0 SHL PUSH1 0x44 DUP3 ADD MSTORE PUSH1 0x64 ADD PUSH2 0x967 JUMP JUMPDEST DUP1 PUSH1 0x13 SLOAD LT ISZERO PUSH2 0x357E JUMPI PUSH1 0x40 MLOAD PUSH3 0x461BCD PUSH1 0xE5 SHL DUP2 MSTORE PUSH1 0x4 ADD PUSH2 0x967 SWAP1 PUSH2 0x4B17 JUMP JUMPDEST PUSH0 PUSH2 0x358D DUP4 PUSH1 0x7 ADD SLOAD PUSH0 PUSH2 0x40CF JUMP JUMPDEST SWAP1 POP DUP1 DUP4 PUSH1 0x7 ADD DUP2 SWAP1 SSTORE POP DUP2 PUSH1 0x13 PUSH0 DUP3 DUP3 SLOAD PUSH2 0x35A9 SWAP2 SWAP1 PUSH2 0x4AA2 JUMP JUMPDEST SWAP3 POP POP DUP2 SWAP1 SSTORE POP DUP2 PUSH1 0x12 PUSH0 DUP3 DUP3 SLOAD PUSH2 0x35C1 SWAP2 SWAP1 PUSH2 0x4AC9 JUMP JUMPDEST SWAP1 SWAP2 SSTORE POP POP PUSH0 DUP5 DUP2 MSTORE PUSH1 0xC PUSH1 0x20 MSTORE PUSH1 0x40 DUP2 KECCAK256 DUP1 SLOAD DUP5 SWAP3 SWAP1 PUSH2 0x35E3 SWAP1 DUP5 SWAP1 PUSH2 0x4AC9 JUMP JUMPDEST SWAP1 SWAP2 SSTORE POP POP PUSH0 DUP2 DUP2 MSTORE PUSH1 0x17 PUSH1 0x20 MSTORE PUSH1 0x40 DUP2 KECCAK256 DUP1 SLOAD DUP5 SWAP3 SWAP1 PUSH2 0x3605 SWAP1 DUP5 SWAP1 PUSH2 0x4AC9 JUMP JUMPDEST SWAP1 SWAP2 SSTORE POP POP PUSH1 0x40 MLOAD PUSH4 0xA9059CBB PUSH1 0xE0 SHL DUP2 MSTORE CALLER PUSH1 0x4 DUP3 ADD MSTORE PUSH1 0x24 DUP2 ADD DUP4 SWAP1 MSTORE PUSH32 0x0 PUSH1 0x1 PUSH1 0x1 PUSH1 0xA0 SHL SUB AND SWAP1 PUSH4 0xA9059CBB SWAP1 PUSH1 0x44 ADD PUSH1 0x20 PUSH1 0x40 MLOAD DUP1 DUP4 SUB DUP2 PUSH0 DUP8 GAS CALL ISZERO DUP1 ISZERO PUSH2 0x3674 JUMPI RETURNDATASIZE PUSH0 DUP1 RETURNDATACOPY RETURNDATASIZE PUSH0 REVERT JUMPDEST POP POP POP POP PUSH1 0x40 MLOAD RETURNDATASIZE PUSH1 0x1F NOT PUSH1 0x1F DUP3 ADD AND DUP3 ADD DUP1 PUSH1 0x40 MSTORE POP DUP2 ADD SWAP1 PUSH2 0x3698 SWAP2 SWAP1 PUSH2 0x4B3B JUMP JUMPDEST PUSH2 0x36B4 JUMPI PUSH1 0x40 MLOAD PUSH3 0x461BCD PUSH1 0xE5 SHL DUP2 MSTORE PUSH1 0x4 ADD PUSH2 0x967 SWAP1 PUSH2 0x4B56 JUMP JUMPDEST PUSH2 0x36BC PUSH2 0x2D1B JUMP JUMPDEST PUSH1 0xA SSTORE PUSH1 0x40 DUP1 MLOAD DUP6 DUP2 MSTORE PUSH1 0x20 DUP2 ADD DUP5 SWAP1 MSTORE CALLER SWAP2 PUSH32 0xFA73D3AB3A92ED3F2B694757D8E4B2F3C293654B11B9C79111F8971F861B22B2 SWAP2 ADD PUSH2 0x264F JUMP JUMPDEST PUSH0 DUP4 ISZERO DUP1 PUSH2 0x3703 JUMPI POP DUP3 ISZERO JUMPDEST ISZERO PUSH2 0x370F JUMPI POP PUSH0 PUSH2 0x1EDC JUMP JUMPDEST DUP2 PUSH0 SUB PUSH2 0x371A JUMPI TIMESTAMP SWAP2 POP JUMPDEST PUSH0 PUSH2 0x3724 DUP4 PUSH2 0x4205 JUMP JUMPDEST PUSH1 0x14 SLOAD SWAP1 SWAP2 POP DUP2 LT PUSH2 0x3739 JUMPI PUSH0 SWAP2 POP POP PUSH2 0x1EDC JUMP JUMPDEST PUSH0 PUSH2 0x3744 DUP6 DUP4 PUSH2 0x4AC9 JUMP JUMPDEST PUSH1 0x14 SLOAD SWAP1 SWAP2 POP DUP2 GT ISZERO PUSH2 0x3756 JUMPI POP PUSH1 0x14 SLOAD JUMPDEST DUP2 DUP2 GT PUSH2 0x3767 JUMPI PUSH0 SWAP3 POP POP POP PUSH2 0x1EDC JUMP JUMPDEST PUSH0 DUP3 JUMPDEST DUP3 DUP2 LT ISZERO PUSH2 0x3898 JUMPI PUSH0 PUSH1 0x14 DUP3 DUP2 SLOAD DUP2 LT PUSH2 0x3786 JUMPI PUSH2 0x3786 PUSH2 0x4AB5 JUMP JUMPDEST SWAP1 PUSH0 MSTORE PUSH1 0x20 PUSH0 KECCAK256 SWAP1 PUSH1 0x3 MUL ADD PUSH1 0x40 MLOAD DUP1 PUSH1 0x60 ADD PUSH1 0x40 MSTORE SWAP1 DUP2 PUSH0 DUP3 ADD SLOAD DUP2 MSTORE PUSH1 0x20 ADD PUSH1 0x1 DUP3 ADD SLOAD DUP2 MSTORE PUSH1 0x20 ADD PUSH1 0x2 DUP3 ADD SLOAD DUP2 MSTORE POP POP SWAP1 POP PUSH0 PUSH2 0x37C6 DUP4 PUSH2 0x411D JUMP JUMPDEST SWAP1 POP PUSH0 PUSH2 0x2710 PUSH2 0x37D6 DUP4 DUP14 PUSH2 0x4B7F JUMP JUMPDEST PUSH2 0x37E0 SWAP2 SWAP1 PUSH2 0x4B96 JUMP JUMPDEST SWAP1 POP DUP7 DUP5 SUB PUSH2 0x3875 JUMPI DUP3 MLOAD PUSH0 SWAP1 DUP11 GT PUSH2 0x37FA JUMPI DUP4 MLOAD PUSH2 0x37FC JUMP JUMPDEST DUP10 JUMPDEST PUSH1 0x20 DUP6 ADD MLOAD SWAP1 SWAP2 POP DUP1 DUP3 LT PUSH2 0x3815 JUMPI POP POP POP POP POP PUSH2 0x3886 JUMP JUMPDEST PUSH0 PUSH2 0x3820 DUP4 DUP4 PUSH2 0x4AA2 JUMP JUMPDEST SWAP1 POP PUSH0 DUP7 PUSH0 ADD MLOAD DUP8 PUSH1 0x20 ADD MLOAD PUSH2 0x3836 SWAP2 SWAP1 PUSH2 0x4AA2 JUMP JUMPDEST SWAP1 POP DUP1 PUSH0 SUB PUSH2 0x384B JUMPI POP POP POP POP POP POP POP PUSH2 0x3886 JUMP JUMPDEST DUP1 PUSH2 0x3856 DUP4 DUP8 PUSH2 0x4B7F JUMP JUMPDEST PUSH2 0x3860 SWAP2 SWAP1 PUSH2 0x4B96 JUMP JUMPDEST PUSH2 0x386A SWAP1 DUP11 PUSH2 0x4AC9 JUMP JUMPDEST SWAP9 POP POP POP POP POP PUSH2 0x3882 JUMP JUMPDEST PUSH2 0x387F DUP2 DUP7 PUSH2 0x4AC9 JUMP JUMPDEST SWAP5 POP JUMPDEST POP POP POP JUMPDEST DUP1 PUSH2 0x3890 DUP2 PUSH2 0x4ADC JUMP JUMPDEST SWAP2 POP POP PUSH2 0x376A JUMP JUMPDEST POP SWAP7 SWAP6 POP POP POP POP POP POP JUMP JUMPDEST PUSH1 0x60 PUSH1 0x7 DUP1 SLOAD DUP1 PUSH1 0x20 MUL PUSH1 0x20 ADD PUSH1 0x40 MLOAD SWAP1 DUP2 ADD PUSH1 0x40 MSTORE DUP1 SWAP3 SWAP2 SWAP1 DUP2 DUP2 MSTORE PUSH1 0x20 ADD DUP3 DUP1 SLOAD DUP1 ISZERO PUSH2 0x38F9 JUMPI PUSH1 0x20 MUL DUP3 ADD SWAP2 SWAP1 PUSH0 MSTORE PUSH1 0x20 PUSH0 KECCAK256 SWAP1 JUMPDEST DUP2 SLOAD PUSH1 0x1 PUSH1 0x1 PUSH1 0xA0 SHL SUB AND DUP2 MSTORE PUSH1 0x1 SWAP1 SWAP2 ADD SWAP1 PUSH1 0x20 ADD DUP1 DUP4 GT PUSH2 0x38DB JUMPI JUMPDEST POP POP POP POP POP SWAP1 POP SWAP1 JUMP JUMPDEST PUSH1 0x1 SLOAD PUSH1 0x1 PUSH1 0x1 PUSH1 0xA0 SHL SUB AND CALLER EQ PUSH2 0x392D JUMPI PUSH1 0x40 MLOAD PUSH3 0x461BCD PUSH1 0xE5 SHL DUP2 MSTORE PUSH1 0x4 ADD PUSH2 0x967 SWAP1 PUSH2 0x4A45 JUMP JUMPDEST PUSH1 0x1 PUSH1 0x1 PUSH1 0xA0 SHL SUB DUP2 AND PUSH2 0x3953 JUMPI PUSH1 0x40 MLOAD PUSH3 0x461BCD PUSH1 0xE5 SHL DUP2 MSTORE PUSH1 0x4 ADD PUSH2 0x967 SWAP1 PUSH2 0x4C9B JUMP JUMPDEST PUSH1 0x1 DUP1 SLOAD PUSH1 0x1 PUSH1 0x1 PUSH1 0xA0 SHL SUB NOT AND PUSH1 0x1 PUSH1 0x1 PUSH1 0xA0 SHL SUB SWAP3 SWAP1 SWAP3 AND SWAP2 SWAP1 SWAP2 OR SWAP1 SSTORE JUMP JUMPDEST PUSH1 0x2 PUSH0 SLOAD SUB PUSH2 0x3997 JUMPI PUSH1 0x40 MLOAD PUSH4 0x3EE5AEB5 PUSH1 0xE0 SHL DUP2 MSTORE PUSH1 0x4 ADD PUSH1 0x40 MLOAD DUP1 SWAP2 SUB SWAP1 REVERT JUMPDEST PUSH1 0x2 PUSH0 SSTORE JUMP JUMPDEST PUSH1 0x6 SLOAD DUP6 LT ISZERO PUSH2 0x39DC JUMPI PUSH1 0x40 MLOAD PUSH3 0x461BCD PUSH1 0xE5 SHL DUP2 MSTORE PUSH1 0x20 PUSH1 0x4 DUP3 ADD MSTORE PUSH1 0xA PUSH1 0x24 DUP3 ADD MSTORE PUSH10 0x135A5B88185B5BDD5B9D PUSH1 0xB2 SHL PUSH1 0x44 DUP3 ADD MSTORE PUSH1 0x64 ADD PUSH2 0x967 JUMP JUMPDEST PUSH1 0x5 SLOAD DUP5 LT ISZERO PUSH2 0x3A24 JUMPI PUSH1 0x40 MLOAD PUSH3 0x461BCD PUSH1 0xE5 SHL DUP2 MSTORE PUSH1 0x20 PUSH1 0x4 DUP3 ADD MSTORE PUSH1 0x13 PUSH1 0x24 DUP3 ADD MSTORE PUSH19 0x2637B1B59036BAB9BA1031329033B932B0B2B9 PUSH1 0x69 SHL PUSH1 0x44 DUP3 ADD MSTORE PUSH1 0x64 ADD PUSH2 0x967 JUMP JUMPDEST PUSH1 0x14 SLOAD PUSH2 0x3A5F JUMPI PUSH1 0x40 MLOAD PUSH3 0x461BCD PUSH1 0xE5 SHL DUP2 MSTORE PUSH1 0x20 PUSH1 0x4 DUP3 ADD MSTORE PUSH1 0x9 PUSH1 0x24 DUP3 ADD MSTORE PUSH9 0x4E6F206D6F6E746873 PUSH1 0xB8 SHL PUSH1 0x44 DUP3 ADD MSTORE PUSH1 0x64 ADD PUSH2 0x967 JUMP JUMPDEST PUSH0 PUSH2 0x3A68 PUSH2 0x2D1B JUMP JUMPDEST PUSH1 0x14 SLOAD SWAP1 SWAP2 POP DUP2 LT PUSH2 0x3AAF JUMPI PUSH1 0x40 MLOAD PUSH3 0x461BCD PUSH1 0xE5 SHL DUP2 MSTORE PUSH1 0x20 PUSH1 0x4 DUP3 ADD MSTORE PUSH1 0x10 PUSH1 0x24 DUP3 ADD MSTORE PUSH16 0x151A5B59481B9BDD0818DBDD995C9959 PUSH1 0x82 SHL PUSH1 0x44 DUP3 ADD MSTORE PUSH1 0x64 ADD PUSH2 0x967 JUMP JUMPDEST PUSH0 PUSH2 0x3ABA DUP7 DUP4 PUSH2 0x4AC9 JUMP JUMPDEST PUSH1 0x14 SLOAD SWAP1 SWAP2 POP DUP2 GT ISZERO PUSH2 0x3B1D JUMPI PUSH1 0x40 MLOAD PUSH3 0x461BCD PUSH1 0xE5 SHL DUP2 MSTORE PUSH1 0x20 PUSH1 0x4 DUP3 ADD MSTORE PUSH1 0x25 PUSH1 0x24 DUP3 ADD MSTORE PUSH32 0x4C6F636B20706572696F64206578636565647320636F6E66696775726564206D PUSH1 0x44 DUP3 ADD MSTORE PUSH5 0x6F6E746873 PUSH1 0xD8 SHL PUSH1 0x64 DUP3 ADD MSTORE PUSH1 0x84 ADD PUSH2 0x967 JUMP JUMPDEST PUSH1 0x40 MLOAD PUSH4 0x23B872DD PUSH1 0xE0 SHL DUP2 MSTORE CALLER PUSH1 0x4 DUP3 ADD MSTORE ADDRESS PUSH1 0x24 DUP3 ADD MSTORE PUSH1 0x44 DUP2 ADD DUP9 SWAP1 MSTORE PUSH32 0x0 PUSH1 0x1 PUSH1 0x1 PUSH1 0xA0 SHL SUB AND SWAP1 PUSH4 0x23B872DD SWAP1 PUSH1 0x64 ADD PUSH1 0x20 PUSH1 0x40 MLOAD DUP1 DUP4 SUB DUP2 PUSH0 DUP8 GAS CALL ISZERO DUP1 ISZERO PUSH2 0x3B8D JUMPI RETURNDATASIZE PUSH0 DUP1 RETURNDATACOPY RETURNDATASIZE PUSH0 REVERT JUMPDEST POP POP POP POP PUSH1 0x40 MLOAD RETURNDATASIZE PUSH1 0x1F NOT PUSH1 0x1F DUP3 ADD AND DUP3 ADD DUP1 PUSH1 0x40 MSTORE POP DUP2 ADD SWAP1 PUSH2 0x3BB1 SWAP2 SWAP1 PUSH2 0x4B3B JUMP JUMPDEST PUSH2 0x3BCD JUMPI PUSH1 0x40 MLOAD PUSH3 0x461BCD PUSH1 0xE5 SHL DUP2 MSTORE PUSH1 0x4 ADD PUSH2 0x967 SWAP1 PUSH2 0x4B56 JUMP JUMPDEST PUSH1 0x1 PUSH1 0x1 PUSH1 0xA0 SHL SUB DUP9 AND PUSH0 SWAP1 DUP2 MSTORE PUSH1 0x8 PUSH1 0x20 MSTORE PUSH1 0x40 SWAP1 KECCAK256 SLOAD PUSH1 0xFF AND PUSH2 0x3C51 JUMPI PUSH1 0x1 PUSH1 0x1 PUSH1 0xA0 SHL SUB DUP9 AND PUSH0 DUP2 DUP2 MSTORE PUSH1 0x8 PUSH1 0x20 MSTORE PUSH1 0x40 DUP2 KECCAK256 DUP1 SLOAD PUSH1 0xFF NOT AND PUSH1 0x1 SWAP1 DUP2 OR SWAP1 SWAP2 SSTORE PUSH1 0x7 DUP1 SLOAD SWAP2 DUP3 ADD DUP2 SSTORE SWAP1 SWAP2 MSTORE PUSH32 0xA66CC928B5EDB82AF9BD49922954155AB7B0942694BEA4CE44661D9A8736C688 ADD DUP1 SLOAD PUSH1 0x1 PUSH1 0x1 PUSH1 0xA0 SHL SUB NOT AND SWAP1 SWAP2 OR SWAP1 SSTORE JUMPDEST PUSH1 0xB PUSH1 0x40 MLOAD DUP1 PUSH2 0x1C0 ADD PUSH1 0x40 MSTORE DUP1 PUSH1 0xB DUP1 SLOAD SWAP1 POP DUP2 MSTORE PUSH1 0x20 ADD DUP11 PUSH1 0x1 PUSH1 0x1 PUSH1 0xA0 SHL SUB AND DUP2 MSTORE PUSH1 0x20 ADD DUP10 DUP2 MSTORE PUSH1 0x20 ADD DUP5 DUP2 MSTORE PUSH1 0x20 ADD TIMESTAMP DUP2 MSTORE PUSH1 0x20 ADD PUSH0 DUP2 MSTORE PUSH1 0x20 ADD DUP4 DUP2 MSTORE PUSH1 0x20 ADD DUP5 DUP2 MSTORE PUSH1 0x20 ADD PUSH0 DUP2 MSTORE PUSH1 0x20 ADD PUSH1 0x1 ISZERO ISZERO DUP2 MSTORE PUSH1 0x20 ADD PUSH0 ISZERO ISZERO DUP2 MSTORE PUSH1 0x20 ADD PUSH0 DUP2 MSTORE PUSH1 0x20 ADD DUP8 ISZERO ISZERO DUP2 MSTORE PUSH1 0x20 ADD DUP7 DUP2 MSTORE POP SWAP1 DUP1 PUSH1 0x1 DUP2 SLOAD ADD DUP1 DUP3 SSTORE DUP1 SWAP2 POP POP PUSH1 0x1 SWAP1 SUB SWAP1 PUSH0 MSTORE PUSH1 0x20 PUSH0 KECCAK256 SWAP1 PUSH1 0xD MUL ADD PUSH0 SWAP1 SWAP2 SWAP1 SWAP2 SWAP1 SWAP2 POP PUSH0 DUP3 ADD MLOAD DUP2 PUSH0 ADD SSTORE PUSH1 0x20 DUP3 ADD MLOAD DUP2 PUSH1 0x1 ADD PUSH0 PUSH2 0x100 EXP DUP2 SLOAD DUP2 PUSH1 0x1 PUSH1 0x1 PUSH1 0xA0 SHL SUB MUL NOT AND SWAP1 DUP4 PUSH1 0x1 PUSH1 0x1 PUSH1 0xA0 SHL SUB AND MUL OR SWAP1 SSTORE POP PUSH1 0x40 DUP3 ADD MLOAD DUP2 PUSH1 0x2 ADD SSTORE PUSH1 0x60 DUP3 ADD MLOAD DUP2 PUSH1 0x3 ADD SSTORE PUSH1 0x80 DUP3 ADD MLOAD DUP2 PUSH1 0x4 ADD SSTORE PUSH1 0xA0 DUP3 ADD MLOAD DUP2 PUSH1 0x5 ADD SSTORE PUSH1 0xC0 DUP3 ADD MLOAD DUP2 PUSH1 0x6 ADD SSTORE PUSH1 0xE0 DUP3 ADD MLOAD DUP2 PUSH1 0x7 ADD SSTORE PUSH2 0x100 DUP3 ADD MLOAD DUP2 PUSH1 0x8 ADD SSTORE PUSH2 0x120 DUP3 ADD MLOAD DUP2 PUSH1 0x9 ADD PUSH0 PUSH2 0x100 EXP DUP2 SLOAD DUP2 PUSH1 0xFF MUL NOT AND SWAP1 DUP4 ISZERO ISZERO MUL OR SWAP1 SSTORE POP PUSH2 0x140 DUP3 ADD MLOAD DUP2 PUSH1 0x9 ADD PUSH1 0x1 PUSH2 0x100 EXP DUP2 SLOAD DUP2 PUSH1 0xFF MUL NOT AND SWAP1 DUP4 ISZERO ISZERO MUL OR SWAP1 SSTORE POP PUSH2 0x160 DUP3 ADD MLOAD DUP2 PUSH1 0xA ADD SSTORE PUSH2 0x180 DUP3 ADD MLOAD DUP2 PUSH1 0xB ADD PUSH0 PUSH2 0x100 EXP DUP2 SLOAD DUP2 PUSH1 0xFF MUL NOT AND SWAP1 DUP4 ISZERO ISZERO MUL OR SWAP1 SSTORE POP PUSH2 0x1A0 DUP3 ADD MLOAD DUP2 PUSH1 0xC ADD SSTORE POP POP PUSH0 PUSH1 0x1 PUSH1 0xB DUP1 SLOAD SWAP1 POP PUSH2 0x3DF3 SWAP2 SWAP1 PUSH2 0x4AA2 JUMP JUMPDEST PUSH0 DUP2 DUP2 MSTORE PUSH1 0xD PUSH1 0x20 SWAP1 DUP2 MSTORE PUSH1 0x40 DUP1 DUP4 KECCAK256 DUP1 SLOAD PUSH1 0xFF NOT AND DUP10 ISZERO ISZERO OR SWAP1 SSTORE PUSH1 0x1 PUSH1 0x1 PUSH1 0xA0 SHL SUB DUP14 AND DUP4 MSTORE PUSH1 0x9 DUP3 MSTORE DUP3 KECCAK256 DUP1 SLOAD PUSH1 0x1 DUP2 ADD DUP3 SSTORE SWAP1 DUP4 MSTORE SWAP1 DUP3 KECCAK256 ADD DUP3 SWAP1 SSTORE PUSH1 0xA DUP6 SWAP1 SSTORE PUSH1 0x11 DUP1 SLOAD SWAP3 SWAP4 POP DUP11 SWAP3 SWAP1 SWAP2 SWAP1 PUSH2 0x3E4F SWAP1 DUP5 SWAP1 PUSH2 0x4AC9 JUMP JUMPDEST SWAP1 SWAP2 SSTORE POP POP PUSH1 0x10 DUP1 SLOAD SWAP1 PUSH0 PUSH2 0x3E63 DUP4 PUSH2 0x4ADC JUMP JUMPDEST SWAP1 SWAP2 SSTORE POP POP PUSH1 0xE DUP1 SLOAD PUSH1 0x1 DUP2 DUP2 ADD DUP4 SSTORE PUSH0 DUP4 SWAP1 MSTORE PUSH32 0xBB7B4A454DC3493923482F07822329ED19E8244EFF582CC204F8554C3620C3FD SWAP1 SWAP2 ADD DUP4 SWAP1 SSTORE SWAP1 SLOAD PUSH2 0x3EAA SWAP2 SWAP1 PUSH2 0x4AA2 JUMP JUMPDEST PUSH0 DUP3 DUP2 MSTORE PUSH1 0xF PUSH1 0x20 SWAP1 DUP2 MSTORE PUSH1 0x40 DUP1 DUP4 KECCAK256 SWAP4 SWAP1 SWAP4 SSTORE DUP6 DUP3 MSTORE PUSH1 0x15 SWAP1 MSTORE SWAP1 DUP2 KECCAK256 DUP1 SLOAD SWAP2 PUSH2 0x3ED4 DUP4 PUSH2 0x4ADC JUMP JUMPDEST SWAP1 SWAP2 SSTORE POP POP PUSH0 DUP4 DUP2 MSTORE PUSH1 0x16 PUSH1 0x20 MSTORE PUSH1 0x40 DUP2 KECCAK256 DUP1 SLOAD DUP11 SWAP3 SWAP1 PUSH2 0x3EF6 SWAP1 DUP5 SWAP1 PUSH2 0x4AC9 JUMP JUMPDEST SWAP1 SWAP2 SSTORE POP POP PUSH1 0x40 DUP1 MLOAD DUP3 DUP2 MSTORE PUSH1 0x20 DUP2 ADD DUP11 SWAP1 MSTORE SWAP1 DUP2 ADD DUP9 SWAP1 MSTORE PUSH1 0x60 DUP2 ADD DUP4 SWAP1 MSTORE PUSH1 0x1 PUSH1 0x1 PUSH1 0xA0 SHL SUB DUP11 AND SWAP1 PUSH32 0x554F20505671494900B631B0E443E9E7A59743EC9889B05E28D8AC9EA158266B SWAP1 PUSH1 0x80 ADD PUSH1 0x40 MLOAD DUP1 SWAP2 SUB SWAP1 LOG2 POP POP POP POP POP POP POP POP POP JUMP JUMPDEST DUP2 DUP4 LT PUSH2 0x3F98 JUMPI PUSH1 0x40 MLOAD PUSH3 0x461BCD PUSH1 0xE5 SHL DUP2 MSTORE PUSH1 0x20 PUSH1 0x4 DUP3 ADD MSTORE PUSH1 0xD PUSH1 0x24 DUP3 ADD MSTORE PUSH13 0x496E76616C69642072616E6765 PUSH1 0x98 SHL PUSH1 0x44 DUP3 ADD MSTORE PUSH1 0x64 ADD PUSH2 0x967 JUMP JUMPDEST DUP1 ISZERO PUSH2 0x3FC0 JUMPI PUSH2 0x2710 DUP2 GT ISZERO PUSH2 0x3FC0 JUMPI PUSH1 0x40 MLOAD PUSH3 0x461BCD PUSH1 0xE5 SHL DUP2 MSTORE PUSH1 0x4 ADD PUSH2 0x967 SWAP1 PUSH2 0x4A69 JUMP JUMPDEST PUSH1 0x14 SLOAD ISZERO PUSH2 0x402D JUMPI PUSH1 0x14 DUP1 SLOAD PUSH2 0x3FD8 SWAP1 PUSH1 0x1 SWAP1 PUSH2 0x4AA2 JUMP JUMPDEST DUP2 SLOAD DUP2 LT PUSH2 0x3FE8 JUMPI PUSH2 0x3FE8 PUSH2 0x4AB5 JUMP JUMPDEST SWAP1 PUSH0 MSTORE PUSH1 0x20 PUSH0 KECCAK256 SWAP1 PUSH1 0x3 MUL ADD PUSH1 0x1 ADD SLOAD DUP4 LT ISZERO PUSH2 0x402D JUMPI PUSH1 0x40 MLOAD PUSH3 0x461BCD PUSH1 0xE5 SHL DUP2 MSTORE PUSH1 0x20 PUSH1 0x4 DUP3 ADD MSTORE PUSH1 0x3 PUSH1 0x24 DUP3 ADD MSTORE PUSH3 0x536571 PUSH1 0xE8 SHL PUSH1 0x44 DUP3 ADD MSTORE PUSH1 0x64 ADD PUSH2 0x967 JUMP JUMPDEST PUSH1 0x40 DUP1 MLOAD PUSH1 0x60 DUP2 ADD DUP3 MSTORE SWAP4 DUP5 MSTORE PUSH1 0x20 DUP5 ADD SWAP3 DUP4 MSTORE DUP4 ADD SWAP1 DUP2 MSTORE PUSH1 0x14 DUP1 SLOAD PUSH1 0x1 DUP2 ADD DUP3 SSTORE PUSH0 SWAP2 SWAP1 SWAP2 MSTORE SWAP3 MLOAD PUSH32 0xCE6D7B5282BD9A3661AE061FEED1DBDA4E52AB073B1F9285BE6E155D9C38D4EC PUSH1 0x3 SWAP1 SWAP5 MUL SWAP4 DUP5 ADD SSTORE SWAP1 MLOAD PUSH32 0xCE6D7B5282BD9A3661AE061FEED1DBDA4E52AB073B1F9285BE6E155D9C38D4ED DUP4 ADD SSTORE MLOAD PUSH32 0xCE6D7B5282BD9A3661AE061FEED1DBDA4E52AB073B1F9285BE6E155D9C38D4EE SWAP1 SWAP2 ADD SSTORE JUMP JUMPDEST PUSH0 DUP2 PUSH0 SUB PUSH2 0x40DB JUMPI TIMESTAMP SWAP2 POP JUMPDEST DUP3 JUMPDEST PUSH1 0x14 SLOAD DUP2 LT DUP1 ISZERO PUSH2 0x4110 JUMPI POP DUP3 PUSH1 0x14 DUP3 DUP2 SLOAD DUP2 LT PUSH2 0x40FD JUMPI PUSH2 0x40FD PUSH2 0x4AB5 JUMP JUMPDEST SWAP1 PUSH0 MSTORE PUSH1 0x20 PUSH0 KECCAK256 SWAP1 PUSH1 0x3 MUL ADD PUSH1 0x1 ADD SLOAD GT ISZERO JUMPDEST ISZERO PUSH2 0x1EDC JUMPI PUSH1 0x1 ADD PUSH2 0x40DD JUMP JUMPDEST PUSH0 DUP1 PUSH1 0x14 DUP4 DUP2 SLOAD DUP2 LT PUSH2 0x4132 JUMPI PUSH2 0x4132 PUSH2 0x4AB5 JUMP JUMPDEST SWAP1 PUSH0 MSTORE PUSH1 0x20 PUSH0 KECCAK256 SWAP1 PUSH1 0x3 MUL ADD PUSH1 0x2 ADD SLOAD SWAP1 POP DUP1 PUSH0 EQ PUSH2 0x4151 JUMPI DUP1 PUSH2 0x1EDC JUMP JUMPDEST PUSH1 0x4 SLOAD SWAP4 SWAP3 POP POP POP JUMP JUMPDEST PUSH0 DUP2 DUP2 MSTORE PUSH1 0xF PUSH1 0x20 MSTORE PUSH1 0x40 DUP2 KECCAK256 SLOAD PUSH1 0xE DUP1 SLOAD SWAP2 SWAP3 SWAP2 PUSH2 0x417C SWAP1 PUSH1 0x1 SWAP1 PUSH2 0x4AA2 JUMP JUMPDEST DUP2 SLOAD DUP2 LT PUSH2 0x418C JUMPI PUSH2 0x418C PUSH2 0x4AB5 JUMP JUMPDEST SWAP1 PUSH0 MSTORE PUSH1 0x20 PUSH0 KECCAK256 ADD SLOAD SWAP1 POP DUP1 PUSH1 0xE DUP4 DUP2 SLOAD DUP2 LT PUSH2 0x41AB JUMPI PUSH2 0x41AB PUSH2 0x4AB5 JUMP JUMPDEST PUSH0 SWAP2 DUP3 MSTORE PUSH1 0x20 DUP1 DUP4 KECCAK256 SWAP1 SWAP2 ADD SWAP3 SWAP1 SWAP3 SSTORE DUP3 DUP2 MSTORE PUSH1 0xF SWAP1 SWAP2 MSTORE PUSH1 0x40 SWAP1 KECCAK256 DUP3 SWAP1 SSTORE PUSH1 0xE DUP1 SLOAD DUP1 PUSH2 0x41DB JUMPI PUSH2 0x41DB PUSH2 0x4CB7 JUMP JUMPDEST PUSH0 DUP3 DUP2 MSTORE PUSH1 0x20 DUP1 DUP3 KECCAK256 DUP4 ADD PUSH0 NOT SWAP1 DUP2 ADD DUP4 SWAP1 SSTORE SWAP1 SWAP3 ADD SWAP1 SWAP3 SSTORE SWAP4 DUP2 MSTORE PUSH1 0xF SWAP1 SWAP4 MSTORE POP POP PUSH1 0x40 DUP2 KECCAK256 SSTORE JUMP JUMPDEST PUSH0 DUP1 JUMPDEST PUSH1 0x14 SLOAD DUP2 LT ISZERO PUSH2 0x2D9C JUMPI PUSH1 0x14 DUP2 DUP2 SLOAD DUP2 LT PUSH2 0x4225 JUMPI PUSH2 0x4225 PUSH2 0x4AB5 JUMP JUMPDEST SWAP1 PUSH0 MSTORE PUSH1 0x20 PUSH0 KECCAK256 SWAP1 PUSH1 0x3 MUL ADD PUSH0 ADD SLOAD DUP4 LT ISZERO DUP1 ISZERO PUSH2 0x4264 JUMPI POP PUSH1 0x14 DUP2 DUP2 SLOAD DUP2 LT PUSH2 0x4251 JUMPI PUSH2 0x4251 PUSH2 0x4AB5 JUMP JUMPDEST SWAP1 PUSH0 MSTORE PUSH1 0x20 PUSH0 KECCAK256 SWAP1 PUSH1 0x3 MUL ADD PUSH1 0x1 ADD SLOAD DUP4 LT JUMPDEST ISZERO PUSH2 0x426F JUMPI SWAP3 SWAP2 POP POP JUMP JUMPDEST DUP1 PUSH2 0x4279 DUP2 PUSH2 0x4ADC JUMP JUMPDEST SWAP2 POP POP PUSH2 0x4208 JUMP JUMPDEST PUSH1 0x40 MLOAD DUP1 PUSH2 0x1C0 ADD PUSH1 0x40 MSTORE DUP1 PUSH0 DUP2 MSTORE PUSH1 0x20 ADD PUSH0 PUSH1 0x1 PUSH1 0x1 PUSH1 0xA0 SHL SUB AND DUP2 MSTORE PUSH1 0x20 ADD PUSH0 DUP2 MSTORE PUSH1 0x20 ADD PUSH0 DUP2 MSTORE PUSH1 0x20 ADD PUSH0 DUP2 MSTORE PUSH1 0x20 ADD PUSH0 DUP2 MSTORE PUSH1 0x20 ADD PUSH0 DUP2 MSTORE PUSH1 0x20 ADD PUSH0 DUP2 MSTORE PUSH1 0x20 ADD PUSH0 DUP2 MSTORE PUSH1 0x20 ADD PUSH0 ISZERO ISZERO DUP2 MSTORE PUSH1 0x20 ADD PUSH0 ISZERO ISZERO DUP2 MSTORE PUSH1 0x20 ADD PUSH0 DUP2 MSTORE PUSH1 0x20 ADD PUSH0 ISZERO ISZERO DUP2 MSTORE PUSH1 0x20 ADD PUSH0 DUP2 MSTORE POP SWAP1 JUMP JUMPDEST PUSH0 DUP1 PUSH0 DUP1 PUSH1 0x80 DUP6 DUP8 SUB SLT ISZERO PUSH2 0x4304 JUMPI PUSH0 DUP1 REVERT JUMPDEST POP POP DUP3 CALLDATALOAD SWAP5 PUSH1 0x20 DUP5 ADD CALLDATALOAD SWAP5 POP PUSH1 0x40 DUP5 ADD CALLDATALOAD SWAP4 PUSH1 0x60 ADD CALLDATALOAD SWAP3 POP SWAP1 POP JUMP JUMPDEST DUP1 CALLDATALOAD PUSH1 0x1 PUSH1 0x1 PUSH1 0xA0 SHL SUB DUP2 AND DUP2 EQ PUSH2 0x4336 JUMPI PUSH0 DUP1 REVERT JUMPDEST SWAP2 SWAP1 POP JUMP JUMPDEST DUP1 ISZERO ISZERO DUP2 EQ PUSH2 0x1175 JUMPI PUSH0 DUP1 REVERT JUMPDEST PUSH0 DUP1 PUSH0 DUP1 PUSH0 PUSH1 0xA0 DUP7 DUP9 SUB SLT ISZERO PUSH2 0x435C JUMPI PUSH0 DUP1 REVERT JUMPDEST PUSH2 0x4365 DUP7 PUSH2 0x4320 JUMP JUMPDEST SWAP5 POP PUSH1 0x20 DUP7 ADD CALLDATALOAD SWAP4 POP PUSH1 0x40 DUP7 ADD CALLDATALOAD SWAP3 POP PUSH1 0x60 DUP7 ADD CALLDATALOAD PUSH2 0x4383 DUP2 PUSH2 0x433B JUMP JUMPDEST SWAP5 SWAP8 SWAP4 SWAP7 POP SWAP2 SWAP5 PUSH1 0x80 ADD CALLDATALOAD SWAP3 SWAP2 POP POP JUMP JUMPDEST PUSH0 DUP1 PUSH1 0x40 DUP4 DUP6 SUB SLT ISZERO PUSH2 0x43A5 JUMPI PUSH0 DUP1 REVERT JUMPDEST PUSH2 0x43AE DUP4 PUSH2 0x4320 JUMP JUMPDEST SWAP5 PUSH1 0x20 SWAP4 SWAP1 SWAP4 ADD CALLDATALOAD SWAP4 POP POP POP JUMP JUMPDEST PUSH0 PUSH1 0x20 DUP3 DUP5 SUB SLT ISZERO PUSH2 0x43CC JUMPI PUSH0 DUP1 REVERT JUMPDEST POP CALLDATALOAD SWAP2 SWAP1 POP JUMP JUMPDEST PUSH4 0x4E487B71 PUSH1 0xE0 SHL PUSH0 MSTORE PUSH1 0x41 PUSH1 0x4 MSTORE PUSH1 0x24 PUSH0 REVERT JUMPDEST PUSH1 0x40 MLOAD PUSH1 0x1F DUP3 ADD PUSH1 0x1F NOT AND DUP2 ADD PUSH8 0xFFFFFFFFFFFFFFFF DUP2 GT DUP3 DUP3 LT OR ISZERO PUSH2 0x4410 JUMPI PUSH2 0x4410 PUSH2 0x43D3 JUMP JUMPDEST PUSH1 0x40 MSTORE SWAP2 SWAP1 POP JUMP JUMPDEST PUSH0 PUSH1 0x20 DUP1 DUP4 DUP6 SUB SLT ISZERO PUSH2 0x4429 JUMPI PUSH0 DUP1 REVERT JUMPDEST DUP3 CALLDATALOAD PUSH8 0xFFFFFFFFFFFFFFFF DUP1 DUP3 GT ISZERO PUSH2 0x4440 JUMPI PUSH0 DUP1 REVERT JUMPDEST DUP2 DUP6 ADD SWAP2 POP DUP6 PUSH1 0x1F DUP4 ADD SLT PUSH2 0x4453 JUMPI PUSH0 DUP1 REVERT JUMPDEST DUP2 CALLDATALOAD DUP2 DUP2 GT ISZERO PUSH2 0x4465 JUMPI PUSH2 0x4465 PUSH2 0x43D3 JUMP JUMPDEST DUP1 PUSH1 0x5 SHL SWAP2 POP PUSH2 0x4476 DUP5 DUP4 ADD PUSH2 0x43E7 JUMP JUMPDEST DUP2 DUP2 MSTORE SWAP2 DUP4 ADD DUP5 ADD SWAP2 DUP5 DUP2 ADD SWAP1 DUP9 DUP5 GT ISZERO PUSH2 0x448F JUMPI PUSH0 DUP1 REVERT JUMPDEST SWAP4 DUP6 ADD SWAP4 JUMPDEST DUP4 DUP6 LT ISZERO PUSH2 0x44AD JUMPI DUP5 CALLDATALOAD DUP3 MSTORE SWAP4 DUP6 ADD SWAP4 SWAP1 DUP6 ADD SWAP1 PUSH2 0x4494 JUMP JUMPDEST SWAP9 SWAP8 POP POP POP POP POP POP POP POP JUMP JUMPDEST PUSH1 0x20 DUP1 DUP3 MSTORE DUP3 MLOAD DUP3 DUP3 ADD DUP2 SWAP1 MSTORE PUSH0 SWAP2 SWAP1 PUSH1 0x40 SWAP1 DUP2 DUP6 ADD SWAP1 DUP7 DUP5 ADD DUP6 JUMPDEST DUP3 DUP2 LT ISZERO PUSH2 0x44FA JUMPI DUP2 MLOAD DUP1 MLOAD DUP6 MSTORE DUP7 ADD MLOAD DUP7 DUP6 ADD MSTORE SWAP3 DUP5 ADD SWAP3 SWAP1 DUP6 ADD SWAP1 PUSH1 0x1 ADD PUSH2 0x44D5 JUMP JUMPDEST POP SWAP2 SWAP8 SWAP7 POP POP POP POP POP POP POP JUMP JUMPDEST DUP1 MLOAD DUP3 MSTORE PUSH1 0x20 DUP2 ADD MLOAD PUSH2 0x4525 PUSH1 0x20 DUP5 ADD DUP3 PUSH1 0x1 PUSH1 0x1 PUSH1 0xA0 SHL SUB AND SWAP1 MSTORE JUMP JUMPDEST POP PUSH1 0x40 DUP2 ADD MLOAD PUSH1 0x40 DUP4 ADD MSTORE PUSH1 0x60 DUP2 ADD MLOAD PUSH1 0x60 DUP4 ADD MSTORE PUSH1 0x80 DUP2 ADD MLOAD PUSH1 0x80 DUP4 ADD MSTORE PUSH1 0xA0 DUP2 ADD MLOAD PUSH1 0xA0 DUP4 ADD MSTORE PUSH1 0xC0 DUP2 ADD MLOAD PUSH1 0xC0 DUP4 ADD MSTORE PUSH1 0xE0 DUP2 ADD MLOAD PUSH1 0xE0 DUP4 ADD MSTORE PUSH2 0x100 DUP1 DUP3 ADD MLOAD DUP2 DUP5 ADD MSTORE POP PUSH2 0x120 DUP1 DUP3 ADD MLOAD PUSH2 0x4582 DUP3 DUP6 ADD DUP3 ISZERO ISZERO SWAP1 MSTORE JUMP JUMPDEST POP POP PUSH2 0x140 DUP2 DUP2 ADD MLOAD ISZERO ISZERO SWAP1 DUP4 ADD MSTORE PUSH2 0x160 DUP1 DUP3 ADD MLOAD SWAP1 DUP4 ADD MSTORE PUSH2 0x180 DUP1 DUP3 ADD MLOAD ISZERO ISZERO SWAP1 DUP4 ADD MSTORE PUSH2 0x1A0 SWAP1 DUP2 ADD MLOAD SWAP2 ADD MSTORE JUMP JUMPDEST PUSH2 0x1C0 DUP2 ADD PUSH2 0x1B10 DUP3 DUP5 PUSH2 0x4507 JUMP JUMPDEST PUSH0 DUP1 PUSH0 PUSH1 0x60 DUP5 DUP7 SUB SLT ISZERO PUSH2 0x45D6 JUMPI PUSH0 DUP1 REVERT JUMPDEST POP POP DUP2 CALLDATALOAD SWAP4 PUSH1 0x20 DUP4 ADD CALLDATALOAD SWAP4 POP PUSH1 0x40 SWAP1 SWAP3 ADD CALLDATALOAD SWAP2 SWAP1 POP JUMP JUMPDEST PUSH0 DUP1 DUP4 PUSH1 0x1F DUP5 ADD SLT PUSH2 0x45FD JUMPI PUSH0 DUP1 REVERT JUMPDEST POP DUP2 CALLDATALOAD PUSH8 0xFFFFFFFFFFFFFFFF DUP2 GT ISZERO PUSH2 0x4614 JUMPI PUSH0 DUP1 REVERT JUMPDEST PUSH1 0x20 DUP4 ADD SWAP2 POP DUP4 PUSH1 0x20 DUP3 PUSH1 0x5 SHL DUP6 ADD ADD GT ISZERO PUSH2 0x462E JUMPI PUSH0 DUP1 REVERT JUMPDEST SWAP3 POP SWAP3 SWAP1 POP JUMP JUMPDEST PUSH0 DUP1 PUSH0 DUP1 PUSH0 DUP1 PUSH1 0x60 DUP8 DUP10 SUB SLT ISZERO PUSH2 0x464A JUMPI PUSH0 DUP1 REVERT JUMPDEST DUP7 CALLDATALOAD PUSH8 0xFFFFFFFFFFFFFFFF DUP1 DUP3 GT ISZERO PUSH2 0x4661 JUMPI PUSH0 DUP1 REVERT JUMPDEST PUSH2 0x466D DUP11 DUP4 DUP12 ADD PUSH2 0x45ED JUMP JUMPDEST SWAP1 SWAP9 POP SWAP7 POP PUSH1 0x20 DUP10 ADD CALLDATALOAD SWAP2 POP DUP1 DUP3 GT ISZERO PUSH2 0x4685 JUMPI PUSH0 DUP1 REVERT JUMPDEST PUSH2 0x4691 DUP11 DUP4 DUP12 ADD PUSH2 0x45ED JUMP JUMPDEST SWAP1 SWAP7 POP SWAP5 POP PUSH1 0x40 DUP10 ADD CALLDATALOAD SWAP2 POP DUP1 DUP3 GT ISZERO PUSH2 0x46A9 JUMPI PUSH0 DUP1 REVERT JUMPDEST POP PUSH2 0x46B6 DUP10 DUP3 DUP11 ADD PUSH2 0x45ED JUMP JUMPDEST SWAP8 SWAP11 SWAP7 SWAP10 POP SWAP5 SWAP8 POP SWAP3 SWAP6 SWAP4 SWAP5 SWAP3 POP POP POP JUMP JUMPDEST PUSH0 JUMPDEST DUP4 DUP2 LT ISZERO PUSH2 0x46E2 JUMPI DUP2 DUP2 ADD MLOAD DUP4 DUP3 ADD MSTORE PUSH1 0x20 ADD PUSH2 0x46CA JUMP JUMPDEST POP POP PUSH0 SWAP2 ADD MSTORE JUMP JUMPDEST PUSH0 DUP2 MLOAD DUP1 DUP5 MSTORE PUSH2 0x4701 DUP2 PUSH1 0x20 DUP7 ADD PUSH1 0x20 DUP7 ADD PUSH2 0x46C8 JUMP JUMPDEST PUSH1 0x1F ADD PUSH1 0x1F NOT AND SWAP3 SWAP1 SWAP3 ADD PUSH1 0x20 ADD SWAP3 SWAP2 POP POP JUMP JUMPDEST PUSH1 0x20 DUP2 MSTORE DUP2 MLOAD PUSH1 0x20 DUP3 ADD MSTORE PUSH1 0x20 DUP3 ADD MLOAD PUSH1 0x40 DUP3 ADD MSTORE PUSH1 0x40 DUP3 ADD MLOAD PUSH1 0x60 DUP3 ADD MSTORE PUSH1 0x60 DUP3 ADD MLOAD PUSH1 0x80 DUP3 ADD MSTORE PUSH1 0x80 DUP3 ADD MLOAD PUSH1 0xA0 DUP3 ADD MSTORE PUSH1 0xA0 DUP3 ADD MLOAD PUSH1 0xC0 DUP3 ADD MSTORE PUSH0 PUSH1 0xC0 DUP4 ADD MLOAD PUSH2 0x4767 PUSH1 0xE0 DUP5 ADD DUP3 PUSH1 0xFF AND SWAP1 MSTORE JUMP JUMPDEST POP PUSH1 0xE0 DUP4 ADD MLOAD PUSH2 0x220 PUSH2 0x100 DUP2 DUP2 DUP7 ADD MSTORE PUSH2 0x4786 PUSH2 0x240 DUP7 ADD DUP5 PUSH2 0x46EA JUMP JUMPDEST SWAP3 POP DUP1 DUP7 ADD MLOAD SWAP1 POP PUSH2 0x120 PUSH1 0x1F NOT DUP7 DUP6 SUB ADD DUP2 DUP8 ADD MSTORE PUSH2 0x47A6 DUP5 DUP4 PUSH2 0x46EA JUMP JUMPDEST SWAP4 POP DUP1 DUP8 ADD MLOAD SWAP2 POP POP PUSH2 0x140 PUSH2 0x47C6 DUP2 DUP8 ADD DUP4 PUSH1 0x1 PUSH1 0x1 PUSH1 0xA0 SHL SUB AND SWAP1 MSTORE JUMP JUMPDEST DUP7 ADD MLOAD PUSH2 0x160 DUP7 DUP2 ADD SWAP2 SWAP1 SWAP2 MSTORE DUP7 ADD MLOAD PUSH2 0x180 DUP1 DUP8 ADD SWAP2 SWAP1 SWAP2 MSTORE DUP7 ADD MLOAD PUSH2 0x1A0 DUP1 DUP8 ADD SWAP2 SWAP1 SWAP2 MSTORE DUP7 ADD MLOAD PUSH2 0x1C0 DUP1 DUP8 ADD SWAP2 SWAP1 SWAP2 MSTORE DUP7 ADD MLOAD PUSH2 0x1E0 DUP1 DUP8 ADD SWAP2 SWAP1 SWAP2 MSTORE DUP7 ADD MLOAD PUSH2 0x200 DUP1 DUP8 ADD SWAP2 SWAP1 SWAP2 MSTORE SWAP1 SWAP6 ADD MLOAD SWAP4 ADD SWAP3 SWAP1 SWAP3 MSTORE POP SWAP2 SWAP1 POP JUMP JUMPDEST PUSH0 DUP1 PUSH1 0x40 DUP4 DUP6 SUB SLT ISZERO PUSH2 0x4835 JUMPI PUSH0 DUP1 REVERT JUMPDEST POP POP DUP1 CALLDATALOAD SWAP3 PUSH1 0x20 SWAP1 SWAP2 ADD CALLDATALOAD SWAP2 POP JUMP JUMPDEST PUSH1 0x20 DUP1 DUP3 MSTORE DUP3 MLOAD DUP3 DUP3 ADD DUP2 SWAP1 MSTORE PUSH0 SWAP2 SWAP1 DUP5 DUP3 ADD SWAP1 PUSH1 0x40 DUP6 ADD SWAP1 DUP5 JUMPDEST DUP2 DUP2 LT ISZERO PUSH2 0x1474 JUMPI PUSH2 0x4872 DUP4 DUP6 MLOAD PUSH2 0x4507 JUMP JUMPDEST SWAP3 DUP5 ADD SWAP3 PUSH2 0x1C0 SWAP3 SWAP1 SWAP3 ADD SWAP2 PUSH1 0x1 ADD PUSH2 0x485F JUMP JUMPDEST PUSH0 PUSH1 0x20 DUP3 DUP5 SUB SLT ISZERO PUSH2 0x4896 JUMPI PUSH0 DUP1 REVERT JUMPDEST PUSH2 0x1EDC DUP3 PUSH2 0x4320 JUMP JUMPDEST PUSH1 0x20 DUP1 DUP3 MSTORE DUP3 MLOAD DUP3 DUP3 ADD DUP2 SWAP1 MSTORE PUSH0 SWAP2 SWAP1 DUP5 DUP3 ADD SWAP1 PUSH1 0x40 DUP6 ADD SWAP1 DUP5 JUMPDEST DUP2 DUP2 LT ISZERO PUSH2 0x1474 JUMPI DUP4 MLOAD PUSH1 0x1 PUSH1 0x1 PUSH1 0xA0 SHL SUB AND DUP4 MSTORE SWAP3 DUP5 ADD SWAP3 SWAP2 DUP5 ADD SWAP2 PUSH1 0x1 ADD PUSH2 0x48BA JUMP JUMPDEST PUSH0 DUP1 PUSH0 PUSH1 0x60 DUP5 DUP7 SUB SLT ISZERO PUSH2 0x48F1 JUMPI PUSH0 DUP1 REVERT JUMPDEST PUSH2 0x48FA DUP5 PUSH2 0x4320 JUMP JUMPDEST SWAP6 PUSH1 0x20 DUP6 ADD CALLDATALOAD SWAP6 POP PUSH1 0x40 SWAP1 SWAP5 ADD CALLDATALOAD SWAP4 SWAP3 POP POP POP JUMP JUMPDEST PUSH1 0x20 DUP1 DUP3 MSTORE DUP3 MLOAD DUP3 DUP3 ADD DUP2 SWAP1 MSTORE PUSH0 SWAP2 SWAP1 PUSH1 0x40 SWAP1 DUP2 DUP6 ADD SWAP1 DUP7 DUP5 ADD DUP6 JUMPDEST DUP3 DUP2 LT ISZERO PUSH2 0x44FA JUMPI DUP2 MLOAD DUP1 MLOAD DUP6 MSTORE DUP7 DUP2 ADD MLOAD DUP8 DUP7 ADD MSTORE DUP6 DUP2 ADD MLOAD DUP7 DUP7 ADD MSTORE PUSH1 0x60 DUP1 DUP3 ADD MLOAD SWAP1 DUP7 ADD MSTORE PUSH1 0x80 DUP1 DUP3 ADD MLOAD SWAP1 DUP7 ADD MSTORE PUSH1 0xA0 DUP1 DUP3 ADD MLOAD SWAP1 DUP7 ADD MSTORE PUSH1 0xC0 SWAP1 DUP2 ADD MLOAD SWAP1 DUP6 ADD MSTORE PUSH1 0xE0 SWAP1 SWAP4 ADD SWAP3 SWAP1 DUP6 ADD SWAP1 PUSH1 0x1 ADD PUSH2 0x492B JUMP JUMPDEST DUP15 DUP2 MSTORE PUSH1 0x1 PUSH1 0x1 PUSH1 0xA0 SHL SUB DUP15 AND PUSH1 0x20 DUP3 ADD MSTORE PUSH1 0x40 DUP2 ADD DUP14 SWAP1 MSTORE PUSH1 0x60 DUP2 ADD DUP13 SWAP1 MSTORE PUSH1 0x80 DUP2 ADD DUP12 SWAP1 MSTORE PUSH1 0xA0 DUP2 ADD DUP11 SWAP1 MSTORE PUSH1 0xC0 DUP2 ADD DUP10 SWAP1 MSTORE PUSH1 0xE0 DUP2 ADD DUP9 SWAP1 MSTORE PUSH2 0x100 DUP2 ADD DUP8 SWAP1 MSTORE DUP6 ISZERO ISZERO PUSH2 0x120 DUP3 ADD MSTORE DUP5 ISZERO ISZERO PUSH2 0x140 DUP3 ADD MSTORE PUSH2 0x1C0 DUP2 ADD DUP5 PUSH2 0x160 DUP4 ADD MSTORE PUSH2 0x49F4 PUSH2 0x180 DUP4 ADD DUP6 ISZERO ISZERO SWAP1 MSTORE JUMP JUMPDEST DUP3 PUSH2 0x1A0 DUP4 ADD MSTORE SWAP16 SWAP15 POP POP POP POP POP POP POP POP POP POP POP POP POP POP POP JUMP JUMPDEST PUSH1 0x20 DUP1 DUP3 MSTORE DUP3 MLOAD DUP3 DUP3 ADD DUP2 SWAP1 MSTORE PUSH0 SWAP2 SWAP1 DUP5 DUP3 ADD SWAP1 PUSH1 0x40 DUP6 ADD SWAP1 DUP5 JUMPDEST DUP2 DUP2 LT ISZERO PUSH2 0x1474 JUMPI DUP4 MLOAD DUP4 MSTORE SWAP3 DUP5 ADD SWAP3 SWAP2 DUP5 ADD SWAP2 PUSH1 0x1 ADD PUSH2 0x4A29 JUMP JUMPDEST PUSH1 0x20 DUP1 DUP3 MSTORE PUSH1 0xA SWAP1 DUP3 ADD MSTORE PUSH10 0x27B7363C9037BBB732B9 PUSH1 0xB1 SHL PUSH1 0x40 DUP3 ADD MSTORE PUSH1 0x60 ADD SWAP1 JUMP JUMPDEST PUSH1 0x20 DUP1 DUP3 MSTORE PUSH1 0xB SWAP1 DUP3 ADD MSTORE PUSH11 0x52617465203E2031303025 PUSH1 0xA8 SHL PUSH1 0x40 DUP3 ADD MSTORE PUSH1 0x60 ADD SWAP1 JUMP JUMPDEST PUSH4 0x4E487B71 PUSH1 0xE0 SHL PUSH0 MSTORE PUSH1 0x11 PUSH1 0x4 MSTORE PUSH1 0x24 PUSH0 REVERT JUMPDEST DUP2 DUP2 SUB DUP2 DUP2 GT ISZERO PUSH2 0x1B10 JUMPI PUSH2 0x1B10 PUSH2 0x4A8E JUMP JUMPDEST PUSH4 0x4E487B71 PUSH1 0xE0 SHL PUSH0 MSTORE PUSH1 0x32 PUSH1 0x4 MSTORE PUSH1 0x24 PUSH0 REVERT JUMPDEST DUP1 DUP3 ADD DUP1 DUP3 GT ISZERO PUSH2 0x1B10 JUMPI PUSH2 0x1B10 PUSH2 0x4A8E JUMP JUMPDEST PUSH0 PUSH1 0x1 DUP3 ADD PUSH2 0x4AED JUMPI PUSH2 0x4AED PUSH2 0x4A8E JUMP JUMPDEST POP PUSH1 0x1 ADD SWAP1 JUMP JUMPDEST PUSH1 0x20 DUP1 DUP3 MSTORE PUSH1 0x9 SWAP1 DUP3 ADD MSTORE PUSH9 0x2737BA1037BBB732B9 PUSH1 0xB9 SHL PUSH1 0x40 DUP3 ADD MSTORE PUSH1 0x60 ADD SWAP1 JUMP JUMPDEST PUSH1 0x20 DUP1 DUP3 MSTORE PUSH1 0xA SWAP1 DUP3 ADD MSTORE PUSH10 0x456D7074792062616E6B PUSH1 0xB0 SHL PUSH1 0x40 DUP3 ADD MSTORE PUSH1 0x60 ADD SWAP1 JUMP JUMPDEST PUSH0 PUSH1 0x20 DUP3 DUP5 SUB SLT ISZERO PUSH2 0x4B4B JUMPI PUSH0 DUP1 REVERT JUMPDEST DUP2 MLOAD PUSH2 0x1EDC DUP2 PUSH2 0x433B JUMP JUMPDEST PUSH1 0x20 DUP1 DUP3 MSTORE PUSH1 0xF SWAP1 DUP3 ADD MSTORE PUSH15 0x151C985B9CD9995C8819985A5B1959 PUSH1 0x8A SHL PUSH1 0x40 DUP3 ADD MSTORE PUSH1 0x60 ADD SWAP1 JUMP JUMPDEST DUP1 DUP3 MUL DUP2 ISZERO DUP3 DUP3 DIV DUP5 EQ OR PUSH2 0x1B10 JUMPI PUSH2 0x1B10 PUSH2 0x4A8E JUMP JUMPDEST PUSH0 DUP3 PUSH2 0x4BB0 JUMPI PUSH4 0x4E487B71 PUSH1 0xE0 SHL PUSH0 MSTORE PUSH1 0x12 PUSH1 0x4 MSTORE PUSH1 0x24 PUSH0 REVERT JUMPDEST POP DIV SWAP1 JUMP JUMPDEST PUSH0 PUSH1 0x20 DUP3 DUP5 SUB SLT ISZERO PUSH2 0x4BC5 JUMPI PUSH0 DUP1 REVERT JUMPDEST DUP2 MLOAD PUSH1 0xFF DUP2 AND DUP2 EQ PUSH2 0x1EDC JUMPI PUSH0 DUP1 REVERT JUMPDEST PUSH0 PUSH1 0x20 DUP3 DUP5 SUB SLT ISZERO PUSH2 0x4BE5 JUMPI PUSH0 DUP1 REVERT JUMPDEST DUP2 MLOAD PUSH8 0xFFFFFFFFFFFFFFFF DUP1 DUP3 GT ISZERO PUSH2 0x4BFC JUMPI PUSH0 DUP1 REVERT JUMPDEST DUP2 DUP5 ADD SWAP2 POP DUP5 PUSH1 0x1F DUP4 ADD SLT PUSH2 0x4C0F JUMPI PUSH0 DUP1 REVERT JUMPDEST DUP2 MLOAD DUP2 DUP2 GT ISZERO PUSH2 0x4C21 JUMPI PUSH2 0x4C21 PUSH2 0x43D3 JUMP JUMPDEST PUSH2 0x4C34 PUSH1 0x1F DUP3 ADD PUSH1 0x1F NOT AND PUSH1 0x20 ADD PUSH2 0x43E7 JUMP JUMPDEST SWAP2 POP DUP1 DUP3 MSTORE DUP6 PUSH1 0x20 DUP3 DUP6 ADD ADD GT ISZERO PUSH2 0x4C4A JUMPI PUSH0 DUP1 REVERT JUMPDEST PUSH2 0x4C5B DUP2 PUSH1 0x20 DUP5 ADD PUSH1 0x20 DUP7 ADD PUSH2 0x46C8 JUMP JUMPDEST POP SWAP5 SWAP4 POP POP POP POP JUMP JUMPDEST PUSH1 0x20 DUP1 DUP3 MSTORE PUSH1 0x8 SWAP1 DUP3 ADD MSTORE PUSH8 0x496E616374697665 PUSH1 0xC0 SHL PUSH1 0x40 DUP3 ADD MSTORE PUSH1 0x60 ADD SWAP1 JUMP JUMPDEST PUSH0 DUP2 PUSH2 0x4C94 JUMPI PUSH2 0x4C94 PUSH2 0x4A8E JUMP JUMPDEST POP PUSH0 NOT ADD SWAP1 JUMP JUMPDEST PUSH1 0x20 DUP1 DUP3 MSTORE PUSH1 0x2 SWAP1 DUP3 ADD MSTORE PUSH2 0x4531 PUSH1 0xF0 SHL PUSH1 0x40 DUP3 ADD MSTORE PUSH1 0x60 ADD SWAP1 JUMP JUMPDEST PUSH4 0x4E487B71 PUSH1 0xE0 SHL PUSH0 MSTORE PUSH1 0x31 PUSH1 0x4 MSTORE PUSH1 0x24 PUSH0 REVERT INVALID LOG2 PUSH5 0x6970667358 0x22 SLT KECCAK256 PUSH11 0x2AE7925A1CB7A79FFCA216 0x2E BYTE EXTCODEHASH 0xF SWAP4 0x24 PUSH14 0xE9A53227A0EF2C44F896DF3E4664 PUSH20 0x6F6C634300081400330000000000000000000000 "
		},
		"gasEstimates": {
			"creation": {
				"codeDepositCost": "3942600",
				"executionCost": "infinite",
				"totalCost": "infinite"
			},
			"external": {
				"_getCurrentMonthIndex()": "infinite",
				"activeDeposits(uint256)": "4696",
				"activeDepositsCount()": "2372",
				"activeDepositsIndex(uint256)": "2493",
				"addMonth(uint256,uint256,uint256)": "infinite",
				"addMonthsBatch(uint256[],uint256[],uint256[])": "infinite",
				"addTokensToBank(uint256)": "infinite",
				"allUsers(uint256)": "4723",
				"bankAmount()": "2373",
				"byOracle(uint256)": "2582",
				"calculatePendingRewardForDeposit(uint256)": "infinite",
				"calculateReward(uint256,uint256,uint256,uint256)": "infinite",
				"calculateRewardByMonths(uint256,uint256,uint256)": "infinite",
				"cancelDeposit(uint256)": "infinite",
				"createDeposit(uint256,uint256)": "infinite",
				"createDepositFor(address,uint256,uint256,bool,uint256)": "infinite",
				"deleteLastMonth()": "53504",
				"deposits(uint256)": "30529",
				"depositsAmount()": "2437",
				"depositsRewardEarned(uint256)": "2536",
				"editMonth(uint256,uint256,uint256,uint256)": "infinite",
				"estimateRequiredBankReserve()": "4662",
				"estimateRequiredBankReservePrecise()": "infinite",
				"getActiveDeposits(uint256,uint256)": "infinite",
				"getActiveDepositsCount()": "2391",
				"getAllUsers()": "infinite",
				"getDepositById(uint256)": "infinite",
				"getDeposits(uint256,uint256)": "infinite",
				"getDepositsRewardEarned(uint256[])": "infinite",
				"getMonths(uint256,uint256)": "infinite",
				"getMonthsCount()": "2370",
				"getSavedReward(uint256)": "infinite",
				"getSummaryInfo()": "infinite",
				"getTotalDeposits()": "2349",
				"getTotalUsers()": "2348",
				"getUserDeposits(address,uint256,uint256)": "infinite",
				"getUserDepositsCount(address)": "2612",
				"getUserDepositsIds(address)": "infinite",
				"getUsers(uint256,uint256)": "infinite",
				"getUsersCount()": "2414",
				"globalRateBps()": "2393",
				"isUser(address)": "2640",
				"lastKnownMonthIndex()": "2353",
				"minLockAmount()": "2419",
				"minLockMonths()": "2415",
				"monthDepositsAmount(uint256)": "2514",
				"monthDepositsCount(uint256)": "2514",
				"monthRewardsAmount(uint256)": "2491",
				"months(uint256)": "8923",
				"oracle()": "2405",
				"owner()": "2449",
				"recoverToken(address,uint256)": "infinite",
				"rewardsPayed()": "2396",
				"safeDeposit(uint256)": "infinite",
				"setGlobalRateBps(uint256)": "25687",
				"setMinLockAmount(uint256)": "24553",
				"setMinLockMonths(uint256)": "24552",
				"setOracle(address)": "26864",
				"setStakeOracle(address)": "26821",
				"stakeOracle()": "2471",
				"stakingToken()": "infinite",
				"transferOwnership(address)": "26832",
				"userDeposits(address,uint256)": "4795",
				"withdrawBank(uint256)": "infinite",
				"withdrawPrincipalAndRewards(uint256)": "infinite",
				"withdrawRewardsOnly(uint256)": "infinite"
			},
			"internal": {
				"_addSingleMonth(uint256,uint256,uint256)": "infinite",
				"_createDeposit(address,uint256,uint256,bool,uint256,bool)": "infinite",
				"_findLastCompletedMonth(uint256,uint256)": "infinite",
				"_getCurrentMonthIndexAt(uint256)": "infinite",
				"_getEffectiveRateBps(uint256)": "6457",
				"_removeFromActiveDeposits(uint256)": "89530"
			}
		},
		"methodIdentifiers": {
			"_getCurrentMonthIndex()": "a5c62cb4",
			"activeDeposits(uint256)": "90693ca7",
			"activeDepositsCount()": "ccbd0007",
			"activeDepositsIndex(uint256)": "23e0ceb2",
			"addMonth(uint256,uint256,uint256)": "23b28a54",
			"addMonthsBatch(uint256[],uint256[],uint256[])": "2ffb3d2a",
			"addTokensToBank(uint256)": "91ba50cd",
			"allUsers(uint256)": "a2bdedf4",
			"bankAmount()": "b42a275e",
			"byOracle(uint256)": "1cc39d57",
			"calculatePendingRewardForDeposit(uint256)": "2e0e3064",
			"calculateReward(uint256,uint256,uint256,uint256)": "7196d3e2",
			"calculateRewardByMonths(uint256,uint256,uint256)": "dd4824a8",
			"cancelDeposit(uint256)": "72fada5c",
			"createDeposit(uint256,uint256)": "b18e71f2",
			"createDepositFor(address,uint256,uint256,bool,uint256)": "06f960bb",
			"deleteLastMonth()": "a9783cd7",
			"deposits(uint256)": "b02c43d0",
			"depositsAmount()": "fe4ab90a",
			"depositsRewardEarned(uint256)": "2290d577",
			"editMonth(uint256,uint256,uint256,uint256)": "05a163b6",
			"estimateRequiredBankReserve()": "8c90926f",
			"estimateRequiredBankReservePrecise()": "d188e3ae",
			"getActiveDeposits(uint256,uint256)": "4106ee75",
			"getActiveDepositsCount()": "d7d43c78",
			"getAllUsers()": "e2842d79",
			"getDepositById(uint256)": "1bfc7761",
			"getDeposits(uint256,uint256)": "d3752830",
			"getDepositsRewardEarned(uint256[])": "10aef812",
			"getMonths(uint256,uint256)": "4eff3d3d",
			"getMonthsCount()": "936d4ffa",
			"getSavedReward(uint256)": "1fb3bd93",
			"getSummaryInfo()": "36261236",
			"getTotalDeposits()": "168a4822",
			"getTotalUsers()": "9be572f6",
			"getUserDeposits(address,uint256,uint256)": "4698b883",
			"getUserDepositsCount(address)": "d6a13301",
			"getUserDepositsIds(address)": "c491eecd",
			"getUsers(uint256,uint256)": "45982a66",
			"getUsersCount()": "a4a1e263",
			"globalRateBps()": "f4f8c847",
			"isUser(address)": "4209fff1",
			"lastKnownMonthIndex()": "000d6386",
			"minLockAmount()": "08804275",
			"minLockMonths()": "f8799e1a",
			"monthDepositsAmount(uint256)": "9d13fa01",
			"monthDepositsCount(uint256)": "41aff23e",
			"monthRewardsAmount(uint256)": "ccaac244",
			"months(uint256)": "1d0205b8",
			"oracle()": "7dc0d1d0",
			"owner()": "8da5cb5b",
			"recoverToken(address,uint256)": "b29a8140",
			"rewardsPayed()": "1c5dc54c",
			"safeDeposit(uint256)": "647fc56c",
			"setGlobalRateBps(uint256)": "9521abc6",
			"setMinLockAmount(uint256)": "0f68ae40",
			"setMinLockMonths(uint256)": "4b4d7aa8",
			"setOracle(address)": "7adbf973",
			"setStakeOracle(address)": "94c92f6d",
			"stakeOracle()": "137760e4",
			"stakingToken()": "72f702f3",
			"transferOwnership(address)": "f2fde38b",
			"userDeposits(address,uint256)": "08f43333",
			"withdrawBank(uint256)": "be2ff4a9",
			"withdrawPrincipalAndRewards(uint256)": "6241ca79",
			"withdrawRewardsOnly(uint256)": "d3d83445"
		}
	},
	"abi": [
		{
			"inputs": [
				{
					"internalType": "address",
					"name": "_stakingToken",
					"type": "address"
				},
				{
					"internalType": "uint256",
					"name": "_globalRateBps",
					"type": "uint256"
				}
			],
			"stateMutability": "nonpayable",
			"type": "constructor"
		},
		{
			"inputs": [],
			"name": "ReentrancyGuardReentrantCall",
			"type": "error"
		},
		{
			"anonymous": false,
			"inputs": [
				{
					"indexed": false,
					"internalType": "uint256",
					"name": "depositId",
					"type": "uint256"
				},
				{
					"indexed": true,
					"internalType": "address",
					"name": "recipient",
					"type": "address"
				},
				{
					"indexed": false,
					"internalType": "uint256",
					"name": "amount",
					"type": "uint256"
				}
			],
			"name": "DepositCancelled",
			"type": "event"
		},
		{
			"anonymous": false,
			"inputs": [
				{
					"indexed": true,
					"internalType": "address",
					"name": "user",
					"type": "address"
				},
				{
					"indexed": false,
					"internalType": "uint256",
					"name": "depositId",
					"type": "uint256"
				},
				{
					"indexed": false,
					"internalType": "uint256",
					"name": "amount",
					"type": "uint256"
				},
				{
					"indexed": false,
					"internalType": "uint256",
					"name": "lockMonths",
					"type": "uint256"
				},
				{
					"indexed": false,
					"internalType": "uint256",
					"name": "unlockMonthIndex",
					"type": "uint256"
				}
			],
			"name": "DepositCreated",
			"type": "event"
		},
		{
			"anonymous": false,
			"inputs": [
				{
					"indexed": false,
					"internalType": "uint256",
					"name": "rateBps",
					"type": "uint256"
				}
			],
			"name": "GlobalRateUpdated",
			"type": "event"
		},
		{
			"anonymous": false,
			"inputs": [
				{
					"indexed": true,
					"internalType": "uint256",
					"name": "monthIndex",
					"type": "uint256"
				},
				{
					"indexed": false,
					"internalType": "uint256",
					"name": "start",
					"type": "uint256"
				},
				{
					"indexed": false,
					"internalType": "uint256",
					"name": "end",
					"type": "uint256"
				},
				{
					"indexed": false,
					"internalType": "uint256",
					"name": "rateBps",
					"type": "uint256"
				}
			],
			"name": "MonthAdded",
			"type": "event"
		},
		{
			"anonymous": false,
			"inputs": [
				{
					"indexed": false,
					"internalType": "uint256",
					"name": "lengthAfterDeletion",
					"type": "uint256"
				}
			],
			"name": "MonthDeleted",
			"type": "event"
		},
		{
			"anonymous": false,
			"inputs": [
				{
					"indexed": true,
					"internalType": "uint256",
					"name": "monthIndex",
					"type": "uint256"
				},
				{
					"indexed": false,
					"internalType": "uint256",
					"name": "start",
					"type": "uint256"
				},
				{
					"indexed": false,
					"internalType": "uint256",
					"name": "end",
					"type": "uint256"
				},
				{
					"indexed": false,
					"internalType": "uint256",
					"name": "rateBps",
					"type": "uint256"
				}
			],
			"name": "MonthEdited",
			"type": "event"
		},
		{
			"anonymous": false,
			"inputs": [
				{
					"indexed": false,
					"internalType": "uint256",
					"name": "startIndex",
					"type": "uint256"
				},
				{
					"indexed": false,
					"internalType": "uint256",
					"name": "endIndex",
					"type": "uint256"
				}
			],
			"name": "MonthsBatchAdded",
			"type": "event"
		},
		{
			"anonymous": false,
			"inputs": [
				{
					"indexed": true,
					"internalType": "address",
					"name": "user",
					"type": "address"
				},
				{
					"indexed": false,
					"internalType": "uint256",
					"name": "depositId",
					"type": "uint256"
				},
				{
					"indexed": false,
					"internalType": "uint256",
					"name": "amount",
					"type": "uint256"
				}
			],
			"name": "PrincipalWithdrawn",
			"type": "event"
		},
		{
			"anonymous": false,
			"inputs": [
				{
					"indexed": true,
					"internalType": "address",
					"name": "user",
					"type": "address"
				},
				{
					"indexed": false,
					"internalType": "uint256",
					"name": "depositId",
					"type": "uint256"
				},
				{
					"indexed": false,
					"internalType": "uint256",
					"name": "reward",
					"type": "uint256"
				}
			],
			"name": "RewardsWithdrawn",
			"type": "event"
		},
		{
			"anonymous": false,
			"inputs": [
				{
					"indexed": true,
					"internalType": "address",
					"name": "user",
					"type": "address"
				},
				{
					"indexed": false,
					"internalType": "uint256",
					"name": "depositId",
					"type": "uint256"
				},
				{
					"indexed": false,
					"internalType": "uint256",
					"name": "amount",
					"type": "uint256"
				},
				{
					"indexed": false,
					"internalType": "uint256",
					"name": "savedReward",
					"type": "uint256"
				}
			],
			"name": "SafeDeposit",
			"type": "event"
		},
		{
			"anonymous": false,
			"inputs": [
				{
					"indexed": true,
					"internalType": "address",
					"name": "user",
					"type": "address"
				},
				{
					"indexed": false,
					"internalType": "uint256",
					"name": "depositId",
					"type": "uint256"
				},
				{
					"indexed": false,
					"internalType": "uint256",
					"name": "reward",
					"type": "uint256"
				}
			],
			"name": "SavedRewardClaimed",
			"type": "event"
		},
		{
			"inputs": [],
			"name": "_getCurrentMonthIndex",
			"outputs": [
				{
					"internalType": "uint256",
					"name": "",
					"type": "uint256"
				}
			],
			"stateMutability": "view",
			"type": "function"
		},
		{
			"inputs": [
				{
					"internalType": "uint256",
					"name": "",
					"type": "uint256"
				}
			],
			"name": "activeDeposits",
			"outputs": [
				{
					"internalType": "uint256",
					"name": "",
					"type": "uint256"
				}
			],
			"stateMutability": "view",
			"type": "function"
		},
		{
			"inputs": [],
			"name": "activeDepositsCount",
			"outputs": [
				{
					"internalType": "uint256",
					"name": "",
					"type": "uint256"
				}
			],
			"stateMutability": "view",
			"type": "function"
		},
		{
			"inputs": [
				{
					"internalType": "uint256",
					"name": "",
					"type": "uint256"
				}
			],
			"name": "activeDepositsIndex",
			"outputs": [
				{
					"internalType": "uint256",
					"name": "",
					"type": "uint256"
				}
			],
			"stateMutability": "view",
			"type": "function"
		},
		{
			"inputs": [
				{
					"internalType": "uint256",
					"name": "start",
					"type": "uint256"
				},
				{
					"internalType": "uint256",
					"name": "end",
					"type": "uint256"
				},
				{
					"internalType": "uint256",
					"name": "rateBps",
					"type": "uint256"
				}
			],
			"name": "addMonth",
			"outputs": [],
			"stateMutability": "nonpayable",
			"type": "function"
		},
		{
			"inputs": [
				{
					"internalType": "uint256[]",
					"name": "starts",
					"type": "uint256[]"
				},
				{
					"internalType": "uint256[]",
					"name": "ends",
					"type": "uint256[]"
				},
				{
					"internalType": "uint256[]",
					"name": "rates",
					"type": "uint256[]"
				}
			],
			"name": "addMonthsBatch",
			"outputs": [],
			"stateMutability": "nonpayable",
			"type": "function"
		},
		{
			"inputs": [
				{
					"internalType": "uint256",
					"name": "amount",
					"type": "uint256"
				}
			],
			"name": "addTokensToBank",
			"outputs": [],
			"stateMutability": "nonpayable",
			"type": "function"
		},
		{
			"inputs": [
				{
					"internalType": "uint256",
					"name": "",
					"type": "uint256"
				}
			],
			"name": "allUsers",
			"outputs": [
				{
					"internalType": "address",
					"name": "",
					"type": "address"
				}
			],
			"stateMutability": "view",
			"type": "function"
		},
		{
			"inputs": [],
			"name": "bankAmount",
			"outputs": [
				{
					"internalType": "uint256",
					"name": "",
					"type": "uint256"
				}
			],
			"stateMutability": "view",
			"type": "function"
		},
		{
			"inputs": [
				{
					"internalType": "uint256",
					"name": "",
					"type": "uint256"
				}
			],
			"name": "byOracle",
			"outputs": [
				{
					"internalType": "bool",
					"name": "",
					"type": "bool"
				}
			],
			"stateMutability": "view",
			"type": "function"
		},
		{
			"inputs": [
				{
					"internalType": "uint256",
					"name": "depositId",
					"type": "uint256"
				}
			],
			"name": "calculatePendingRewardForDeposit",
			"outputs": [
				{
					"internalType": "uint256",
					"name": "",
					"type": "uint256"
				}
			],
			"stateMutability": "view",
			"type": "function"
		},
		{
			"inputs": [
				{
					"internalType": "uint256",
					"name": "amount",
					"type": "uint256"
				},
				{
					"internalType": "uint256",
					"name": "startMonthIdx",
					"type": "uint256"
				},
				{
					"internalType": "uint256",
					"name": "lockMonths",
					"type": "uint256"
				},
				{
					"internalType": "uint256",
					"name": "depositStart",
					"type": "uint256"
				}
			],
			"name": "calculateReward",
			"outputs": [
				{
					"internalType": "uint256",
					"name": "",
					"type": "uint256"
				}
			],
			"stateMutability": "view",
			"type": "function"
		},
		{
			"inputs": [
				{
					"internalType": "uint256",
					"name": "amount",
					"type": "uint256"
				},
				{
					"internalType": "uint256",
					"name": "lockMonths",
					"type": "uint256"
				},
				{
					"internalType": "uint256",
					"name": "depositStart",
					"type": "uint256"
				}
			],
			"name": "calculateRewardByMonths",
			"outputs": [
				{
					"internalType": "uint256",
					"name": "",
					"type": "uint256"
				}
			],
			"stateMutability": "view",
			"type": "function"
		},
		{
			"inputs": [
				{
					"internalType": "uint256",
					"name": "depositId",
					"type": "uint256"
				}
			],
			"name": "cancelDeposit",
			"outputs": [],
			"stateMutability": "nonpayable",
			"type": "function"
		},
		{
			"inputs": [
				{
					"internalType": "uint256",
					"name": "amount",
					"type": "uint256"
				},
				{
					"internalType": "uint256",
					"name": "lockMonths",
					"type": "uint256"
				}
			],
			"name": "createDeposit",
			"outputs": [],
			"stateMutability": "nonpayable",
			"type": "function"
		},
		{
			"inputs": [
				{
					"internalType": "address",
					"name": "user",
					"type": "address"
				},
				{
					"internalType": "uint256",
					"name": "amount",
					"type": "uint256"
				},
				{
					"internalType": "uint256",
					"name": "lockMonths",
					"type": "uint256"
				},
				{
					"internalType": "bool",
					"name": "ownRate",
					"type": "bool"
				},
				{
					"internalType": "uint256",
					"name": "rate",
					"type": "uint256"
				}
			],
			"name": "createDepositFor",
			"outputs": [],
			"stateMutability": "nonpayable",
			"type": "function"
		},
		{
			"inputs": [],
			"name": "deleteLastMonth",
			"outputs": [],
			"stateMutability": "nonpayable",
			"type": "function"
		},
		{
			"inputs": [
				{
					"internalType": "uint256",
					"name": "",
					"type": "uint256"
				}
			],
			"name": "deposits",
			"outputs": [
				{
					"internalType": "uint256",
					"name": "depositId",
					"type": "uint256"
				},
				{
					"internalType": "address",
					"name": "owner",
					"type": "address"
				},
				{
					"internalType": "uint256",
					"name": "amount",
					"type": "uint256"
				},
				{
					"internalType": "uint256",
					"name": "monthIndex",
					"type": "uint256"
				},
				{
					"internalType": "uint256",
					"name": "depositStart",
					"type": "uint256"
				},
				{
					"internalType": "uint256",
					"name": "depositClosed",
					"type": "uint256"
				},
				{
					"internalType": "uint256",
					"name": "unlockMonthIndex",
					"type": "uint256"
				},
				{
					"internalType": "uint256",
					"name": "lastAccruedMonthIdx",
					"type": "uint256"
				},
				{
					"internalType": "uint256",
					"name": "pendingReward",
					"type": "uint256"
				},
				{
					"internalType": "bool",
					"name": "active",
					"type": "bool"
				},
				{
					"internalType": "bool",
					"name": "isSaved",
					"type": "bool"
				},
				{
					"internalType": "uint256",
					"name": "savedReward",
					"type": "uint256"
				},
				{
					"internalType": "bool",
					"name": "ownRate",
					"type": "bool"
				},
				{
					"internalType": "uint256",
					"name": "rate",
					"type": "uint256"
				}
			],
			"stateMutability": "view",
			"type": "function"
		},
		{
			"inputs": [],
			"name": "depositsAmount",
			"outputs": [
				{
					"internalType": "uint256",
					"name": "",
					"type": "uint256"
				}
			],
			"stateMutability": "view",
			"type": "function"
		},
		{
			"inputs": [
				{
					"internalType": "uint256",
					"name": "",
					"type": "uint256"
				}
			],
			"name": "depositsRewardEarned",
			"outputs": [
				{
					"internalType": "uint256",
					"name": "",
					"type": "uint256"
				}
			],
			"stateMutability": "view",
			"type": "function"
		},
		{
			"inputs": [
				{
					"internalType": "uint256",
					"name": "idx",
					"type": "uint256"
				},
				{
					"internalType": "uint256",
					"name": "start",
					"type": "uint256"
				},
				{
					"internalType": "uint256",
					"name": "end",
					"type": "uint256"
				},
				{
					"internalType": "uint256",
					"name": "rateBps",
					"type": "uint256"
				}
			],
			"name": "editMonth",
			"outputs": [],
			"stateMutability": "nonpayable",
			"type": "function"
		},
		{
			"inputs": [],
			"name": "estimateRequiredBankReserve",
			"outputs": [
				{
					"internalType": "uint256",
					"name": "estimatedMonthlyRewards",
					"type": "uint256"
				}
			],
			"stateMutability": "view",
			"type": "function"
		},
		{
			"inputs": [],
			"name": "estimateRequiredBankReservePrecise",
			"outputs": [
				{
					"internalType": "uint256",
					"name": "",
					"type": "uint256"
				}
			],
			"stateMutability": "view",
			"type": "function"
		},
		{
			"inputs": [
				{
					"internalType": "uint256",
					"name": "_offset",
					"type": "uint256"
				},
				{
					"internalType": "uint256",
					"name": "_limit",
					"type": "uint256"
				}
			],
			"name": "getActiveDeposits",
			"outputs": [
				{
					"components": [
						{
							"internalType": "uint256",
							"name": "depositId",
							"type": "uint256"
						},
						{
							"internalType": "address",
							"name": "owner",
							"type": "address"
						},
						{
							"internalType": "uint256",
							"name": "amount",
							"type": "uint256"
						},
						{
							"internalType": "uint256",
							"name": "monthIndex",
							"type": "uint256"
						},
						{
							"internalType": "uint256",
							"name": "depositStart",
							"type": "uint256"
						},
						{
							"internalType": "uint256",
							"name": "depositClosed",
							"type": "uint256"
						},
						{
							"internalType": "uint256",
							"name": "unlockMonthIndex",
							"type": "uint256"
						},
						{
							"internalType": "uint256",
							"name": "lastAccruedMonthIdx",
							"type": "uint256"
						},
						{
							"internalType": "uint256",
							"name": "pendingReward",
							"type": "uint256"
						},
						{
							"internalType": "bool",
							"name": "active",
							"type": "bool"
						},
						{
							"internalType": "bool",
							"name": "isSaved",
							"type": "bool"
						},
						{
							"internalType": "uint256",
							"name": "savedReward",
							"type": "uint256"
						},
						{
							"internalType": "bool",
							"name": "ownRate",
							"type": "bool"
						},
						{
							"internalType": "uint256",
							"name": "rate",
							"type": "uint256"
						}
					],
					"internalType": "struct GGWStake.Deposit[]",
					"name": "ret",
					"type": "tuple[]"
				}
			],
			"stateMutability": "view",
			"type": "function"
		},
		{
			"inputs": [],
			"name": "getActiveDepositsCount",
			"outputs": [
				{
					"internalType": "uint256",
					"name": "",
					"type": "uint256"
				}
			],
			"stateMutability": "view",
			"type": "function"
		},
		{
			"inputs": [],
			"name": "getAllUsers",
			"outputs": [
				{
					"internalType": "address[]",
					"name": "",
					"type": "address[]"
				}
			],
			"stateMutability": "view",
			"type": "function"
		},
		{
			"inputs": [
				{
					"internalType": "uint256",
					"name": "depositId",
					"type": "uint256"
				}
			],
			"name": "getDepositById",
			"outputs": [
				{
					"components": [
						{
							"internalType": "uint256",
							"name": "depositId",
							"type": "uint256"
						},
						{
							"internalType": "address",
							"name": "owner",
							"type": "address"
						},
						{
							"internalType": "uint256",
							"name": "amount",
							"type": "uint256"
						},
						{
							"internalType": "uint256",
							"name": "monthIndex",
							"type": "uint256"
						},
						{
							"internalType": "uint256",
							"name": "depositStart",
							"type": "uint256"
						},
						{
							"internalType": "uint256",
							"name": "depositClosed",
							"type": "uint256"
						},
						{
							"internalType": "uint256",
							"name": "unlockMonthIndex",
							"type": "uint256"
						},
						{
							"internalType": "uint256",
							"name": "lastAccruedMonthIdx",
							"type": "uint256"
						},
						{
							"internalType": "uint256",
							"name": "pendingReward",
							"type": "uint256"
						},
						{
							"internalType": "bool",
							"name": "active",
							"type": "bool"
						},
						{
							"internalType": "bool",
							"name": "isSaved",
							"type": "bool"
						},
						{
							"internalType": "uint256",
							"name": "savedReward",
							"type": "uint256"
						},
						{
							"internalType": "bool",
							"name": "ownRate",
							"type": "bool"
						},
						{
							"internalType": "uint256",
							"name": "rate",
							"type": "uint256"
						}
					],
					"internalType": "struct GGWStake.Deposit",
					"name": "ret",
					"type": "tuple"
				}
			],
			"stateMutability": "view",
			"type": "function"
		},
		{
			"inputs": [
				{
					"internalType": "uint256",
					"name": "_offset",
					"type": "uint256"
				},
				{
					"internalType": "uint256",
					"name": "_limit",
					"type": "uint256"
				}
			],
			"name": "getDeposits",
			"outputs": [
				{
					"components": [
						{
							"internalType": "uint256",
							"name": "depositId",
							"type": "uint256"
						},
						{
							"internalType": "address",
							"name": "owner",
							"type": "address"
						},
						{
							"internalType": "uint256",
							"name": "amount",
							"type": "uint256"
						},
						{
							"internalType": "uint256",
							"name": "monthIndex",
							"type": "uint256"
						},
						{
							"internalType": "uint256",
							"name": "depositStart",
							"type": "uint256"
						},
						{
							"internalType": "uint256",
							"name": "depositClosed",
							"type": "uint256"
						},
						{
							"internalType": "uint256",
							"name": "unlockMonthIndex",
							"type": "uint256"
						},
						{
							"internalType": "uint256",
							"name": "lastAccruedMonthIdx",
							"type": "uint256"
						},
						{
							"internalType": "uint256",
							"name": "pendingReward",
							"type": "uint256"
						},
						{
							"internalType": "bool",
							"name": "active",
							"type": "bool"
						},
						{
							"internalType": "bool",
							"name": "isSaved",
							"type": "bool"
						},
						{
							"internalType": "uint256",
							"name": "savedReward",
							"type": "uint256"
						},
						{
							"internalType": "bool",
							"name": "ownRate",
							"type": "bool"
						},
						{
							"internalType": "uint256",
							"name": "rate",
							"type": "uint256"
						}
					],
					"internalType": "struct GGWStake.Deposit[]",
					"name": "ret",
					"type": "tuple[]"
				}
			],
			"stateMutability": "view",
			"type": "function"
		},
		{
			"inputs": [
				{
					"internalType": "uint256[]",
					"name": "depositsIds",
					"type": "uint256[]"
				}
			],
			"name": "getDepositsRewardEarned",
			"outputs": [
				{
					"components": [
						{
							"internalType": "uint256",
							"name": "depositId",
							"type": "uint256"
						},
						{
							"internalType": "uint256",
							"name": "earned",
							"type": "uint256"
						}
					],
					"internalType": "struct GGWStake.DepositRewardEarned[]",
					"name": "ret",
					"type": "tuple[]"
				}
			],
			"stateMutability": "view",
			"type": "function"
		},
		{
			"inputs": [
				{
					"internalType": "uint256",
					"name": "_offset",
					"type": "uint256"
				},
				{
					"internalType": "uint256",
					"name": "_limit",
					"type": "uint256"
				}
			],
			"name": "getMonths",
			"outputs": [
				{
					"components": [
						{
							"internalType": "uint256",
							"name": "monthId",
							"type": "uint256"
						},
						{
							"internalType": "uint256",
							"name": "start",
							"type": "uint256"
						},
						{
							"internalType": "uint256",
							"name": "end",
							"type": "uint256"
						},
						{
							"internalType": "uint256",
							"name": "rateBps",
							"type": "uint256"
						},
						{
							"internalType": "uint256",
							"name": "depositsCount",
							"type": "uint256"
						},
						{
							"internalType": "uint256",
							"name": "depositsAmount",
							"type": "uint256"
						},
						{
							"internalType": "uint256",
							"name": "rewardsAmount",
							"type": "uint256"
						}
					],
					"internalType": "struct GGWStake.MonthSummaryInfo[]",
					"name": "ret",
					"type": "tuple[]"
				}
			],
			"stateMutability": "view",
			"type": "function"
		},
		{
			"inputs": [],
			"name": "getMonthsCount",
			"outputs": [
				{
					"internalType": "uint256",
					"name": "",
					"type": "uint256"
				}
			],
			"stateMutability": "view",
			"type": "function"
		},
		{
			"inputs": [
				{
					"internalType": "uint256",
					"name": "depositId",
					"type": "uint256"
				}
			],
			"name": "getSavedReward",
			"outputs": [],
			"stateMutability": "nonpayable",
			"type": "function"
		},
		{
			"inputs": [],
			"name": "getSummaryInfo",
			"outputs": [
				{
					"components": [
						{
							"internalType": "uint256",
							"name": "usersCount",
							"type": "uint256"
						},
						{
							"internalType": "uint256",
							"name": "activeDepositsCount",
							"type": "uint256"
						},
						{
							"internalType": "uint256",
							"name": "depositsCount",
							"type": "uint256"
						},
						{
							"internalType": "uint256",
							"name": "depositsAmount",
							"type": "uint256"
						},
						{
							"internalType": "uint256",
							"name": "rewardsPayed",
							"type": "uint256"
						},
						{
							"internalType": "uint256",
							"name": "bankAmount",
							"type": "uint256"
						},
						{
							"internalType": "uint8",
							"name": "tokenDecimals",
							"type": "uint8"
						},
						{
							"internalType": "string",
							"name": "tokenName",
							"type": "string"
						},
						{
							"internalType": "string",
							"name": "tokenSymbol",
							"type": "string"
						},
						{
							"internalType": "address",
							"name": "tokenAddress",
							"type": "address"
						},
						{
							"internalType": "uint256",
							"name": "globalRateBps",
							"type": "uint256"
						},
						{
							"internalType": "uint256",
							"name": "minLockMonths",
							"type": "uint256"
						},
						{
							"internalType": "uint256",
							"name": "minLockAmount",
							"type": "uint256"
						},
						{
							"internalType": "uint256",
							"name": "estimateRequiredBankReserve",
							"type": "uint256"
						},
						{
							"internalType": "uint256",
							"name": "estimateRequiredBankReservePrecise",
							"type": "uint256"
						},
						{
							"internalType": "uint256",
							"name": "currentMonth",
							"type": "uint256"
						},
						{
							"internalType": "uint256",
							"name": "monthsCount",
							"type": "uint256"
						}
					],
					"internalType": "struct GGWStake.SummaryInfo",
					"name": "",
					"type": "tuple"
				}
			],
			"stateMutability": "view",
			"type": "function"
		},
		{
			"inputs": [],
			"name": "getTotalDeposits",
			"outputs": [
				{
					"internalType": "uint256",
					"name": "",
					"type": "uint256"
				}
			],
			"stateMutability": "view",
			"type": "function"
		},
		{
			"inputs": [],
			"name": "getTotalUsers",
			"outputs": [
				{
					"internalType": "uint256",
					"name": "",
					"type": "uint256"
				}
			],
			"stateMutability": "view",
			"type": "function"
		},
		{
			"inputs": [
				{
					"internalType": "address",
					"name": "user",
					"type": "address"
				},
				{
					"internalType": "uint256",
					"name": "_offset",
					"type": "uint256"
				},
				{
					"internalType": "uint256",
					"name": "_limit",
					"type": "uint256"
				}
			],
			"name": "getUserDeposits",
			"outputs": [
				{
					"components": [
						{
							"internalType": "uint256",
							"name": "depositId",
							"type": "uint256"
						},
						{
							"internalType": "address",
							"name": "owner",
							"type": "address"
						},
						{
							"internalType": "uint256",
							"name": "amount",
							"type": "uint256"
						},
						{
							"internalType": "uint256",
							"name": "monthIndex",
							"type": "uint256"
						},
						{
							"internalType": "uint256",
							"name": "depositStart",
							"type": "uint256"
						},
						{
							"internalType": "uint256",
							"name": "depositClosed",
							"type": "uint256"
						},
						{
							"internalType": "uint256",
							"name": "unlockMonthIndex",
							"type": "uint256"
						},
						{
							"internalType": "uint256",
							"name": "lastAccruedMonthIdx",
							"type": "uint256"
						},
						{
							"internalType": "uint256",
							"name": "pendingReward",
							"type": "uint256"
						},
						{
							"internalType": "bool",
							"name": "active",
							"type": "bool"
						},
						{
							"internalType": "bool",
							"name": "isSaved",
							"type": "bool"
						},
						{
							"internalType": "uint256",
							"name": "savedReward",
							"type": "uint256"
						},
						{
							"internalType": "bool",
							"name": "ownRate",
							"type": "bool"
						},
						{
							"internalType": "uint256",
							"name": "rate",
							"type": "uint256"
						}
					],
					"internalType": "struct GGWStake.Deposit[]",
					"name": "ret",
					"type": "tuple[]"
				}
			],
			"stateMutability": "view",
			"type": "function"
		},
		{
			"inputs": [
				{
					"internalType": "address",
					"name": "user",
					"type": "address"
				}
			],
			"name": "getUserDepositsCount",
			"outputs": [
				{
					"internalType": "uint256",
					"name": "",
					"type": "uint256"
				}
			],
			"stateMutability": "view",
			"type": "function"
		},
		{
			"inputs": [
				{
					"internalType": "address",
					"name": "user",
					"type": "address"
				}
			],
			"name": "getUserDepositsIds",
			"outputs": [
				{
					"internalType": "uint256[]",
					"name": "",
					"type": "uint256[]"
				}
			],
			"stateMutability": "view",
			"type": "function"
		},
		{
			"inputs": [
				{
					"internalType": "uint256",
					"name": "_offset",
					"type": "uint256"
				},
				{
					"internalType": "uint256",
					"name": "_limit",
					"type": "uint256"
				}
			],
			"name": "getUsers",
			"outputs": [
				{
					"internalType": "address[]",
					"name": "ret",
					"type": "address[]"
				}
			],
			"stateMutability": "view",
			"type": "function"
		},
		{
			"inputs": [],
			"name": "getUsersCount",
			"outputs": [
				{
					"internalType": "uint256",
					"name": "",
					"type": "uint256"
				}
			],
			"stateMutability": "view",
			"type": "function"
		},
		{
			"inputs": [],
			"name": "globalRateBps",
			"outputs": [
				{
					"internalType": "uint256",
					"name": "",
					"type": "uint256"
				}
			],
			"stateMutability": "view",
			"type": "function"
		},
		{
			"inputs": [
				{
					"internalType": "address",
					"name": "",
					"type": "address"
				}
			],
			"name": "isUser",
			"outputs": [
				{
					"internalType": "bool",
					"name": "",
					"type": "bool"
				}
			],
			"stateMutability": "view",
			"type": "function"
		},
		{
			"inputs": [],
			"name": "lastKnownMonthIndex",
			"outputs": [
				{
					"internalType": "uint256",
					"name": "",
					"type": "uint256"
				}
			],
			"stateMutability": "view",
			"type": "function"
		},
		{
			"inputs": [],
			"name": "minLockAmount",
			"outputs": [
				{
					"internalType": "uint256",
					"name": "",
					"type": "uint256"
				}
			],
			"stateMutability": "view",
			"type": "function"
		},
		{
			"inputs": [],
			"name": "minLockMonths",
			"outputs": [
				{
					"internalType": "uint256",
					"name": "",
					"type": "uint256"
				}
			],
			"stateMutability": "view",
			"type": "function"
		},
		{
			"inputs": [
				{
					"internalType": "uint256",
					"name": "",
					"type": "uint256"
				}
			],
			"name": "monthDepositsAmount",
			"outputs": [
				{
					"internalType": "uint256",
					"name": "",
					"type": "uint256"
				}
			],
			"stateMutability": "view",
			"type": "function"
		},
		{
			"inputs": [
				{
					"internalType": "uint256",
					"name": "",
					"type": "uint256"
				}
			],
			"name": "monthDepositsCount",
			"outputs": [
				{
					"internalType": "uint256",
					"name": "",
					"type": "uint256"
				}
			],
			"stateMutability": "view",
			"type": "function"
		},
		{
			"inputs": [
				{
					"internalType": "uint256",
					"name": "",
					"type": "uint256"
				}
			],
			"name": "monthRewardsAmount",
			"outputs": [
				{
					"internalType": "uint256",
					"name": "",
					"type": "uint256"
				}
			],
			"stateMutability": "view",
			"type": "function"
		},
		{
			"inputs": [
				{
					"internalType": "uint256",
					"name": "",
					"type": "uint256"
				}
			],
			"name": "months",
			"outputs": [
				{
					"internalType": "uint256",
					"name": "start",
					"type": "uint256"
				},
				{
					"internalType": "uint256",
					"name": "end",
					"type": "uint256"
				},
				{
					"internalType": "uint256",
					"name": "rateBps",
					"type": "uint256"
				}
			],
			"stateMutability": "view",
			"type": "function"
		},
		{
			"inputs": [],
			"name": "oracle",
			"outputs": [
				{
					"internalType": "address",
					"name": "",
					"type": "address"
				}
			],
			"stateMutability": "view",
			"type": "function"
		},
		{
			"inputs": [],
			"name": "owner",
			"outputs": [
				{
					"internalType": "address",
					"name": "",
					"type": "address"
				}
			],
			"stateMutability": "view",
			"type": "function"
		},
		{
			"inputs": [
				{
					"internalType": "address",
					"name": "token",
					"type": "address"
				},
				{
					"internalType": "uint256",
					"name": "amount",
					"type": "uint256"
				}
			],
			"name": "recoverToken",
			"outputs": [],
			"stateMutability": "nonpayable",
			"type": "function"
		},
		{
			"inputs": [],
			"name": "rewardsPayed",
			"outputs": [
				{
					"internalType": "uint256",
					"name": "",
					"type": "uint256"
				}
			],
			"stateMutability": "view",
			"type": "function"
		},
		{
			"inputs": [
				{
					"internalType": "uint256",
					"name": "depositId",
					"type": "uint256"
				}
			],
			"name": "safeDeposit",
			"outputs": [],
			"stateMutability": "nonpayable",
			"type": "function"
		},
		{
			"inputs": [
				{
					"internalType": "uint256",
					"name": "_rateBps",
					"type": "uint256"
				}
			],
			"name": "setGlobalRateBps",
			"outputs": [],
			"stateMutability": "nonpayable",
			"type": "function"
		},
		{
			"inputs": [
				{
					"internalType": "uint256",
					"name": "newMinLockAmount",
					"type": "uint256"
				}
			],
			"name": "setMinLockAmount",
			"outputs": [],
			"stateMutability": "nonpayable",
			"type": "function"
		},
		{
			"inputs": [
				{
					"internalType": "uint256",
					"name": "newMinLockMonths",
					"type": "uint256"
				}
			],
			"name": "setMinLockMonths",
			"outputs": [],
			"stateMutability": "nonpayable",
			"type": "function"
		},
		{
			"inputs": [
				{
					"internalType": "address",
					"name": "newOracle",
					"type": "address"
				}
			],
			"name": "setOracle",
			"outputs": [],
			"stateMutability": "nonpayable",
			"type": "function"
		},
		{
			"inputs": [
				{
					"internalType": "address",
					"name": "newStakeOracle",
					"type": "address"
				}
			],
			"name": "setStakeOracle",
			"outputs": [],
			"stateMutability": "nonpayable",
			"type": "function"
		},
		{
			"inputs": [],
			"name": "stakeOracle",
			"outputs": [
				{
					"internalType": "address",
					"name": "",
					"type": "address"
				}
			],
			"stateMutability": "view",
			"type": "function"
		},
		{
			"inputs": [],
			"name": "stakingToken",
			"outputs": [
				{
					"internalType": "contract IERC20",
					"name": "",
					"type": "address"
				}
			],
			"stateMutability": "view",
			"type": "function"
		},
		{
			"inputs": [
				{
					"internalType": "address",
					"name": "newOwner",
					"type": "address"
				}
			],
			"name": "transferOwnership",
			"outputs": [],
			"stateMutability": "nonpayable",
			"type": "function"
		},
		{
			"inputs": [
				{
					"internalType": "address",
					"name": "",
					"type": "address"
				},
				{
					"internalType": "uint256",
					"name": "",
					"type": "uint256"
				}
			],
			"name": "userDeposits",
			"outputs": [
				{
					"internalType": "uint256",
					"name": "",
					"type": "uint256"
				}
			],
			"stateMutability": "view",
			"type": "function"
		},
		{
			"inputs": [
				{
					"internalType": "uint256",
					"name": "amount",
					"type": "uint256"
				}
			],
			"name": "withdrawBank",
			"outputs": [],
			"stateMutability": "nonpayable",
			"type": "function"
		},
		{
			"inputs": [
				{
					"internalType": "uint256",
					"name": "depositId",
					"type": "uint256"
				}
			],
			"name": "withdrawPrincipalAndRewards",
			"outputs": [],
			"stateMutability": "nonpayable",
			"type": "function"
		},
		{
			"inputs": [
				{
					"internalType": "uint256",
					"name": "depositId",
					"type": "uint256"
				}
			],
			"name": "withdrawRewardsOnly",
			"outputs": [],
			"stateMutability": "nonpayable",
			"type": "function"
		}
	]
}