{
	"data": {
		"bytecode": {
			"linkReferences": {},
			"object": "6080604052670f43fc2c04ee0000600355676124fee993bc0000600455603c6005555f6008555f6009555f600a555f600b555f600d55670de0b6b3a764000060115568056bc75e2d631000006012555f6013553480156200005e575f80fd5b506040516200483838038062004838833981016040819052620000819162000150565b60015f81815581546001600160a01b03199081166001600160a01b0395861617835560146020527f4f26c3876aa9f4b92579780beea1161a61f87ebf1ec6ee865b299e447ecba99d8054600460ff1991821617909155918390527fb6c61a840592cc84133e4b25bd509abf4659307c57b160799b38490a5aa48f2d805490921690921790556006805433908316811790915560028054831693909416929092179092556007805490921617905562000186565b80516001600160a01b03811681146200014b575f80fd5b919050565b5f806040838503121562000162575f80fd5b6200016d8362000134565b91506200017d6020840162000134565b90509250929050565b6146a480620001945f395ff3fe608060405234801561000f575f80fd5b5060043610610346575f3560e01c806391b1db18116101be578063bbe52300116100fe578063e2eb41ff1161009e578063f231492d11610079578063f231492d14610957578063f2fde38b1461096a578063fc0c546a1461097d578063fca8d8431461099d575f80fd5b8063e2eb41ff146108a8578063e4a9f19214610945578063efbd7bd21461094e575f80fd5b8063c084b10b116100d9578063c084b10b14610857578063c85e34991461086a578063cb02c10a14610872578063cfbd9c9514610885575f80fd5b8063bbe52300146107ff578063bed8840c14610821578063befa1e2f1461084e575f80fd5b8063a279114311610169578063a4ab923511610144578063a4ab923514610798578063aaf5eb68146107bb578063aef18bf7146107ca578063b32f59f0146107ec575f80fd5b8063a27911431461077e578063a32bf59714610787578063a3f67d6d1461078f575f80fd5b80639b29953b116101995780639b29953b146107355780639fd751c714610762578063a24e0d8714610775575f80fd5b806391b1db18146106bf5780639619367d146107095780639972780a14610712575f80fd5b80635fc3d52d116102895780637dc0d1d011610234578063881eff1e1161020f578063881eff1e146105f857806388ea41b91461060b5780638c65c81f1461061e5780638da5cb5b1461069f575f80fd5b80637dc0d1d0146105bd5780637e07ab09146105dd5780638011d1ed146105f0575f80fd5b80636c7ac9d8116102645780636c7ac9d8146105305780637319b43e146105755780637adbf973146105aa575f80fd5b80635fc3d52d1461049457806362540477146104a7578063671eea01146104ba575f80fd5b80631f69565f116102f457806338a50817116102cf57806338a50817146104135780633c28f9ce1461043757806340f74f471461044a5780634aa823801461046a575f80fd5b80631f69565f146103d7578063228d71a9146103f75780632e5b21681461040a575f80fd5b8063074e003611610324578063074e0036146103845780630d2dce221461038d57806313b8ac5e146103ad575f80fd5b806301526a431461034a5780630187aea01461035f578063034420c41461037b575b5f80fd5b61035d610358366004613c2a565b6109c7565b005b61036860045481565b6040519081526020015b60405180910390f35b61036860135481565b61036860095481565b6103a061039b366004613c41565b610a52565b6040516103729190613ce5565b6103686103bb366004613c41565b601960209081525f928352604080842090915290825290205481565b6103ea6103e5366004613d1f565b610c83565b6040516103729190613da5565b61035d610405366004613d1f565b611056565b61036860125481565b6013545f9081526014602052604090206001015460ff166040516103729190613eaf565b61035d610445366004613ebd565b61111e565b61045d610458366004613c41565b6112e9565b6040516103729190613f89565b610368610478366004613c41565b601060209081525f928352604080842090915290825290205481565b61035d6104a2366004613c2a565b611560565b61035d6104b53660046140ef565b611713565b6105046104c8366004613c41565b601560209081525f92835260408084209091529082529020805460019091015473ffffffffffffffffffffffffffffffffffffffff9091169082565b6040805173ffffffffffffffffffffffffffffffffffffffff9093168352602083019190915201610372565b6002546105509073ffffffffffffffffffffffffffffffffffffffff1681565b60405173ffffffffffffffffffffffffffffffffffffffff9091168152602001610372565b610550610583366004613c2a565b600f6020525f908152604090205473ffffffffffffffffffffffffffffffffffffffff1681565b61035d6105b8366004613d1f565b611d3d565b6006546105509073ffffffffffffffffffffffffffffffffffffffff1681565b61035d6105eb366004613c2a565b611e05565b610368612100565b61035d610606366004613c2a565b612115565b61035d610619366004613c2a565b61219b565b61068861062c366004613c2a565b60146020525f9081526040902080546001820154600283015460038401546004850154600586015460068701546007880154600889015460098a0154600a909a0154989960ff909816989697959694959394929391929091908b565b6040516103729b9a99989796959493929190614146565b6007546105509073ffffffffffffffffffffffffffffffffffffffff1681565b6105046106cd366004613c41565b601860209081525f92835260408084209091529082529020805460019091015473ffffffffffffffffffffffffffffffffffffffff9091169082565b61036860115481565b6107256107203660046141a1565b612221565b6040519015158152602001610372565b610725610743366004613c41565b601a60209081525f928352604080842090915290825290205460ff1681565b61035d610770366004613c2a565b612281565b61036860035481565b610368600b5481565b601354610368565b610368600d5481565b6107ab6107a63660046141a1565b612307565b60405161037294939291906141f9565b610368670de0b6b3a764000081565b6107256107d8366004613c2a565b601b6020525f908152604090205460ff1681565b61035d6107fa366004613c2a565b61276c565b61072561080d366004613d1f565b600e6020525f908152604090205460ff1681565b61072561082f366004613c41565b601760209081525f928352604080842090915290825290205460ff1681565b61036860085481565b610368610865366004613d1f565b6127f2565b610368612884565b61035d610880366004613c2a565b612942565b610898610893366004614250565b612d2d565b6040516103729493929190614282565b6109016108b6366004613d1f565b600c6020525f908152604090208054600182015460028301546003840154600485015460059095015473ffffffffffffffffffffffffffffffffffffffff9094169492939192909186565b6040805173ffffffffffffffffffffffffffffffffffffffff90971687526020870195909552938501929092526060840152608083015260a082015260c001610372565b61036860055481565b610368600a5481565b61035d610965366004614294565b61336d565b61035d610978366004613d1f565b6139bd565b6001546105509073ffffffffffffffffffffffffffffffffffffffff1681565b6103686109ab366004613c41565b601660209081525f928352604080842090915290825290205481565b60075473ffffffffffffffffffffffffffffffffffffffff163314610a4d576040517f08c379a000000000000000000000000000000000000000000000000000000000815260206004820152600a60248201527f4f6e6c79206f776e65720000000000000000000000000000000000000000000060448201526064015b60405180910390fd5b600455565b6060600d54831115610ad757604080515f8082526020820190925290610acf565b610abc6040518060c001604052805f73ffffffffffffffffffffffffffffffffffffffff1681526020015f81526020015f81526020015f81526020015f81526020015f81525090565b815260200190600190039081610a735790505b509050610c7d565b82158015610ae3575081155b15610aee57600d5491505b600d54610afb838561432a565b1115610b125782600d54610b0f919061433d565b91505b5f8267ffffffffffffffff811115610b2c57610b2c613f9b565b604051908082528060200260200182016040528015610ba657816020015b610b936040518060c001604052805f73ffffffffffffffffffffffffffffffffffffffff1681526020015f81526020015f81526020015f81526020015f81526020015f81525090565b815260200190600190039081610b4a5790505b5090505f5b83811015610c7957600c5f600f5f8885600d54610bc8919061433d565b610bd2919061433d565b815260208082019290925260409081015f9081205473ffffffffffffffffffffffffffffffffffffffff908116855284840195909552928101909220825160c0810184528154909416845260018101549184019190915260028101549183019190915260038101546060830152600481015460808301526005015460a08201528251839083908110610c6657610c66614350565b6020908102919091010152600101610bab565b5090505b92915050565b610cd16040518060c001604052805f73ffffffffffffffffffffffffffffffffffffffff1681526020015f60ff16815260200160608152602001606081526020015f81526020015f81525090565b6040805160c08101825260015473ffffffffffffffffffffffffffffffffffffffff1680825282517f313ce5670000000000000000000000000000000000000000000000000000000081529251919260208085019363313ce5679260048082019392918290030181865afa158015610d4b573d5f803e3d5ffd5b505050506040513d601f19601f82011682018060405250810190610d6f919061437d565b60ff16815260200160015f9054906101000a900473ffffffffffffffffffffffffffffffffffffffff1673ffffffffffffffffffffffffffffffffffffffff166306fdde036040518163ffffffff1660e01b81526004015f60405180830381865afa158015610de0573d5f803e3d5ffd5b505050506040513d5f823e601f3d9081017fffffffffffffffffffffffffffffffffffffffffffffffffffffffffffffffe0168201604052610e259190810190614424565b815260200160015f9054906101000a900473ffffffffffffffffffffffffffffffffffffffff1673ffffffffffffffffffffffffffffffffffffffff166395d89b416040518163ffffffff1660e01b81526004015f60405180830381865afa158015610e93573d5f803e3d5ffd5b505050506040513d5f823e601f3d9081017fffffffffffffffffffffffffffffffffffffffffffffffffffffffffffffffe0168201604052610ed89190810190614424565b815260200173ffffffffffffffffffffffffffffffffffffffff8416610efe575f610f90565b6001546040517f70a0823100000000000000000000000000000000000000000000000000000000815273ffffffffffffffffffffffffffffffffffffffff8681166004830152909116906370a0823190602401602060405180830381865afa158015610f6c573d5f803e3d5ffd5b505050506040513d601f19601f82011682018060405250810190610f909190614456565b815260200173ffffffffffffffffffffffffffffffffffffffff8416610fb6575f61104e565b6001546040517fdd62ed3e00000000000000000000000000000000000000000000000000000000815273ffffffffffffffffffffffffffffffffffffffff86811660048301523060248301529091169063dd62ed3e90604401602060405180830381865afa15801561102a573d5f803e3d5ffd5b505050506040513d601f19601f8201168201806040525081019061104e9190614456565b905292915050565b60075473ffffffffffffffffffffffffffffffffffffffff1633146110d7576040517f08c379a000000000000000000000000000000000000000000000000000000000815260206004820152600a60248201527f4f6e6c79206f776e6572000000000000000000000000000000000000000000006044820152606401610a44565b600280547fffffffffffffffffffffffff00000000000000000000000000000000000000001673ffffffffffffffffffffffffffffffffffffffff92909216919091179055565b60075473ffffffffffffffffffffffffffffffffffffffff16331461119f576040517f08c379a000000000000000000000000000000000000000000000000000000000815260206004820152600a60248201527f4f6e6c79206f776e6572000000000000000000000000000000000000000000006044820152606401610a44565b60015473ffffffffffffffffffffffffffffffffffffffff9081169083160361124a576040517f08c379a000000000000000000000000000000000000000000000000000000000815260206004820152602b60248201527f43616e74207265636f7765722067616d6520746f6b656e2e204f6e6c7920626160448201527f6e6b2077697468647261770000000000000000000000000000000000000000006064820152608401610a44565b6007546040517fa9059cbb00000000000000000000000000000000000000000000000000000000815273ffffffffffffffffffffffffffffffffffffffff9182166004820152602481018390529083169063a9059cbb906044016020604051808303815f875af11580156112c0573d5f803e3d5ffd5b505050506040513d601f19601f820116820180604052508101906112e4919061446d565b505050565b606060135483111561137e57604080515f8082526020820190925290610acf565b6113646040805161016081019091525f808252602082019081526020015f81526020015f81526020015f81526020015f81526020015f81526020015f81526020015f81526020015f80191681526020015f80191681525090565b81526020019060019003908161130a579050509050610c7d565b8215801561138a575081155b156113955760135491505b6013546113a2838561432a565b11156113b957826013546113b6919061433d565b91505b5f8267ffffffffffffffff8111156113d3576113d3613f9b565b60405190808252806020026020018201604052801561145e57816020015b61144b6040805161016081019091525f808252602082019081526020015f81526020015f81526020015f81526020015f81526020015f81526020015f81526020015f81526020015f80191681526020015f80191681525090565b8152602001906001900390816113f15790505b5090505f5b83811015610c795760145f868360135461147d919061433d565b611487919061433d565b81526020019081526020015f20604051806101600160405290815f8201548152602001600182015f9054906101000a900460ff1660058111156114cc576114cc613e49565b60058111156114dd576114dd613e49565b81526020016002820154815260200160038201548152602001600482015481526020016005820154815260200160068201548152602001600782015481526020016008820154815260200160098201548152602001600a8201548152505082828151811061154d5761154d614350565b6020908102919091010152600101611463565b60065473ffffffffffffffffffffffffffffffffffffffff1633146115e1576040517f08c379a000000000000000000000000000000000000000000000000000000000815260206004820152600b60248201527f4f6e6c79206f7261636c650000000000000000000000000000000000000000006044820152606401610a44565b6115e9613a85565b60025f8281526014602052604090206001015460ff16600581111561161057611610613e49565b14611677576040517f08c379a000000000000000000000000000000000000000000000000000000000815260206004820152600b60248201527f4e6f742070656e64696e670000000000000000000000000000000000000000006044820152606401610a44565b5f818152601460209081526040918290206001810180547fffffffffffffffffffffffffffffffffffffffffffffffffffffffffffffff001660031790554260028201556004810154600690910154835185815292830191909152918101919091527fa359b664a68acd8839e42112eb50eff3408165e15074fde89ddb58a0db2e691d906060015b60405180910390a161171060015f55565b50565b60065473ffffffffffffffffffffffffffffffffffffffff163314611794576040517f08c379a000000000000000000000000000000000000000000000000000000000815260206004820152600b60248201527f4f6e6c79206f7261636c650000000000000000000000000000000000000000006044820152606401610a44565b61179c613a85565b60025f8381526014602052604090206001015460ff1660058111156117c3576117c3613e49565b1461182a576040517f08c379a000000000000000000000000000000000000000000000000000000000815260206004820152601160248201527f4e6f742070656e64696e6720726f756e640000000000000000000000000000006044820152606401610a44565b5f82815260146020526040812060040154815b8351811015611ca55761186b84828151811061185b5761185b614350565b60200260200101515f0151613af6565b5f600c5f86848151811061188157611881614350565b60200260200101515f015173ffffffffffffffffffffffffffffffffffffffff1673ffffffffffffffffffffffffffffffffffffffff1681526020019081526020015f2090505f60025f9054906101000a900473ffffffffffffffffffffffffffffffffffffffff1673ffffffffffffffffffffffffffffffffffffffff1663c084b10b87858151811061191757611917614350565b6020908102919091010151516040517fffffffff0000000000000000000000000000000000000000000000000000000060e084901b16815273ffffffffffffffffffffffffffffffffffffffff9091166004820152602401602060405180830381865afa15801561198a573d5f803e3d5ffd5b505050506040513d601f19601f820116820180604052508101906119ae9190614456565b90508583815181106119c2576119c2614350565b60200260200101516020015181101580156119fa57505f8781526017602090815260408083206001860154845290915290205460ff16155b8015611a255750601154868481518110611a1657611a16614350565b60200260200101516020015110155b8015611a505750601254868481518110611a4157611a41614350565b60200260200101516020015111155b15611c9b57600254865173ffffffffffffffffffffffffffffffffffffffff9091169063f0a507da90889086908110611a8b57611a8b614350565b60200260200101515f0151888681518110611aa857611aa8614350565b6020026020010151602001516040518363ffffffff1660e01b8152600401611af292919073ffffffffffffffffffffffffffffffffffffffff929092168252602082015260400190565b5f604051808303815f87803b158015611b09575f80fd5b505af1158015611b1b573d5f803e3d5ffd5b50505050858381518110611b3157611b31614350565b602002602001015160200151826002015f828254611b4f919061432a565b90915550506005820187905560018201545f908152601060209081526040808320600486018054855292528220899055805491611b8b8361448c565b9190505550858381518110611ba257611ba2614350565b6020908102919091018101515f8981526015835260408082208883528452808220835181547fffffffffffffffffffffffff00000000000000000000000000000000000000001673ffffffffffffffffffffffffffffffffffffffff909116178155928401516001938401558a8252601784528082208684015483529093529190912080547fffffffffffffffffffffffffffffffffffffffffffffffffffffffffffffff0016909117905583611c588161448c565b945050858381518110611c6d57611c6d614350565b60200260200101516020015185611c84919061432a565b600880549196505f611c958361448c565b91905055505b505060010161183d565b5081600a5f828254611cb7919061432a565b90915550505f8481526014602052604081206006018054849290611cdc90849061432a565b90915550505f8481526014602052604090819020600401829055517f7d23cde3340f9ed7d2dc841617c48355e318c23b08139253ab961613741d009390611d2690869086906144c3565b60405180910390a15050611d3960015f55565b5050565b60075473ffffffffffffffffffffffffffffffffffffffff163314611dbe576040517f08c379a000000000000000000000000000000000000000000000000000000000815260206004820152600a60248201527f4f6e6c79206f776e6572000000000000000000000000000000000000000000006044820152606401610a44565b600680547fffffffffffffffffffffffff00000000000000000000000000000000000000001673ffffffffffffffffffffffffffffffffffffffff92909216919091179055565b611e0d613a85565b60075473ffffffffffffffffffffffffffffffffffffffff16331480611e4a575060065473ffffffffffffffffffffffffffffffffffffffff1633145b611eb0576040517f08c379a000000000000000000000000000000000000000000000000000000000815260206004820152601460248201527f4f6e6c79206f776e6572206f72206f7261636c650000000000000000000000006044820152606401610a44565b60025f8281526014602052604090206001015460ff166005811115611ed757611ed7613e49565b1480611f07575060035f8281526014602052604090206001015460ff166005811115611f0557611f05613e49565b145b611f6d576040517f08c379a000000000000000000000000000000000000000000000000000000000815260206004820152601260248201527f4e6f742070656e64696e67206f722072756e00000000000000000000000000006044820152606401610a44565b5f8181526014602052604081206001810180547fffffffffffffffffffffffffffffffffffffffffffffffffffffffffffffff00166005179055426003909101555b5f828152601460205260409020600401548110156120cf576002545f83815260156020908152604080832085845290915290819020805460019091015491517f9546717700000000000000000000000000000000000000000000000000000000815273ffffffffffffffffffffffffffffffffffffffff91821660048201526024810192909252909116906395467177906044015f604051808303815f87803b15801561205a575f80fd5b505af115801561206c573d5f803e3d5ffd5b5050505f83815260156020908152604080832085845282528083206001810154905473ffffffffffffffffffffffffffffffffffffffff168452600c9092528220600201805491935091906120c290849061433d565b9091555050600101611faf565b506040518181527ffcaa91c5f18db2a6c2f172bbcd4a3c8a2f06bbefaf847b579a6df431b77bb745906020016116ff565b5f6013546001612110919061432a565b905090565b60075473ffffffffffffffffffffffffffffffffffffffff163314612196576040517f08c379a000000000000000000000000000000000000000000000000000000000815260206004820152600a60248201527f4f6e6c79206f776e6572000000000000000000000000000000000000000000006044820152606401610a44565b601255565b60075473ffffffffffffffffffffffffffffffffffffffff16331461221c576040517f08c379a000000000000000000000000000000000000000000000000000000000815260206004820152600a60248201527f4f6e6c79206f776e6572000000000000000000000000000000000000000000006044820152606401610a44565b601155565b5f80848360405160200161223f929190918252602082015260400190565b604080517fffffffffffffffffffffffffffffffffffffffffffffffffffffffffffffffe0818403018152919052805160209091012084149150509392505050565b60075473ffffffffffffffffffffffffffffffffffffffff163314612302576040517f08c379a000000000000000000000000000000000000000000000000000000000815260206004820152600a60248201527f4f6e6c79206f776e6572000000000000000000000000000000000000000000006044820152606401610a44565b600355565b60608060608060145f8881526020019081526020015f20600401548611156123c557604080515f808252602082019092529061239a565b6123876040518060c001604052805f73ffffffffffffffffffffffffffffffffffffffff1681526020015f81526020015f81526020015f81526020015f81526020015f81525090565b81526020019060019003908161233e5790505b50604080515f8082526020820181815282840191825260608301909352929650945092509050612763565b851580156123d1575084155b156123ea575f8781526014602052604090206004015494505b5f87815260146020526040902060040154612405868861432a565b111561242a575f8781526014602052604090206004015461242790879061433d565b94505b8467ffffffffffffffff81111561244357612443613f9b565b6040519080825280602002602001820160405280156124bd57816020015b6124aa6040518060c001604052805f73ffffffffffffffffffffffffffffffffffffffff1681526020015f81526020015f81526020015f81526020015f81526020015f81525090565b8152602001906001900390816124615790505b5093508467ffffffffffffffff8111156124d9576124d9613f9b565b604051908082528060200260200182016040528015612502578160200160208202803683370190505b5092508467ffffffffffffffff81111561251e5761251e613f9b565b604051908082528060200260200182016040528015612547578160200160208202803683370190505b5090505f5b85811015612761575f88815260146020526040812060040154600190899061257590859061433d565b61257f919061433d565b612589919061433d565b5f8a815260156020908152604080832084845282528083205473ffffffffffffffffffffffffffffffffffffffff9081168452600c835292819020815160c0810183528154909416845260018101549284019290925260028201549083015260038101546060830152600481015460808301526005015460a0820152875191925090819088908590811061261f5761261f614350565b6020908102919091018101919091525f8b81526015825260408082208583529092522060010154865187908590811061265a5761265a614350565b6020908102919091018101919091525f8b8152601a82526040808220848401518352909252205460ff1615612757575f8a815260186020908152604080832060198352818420858401518552835281842054845290915290206001015485518690859081106126cb576126cb614350565b6020908102919091018101919091525f8b815260188252604080822060198452818320858501518452845281832054835283528082206001908101548e84526015855282842087855290945291200154670de0b6b3a76400009161272e91614532565b6127389190614549565b84848151811061274a5761274a614350565b6020026020010181815250505b505060010161254c565b505b93509350935093565b60075473ffffffffffffffffffffffffffffffffffffffff1633146127ed576040517f08c379a000000000000000000000000000000000000000000000000000000000815260206004820152600a60248201527f4f6e6c79206f776e6572000000000000000000000000000000000000000000006044820152606401610a44565b600555565b6002546040517fc084b10b00000000000000000000000000000000000000000000000000000000815273ffffffffffffffffffffffffffffffffffffffff83811660048301525f92169063c084b10b90602401602060405180830381865afa158015612860573d5f803e3d5ffd5b505050506040513d601f19601f82011682018060405250810190610c7d9190614456565b6002546040517f8d1a4b280000000000000000000000000000000000000000000000000000000081523060048201525f91829173ffffffffffffffffffffffffffffffffffffffff90911690638d1a4b28906024015f60405180830381865afa1580156128f3573d5f803e3d5ffd5b505050506040513d5f823e601f3d9081017fffffffffffffffffffffffffffffffffffffffffffffffffffffffffffffffe01682016040526129389190810190614591565b6080015192915050565b60065473ffffffffffffffffffffffffffffffffffffffff1633146129c3576040517f08c379a000000000000000000000000000000000000000000000000000000000815260206004820152600b60248201527f4f6e6c79206f7261636c650000000000000000000000000000000000000000006044820152606401610a44565b6129cb613a85565b6013545f9081526014602052604081206001015460ff1660058111156129f3576129f3613e49565b1480612a26575060046013545f9081526014602052604090206001015460ff166005811115612a2457612a24613e49565b145b80612a58575060056013545f9081526014602052604090206001015460ff166005811115612a5657612a56613e49565b145b612abe576040517f08c379a000000000000000000000000000000000000000000000000000000000815260206004820152601560248201527f5072657620726f756e64206e6f7420636c6f73656400000000000000000000006044820152606401610a44565b5f818152601b602052604090205460ff1615612b36576040517f08c379a000000000000000000000000000000000000000000000000000000000815260206004820152601160248201527f4861736820616c726561647920757365640000000000000000000000000000006044820152606401610a44565b5f818152601b6020526040812080547fffffffffffffffffffffffffffffffffffffffffffffffffffffffffffffff001660011790556013805491612b7a8361448c565b90915550506013545f81815260146020818152604080842081516101608101835286815260028185019081524293820193909352606081018690526004820154608082015260a08101869052600682015460c082015260e0810186905261010081018690526101208101889052610140810186905294869052929091528251825551600180830180549394938593927fffffffffffffffffffffffffffffffffffffffffffffffffffffffffffffff009190911690836005811115612c4157612c41613e49565b021790555060408201516002820155606082015160038201556080820151600482015560a0820151600582015560c0820151600682015560e082015160078201556101008201516008820155610120820151600982015561014090910151600a90910155600160145f612cb4858461432a565b81526020019081526020015f206001015f6101000a81548160ff02191690836005811115612ce457612ce4613e49565b021790555060408051838152602081018590527f3357c3c0655880285dc537cfe8d4510dd2641d10c070e47478e726bb67dd2439910160405180910390a1505061171060015f55565b73ffffffffffffffffffffffffffffffffffffffff8084165f818152600c6020908152604091829020825160c081018452815490951680865260018201549286019290925260028101549285019290925260038201546060858101919091526004830154608086015260059092015460a085015290928392839283929190036132bb578060800151871115612e6b57604080515f8082526020820190925290612e3e565b612e2b6040805161016081019091525f808252602082019081526020015f81526020015f81526020015f81526020015f81526020015f81526020015f81526020015f81526020015f80191681526020015f80191681525090565b815260200190600190039081612dd15790505b50604080515f80825260208201818152828401918252606083019093529297509550935091506127639050565b86158015612e77575085155b15612e8457806080015195505b6080810151612e93878961432a565b1115612eac57868160800151612ea9919061433d565b95505b8567ffffffffffffffff811115612ec557612ec5613f9b565b604051908082528060200260200182016040528015612f5057816020015b612f3d6040805161016081019091525f808252602082019081526020015f81526020015f81526020015f81526020015f81526020015f81526020015f81526020015f81526020015f80191681526020015f80191681525090565b815260200190600190039081612ee35790505b5094508567ffffffffffffffff811115612f6c57612f6c613f9b565b604051908082528060200260200182016040528015612f95578160200160208202803683370190505b5093508567ffffffffffffffff811115612fb157612fb1613f9b565b604051908082528060200260200182016040528015612fda578160200160208202803683370190505b5092508567ffffffffffffffff811115612ff657612ff6613f9b565b60405190808252806020026020018201604052801561301f578160200160208202803683370190505b5091505f5b868110156132b4575f60105f846020015181526020019081526020015f205f60018b858760800151613056919061433d565b613060919061433d565b61306a919061433d565b815260208082019290925260409081015f908120548082526014845282822083516101608101909452805484526001810154919550919383019060ff1660058111156130b8576130b8613e49565b60058111156130c9576130c9613e49565b8152600282015460208083019190915260038301546040808401919091526004840154606084015260058401546080840152600684015460a0840152600784015460c0840152600884015460e08401526009840154610100840152600a90930154610120909201919091525f8581526015825282812060168352838220898401518352835283822054825282528290208251808401909352805473ffffffffffffffffffffffffffffffffffffffff168352600101549082015289519192509082908a908690811061319d5761319d614350565b602002602001018190525080602001518885815181106131bf576131bf614350565b6020908102919091018101919091525f848152601a82526040808220888401518352909252205460ff16156132a9575f8381526018602090815260408083206019835281842089840151855283528184205484528252918290208251808401909352805473ffffffffffffffffffffffffffffffffffffffff1683526001015482820181905290830151670de0b6b3a76400009161325c91614532565b6132669190614549565b88868151811061327857613278614350565b602002602001018181525050806020015187868151811061329b5761329b614350565b602002602001018181525050505b505050600101613024565b5050612763565b604080515f808252602082019092529061333d565b61332a6040805161016081019091525f808252602082019081526020015f81526020015f81526020015f81526020015f81526020015f81526020015f81526020015f81526020015f80191681526020015f80191681525090565b8152602001906001900390816132d05790505b50604080515f8082526020820181815282840191825260608301909352929b909a50909850909650945050505050565b60065473ffffffffffffffffffffffffffffffffffffffff1633146133ee576040517f08c379a000000000000000000000000000000000000000000000000000000000815260206004820152600b60248201527f4f6e6c79206f7261636c650000000000000000000000000000000000000000006044820152606401610a44565b6133f6613a85565b60035f8581526014602052604090206001015460ff16600581111561341d5761341d613e49565b14613484576040517f08c379a000000000000000000000000000000000000000000000000000000000815260206004820152600a60248201527f4e6f742072756e6e6564000000000000000000000000000000000000000000006044820152606401610a44565b5f848152601460205260409020600901546134a190849084612221565b613507576040517f08c379a000000000000000000000000000000000000000000000000000000000815260206004820152601460248201527f4e6f742076616c6964206d756c7469706c6965720000000000000000000000006044820152606401610a44565b5f84815260146020526040812060088101859055600a81018490556001810180547fffffffffffffffffffffffffffffffffffffffffffffffffffffffffffffff00166004179055426003820155908080805b8551811015613868575f600c5f88848151811061357957613579614350565b6020908102919091018101515173ffffffffffffffffffffffffffffffffffffffff1682528181019290925260409081015f90812060018101548e8352601785528383208184529094529190205490925060ff1680156135f257505f8b8152601a6020908152604080832084845290915290205460ff16155b1561385e575f8b815260156020908152604080832060168352818420858552835281842054845290915290206001015461362c908661432a565b5f8c815260156020908152604080832060168352818420868552835281842054845282528083208151808301909252805473ffffffffffffffffffffffffffffffffffffffff16825260010154918101919091528a5192975091670de0b6b3a7640000908b90879081106136a2576136a2614350565b60200260200101516020015183602001516136bd9190614532565b6136c79190614549565b90506136d3818961432a565b975080846003015f8282546136e8919061432a565b909155505060025484546040517f9546717700000000000000000000000000000000000000000000000000000000815273ffffffffffffffffffffffffffffffffffffffff9182166004820152602481018490529116906395467177906044015f604051808303815f87803b15801561375f575f80fd5b505af1158015613771573d5f803e3d5ffd5b5050505f8e8152601a60209081526040808320878452909152902080547fffffffffffffffffffffffffffffffffffffffffffffffffffffffffffffff001660011790555089518a90869081106137ca576137ca614350565b6020908102919091018101515f8f81526018835260408082208a83528452808220835181547fffffffffffffffffffffffff00000000000000000000000000000000000000001673ffffffffffffffffffffffffffffffffffffffff909116178155928401516001909301929092558f8152601983528181208682529092529020869055856138588161448c565b96505050505b505060010161355a565b508060095f82825461387a919061432a565b9250508190555082600b5f828254613892919061432a565b9091555050600784018390556005840181905560068401545f906138b790849061433d565b9050801561393f576002546040517f2edcbd600000000000000000000000000000000000000000000000000000000081526004810183905273ffffffffffffffffffffffffffffffffffffffff90911690632edcbd60906024015f604051808303815f87803b158015613928575f80fd5b505af115801561393a573d5f803e3d5ffd5b505050505b600985015460048601546006870154604080518d8152602081018d90528082018c90526060810194909452608084019290925260a083015260c08201869052517feb030656c7ee2589cdffc41b1300bbe114ecd21972dec0e8e5a4b5576e4334159181900360e00190a150505050506139b760015f55565b50505050565b60075473ffffffffffffffffffffffffffffffffffffffff163314613a3e576040517f08c379a000000000000000000000000000000000000000000000000000000000815260206004820152600a60248201527f4f6e6c79206f776e6572000000000000000000000000000000000000000000006044820152606401610a44565b600780547fffffffffffffffffffffffff00000000000000000000000000000000000000001673ffffffffffffffffffffffffffffffffffffffff92909216919091179055565b60025f5403613af0576040517f08c379a000000000000000000000000000000000000000000000000000000000815260206004820152601f60248201527f5265656e7472616e637947756172643a207265656e7472616e742063616c6c006044820152606401610a44565b60025f55565b73ffffffffffffffffffffffffffffffffffffffff81165f908152600e602052604090205460ff1661171057600d8054905f613b318361448c565b9091555050600d546040805160c08101825273ffffffffffffffffffffffffffffffffffffffff80851680835260208084018681525f858701818152606087018281526080880183815260a08901848152878552600c87528a852099518a5499167fffffffffffffffffffffffff0000000000000000000000000000000000000000998a16178a5594516001808b0191909155925160028a0155905160038901555160048801559151600590960195909555958452600f8152848420805490931682179092558252600e90522080547fffffffffffffffffffffffffffffffffffffffffffffffffffffffffffffff0016909117905550565b5f60208284031215613c3a575f80fd5b5035919050565b5f8060408385031215613c52575f80fd5b50508035926020909101359150565b5f815180845260208085019450602084015f5b83811015613cda578151805173ffffffffffffffffffffffffffffffffffffffff168852838101518489015260408082015190890152606080820151908901526080808201519089015260a0908101519088015260c09096019590820190600101613c74565b509495945050505050565b602081525f613cf76020830184613c61565b9392505050565b73ffffffffffffffffffffffffffffffffffffffff81168114611710575f80fd5b5f60208284031215613d2f575f80fd5b8135613cf781613cfe565b5f5b83811015613d54578181015183820152602001613d3c565b50505f910152565b5f8151808452613d73816020860160208601613d3a565b601f017fffffffffffffffffffffffffffffffffffffffffffffffffffffffffffffffe0169290920160200192915050565b6020815273ffffffffffffffffffffffffffffffffffffffff825116602082015260ff60208301511660408201525f604083015160c06060840152613ded60e0840182613d5c565b905060608401517fffffffffffffffffffffffffffffffffffffffffffffffffffffffffffffffe0848303016080850152613e288282613d5c565b915050608084015160a084015260a084015160c08401528091505092915050565b7f4e487b71000000000000000000000000000000000000000000000000000000005f52602160045260245ffd5b60068110613eab577f4e487b71000000000000000000000000000000000000000000000000000000005f52602160045260245ffd5b9052565b60208101610c7d8284613e76565b5f8060408385031215613ece575f80fd5b8235613ed981613cfe565b946020939093013593505050565b5f815180845260208085019450602084015f5b83811015613cda5781518051885283810151613f18858a0182613e76565b5060408181015190890152606080820151908901526080808201519089015260a0808201519089015260c0808201519089015260e080820151908901526101008082015190890152610120808201519089015261014090810151908801526101609096019590820190600101613efa565b602081525f613cf76020830184613ee7565b7f4e487b71000000000000000000000000000000000000000000000000000000005f52604160045260245ffd5b604051610120810167ffffffffffffffff81118282101715613fec57613fec613f9b565b60405290565b604051601f82017fffffffffffffffffffffffffffffffffffffffffffffffffffffffffffffffe016810167ffffffffffffffff8111828210171561403957614039613f9b565b604052919050565b5f67ffffffffffffffff8084111561405b5761405b613f9b565b602061406c60208660051b01613ff2565b858152925060208301600686901b850187811115614088575f80fd5b855b818110156140e357604080828b0312156140a2575f80fd5b805181810181811088821117156140bb576140bb613f9b565b9091528135906140ca82613cfe565b908152818501358582015283529183019160400161408a565b50505050509392505050565b5f8060408385031215614100575f80fd5b82359150602083013567ffffffffffffffff81111561411d575f80fd5b8301601f8101851361412d575f80fd5b61413c85823560208401614041565b9150509250929050565b8b8152610160810161415b602083018d613e76565b604082019a909a526060810198909852608088019690965260a087019490945260c086019290925260e08501526101008401526101208301526101409091015292915050565b5f805f606084860312156141b3575f80fd5b505081359360208301359350604090920135919050565b5f815180845260208085019450602084015f5b83811015613cda578151875295820195908201906001016141dd565b608081525f61420b6080830187613c61565b828103602084015261421d81876141ca565b9050828103604084015261423181866141ca565b9050828103606084015261424581856141ca565b979650505050505050565b5f805f60608486031215614262575f80fd5b833561426d81613cfe565b95602085013595506040909401359392505050565b608081525f61420b6080830187613ee7565b5f805f80608085870312156142a7575f80fd5b843593506020850135925060408501359150606085013567ffffffffffffffff8111156142d2575f80fd5b8501601f810187136142e2575f80fd5b6142f187823560208401614041565b91505092959194509250565b7f4e487b71000000000000000000000000000000000000000000000000000000005f52601160045260245ffd5b80820180821115610c7d57610c7d6142fd565b81810381811115610c7d57610c7d6142fd565b7f4e487b71000000000000000000000000000000000000000000000000000000005f52603260045260245ffd5b5f6020828403121561438d575f80fd5b815160ff81168114613cf7575f80fd5b5f82601f8301126143ac575f80fd5b815167ffffffffffffffff8111156143c6576143c6613f9b565b6143f760207fffffffffffffffffffffffffffffffffffffffffffffffffffffffffffffffe0601f84011601613ff2565b81815284602083860101111561440b575f80fd5b61441c826020830160208701613d3a565b949350505050565b5f60208284031215614434575f80fd5b815167ffffffffffffffff81111561444a575f80fd5b61441c8482850161439d565b5f60208284031215614466575f80fd5b5051919050565b5f6020828403121561447d575f80fd5b81518015158114613cf7575f80fd5b5f7fffffffffffffffffffffffffffffffffffffffffffffffffffffffffffffffff82036144bc576144bc6142fd565b5060010190565b5f60408083018584526020604060208601528186518084526060870191506020880193505f5b81811015614524578451805173ffffffffffffffffffffffffffffffffffffffff1684528401518484015293830193918501916001016144e9565b509098975050505050505050565b8082028115828204841417610c7d57610c7d6142fd565b5f8261457c577f4e487b71000000000000000000000000000000000000000000000000000000005f52601260045260245ffd5b500490565b805161458c81613cfe565b919050565b5f602082840312156145a1575f80fd5b815167ffffffffffffffff808211156145b8575f80fd5b9083019061012082860312156145cc575f80fd5b6145d4613fc8565b825181526020830151828111156145e9575f80fd5b6145f58782860161439d565b6020830152506040830151604082015261461160608401614581565b60608201526080830151608082015260a083015160a082015260c083015160c082015260e083015160e08201526101008084015183811115614651575f80fd5b61465d8882870161439d565b91830191909152509594505050505056fea26469706673582212205204c9c2bf34df70a891f62b58a0b1b831bc2219621886111120f9df2a0d295664736f6c63430008180033",
			"opcodes": "PUSH1 0x80 PUSH1 0x40 MSTORE PUSH8 0xF43FC2C04EE0000 PUSH1 0x3 SSTORE PUSH8 0x6124FEE993BC0000 PUSH1 0x4 SSTORE PUSH1 0x3C PUSH1 0x5 SSTORE PUSH0 PUSH1 0x8 SSTORE PUSH0 PUSH1 0x9 SSTORE PUSH0 PUSH1 0xA SSTORE PUSH0 PUSH1 0xB SSTORE PUSH0 PUSH1 0xD SSTORE PUSH8 0xDE0B6B3A7640000 PUSH1 0x11 SSTORE PUSH9 0x56BC75E2D63100000 PUSH1 0x12 SSTORE PUSH0 PUSH1 0x13 SSTORE CALLVALUE DUP1 ISZERO PUSH3 0x5E JUMPI PUSH0 DUP1 REVERT JUMPDEST POP PUSH1 0x40 MLOAD PUSH3 0x4838 CODESIZE SUB DUP1 PUSH3 0x4838 DUP4 CODECOPY DUP2 ADD PUSH1 0x40 DUP2 SWAP1 MSTORE PUSH3 0x81 SWAP2 PUSH3 0x150 JUMP JUMPDEST PUSH1 0x1 PUSH0 DUP2 DUP2 SSTORE DUP2 SLOAD PUSH1 0x1 PUSH1 0x1 PUSH1 0xA0 SHL SUB NOT SWAP1 DUP2 AND PUSH1 0x1 PUSH1 0x1 PUSH1 0xA0 SHL SUB SWAP6 DUP7 AND OR DUP4 SSTORE PUSH1 0x14 PUSH1 0x20 MSTORE PUSH32 0x4F26C3876AA9F4B92579780BEEA1161A61F87EBF1EC6EE865B299E447ECBA99D DUP1 SLOAD PUSH1 0x4 PUSH1 0xFF NOT SWAP2 DUP3 AND OR SWAP1 SWAP2 SSTORE SWAP2 DUP4 SWAP1 MSTORE PUSH32 0xB6C61A840592CC84133E4B25BD509ABF4659307C57B160799B38490A5AA48F2D DUP1 SLOAD SWAP1 SWAP3 AND SWAP1 SWAP3 OR SWAP1 SSTORE PUSH1 0x6 DUP1 SLOAD CALLER SWAP1 DUP4 AND DUP2 OR SWAP1 SWAP2 SSTORE PUSH1 0x2 DUP1 SLOAD DUP4 AND SWAP4 SWAP1 SWAP5 AND SWAP3 SWAP1 SWAP3 OR SWAP1 SWAP3 SSTORE PUSH1 0x7 DUP1 SLOAD SWAP1 SWAP3 AND OR SWAP1 SSTORE PUSH3 0x186 JUMP JUMPDEST DUP1 MLOAD PUSH1 0x1 PUSH1 0x1 PUSH1 0xA0 SHL SUB DUP2 AND DUP2 EQ PUSH3 0x14B JUMPI PUSH0 DUP1 REVERT JUMPDEST SWAP2 SWAP1 POP JUMP JUMPDEST PUSH0 DUP1 PUSH1 0x40 DUP4 DUP6 SUB SLT ISZERO PUSH3 0x162 JUMPI PUSH0 DUP1 REVERT JUMPDEST PUSH3 0x16D DUP4 PUSH3 0x134 JUMP JUMPDEST SWAP2 POP PUSH3 0x17D PUSH1 0x20 DUP5 ADD PUSH3 0x134 JUMP JUMPDEST SWAP1 POP SWAP3 POP SWAP3 SWAP1 POP JUMP JUMPDEST PUSH2 0x46A4 DUP1 PUSH3 0x194 PUSH0 CODECOPY PUSH0 RETURN INVALID PUSH1 0x80 PUSH1 0x40 MSTORE CALLVALUE DUP1 ISZERO PUSH2 0xF JUMPI PUSH0 DUP1 REVERT JUMPDEST POP PUSH1 0x4 CALLDATASIZE LT PUSH2 0x346 JUMPI PUSH0 CALLDATALOAD PUSH1 0xE0 SHR DUP1 PUSH4 0x91B1DB18 GT PUSH2 0x1BE JUMPI DUP1 PUSH4 0xBBE52300 GT PUSH2 0xFE JUMPI DUP1 PUSH4 0xE2EB41FF GT PUSH2 0x9E JUMPI DUP1 PUSH4 0xF231492D GT PUSH2 0x79 JUMPI DUP1 PUSH4 0xF231492D EQ PUSH2 0x957 JUMPI DUP1 PUSH4 0xF2FDE38B EQ PUSH2 0x96A JUMPI DUP1 PUSH4 0xFC0C546A EQ PUSH2 0x97D JUMPI DUP1 PUSH4 0xFCA8D843 EQ PUSH2 0x99D JUMPI PUSH0 DUP1 REVERT JUMPDEST DUP1 PUSH4 0xE2EB41FF EQ PUSH2 0x8A8 JUMPI DUP1 PUSH4 0xE4A9F192 EQ PUSH2 0x945 JUMPI DUP1 PUSH4 0xEFBD7BD2 EQ PUSH2 0x94E JUMPI PUSH0 DUP1 REVERT JUMPDEST DUP1 PUSH4 0xC084B10B GT PUSH2 0xD9 JUMPI DUP1 PUSH4 0xC084B10B EQ PUSH2 0x857 JUMPI DUP1 PUSH4 0xC85E3499 EQ PUSH2 0x86A JUMPI DUP1 PUSH4 0xCB02C10A EQ PUSH2 0x872 JUMPI DUP1 PUSH4 0xCFBD9C95 EQ PUSH2 0x885 JUMPI PUSH0 DUP1 REVERT JUMPDEST DUP1 PUSH4 0xBBE52300 EQ PUSH2 0x7FF JUMPI DUP1 PUSH4 0xBED8840C EQ PUSH2 0x821 JUMPI DUP1 PUSH4 0xBEFA1E2F EQ PUSH2 0x84E JUMPI PUSH0 DUP1 REVERT JUMPDEST DUP1 PUSH4 0xA2791143 GT PUSH2 0x169 JUMPI DUP1 PUSH4 0xA4AB9235 GT PUSH2 0x144 JUMPI DUP1 PUSH4 0xA4AB9235 EQ PUSH2 0x798 JUMPI DUP1 PUSH4 0xAAF5EB68 EQ PUSH2 0x7BB JUMPI DUP1 PUSH4 0xAEF18BF7 EQ PUSH2 0x7CA JUMPI DUP1 PUSH4 0xB32F59F0 EQ PUSH2 0x7EC JUMPI PUSH0 DUP1 REVERT JUMPDEST DUP1 PUSH4 0xA2791143 EQ PUSH2 0x77E JUMPI DUP1 PUSH4 0xA32BF597 EQ PUSH2 0x787 JUMPI DUP1 PUSH4 0xA3F67D6D EQ PUSH2 0x78F JUMPI PUSH0 DUP1 REVERT JUMPDEST DUP1 PUSH4 0x9B29953B GT PUSH2 0x199 JUMPI DUP1 PUSH4 0x9B29953B EQ PUSH2 0x735 JUMPI DUP1 PUSH4 0x9FD751C7 EQ PUSH2 0x762 JUMPI DUP1 PUSH4 0xA24E0D87 EQ PUSH2 0x775 JUMPI PUSH0 DUP1 REVERT JUMPDEST DUP1 PUSH4 0x91B1DB18 EQ PUSH2 0x6BF JUMPI DUP1 PUSH4 0x9619367D EQ PUSH2 0x709 JUMPI DUP1 PUSH4 0x9972780A EQ PUSH2 0x712 JUMPI PUSH0 DUP1 REVERT JUMPDEST DUP1 PUSH4 0x5FC3D52D GT PUSH2 0x289 JUMPI DUP1 PUSH4 0x7DC0D1D0 GT PUSH2 0x234 JUMPI DUP1 PUSH4 0x881EFF1E GT PUSH2 0x20F JUMPI DUP1 PUSH4 0x881EFF1E EQ PUSH2 0x5F8 JUMPI DUP1 PUSH4 0x88EA41B9 EQ PUSH2 0x60B JUMPI DUP1 PUSH4 0x8C65C81F EQ PUSH2 0x61E JUMPI DUP1 PUSH4 0x8DA5CB5B EQ PUSH2 0x69F JUMPI PUSH0 DUP1 REVERT JUMPDEST DUP1 PUSH4 0x7DC0D1D0 EQ PUSH2 0x5BD JUMPI DUP1 PUSH4 0x7E07AB09 EQ PUSH2 0x5DD JUMPI DUP1 PUSH4 0x8011D1ED EQ PUSH2 0x5F0 JUMPI PUSH0 DUP1 REVERT JUMPDEST DUP1 PUSH4 0x6C7AC9D8 GT PUSH2 0x264 JUMPI DUP1 PUSH4 0x6C7AC9D8 EQ PUSH2 0x530 JUMPI DUP1 PUSH4 0x7319B43E EQ PUSH2 0x575 JUMPI DUP1 PUSH4 0x7ADBF973 EQ PUSH2 0x5AA JUMPI PUSH0 DUP1 REVERT JUMPDEST DUP1 PUSH4 0x5FC3D52D EQ PUSH2 0x494 JUMPI DUP1 PUSH4 0x62540477 EQ PUSH2 0x4A7 JUMPI DUP1 PUSH4 0x671EEA01 EQ PUSH2 0x4BA JUMPI PUSH0 DUP1 REVERT JUMPDEST DUP1 PUSH4 0x1F69565F GT PUSH2 0x2F4 JUMPI DUP1 PUSH4 0x38A50817 GT PUSH2 0x2CF JUMPI DUP1 PUSH4 0x38A50817 EQ PUSH2 0x413 JUMPI DUP1 PUSH4 0x3C28F9CE EQ PUSH2 0x437 JUMPI DUP1 PUSH4 0x40F74F47 EQ PUSH2 0x44A JUMPI DUP1 PUSH4 0x4AA82380 EQ PUSH2 0x46A JUMPI PUSH0 DUP1 REVERT JUMPDEST DUP1 PUSH4 0x1F69565F EQ PUSH2 0x3D7 JUMPI DUP1 PUSH4 0x228D71A9 EQ PUSH2 0x3F7 JUMPI DUP1 PUSH4 0x2E5B2168 EQ PUSH2 0x40A JUMPI PUSH0 DUP1 REVERT JUMPDEST DUP1 PUSH4 0x74E0036 GT PUSH2 0x324 JUMPI DUP1 PUSH4 0x74E0036 EQ PUSH2 0x384 JUMPI DUP1 PUSH4 0xD2DCE22 EQ PUSH2 0x38D JUMPI DUP1 PUSH4 0x13B8AC5E EQ PUSH2 0x3AD JUMPI PUSH0 DUP1 REVERT JUMPDEST DUP1 PUSH4 0x1526A43 EQ PUSH2 0x34A JUMPI DUP1 PUSH4 0x187AEA0 EQ PUSH2 0x35F JUMPI DUP1 PUSH4 0x34420C4 EQ PUSH2 0x37B JUMPI JUMPDEST PUSH0 DUP1 REVERT JUMPDEST PUSH2 0x35D PUSH2 0x358 CALLDATASIZE PUSH1 0x4 PUSH2 0x3C2A JUMP JUMPDEST PUSH2 0x9C7 JUMP JUMPDEST STOP JUMPDEST PUSH2 0x368 PUSH1 0x4 SLOAD DUP2 JUMP JUMPDEST PUSH1 0x40 MLOAD SWAP1 DUP2 MSTORE PUSH1 0x20 ADD JUMPDEST PUSH1 0x40 MLOAD DUP1 SWAP2 SUB SWAP1 RETURN JUMPDEST PUSH2 0x368 PUSH1 0x13 SLOAD DUP2 JUMP JUMPDEST PUSH2 0x368 PUSH1 0x9 SLOAD DUP2 JUMP JUMPDEST PUSH2 0x3A0 PUSH2 0x39B CALLDATASIZE PUSH1 0x4 PUSH2 0x3C41 JUMP JUMPDEST PUSH2 0xA52 JUMP JUMPDEST PUSH1 0x40 MLOAD PUSH2 0x372 SWAP2 SWAP1 PUSH2 0x3CE5 JUMP JUMPDEST PUSH2 0x368 PUSH2 0x3BB CALLDATASIZE PUSH1 0x4 PUSH2 0x3C41 JUMP JUMPDEST PUSH1 0x19 PUSH1 0x20 SWAP1 DUP2 MSTORE PUSH0 SWAP3 DUP4 MSTORE PUSH1 0x40 DUP1 DUP5 KECCAK256 SWAP1 SWAP2 MSTORE SWAP1 DUP3 MSTORE SWAP1 KECCAK256 SLOAD DUP2 JUMP JUMPDEST PUSH2 0x3EA PUSH2 0x3E5 CALLDATASIZE PUSH1 0x4 PUSH2 0x3D1F JUMP JUMPDEST PUSH2 0xC83 JUMP JUMPDEST PUSH1 0x40 MLOAD PUSH2 0x372 SWAP2 SWAP1 PUSH2 0x3DA5 JUMP JUMPDEST PUSH2 0x35D PUSH2 0x405 CALLDATASIZE PUSH1 0x4 PUSH2 0x3D1F JUMP JUMPDEST PUSH2 0x1056 JUMP JUMPDEST PUSH2 0x368 PUSH1 0x12 SLOAD DUP2 JUMP JUMPDEST PUSH1 0x13 SLOAD PUSH0 SWAP1 DUP2 MSTORE PUSH1 0x14 PUSH1 0x20 MSTORE PUSH1 0x40 SWAP1 KECCAK256 PUSH1 0x1 ADD SLOAD PUSH1 0xFF AND PUSH1 0x40 MLOAD PUSH2 0x372 SWAP2 SWAP1 PUSH2 0x3EAF JUMP JUMPDEST PUSH2 0x35D PUSH2 0x445 CALLDATASIZE PUSH1 0x4 PUSH2 0x3EBD JUMP JUMPDEST PUSH2 0x111E JUMP JUMPDEST PUSH2 0x45D PUSH2 0x458 CALLDATASIZE PUSH1 0x4 PUSH2 0x3C41 JUMP JUMPDEST PUSH2 0x12E9 JUMP JUMPDEST PUSH1 0x40 MLOAD PUSH2 0x372 SWAP2 SWAP1 PUSH2 0x3F89 JUMP JUMPDEST PUSH2 0x368 PUSH2 0x478 CALLDATASIZE PUSH1 0x4 PUSH2 0x3C41 JUMP JUMPDEST PUSH1 0x10 PUSH1 0x20 SWAP1 DUP2 MSTORE PUSH0 SWAP3 DUP4 MSTORE PUSH1 0x40 DUP1 DUP5 KECCAK256 SWAP1 SWAP2 MSTORE SWAP1 DUP3 MSTORE SWAP1 KECCAK256 SLOAD DUP2 JUMP JUMPDEST PUSH2 0x35D PUSH2 0x4A2 CALLDATASIZE PUSH1 0x4 PUSH2 0x3C2A JUMP JUMPDEST PUSH2 0x1560 JUMP JUMPDEST PUSH2 0x35D PUSH2 0x4B5 CALLDATASIZE PUSH1 0x4 PUSH2 0x40EF JUMP JUMPDEST PUSH2 0x1713 JUMP JUMPDEST PUSH2 0x504 PUSH2 0x4C8 CALLDATASIZE PUSH1 0x4 PUSH2 0x3C41 JUMP JUMPDEST PUSH1 0x15 PUSH1 0x20 SWAP1 DUP2 MSTORE PUSH0 SWAP3 DUP4 MSTORE PUSH1 0x40 DUP1 DUP5 KECCAK256 SWAP1 SWAP2 MSTORE SWAP1 DUP3 MSTORE SWAP1 KECCAK256 DUP1 SLOAD PUSH1 0x1 SWAP1 SWAP2 ADD SLOAD PUSH20 0xFFFFFFFFFFFFFFFFFFFFFFFFFFFFFFFFFFFFFFFF SWAP1 SWAP2 AND SWAP1 DUP3 JUMP JUMPDEST PUSH1 0x40 DUP1 MLOAD PUSH20 0xFFFFFFFFFFFFFFFFFFFFFFFFFFFFFFFFFFFFFFFF SWAP1 SWAP4 AND DUP4 MSTORE PUSH1 0x20 DUP4 ADD SWAP2 SWAP1 SWAP2 MSTORE ADD PUSH2 0x372 JUMP JUMPDEST PUSH1 0x2 SLOAD PUSH2 0x550 SWAP1 PUSH20 0xFFFFFFFFFFFFFFFFFFFFFFFFFFFFFFFFFFFFFFFF AND DUP2 JUMP JUMPDEST PUSH1 0x40 MLOAD PUSH20 0xFFFFFFFFFFFFFFFFFFFFFFFFFFFFFFFFFFFFFFFF SWAP1 SWAP2 AND DUP2 MSTORE PUSH1 0x20 ADD PUSH2 0x372 JUMP JUMPDEST PUSH2 0x550 PUSH2 0x583 CALLDATASIZE PUSH1 0x4 PUSH2 0x3C2A JUMP JUMPDEST PUSH1 0xF PUSH1 0x20 MSTORE PUSH0 SWAP1 DUP2 MSTORE PUSH1 0x40 SWAP1 KECCAK256 SLOAD PUSH20 0xFFFFFFFFFFFFFFFFFFFFFFFFFFFFFFFFFFFFFFFF AND DUP2 JUMP JUMPDEST PUSH2 0x35D PUSH2 0x5B8 CALLDATASIZE PUSH1 0x4 PUSH2 0x3D1F JUMP JUMPDEST PUSH2 0x1D3D JUMP JUMPDEST PUSH1 0x6 SLOAD PUSH2 0x550 SWAP1 PUSH20 0xFFFFFFFFFFFFFFFFFFFFFFFFFFFFFFFFFFFFFFFF AND DUP2 JUMP JUMPDEST PUSH2 0x35D PUSH2 0x5EB CALLDATASIZE PUSH1 0x4 PUSH2 0x3C2A JUMP JUMPDEST PUSH2 0x1E05 JUMP JUMPDEST PUSH2 0x368 PUSH2 0x2100 JUMP JUMPDEST PUSH2 0x35D PUSH2 0x606 CALLDATASIZE PUSH1 0x4 PUSH2 0x3C2A JUMP JUMPDEST PUSH2 0x2115 JUMP JUMPDEST PUSH2 0x35D PUSH2 0x619 CALLDATASIZE PUSH1 0x4 PUSH2 0x3C2A JUMP JUMPDEST PUSH2 0x219B JUMP JUMPDEST PUSH2 0x688 PUSH2 0x62C CALLDATASIZE PUSH1 0x4 PUSH2 0x3C2A JUMP JUMPDEST PUSH1 0x14 PUSH1 0x20 MSTORE PUSH0 SWAP1 DUP2 MSTORE PUSH1 0x40 SWAP1 KECCAK256 DUP1 SLOAD PUSH1 0x1 DUP3 ADD SLOAD PUSH1 0x2 DUP4 ADD SLOAD PUSH1 0x3 DUP5 ADD SLOAD PUSH1 0x4 DUP6 ADD SLOAD PUSH1 0x5 DUP7 ADD SLOAD PUSH1 0x6 DUP8 ADD SLOAD PUSH1 0x7 DUP9 ADD SLOAD PUSH1 0x8 DUP10 ADD SLOAD PUSH1 0x9 DUP11 ADD SLOAD PUSH1 0xA SWAP1 SWAP11 ADD SLOAD SWAP9 SWAP10 PUSH1 0xFF SWAP1 SWAP9 AND SWAP9 SWAP7 SWAP8 SWAP6 SWAP7 SWAP5 SWAP6 SWAP4 SWAP5 SWAP3 SWAP4 SWAP2 SWAP3 SWAP1 SWAP2 SWAP1 DUP12 JUMP JUMPDEST PUSH1 0x40 MLOAD PUSH2 0x372 SWAP12 SWAP11 SWAP10 SWAP9 SWAP8 SWAP7 SWAP6 SWAP5 SWAP4 SWAP3 SWAP2 SWAP1 PUSH2 0x4146 JUMP JUMPDEST PUSH1 0x7 SLOAD PUSH2 0x550 SWAP1 PUSH20 0xFFFFFFFFFFFFFFFFFFFFFFFFFFFFFFFFFFFFFFFF AND DUP2 JUMP JUMPDEST PUSH2 0x504 PUSH2 0x6CD CALLDATASIZE PUSH1 0x4 PUSH2 0x3C41 JUMP JUMPDEST PUSH1 0x18 PUSH1 0x20 SWAP1 DUP2 MSTORE PUSH0 SWAP3 DUP4 MSTORE PUSH1 0x40 DUP1 DUP5 KECCAK256 SWAP1 SWAP2 MSTORE SWAP1 DUP3 MSTORE SWAP1 KECCAK256 DUP1 SLOAD PUSH1 0x1 SWAP1 SWAP2 ADD SLOAD PUSH20 0xFFFFFFFFFFFFFFFFFFFFFFFFFFFFFFFFFFFFFFFF SWAP1 SWAP2 AND SWAP1 DUP3 JUMP JUMPDEST PUSH2 0x368 PUSH1 0x11 SLOAD DUP2 JUMP JUMPDEST PUSH2 0x725 PUSH2 0x720 CALLDATASIZE PUSH1 0x4 PUSH2 0x41A1 JUMP JUMPDEST PUSH2 0x2221 JUMP JUMPDEST PUSH1 0x40 MLOAD SWAP1 ISZERO ISZERO DUP2 MSTORE PUSH1 0x20 ADD PUSH2 0x372 JUMP JUMPDEST PUSH2 0x725 PUSH2 0x743 CALLDATASIZE PUSH1 0x4 PUSH2 0x3C41 JUMP JUMPDEST PUSH1 0x1A PUSH1 0x20 SWAP1 DUP2 MSTORE PUSH0 SWAP3 DUP4 MSTORE PUSH1 0x40 DUP1 DUP5 KECCAK256 SWAP1 SWAP2 MSTORE SWAP1 DUP3 MSTORE SWAP1 KECCAK256 SLOAD PUSH1 0xFF AND DUP2 JUMP JUMPDEST PUSH2 0x35D PUSH2 0x770 CALLDATASIZE PUSH1 0x4 PUSH2 0x3C2A JUMP JUMPDEST PUSH2 0x2281 JUMP JUMPDEST PUSH2 0x368 PUSH1 0x3 SLOAD DUP2 JUMP JUMPDEST PUSH2 0x368 PUSH1 0xB SLOAD DUP2 JUMP JUMPDEST PUSH1 0x13 SLOAD PUSH2 0x368 JUMP JUMPDEST PUSH2 0x368 PUSH1 0xD SLOAD DUP2 JUMP JUMPDEST PUSH2 0x7AB PUSH2 0x7A6 CALLDATASIZE PUSH1 0x4 PUSH2 0x41A1 JUMP JUMPDEST PUSH2 0x2307 JUMP JUMPDEST PUSH1 0x40 MLOAD PUSH2 0x372 SWAP5 SWAP4 SWAP3 SWAP2 SWAP1 PUSH2 0x41F9 JUMP JUMPDEST PUSH2 0x368 PUSH8 0xDE0B6B3A7640000 DUP2 JUMP JUMPDEST PUSH2 0x725 PUSH2 0x7D8 CALLDATASIZE PUSH1 0x4 PUSH2 0x3C2A JUMP JUMPDEST PUSH1 0x1B PUSH1 0x20 MSTORE PUSH0 SWAP1 DUP2 MSTORE PUSH1 0x40 SWAP1 KECCAK256 SLOAD PUSH1 0xFF AND DUP2 JUMP JUMPDEST PUSH2 0x35D PUSH2 0x7FA CALLDATASIZE PUSH1 0x4 PUSH2 0x3C2A JUMP JUMPDEST PUSH2 0x276C JUMP JUMPDEST PUSH2 0x725 PUSH2 0x80D CALLDATASIZE PUSH1 0x4 PUSH2 0x3D1F JUMP JUMPDEST PUSH1 0xE PUSH1 0x20 MSTORE PUSH0 SWAP1 DUP2 MSTORE PUSH1 0x40 SWAP1 KECCAK256 SLOAD PUSH1 0xFF AND DUP2 JUMP JUMPDEST PUSH2 0x725 PUSH2 0x82F CALLDATASIZE PUSH1 0x4 PUSH2 0x3C41 JUMP JUMPDEST PUSH1 0x17 PUSH1 0x20 SWAP1 DUP2 MSTORE PUSH0 SWAP3 DUP4 MSTORE PUSH1 0x40 DUP1 DUP5 KECCAK256 SWAP1 SWAP2 MSTORE SWAP1 DUP3 MSTORE SWAP1 KECCAK256 SLOAD PUSH1 0xFF AND DUP2 JUMP JUMPDEST PUSH2 0x368 PUSH1 0x8 SLOAD DUP2 JUMP JUMPDEST PUSH2 0x368 PUSH2 0x865 CALLDATASIZE PUSH1 0x4 PUSH2 0x3D1F JUMP JUMPDEST PUSH2 0x27F2 JUMP JUMPDEST PUSH2 0x368 PUSH2 0x2884 JUMP JUMPDEST PUSH2 0x35D PUSH2 0x880 CALLDATASIZE PUSH1 0x4 PUSH2 0x3C2A JUMP JUMPDEST PUSH2 0x2942 JUMP JUMPDEST PUSH2 0x898 PUSH2 0x893 CALLDATASIZE PUSH1 0x4 PUSH2 0x4250 JUMP JUMPDEST PUSH2 0x2D2D JUMP JUMPDEST PUSH1 0x40 MLOAD PUSH2 0x372 SWAP5 SWAP4 SWAP3 SWAP2 SWAP1 PUSH2 0x4282 JUMP JUMPDEST PUSH2 0x901 PUSH2 0x8B6 CALLDATASIZE PUSH1 0x4 PUSH2 0x3D1F JUMP JUMPDEST PUSH1 0xC PUSH1 0x20 MSTORE PUSH0 SWAP1 DUP2 MSTORE PUSH1 0x40 SWAP1 KECCAK256 DUP1 SLOAD PUSH1 0x1 DUP3 ADD SLOAD PUSH1 0x2 DUP4 ADD SLOAD PUSH1 0x3 DUP5 ADD SLOAD PUSH1 0x4 DUP6 ADD SLOAD PUSH1 0x5 SWAP1 SWAP6 ADD SLOAD PUSH20 0xFFFFFFFFFFFFFFFFFFFFFFFFFFFFFFFFFFFFFFFF SWAP1 SWAP5 AND SWAP5 SWAP3 SWAP4 SWAP2 SWAP3 SWAP1 SWAP2 DUP7 JUMP JUMPDEST PUSH1 0x40 DUP1 MLOAD PUSH20 0xFFFFFFFFFFFFFFFFFFFFFFFFFFFFFFFFFFFFFFFF SWAP1 SWAP8 AND DUP8 MSTORE PUSH1 0x20 DUP8 ADD SWAP6 SWAP1 SWAP6 MSTORE SWAP4 DUP6 ADD SWAP3 SWAP1 SWAP3 MSTORE PUSH1 0x60 DUP5 ADD MSTORE PUSH1 0x80 DUP4 ADD MSTORE PUSH1 0xA0 DUP3 ADD MSTORE PUSH1 0xC0 ADD PUSH2 0x372 JUMP JUMPDEST PUSH2 0x368 PUSH1 0x5 SLOAD DUP2 JUMP JUMPDEST PUSH2 0x368 PUSH1 0xA SLOAD DUP2 JUMP JUMPDEST PUSH2 0x35D PUSH2 0x965 CALLDATASIZE PUSH1 0x4 PUSH2 0x4294 JUMP JUMPDEST PUSH2 0x336D JUMP JUMPDEST PUSH2 0x35D PUSH2 0x978 CALLDATASIZE PUSH1 0x4 PUSH2 0x3D1F JUMP JUMPDEST PUSH2 0x39BD JUMP JUMPDEST PUSH1 0x1 SLOAD PUSH2 0x550 SWAP1 PUSH20 0xFFFFFFFFFFFFFFFFFFFFFFFFFFFFFFFFFFFFFFFF AND DUP2 JUMP JUMPDEST PUSH2 0x368 PUSH2 0x9AB CALLDATASIZE PUSH1 0x4 PUSH2 0x3C41 JUMP JUMPDEST PUSH1 0x16 PUSH1 0x20 SWAP1 DUP2 MSTORE PUSH0 SWAP3 DUP4 MSTORE PUSH1 0x40 DUP1 DUP5 KECCAK256 SWAP1 SWAP2 MSTORE SWAP1 DUP3 MSTORE SWAP1 KECCAK256 SLOAD DUP2 JUMP JUMPDEST PUSH1 0x7 SLOAD PUSH20 0xFFFFFFFFFFFFFFFFFFFFFFFFFFFFFFFFFFFFFFFF AND CALLER EQ PUSH2 0xA4D JUMPI PUSH1 0x40 MLOAD PUSH32 0x8C379A000000000000000000000000000000000000000000000000000000000 DUP2 MSTORE PUSH1 0x20 PUSH1 0x4 DUP3 ADD MSTORE PUSH1 0xA PUSH1 0x24 DUP3 ADD MSTORE PUSH32 0x4F6E6C79206F776E657200000000000000000000000000000000000000000000 PUSH1 0x44 DUP3 ADD MSTORE PUSH1 0x64 ADD JUMPDEST PUSH1 0x40 MLOAD DUP1 SWAP2 SUB SWAP1 REVERT JUMPDEST PUSH1 0x4 SSTORE JUMP JUMPDEST PUSH1 0x60 PUSH1 0xD SLOAD DUP4 GT ISZERO PUSH2 0xAD7 JUMPI PUSH1 0x40 DUP1 MLOAD PUSH0 DUP1 DUP3 MSTORE PUSH1 0x20 DUP3 ADD SWAP1 SWAP3 MSTORE SWAP1 PUSH2 0xACF JUMP JUMPDEST PUSH2 0xABC PUSH1 0x40 MLOAD DUP1 PUSH1 0xC0 ADD PUSH1 0x40 MSTORE DUP1 PUSH0 PUSH20 0xFFFFFFFFFFFFFFFFFFFFFFFFFFFFFFFFFFFFFFFF AND DUP2 MSTORE PUSH1 0x20 ADD PUSH0 DUP2 MSTORE PUSH1 0x20 ADD PUSH0 DUP2 MSTORE PUSH1 0x20 ADD PUSH0 DUP2 MSTORE PUSH1 0x20 ADD PUSH0 DUP2 MSTORE PUSH1 0x20 ADD PUSH0 DUP2 MSTORE POP SWAP1 JUMP JUMPDEST DUP2 MSTORE PUSH1 0x20 ADD SWAP1 PUSH1 0x1 SWAP1 SUB SWAP1 DUP2 PUSH2 0xA73 JUMPI SWAP1 POP JUMPDEST POP SWAP1 POP PUSH2 0xC7D JUMP JUMPDEST DUP3 ISZERO DUP1 ISZERO PUSH2 0xAE3 JUMPI POP DUP2 ISZERO JUMPDEST ISZERO PUSH2 0xAEE JUMPI PUSH1 0xD SLOAD SWAP2 POP JUMPDEST PUSH1 0xD SLOAD PUSH2 0xAFB DUP4 DUP6 PUSH2 0x432A JUMP JUMPDEST GT ISZERO PUSH2 0xB12 JUMPI DUP3 PUSH1 0xD SLOAD PUSH2 0xB0F SWAP2 SWAP1 PUSH2 0x433D JUMP JUMPDEST SWAP2 POP JUMPDEST PUSH0 DUP3 PUSH8 0xFFFFFFFFFFFFFFFF DUP2 GT ISZERO PUSH2 0xB2C JUMPI PUSH2 0xB2C PUSH2 0x3F9B JUMP JUMPDEST PUSH1 0x40 MLOAD SWAP1 DUP1 DUP3 MSTORE DUP1 PUSH1 0x20 MUL PUSH1 0x20 ADD DUP3 ADD PUSH1 0x40 MSTORE DUP1 ISZERO PUSH2 0xBA6 JUMPI DUP2 PUSH1 0x20 ADD JUMPDEST PUSH2 0xB93 PUSH1 0x40 MLOAD DUP1 PUSH1 0xC0 ADD PUSH1 0x40 MSTORE DUP1 PUSH0 PUSH20 0xFFFFFFFFFFFFFFFFFFFFFFFFFFFFFFFFFFFFFFFF AND DUP2 MSTORE PUSH1 0x20 ADD PUSH0 DUP2 MSTORE PUSH1 0x20 ADD PUSH0 DUP2 MSTORE PUSH1 0x20 ADD PUSH0 DUP2 MSTORE PUSH1 0x20 ADD PUSH0 DUP2 MSTORE PUSH1 0x20 ADD PUSH0 DUP2 MSTORE POP SWAP1 JUMP JUMPDEST DUP2 MSTORE PUSH1 0x20 ADD SWAP1 PUSH1 0x1 SWAP1 SUB SWAP1 DUP2 PUSH2 0xB4A JUMPI SWAP1 POP JUMPDEST POP SWAP1 POP PUSH0 JUMPDEST DUP4 DUP2 LT ISZERO PUSH2 0xC79 JUMPI PUSH1 0xC PUSH0 PUSH1 0xF PUSH0 DUP9 DUP6 PUSH1 0xD SLOAD PUSH2 0xBC8 SWAP2 SWAP1 PUSH2 0x433D JUMP JUMPDEST PUSH2 0xBD2 SWAP2 SWAP1 PUSH2 0x433D JUMP JUMPDEST DUP2 MSTORE PUSH1 0x20 DUP1 DUP3 ADD SWAP3 SWAP1 SWAP3 MSTORE PUSH1 0x40 SWAP1 DUP2 ADD PUSH0 SWAP1 DUP2 KECCAK256 SLOAD PUSH20 0xFFFFFFFFFFFFFFFFFFFFFFFFFFFFFFFFFFFFFFFF SWAP1 DUP2 AND DUP6 MSTORE DUP5 DUP5 ADD SWAP6 SWAP1 SWAP6 MSTORE SWAP3 DUP2 ADD SWAP1 SWAP3 KECCAK256 DUP3 MLOAD PUSH1 0xC0 DUP2 ADD DUP5 MSTORE DUP2 SLOAD SWAP1 SWAP5 AND DUP5 MSTORE PUSH1 0x1 DUP2 ADD SLOAD SWAP2 DUP5 ADD SWAP2 SWAP1 SWAP2 MSTORE PUSH1 0x2 DUP2 ADD SLOAD SWAP2 DUP4 ADD SWAP2 SWAP1 SWAP2 MSTORE PUSH1 0x3 DUP2 ADD SLOAD PUSH1 0x60 DUP4 ADD MSTORE PUSH1 0x4 DUP2 ADD SLOAD PUSH1 0x80 DUP4 ADD MSTORE PUSH1 0x5 ADD SLOAD PUSH1 0xA0 DUP3 ADD MSTORE DUP3 MLOAD DUP4 SWAP1 DUP4 SWAP1 DUP2 LT PUSH2 0xC66 JUMPI PUSH2 0xC66 PUSH2 0x4350 JUMP JUMPDEST PUSH1 0x20 SWAP1 DUP2 MUL SWAP2 SWAP1 SWAP2 ADD ADD MSTORE PUSH1 0x1 ADD PUSH2 0xBAB JUMP JUMPDEST POP SWAP1 POP JUMPDEST SWAP3 SWAP2 POP POP JUMP JUMPDEST PUSH2 0xCD1 PUSH1 0x40 MLOAD DUP1 PUSH1 0xC0 ADD PUSH1 0x40 MSTORE DUP1 PUSH0 PUSH20 0xFFFFFFFFFFFFFFFFFFFFFFFFFFFFFFFFFFFFFFFF AND DUP2 MSTORE PUSH1 0x20 ADD PUSH0 PUSH1 0xFF AND DUP2 MSTORE PUSH1 0x20 ADD PUSH1 0x60 DUP2 MSTORE PUSH1 0x20 ADD PUSH1 0x60 DUP2 MSTORE PUSH1 0x20 ADD PUSH0 DUP2 MSTORE PUSH1 0x20 ADD PUSH0 DUP2 MSTORE POP SWAP1 JUMP JUMPDEST PUSH1 0x40 DUP1 MLOAD PUSH1 0xC0 DUP2 ADD DUP3 MSTORE PUSH1 0x1 SLOAD PUSH20 0xFFFFFFFFFFFFFFFFFFFFFFFFFFFFFFFFFFFFFFFF AND DUP1 DUP3 MSTORE DUP3 MLOAD PUSH32 0x313CE56700000000000000000000000000000000000000000000000000000000 DUP2 MSTORE SWAP3 MLOAD SWAP2 SWAP3 PUSH1 0x20 DUP1 DUP6 ADD SWAP4 PUSH4 0x313CE567 SWAP3 PUSH1 0x4 DUP1 DUP3 ADD SWAP4 SWAP3 SWAP2 DUP3 SWAP1 SUB ADD DUP2 DUP7 GAS STATICCALL ISZERO DUP1 ISZERO PUSH2 0xD4B JUMPI RETURNDATASIZE PUSH0 DUP1 RETURNDATACOPY RETURNDATASIZE PUSH0 REVERT JUMPDEST POP POP POP POP PUSH1 0x40 MLOAD RETURNDATASIZE PUSH1 0x1F NOT PUSH1 0x1F DUP3 ADD AND DUP3 ADD DUP1 PUSH1 0x40 MSTORE POP DUP2 ADD SWAP1 PUSH2 0xD6F SWAP2 SWAP1 PUSH2 0x437D JUMP JUMPDEST PUSH1 0xFF AND DUP2 MSTORE PUSH1 0x20 ADD PUSH1 0x1 PUSH0 SWAP1 SLOAD SWAP1 PUSH2 0x100 EXP SWAP1 DIV PUSH20 0xFFFFFFFFFFFFFFFFFFFFFFFFFFFFFFFFFFFFFFFF AND PUSH20 0xFFFFFFFFFFFFFFFFFFFFFFFFFFFFFFFFFFFFFFFF AND PUSH4 0x6FDDE03 PUSH1 0x40 MLOAD DUP2 PUSH4 0xFFFFFFFF AND PUSH1 0xE0 SHL DUP2 MSTORE PUSH1 0x4 ADD PUSH0 PUSH1 0x40 MLOAD DUP1 DUP4 SUB DUP2 DUP7 GAS STATICCALL ISZERO DUP1 ISZERO PUSH2 0xDE0 JUMPI RETURNDATASIZE PUSH0 DUP1 RETURNDATACOPY RETURNDATASIZE PUSH0 REVERT JUMPDEST POP POP POP POP PUSH1 0x40 MLOAD RETURNDATASIZE PUSH0 DUP3 RETURNDATACOPY PUSH1 0x1F RETURNDATASIZE SWAP1 DUP2 ADD PUSH32 0xFFFFFFFFFFFFFFFFFFFFFFFFFFFFFFFFFFFFFFFFFFFFFFFFFFFFFFFFFFFFFFE0 AND DUP3 ADD PUSH1 0x40 MSTORE PUSH2 0xE25 SWAP2 SWAP1 DUP2 ADD SWAP1 PUSH2 0x4424 JUMP JUMPDEST DUP2 MSTORE PUSH1 0x20 ADD PUSH1 0x1 PUSH0 SWAP1 SLOAD SWAP1 PUSH2 0x100 EXP SWAP1 DIV PUSH20 0xFFFFFFFFFFFFFFFFFFFFFFFFFFFFFFFFFFFFFFFF AND PUSH20 0xFFFFFFFFFFFFFFFFFFFFFFFFFFFFFFFFFFFFFFFF AND PUSH4 0x95D89B41 PUSH1 0x40 MLOAD DUP2 PUSH4 0xFFFFFFFF AND PUSH1 0xE0 SHL DUP2 MSTORE PUSH1 0x4 ADD PUSH0 PUSH1 0x40 MLOAD DUP1 DUP4 SUB DUP2 DUP7 GAS STATICCALL ISZERO DUP1 ISZERO PUSH2 0xE93 JUMPI RETURNDATASIZE PUSH0 DUP1 RETURNDATACOPY RETURNDATASIZE PUSH0 REVERT JUMPDEST POP POP POP POP PUSH1 0x40 MLOAD RETURNDATASIZE PUSH0 DUP3 RETURNDATACOPY PUSH1 0x1F RETURNDATASIZE SWAP1 DUP2 ADD PUSH32 0xFFFFFFFFFFFFFFFFFFFFFFFFFFFFFFFFFFFFFFFFFFFFFFFFFFFFFFFFFFFFFFE0 AND DUP3 ADD PUSH1 0x40 MSTORE PUSH2 0xED8 SWAP2 SWAP1 DUP2 ADD SWAP1 PUSH2 0x4424 JUMP JUMPDEST DUP2 MSTORE PUSH1 0x20 ADD PUSH20 0xFFFFFFFFFFFFFFFFFFFFFFFFFFFFFFFFFFFFFFFF DUP5 AND PUSH2 0xEFE JUMPI PUSH0 PUSH2 0xF90 JUMP JUMPDEST PUSH1 0x1 SLOAD PUSH1 0x40 MLOAD PUSH32 0x70A0823100000000000000000000000000000000000000000000000000000000 DUP2 MSTORE PUSH20 0xFFFFFFFFFFFFFFFFFFFFFFFFFFFFFFFFFFFFFFFF DUP7 DUP2 AND PUSH1 0x4 DUP4 ADD MSTORE SWAP1 SWAP2 AND SWAP1 PUSH4 0x70A08231 SWAP1 PUSH1 0x24 ADD PUSH1 0x20 PUSH1 0x40 MLOAD DUP1 DUP4 SUB DUP2 DUP7 GAS STATICCALL ISZERO DUP1 ISZERO PUSH2 0xF6C JUMPI RETURNDATASIZE PUSH0 DUP1 RETURNDATACOPY RETURNDATASIZE PUSH0 REVERT JUMPDEST POP POP POP POP PUSH1 0x40 MLOAD RETURNDATASIZE PUSH1 0x1F NOT PUSH1 0x1F DUP3 ADD AND DUP3 ADD DUP1 PUSH1 0x40 MSTORE POP DUP2 ADD SWAP1 PUSH2 0xF90 SWAP2 SWAP1 PUSH2 0x4456 JUMP JUMPDEST DUP2 MSTORE PUSH1 0x20 ADD PUSH20 0xFFFFFFFFFFFFFFFFFFFFFFFFFFFFFFFFFFFFFFFF DUP5 AND PUSH2 0xFB6 JUMPI PUSH0 PUSH2 0x104E JUMP JUMPDEST PUSH1 0x1 SLOAD PUSH1 0x40 MLOAD PUSH32 0xDD62ED3E00000000000000000000000000000000000000000000000000000000 DUP2 MSTORE PUSH20 0xFFFFFFFFFFFFFFFFFFFFFFFFFFFFFFFFFFFFFFFF DUP7 DUP2 AND PUSH1 0x4 DUP4 ADD MSTORE ADDRESS PUSH1 0x24 DUP4 ADD MSTORE SWAP1 SWAP2 AND SWAP1 PUSH4 0xDD62ED3E SWAP1 PUSH1 0x44 ADD PUSH1 0x20 PUSH1 0x40 MLOAD DUP1 DUP4 SUB DUP2 DUP7 GAS STATICCALL ISZERO DUP1 ISZERO PUSH2 0x102A JUMPI RETURNDATASIZE PUSH0 DUP1 RETURNDATACOPY RETURNDATASIZE PUSH0 REVERT JUMPDEST POP POP POP POP PUSH1 0x40 MLOAD RETURNDATASIZE PUSH1 0x1F NOT PUSH1 0x1F DUP3 ADD AND DUP3 ADD DUP1 PUSH1 0x40 MSTORE POP DUP2 ADD SWAP1 PUSH2 0x104E SWAP2 SWAP1 PUSH2 0x4456 JUMP JUMPDEST SWAP1 MSTORE SWAP3 SWAP2 POP POP JUMP JUMPDEST PUSH1 0x7 SLOAD PUSH20 0xFFFFFFFFFFFFFFFFFFFFFFFFFFFFFFFFFFFFFFFF AND CALLER EQ PUSH2 0x10D7 JUMPI PUSH1 0x40 MLOAD PUSH32 0x8C379A000000000000000000000000000000000000000000000000000000000 DUP2 MSTORE PUSH1 0x20 PUSH1 0x4 DUP3 ADD MSTORE PUSH1 0xA PUSH1 0x24 DUP3 ADD MSTORE PUSH32 0x4F6E6C79206F776E657200000000000000000000000000000000000000000000 PUSH1 0x44 DUP3 ADD MSTORE PUSH1 0x64 ADD PUSH2 0xA44 JUMP JUMPDEST PUSH1 0x2 DUP1 SLOAD PUSH32 0xFFFFFFFFFFFFFFFFFFFFFFFF0000000000000000000000000000000000000000 AND PUSH20 0xFFFFFFFFFFFFFFFFFFFFFFFFFFFFFFFFFFFFFFFF SWAP3 SWAP1 SWAP3 AND SWAP2 SWAP1 SWAP2 OR SWAP1 SSTORE JUMP JUMPDEST PUSH1 0x7 SLOAD PUSH20 0xFFFFFFFFFFFFFFFFFFFFFFFFFFFFFFFFFFFFFFFF AND CALLER EQ PUSH2 0x119F JUMPI PUSH1 0x40 MLOAD PUSH32 0x8C379A000000000000000000000000000000000000000000000000000000000 DUP2 MSTORE PUSH1 0x20 PUSH1 0x4 DUP3 ADD MSTORE PUSH1 0xA PUSH1 0x24 DUP3 ADD MSTORE PUSH32 0x4F6E6C79206F776E657200000000000000000000000000000000000000000000 PUSH1 0x44 DUP3 ADD MSTORE PUSH1 0x64 ADD PUSH2 0xA44 JUMP JUMPDEST PUSH1 0x1 SLOAD PUSH20 0xFFFFFFFFFFFFFFFFFFFFFFFFFFFFFFFFFFFFFFFF SWAP1 DUP2 AND SWAP1 DUP4 AND SUB PUSH2 0x124A JUMPI PUSH1 0x40 MLOAD PUSH32 0x8C379A000000000000000000000000000000000000000000000000000000000 DUP2 MSTORE PUSH1 0x20 PUSH1 0x4 DUP3 ADD MSTORE PUSH1 0x2B PUSH1 0x24 DUP3 ADD MSTORE PUSH32 0x43616E74207265636F7765722067616D6520746F6B656E2E204F6E6C79206261 PUSH1 0x44 DUP3 ADD MSTORE PUSH32 0x6E6B207769746864726177000000000000000000000000000000000000000000 PUSH1 0x64 DUP3 ADD MSTORE PUSH1 0x84 ADD PUSH2 0xA44 JUMP JUMPDEST PUSH1 0x7 SLOAD PUSH1 0x40 MLOAD PUSH32 0xA9059CBB00000000000000000000000000000000000000000000000000000000 DUP2 MSTORE PUSH20 0xFFFFFFFFFFFFFFFFFFFFFFFFFFFFFFFFFFFFFFFF SWAP2 DUP3 AND PUSH1 0x4 DUP3 ADD MSTORE PUSH1 0x24 DUP2 ADD DUP4 SWAP1 MSTORE SWAP1 DUP4 AND SWAP1 PUSH4 0xA9059CBB SWAP1 PUSH1 0x44 ADD PUSH1 0x20 PUSH1 0x40 MLOAD DUP1 DUP4 SUB DUP2 PUSH0 DUP8 GAS CALL ISZERO DUP1 ISZERO PUSH2 0x12C0 JUMPI RETURNDATASIZE PUSH0 DUP1 RETURNDATACOPY RETURNDATASIZE PUSH0 REVERT JUMPDEST POP POP POP POP PUSH1 0x40 MLOAD RETURNDATASIZE PUSH1 0x1F NOT PUSH1 0x1F DUP3 ADD AND DUP3 ADD DUP1 PUSH1 0x40 MSTORE POP DUP2 ADD SWAP1 PUSH2 0x12E4 SWAP2 SWAP1 PUSH2 0x446D JUMP JUMPDEST POP POP POP JUMP JUMPDEST PUSH1 0x60 PUSH1 0x13 SLOAD DUP4 GT ISZERO PUSH2 0x137E JUMPI PUSH1 0x40 DUP1 MLOAD PUSH0 DUP1 DUP3 MSTORE PUSH1 0x20 DUP3 ADD SWAP1 SWAP3 MSTORE SWAP1 PUSH2 0xACF JUMP JUMPDEST PUSH2 0x1364 PUSH1 0x40 DUP1 MLOAD PUSH2 0x160 DUP2 ADD SWAP1 SWAP2 MSTORE PUSH0 DUP1 DUP3 MSTORE PUSH1 0x20 DUP3 ADD SWAP1 DUP2 MSTORE PUSH1 0x20 ADD PUSH0 DUP2 MSTORE PUSH1 0x20 ADD PUSH0 DUP2 MSTORE PUSH1 0x20 ADD PUSH0 DUP2 MSTORE PUSH1 0x20 ADD PUSH0 DUP2 MSTORE PUSH1 0x20 ADD PUSH0 DUP2 MSTORE PUSH1 0x20 ADD PUSH0 DUP2 MSTORE PUSH1 0x20 ADD PUSH0 DUP2 MSTORE PUSH1 0x20 ADD PUSH0 DUP1 NOT AND DUP2 MSTORE PUSH1 0x20 ADD PUSH0 DUP1 NOT AND DUP2 MSTORE POP SWAP1 JUMP JUMPDEST DUP2 MSTORE PUSH1 0x20 ADD SWAP1 PUSH1 0x1 SWAP1 SUB SWAP1 DUP2 PUSH2 0x130A JUMPI SWAP1 POP POP SWAP1 POP PUSH2 0xC7D JUMP JUMPDEST DUP3 ISZERO DUP1 ISZERO PUSH2 0x138A JUMPI POP DUP2 ISZERO JUMPDEST ISZERO PUSH2 0x1395 JUMPI PUSH1 0x13 SLOAD SWAP2 POP JUMPDEST PUSH1 0x13 SLOAD PUSH2 0x13A2 DUP4 DUP6 PUSH2 0x432A JUMP JUMPDEST GT ISZERO PUSH2 0x13B9 JUMPI DUP3 PUSH1 0x13 SLOAD PUSH2 0x13B6 SWAP2 SWAP1 PUSH2 0x433D JUMP JUMPDEST SWAP2 POP JUMPDEST PUSH0 DUP3 PUSH8 0xFFFFFFFFFFFFFFFF DUP2 GT ISZERO PUSH2 0x13D3 JUMPI PUSH2 0x13D3 PUSH2 0x3F9B JUMP JUMPDEST PUSH1 0x40 MLOAD SWAP1 DUP1 DUP3 MSTORE DUP1 PUSH1 0x20 MUL PUSH1 0x20 ADD DUP3 ADD PUSH1 0x40 MSTORE DUP1 ISZERO PUSH2 0x145E JUMPI DUP2 PUSH1 0x20 ADD JUMPDEST PUSH2 0x144B PUSH1 0x40 DUP1 MLOAD PUSH2 0x160 DUP2 ADD SWAP1 SWAP2 MSTORE PUSH0 DUP1 DUP3 MSTORE PUSH1 0x20 DUP3 ADD SWAP1 DUP2 MSTORE PUSH1 0x20 ADD PUSH0 DUP2 MSTORE PUSH1 0x20 ADD PUSH0 DUP2 MSTORE PUSH1 0x20 ADD PUSH0 DUP2 MSTORE PUSH1 0x20 ADD PUSH0 DUP2 MSTORE PUSH1 0x20 ADD PUSH0 DUP2 MSTORE PUSH1 0x20 ADD PUSH0 DUP2 MSTORE PUSH1 0x20 ADD PUSH0 DUP2 MSTORE PUSH1 0x20 ADD PUSH0 DUP1 NOT AND DUP2 MSTORE PUSH1 0x20 ADD PUSH0 DUP1 NOT AND DUP2 MSTORE POP SWAP1 JUMP JUMPDEST DUP2 MSTORE PUSH1 0x20 ADD SWAP1 PUSH1 0x1 SWAP1 SUB SWAP1 DUP2 PUSH2 0x13F1 JUMPI SWAP1 POP JUMPDEST POP SWAP1 POP PUSH0 JUMPDEST DUP4 DUP2 LT ISZERO PUSH2 0xC79 JUMPI PUSH1 0x14 PUSH0 DUP7 DUP4 PUSH1 0x13 SLOAD PUSH2 0x147D SWAP2 SWAP1 PUSH2 0x433D JUMP JUMPDEST PUSH2 0x1487 SWAP2 SWAP1 PUSH2 0x433D JUMP JUMPDEST DUP2 MSTORE PUSH1 0x20 ADD SWAP1 DUP2 MSTORE PUSH1 0x20 ADD PUSH0 KECCAK256 PUSH1 0x40 MLOAD DUP1 PUSH2 0x160 ADD PUSH1 0x40 MSTORE SWAP1 DUP2 PUSH0 DUP3 ADD SLOAD DUP2 MSTORE PUSH1 0x20 ADD PUSH1 0x1 DUP3 ADD PUSH0 SWAP1 SLOAD SWAP1 PUSH2 0x100 EXP SWAP1 DIV PUSH1 0xFF AND PUSH1 0x5 DUP2 GT ISZERO PUSH2 0x14CC JUMPI PUSH2 0x14CC PUSH2 0x3E49 JUMP JUMPDEST PUSH1 0x5 DUP2 GT ISZERO PUSH2 0x14DD JUMPI PUSH2 0x14DD PUSH2 0x3E49 JUMP JUMPDEST DUP2 MSTORE PUSH1 0x20 ADD PUSH1 0x2 DUP3 ADD SLOAD DUP2 MSTORE PUSH1 0x20 ADD PUSH1 0x3 DUP3 ADD SLOAD DUP2 MSTORE PUSH1 0x20 ADD PUSH1 0x4 DUP3 ADD SLOAD DUP2 MSTORE PUSH1 0x20 ADD PUSH1 0x5 DUP3 ADD SLOAD DUP2 MSTORE PUSH1 0x20 ADD PUSH1 0x6 DUP3 ADD SLOAD DUP2 MSTORE PUSH1 0x20 ADD PUSH1 0x7 DUP3 ADD SLOAD DUP2 MSTORE PUSH1 0x20 ADD PUSH1 0x8 DUP3 ADD SLOAD DUP2 MSTORE PUSH1 0x20 ADD PUSH1 0x9 DUP3 ADD SLOAD DUP2 MSTORE PUSH1 0x20 ADD PUSH1 0xA DUP3 ADD SLOAD DUP2 MSTORE POP POP DUP3 DUP3 DUP2 MLOAD DUP2 LT PUSH2 0x154D JUMPI PUSH2 0x154D PUSH2 0x4350 JUMP JUMPDEST PUSH1 0x20 SWAP1 DUP2 MUL SWAP2 SWAP1 SWAP2 ADD ADD MSTORE PUSH1 0x1 ADD PUSH2 0x1463 JUMP JUMPDEST PUSH1 0x6 SLOAD PUSH20 0xFFFFFFFFFFFFFFFFFFFFFFFFFFFFFFFFFFFFFFFF AND CALLER EQ PUSH2 0x15E1 JUMPI PUSH1 0x40 MLOAD PUSH32 0x8C379A000000000000000000000000000000000000000000000000000000000 DUP2 MSTORE PUSH1 0x20 PUSH1 0x4 DUP3 ADD MSTORE PUSH1 0xB PUSH1 0x24 DUP3 ADD MSTORE PUSH32 0x4F6E6C79206F7261636C65000000000000000000000000000000000000000000 PUSH1 0x44 DUP3 ADD MSTORE PUSH1 0x64 ADD PUSH2 0xA44 JUMP JUMPDEST PUSH2 0x15E9 PUSH2 0x3A85 JUMP JUMPDEST PUSH1 0x2 PUSH0 DUP3 DUP2 MSTORE PUSH1 0x14 PUSH1 0x20 MSTORE PUSH1 0x40 SWAP1 KECCAK256 PUSH1 0x1 ADD SLOAD PUSH1 0xFF AND PUSH1 0x5 DUP2 GT ISZERO PUSH2 0x1610 JUMPI PUSH2 0x1610 PUSH2 0x3E49 JUMP JUMPDEST EQ PUSH2 0x1677 JUMPI PUSH1 0x40 MLOAD PUSH32 0x8C379A000000000000000000000000000000000000000000000000000000000 DUP2 MSTORE PUSH1 0x20 PUSH1 0x4 DUP3 ADD MSTORE PUSH1 0xB PUSH1 0x24 DUP3 ADD MSTORE PUSH32 0x4E6F742070656E64696E67000000000000000000000000000000000000000000 PUSH1 0x44 DUP3 ADD MSTORE PUSH1 0x64 ADD PUSH2 0xA44 JUMP JUMPDEST PUSH0 DUP2 DUP2 MSTORE PUSH1 0x14 PUSH1 0x20 SWAP1 DUP2 MSTORE PUSH1 0x40 SWAP2 DUP3 SWAP1 KECCAK256 PUSH1 0x1 DUP2 ADD DUP1 SLOAD PUSH32 0xFFFFFFFFFFFFFFFFFFFFFFFFFFFFFFFFFFFFFFFFFFFFFFFFFFFFFFFFFFFFFF00 AND PUSH1 0x3 OR SWAP1 SSTORE TIMESTAMP PUSH1 0x2 DUP3 ADD SSTORE PUSH1 0x4 DUP2 ADD SLOAD PUSH1 0x6 SWAP1 SWAP2 ADD SLOAD DUP4 MLOAD DUP6 DUP2 MSTORE SWAP3 DUP4 ADD SWAP2 SWAP1 SWAP2 MSTORE SWAP2 DUP2 ADD SWAP2 SWAP1 SWAP2 MSTORE PUSH32 0xA359B664A68ACD8839E42112EB50EFF3408165E15074FDE89DDB58A0DB2E691D SWAP1 PUSH1 0x60 ADD JUMPDEST PUSH1 0x40 MLOAD DUP1 SWAP2 SUB SWAP1 LOG1 PUSH2 0x1710 PUSH1 0x1 PUSH0 SSTORE JUMP JUMPDEST POP JUMP JUMPDEST PUSH1 0x6 SLOAD PUSH20 0xFFFFFFFFFFFFFFFFFFFFFFFFFFFFFFFFFFFFFFFF AND CALLER EQ PUSH2 0x1794 JUMPI PUSH1 0x40 MLOAD PUSH32 0x8C379A000000000000000000000000000000000000000000000000000000000 DUP2 MSTORE PUSH1 0x20 PUSH1 0x4 DUP3 ADD MSTORE PUSH1 0xB PUSH1 0x24 DUP3 ADD MSTORE PUSH32 0x4F6E6C79206F7261636C65000000000000000000000000000000000000000000 PUSH1 0x44 DUP3 ADD MSTORE PUSH1 0x64 ADD PUSH2 0xA44 JUMP JUMPDEST PUSH2 0x179C PUSH2 0x3A85 JUMP JUMPDEST PUSH1 0x2 PUSH0 DUP4 DUP2 MSTORE PUSH1 0x14 PUSH1 0x20 MSTORE PUSH1 0x40 SWAP1 KECCAK256 PUSH1 0x1 ADD SLOAD PUSH1 0xFF AND PUSH1 0x5 DUP2 GT ISZERO PUSH2 0x17C3 JUMPI PUSH2 0x17C3 PUSH2 0x3E49 JUMP JUMPDEST EQ PUSH2 0x182A JUMPI PUSH1 0x40 MLOAD PUSH32 0x8C379A000000000000000000000000000000000000000000000000000000000 DUP2 MSTORE PUSH1 0x20 PUSH1 0x4 DUP3 ADD MSTORE PUSH1 0x11 PUSH1 0x24 DUP3 ADD MSTORE PUSH32 0x4E6F742070656E64696E6720726F756E64000000000000000000000000000000 PUSH1 0x44 DUP3 ADD MSTORE PUSH1 0x64 ADD PUSH2 0xA44 JUMP JUMPDEST PUSH0 DUP3 DUP2 MSTORE PUSH1 0x14 PUSH1 0x20 MSTORE PUSH1 0x40 DUP2 KECCAK256 PUSH1 0x4 ADD SLOAD DUP2 JUMPDEST DUP4 MLOAD DUP2 LT ISZERO PUSH2 0x1CA5 JUMPI PUSH2 0x186B DUP5 DUP3 DUP2 MLOAD DUP2 LT PUSH2 0x185B JUMPI PUSH2 0x185B PUSH2 0x4350 JUMP JUMPDEST PUSH1 0x20 MUL PUSH1 0x20 ADD ADD MLOAD PUSH0 ADD MLOAD PUSH2 0x3AF6 JUMP JUMPDEST PUSH0 PUSH1 0xC PUSH0 DUP7 DUP5 DUP2 MLOAD DUP2 LT PUSH2 0x1881 JUMPI PUSH2 0x1881 PUSH2 0x4350 JUMP JUMPDEST PUSH1 0x20 MUL PUSH1 0x20 ADD ADD MLOAD PUSH0 ADD MLOAD PUSH20 0xFFFFFFFFFFFFFFFFFFFFFFFFFFFFFFFFFFFFFFFF AND PUSH20 0xFFFFFFFFFFFFFFFFFFFFFFFFFFFFFFFFFFFFFFFF AND DUP2 MSTORE PUSH1 0x20 ADD SWAP1 DUP2 MSTORE PUSH1 0x20 ADD PUSH0 KECCAK256 SWAP1 POP PUSH0 PUSH1 0x2 PUSH0 SWAP1 SLOAD SWAP1 PUSH2 0x100 EXP SWAP1 DIV PUSH20 0xFFFFFFFFFFFFFFFFFFFFFFFFFFFFFFFFFFFFFFFF AND PUSH20 0xFFFFFFFFFFFFFFFFFFFFFFFFFFFFFFFFFFFFFFFF AND PUSH4 0xC084B10B DUP8 DUP6 DUP2 MLOAD DUP2 LT PUSH2 0x1917 JUMPI PUSH2 0x1917 PUSH2 0x4350 JUMP JUMPDEST PUSH1 0x20 SWAP1 DUP2 MUL SWAP2 SWAP1 SWAP2 ADD ADD MLOAD MLOAD PUSH1 0x40 MLOAD PUSH32 0xFFFFFFFF00000000000000000000000000000000000000000000000000000000 PUSH1 0xE0 DUP5 SWAP1 SHL AND DUP2 MSTORE PUSH20 0xFFFFFFFFFFFFFFFFFFFFFFFFFFFFFFFFFFFFFFFF SWAP1 SWAP2 AND PUSH1 0x4 DUP3 ADD MSTORE PUSH1 0x24 ADD PUSH1 0x20 PUSH1 0x40 MLOAD DUP1 DUP4 SUB DUP2 DUP7 GAS STATICCALL ISZERO DUP1 ISZERO PUSH2 0x198A JUMPI RETURNDATASIZE PUSH0 DUP1 RETURNDATACOPY RETURNDATASIZE PUSH0 REVERT JUMPDEST POP POP POP POP PUSH1 0x40 MLOAD RETURNDATASIZE PUSH1 0x1F NOT PUSH1 0x1F DUP3 ADD AND DUP3 ADD DUP1 PUSH1 0x40 MSTORE POP DUP2 ADD SWAP1 PUSH2 0x19AE SWAP2 SWAP1 PUSH2 0x4456 JUMP JUMPDEST SWAP1 POP DUP6 DUP4 DUP2 MLOAD DUP2 LT PUSH2 0x19C2 JUMPI PUSH2 0x19C2 PUSH2 0x4350 JUMP JUMPDEST PUSH1 0x20 MUL PUSH1 0x20 ADD ADD MLOAD PUSH1 0x20 ADD MLOAD DUP2 LT ISZERO DUP1 ISZERO PUSH2 0x19FA JUMPI POP PUSH0 DUP8 DUP2 MSTORE PUSH1 0x17 PUSH1 0x20 SWAP1 DUP2 MSTORE PUSH1 0x40 DUP1 DUP4 KECCAK256 PUSH1 0x1 DUP7 ADD SLOAD DUP5 MSTORE SWAP1 SWAP2 MSTORE SWAP1 KECCAK256 SLOAD PUSH1 0xFF AND ISZERO JUMPDEST DUP1 ISZERO PUSH2 0x1A25 JUMPI POP PUSH1 0x11 SLOAD DUP7 DUP5 DUP2 MLOAD DUP2 LT PUSH2 0x1A16 JUMPI PUSH2 0x1A16 PUSH2 0x4350 JUMP JUMPDEST PUSH1 0x20 MUL PUSH1 0x20 ADD ADD MLOAD PUSH1 0x20 ADD MLOAD LT ISZERO JUMPDEST DUP1 ISZERO PUSH2 0x1A50 JUMPI POP PUSH1 0x12 SLOAD DUP7 DUP5 DUP2 MLOAD DUP2 LT PUSH2 0x1A41 JUMPI PUSH2 0x1A41 PUSH2 0x4350 JUMP JUMPDEST PUSH1 0x20 MUL PUSH1 0x20 ADD ADD MLOAD PUSH1 0x20 ADD MLOAD GT ISZERO JUMPDEST ISZERO PUSH2 0x1C9B JUMPI PUSH1 0x2 SLOAD DUP7 MLOAD PUSH20 0xFFFFFFFFFFFFFFFFFFFFFFFFFFFFFFFFFFFFFFFF SWAP1 SWAP2 AND SWAP1 PUSH4 0xF0A507DA SWAP1 DUP9 SWAP1 DUP7 SWAP1 DUP2 LT PUSH2 0x1A8B JUMPI PUSH2 0x1A8B PUSH2 0x4350 JUMP JUMPDEST PUSH1 0x20 MUL PUSH1 0x20 ADD ADD MLOAD PUSH0 ADD MLOAD DUP9 DUP7 DUP2 MLOAD DUP2 LT PUSH2 0x1AA8 JUMPI PUSH2 0x1AA8 PUSH2 0x4350 JUMP JUMPDEST PUSH1 0x20 MUL PUSH1 0x20 ADD ADD MLOAD PUSH1 0x20 ADD MLOAD PUSH1 0x40 MLOAD DUP4 PUSH4 0xFFFFFFFF AND PUSH1 0xE0 SHL DUP2 MSTORE PUSH1 0x4 ADD PUSH2 0x1AF2 SWAP3 SWAP2 SWAP1 PUSH20 0xFFFFFFFFFFFFFFFFFFFFFFFFFFFFFFFFFFFFFFFF SWAP3 SWAP1 SWAP3 AND DUP3 MSTORE PUSH1 0x20 DUP3 ADD MSTORE PUSH1 0x40 ADD SWAP1 JUMP JUMPDEST PUSH0 PUSH1 0x40 MLOAD DUP1 DUP4 SUB DUP2 PUSH0 DUP8 DUP1 EXTCODESIZE ISZERO DUP1 ISZERO PUSH2 0x1B09 JUMPI PUSH0 DUP1 REVERT JUMPDEST POP GAS CALL ISZERO DUP1 ISZERO PUSH2 0x1B1B JUMPI RETURNDATASIZE PUSH0 DUP1 RETURNDATACOPY RETURNDATASIZE PUSH0 REVERT JUMPDEST POP POP POP POP DUP6 DUP4 DUP2 MLOAD DUP2 LT PUSH2 0x1B31 JUMPI PUSH2 0x1B31 PUSH2 0x4350 JUMP JUMPDEST PUSH1 0x20 MUL PUSH1 0x20 ADD ADD MLOAD PUSH1 0x20 ADD MLOAD DUP3 PUSH1 0x2 ADD PUSH0 DUP3 DUP3 SLOAD PUSH2 0x1B4F SWAP2 SWAP1 PUSH2 0x432A JUMP JUMPDEST SWAP1 SWAP2 SSTORE POP POP PUSH1 0x5 DUP3 ADD DUP8 SWAP1 SSTORE PUSH1 0x1 DUP3 ADD SLOAD PUSH0 SWAP1 DUP2 MSTORE PUSH1 0x10 PUSH1 0x20 SWAP1 DUP2 MSTORE PUSH1 0x40 DUP1 DUP4 KECCAK256 PUSH1 0x4 DUP7 ADD DUP1 SLOAD DUP6 MSTORE SWAP3 MSTORE DUP3 KECCAK256 DUP10 SWAP1 SSTORE DUP1 SLOAD SWAP2 PUSH2 0x1B8B DUP4 PUSH2 0x448C JUMP JUMPDEST SWAP2 SWAP1 POP SSTORE POP DUP6 DUP4 DUP2 MLOAD DUP2 LT PUSH2 0x1BA2 JUMPI PUSH2 0x1BA2 PUSH2 0x4350 JUMP JUMPDEST PUSH1 0x20 SWAP1 DUP2 MUL SWAP2 SWAP1 SWAP2 ADD DUP2 ADD MLOAD PUSH0 DUP10 DUP2 MSTORE PUSH1 0x15 DUP4 MSTORE PUSH1 0x40 DUP1 DUP3 KECCAK256 DUP9 DUP4 MSTORE DUP5 MSTORE DUP1 DUP3 KECCAK256 DUP4 MLOAD DUP2 SLOAD PUSH32 0xFFFFFFFFFFFFFFFFFFFFFFFF0000000000000000000000000000000000000000 AND PUSH20 0xFFFFFFFFFFFFFFFFFFFFFFFFFFFFFFFFFFFFFFFF SWAP1 SWAP2 AND OR DUP2 SSTORE SWAP3 DUP5 ADD MLOAD PUSH1 0x1 SWAP4 DUP5 ADD SSTORE DUP11 DUP3 MSTORE PUSH1 0x17 DUP5 MSTORE DUP1 DUP3 KECCAK256 DUP7 DUP5 ADD SLOAD DUP4 MSTORE SWAP1 SWAP4 MSTORE SWAP2 SWAP1 SWAP2 KECCAK256 DUP1 SLOAD PUSH32 0xFFFFFFFFFFFFFFFFFFFFFFFFFFFFFFFFFFFFFFFFFFFFFFFFFFFFFFFFFFFFFF00 AND SWAP1 SWAP2 OR SWAP1 SSTORE DUP4 PUSH2 0x1C58 DUP2 PUSH2 0x448C JUMP JUMPDEST SWAP5 POP POP DUP6 DUP4 DUP2 MLOAD DUP2 LT PUSH2 0x1C6D JUMPI PUSH2 0x1C6D PUSH2 0x4350 JUMP JUMPDEST PUSH1 0x20 MUL PUSH1 0x20 ADD ADD MLOAD PUSH1 0x20 ADD MLOAD DUP6 PUSH2 0x1C84 SWAP2 SWAP1 PUSH2 0x432A JUMP JUMPDEST PUSH1 0x8 DUP1 SLOAD SWAP2 SWAP7 POP PUSH0 PUSH2 0x1C95 DUP4 PUSH2 0x448C JUMP JUMPDEST SWAP2 SWAP1 POP SSTORE POP JUMPDEST POP POP PUSH1 0x1 ADD PUSH2 0x183D JUMP JUMPDEST POP DUP2 PUSH1 0xA PUSH0 DUP3 DUP3 SLOAD PUSH2 0x1CB7 SWAP2 SWAP1 PUSH2 0x432A JUMP JUMPDEST SWAP1 SWAP2 SSTORE POP POP PUSH0 DUP5 DUP2 MSTORE PUSH1 0x14 PUSH1 0x20 MSTORE PUSH1 0x40 DUP2 KECCAK256 PUSH1 0x6 ADD DUP1 SLOAD DUP5 SWAP3 SWAP1 PUSH2 0x1CDC SWAP1 DUP5 SWAP1 PUSH2 0x432A JUMP JUMPDEST SWAP1 SWAP2 SSTORE POP POP PUSH0 DUP5 DUP2 MSTORE PUSH1 0x14 PUSH1 0x20 MSTORE PUSH1 0x40 SWAP1 DUP2 SWAP1 KECCAK256 PUSH1 0x4 ADD DUP3 SWAP1 SSTORE MLOAD PUSH32 0x7D23CDE3340F9ED7D2DC841617C48355E318C23B08139253AB961613741D0093 SWAP1 PUSH2 0x1D26 SWAP1 DUP7 SWAP1 DUP7 SWAP1 PUSH2 0x44C3 JUMP JUMPDEST PUSH1 0x40 MLOAD DUP1 SWAP2 SUB SWAP1 LOG1 POP POP PUSH2 0x1D39 PUSH1 0x1 PUSH0 SSTORE JUMP JUMPDEST POP POP JUMP JUMPDEST PUSH1 0x7 SLOAD PUSH20 0xFFFFFFFFFFFFFFFFFFFFFFFFFFFFFFFFFFFFFFFF AND CALLER EQ PUSH2 0x1DBE JUMPI PUSH1 0x40 MLOAD PUSH32 0x8C379A000000000000000000000000000000000000000000000000000000000 DUP2 MSTORE PUSH1 0x20 PUSH1 0x4 DUP3 ADD MSTORE PUSH1 0xA PUSH1 0x24 DUP3 ADD MSTORE PUSH32 0x4F6E6C79206F776E657200000000000000000000000000000000000000000000 PUSH1 0x44 DUP3 ADD MSTORE PUSH1 0x64 ADD PUSH2 0xA44 JUMP JUMPDEST PUSH1 0x6 DUP1 SLOAD PUSH32 0xFFFFFFFFFFFFFFFFFFFFFFFF0000000000000000000000000000000000000000 AND PUSH20 0xFFFFFFFFFFFFFFFFFFFFFFFFFFFFFFFFFFFFFFFF SWAP3 SWAP1 SWAP3 AND SWAP2 SWAP1 SWAP2 OR SWAP1 SSTORE JUMP JUMPDEST PUSH2 0x1E0D PUSH2 0x3A85 JUMP JUMPDEST PUSH1 0x7 SLOAD PUSH20 0xFFFFFFFFFFFFFFFFFFFFFFFFFFFFFFFFFFFFFFFF AND CALLER EQ DUP1 PUSH2 0x1E4A JUMPI POP PUSH1 0x6 SLOAD PUSH20 0xFFFFFFFFFFFFFFFFFFFFFFFFFFFFFFFFFFFFFFFF AND CALLER EQ JUMPDEST PUSH2 0x1EB0 JUMPI PUSH1 0x40 MLOAD PUSH32 0x8C379A000000000000000000000000000000000000000000000000000000000 DUP2 MSTORE PUSH1 0x20 PUSH1 0x4 DUP3 ADD MSTORE PUSH1 0x14 PUSH1 0x24 DUP3 ADD MSTORE PUSH32 0x4F6E6C79206F776E6572206F72206F7261636C65000000000000000000000000 PUSH1 0x44 DUP3 ADD MSTORE PUSH1 0x64 ADD PUSH2 0xA44 JUMP JUMPDEST PUSH1 0x2 PUSH0 DUP3 DUP2 MSTORE PUSH1 0x14 PUSH1 0x20 MSTORE PUSH1 0x40 SWAP1 KECCAK256 PUSH1 0x1 ADD SLOAD PUSH1 0xFF AND PUSH1 0x5 DUP2 GT ISZERO PUSH2 0x1ED7 JUMPI PUSH2 0x1ED7 PUSH2 0x3E49 JUMP JUMPDEST EQ DUP1 PUSH2 0x1F07 JUMPI POP PUSH1 0x3 PUSH0 DUP3 DUP2 MSTORE PUSH1 0x14 PUSH1 0x20 MSTORE PUSH1 0x40 SWAP1 KECCAK256 PUSH1 0x1 ADD SLOAD PUSH1 0xFF AND PUSH1 0x5 DUP2 GT ISZERO PUSH2 0x1F05 JUMPI PUSH2 0x1F05 PUSH2 0x3E49 JUMP JUMPDEST EQ JUMPDEST PUSH2 0x1F6D JUMPI PUSH1 0x40 MLOAD PUSH32 0x8C379A000000000000000000000000000000000000000000000000000000000 DUP2 MSTORE PUSH1 0x20 PUSH1 0x4 DUP3 ADD MSTORE PUSH1 0x12 PUSH1 0x24 DUP3 ADD MSTORE PUSH32 0x4E6F742070656E64696E67206F722072756E0000000000000000000000000000 PUSH1 0x44 DUP3 ADD MSTORE PUSH1 0x64 ADD PUSH2 0xA44 JUMP JUMPDEST PUSH0 DUP2 DUP2 MSTORE PUSH1 0x14 PUSH1 0x20 MSTORE PUSH1 0x40 DUP2 KECCAK256 PUSH1 0x1 DUP2 ADD DUP1 SLOAD PUSH32 0xFFFFFFFFFFFFFFFFFFFFFFFFFFFFFFFFFFFFFFFFFFFFFFFFFFFFFFFFFFFFFF00 AND PUSH1 0x5 OR SWAP1 SSTORE TIMESTAMP PUSH1 0x3 SWAP1 SWAP2 ADD SSTORE JUMPDEST PUSH0 DUP3 DUP2 MSTORE PUSH1 0x14 PUSH1 0x20 MSTORE PUSH1 0x40 SWAP1 KECCAK256 PUSH1 0x4 ADD SLOAD DUP2 LT ISZERO PUSH2 0x20CF JUMPI PUSH1 0x2 SLOAD PUSH0 DUP4 DUP2 MSTORE PUSH1 0x15 PUSH1 0x20 SWAP1 DUP2 MSTORE PUSH1 0x40 DUP1 DUP4 KECCAK256 DUP6 DUP5 MSTORE SWAP1 SWAP2 MSTORE SWAP1 DUP2 SWAP1 KECCAK256 DUP1 SLOAD PUSH1 0x1 SWAP1 SWAP2 ADD SLOAD SWAP2 MLOAD PUSH32 0x9546717700000000000000000000000000000000000000000000000000000000 DUP2 MSTORE PUSH20 0xFFFFFFFFFFFFFFFFFFFFFFFFFFFFFFFFFFFFFFFF SWAP2 DUP3 AND PUSH1 0x4 DUP3 ADD MSTORE PUSH1 0x24 DUP2 ADD SWAP3 SWAP1 SWAP3 MSTORE SWAP1 SWAP2 AND SWAP1 PUSH4 0x95467177 SWAP1 PUSH1 0x44 ADD PUSH0 PUSH1 0x40 MLOAD DUP1 DUP4 SUB DUP2 PUSH0 DUP8 DUP1 EXTCODESIZE ISZERO DUP1 ISZERO PUSH2 0x205A JUMPI PUSH0 DUP1 REVERT JUMPDEST POP GAS CALL ISZERO DUP1 ISZERO PUSH2 0x206C JUMPI RETURNDATASIZE PUSH0 DUP1 RETURNDATACOPY RETURNDATASIZE PUSH0 REVERT JUMPDEST POP POP POP PUSH0 DUP4 DUP2 MSTORE PUSH1 0x15 PUSH1 0x20 SWAP1 DUP2 MSTORE PUSH1 0x40 DUP1 DUP4 KECCAK256 DUP6 DUP5 MSTORE DUP3 MSTORE DUP1 DUP4 KECCAK256 PUSH1 0x1 DUP2 ADD SLOAD SWAP1 SLOAD PUSH20 0xFFFFFFFFFFFFFFFFFFFFFFFFFFFFFFFFFFFFFFFF AND DUP5 MSTORE PUSH1 0xC SWAP1 SWAP3 MSTORE DUP3 KECCAK256 PUSH1 0x2 ADD DUP1 SLOAD SWAP2 SWAP4 POP SWAP2 SWAP1 PUSH2 0x20C2 SWAP1 DUP5 SWAP1 PUSH2 0x433D JUMP JUMPDEST SWAP1 SWAP2 SSTORE POP POP PUSH1 0x1 ADD PUSH2 0x1FAF JUMP JUMPDEST POP PUSH1 0x40 MLOAD DUP2 DUP2 MSTORE PUSH32 0xFCAA91C5F18DB2A6C2F172BBCD4A3C8A2F06BBEFAF847B579A6DF431B77BB745 SWAP1 PUSH1 0x20 ADD PUSH2 0x16FF JUMP JUMPDEST PUSH0 PUSH1 0x13 SLOAD PUSH1 0x1 PUSH2 0x2110 SWAP2 SWAP1 PUSH2 0x432A JUMP JUMPDEST SWAP1 POP SWAP1 JUMP JUMPDEST PUSH1 0x7 SLOAD PUSH20 0xFFFFFFFFFFFFFFFFFFFFFFFFFFFFFFFFFFFFFFFF AND CALLER EQ PUSH2 0x2196 JUMPI PUSH1 0x40 MLOAD PUSH32 0x8C379A000000000000000000000000000000000000000000000000000000000 DUP2 MSTORE PUSH1 0x20 PUSH1 0x4 DUP3 ADD MSTORE PUSH1 0xA PUSH1 0x24 DUP3 ADD MSTORE PUSH32 0x4F6E6C79206F776E657200000000000000000000000000000000000000000000 PUSH1 0x44 DUP3 ADD MSTORE PUSH1 0x64 ADD PUSH2 0xA44 JUMP JUMPDEST PUSH1 0x12 SSTORE JUMP JUMPDEST PUSH1 0x7 SLOAD PUSH20 0xFFFFFFFFFFFFFFFFFFFFFFFFFFFFFFFFFFFFFFFF AND CALLER EQ PUSH2 0x221C JUMPI PUSH1 0x40 MLOAD PUSH32 0x8C379A000000000000000000000000000000000000000000000000000000000 DUP2 MSTORE PUSH1 0x20 PUSH1 0x4 DUP3 ADD MSTORE PUSH1 0xA PUSH1 0x24 DUP3 ADD MSTORE PUSH32 0x4F6E6C79206F776E657200000000000000000000000000000000000000000000 PUSH1 0x44 DUP3 ADD MSTORE PUSH1 0x64 ADD PUSH2 0xA44 JUMP JUMPDEST PUSH1 0x11 SSTORE JUMP JUMPDEST PUSH0 DUP1 DUP5 DUP4 PUSH1 0x40 MLOAD PUSH1 0x20 ADD PUSH2 0x223F SWAP3 SWAP2 SWAP1 SWAP2 DUP3 MSTORE PUSH1 0x20 DUP3 ADD MSTORE PUSH1 0x40 ADD SWAP1 JUMP JUMPDEST PUSH1 0x40 DUP1 MLOAD PUSH32 0xFFFFFFFFFFFFFFFFFFFFFFFFFFFFFFFFFFFFFFFFFFFFFFFFFFFFFFFFFFFFFFE0 DUP2 DUP5 SUB ADD DUP2 MSTORE SWAP2 SWAP1 MSTORE DUP1 MLOAD PUSH1 0x20 SWAP1 SWAP2 ADD KECCAK256 DUP5 EQ SWAP2 POP POP SWAP4 SWAP3 POP POP POP JUMP JUMPDEST PUSH1 0x7 SLOAD PUSH20 0xFFFFFFFFFFFFFFFFFFFFFFFFFFFFFFFFFFFFFFFF AND CALLER EQ PUSH2 0x2302 JUMPI PUSH1 0x40 MLOAD PUSH32 0x8C379A000000000000000000000000000000000000000000000000000000000 DUP2 MSTORE PUSH1 0x20 PUSH1 0x4 DUP3 ADD MSTORE PUSH1 0xA PUSH1 0x24 DUP3 ADD MSTORE PUSH32 0x4F6E6C79206F776E657200000000000000000000000000000000000000000000 PUSH1 0x44 DUP3 ADD MSTORE PUSH1 0x64 ADD PUSH2 0xA44 JUMP JUMPDEST PUSH1 0x3 SSTORE JUMP JUMPDEST PUSH1 0x60 DUP1 PUSH1 0x60 DUP1 PUSH1 0x14 PUSH0 DUP9 DUP2 MSTORE PUSH1 0x20 ADD SWAP1 DUP2 MSTORE PUSH1 0x20 ADD PUSH0 KECCAK256 PUSH1 0x4 ADD SLOAD DUP7 GT ISZERO PUSH2 0x23C5 JUMPI PUSH1 0x40 DUP1 MLOAD PUSH0 DUP1 DUP3 MSTORE PUSH1 0x20 DUP3 ADD SWAP1 SWAP3 MSTORE SWAP1 PUSH2 0x239A JUMP JUMPDEST PUSH2 0x2387 PUSH1 0x40 MLOAD DUP1 PUSH1 0xC0 ADD PUSH1 0x40 MSTORE DUP1 PUSH0 PUSH20 0xFFFFFFFFFFFFFFFFFFFFFFFFFFFFFFFFFFFFFFFF AND DUP2 MSTORE PUSH1 0x20 ADD PUSH0 DUP2 MSTORE PUSH1 0x20 ADD PUSH0 DUP2 MSTORE PUSH1 0x20 ADD PUSH0 DUP2 MSTORE PUSH1 0x20 ADD PUSH0 DUP2 MSTORE PUSH1 0x20 ADD PUSH0 DUP2 MSTORE POP SWAP1 JUMP JUMPDEST DUP2 MSTORE PUSH1 0x20 ADD SWAP1 PUSH1 0x1 SWAP1 SUB SWAP1 DUP2 PUSH2 0x233E JUMPI SWAP1 POP JUMPDEST POP PUSH1 0x40 DUP1 MLOAD PUSH0 DUP1 DUP3 MSTORE PUSH1 0x20 DUP3 ADD DUP2 DUP2 MSTORE DUP3 DUP5 ADD SWAP2 DUP3 MSTORE PUSH1 0x60 DUP4 ADD SWAP1 SWAP4 MSTORE SWAP3 SWAP7 POP SWAP5 POP SWAP3 POP SWAP1 POP PUSH2 0x2763 JUMP JUMPDEST DUP6 ISZERO DUP1 ISZERO PUSH2 0x23D1 JUMPI POP DUP5 ISZERO JUMPDEST ISZERO PUSH2 0x23EA JUMPI PUSH0 DUP8 DUP2 MSTORE PUSH1 0x14 PUSH1 0x20 MSTORE PUSH1 0x40 SWAP1 KECCAK256 PUSH1 0x4 ADD SLOAD SWAP5 POP JUMPDEST PUSH0 DUP8 DUP2 MSTORE PUSH1 0x14 PUSH1 0x20 MSTORE PUSH1 0x40 SWAP1 KECCAK256 PUSH1 0x4 ADD SLOAD PUSH2 0x2405 DUP7 DUP9 PUSH2 0x432A JUMP JUMPDEST GT ISZERO PUSH2 0x242A JUMPI PUSH0 DUP8 DUP2 MSTORE PUSH1 0x14 PUSH1 0x20 MSTORE PUSH1 0x40 SWAP1 KECCAK256 PUSH1 0x4 ADD SLOAD PUSH2 0x2427 SWAP1 DUP8 SWAP1 PUSH2 0x433D JUMP JUMPDEST SWAP5 POP JUMPDEST DUP5 PUSH8 0xFFFFFFFFFFFFFFFF DUP2 GT ISZERO PUSH2 0x2443 JUMPI PUSH2 0x2443 PUSH2 0x3F9B JUMP JUMPDEST PUSH1 0x40 MLOAD SWAP1 DUP1 DUP3 MSTORE DUP1 PUSH1 0x20 MUL PUSH1 0x20 ADD DUP3 ADD PUSH1 0x40 MSTORE DUP1 ISZERO PUSH2 0x24BD JUMPI DUP2 PUSH1 0x20 ADD JUMPDEST PUSH2 0x24AA PUSH1 0x40 MLOAD DUP1 PUSH1 0xC0 ADD PUSH1 0x40 MSTORE DUP1 PUSH0 PUSH20 0xFFFFFFFFFFFFFFFFFFFFFFFFFFFFFFFFFFFFFFFF AND DUP2 MSTORE PUSH1 0x20 ADD PUSH0 DUP2 MSTORE PUSH1 0x20 ADD PUSH0 DUP2 MSTORE PUSH1 0x20 ADD PUSH0 DUP2 MSTORE PUSH1 0x20 ADD PUSH0 DUP2 MSTORE PUSH1 0x20 ADD PUSH0 DUP2 MSTORE POP SWAP1 JUMP JUMPDEST DUP2 MSTORE PUSH1 0x20 ADD SWAP1 PUSH1 0x1 SWAP1 SUB SWAP1 DUP2 PUSH2 0x2461 JUMPI SWAP1 POP JUMPDEST POP SWAP4 POP DUP5 PUSH8 0xFFFFFFFFFFFFFFFF DUP2 GT ISZERO PUSH2 0x24D9 JUMPI PUSH2 0x24D9 PUSH2 0x3F9B JUMP JUMPDEST PUSH1 0x40 MLOAD SWAP1 DUP1 DUP3 MSTORE DUP1 PUSH1 0x20 MUL PUSH1 0x20 ADD DUP3 ADD PUSH1 0x40 MSTORE DUP1 ISZERO PUSH2 0x2502 JUMPI DUP2 PUSH1 0x20 ADD PUSH1 0x20 DUP3 MUL DUP1 CALLDATASIZE DUP4 CALLDATACOPY ADD SWAP1 POP JUMPDEST POP SWAP3 POP DUP5 PUSH8 0xFFFFFFFFFFFFFFFF DUP2 GT ISZERO PUSH2 0x251E JUMPI PUSH2 0x251E PUSH2 0x3F9B JUMP JUMPDEST PUSH1 0x40 MLOAD SWAP1 DUP1 DUP3 MSTORE DUP1 PUSH1 0x20 MUL PUSH1 0x20 ADD DUP3 ADD PUSH1 0x40 MSTORE DUP1 ISZERO PUSH2 0x2547 JUMPI DUP2 PUSH1 0x20 ADD PUSH1 0x20 DUP3 MUL DUP1 CALLDATASIZE DUP4 CALLDATACOPY ADD SWAP1 POP JUMPDEST POP SWAP1 POP PUSH0 JUMPDEST DUP6 DUP2 LT ISZERO PUSH2 0x2761 JUMPI PUSH0 DUP9 DUP2 MSTORE PUSH1 0x14 PUSH1 0x20 MSTORE PUSH1 0x40 DUP2 KECCAK256 PUSH1 0x4 ADD SLOAD PUSH1 0x1 SWAP1 DUP10 SWAP1 PUSH2 0x2575 SWAP1 DUP6 SWAP1 PUSH2 0x433D JUMP JUMPDEST PUSH2 0x257F SWAP2 SWAP1 PUSH2 0x433D JUMP JUMPDEST PUSH2 0x2589 SWAP2 SWAP1 PUSH2 0x433D JUMP JUMPDEST PUSH0 DUP11 DUP2 MSTORE PUSH1 0x15 PUSH1 0x20 SWAP1 DUP2 MSTORE PUSH1 0x40 DUP1 DUP4 KECCAK256 DUP5 DUP5 MSTORE DUP3 MSTORE DUP1 DUP4 KECCAK256 SLOAD PUSH20 0xFFFFFFFFFFFFFFFFFFFFFFFFFFFFFFFFFFFFFFFF SWAP1 DUP2 AND DUP5 MSTORE PUSH1 0xC DUP4 MSTORE SWAP3 DUP2 SWAP1 KECCAK256 DUP2 MLOAD PUSH1 0xC0 DUP2 ADD DUP4 MSTORE DUP2 SLOAD SWAP1 SWAP5 AND DUP5 MSTORE PUSH1 0x1 DUP2 ADD SLOAD SWAP3 DUP5 ADD SWAP3 SWAP1 SWAP3 MSTORE PUSH1 0x2 DUP3 ADD SLOAD SWAP1 DUP4 ADD MSTORE PUSH1 0x3 DUP2 ADD SLOAD PUSH1 0x60 DUP4 ADD MSTORE PUSH1 0x4 DUP2 ADD SLOAD PUSH1 0x80 DUP4 ADD MSTORE PUSH1 0x5 ADD SLOAD PUSH1 0xA0 DUP3 ADD MSTORE DUP8 MLOAD SWAP2 SWAP3 POP SWAP1 DUP2 SWAP1 DUP9 SWAP1 DUP6 SWAP1 DUP2 LT PUSH2 0x261F JUMPI PUSH2 0x261F PUSH2 0x4350 JUMP JUMPDEST PUSH1 0x20 SWAP1 DUP2 MUL SWAP2 SWAP1 SWAP2 ADD DUP2 ADD SWAP2 SWAP1 SWAP2 MSTORE PUSH0 DUP12 DUP2 MSTORE PUSH1 0x15 DUP3 MSTORE PUSH1 0x40 DUP1 DUP3 KECCAK256 DUP6 DUP4 MSTORE SWAP1 SWAP3 MSTORE KECCAK256 PUSH1 0x1 ADD SLOAD DUP7 MLOAD DUP8 SWAP1 DUP6 SWAP1 DUP2 LT PUSH2 0x265A JUMPI PUSH2 0x265A PUSH2 0x4350 JUMP JUMPDEST PUSH1 0x20 SWAP1 DUP2 MUL SWAP2 SWAP1 SWAP2 ADD DUP2 ADD SWAP2 SWAP1 SWAP2 MSTORE PUSH0 DUP12 DUP2 MSTORE PUSH1 0x1A DUP3 MSTORE PUSH1 0x40 DUP1 DUP3 KECCAK256 DUP5 DUP5 ADD MLOAD DUP4 MSTORE SWAP1 SWAP3 MSTORE KECCAK256 SLOAD PUSH1 0xFF AND ISZERO PUSH2 0x2757 JUMPI PUSH0 DUP11 DUP2 MSTORE PUSH1 0x18 PUSH1 0x20 SWAP1 DUP2 MSTORE PUSH1 0x40 DUP1 DUP4 KECCAK256 PUSH1 0x19 DUP4 MSTORE DUP2 DUP5 KECCAK256 DUP6 DUP5 ADD MLOAD DUP6 MSTORE DUP4 MSTORE DUP2 DUP5 KECCAK256 SLOAD DUP5 MSTORE SWAP1 SWAP2 MSTORE SWAP1 KECCAK256 PUSH1 0x1 ADD SLOAD DUP6 MLOAD DUP7 SWAP1 DUP6 SWAP1 DUP2 LT PUSH2 0x26CB JUMPI PUSH2 0x26CB PUSH2 0x4350 JUMP JUMPDEST PUSH1 0x20 SWAP1 DUP2 MUL SWAP2 SWAP1 SWAP2 ADD DUP2 ADD SWAP2 SWAP1 SWAP2 MSTORE PUSH0 DUP12 DUP2 MSTORE PUSH1 0x18 DUP3 MSTORE PUSH1 0x40 DUP1 DUP3 KECCAK256 PUSH1 0x19 DUP5 MSTORE DUP2 DUP4 KECCAK256 DUP6 DUP6 ADD MLOAD DUP5 MSTORE DUP5 MSTORE DUP2 DUP4 KECCAK256 SLOAD DUP4 MSTORE DUP4 MSTORE DUP1 DUP3 KECCAK256 PUSH1 0x1 SWAP1 DUP2 ADD SLOAD DUP15 DUP5 MSTORE PUSH1 0x15 DUP6 MSTORE DUP3 DUP5 KECCAK256 DUP8 DUP6 MSTORE SWAP1 SWAP5 MSTORE SWAP2 KECCAK256 ADD SLOAD PUSH8 0xDE0B6B3A7640000 SWAP2 PUSH2 0x272E SWAP2 PUSH2 0x4532 JUMP JUMPDEST PUSH2 0x2738 SWAP2 SWAP1 PUSH2 0x4549 JUMP JUMPDEST DUP5 DUP5 DUP2 MLOAD DUP2 LT PUSH2 0x274A JUMPI PUSH2 0x274A PUSH2 0x4350 JUMP JUMPDEST PUSH1 0x20 MUL PUSH1 0x20 ADD ADD DUP2 DUP2 MSTORE POP POP JUMPDEST POP POP PUSH1 0x1 ADD PUSH2 0x254C JUMP JUMPDEST POP JUMPDEST SWAP4 POP SWAP4 POP SWAP4 POP SWAP4 JUMP JUMPDEST PUSH1 0x7 SLOAD PUSH20 0xFFFFFFFFFFFFFFFFFFFFFFFFFFFFFFFFFFFFFFFF AND CALLER EQ PUSH2 0x27ED JUMPI PUSH1 0x40 MLOAD PUSH32 0x8C379A000000000000000000000000000000000000000000000000000000000 DUP2 MSTORE PUSH1 0x20 PUSH1 0x4 DUP3 ADD MSTORE PUSH1 0xA PUSH1 0x24 DUP3 ADD MSTORE PUSH32 0x4F6E6C79206F776E657200000000000000000000000000000000000000000000 PUSH1 0x44 DUP3 ADD MSTORE PUSH1 0x64 ADD PUSH2 0xA44 JUMP JUMPDEST PUSH1 0x5 SSTORE JUMP JUMPDEST PUSH1 0x2 SLOAD PUSH1 0x40 MLOAD PUSH32 0xC084B10B00000000000000000000000000000000000000000000000000000000 DUP2 MSTORE PUSH20 0xFFFFFFFFFFFFFFFFFFFFFFFFFFFFFFFFFFFFFFFF DUP4 DUP2 AND PUSH1 0x4 DUP4 ADD MSTORE PUSH0 SWAP3 AND SWAP1 PUSH4 0xC084B10B SWAP1 PUSH1 0x24 ADD PUSH1 0x20 PUSH1 0x40 MLOAD DUP1 DUP4 SUB DUP2 DUP7 GAS STATICCALL ISZERO DUP1 ISZERO PUSH2 0x2860 JUMPI RETURNDATASIZE PUSH0 DUP1 RETURNDATACOPY RETURNDATASIZE PUSH0 REVERT JUMPDEST POP POP POP POP PUSH1 0x40 MLOAD RETURNDATASIZE PUSH1 0x1F NOT PUSH1 0x1F DUP3 ADD AND DUP3 ADD DUP1 PUSH1 0x40 MSTORE POP DUP2 ADD SWAP1 PUSH2 0xC7D SWAP2 SWAP1 PUSH2 0x4456 JUMP JUMPDEST PUSH1 0x2 SLOAD PUSH1 0x40 MLOAD PUSH32 0x8D1A4B2800000000000000000000000000000000000000000000000000000000 DUP2 MSTORE ADDRESS PUSH1 0x4 DUP3 ADD MSTORE PUSH0 SWAP2 DUP3 SWAP2 PUSH20 0xFFFFFFFFFFFFFFFFFFFFFFFFFFFFFFFFFFFFFFFF SWAP1 SWAP2 AND SWAP1 PUSH4 0x8D1A4B28 SWAP1 PUSH1 0x24 ADD PUSH0 PUSH1 0x40 MLOAD DUP1 DUP4 SUB DUP2 DUP7 GAS STATICCALL ISZERO DUP1 ISZERO PUSH2 0x28F3 JUMPI RETURNDATASIZE PUSH0 DUP1 RETURNDATACOPY RETURNDATASIZE PUSH0 REVERT JUMPDEST POP POP POP POP PUSH1 0x40 MLOAD RETURNDATASIZE PUSH0 DUP3 RETURNDATACOPY PUSH1 0x1F RETURNDATASIZE SWAP1 DUP2 ADD PUSH32 0xFFFFFFFFFFFFFFFFFFFFFFFFFFFFFFFFFFFFFFFFFFFFFFFFFFFFFFFFFFFFFFE0 AND DUP3 ADD PUSH1 0x40 MSTORE PUSH2 0x2938 SWAP2 SWAP1 DUP2 ADD SWAP1 PUSH2 0x4591 JUMP JUMPDEST PUSH1 0x80 ADD MLOAD SWAP3 SWAP2 POP POP JUMP JUMPDEST PUSH1 0x6 SLOAD PUSH20 0xFFFFFFFFFFFFFFFFFFFFFFFFFFFFFFFFFFFFFFFF AND CALLER EQ PUSH2 0x29C3 JUMPI PUSH1 0x40 MLOAD PUSH32 0x8C379A000000000000000000000000000000000000000000000000000000000 DUP2 MSTORE PUSH1 0x20 PUSH1 0x4 DUP3 ADD MSTORE PUSH1 0xB PUSH1 0x24 DUP3 ADD MSTORE PUSH32 0x4F6E6C79206F7261636C65000000000000000000000000000000000000000000 PUSH1 0x44 DUP3 ADD MSTORE PUSH1 0x64 ADD PUSH2 0xA44 JUMP JUMPDEST PUSH2 0x29CB PUSH2 0x3A85 JUMP JUMPDEST PUSH1 0x13 SLOAD PUSH0 SWAP1 DUP2 MSTORE PUSH1 0x14 PUSH1 0x20 MSTORE PUSH1 0x40 DUP2 KECCAK256 PUSH1 0x1 ADD SLOAD PUSH1 0xFF AND PUSH1 0x5 DUP2 GT ISZERO PUSH2 0x29F3 JUMPI PUSH2 0x29F3 PUSH2 0x3E49 JUMP JUMPDEST EQ DUP1 PUSH2 0x2A26 JUMPI POP PUSH1 0x4 PUSH1 0x13 SLOAD PUSH0 SWAP1 DUP2 MSTORE PUSH1 0x14 PUSH1 0x20 MSTORE PUSH1 0x40 SWAP1 KECCAK256 PUSH1 0x1 ADD SLOAD PUSH1 0xFF AND PUSH1 0x5 DUP2 GT ISZERO PUSH2 0x2A24 JUMPI PUSH2 0x2A24 PUSH2 0x3E49 JUMP JUMPDEST EQ JUMPDEST DUP1 PUSH2 0x2A58 JUMPI POP PUSH1 0x5 PUSH1 0x13 SLOAD PUSH0 SWAP1 DUP2 MSTORE PUSH1 0x14 PUSH1 0x20 MSTORE PUSH1 0x40 SWAP1 KECCAK256 PUSH1 0x1 ADD SLOAD PUSH1 0xFF AND PUSH1 0x5 DUP2 GT ISZERO PUSH2 0x2A56 JUMPI PUSH2 0x2A56 PUSH2 0x3E49 JUMP JUMPDEST EQ JUMPDEST PUSH2 0x2ABE JUMPI PUSH1 0x40 MLOAD PUSH32 0x8C379A000000000000000000000000000000000000000000000000000000000 DUP2 MSTORE PUSH1 0x20 PUSH1 0x4 DUP3 ADD MSTORE PUSH1 0x15 PUSH1 0x24 DUP3 ADD MSTORE PUSH32 0x5072657620726F756E64206E6F7420636C6F7365640000000000000000000000 PUSH1 0x44 DUP3 ADD MSTORE PUSH1 0x64 ADD PUSH2 0xA44 JUMP JUMPDEST PUSH0 DUP2 DUP2 MSTORE PUSH1 0x1B PUSH1 0x20 MSTORE PUSH1 0x40 SWAP1 KECCAK256 SLOAD PUSH1 0xFF AND ISZERO PUSH2 0x2B36 JUMPI PUSH1 0x40 MLOAD PUSH32 0x8C379A000000000000000000000000000000000000000000000000000000000 DUP2 MSTORE PUSH1 0x20 PUSH1 0x4 DUP3 ADD MSTORE PUSH1 0x11 PUSH1 0x24 DUP3 ADD MSTORE PUSH32 0x4861736820616C72656164792075736564000000000000000000000000000000 PUSH1 0x44 DUP3 ADD MSTORE PUSH1 0x64 ADD PUSH2 0xA44 JUMP JUMPDEST PUSH0 DUP2 DUP2 MSTORE PUSH1 0x1B PUSH1 0x20 MSTORE PUSH1 0x40 DUP2 KECCAK256 DUP1 SLOAD PUSH32 0xFFFFFFFFFFFFFFFFFFFFFFFFFFFFFFFFFFFFFFFFFFFFFFFFFFFFFFFFFFFFFF00 AND PUSH1 0x1 OR SWAP1 SSTORE PUSH1 0x13 DUP1 SLOAD SWAP2 PUSH2 0x2B7A DUP4 PUSH2 0x448C JUMP JUMPDEST SWAP1 SWAP2 SSTORE POP POP PUSH1 0x13 SLOAD PUSH0 DUP2 DUP2 MSTORE PUSH1 0x14 PUSH1 0x20 DUP2 DUP2 MSTORE PUSH1 0x40 DUP1 DUP5 KECCAK256 DUP2 MLOAD PUSH2 0x160 DUP2 ADD DUP4 MSTORE DUP7 DUP2 MSTORE PUSH1 0x2 DUP2 DUP6 ADD SWAP1 DUP2 MSTORE TIMESTAMP SWAP4 DUP3 ADD SWAP4 SWAP1 SWAP4 MSTORE PUSH1 0x60 DUP2 ADD DUP7 SWAP1 MSTORE PUSH1 0x4 DUP3 ADD SLOAD PUSH1 0x80 DUP3 ADD MSTORE PUSH1 0xA0 DUP2 ADD DUP7 SWAP1 MSTORE PUSH1 0x6 DUP3 ADD SLOAD PUSH1 0xC0 DUP3 ADD MSTORE PUSH1 0xE0 DUP2 ADD DUP7 SWAP1 MSTORE PUSH2 0x100 DUP2 ADD DUP7 SWAP1 MSTORE PUSH2 0x120 DUP2 ADD DUP9 SWAP1 MSTORE PUSH2 0x140 DUP2 ADD DUP7 SWAP1 MSTORE SWAP5 DUP7 SWAP1 MSTORE SWAP3 SWAP1 SWAP2 MSTORE DUP3 MLOAD DUP3 SSTORE MLOAD PUSH1 0x1 DUP1 DUP4 ADD DUP1 SLOAD SWAP4 SWAP5 SWAP4 DUP6 SWAP4 SWAP3 PUSH32 0xFFFFFFFFFFFFFFFFFFFFFFFFFFFFFFFFFFFFFFFFFFFFFFFFFFFFFFFFFFFFFF00 SWAP2 SWAP1 SWAP2 AND SWAP1 DUP4 PUSH1 0x5 DUP2 GT ISZERO PUSH2 0x2C41 JUMPI PUSH2 0x2C41 PUSH2 0x3E49 JUMP JUMPDEST MUL OR SWAP1 SSTORE POP PUSH1 0x40 DUP3 ADD MLOAD PUSH1 0x2 DUP3 ADD SSTORE PUSH1 0x60 DUP3 ADD MLOAD PUSH1 0x3 DUP3 ADD SSTORE PUSH1 0x80 DUP3 ADD MLOAD PUSH1 0x4 DUP3 ADD SSTORE PUSH1 0xA0 DUP3 ADD MLOAD PUSH1 0x5 DUP3 ADD SSTORE PUSH1 0xC0 DUP3 ADD MLOAD PUSH1 0x6 DUP3 ADD SSTORE PUSH1 0xE0 DUP3 ADD MLOAD PUSH1 0x7 DUP3 ADD SSTORE PUSH2 0x100 DUP3 ADD MLOAD PUSH1 0x8 DUP3 ADD SSTORE PUSH2 0x120 DUP3 ADD MLOAD PUSH1 0x9 DUP3 ADD SSTORE PUSH2 0x140 SWAP1 SWAP2 ADD MLOAD PUSH1 0xA SWAP1 SWAP2 ADD SSTORE PUSH1 0x1 PUSH1 0x14 PUSH0 PUSH2 0x2CB4 DUP6 DUP5 PUSH2 0x432A JUMP JUMPDEST DUP2 MSTORE PUSH1 0x20 ADD SWAP1 DUP2 MSTORE PUSH1 0x20 ADD PUSH0 KECCAK256 PUSH1 0x1 ADD PUSH0 PUSH2 0x100 EXP DUP2 SLOAD DUP2 PUSH1 0xFF MUL NOT AND SWAP1 DUP4 PUSH1 0x5 DUP2 GT ISZERO PUSH2 0x2CE4 JUMPI PUSH2 0x2CE4 PUSH2 0x3E49 JUMP JUMPDEST MUL OR SWAP1 SSTORE POP PUSH1 0x40 DUP1 MLOAD DUP4 DUP2 MSTORE PUSH1 0x20 DUP2 ADD DUP6 SWAP1 MSTORE PUSH32 0x3357C3C0655880285DC537CFE8D4510DD2641D10C070E47478E726BB67DD2439 SWAP2 ADD PUSH1 0x40 MLOAD DUP1 SWAP2 SUB SWAP1 LOG1 POP POP PUSH2 0x1710 PUSH1 0x1 PUSH0 SSTORE JUMP JUMPDEST PUSH20 0xFFFFFFFFFFFFFFFFFFFFFFFFFFFFFFFFFFFFFFFF DUP1 DUP5 AND PUSH0 DUP2 DUP2 MSTORE PUSH1 0xC PUSH1 0x20 SWAP1 DUP2 MSTORE PUSH1 0x40 SWAP2 DUP3 SWAP1 KECCAK256 DUP3 MLOAD PUSH1 0xC0 DUP2 ADD DUP5 MSTORE DUP2 SLOAD SWAP1 SWAP6 AND DUP1 DUP7 MSTORE PUSH1 0x1 DUP3 ADD SLOAD SWAP3 DUP7 ADD SWAP3 SWAP1 SWAP3 MSTORE PUSH1 0x2 DUP2 ADD SLOAD SWAP3 DUP6 ADD SWAP3 SWAP1 SWAP3 MSTORE PUSH1 0x3 DUP3 ADD SLOAD PUSH1 0x60 DUP6 DUP2 ADD SWAP2 SWAP1 SWAP2 MSTORE PUSH1 0x4 DUP4 ADD SLOAD PUSH1 0x80 DUP7 ADD MSTORE PUSH1 0x5 SWAP1 SWAP3 ADD SLOAD PUSH1 0xA0 DUP6 ADD MSTORE SWAP1 SWAP3 DUP4 SWAP3 DUP4 SWAP3 DUP4 SWAP3 SWAP2 SWAP1 SUB PUSH2 0x32BB JUMPI DUP1 PUSH1 0x80 ADD MLOAD DUP8 GT ISZERO PUSH2 0x2E6B JUMPI PUSH1 0x40 DUP1 MLOAD PUSH0 DUP1 DUP3 MSTORE PUSH1 0x20 DUP3 ADD SWAP1 SWAP3 MSTORE SWAP1 PUSH2 0x2E3E JUMP JUMPDEST PUSH2 0x2E2B PUSH1 0x40 DUP1 MLOAD PUSH2 0x160 DUP2 ADD SWAP1 SWAP2 MSTORE PUSH0 DUP1 DUP3 MSTORE PUSH1 0x20 DUP3 ADD SWAP1 DUP2 MSTORE PUSH1 0x20 ADD PUSH0 DUP2 MSTORE PUSH1 0x20 ADD PUSH0 DUP2 MSTORE PUSH1 0x20 ADD PUSH0 DUP2 MSTORE PUSH1 0x20 ADD PUSH0 DUP2 MSTORE PUSH1 0x20 ADD PUSH0 DUP2 MSTORE PUSH1 0x20 ADD PUSH0 DUP2 MSTORE PUSH1 0x20 ADD PUSH0 DUP2 MSTORE PUSH1 0x20 ADD PUSH0 DUP1 NOT AND DUP2 MSTORE PUSH1 0x20 ADD PUSH0 DUP1 NOT AND DUP2 MSTORE POP SWAP1 JUMP JUMPDEST DUP2 MSTORE PUSH1 0x20 ADD SWAP1 PUSH1 0x1 SWAP1 SUB SWAP1 DUP2 PUSH2 0x2DD1 JUMPI SWAP1 POP JUMPDEST POP PUSH1 0x40 DUP1 MLOAD PUSH0 DUP1 DUP3 MSTORE PUSH1 0x20 DUP3 ADD DUP2 DUP2 MSTORE DUP3 DUP5 ADD SWAP2 DUP3 MSTORE PUSH1 0x60 DUP4 ADD SWAP1 SWAP4 MSTORE SWAP3 SWAP8 POP SWAP6 POP SWAP4 POP SWAP2 POP PUSH2 0x2763 SWAP1 POP JUMP JUMPDEST DUP7 ISZERO DUP1 ISZERO PUSH2 0x2E77 JUMPI POP DUP6 ISZERO JUMPDEST ISZERO PUSH2 0x2E84 JUMPI DUP1 PUSH1 0x80 ADD MLOAD SWAP6 POP JUMPDEST PUSH1 0x80 DUP2 ADD MLOAD PUSH2 0x2E93 DUP8 DUP10 PUSH2 0x432A JUMP JUMPDEST GT ISZERO PUSH2 0x2EAC JUMPI DUP7 DUP2 PUSH1 0x80 ADD MLOAD PUSH2 0x2EA9 SWAP2 SWAP1 PUSH2 0x433D JUMP JUMPDEST SWAP6 POP JUMPDEST DUP6 PUSH8 0xFFFFFFFFFFFFFFFF DUP2 GT ISZERO PUSH2 0x2EC5 JUMPI PUSH2 0x2EC5 PUSH2 0x3F9B JUMP JUMPDEST PUSH1 0x40 MLOAD SWAP1 DUP1 DUP3 MSTORE DUP1 PUSH1 0x20 MUL PUSH1 0x20 ADD DUP3 ADD PUSH1 0x40 MSTORE DUP1 ISZERO PUSH2 0x2F50 JUMPI DUP2 PUSH1 0x20 ADD JUMPDEST PUSH2 0x2F3D PUSH1 0x40 DUP1 MLOAD PUSH2 0x160 DUP2 ADD SWAP1 SWAP2 MSTORE PUSH0 DUP1 DUP3 MSTORE PUSH1 0x20 DUP3 ADD SWAP1 DUP2 MSTORE PUSH1 0x20 ADD PUSH0 DUP2 MSTORE PUSH1 0x20 ADD PUSH0 DUP2 MSTORE PUSH1 0x20 ADD PUSH0 DUP2 MSTORE PUSH1 0x20 ADD PUSH0 DUP2 MSTORE PUSH1 0x20 ADD PUSH0 DUP2 MSTORE PUSH1 0x20 ADD PUSH0 DUP2 MSTORE PUSH1 0x20 ADD PUSH0 DUP2 MSTORE PUSH1 0x20 ADD PUSH0 DUP1 NOT AND DUP2 MSTORE PUSH1 0x20 ADD PUSH0 DUP1 NOT AND DUP2 MSTORE POP SWAP1 JUMP JUMPDEST DUP2 MSTORE PUSH1 0x20 ADD SWAP1 PUSH1 0x1 SWAP1 SUB SWAP1 DUP2 PUSH2 0x2EE3 JUMPI SWAP1 POP JUMPDEST POP SWAP5 POP DUP6 PUSH8 0xFFFFFFFFFFFFFFFF DUP2 GT ISZERO PUSH2 0x2F6C JUMPI PUSH2 0x2F6C PUSH2 0x3F9B JUMP JUMPDEST PUSH1 0x40 MLOAD SWAP1 DUP1 DUP3 MSTORE DUP1 PUSH1 0x20 MUL PUSH1 0x20 ADD DUP3 ADD PUSH1 0x40 MSTORE DUP1 ISZERO PUSH2 0x2F95 JUMPI DUP2 PUSH1 0x20 ADD PUSH1 0x20 DUP3 MUL DUP1 CALLDATASIZE DUP4 CALLDATACOPY ADD SWAP1 POP JUMPDEST POP SWAP4 POP DUP6 PUSH8 0xFFFFFFFFFFFFFFFF DUP2 GT ISZERO PUSH2 0x2FB1 JUMPI PUSH2 0x2FB1 PUSH2 0x3F9B JUMP JUMPDEST PUSH1 0x40 MLOAD SWAP1 DUP1 DUP3 MSTORE DUP1 PUSH1 0x20 MUL PUSH1 0x20 ADD DUP3 ADD PUSH1 0x40 MSTORE DUP1 ISZERO PUSH2 0x2FDA JUMPI DUP2 PUSH1 0x20 ADD PUSH1 0x20 DUP3 MUL DUP1 CALLDATASIZE DUP4 CALLDATACOPY ADD SWAP1 POP JUMPDEST POP SWAP3 POP DUP6 PUSH8 0xFFFFFFFFFFFFFFFF DUP2 GT ISZERO PUSH2 0x2FF6 JUMPI PUSH2 0x2FF6 PUSH2 0x3F9B JUMP JUMPDEST PUSH1 0x40 MLOAD SWAP1 DUP1 DUP3 MSTORE DUP1 PUSH1 0x20 MUL PUSH1 0x20 ADD DUP3 ADD PUSH1 0x40 MSTORE DUP1 ISZERO PUSH2 0x301F JUMPI DUP2 PUSH1 0x20 ADD PUSH1 0x20 DUP3 MUL DUP1 CALLDATASIZE DUP4 CALLDATACOPY ADD SWAP1 POP JUMPDEST POP SWAP2 POP PUSH0 JUMPDEST DUP7 DUP2 LT ISZERO PUSH2 0x32B4 JUMPI PUSH0 PUSH1 0x10 PUSH0 DUP5 PUSH1 0x20 ADD MLOAD DUP2 MSTORE PUSH1 0x20 ADD SWAP1 DUP2 MSTORE PUSH1 0x20 ADD PUSH0 KECCAK256 PUSH0 PUSH1 0x1 DUP12 DUP6 DUP8 PUSH1 0x80 ADD MLOAD PUSH2 0x3056 SWAP2 SWAP1 PUSH2 0x433D JUMP JUMPDEST PUSH2 0x3060 SWAP2 SWAP1 PUSH2 0x433D JUMP JUMPDEST PUSH2 0x306A SWAP2 SWAP1 PUSH2 0x433D JUMP JUMPDEST DUP2 MSTORE PUSH1 0x20 DUP1 DUP3 ADD SWAP3 SWAP1 SWAP3 MSTORE PUSH1 0x40 SWAP1 DUP2 ADD PUSH0 SWAP1 DUP2 KECCAK256 SLOAD DUP1 DUP3 MSTORE PUSH1 0x14 DUP5 MSTORE DUP3 DUP3 KECCAK256 DUP4 MLOAD PUSH2 0x160 DUP2 ADD SWAP1 SWAP5 MSTORE DUP1 SLOAD DUP5 MSTORE PUSH1 0x1 DUP2 ADD SLOAD SWAP2 SWAP6 POP SWAP2 SWAP4 DUP4 ADD SWAP1 PUSH1 0xFF AND PUSH1 0x5 DUP2 GT ISZERO PUSH2 0x30B8 JUMPI PUSH2 0x30B8 PUSH2 0x3E49 JUMP JUMPDEST PUSH1 0x5 DUP2 GT ISZERO PUSH2 0x30C9 JUMPI PUSH2 0x30C9 PUSH2 0x3E49 JUMP JUMPDEST DUP2 MSTORE PUSH1 0x2 DUP3 ADD SLOAD PUSH1 0x20 DUP1 DUP4 ADD SWAP2 SWAP1 SWAP2 MSTORE PUSH1 0x3 DUP4 ADD SLOAD PUSH1 0x40 DUP1 DUP5 ADD SWAP2 SWAP1 SWAP2 MSTORE PUSH1 0x4 DUP5 ADD SLOAD PUSH1 0x60 DUP5 ADD MSTORE PUSH1 0x5 DUP5 ADD SLOAD PUSH1 0x80 DUP5 ADD MSTORE PUSH1 0x6 DUP5 ADD SLOAD PUSH1 0xA0 DUP5 ADD MSTORE PUSH1 0x7 DUP5 ADD SLOAD PUSH1 0xC0 DUP5 ADD MSTORE PUSH1 0x8 DUP5 ADD SLOAD PUSH1 0xE0 DUP5 ADD MSTORE PUSH1 0x9 DUP5 ADD SLOAD PUSH2 0x100 DUP5 ADD MSTORE PUSH1 0xA SWAP1 SWAP4 ADD SLOAD PUSH2 0x120 SWAP1 SWAP3 ADD SWAP2 SWAP1 SWAP2 MSTORE PUSH0 DUP6 DUP2 MSTORE PUSH1 0x15 DUP3 MSTORE DUP3 DUP2 KECCAK256 PUSH1 0x16 DUP4 MSTORE DUP4 DUP3 KECCAK256 DUP10 DUP5 ADD MLOAD DUP4 MSTORE DUP4 MSTORE DUP4 DUP3 KECCAK256 SLOAD DUP3 MSTORE DUP3 MSTORE DUP3 SWAP1 KECCAK256 DUP3 MLOAD DUP1 DUP5 ADD SWAP1 SWAP4 MSTORE DUP1 SLOAD PUSH20 0xFFFFFFFFFFFFFFFFFFFFFFFFFFFFFFFFFFFFFFFF AND DUP4 MSTORE PUSH1 0x1 ADD SLOAD SWAP1 DUP3 ADD MSTORE DUP10 MLOAD SWAP2 SWAP3 POP SWAP1 DUP3 SWAP1 DUP11 SWAP1 DUP7 SWAP1 DUP2 LT PUSH2 0x319D JUMPI PUSH2 0x319D PUSH2 0x4350 JUMP JUMPDEST PUSH1 0x20 MUL PUSH1 0x20 ADD ADD DUP2 SWAP1 MSTORE POP DUP1 PUSH1 0x20 ADD MLOAD DUP9 DUP6 DUP2 MLOAD DUP2 LT PUSH2 0x31BF JUMPI PUSH2 0x31BF PUSH2 0x4350 JUMP JUMPDEST PUSH1 0x20 SWAP1 DUP2 MUL SWAP2 SWAP1 SWAP2 ADD DUP2 ADD SWAP2 SWAP1 SWAP2 MSTORE PUSH0 DUP5 DUP2 MSTORE PUSH1 0x1A DUP3 MSTORE PUSH1 0x40 DUP1 DUP3 KECCAK256 DUP9 DUP5 ADD MLOAD DUP4 MSTORE SWAP1 SWAP3 MSTORE KECCAK256 SLOAD PUSH1 0xFF AND ISZERO PUSH2 0x32A9 JUMPI PUSH0 DUP4 DUP2 MSTORE PUSH1 0x18 PUSH1 0x20 SWAP1 DUP2 MSTORE PUSH1 0x40 DUP1 DUP4 KECCAK256 PUSH1 0x19 DUP4 MSTORE DUP2 DUP5 KECCAK256 DUP10 DUP5 ADD MLOAD DUP6 MSTORE DUP4 MSTORE DUP2 DUP5 KECCAK256 SLOAD DUP5 MSTORE DUP3 MSTORE SWAP2 DUP3 SWAP1 KECCAK256 DUP3 MLOAD DUP1 DUP5 ADD SWAP1 SWAP4 MSTORE DUP1 SLOAD PUSH20 0xFFFFFFFFFFFFFFFFFFFFFFFFFFFFFFFFFFFFFFFF AND DUP4 MSTORE PUSH1 0x1 ADD SLOAD DUP3 DUP3 ADD DUP2 SWAP1 MSTORE SWAP1 DUP4 ADD MLOAD PUSH8 0xDE0B6B3A7640000 SWAP2 PUSH2 0x325C SWAP2 PUSH2 0x4532 JUMP JUMPDEST PUSH2 0x3266 SWAP2 SWAP1 PUSH2 0x4549 JUMP JUMPDEST DUP9 DUP7 DUP2 MLOAD DUP2 LT PUSH2 0x3278 JUMPI PUSH2 0x3278 PUSH2 0x4350 JUMP JUMPDEST PUSH1 0x20 MUL PUSH1 0x20 ADD ADD DUP2 DUP2 MSTORE POP POP DUP1 PUSH1 0x20 ADD MLOAD DUP8 DUP7 DUP2 MLOAD DUP2 LT PUSH2 0x329B JUMPI PUSH2 0x329B PUSH2 0x4350 JUMP JUMPDEST PUSH1 0x20 MUL PUSH1 0x20 ADD ADD DUP2 DUP2 MSTORE POP POP POP JUMPDEST POP POP POP PUSH1 0x1 ADD PUSH2 0x3024 JUMP JUMPDEST POP POP PUSH2 0x2763 JUMP JUMPDEST PUSH1 0x40 DUP1 MLOAD PUSH0 DUP1 DUP3 MSTORE PUSH1 0x20 DUP3 ADD SWAP1 SWAP3 MSTORE SWAP1 PUSH2 0x333D JUMP JUMPDEST PUSH2 0x332A PUSH1 0x40 DUP1 MLOAD PUSH2 0x160 DUP2 ADD SWAP1 SWAP2 MSTORE PUSH0 DUP1 DUP3 MSTORE PUSH1 0x20 DUP3 ADD SWAP1 DUP2 MSTORE PUSH1 0x20 ADD PUSH0 DUP2 MSTORE PUSH1 0x20 ADD PUSH0 DUP2 MSTORE PUSH1 0x20 ADD PUSH0 DUP2 MSTORE PUSH1 0x20 ADD PUSH0 DUP2 MSTORE PUSH1 0x20 ADD PUSH0 DUP2 MSTORE PUSH1 0x20 ADD PUSH0 DUP2 MSTORE PUSH1 0x20 ADD PUSH0 DUP2 MSTORE PUSH1 0x20 ADD PUSH0 DUP1 NOT AND DUP2 MSTORE PUSH1 0x20 ADD PUSH0 DUP1 NOT AND DUP2 MSTORE POP SWAP1 JUMP JUMPDEST DUP2 MSTORE PUSH1 0x20 ADD SWAP1 PUSH1 0x1 SWAP1 SUB SWAP1 DUP2 PUSH2 0x32D0 JUMPI SWAP1 POP JUMPDEST POP PUSH1 0x40 DUP1 MLOAD PUSH0 DUP1 DUP3 MSTORE PUSH1 0x20 DUP3 ADD DUP2 DUP2 MSTORE DUP3 DUP5 ADD SWAP2 DUP3 MSTORE PUSH1 0x60 DUP4 ADD SWAP1 SWAP4 MSTORE SWAP3 SWAP12 SWAP1 SWAP11 POP SWAP1 SWAP9 POP SWAP1 SWAP7 POP SWAP5 POP POP POP POP POP JUMP JUMPDEST PUSH1 0x6 SLOAD PUSH20 0xFFFFFFFFFFFFFFFFFFFFFFFFFFFFFFFFFFFFFFFF AND CALLER EQ PUSH2 0x33EE JUMPI PUSH1 0x40 MLOAD PUSH32 0x8C379A000000000000000000000000000000000000000000000000000000000 DUP2 MSTORE PUSH1 0x20 PUSH1 0x4 DUP3 ADD MSTORE PUSH1 0xB PUSH1 0x24 DUP3 ADD MSTORE PUSH32 0x4F6E6C79206F7261636C65000000000000000000000000000000000000000000 PUSH1 0x44 DUP3 ADD MSTORE PUSH1 0x64 ADD PUSH2 0xA44 JUMP JUMPDEST PUSH2 0x33F6 PUSH2 0x3A85 JUMP JUMPDEST PUSH1 0x3 PUSH0 DUP6 DUP2 MSTORE PUSH1 0x14 PUSH1 0x20 MSTORE PUSH1 0x40 SWAP1 KECCAK256 PUSH1 0x1 ADD SLOAD PUSH1 0xFF AND PUSH1 0x5 DUP2 GT ISZERO PUSH2 0x341D JUMPI PUSH2 0x341D PUSH2 0x3E49 JUMP JUMPDEST EQ PUSH2 0x3484 JUMPI PUSH1 0x40 MLOAD PUSH32 0x8C379A000000000000000000000000000000000000000000000000000000000 DUP2 MSTORE PUSH1 0x20 PUSH1 0x4 DUP3 ADD MSTORE PUSH1 0xA PUSH1 0x24 DUP3 ADD MSTORE PUSH32 0x4E6F742072756E6E656400000000000000000000000000000000000000000000 PUSH1 0x44 DUP3 ADD MSTORE PUSH1 0x64 ADD PUSH2 0xA44 JUMP JUMPDEST PUSH0 DUP5 DUP2 MSTORE PUSH1 0x14 PUSH1 0x20 MSTORE PUSH1 0x40 SWAP1 KECCAK256 PUSH1 0x9 ADD SLOAD PUSH2 0x34A1 SWAP1 DUP5 SWAP1 DUP5 PUSH2 0x2221 JUMP JUMPDEST PUSH2 0x3507 JUMPI PUSH1 0x40 MLOAD PUSH32 0x8C379A000000000000000000000000000000000000000000000000000000000 DUP2 MSTORE PUSH1 0x20 PUSH1 0x4 DUP3 ADD MSTORE PUSH1 0x14 PUSH1 0x24 DUP3 ADD MSTORE PUSH32 0x4E6F742076616C6964206D756C7469706C696572000000000000000000000000 PUSH1 0x44 DUP3 ADD MSTORE PUSH1 0x64 ADD PUSH2 0xA44 JUMP JUMPDEST PUSH0 DUP5 DUP2 MSTORE PUSH1 0x14 PUSH1 0x20 MSTORE PUSH1 0x40 DUP2 KECCAK256 PUSH1 0x8 DUP2 ADD DUP6 SWAP1 SSTORE PUSH1 0xA DUP2 ADD DUP5 SWAP1 SSTORE PUSH1 0x1 DUP2 ADD DUP1 SLOAD PUSH32 0xFFFFFFFFFFFFFFFFFFFFFFFFFFFFFFFFFFFFFFFFFFFFFFFFFFFFFFFFFFFFFF00 AND PUSH1 0x4 OR SWAP1 SSTORE TIMESTAMP PUSH1 0x3 DUP3 ADD SSTORE SWAP1 DUP1 DUP1 DUP1 JUMPDEST DUP6 MLOAD DUP2 LT ISZERO PUSH2 0x3868 JUMPI PUSH0 PUSH1 0xC PUSH0 DUP9 DUP5 DUP2 MLOAD DUP2 LT PUSH2 0x3579 JUMPI PUSH2 0x3579 PUSH2 0x4350 JUMP JUMPDEST PUSH1 0x20 SWAP1 DUP2 MUL SWAP2 SWAP1 SWAP2 ADD DUP2 ADD MLOAD MLOAD PUSH20 0xFFFFFFFFFFFFFFFFFFFFFFFFFFFFFFFFFFFFFFFF AND DUP3 MSTORE DUP2 DUP2 ADD SWAP3 SWAP1 SWAP3 MSTORE PUSH1 0x40 SWAP1 DUP2 ADD PUSH0 SWAP1 DUP2 KECCAK256 PUSH1 0x1 DUP2 ADD SLOAD DUP15 DUP4 MSTORE PUSH1 0x17 DUP6 MSTORE DUP4 DUP4 KECCAK256 DUP2 DUP5 MSTORE SWAP1 SWAP5 MSTORE SWAP2 SWAP1 KECCAK256 SLOAD SWAP1 SWAP3 POP PUSH1 0xFF AND DUP1 ISZERO PUSH2 0x35F2 JUMPI POP PUSH0 DUP12 DUP2 MSTORE PUSH1 0x1A PUSH1 0x20 SWAP1 DUP2 MSTORE PUSH1 0x40 DUP1 DUP4 KECCAK256 DUP5 DUP5 MSTORE SWAP1 SWAP2 MSTORE SWAP1 KECCAK256 SLOAD PUSH1 0xFF AND ISZERO JUMPDEST ISZERO PUSH2 0x385E JUMPI PUSH0 DUP12 DUP2 MSTORE PUSH1 0x15 PUSH1 0x20 SWAP1 DUP2 MSTORE PUSH1 0x40 DUP1 DUP4 KECCAK256 PUSH1 0x16 DUP4 MSTORE DUP2 DUP5 KECCAK256 DUP6 DUP6 MSTORE DUP4 MSTORE DUP2 DUP5 KECCAK256 SLOAD DUP5 MSTORE SWAP1 SWAP2 MSTORE SWAP1 KECCAK256 PUSH1 0x1 ADD SLOAD PUSH2 0x362C SWAP1 DUP7 PUSH2 0x432A JUMP JUMPDEST PUSH0 DUP13 DUP2 MSTORE PUSH1 0x15 PUSH1 0x20 SWAP1 DUP2 MSTORE PUSH1 0x40 DUP1 DUP4 KECCAK256 PUSH1 0x16 DUP4 MSTORE DUP2 DUP5 KECCAK256 DUP7 DUP6 MSTORE DUP4 MSTORE DUP2 DUP5 KECCAK256 SLOAD DUP5 MSTORE DUP3 MSTORE DUP1 DUP4 KECCAK256 DUP2 MLOAD DUP1 DUP4 ADD SWAP1 SWAP3 MSTORE DUP1 SLOAD PUSH20 0xFFFFFFFFFFFFFFFFFFFFFFFFFFFFFFFFFFFFFFFF AND DUP3 MSTORE PUSH1 0x1 ADD SLOAD SWAP2 DUP2 ADD SWAP2 SWAP1 SWAP2 MSTORE DUP11 MLOAD SWAP3 SWAP8 POP SWAP2 PUSH8 0xDE0B6B3A7640000 SWAP1 DUP12 SWAP1 DUP8 SWAP1 DUP2 LT PUSH2 0x36A2 JUMPI PUSH2 0x36A2 PUSH2 0x4350 JUMP JUMPDEST PUSH1 0x20 MUL PUSH1 0x20 ADD ADD MLOAD PUSH1 0x20 ADD MLOAD DUP4 PUSH1 0x20 ADD MLOAD PUSH2 0x36BD SWAP2 SWAP1 PUSH2 0x4532 JUMP JUMPDEST PUSH2 0x36C7 SWAP2 SWAP1 PUSH2 0x4549 JUMP JUMPDEST SWAP1 POP PUSH2 0x36D3 DUP2 DUP10 PUSH2 0x432A JUMP JUMPDEST SWAP8 POP DUP1 DUP5 PUSH1 0x3 ADD PUSH0 DUP3 DUP3 SLOAD PUSH2 0x36E8 SWAP2 SWAP1 PUSH2 0x432A JUMP JUMPDEST SWAP1 SWAP2 SSTORE POP POP PUSH1 0x2 SLOAD DUP5 SLOAD PUSH1 0x40 MLOAD PUSH32 0x9546717700000000000000000000000000000000000000000000000000000000 DUP2 MSTORE PUSH20 0xFFFFFFFFFFFFFFFFFFFFFFFFFFFFFFFFFFFFFFFF SWAP2 DUP3 AND PUSH1 0x4 DUP3 ADD MSTORE PUSH1 0x24 DUP2 ADD DUP5 SWAP1 MSTORE SWAP2 AND SWAP1 PUSH4 0x95467177 SWAP1 PUSH1 0x44 ADD PUSH0 PUSH1 0x40 MLOAD DUP1 DUP4 SUB DUP2 PUSH0 DUP8 DUP1 EXTCODESIZE ISZERO DUP1 ISZERO PUSH2 0x375F JUMPI PUSH0 DUP1 REVERT JUMPDEST POP GAS CALL ISZERO DUP1 ISZERO PUSH2 0x3771 JUMPI RETURNDATASIZE PUSH0 DUP1 RETURNDATACOPY RETURNDATASIZE PUSH0 REVERT JUMPDEST POP POP POP PUSH0 DUP15 DUP2 MSTORE PUSH1 0x1A PUSH1 0x20 SWAP1 DUP2 MSTORE PUSH1 0x40 DUP1 DUP4 KECCAK256 DUP8 DUP5 MSTORE SWAP1 SWAP2 MSTORE SWAP1 KECCAK256 DUP1 SLOAD PUSH32 0xFFFFFFFFFFFFFFFFFFFFFFFFFFFFFFFFFFFFFFFFFFFFFFFFFFFFFFFFFFFFFF00 AND PUSH1 0x1 OR SWAP1 SSTORE POP DUP10 MLOAD DUP11 SWAP1 DUP7 SWAP1 DUP2 LT PUSH2 0x37CA JUMPI PUSH2 0x37CA PUSH2 0x4350 JUMP JUMPDEST PUSH1 0x20 SWAP1 DUP2 MUL SWAP2 SWAP1 SWAP2 ADD DUP2 ADD MLOAD PUSH0 DUP16 DUP2 MSTORE PUSH1 0x18 DUP4 MSTORE PUSH1 0x40 DUP1 DUP3 KECCAK256 DUP11 DUP4 MSTORE DUP5 MSTORE DUP1 DUP3 KECCAK256 DUP4 MLOAD DUP2 SLOAD PUSH32 0xFFFFFFFFFFFFFFFFFFFFFFFF0000000000000000000000000000000000000000 AND PUSH20 0xFFFFFFFFFFFFFFFFFFFFFFFFFFFFFFFFFFFFFFFF SWAP1 SWAP2 AND OR DUP2 SSTORE SWAP3 DUP5 ADD MLOAD PUSH1 0x1 SWAP1 SWAP4 ADD SWAP3 SWAP1 SWAP3 SSTORE DUP16 DUP2 MSTORE PUSH1 0x19 DUP4 MSTORE DUP2 DUP2 KECCAK256 DUP7 DUP3 MSTORE SWAP1 SWAP3 MSTORE SWAP1 KECCAK256 DUP7 SWAP1 SSTORE DUP6 PUSH2 0x3858 DUP2 PUSH2 0x448C JUMP JUMPDEST SWAP7 POP POP POP POP JUMPDEST POP POP PUSH1 0x1 ADD PUSH2 0x355A JUMP JUMPDEST POP DUP1 PUSH1 0x9 PUSH0 DUP3 DUP3 SLOAD PUSH2 0x387A SWAP2 SWAP1 PUSH2 0x432A JUMP JUMPDEST SWAP3 POP POP DUP2 SWAP1 SSTORE POP DUP3 PUSH1 0xB PUSH0 DUP3 DUP3 SLOAD PUSH2 0x3892 SWAP2 SWAP1 PUSH2 0x432A JUMP JUMPDEST SWAP1 SWAP2 SSTORE POP POP PUSH1 0x7 DUP5 ADD DUP4 SWAP1 SSTORE PUSH1 0x5 DUP5 ADD DUP2 SWAP1 SSTORE PUSH1 0x6 DUP5 ADD SLOAD PUSH0 SWAP1 PUSH2 0x38B7 SWAP1 DUP5 SWAP1 PUSH2 0x433D JUMP JUMPDEST SWAP1 POP DUP1 ISZERO PUSH2 0x393F JUMPI PUSH1 0x2 SLOAD PUSH1 0x40 MLOAD PUSH32 0x2EDCBD6000000000000000000000000000000000000000000000000000000000 DUP2 MSTORE PUSH1 0x4 DUP2 ADD DUP4 SWAP1 MSTORE PUSH20 0xFFFFFFFFFFFFFFFFFFFFFFFFFFFFFFFFFFFFFFFF SWAP1 SWAP2 AND SWAP1 PUSH4 0x2EDCBD60 SWAP1 PUSH1 0x24 ADD PUSH0 PUSH1 0x40 MLOAD DUP1 DUP4 SUB DUP2 PUSH0 DUP8 DUP1 EXTCODESIZE ISZERO DUP1 ISZERO PUSH2 0x3928 JUMPI PUSH0 DUP1 REVERT JUMPDEST POP GAS CALL ISZERO DUP1 ISZERO PUSH2 0x393A JUMPI RETURNDATASIZE PUSH0 DUP1 RETURNDATACOPY RETURNDATASIZE PUSH0 REVERT JUMPDEST POP POP POP POP JUMPDEST PUSH1 0x9 DUP6 ADD SLOAD PUSH1 0x4 DUP7 ADD SLOAD PUSH1 0x6 DUP8 ADD SLOAD PUSH1 0x40 DUP1 MLOAD DUP14 DUP2 MSTORE PUSH1 0x20 DUP2 ADD DUP14 SWAP1 MSTORE DUP1 DUP3 ADD DUP13 SWAP1 MSTORE PUSH1 0x60 DUP2 ADD SWAP5 SWAP1 SWAP5 MSTORE PUSH1 0x80 DUP5 ADD SWAP3 SWAP1 SWAP3 MSTORE PUSH1 0xA0 DUP4 ADD MSTORE PUSH1 0xC0 DUP3 ADD DUP7 SWAP1 MSTORE MLOAD PUSH32 0xEB030656C7EE2589CDFFC41B1300BBE114ECD21972DEC0E8E5A4B5576E433415 SWAP2 DUP2 SWAP1 SUB PUSH1 0xE0 ADD SWAP1 LOG1 POP POP POP POP POP PUSH2 0x39B7 PUSH1 0x1 PUSH0 SSTORE JUMP JUMPDEST POP POP POP POP JUMP JUMPDEST PUSH1 0x7 SLOAD PUSH20 0xFFFFFFFFFFFFFFFFFFFFFFFFFFFFFFFFFFFFFFFF AND CALLER EQ PUSH2 0x3A3E JUMPI PUSH1 0x40 MLOAD PUSH32 0x8C379A000000000000000000000000000000000000000000000000000000000 DUP2 MSTORE PUSH1 0x20 PUSH1 0x4 DUP3 ADD MSTORE PUSH1 0xA PUSH1 0x24 DUP3 ADD MSTORE PUSH32 0x4F6E6C79206F776E657200000000000000000000000000000000000000000000 PUSH1 0x44 DUP3 ADD MSTORE PUSH1 0x64 ADD PUSH2 0xA44 JUMP JUMPDEST PUSH1 0x7 DUP1 SLOAD PUSH32 0xFFFFFFFFFFFFFFFFFFFFFFFF0000000000000000000000000000000000000000 AND PUSH20 0xFFFFFFFFFFFFFFFFFFFFFFFFFFFFFFFFFFFFFFFF SWAP3 SWAP1 SWAP3 AND SWAP2 SWAP1 SWAP2 OR SWAP1 SSTORE JUMP JUMPDEST PUSH1 0x2 PUSH0 SLOAD SUB PUSH2 0x3AF0 JUMPI PUSH1 0x40 MLOAD PUSH32 0x8C379A000000000000000000000000000000000000000000000000000000000 DUP2 MSTORE PUSH1 0x20 PUSH1 0x4 DUP3 ADD MSTORE PUSH1 0x1F PUSH1 0x24 DUP3 ADD MSTORE PUSH32 0x5265656E7472616E637947756172643A207265656E7472616E742063616C6C00 PUSH1 0x44 DUP3 ADD MSTORE PUSH1 0x64 ADD PUSH2 0xA44 JUMP JUMPDEST PUSH1 0x2 PUSH0 SSTORE JUMP JUMPDEST PUSH20 0xFFFFFFFFFFFFFFFFFFFFFFFFFFFFFFFFFFFFFFFF DUP2 AND PUSH0 SWAP1 DUP2 MSTORE PUSH1 0xE PUSH1 0x20 MSTORE PUSH1 0x40 SWAP1 KECCAK256 SLOAD PUSH1 0xFF AND PUSH2 0x1710 JUMPI PUSH1 0xD DUP1 SLOAD SWAP1 PUSH0 PUSH2 0x3B31 DUP4 PUSH2 0x448C JUMP JUMPDEST SWAP1 SWAP2 SSTORE POP POP PUSH1 0xD SLOAD PUSH1 0x40 DUP1 MLOAD PUSH1 0xC0 DUP2 ADD DUP3 MSTORE PUSH20 0xFFFFFFFFFFFFFFFFFFFFFFFFFFFFFFFFFFFFFFFF DUP1 DUP6 AND DUP1 DUP4 MSTORE PUSH1 0x20 DUP1 DUP5 ADD DUP7 DUP2 MSTORE PUSH0 DUP6 DUP8 ADD DUP2 DUP2 MSTORE PUSH1 0x60 DUP8 ADD DUP3 DUP2 MSTORE PUSH1 0x80 DUP9 ADD DUP4 DUP2 MSTORE PUSH1 0xA0 DUP10 ADD DUP5 DUP2 MSTORE DUP8 DUP6 MSTORE PUSH1 0xC DUP8 MSTORE DUP11 DUP6 KECCAK256 SWAP10 MLOAD DUP11 SLOAD SWAP10 AND PUSH32 0xFFFFFFFFFFFFFFFFFFFFFFFF0000000000000000000000000000000000000000 SWAP10 DUP11 AND OR DUP11 SSTORE SWAP5 MLOAD PUSH1 0x1 DUP1 DUP12 ADD SWAP2 SWAP1 SWAP2 SSTORE SWAP3 MLOAD PUSH1 0x2 DUP11 ADD SSTORE SWAP1 MLOAD PUSH1 0x3 DUP10 ADD SSTORE MLOAD PUSH1 0x4 DUP9 ADD SSTORE SWAP2 MLOAD PUSH1 0x5 SWAP1 SWAP7 ADD SWAP6 SWAP1 SWAP6 SSTORE SWAP6 DUP5 MSTORE PUSH1 0xF DUP2 MSTORE DUP5 DUP5 KECCAK256 DUP1 SLOAD SWAP1 SWAP4 AND DUP3 OR SWAP1 SWAP3 SSTORE DUP3 MSTORE PUSH1 0xE SWAP1 MSTORE KECCAK256 DUP1 SLOAD PUSH32 0xFFFFFFFFFFFFFFFFFFFFFFFFFFFFFFFFFFFFFFFFFFFFFFFFFFFFFFFFFFFFFF00 AND SWAP1 SWAP2 OR SWAP1 SSTORE POP JUMP JUMPDEST PUSH0 PUSH1 0x20 DUP3 DUP5 SUB SLT ISZERO PUSH2 0x3C3A JUMPI PUSH0 DUP1 REVERT JUMPDEST POP CALLDATALOAD SWAP2 SWAP1 POP JUMP JUMPDEST PUSH0 DUP1 PUSH1 0x40 DUP4 DUP6 SUB SLT ISZERO PUSH2 0x3C52 JUMPI PUSH0 DUP1 REVERT JUMPDEST POP POP DUP1 CALLDATALOAD SWAP3 PUSH1 0x20 SWAP1 SWAP2 ADD CALLDATALOAD SWAP2 POP JUMP JUMPDEST PUSH0 DUP2 MLOAD DUP1 DUP5 MSTORE PUSH1 0x20 DUP1 DUP6 ADD SWAP5 POP PUSH1 0x20 DUP5 ADD PUSH0 JUMPDEST DUP4 DUP2 LT ISZERO PUSH2 0x3CDA JUMPI DUP2 MLOAD DUP1 MLOAD PUSH20 0xFFFFFFFFFFFFFFFFFFFFFFFFFFFFFFFFFFFFFFFF AND DUP9 MSTORE DUP4 DUP2 ADD MLOAD DUP5 DUP10 ADD MSTORE PUSH1 0x40 DUP1 DUP3 ADD MLOAD SWAP1 DUP10 ADD MSTORE PUSH1 0x60 DUP1 DUP3 ADD MLOAD SWAP1 DUP10 ADD MSTORE PUSH1 0x80 DUP1 DUP3 ADD MLOAD SWAP1 DUP10 ADD MSTORE PUSH1 0xA0 SWAP1 DUP2 ADD MLOAD SWAP1 DUP9 ADD MSTORE PUSH1 0xC0 SWAP1 SWAP7 ADD SWAP6 SWAP1 DUP3 ADD SWAP1 PUSH1 0x1 ADD PUSH2 0x3C74 JUMP JUMPDEST POP SWAP5 SWAP6 SWAP5 POP POP POP POP POP JUMP JUMPDEST PUSH1 0x20 DUP2 MSTORE PUSH0 PUSH2 0x3CF7 PUSH1 0x20 DUP4 ADD DUP5 PUSH2 0x3C61 JUMP JUMPDEST SWAP4 SWAP3 POP POP POP JUMP JUMPDEST PUSH20 0xFFFFFFFFFFFFFFFFFFFFFFFFFFFFFFFFFFFFFFFF DUP2 AND DUP2 EQ PUSH2 0x1710 JUMPI PUSH0 DUP1 REVERT JUMPDEST PUSH0 PUSH1 0x20 DUP3 DUP5 SUB SLT ISZERO PUSH2 0x3D2F JUMPI PUSH0 DUP1 REVERT JUMPDEST DUP2 CALLDATALOAD PUSH2 0x3CF7 DUP2 PUSH2 0x3CFE JUMP JUMPDEST PUSH0 JUMPDEST DUP4 DUP2 LT ISZERO PUSH2 0x3D54 JUMPI DUP2 DUP2 ADD MLOAD DUP4 DUP3 ADD MSTORE PUSH1 0x20 ADD PUSH2 0x3D3C JUMP JUMPDEST POP POP PUSH0 SWAP2 ADD MSTORE JUMP JUMPDEST PUSH0 DUP2 MLOAD DUP1 DUP5 MSTORE PUSH2 0x3D73 DUP2 PUSH1 0x20 DUP7 ADD PUSH1 0x20 DUP7 ADD PUSH2 0x3D3A JUMP JUMPDEST PUSH1 0x1F ADD PUSH32 0xFFFFFFFFFFFFFFFFFFFFFFFFFFFFFFFFFFFFFFFFFFFFFFFFFFFFFFFFFFFFFFE0 AND SWAP3 SWAP1 SWAP3 ADD PUSH1 0x20 ADD SWAP3 SWAP2 POP POP JUMP JUMPDEST PUSH1 0x20 DUP2 MSTORE PUSH20 0xFFFFFFFFFFFFFFFFFFFFFFFFFFFFFFFFFFFFFFFF DUP3 MLOAD AND PUSH1 0x20 DUP3 ADD MSTORE PUSH1 0xFF PUSH1 0x20 DUP4 ADD MLOAD AND PUSH1 0x40 DUP3 ADD MSTORE PUSH0 PUSH1 0x40 DUP4 ADD MLOAD PUSH1 0xC0 PUSH1 0x60 DUP5 ADD MSTORE PUSH2 0x3DED PUSH1 0xE0 DUP5 ADD DUP3 PUSH2 0x3D5C JUMP JUMPDEST SWAP1 POP PUSH1 0x60 DUP5 ADD MLOAD PUSH32 0xFFFFFFFFFFFFFFFFFFFFFFFFFFFFFFFFFFFFFFFFFFFFFFFFFFFFFFFFFFFFFFE0 DUP5 DUP4 SUB ADD PUSH1 0x80 DUP6 ADD MSTORE PUSH2 0x3E28 DUP3 DUP3 PUSH2 0x3D5C JUMP JUMPDEST SWAP2 POP POP PUSH1 0x80 DUP5 ADD MLOAD PUSH1 0xA0 DUP5 ADD MSTORE PUSH1 0xA0 DUP5 ADD MLOAD PUSH1 0xC0 DUP5 ADD MSTORE DUP1 SWAP2 POP POP SWAP3 SWAP2 POP POP JUMP JUMPDEST PUSH32 0x4E487B7100000000000000000000000000000000000000000000000000000000 PUSH0 MSTORE PUSH1 0x21 PUSH1 0x4 MSTORE PUSH1 0x24 PUSH0 REVERT JUMPDEST PUSH1 0x6 DUP2 LT PUSH2 0x3EAB JUMPI PUSH32 0x4E487B7100000000000000000000000000000000000000000000000000000000 PUSH0 MSTORE PUSH1 0x21 PUSH1 0x4 MSTORE PUSH1 0x24 PUSH0 REVERT JUMPDEST SWAP1 MSTORE JUMP JUMPDEST PUSH1 0x20 DUP2 ADD PUSH2 0xC7D DUP3 DUP5 PUSH2 0x3E76 JUMP JUMPDEST PUSH0 DUP1 PUSH1 0x40 DUP4 DUP6 SUB SLT ISZERO PUSH2 0x3ECE JUMPI PUSH0 DUP1 REVERT JUMPDEST DUP3 CALLDATALOAD PUSH2 0x3ED9 DUP2 PUSH2 0x3CFE JUMP JUMPDEST SWAP5 PUSH1 0x20 SWAP4 SWAP1 SWAP4 ADD CALLDATALOAD SWAP4 POP POP POP JUMP JUMPDEST PUSH0 DUP2 MLOAD DUP1 DUP5 MSTORE PUSH1 0x20 DUP1 DUP6 ADD SWAP5 POP PUSH1 0x20 DUP5 ADD PUSH0 JUMPDEST DUP4 DUP2 LT ISZERO PUSH2 0x3CDA JUMPI DUP2 MLOAD DUP1 MLOAD DUP9 MSTORE DUP4 DUP2 ADD MLOAD PUSH2 0x3F18 DUP6 DUP11 ADD DUP3 PUSH2 0x3E76 JUMP JUMPDEST POP PUSH1 0x40 DUP2 DUP2 ADD MLOAD SWAP1 DUP10 ADD MSTORE PUSH1 0x60 DUP1 DUP3 ADD MLOAD SWAP1 DUP10 ADD MSTORE PUSH1 0x80 DUP1 DUP3 ADD MLOAD SWAP1 DUP10 ADD MSTORE PUSH1 0xA0 DUP1 DUP3 ADD MLOAD SWAP1 DUP10 ADD MSTORE PUSH1 0xC0 DUP1 DUP3 ADD MLOAD SWAP1 DUP10 ADD MSTORE PUSH1 0xE0 DUP1 DUP3 ADD MLOAD SWAP1 DUP10 ADD MSTORE PUSH2 0x100 DUP1 DUP3 ADD MLOAD SWAP1 DUP10 ADD MSTORE PUSH2 0x120 DUP1 DUP3 ADD MLOAD SWAP1 DUP10 ADD MSTORE PUSH2 0x140 SWAP1 DUP2 ADD MLOAD SWAP1 DUP9 ADD MSTORE PUSH2 0x160 SWAP1 SWAP7 ADD SWAP6 SWAP1 DUP3 ADD SWAP1 PUSH1 0x1 ADD PUSH2 0x3EFA JUMP JUMPDEST PUSH1 0x20 DUP2 MSTORE PUSH0 PUSH2 0x3CF7 PUSH1 0x20 DUP4 ADD DUP5 PUSH2 0x3EE7 JUMP JUMPDEST PUSH32 0x4E487B7100000000000000000000000000000000000000000000000000000000 PUSH0 MSTORE PUSH1 0x41 PUSH1 0x4 MSTORE PUSH1 0x24 PUSH0 REVERT JUMPDEST PUSH1 0x40 MLOAD PUSH2 0x120 DUP2 ADD PUSH8 0xFFFFFFFFFFFFFFFF DUP2 GT DUP3 DUP3 LT OR ISZERO PUSH2 0x3FEC JUMPI PUSH2 0x3FEC PUSH2 0x3F9B JUMP JUMPDEST PUSH1 0x40 MSTORE SWAP1 JUMP JUMPDEST PUSH1 0x40 MLOAD PUSH1 0x1F DUP3 ADD PUSH32 0xFFFFFFFFFFFFFFFFFFFFFFFFFFFFFFFFFFFFFFFFFFFFFFFFFFFFFFFFFFFFFFE0 AND DUP2 ADD PUSH8 0xFFFFFFFFFFFFFFFF DUP2 GT DUP3 DUP3 LT OR ISZERO PUSH2 0x4039 JUMPI PUSH2 0x4039 PUSH2 0x3F9B JUMP JUMPDEST PUSH1 0x40 MSTORE SWAP2 SWAP1 POP JUMP JUMPDEST PUSH0 PUSH8 0xFFFFFFFFFFFFFFFF DUP1 DUP5 GT ISZERO PUSH2 0x405B JUMPI PUSH2 0x405B PUSH2 0x3F9B JUMP JUMPDEST PUSH1 0x20 PUSH2 0x406C PUSH1 0x20 DUP7 PUSH1 0x5 SHL ADD PUSH2 0x3FF2 JUMP JUMPDEST DUP6 DUP2 MSTORE SWAP3 POP PUSH1 0x20 DUP4 ADD PUSH1 0x6 DUP7 SWAP1 SHL DUP6 ADD DUP8 DUP2 GT ISZERO PUSH2 0x4088 JUMPI PUSH0 DUP1 REVERT JUMPDEST DUP6 JUMPDEST DUP2 DUP2 LT ISZERO PUSH2 0x40E3 JUMPI PUSH1 0x40 DUP1 DUP3 DUP12 SUB SLT ISZERO PUSH2 0x40A2 JUMPI PUSH0 DUP1 REVERT JUMPDEST DUP1 MLOAD DUP2 DUP2 ADD DUP2 DUP2 LT DUP9 DUP3 GT OR ISZERO PUSH2 0x40BB JUMPI PUSH2 0x40BB PUSH2 0x3F9B JUMP JUMPDEST SWAP1 SWAP2 MSTORE DUP2 CALLDATALOAD SWAP1 PUSH2 0x40CA DUP3 PUSH2 0x3CFE JUMP JUMPDEST SWAP1 DUP2 MSTORE DUP2 DUP6 ADD CALLDATALOAD DUP6 DUP3 ADD MSTORE DUP4 MSTORE SWAP2 DUP4 ADD SWAP2 PUSH1 0x40 ADD PUSH2 0x408A JUMP JUMPDEST POP POP POP POP POP SWAP4 SWAP3 POP POP POP JUMP JUMPDEST PUSH0 DUP1 PUSH1 0x40 DUP4 DUP6 SUB SLT ISZERO PUSH2 0x4100 JUMPI PUSH0 DUP1 REVERT JUMPDEST DUP3 CALLDATALOAD SWAP2 POP PUSH1 0x20 DUP4 ADD CALLDATALOAD PUSH8 0xFFFFFFFFFFFFFFFF DUP2 GT ISZERO PUSH2 0x411D JUMPI PUSH0 DUP1 REVERT JUMPDEST DUP4 ADD PUSH1 0x1F DUP2 ADD DUP6 SGT PUSH2 0x412D JUMPI PUSH0 DUP1 REVERT JUMPDEST PUSH2 0x413C DUP6 DUP3 CALLDATALOAD PUSH1 0x20 DUP5 ADD PUSH2 0x4041 JUMP JUMPDEST SWAP2 POP POP SWAP3 POP SWAP3 SWAP1 POP JUMP JUMPDEST DUP12 DUP2 MSTORE PUSH2 0x160 DUP2 ADD PUSH2 0x415B PUSH1 0x20 DUP4 ADD DUP14 PUSH2 0x3E76 JUMP JUMPDEST PUSH1 0x40 DUP3 ADD SWAP11 SWAP1 SWAP11 MSTORE PUSH1 0x60 DUP2 ADD SWAP9 SWAP1 SWAP9 MSTORE PUSH1 0x80 DUP9 ADD SWAP7 SWAP1 SWAP7 MSTORE PUSH1 0xA0 DUP8 ADD SWAP5 SWAP1 SWAP5 MSTORE PUSH1 0xC0 DUP7 ADD SWAP3 SWAP1 SWAP3 MSTORE PUSH1 0xE0 DUP6 ADD MSTORE PUSH2 0x100 DUP5 ADD MSTORE PUSH2 0x120 DUP4 ADD MSTORE PUSH2 0x140 SWAP1 SWAP2 ADD MSTORE SWAP3 SWAP2 POP POP JUMP JUMPDEST PUSH0 DUP1 PUSH0 PUSH1 0x60 DUP5 DUP7 SUB SLT ISZERO PUSH2 0x41B3 JUMPI PUSH0 DUP1 REVERT JUMPDEST POP POP DUP2 CALLDATALOAD SWAP4 PUSH1 0x20 DUP4 ADD CALLDATALOAD SWAP4 POP PUSH1 0x40 SWAP1 SWAP3 ADD CALLDATALOAD SWAP2 SWAP1 POP JUMP JUMPDEST PUSH0 DUP2 MLOAD DUP1 DUP5 MSTORE PUSH1 0x20 DUP1 DUP6 ADD SWAP5 POP PUSH1 0x20 DUP5 ADD PUSH0 JUMPDEST DUP4 DUP2 LT ISZERO PUSH2 0x3CDA JUMPI DUP2 MLOAD DUP8 MSTORE SWAP6 DUP3 ADD SWAP6 SWAP1 DUP3 ADD SWAP1 PUSH1 0x1 ADD PUSH2 0x41DD JUMP JUMPDEST PUSH1 0x80 DUP2 MSTORE PUSH0 PUSH2 0x420B PUSH1 0x80 DUP4 ADD DUP8 PUSH2 0x3C61 JUMP JUMPDEST DUP3 DUP2 SUB PUSH1 0x20 DUP5 ADD MSTORE PUSH2 0x421D DUP2 DUP8 PUSH2 0x41CA JUMP JUMPDEST SWAP1 POP DUP3 DUP2 SUB PUSH1 0x40 DUP5 ADD MSTORE PUSH2 0x4231 DUP2 DUP7 PUSH2 0x41CA JUMP JUMPDEST SWAP1 POP DUP3 DUP2 SUB PUSH1 0x60 DUP5 ADD MSTORE PUSH2 0x4245 DUP2 DUP6 PUSH2 0x41CA JUMP JUMPDEST SWAP8 SWAP7 POP POP POP POP POP POP POP JUMP JUMPDEST PUSH0 DUP1 PUSH0 PUSH1 0x60 DUP5 DUP7 SUB SLT ISZERO PUSH2 0x4262 JUMPI PUSH0 DUP1 REVERT JUMPDEST DUP4 CALLDATALOAD PUSH2 0x426D DUP2 PUSH2 0x3CFE JUMP JUMPDEST SWAP6 PUSH1 0x20 DUP6 ADD CALLDATALOAD SWAP6 POP PUSH1 0x40 SWAP1 SWAP5 ADD CALLDATALOAD SWAP4 SWAP3 POP POP POP JUMP JUMPDEST PUSH1 0x80 DUP2 MSTORE PUSH0 PUSH2 0x420B PUSH1 0x80 DUP4 ADD DUP8 PUSH2 0x3EE7 JUMP JUMPDEST PUSH0 DUP1 PUSH0 DUP1 PUSH1 0x80 DUP6 DUP8 SUB SLT ISZERO PUSH2 0x42A7 JUMPI PUSH0 DUP1 REVERT JUMPDEST DUP5 CALLDATALOAD SWAP4 POP PUSH1 0x20 DUP6 ADD CALLDATALOAD SWAP3 POP PUSH1 0x40 DUP6 ADD CALLDATALOAD SWAP2 POP PUSH1 0x60 DUP6 ADD CALLDATALOAD PUSH8 0xFFFFFFFFFFFFFFFF DUP2 GT ISZERO PUSH2 0x42D2 JUMPI PUSH0 DUP1 REVERT JUMPDEST DUP6 ADD PUSH1 0x1F DUP2 ADD DUP8 SGT PUSH2 0x42E2 JUMPI PUSH0 DUP1 REVERT JUMPDEST PUSH2 0x42F1 DUP8 DUP3 CALLDATALOAD PUSH1 0x20 DUP5 ADD PUSH2 0x4041 JUMP JUMPDEST SWAP2 POP POP SWAP3 SWAP6 SWAP2 SWAP5 POP SWAP3 POP JUMP JUMPDEST PUSH32 0x4E487B7100000000000000000000000000000000000000000000000000000000 PUSH0 MSTORE PUSH1 0x11 PUSH1 0x4 MSTORE PUSH1 0x24 PUSH0 REVERT JUMPDEST DUP1 DUP3 ADD DUP1 DUP3 GT ISZERO PUSH2 0xC7D JUMPI PUSH2 0xC7D PUSH2 0x42FD JUMP JUMPDEST DUP2 DUP2 SUB DUP2 DUP2 GT ISZERO PUSH2 0xC7D JUMPI PUSH2 0xC7D PUSH2 0x42FD JUMP JUMPDEST PUSH32 0x4E487B7100000000000000000000000000000000000000000000000000000000 PUSH0 MSTORE PUSH1 0x32 PUSH1 0x4 MSTORE PUSH1 0x24 PUSH0 REVERT JUMPDEST PUSH0 PUSH1 0x20 DUP3 DUP5 SUB SLT ISZERO PUSH2 0x438D JUMPI PUSH0 DUP1 REVERT JUMPDEST DUP2 MLOAD PUSH1 0xFF DUP2 AND DUP2 EQ PUSH2 0x3CF7 JUMPI PUSH0 DUP1 REVERT JUMPDEST PUSH0 DUP3 PUSH1 0x1F DUP4 ADD SLT PUSH2 0x43AC JUMPI PUSH0 DUP1 REVERT JUMPDEST DUP2 MLOAD PUSH8 0xFFFFFFFFFFFFFFFF DUP2 GT ISZERO PUSH2 0x43C6 JUMPI PUSH2 0x43C6 PUSH2 0x3F9B JUMP JUMPDEST PUSH2 0x43F7 PUSH1 0x20 PUSH32 0xFFFFFFFFFFFFFFFFFFFFFFFFFFFFFFFFFFFFFFFFFFFFFFFFFFFFFFFFFFFFFFE0 PUSH1 0x1F DUP5 ADD AND ADD PUSH2 0x3FF2 JUMP JUMPDEST DUP2 DUP2 MSTORE DUP5 PUSH1 0x20 DUP4 DUP7 ADD ADD GT ISZERO PUSH2 0x440B JUMPI PUSH0 DUP1 REVERT JUMPDEST PUSH2 0x441C DUP3 PUSH1 0x20 DUP4 ADD PUSH1 0x20 DUP8 ADD PUSH2 0x3D3A JUMP JUMPDEST SWAP5 SWAP4 POP POP POP POP JUMP JUMPDEST PUSH0 PUSH1 0x20 DUP3 DUP5 SUB SLT ISZERO PUSH2 0x4434 JUMPI PUSH0 DUP1 REVERT JUMPDEST DUP2 MLOAD PUSH8 0xFFFFFFFFFFFFFFFF DUP2 GT ISZERO PUSH2 0x444A JUMPI PUSH0 DUP1 REVERT JUMPDEST PUSH2 0x441C DUP5 DUP3 DUP6 ADD PUSH2 0x439D JUMP JUMPDEST PUSH0 PUSH1 0x20 DUP3 DUP5 SUB SLT ISZERO PUSH2 0x4466 JUMPI PUSH0 DUP1 REVERT JUMPDEST POP MLOAD SWAP2 SWAP1 POP JUMP JUMPDEST PUSH0 PUSH1 0x20 DUP3 DUP5 SUB SLT ISZERO PUSH2 0x447D JUMPI PUSH0 DUP1 REVERT JUMPDEST DUP2 MLOAD DUP1 ISZERO ISZERO DUP2 EQ PUSH2 0x3CF7 JUMPI PUSH0 DUP1 REVERT JUMPDEST PUSH0 PUSH32 0xFFFFFFFFFFFFFFFFFFFFFFFFFFFFFFFFFFFFFFFFFFFFFFFFFFFFFFFFFFFFFFFF DUP3 SUB PUSH2 0x44BC JUMPI PUSH2 0x44BC PUSH2 0x42FD JUMP JUMPDEST POP PUSH1 0x1 ADD SWAP1 JUMP JUMPDEST PUSH0 PUSH1 0x40 DUP1 DUP4 ADD DUP6 DUP5 MSTORE PUSH1 0x20 PUSH1 0x40 PUSH1 0x20 DUP7 ADD MSTORE DUP2 DUP7 MLOAD DUP1 DUP5 MSTORE PUSH1 0x60 DUP8 ADD SWAP2 POP PUSH1 0x20 DUP9 ADD SWAP4 POP PUSH0 JUMPDEST DUP2 DUP2 LT ISZERO PUSH2 0x4524 JUMPI DUP5 MLOAD DUP1 MLOAD PUSH20 0xFFFFFFFFFFFFFFFFFFFFFFFFFFFFFFFFFFFFFFFF AND DUP5 MSTORE DUP5 ADD MLOAD DUP5 DUP5 ADD MSTORE SWAP4 DUP4 ADD SWAP4 SWAP2 DUP6 ADD SWAP2 PUSH1 0x1 ADD PUSH2 0x44E9 JUMP JUMPDEST POP SWAP1 SWAP9 SWAP8 POP POP POP POP POP POP POP POP JUMP JUMPDEST DUP1 DUP3 MUL DUP2 ISZERO DUP3 DUP3 DIV DUP5 EQ OR PUSH2 0xC7D JUMPI PUSH2 0xC7D PUSH2 0x42FD JUMP JUMPDEST PUSH0 DUP3 PUSH2 0x457C JUMPI PUSH32 0x4E487B7100000000000000000000000000000000000000000000000000000000 PUSH0 MSTORE PUSH1 0x12 PUSH1 0x4 MSTORE PUSH1 0x24 PUSH0 REVERT JUMPDEST POP DIV SWAP1 JUMP JUMPDEST DUP1 MLOAD PUSH2 0x458C DUP2 PUSH2 0x3CFE JUMP JUMPDEST SWAP2 SWAP1 POP JUMP JUMPDEST PUSH0 PUSH1 0x20 DUP3 DUP5 SUB SLT ISZERO PUSH2 0x45A1 JUMPI PUSH0 DUP1 REVERT JUMPDEST DUP2 MLOAD PUSH8 0xFFFFFFFFFFFFFFFF DUP1 DUP3 GT ISZERO PUSH2 0x45B8 JUMPI PUSH0 DUP1 REVERT JUMPDEST SWAP1 DUP4 ADD SWAP1 PUSH2 0x120 DUP3 DUP7 SUB SLT ISZERO PUSH2 0x45CC JUMPI PUSH0 DUP1 REVERT JUMPDEST PUSH2 0x45D4 PUSH2 0x3FC8 JUMP JUMPDEST DUP3 MLOAD DUP2 MSTORE PUSH1 0x20 DUP4 ADD MLOAD DUP3 DUP2 GT ISZERO PUSH2 0x45E9 JUMPI PUSH0 DUP1 REVERT JUMPDEST PUSH2 0x45F5 DUP8 DUP3 DUP7 ADD PUSH2 0x439D JUMP JUMPDEST PUSH1 0x20 DUP4 ADD MSTORE POP PUSH1 0x40 DUP4 ADD MLOAD PUSH1 0x40 DUP3 ADD MSTORE PUSH2 0x4611 PUSH1 0x60 DUP5 ADD PUSH2 0x4581 JUMP JUMPDEST PUSH1 0x60 DUP3 ADD MSTORE PUSH1 0x80 DUP4 ADD MLOAD PUSH1 0x80 DUP3 ADD MSTORE PUSH1 0xA0 DUP4 ADD MLOAD PUSH1 0xA0 DUP3 ADD MSTORE PUSH1 0xC0 DUP4 ADD MLOAD PUSH1 0xC0 DUP3 ADD MSTORE PUSH1 0xE0 DUP4 ADD MLOAD PUSH1 0xE0 DUP3 ADD MSTORE PUSH2 0x100 DUP1 DUP5 ADD MLOAD DUP4 DUP2 GT ISZERO PUSH2 0x4651 JUMPI PUSH0 DUP1 REVERT JUMPDEST PUSH2 0x465D DUP9 DUP3 DUP8 ADD PUSH2 0x439D JUMP JUMPDEST SWAP2 DUP4 ADD SWAP2 SWAP1 SWAP2 MSTORE POP SWAP6 SWAP5 POP POP POP POP POP JUMP INVALID LOG2 PUSH5 0x6970667358 0x22 SLT KECCAK256 MSTORE DIV 0xC9 0xC2 0xBF CALLVALUE 0xDF PUSH17 0xA891F62B58A0B1B831BC22196218861111 KECCAK256 0xF9 0xDF 0x2A 0xD 0x29 JUMP PUSH5 0x736F6C6343 STOP ADDMOD XOR STOP CALLER "
		},
		"gasEstimates": {
			"creation": {
				"codeDepositCost": "3616800",
				"executionCost": "infinite",
				"totalCost": "infinite"
			},
			"external": {
				"PRECISION()": "272",
				"cancelRound(uint256)": "infinite",
				"checkHash(uint256,bytes32,bytes32)": "647",
				"depositManager()": "2380",
				"enterToRound(uint256,(address,uint256)[])": "infinite",
				"finishRound(uint256,uint256,bytes32,(address,uint256)[])": "infinite",
				"gameBank()": "infinite",
				"getCurrentRound()": "2370",
				"getCurrentRoundState()": "4608",
				"getNextRound()": "2492",
				"getPlayerRounds(address,uint256,uint256)": "infinite",
				"getPlayers(uint256,uint256)": "infinite",
				"getRoundPlayers(uint256,uint256,uint256)": "infinite",
				"getRounds(uint256,uint256)": "infinite",
				"getTokenInfo(address)": "infinite",
				"getUserDeposit(address)": "infinite",
				"maxBet()": "2396",
				"maxMultiplier()": "2375",
				"minBet()": "2374",
				"minMultiplier()": "2395",
				"oracle()": "2380",
				"owner()": "2445",
				"pendingRound(bytes32)": "305020",
				"playerExists(address)": "2578",
				"players(address)": "13254",
				"playersCount()": "2395",
				"playersList(uint256)": "2540",
				"playersRounds(uint256,uint256)": "2653",
				"recoverWrongToken(address,uint256)": "infinite",
				"roundCoolDown()": "2372",
				"roundPlayers(uint256,uint256)": "4806",
				"roundPlayersCashOut(uint256,uint256)": "4762",
				"roundPlayersCashOutClaimed(uint256,uint256)": "2610",
				"roundPlayersCashOutIds(uint256,uint256)": "2632",
				"roundPlayersExists(uint256,uint256)": "2632",
				"roundPlayersIds(uint256,uint256)": "2651",
				"rounds(uint256)": "24020",
				"roundsCounter()": "2397",
				"setDepositManager(address)": "26743",
				"setMaxBet(uint256)": "24517",
				"setMaxMultiplier(uint256)": "24520",
				"setMinBet(uint256)": "24539",
				"setMinMultiplier(uint256)": "24540",
				"setOracle(address)": "26764",
				"setRoundCoolDown(uint256)": "24583",
				"startRound(uint256)": "103269",
				"token()": "2422",
				"totalBets()": "2395",
				"totalBetsAmount()": "2394",
				"totalCashOut()": "2352",
				"totalCashOutAmount()": "2351",
				"transferOwnership(address)": "26740",
				"usedHashes(bytes32)": "2558"
			},
			"internal": {
				"registerPlayer(address)": "infinite"
			}
		},
		"methodIdentifiers": {
			"PRECISION()": "aaf5eb68",
			"cancelRound(uint256)": "7e07ab09",
			"checkHash(uint256,bytes32,bytes32)": "9972780a",
			"depositManager()": "6c7ac9d8",
			"enterToRound(uint256,(address,uint256)[])": "62540477",
			"finishRound(uint256,uint256,bytes32,(address,uint256)[])": "f231492d",
			"gameBank()": "c85e3499",
			"getCurrentRound()": "a32bf597",
			"getCurrentRoundState()": "38a50817",
			"getNextRound()": "8011d1ed",
			"getPlayerRounds(address,uint256,uint256)": "cfbd9c95",
			"getPlayers(uint256,uint256)": "0d2dce22",
			"getRoundPlayers(uint256,uint256,uint256)": "a4ab9235",
			"getRounds(uint256,uint256)": "40f74f47",
			"getTokenInfo(address)": "1f69565f",
			"getUserDeposit(address)": "c084b10b",
			"maxBet()": "2e5b2168",
			"maxMultiplier()": "0187aea0",
			"minBet()": "9619367d",
			"minMultiplier()": "a24e0d87",
			"oracle()": "7dc0d1d0",
			"owner()": "8da5cb5b",
			"pendingRound(bytes32)": "cb02c10a",
			"playerExists(address)": "bbe52300",
			"players(address)": "e2eb41ff",
			"playersCount()": "a3f67d6d",
			"playersList(uint256)": "7319b43e",
			"playersRounds(uint256,uint256)": "4aa82380",
			"recoverWrongToken(address,uint256)": "3c28f9ce",
			"roundCoolDown()": "e4a9f192",
			"roundPlayers(uint256,uint256)": "671eea01",
			"roundPlayersCashOut(uint256,uint256)": "91b1db18",
			"roundPlayersCashOutClaimed(uint256,uint256)": "9b29953b",
			"roundPlayersCashOutIds(uint256,uint256)": "13b8ac5e",
			"roundPlayersExists(uint256,uint256)": "bed8840c",
			"roundPlayersIds(uint256,uint256)": "fca8d843",
			"rounds(uint256)": "8c65c81f",
			"roundsCounter()": "034420c4",
			"setDepositManager(address)": "228d71a9",
			"setMaxBet(uint256)": "881eff1e",
			"setMaxMultiplier(uint256)": "01526a43",
			"setMinBet(uint256)": "88ea41b9",
			"setMinMultiplier(uint256)": "9fd751c7",
			"setOracle(address)": "7adbf973",
			"setRoundCoolDown(uint256)": "b32f59f0",
			"startRound(uint256)": "5fc3d52d",
			"token()": "fc0c546a",
			"totalBets()": "befa1e2f",
			"totalBetsAmount()": "efbd7bd2",
			"totalCashOut()": "074e0036",
			"totalCashOutAmount()": "a2791143",
			"transferOwnership(address)": "f2fde38b",
			"usedHashes(bytes32)": "aef18bf7"
		}
	},
	"abi": [
		{
			"inputs": [
				{
					"internalType": "address",
					"name": "_tokenAddress",
					"type": "address"
				},
				{
					"internalType": "address",
					"name": "_depositManager",
					"type": "address"
				}
			],
			"stateMutability": "nonpayable",
			"type": "constructor"
		},
		{
			"anonymous": false,
			"inputs": [
				{
					"indexed": false,
					"internalType": "uint256",
					"name": "roundId",
					"type": "uint256"
				}
			],
			"name": "RoundCanceled",
			"type": "event"
		},
		{
			"anonymous": false,
			"inputs": [
				{
					"indexed": false,
					"internalType": "uint256",
					"name": "roundId",
					"type": "uint256"
				},
				{
					"components": [
						{
							"internalType": "address",
							"name": "playerAddress",
							"type": "address"
						},
						{
							"internalType": "uint256",
							"name": "betAmount",
							"type": "uint256"
						}
					],
					"indexed": false,
					"internalType": "struct GGWorldCrashGame.RoundPlayer[]",
					"name": "players",
					"type": "tuple[]"
				}
			],
			"name": "RoundEntering",
			"type": "event"
		},
		{
			"anonymous": false,
			"inputs": [
				{
					"indexed": false,
					"internalType": "uint256",
					"name": "roundId",
					"type": "uint256"
				},
				{
					"indexed": false,
					"internalType": "uint256",
					"name": "multiplier",
					"type": "uint256"
				},
				{
					"indexed": false,
					"internalType": "bytes32",
					"name": "multiplierSalt",
					"type": "bytes32"
				},
				{
					"indexed": false,
					"internalType": "bytes32",
					"name": "multiplierHash",
					"type": "bytes32"
				},
				{
					"indexed": false,
					"internalType": "uint256",
					"name": "playerCount",
					"type": "uint256"
				},
				{
					"indexed": false,
					"internalType": "uint256",
					"name": "betsAmount",
					"type": "uint256"
				},
				{
					"indexed": false,
					"internalType": "uint256",
					"name": "cashOutAmount",
					"type": "uint256"
				}
			],
			"name": "RoundFinished",
			"type": "event"
		},
		{
			"anonymous": false,
			"inputs": [
				{
					"indexed": false,
					"internalType": "uint256",
					"name": "roundId",
					"type": "uint256"
				},
				{
					"indexed": false,
					"internalType": "bytes32",
					"name": "multiplierHash",
					"type": "bytes32"
				}
			],
			"name": "RoundPending",
			"type": "event"
		},
		{
			"anonymous": false,
			"inputs": [
				{
					"indexed": false,
					"internalType": "uint256",
					"name": "roundId",
					"type": "uint256"
				},
				{
					"indexed": false,
					"internalType": "uint256",
					"name": "playersCount",
					"type": "uint256"
				},
				{
					"indexed": false,
					"internalType": "uint256",
					"name": "betsAmount",
					"type": "uint256"
				}
			],
			"name": "RoundStarted",
			"type": "event"
		},
		{
			"inputs": [],
			"name": "PRECISION",
			"outputs": [
				{
					"internalType": "uint256",
					"name": "",
					"type": "uint256"
				}
			],
			"stateMutability": "view",
			"type": "function"
		},
		{
			"inputs": [
				{
					"internalType": "uint256",
					"name": "roundId",
					"type": "uint256"
				}
			],
			"name": "cancelRound",
			"outputs": [],
			"stateMutability": "nonpayable",
			"type": "function"
		},
		{
			"inputs": [
				{
					"internalType": "uint256",
					"name": "multiplier",
					"type": "uint256"
				},
				{
					"internalType": "bytes32",
					"name": "multiplierHash",
					"type": "bytes32"
				},
				{
					"internalType": "bytes32",
					"name": "multiplierSalt",
					"type": "bytes32"
				}
			],
			"name": "checkHash",
			"outputs": [
				{
					"internalType": "bool",
					"name": "",
					"type": "bool"
				}
			],
			"stateMutability": "pure",
			"type": "function"
		},
		{
			"inputs": [],
			"name": "depositManager",
			"outputs": [
				{
					"internalType": "contract IGGWDeposit",
					"name": "",
					"type": "address"
				}
			],
			"stateMutability": "view",
			"type": "function"
		},
		{
			"inputs": [
				{
					"internalType": "uint256",
					"name": "roundId",
					"type": "uint256"
				},
				{
					"components": [
						{
							"internalType": "address",
							"name": "playerAddress",
							"type": "address"
						},
						{
							"internalType": "uint256",
							"name": "betAmount",
							"type": "uint256"
						}
					],
					"internalType": "struct GGWorldCrashGame.RoundPlayer[]",
					"name": "_players",
					"type": "tuple[]"
				}
			],
			"name": "enterToRound",
			"outputs": [],
			"stateMutability": "nonpayable",
			"type": "function"
		},
		{
			"inputs": [
				{
					"internalType": "uint256",
					"name": "roundId",
					"type": "uint256"
				},
				{
					"internalType": "uint256",
					"name": "multiplier",
					"type": "uint256"
				},
				{
					"internalType": "bytes32",
					"name": "multiplierSalt",
					"type": "bytes32"
				},
				{
					"components": [
						{
							"internalType": "address",
							"name": "playerAddress",
							"type": "address"
						},
						{
							"internalType": "uint256",
							"name": "multiplier",
							"type": "uint256"
						}
					],
					"internalType": "struct GGWorldCrashGame.CashOutPlayer[]",
					"name": "cashOutPlayers",
					"type": "tuple[]"
				}
			],
			"name": "finishRound",
			"outputs": [],
			"stateMutability": "nonpayable",
			"type": "function"
		},
		{
			"inputs": [],
			"name": "gameBank",
			"outputs": [
				{
					"internalType": "uint256",
					"name": "",
					"type": "uint256"
				}
			],
			"stateMutability": "view",
			"type": "function"
		},
		{
			"inputs": [],
			"name": "getCurrentRound",
			"outputs": [
				{
					"internalType": "uint256",
					"name": "",
					"type": "uint256"
				}
			],
			"stateMutability": "view",
			"type": "function"
		},
		{
			"inputs": [],
			"name": "getCurrentRoundState",
			"outputs": [
				{
					"internalType": "enum GGWorldCrashGame.ROUND_STATE",
					"name": "",
					"type": "uint8"
				}
			],
			"stateMutability": "view",
			"type": "function"
		},
		{
			"inputs": [],
			"name": "getNextRound",
			"outputs": [
				{
					"internalType": "uint256",
					"name": "",
					"type": "uint256"
				}
			],
			"stateMutability": "view",
			"type": "function"
		},
		{
			"inputs": [
				{
					"internalType": "address",
					"name": "playerAddress",
					"type": "address"
				},
				{
					"internalType": "uint256",
					"name": "offset",
					"type": "uint256"
				},
				{
					"internalType": "uint256",
					"name": "limit",
					"type": "uint256"
				}
			],
			"name": "getPlayerRounds",
			"outputs": [
				{
					"components": [
						{
							"internalType": "uint256",
							"name": "roundId",
							"type": "uint256"
						},
						{
							"internalType": "enum GGWorldCrashGame.ROUND_STATE",
							"name": "state",
							"type": "uint8"
						},
						{
							"internalType": "uint256",
							"name": "startsIn",
							"type": "uint256"
						},
						{
							"internalType": "uint256",
							"name": "endsIn",
							"type": "uint256"
						},
						{
							"internalType": "uint256",
							"name": "playersCount",
							"type": "uint256"
						},
						{
							"internalType": "uint256",
							"name": "cashOutCount",
							"type": "uint256"
						},
						{
							"internalType": "uint256",
							"name": "betsAmount",
							"type": "uint256"
						},
						{
							"internalType": "uint256",
							"name": "cashOutAmount",
							"type": "uint256"
						},
						{
							"internalType": "uint256",
							"name": "multiplier",
							"type": "uint256"
						},
						{
							"internalType": "bytes32",
							"name": "multiplierHash",
							"type": "bytes32"
						},
						{
							"internalType": "bytes32",
							"name": "multiplierSalt",
							"type": "bytes32"
						}
					],
					"internalType": "struct GGWorldCrashGame.Round[]",
					"name": "ret",
					"type": "tuple[]"
				},
				{
					"internalType": "uint256[]",
					"name": "bets",
					"type": "uint256[]"
				},
				{
					"internalType": "uint256[]",
					"name": "cashouts",
					"type": "uint256[]"
				},
				{
					"internalType": "uint256[]",
					"name": "multipliers",
					"type": "uint256[]"
				}
			],
			"stateMutability": "view",
			"type": "function"
		},
		{
			"inputs": [
				{
					"internalType": "uint256",
					"name": "offset",
					"type": "uint256"
				},
				{
					"internalType": "uint256",
					"name": "limit",
					"type": "uint256"
				}
			],
			"name": "getPlayers",
			"outputs": [
				{
					"components": [
						{
							"internalType": "address",
							"name": "playerAddress",
							"type": "address"
						},
						{
							"internalType": "uint256",
							"name": "playerId",
							"type": "uint256"
						},
						{
							"internalType": "uint256",
							"name": "betsAmount",
							"type": "uint256"
						},
						{
							"internalType": "uint256",
							"name": "cashOutAmount",
							"type": "uint256"
						},
						{
							"internalType": "uint256",
							"name": "roundsCount",
							"type": "uint256"
						},
						{
							"internalType": "uint256",
							"name": "currentRoundId",
							"type": "uint256"
						}
					],
					"internalType": "struct GGWorldCrashGame.Player[]",
					"name": "",
					"type": "tuple[]"
				}
			],
			"stateMutability": "view",
			"type": "function"
		},
		{
			"inputs": [
				{
					"internalType": "uint256",
					"name": "roundId",
					"type": "uint256"
				},
				{
					"internalType": "uint256",
					"name": "offset",
					"type": "uint256"
				},
				{
					"internalType": "uint256",
					"name": "limit",
					"type": "uint256"
				}
			],
			"name": "getRoundPlayers",
			"outputs": [
				{
					"components": [
						{
							"internalType": "address",
							"name": "playerAddress",
							"type": "address"
						},
						{
							"internalType": "uint256",
							"name": "playerId",
							"type": "uint256"
						},
						{
							"internalType": "uint256",
							"name": "betsAmount",
							"type": "uint256"
						},
						{
							"internalType": "uint256",
							"name": "cashOutAmount",
							"type": "uint256"
						},
						{
							"internalType": "uint256",
							"name": "roundsCount",
							"type": "uint256"
						},
						{
							"internalType": "uint256",
							"name": "currentRoundId",
							"type": "uint256"
						}
					],
					"internalType": "struct GGWorldCrashGame.Player[]",
					"name": "ret",
					"type": "tuple[]"
				},
				{
					"internalType": "uint256[]",
					"name": "bets",
					"type": "uint256[]"
				},
				{
					"internalType": "uint256[]",
					"name": "multipliers",
					"type": "uint256[]"
				},
				{
					"internalType": "uint256[]",
					"name": "cashoutAmounts",
					"type": "uint256[]"
				}
			],
			"stateMutability": "view",
			"type": "function"
		},
		{
			"inputs": [
				{
					"internalType": "uint256",
					"name": "offset",
					"type": "uint256"
				},
				{
					"internalType": "uint256",
					"name": "limit",
					"type": "uint256"
				}
			],
			"name": "getRounds",
			"outputs": [
				{
					"components": [
						{
							"internalType": "uint256",
							"name": "roundId",
							"type": "uint256"
						},
						{
							"internalType": "enum GGWorldCrashGame.ROUND_STATE",
							"name": "state",
							"type": "uint8"
						},
						{
							"internalType": "uint256",
							"name": "startsIn",
							"type": "uint256"
						},
						{
							"internalType": "uint256",
							"name": "endsIn",
							"type": "uint256"
						},
						{
							"internalType": "uint256",
							"name": "playersCount",
							"type": "uint256"
						},
						{
							"internalType": "uint256",
							"name": "cashOutCount",
							"type": "uint256"
						},
						{
							"internalType": "uint256",
							"name": "betsAmount",
							"type": "uint256"
						},
						{
							"internalType": "uint256",
							"name": "cashOutAmount",
							"type": "uint256"
						},
						{
							"internalType": "uint256",
							"name": "multiplier",
							"type": "uint256"
						},
						{
							"internalType": "bytes32",
							"name": "multiplierHash",
							"type": "bytes32"
						},
						{
							"internalType": "bytes32",
							"name": "multiplierSalt",
							"type": "bytes32"
						}
					],
					"internalType": "struct GGWorldCrashGame.Round[]",
					"name": "",
					"type": "tuple[]"
				}
			],
			"stateMutability": "view",
			"type": "function"
		},
		{
			"inputs": [
				{
					"internalType": "address",
					"name": "playerAddress",
					"type": "address"
				}
			],
			"name": "getTokenInfo",
			"outputs": [
				{
					"components": [
						{
							"internalType": "address",
							"name": "tokenAddress",
							"type": "address"
						},
						{
							"internalType": "uint8",
							"name": "decimals",
							"type": "uint8"
						},
						{
							"internalType": "string",
							"name": "name",
							"type": "string"
						},
						{
							"internalType": "string",
							"name": "symbol",
							"type": "string"
						},
						{
							"internalType": "uint256",
							"name": "balance",
							"type": "uint256"
						},
						{
							"internalType": "uint256",
							"name": "allowance",
							"type": "uint256"
						}
					],
					"internalType": "struct GGWorldCrashGame.GameTokenInfo",
					"name": "",
					"type": "tuple"
				}
			],
			"stateMutability": "view",
			"type": "function"
		},
		{
			"inputs": [
				{
					"internalType": "address",
					"name": "playerAddress",
					"type": "address"
				}
			],
			"name": "getUserDeposit",
			"outputs": [
				{
					"internalType": "uint256",
					"name": "",
					"type": "uint256"
				}
			],
			"stateMutability": "view",
			"type": "function"
		},
		{
			"inputs": [],
			"name": "maxBet",
			"outputs": [
				{
					"internalType": "uint256",
					"name": "",
					"type": "uint256"
				}
			],
			"stateMutability": "view",
			"type": "function"
		},
		{
			"inputs": [],
			"name": "maxMultiplier",
			"outputs": [
				{
					"internalType": "uint256",
					"name": "",
					"type": "uint256"
				}
			],
			"stateMutability": "view",
			"type": "function"
		},
		{
			"inputs": [],
			"name": "minBet",
			"outputs": [
				{
					"internalType": "uint256",
					"name": "",
					"type": "uint256"
				}
			],
			"stateMutability": "view",
			"type": "function"
		},
		{
			"inputs": [],
			"name": "minMultiplier",
			"outputs": [
				{
					"internalType": "uint256",
					"name": "",
					"type": "uint256"
				}
			],
			"stateMutability": "view",
			"type": "function"
		},
		{
			"inputs": [],
			"name": "oracle",
			"outputs": [
				{
					"internalType": "address",
					"name": "",
					"type": "address"
				}
			],
			"stateMutability": "view",
			"type": "function"
		},
		{
			"inputs": [],
			"name": "owner",
			"outputs": [
				{
					"internalType": "address",
					"name": "",
					"type": "address"
				}
			],
			"stateMutability": "view",
			"type": "function"
		},
		{
			"inputs": [
				{
					"internalType": "bytes32",
					"name": "multiplierHash",
					"type": "bytes32"
				}
			],
			"name": "pendingRound",
			"outputs": [],
			"stateMutability": "nonpayable",
			"type": "function"
		},
		{
			"inputs": [
				{
					"internalType": "address",
					"name": "",
					"type": "address"
				}
			],
			"name": "playerExists",
			"outputs": [
				{
					"internalType": "bool",
					"name": "",
					"type": "bool"
				}
			],
			"stateMutability": "view",
			"type": "function"
		},
		{
			"inputs": [
				{
					"internalType": "address",
					"name": "",
					"type": "address"
				}
			],
			"name": "players",
			"outputs": [
				{
					"internalType": "address",
					"name": "playerAddress",
					"type": "address"
				},
				{
					"internalType": "uint256",
					"name": "playerId",
					"type": "uint256"
				},
				{
					"internalType": "uint256",
					"name": "betsAmount",
					"type": "uint256"
				},
				{
					"internalType": "uint256",
					"name": "cashOutAmount",
					"type": "uint256"
				},
				{
					"internalType": "uint256",
					"name": "roundsCount",
					"type": "uint256"
				},
				{
					"internalType": "uint256",
					"name": "currentRoundId",
					"type": "uint256"
				}
			],
			"stateMutability": "view",
			"type": "function"
		},
		{
			"inputs": [],
			"name": "playersCount",
			"outputs": [
				{
					"internalType": "uint256",
					"name": "",
					"type": "uint256"
				}
			],
			"stateMutability": "view",
			"type": "function"
		},
		{
			"inputs": [
				{
					"internalType": "uint256",
					"name": "",
					"type": "uint256"
				}
			],
			"name": "playersList",
			"outputs": [
				{
					"internalType": "address",
					"name": "",
					"type": "address"
				}
			],
			"stateMutability": "view",
			"type": "function"
		},
		{
			"inputs": [
				{
					"internalType": "uint256",
					"name": "",
					"type": "uint256"
				},
				{
					"internalType": "uint256",
					"name": "",
					"type": "uint256"
				}
			],
			"name": "playersRounds",
			"outputs": [
				{
					"internalType": "uint256",
					"name": "",
					"type": "uint256"
				}
			],
			"stateMutability": "view",
			"type": "function"
		},
		{
			"inputs": [
				{
					"internalType": "address",
					"name": "tokenAddress",
					"type": "address"
				},
				{
					"internalType": "uint256",
					"name": "amount",
					"type": "uint256"
				}
			],
			"name": "recoverWrongToken",
			"outputs": [],
			"stateMutability": "nonpayable",
			"type": "function"
		},
		{
			"inputs": [],
			"name": "roundCoolDown",
			"outputs": [
				{
					"internalType": "uint256",
					"name": "",
					"type": "uint256"
				}
			],
			"stateMutability": "view",
			"type": "function"
		},
		{
			"inputs": [
				{
					"internalType": "uint256",
					"name": "",
					"type": "uint256"
				},
				{
					"internalType": "uint256",
					"name": "",
					"type": "uint256"
				}
			],
			"name": "roundPlayers",
			"outputs": [
				{
					"internalType": "address",
					"name": "playerAddress",
					"type": "address"
				},
				{
					"internalType": "uint256",
					"name": "betAmount",
					"type": "uint256"
				}
			],
			"stateMutability": "view",
			"type": "function"
		},
		{
			"inputs": [
				{
					"internalType": "uint256",
					"name": "",
					"type": "uint256"
				},
				{
					"internalType": "uint256",
					"name": "",
					"type": "uint256"
				}
			],
			"name": "roundPlayersCashOut",
			"outputs": [
				{
					"internalType": "address",
					"name": "playerAddress",
					"type": "address"
				},
				{
					"internalType": "uint256",
					"name": "multiplier",
					"type": "uint256"
				}
			],
			"stateMutability": "view",
			"type": "function"
		},
		{
			"inputs": [
				{
					"internalType": "uint256",
					"name": "",
					"type": "uint256"
				},
				{
					"internalType": "uint256",
					"name": "",
					"type": "uint256"
				}
			],
			"name": "roundPlayersCashOutClaimed",
			"outputs": [
				{
					"internalType": "bool",
					"name": "",
					"type": "bool"
				}
			],
			"stateMutability": "view",
			"type": "function"
		},
		{
			"inputs": [
				{
					"internalType": "uint256",
					"name": "",
					"type": "uint256"
				},
				{
					"internalType": "uint256",
					"name": "",
					"type": "uint256"
				}
			],
			"name": "roundPlayersCashOutIds",
			"outputs": [
				{
					"internalType": "uint256",
					"name": "",
					"type": "uint256"
				}
			],
			"stateMutability": "view",
			"type": "function"
		},
		{
			"inputs": [
				{
					"internalType": "uint256",
					"name": "",
					"type": "uint256"
				},
				{
					"internalType": "uint256",
					"name": "",
					"type": "uint256"
				}
			],
			"name": "roundPlayersExists",
			"outputs": [
				{
					"internalType": "bool",
					"name": "",
					"type": "bool"
				}
			],
			"stateMutability": "view",
			"type": "function"
		},
		{
			"inputs": [
				{
					"internalType": "uint256",
					"name": "",
					"type": "uint256"
				},
				{
					"internalType": "uint256",
					"name": "",
					"type": "uint256"
				}
			],
			"name": "roundPlayersIds",
			"outputs": [
				{
					"internalType": "uint256",
					"name": "",
					"type": "uint256"
				}
			],
			"stateMutability": "view",
			"type": "function"
		},
		{
			"inputs": [
				{
					"internalType": "uint256",
					"name": "",
					"type": "uint256"
				}
			],
			"name": "rounds",
			"outputs": [
				{
					"internalType": "uint256",
					"name": "roundId",
					"type": "uint256"
				},
				{
					"internalType": "enum GGWorldCrashGame.ROUND_STATE",
					"name": "state",
					"type": "uint8"
				},
				{
					"internalType": "uint256",
					"name": "startsIn",
					"type": "uint256"
				},
				{
					"internalType": "uint256",
					"name": "endsIn",
					"type": "uint256"
				},
				{
					"internalType": "uint256",
					"name": "playersCount",
					"type": "uint256"
				},
				{
					"internalType": "uint256",
					"name": "cashOutCount",
					"type": "uint256"
				},
				{
					"internalType": "uint256",
					"name": "betsAmount",
					"type": "uint256"
				},
				{
					"internalType": "uint256",
					"name": "cashOutAmount",
					"type": "uint256"
				},
				{
					"internalType": "uint256",
					"name": "multiplier",
					"type": "uint256"
				},
				{
					"internalType": "bytes32",
					"name": "multiplierHash",
					"type": "bytes32"
				},
				{
					"internalType": "bytes32",
					"name": "multiplierSalt",
					"type": "bytes32"
				}
			],
			"stateMutability": "view",
			"type": "function"
		},
		{
			"inputs": [],
			"name": "roundsCounter",
			"outputs": [
				{
					"internalType": "uint256",
					"name": "",
					"type": "uint256"
				}
			],
			"stateMutability": "view",
			"type": "function"
		},
		{
			"inputs": [
				{
					"internalType": "address",
					"name": "newDepositManager",
					"type": "address"
				}
			],
			"name": "setDepositManager",
			"outputs": [],
			"stateMutability": "nonpayable",
			"type": "function"
		},
		{
			"inputs": [
				{
					"internalType": "uint256",
					"name": "amount",
					"type": "uint256"
				}
			],
			"name": "setMaxBet",
			"outputs": [],
			"stateMutability": "nonpayable",
			"type": "function"
		},
		{
			"inputs": [
				{
					"internalType": "uint256",
					"name": "newValue",
					"type": "uint256"
				}
			],
			"name": "setMaxMultiplier",
			"outputs": [],
			"stateMutability": "nonpayable",
			"type": "function"
		},
		{
			"inputs": [
				{
					"internalType": "uint256",
					"name": "amount",
					"type": "uint256"
				}
			],
			"name": "setMinBet",
			"outputs": [],
			"stateMutability": "nonpayable",
			"type": "function"
		},
		{
			"inputs": [
				{
					"internalType": "uint256",
					"name": "newValue",
					"type": "uint256"
				}
			],
			"name": "setMinMultiplier",
			"outputs": [],
			"stateMutability": "nonpayable",
			"type": "function"
		},
		{
			"inputs": [
				{
					"internalType": "address",
					"name": "newOracle",
					"type": "address"
				}
			],
			"name": "setOracle",
			"outputs": [],
			"stateMutability": "nonpayable",
			"type": "function"
		},
		{
			"inputs": [
				{
					"internalType": "uint256",
					"name": "newValue",
					"type": "uint256"
				}
			],
			"name": "setRoundCoolDown",
			"outputs": [],
			"stateMutability": "nonpayable",
			"type": "function"
		},
		{
			"inputs": [
				{
					"internalType": "uint256",
					"name": "roundId",
					"type": "uint256"
				}
			],
			"name": "startRound",
			"outputs": [],
			"stateMutability": "nonpayable",
			"type": "function"
		},
		{
			"inputs": [],
			"name": "token",
			"outputs": [
				{
					"internalType": "contract IERC20",
					"name": "",
					"type": "address"
				}
			],
			"stateMutability": "view",
			"type": "function"
		},
		{
			"inputs": [],
			"name": "totalBets",
			"outputs": [
				{
					"internalType": "uint256",
					"name": "",
					"type": "uint256"
				}
			],
			"stateMutability": "view",
			"type": "function"
		},
		{
			"inputs": [],
			"name": "totalBetsAmount",
			"outputs": [
				{
					"internalType": "uint256",
					"name": "",
					"type": "uint256"
				}
			],
			"stateMutability": "view",
			"type": "function"
		},
		{
			"inputs": [],
			"name": "totalCashOut",
			"outputs": [
				{
					"internalType": "uint256",
					"name": "",
					"type": "uint256"
				}
			],
			"stateMutability": "view",
			"type": "function"
		},
		{
			"inputs": [],
			"name": "totalCashOutAmount",
			"outputs": [
				{
					"internalType": "uint256",
					"name": "",
					"type": "uint256"
				}
			],
			"stateMutability": "view",
			"type": "function"
		},
		{
			"inputs": [
				{
					"internalType": "address",
					"name": "newOwner",
					"type": "address"
				}
			],
			"name": "transferOwnership",
			"outputs": [],
			"stateMutability": "nonpayable",
			"type": "function"
		},
		{
			"inputs": [
				{
					"internalType": "bytes32",
					"name": "",
					"type": "bytes32"
				}
			],
			"name": "usedHashes",
			"outputs": [
				{
					"internalType": "bool",
					"name": "",
					"type": "bool"
				}
			],
			"stateMutability": "view",
			"type": "function"
		}
	]
}