{
	"data": {
		"bytecode": {
			"linkReferences": {},
			"object": "6080604052670de0b6b3a764000060055568056bc75e2d631000006006555f6007555f6008555f6009555f600a555f600b556010600d555f600e555f6012553480156200004a575f80fd5b50604051620068e5380380620068e58339810160408190526200006d9162001096565b60015f81815560048054336001600160a01b031991821617909155825481166001600160a01b038781169190911784556003805483168783161790556002805490921690851617905560408051808201825262055730815281516101e0810183528481526020808201869052928101859052606081018590526080810185905260a0810185905260c0810185905260e08101859052610100810185905261012081018590526101408101859052610160810185905261018081018590526101a081018590526101c0810194909452818101938452918052600c905280517f13649b2456f1b42fef0f0040b3aaeabcd21a76a0f3f5defd4f583839455116e89081559151909190620001a2907f13649b2456f1b42fef0f0040b3aaeabcd21a76a0f3f5defd4f583839455116e990600f62000fce565b50506040805180820182526202dc6c815281516101e08101835260018082526020828101829052938201819052606082018190526080820181905260a082018190525f60c0830181905260e08301819052610100830181905261012083018290526101408301829052610160830182905261018083018290526101a083018290526101c0830182905284840192835252600c90925280517fd421a5181c571bba3f01190c922c3b2a896fc1d84e86c9f17ac10e67ebef8b5c908155915190925062000291907fd421a5181c571bba3f01190c922c3b2a896fc1d84e86c9f17ac10e67ebef8b5d90600f62000fce565b50506040805180820182526201e848815281516101e0810183526001808252602082810182905293820181905260608201819052608082018190525f60a0830181905260c0830182905260e08301819052610100830182905261012083018190526101408301829052610160830182905261018083018290526101a083018290526101c083019190915283830191825260029052600c90925280517f5d6016397a73f5e079297ac5a36fef17b4d9c3831618e63ab105738020ddd720908155915190925062000384907f5d6016397a73f5e079297ac5a36fef17b4d9c3831618e63ab105738020ddd72190600f62000fce565b5050604080518082018252620124f8815281516101e08101835260018082525f6020838101829052948301829052606083018190526080830182905260a0830182905260c0830182905260e08301829052610100830182905261012083018290526101408301829052610160830181905261018083018290526101a083018190526101c083019190915283830191825260039052600c90925280517fc0da782485e77ae272268ae0a3ff44c1552ecb60b3743924de17a815e0a3cfd7908155915190925062000477907fc0da782485e77ae272268ae0a3ff44c1552ecb60b3743924de17a815e0a3cfd890600f62000fce565b505060408051808201825261c350815281516101e0810183526001808252602082810182905293820181905260608201819052608082018190525f60a0830181905260c0830182905260e08301819052610100830182905261012083018190526101408301819052610160830182905261018083018190526101a08301919091526101c0820181905283830191825260049052600c90925280517f5b84bb9e0f5aa9cc45a8bb66468db5d4816d1e75ff86b5e1f1dd8d144dab8097908155915190925062000569907f5b84bb9e0f5aa9cc45a8bb66468db5d4816d1e75ff86b5e1f1dd8d144dab809890600f62000fce565b50506040805180820182526161a8815281516101e08101835260018082526020828101829052938201819052606082018190526080820181905260a0820181905260c0820181905260e0820181905261010082018190526101208201525f6101408201819052610160820181905261018082018190526101a082018190526101c0820181905283830191825260059052600c90925280517f2cd9ebf6ff19cdd7ffcc447d7c7d47b5991f5c7392a04512134e765802361fa6908155915190925062000658907f2cd9ebf6ff19cdd7ffcc447d7c7d47b5991f5c7392a04512134e765802361fa790600f62000fce565b50506040805180820182526161a8815281516101e0810183525f80825260208281018290529382018190526060820181905260808201819052600160a0830181905260c0830181905260e08301819052610100830181905261012083018190526101408301819052610160830181905261018083018190526101a083018190526101c083015283830191825260069052600c90925280517f980f427e00e74f6d338adfccc7468518c8c8ea00836d0dce98c5fe154e17bf2b908155915190925062000747907f980f427e00e74f6d338adfccc7468518c8c8ea00836d0dce98c5fe154e17bf2c90600f62000fce565b50506040805180820182526161a8815281516101e0810183526001808252602082810182905293820181905260608201819052608082018190525f60a0830181905260c0830181905260e08301819052610100830181905261012083018190526101408301829052610160830182905261018083018290526101a083018290526101c083019190915283830191825260079052600c90925280517fdae089abd7155aa13ce498edb0d7a7156b783d015031f10c9a3d4f5fcb518971908155915190925062000839907fdae089abd7155aa13ce498edb0d7a7156b783d015031f10c9a3d4f5fcb51897290600f62000fce565b5050604080518082018252612710815281516101e08101835260018082525f6020838101829052948301829052606083018190526080830182905260a0830181905260c0830182905260e08301819052610100830182905261012083018190526101408301829052610160830181905261018083018290526101a083018190526101c083019190915283830191825260089052600c90925280517f5ff1be3842b54290a9d10674244dae5848d2371b5314790c54805c086586e1df90815591519092506200092b907f5ff1be3842b54290a9d10674244dae5848d2371b5314790c54805c086586e1e090600f62000fce565b505060408051808201825261186a815281516101e0810183525f80825260208281018290526001948301859052606083018290526080830182905260a0830182905260c0830185905260e08301829052610100830185905261012083018290526101408301859052610160830185905261018083018590526101a083018590526101c083019490945283830191825260099052600c90925280517f2fb3c9afecd3f0d43923381d3e9f60168c039b98f0b7120382e81b682b7bc316908155915190925062000a1d907f2fb3c9afecd3f0d43923381d3e9f60168c039b98f0b7120382e81b682b7bc31790600f62000fce565b5050604080518082018252610ea6815281516101e0810183525f80825260208281018290526001948301859052606083018290526080830182905260a0830185905260c0830185905260e0830185905261010083018590526101208301859052610140830182905261016083018290526101808301949094526101a082018190526101c08201819052838301918252600a9052600c90925280517f9e6c92d7be355807bd948171438a5e65aaf9e4c36f1405c1b9ca25d27c4ea3a0908155915190925062000b0f907f9e6c92d7be355807bd948171438a5e65aaf9e4c36f1405c1b9ca25d27c4ea3a190600f62000fce565b50506040805180820182526107d0815281516101e08101835260018082525f6020838101829052948301819052606083018190526080830182905260a0830182905260c0830181905260e08301819052610100830181905261012083018290526101408301829052610160830181905261018083018190526101a083018190526101c0830191909152838301918252600b9052600c90925280517f6a9911425952520efa6de3784a0ac63c35d3c5bb392028ea0beb0dc41a191957908155915190925062000c01907f6a9911425952520efa6de3784a0ac63c35d3c5bb392028ea0beb0dc41a19195890600f62000fce565b50506040805180820182526102ee815281516101e081018352600180825260208281018290529382018190526060820181905260808201525f60a0820181905260c0820181905260e08201819052610100820181905261012082018190526101408201819052610160820181905261018082018190526101a082018190526101c08201819052838301918252600c9081905290925280517f37877ab6ac9e279d19a4db3294b259b5a4163c0ed597627ae79e33d80cde4db8908155915190925062000cf0907f37877ab6ac9e279d19a4db3294b259b5a4163c0ed597627ae79e33d80cde4db990600f62000fce565b50506040805180820182526102ee815281516101e0810183525f80825260208281018290529382018190526060820181905260808201819052600160a0830181905260c0830181905260e0830181905261010083018190526101208301526101408201819052610160820181905261018082018190526101a082018190526101c08201819052838301918252600d9052600c90925280517f551134c3788a756a109c6e227f794518fef985fa2ba3fac727bcd6dac5e98e8f908155915190925062000ddf907f551134c3788a756a109c6e227f794518fef985fa2ba3fac727bcd6dac5e98e9090600f62000fce565b50506040805180820182526102ee815281516101e0810183525f8082526020828101829052938201819052606082018190526080820181905260a0820181905260c0820181905260e082018190526101008201819052610120820181905260016101408301819052610160830181905261018083018190526101a083018190526101c0830152838301918252600e9052600c90925280517f4c711c77a2730b2744c96ef60e2967c2b4247d6a372f8b2e95c748d1459b2380908155915190925062000ece907f4c711c77a2730b2744c96ef60e2967c2b4247d6a372f8b2e95c748d1459b238190600f62000fce565b50506040805180820182526101f4815281516101e08101835260018082525f6020838101829052948301819052606083018190526080830182905260a0830181905260c0830182905260e0830181905261010083018290526101208301819052610140830181905261016083018190526101808301919091526101a082018190526101c08201819052838301918252600f90819052600c90935281517f977a47af6886c81cccba9ceb5316ec9b4027c59ac276de3e2cb39ec8af72ee7b90815590519193509162000fc1917f977a47af6886c81cccba9ceb5316ec9b4027c59ac276de3e2cb39ec8af72ee7c9162000fce565b50905050505050620010dd565b60018301918390821562001052579160200282015f5b838211156200102257835183826101000a81548160ff02191690831515021790555092602001926001016020815f0104928301926001030262000fe4565b8015620010505782816101000a81549060ff02191690556001016020815f0104928301926001030262001022565b505b506200106092915062001064565b5090565b5b8082111562001060575f815560010162001065565b80516001600160a01b038116811462001091575f80fd5b919050565b5f805f60608486031215620010a9575f80fd5b620010b4846200107a565b9250620010c4602085016200107a565b9150620010d4604085016200107a565b90509250925092565b6157fa80620010eb5f395ff3fe608060405234801561000f575f80fd5b506004361061026b575f3560e01c80639188483b1161014b578063e3dd6664116100bf578063f538fca411610084578063f538fca4146106a4578063f71d96cb146106b7578063f7ead09214610765578063f9b2a8bc1461076e578063fb632b7c1461079c578063fc0c546a146107a5575f80fd5b8063e3dd666414610627578063e5a84fee14610651578063ebda5f1c14610664578063efbd7bd214610688578063f2fde38b14610691575f80fd5b8063aaf5eb6811610110578063aaf5eb6814610575578063ac45118514610584578063b42a275e146105a4578063c1686071146105ac578063cde40637146105e3578063d4d5126914610606575f80fd5b80639188483b146105275780639619367d14610530578063a2f77bcc14610539578063a3f67d6d14610559578063a9ff89f914610562575f80fd5b806341fac50f116101e25780637526d839116101a75780637526d8391461046f5780637bc712cd146104c85780637dc0d1d0146104db578063881eff1e146104ee57806388ea41b9146105015780638da5cb5b14610514575f80fd5b806341fac50f146103da5780635cd4818e146103ef5780636a1738da146104125780636c1a6cb1146104255780636c7ac9d814610444575f80fd5b80632643ef1d116102335780632643ef1d1461033e5780632e5b21681461036857806330ccebb514610371578063322668a41461039f57806338e49cb8146103a85780633c28f9ce146103c7575f80fd5b8063117a5b901461026f5780631b43e5af146102e95780631b7953ee146103005780631f69565f1461030957806321e8a62c14610329575b5f80fd5b6102cb61027d366004614892565b60136020525f908152604090208054600182015460028301546003840154600485015460058601546006870154600788015460089098015460ff909716979596949593949293919290919089565b6040516102e0999897969594939291906148dd565b60405180910390f35b6102f2600a5481565b6040519081526020016102e0565b6102f2600d5481565b61031c61031736600461494e565b6107b8565b6040516102e091906149b6565b61033c610337366004614ae5565b610b8d565b005b6102f261034c366004614b84565b601660209081525f928352604080842090915290825290205481565b6102f260065481565b61038461037f36600461494e565b61131e565b604080518251815260209283015192810192909252016102e0565b6102f260085481565b6102f26103b636600461494e565b60106020525f908152604090205481565b61033c6103d5366004614bbb565b611417565b6103e261152e565b6040516102e09190614be5565b6104026103fd366004614892565b6115a7565b60405190151581526020016102e0565b61033c610420366004614dc0565b611969565b6102f2610433366004614892565b600c6020525f908152604090205481565b600254610457906001600160a01b031681565b6040516001600160a01b0390911681526020016102e0565b6104a661047d366004614892565b60146020525f908152604090208054600182015460028301546003909301549192909160ff1684565b60408051948552602085019390935291830152151560608201526080016102e0565b61033c6104d6366004614f1c565b611ab2565b600354610457906001600160a01b031681565b61033c6104fc366004614892565b611b07565b61033c61050f366004614892565b611b36565b600454610457906001600160a01b031681565b6102f2600b5481565b6102f260055481565b61054c610547366004614892565b611b65565b6040516102e091906151f5565b6102f2600e5481565b61054c61057036600461494e565b611e9d565b6102f2670de0b6b3a764000081565b610597610592366004615207565b612202565b6040516102e09190615227565b6102f2612689565b6105d16105ba366004614892565b60156020525f908152604090206004015460ff1681565b60405160ff90911681526020016102e0565b6105f66105f1366004615289565b6126fe565b6040516102e094939291906152fb565b61061961061436600461494e565b6127b2565b6040516102e0929190615333565b6102f2610635366004615207565b601160209081525f928352604080842090915290825290205481565b6105f661065f3660046153b1565b6128ec565b610677610672366004614892565b612d08565b6040516102e0959493929190615450565b6102f260075481565b61033c61069f36600461494e565b613399565b6105976106b236600461549d565b6133e5565b6107196106c5366004614892565b600f6020525f908152604090208054600182015460028301546003840154600485015460058601546006870154600788015460089098015496976001600160a01b0390961696949593949293919290919089565b60408051998a526001600160a01b0390981660208a0152968801959095526060870193909352608086019190915260a085015260c084015260e0830152610100820152610120016102e0565b6102f260095481565b61078161077c366004614892565b6139b2565b604080519384526020840192909252908201526060016102e0565b6102f260125481565b600154610457906001600160a01b031681565b6108066040518061010001604052805f6001600160a01b031681526020015f60ff16815260200160608152602001606081526020015f81526020015f81526020015f81526020015f81525090565b60408051610100810182526001546001600160a01b0316808252825163313ce56760e01b81529251919260208085019363313ce5679260048082019392918290030181865afa15801561085b573d5f803e3d5ffd5b505050506040513d601f19601f8201168201806040525081019061087f91906154cf565b60ff16815260200160015f9054906101000a90046001600160a01b03166001600160a01b03166306fdde036040518163ffffffff1660e01b81526004015f60405180830381865afa1580156108d6573d5f803e3d5ffd5b505050506040513d5f823e601f3d908101601f191682016040526108fd9190810190615552565b815260200160015f9054906101000a90046001600160a01b03166001600160a01b03166395d89b416040518163ffffffff1660e01b81526004015f60405180830381865afa158015610951573d5f803e3d5ffd5b505050506040513d5f823e601f3d908101601f191682016040526109789190810190615552565b81526020016001600160a01b038416610991575f6109fd565b6001546040516370a0823160e01b81526001600160a01b038681166004830152909116906370a0823190602401602060405180830381865afa1580156109d9573d5f803e3d5ffd5b505050506040513d601f19601f820116820180604052508101906109fd9190615583565b81526020016001600160a01b038416610a16575f610a88565b600154604051636eb1769f60e11b81526001600160a01b0386811660048301523060248301529091169063dd62ed3e90604401602060405180830381865afa158015610a64573d5f803e3d5ffd5b505050506040513d601f19601f82011682018060405250810190610a889190615583565b81526020016001600160a01b038416610aa1575f610b0d565b60025460405163c084b10b60e01b81526001600160a01b0386811660048301529091169063c084b10b90602401602060405180830381865afa158015610ae9573d5f803e3d5ffd5b505050506040513d601f19601f82011682018060405250810190610b0d9190615583565b81526002546040516311a3496560e31b81523060048201526020909201916001600160a01b0390911690638d1a4b28906024015f60405180830381865afa158015610b5a573d5f803e3d5ffd5b505050506040513d5f823e601f3d908101601f19168201604052610b8191908101906155a5565b60800151905292915050565b610b956139e3565b6003546001600160a01b03163314610bc85760405162461bcd60e51b8152600401610bbf9061568d565b60405180910390fd5b610bd1856115a7565b156112e0575f8581526013602052604090206002815460ff166004811115610bfb57610bfb6148a9565b036112ad575f868152601560209081526040808320600581018054835181860281018601909452808452919493610c84939290830182828015610c7a57602002820191905f5260205f20905f905b825461010083900a900460ff161515815260206001928301818104948501949093039092029101808411610c495790505b5050505050613a3a565b8360070154610c9391906156c6565b60028401545f908152600f602052604090206001810154919250906001600160a01b03908116908b1681036112775760025460405163c084b10b60e01b81526001600160a01b0383811660048301528592169063c084b10b90602401602060405180830381865afa158015610d0a573d5f803e3d5ffd5b505050506040513d601f19601f82011682018060405250810190610d2e9190615583565b1061124a5760025460405163785283ed60e11b81526001600160a01b038381166004830152602482018690529091169063f0a507da906044015f604051808303815f87803b158015610d7e575f80fd5b505af1158015610d90573d5f803e3d5ffd5b505050508260075f828254610da591906156dd565b925050819055506040518060a001604052808981526020018881526020018a81526020016001151581526020018781525060145f8c81526020019081526020015f205f820151815f015560208201518160010155604082015181600201556060820151816003015f6101000a81548160ff02191690831515021790555060808201518160040190600a610e399291906145bf565b50905050610e4561464f565b5f5b601e8160ff161015610eab57856006018160ff16601e8110610e6b57610e6b6156f0565b602091828204019190069054906101000a900460ff16828260ff1660288110610e9657610e966156f0565b60ff9092166020929092020152600101610e47565b505f5b600a8160ff161015610f0857878160ff16600a8110610ecf57610ecf6156f0565b602002015182610ee083601e615704565b60ff1660288110610ef357610ef36156f0565b60ff9092166020929092020152600101610eae565b505f805f610f198e6105f186613a7a565b509250925092505f89600801548211610f32575f610f41565b60088a0154610f41908361571d565b90505f5b60048a015460ff9081169082161015610fd057848160ff1681518110610f6d57610f6d6156f0565b60200260200101518a6007018260ff1660048110610f8d57610f8d6156f0565b01558351849060ff8316908110610fa657610fa66156f0565b60200260200101518a600b018260ff1660048110610fc657610fc66156f0565b0155600101610f45565b50895460ff19166003178a5560088a01829055801561112d57600254604051639546717760e01b81526001600160a01b03888116600483015260248201849052909116906395467177906044015f604051808303815f87803b158015611034575f80fd5b505af1158015611046573d5f803e3d5ffd5b5050505080876005015f82825461105d91906156dd565b925050819055506001876007015f82825461107891906156dd565b925050819055508060095f82825461109091906156dd565b925050819055506001600a5f8282546110a991906156dd565b90915550508088111561111d576002546001600160a01b0316632edcbd606110d1838b61571d565b6040518263ffffffff1660e01b81526004016110ef91815260200190565b5f604051808303815f87803b158015611106575f80fd5b505af1158015611118573d5f803e3d5ffd5b505050505b6111288f8242613b00565b6111eb565b87876004015f82825461114091906156dd565b925050819055506001876006015f82825461115b91906156dd565b925050819055508760085f82825461117391906156dd565b925050819055506001600b5f82825461118c91906156dd565b9091555050600254604051630176e5eb60e51b8152600481018a90526001600160a01b0390911690632edcbd60906024015f604051808303815f87803b1580156111d4575f80fd5b505af11580156111e6573d5f803e3d5ffd5b505050505b6001876002015f8282546111ff91906156dd565b9250508190555087876003015f82825461121991906156dd565b909155505086545f90815260116020908152604080832060028b0154845290915290208f9055506112a49350505050565b60405162461bcd60e51b8152602060048201526002602482015261453560f01b6044820152606401610bbf565b60405162461bcd60e51b8152602060048201526002602482015261114d60f21b6044820152606401610bbf565b505050506112da565b60405162461bcd60e51b8152602060048201526002602482015261453360f01b6044820152606401610bbf565b5061130d565b60405162461bcd60e51b8152602060048201526002602482015261453160f01b6044820152606401610bbf565b61131660015f55565b505050505050565b6040805180820182525f808252602082015260025491516311a3496560e31b815230600482015290916001600160a01b031690638d1a4b28906024015f60405180830381865afa158015611374573d5f803e3d5ffd5b505050506040513d5f823e601f3d908101601f1916820160405261139b91908101906155a5565b60800151602082015260025460405163c084b10b60e01b81526001600160a01b0384811660048301529091169063c084b10b90602401602060405180830381865afa1580156113ec573d5f803e3d5ffd5b505050506040513d601f19601f820116820180604052508101906114109190615583565b8152919050565b6004546001600160a01b031633146114415760405162461bcd60e51b8152600401610bbf90615730565b6001546001600160a01b03908116908316036114b35760405162461bcd60e51b815260206004820152602b60248201527f43616e74207265636f7765722067616d6520746f6b656e2e204f6e6c7920626160448201526a6e6b20776974686472617760a81b6064820152608401610bbf565b6004805460405163a9059cbb60e01b81526001600160a01b03918216928101929092526024820183905283169063a9059cbb906044016020604051808303815f875af1158015611505573d5f803e3d5ffd5b505050506040513d601f19601f820116820180604052508101906115299190615754565b505050565b60606017805480602002602001604051908101604052809291908181526020015f905b8282101561159e578382905f5260205f2090600302016040518060600160405290815f82015481526020016001820154815260200160028201548152505081526020019060010190611551565b50505050905090565b5f81815260156020526040808220815161014081019092528291908160c0810182600486835b8282101561163057604080516101e08101918290529085840190600f90825f855b825461010083900a900460ff168152602060019283018181049485019490930390920291018084116115ee5790505050505050815260200190600101906115cd565b50505090825250600482015460ff1660208083019190915260058301805460408051828502810185018252828152940193928301828280156116ae57602002820191905f5260205f20905f905b825461010083900a900460ff16151581526020600192830181810494850194909303909202910180841161167d5790505b5050509183525050604080516103c0810191829052602090920191906006840190601e90825f855b825461010083900a900460ff168152602060019283018181049485019490930390920291018084116116d65750505092845250506040805160808101918290526020909301929150600784019060049082845b81548152602001906001019080831161172957505050918352505060408051608081019182905260209092019190600b84019060049082845b81548152602001906001019080831161176257505050505081525050905061178861466e565b5f5b601e8160ff1610156117dc5760018284606001518360ff16601e81106117b2576117b26156f0565b602002015160ff16603d81106117ca576117ca6156f0565b9115156020909202015260010161178a565b505f8082525b826020015160ff168160ff16101561195f575f5b600d54811015611956575f818152600c60209081526040808320815180830183528154815282516101e081019384905290939192918401916001840190600f908288855b825461010083900a900460ff16151581526020600192830181810494850194909303909202910180841161183a57905050505050508152505090505f805f5b600f8160ff16101561191f5783602001518160ff16600f811061189e5761189e6156f0565b60200201511561191757826118b28161576f565b93505086885f01518760ff16600481106118ce576118ce6156f0565b60200201518260ff16600f81106118e7576118e76156f0565b602002015160ff16603d81106118ff576118ff6156f0565b60200201511561191757816119138161576f565b9250505b600101611879565b505f8160ff1611801561193757508160ff168160ff16105b1561194b5750600198975050505050505050565b5050506001016117f6565b506001016117e2565b505f949350505050565b6119716139e3565b6003546001600160a01b0316331461199b5760405162461bcd60e51b8152600401610bbf9061568d565b5f5b8151811015611aa557611a9d8282815181106119bb576119bb6156f0565b60200260200101515f01518383815181106119d8576119d86156f0565b6020026020010151602001518484815181106119f6576119f66156f0565b602002602001015160400151858581518110611a1457611a146156f0565b602002602001015160600151868681518110611a3257611a326156f0565b602002602001015160800151878781518110611a5057611a506156f0565b602002602001015160a00151888881518110611a6e57611a6e6156f0565b602002602001015160c00151898981518110611a8c57611a8c6156f0565b602002602001015160e00151613c9d565b60010161199d565b50611aaf60015f55565b50565b611aba6139e3565b6003546001600160a01b03163314611ae45760405162461bcd60e51b8152600401610bbf9061568d565b611af48888888888888888613c9d565b611afd60015f55565b5050505050505050565b6004546001600160a01b03163314611b315760405162461bcd60e51b8152600401610bbf90615730565b600655565b6004546001600160a01b03163314611b605760405162461bcd60e51b8152600401610bbf90615730565b600555565b611b6d61468d565b604080515f84815260136020528290206101808201909252815490918291606083019190829060ff166004811115611ba757611ba76148a9565b6004811115611bb857611bb86148a9565b815260200160018201548152602001600282015481526020016003820154815260200160048201548152602001600582015481526020016006820154815260200160078201548152602001600882015481525050815260200160155f8581526020019081526020015f206040518060c00160405290815f8201600480602002604051908101604052809291905f905b82821015611caa57604080516101e08101918290529085840190600f90825f855b825461010083900a900460ff16815260206001928301818104948501949093039092029101808411611c68579050505050505081526020019060010190611c47565b50505090825250600482015460ff166020808301919091526005830180546040805182850281018501825282815294019392830182828015611d2857602002820191905f5260205f20905f905b825461010083900a900460ff161515815260206001928301818104948501949093039092029101808411611cf75790505b5050509183525050604080516103c0810191829052602090920191906006840190601e90825f855b825461010083900a900460ff16815260206001928301818104948501949093039092029101808411611d505750505092845250506040805160808101918290526020909301929150600784019060049082845b815481526020019060010190808311611da357505050918352505060408051608081019182905260209092019190600b84019060049082845b815481526020019060010190808311611ddc575050509190925250505081525f848152601460209081526040808320815160a08101835281548152600182015481850152600282015481840152600382015460ff161515606082015282516101408101938490529390950194939092608085019290916004850191600a918390855b825461010083900a900460ff16815260206001928301818104948501949093039092029101808411611e5e575050509290935250505091525092915050565b611ea561468d565b6001600160a01b0382165f908152601060209081526040808320548352600f82528083208151600882015485526013909352928190206101808301909152805482916060830191829060ff166004811115611f0257611f026148a9565b6004811115611f1357611f136148a9565b815260200160018201548152602001600282015481526020016003820154815260200160048201548152602001600582015481526020016006820154815260200160078201548152602001600882015481525050815260200160155f846008015481526020019081526020015f206040518060c00160405290815f8201600480602002604051908101604052809291905f905b8282101561200957604080516101e08101918290529085840190600f90825f855b825461010083900a900460ff16815260206001928301818104948501949093039092029101808411611fc7579050505050505081526020019060010190611fa6565b50505090825250600482015460ff16602080830191909152600583018054604080518285028101850182528281529401939283018282801561208757602002820191905f5260205f20905f905b825461010083900a900460ff1615158152602060019283018181049485019490930390920291018084116120565790505b5050509183525050604080516103c0810191829052602090920191906006840190601e90825f855b825461010083900a900460ff168152602060019283018181049485019490930390920291018084116120af5750505092845250506040805160808101918290526020909301929150600784019060049082845b81548152602001906001019080831161210257505050918352505060408051608081019182905260209092019190600b84019060049082845b81548152602001906001019080831161213b5750505091909252505050815260088301545f908152601460209081526040808320815160a08101835281548152600182015481850152600282015481840152600382015460ff161515606082015282516101408101938490529390950194939092608085019290916004850191600a918390855b825461010083900a900460ff168152602060019283018181049485019490930390920291018084116121c257505050929093525050509152509392505050565b606060125483111561224657604080515f808252602082019092529061223e565b61222b61468d565b8152602001906001900390816122235790505b509050612683565b82158015612252575081155b1561225d5760125491505b60125461226a83856156dd565b1115612281578260125461227e919061571d565b91505b5f826001600160401b0381111561229a5761229a614a47565b6040519080825280602002602001820160405280156122d357816020015b6122c061468d565b8152602001906001900390816122b85790505b5090505f5b8381101561267f57604051806060016040528060135f88856012546122fd919061571d565b612307919061571d565b8152602081019190915260409081015f20815161012081019092528054829060ff16600481111561233a5761233a6148a9565b600481111561234b5761234b6148a9565b815260200160018201548152602001600282015481526020016003820154815260200160048201548152602001600582015481526020016006820154815260200160078201548152602001600882015481525050815260200160155f88856012546123b6919061571d565b6123c0919061571d565b8152602081019190915260409081015f9081208251610140810190935290829060c08201908390600490835b8282101561244f57604080516101e08101918290529085840190600f90825f855b825461010083900a900460ff1681526020600192830181810494850194909303909202910180841161240d5790505050505050815260200190600101906123ec565b50505090825250600482015460ff1660208083019190915260058301805460408051828502810185018252828152940193928301828280156124cd57602002820191905f5260205f20905f905b825461010083900a900460ff16151581526020600192830181810494850194909303909202910180841161249c5790505b5050509183525050604080516103c0810191829052602090920191906006840190601e90825f855b825461010083900a900460ff168152602060019283018181049485019490930390920291018084116124f55750505092845250506040805160808101918290526020909301929150600784019060049082845b81548152602001906001019080831161254857505050918352505060408051608081019182905260209092019190600b84019060049082845b81548152602001906001019080831161258157505050505081525050815260200160145f88856012546125b4919061571d565b6125be919061571d565b815260208082019290925260409081015f908120825160a08101845281548152600182015494810194909452600281015484840152600381015460ff16151560608501528251610140810193849052909260808501926004850191600a918390855b825461010083900a900460ff1681526020600192830181810494850194909303909202910180841161262057905050505050508152505081525082828151811061266c5761266c6156f0565b60209081029190910101526001016122d8565b5090505b92915050565b6002546040516311a3496560e31b81523060048201525f916001600160a01b031690638d1a4b28906024015f60405180830381865afa1580156126ce573d5f803e3d5ffd5b505050506040513d5f823e601f3d908101601f191682016040526126f591908101906155a5565b60800151905090565b6060805f806127a261270f87614116565b5f888152601560209081526040918290206005018054835181840281018401909452808452909183018282801561278257602002820191905f5260205f20905f905b825461010083900a900460ff1615158152602060019283018181049485019490930390920291018084116127515790505b5050505f8b8152601360205260409020600701548a9250905060016128ec565b9299919850965090945092505050565b6128016040518061012001604052805f81526020015f6001600160a01b031681526020015f81526020015f81526020015f81526020015f81526020015f81526020015f81526020015f81525090565b61280961468d565b6001600160a01b0383165f90815260106020526040902054156128e7576001600160a01b038084165f908152601060209081526040808320548352600f825291829020825161012081018452815481526001820154909416918401919091526002810154918301919091526003810154606083015260048101546080830152600581015460a0830152600681015460c0830152600781015460e0830152600801546101008201819052909250156128e7576128c8826101000151611b65565b90506128d88261010001516115a7565b60408201519015156060909101525b915091565b6060805f805f89519050806001600160401b0381111561290e5761290e614a47565b604051908082528060200260200182016040528015612937578160200160208202803683370190505b509450806001600160401b0381111561295257612952614a47565b60405190808252806020026020018201604052801561297b578160200160208202803683370190505b50935061298661466e565b5f8761299357601e612996565b60285b60ff1690505f5b81811080156129ac57508a5181105b15612a20575f8b82815181106129c4576129c46156f0565b6020026020010151905060018160ff16101580156129e65750603c8160ff1611155b15612a0d576001848260ff16603d8110612a0257612a026156f0565b911515602090920201525b5080612a188161578d565b91505061299d565b505f94505f93505f5b83811015612cf8578b8181518110612a4357612a436156f0565b6020026020010151612a92575f888281518110612a6257612a626156f0565b6020026020010181815250505f878281518110612a8157612a816156f0565b602002602001018181525050612cf0565b612a9a6146fe565b5f5b600f8160ff161015612b08578e8381518110612aba57612aba6156f0565b60200260200101518160ff1681518110612ad657612ad66156f0565b6020026020010151828260ff16600f8110612af357612af36156f0565b60ff9092166020929092020152600101612a9c565b505f805b600d54811015612c71575f818152600c60209081526040808320815180830183528154815282516101e081019384905290939192918401916001840190600f908288855b825461010083900a900460ff161515815260206001928301818104948501949093039092029101808411612b5057905050505050508152505090505f805f5b600f8160ff161015612c3f5783602001518160ff16600f8110612bb457612bb46156f0565b602002015115612c375782612bc88161576f565b9350505f878260ff16600f8110612be157612be16156f0565b6020020151905060018160ff1610158015612c005750603c8160ff1611155b8015612c2257508a8160ff16603d8110612c1c57612c1c6156f0565b60200201515b15612c355782612c318161576f565b9350505b505b600101612b8f565b505f8260ff16118015612c5757508160ff168160ff16145b15612c66575050519150612c71565b505050600101612b0c565b50808a8481518110612c8557612c856156f0565b60209081029190910101528015612ce0575f6103e8612ca4838f6156c6565b612cae91906157a5565b9050808a8581518110612cc357612cc36156f0565b6020908102919091010152612cd8818a6156dd565b985050612ced565b612cea8c886156dd565b96505b50505b600101612a29565b5050505095509550955095915050565b5f818152601360205260408082208151610120810190925280546060938493849391928392839291829060ff166004811115612d4657612d466148a9565b6004811115612d5757612d576148a9565b81526020016001820154815260200160028201548152602001600382015481526020016004820154815260200160058201548152602001600682015481526020016007820154815260200160088201548152505090505f60155f8981526020019081526020015f206040518060c00160405290815f8201600480602002604051908101604052809291905f905b82821015612e4757604080516101e08101918290529085840190600f90825f855b825461010083900a900460ff16815260206001928301818104948501949093039092029101808411612e05579050505050505081526020019060010190612de4565b50505090825250600482015460ff166020808301919091526005830180546040805182850281018501825282815294019392830182828015612ec557602002820191905f5260205f20905f905b825461010083900a900460ff161515815260206001928301818104948501949093039092029101808411612e945790505b5050509183525050604080516103c0810191829052602090920191906006840190601e90825f855b825461010083900a900460ff16815260206001928301818104948501949093039092029101808411612eed5750505092845250506040805160808101918290526020909301929150600784019060049082845b815481526020019060010190808311612f4057505050918352505060408051608081019182905260209092019190600b84019060049082845b815481526020019060010190808311612f79575050505050815250509050806020015160ff166001600160401b03811115612fb657612fb6614a47565b604051908082528060200260200182016040528015612fdf578160200160208202803683370190505b509650806020015160ff166001600160401b0381111561300157613001614a47565b60405190808252806020026020018201604052801561302a578160200160208202803683370190505b5095508060400151945061303c61464f565b61304461466e565b5f5b601e8160ff1610156130d85783606001518160ff16601e811061306b5761306b6156f0565b6020020151838260ff1660288110613085576130856156f0565b602002019060ff16908160ff1681525050600182848360ff16602881106130ae576130ae6156f0565b602002015160ff16603d81106130c6576130c66156f0565b91151560209092020152600101613046565b505f5b600a8160ff161015613199575f8b815260146020526040902060040160ff8216600a811061310b5761310b6156f0565b602081049091015460ff601f9092166101000a9004168361312d83601e615704565b60ff1660288110613140576131406156f0565b60ff90921660209290920201526001828461315c84601e615704565b60ff166028811061316f5761316f6156f0565b602002015160ff16603d8110613187576131876156f0565b911515602090920201526001016130db565b505f8082529550859450845b836020015160ff168160ff16101561338b5783515f9060ff8316600481106131cf576131cf6156f0565b602002015190505f805b600d548110156132ce575f805f5b600f8160ff16101561328d575f848152600c6020526040902060010160ff8216600f8110613217576132176156f0565b602081049091015460ff601f9092166101000a90041615613285578261323c8161576f565b93505087868260ff16600f8110613255576132556156f0565b602002015160ff16603d811061326d5761326d6156f0565b60200201511561328557816132818161576f565b9250505b6001016131e7565b505f8260ff161180156132a557508060ff168260ff16145b156132c45750505f818152600c602052604090205491909101906132ce565b50506001016131d9565b50808c8460ff16815181106132e5576132e56156f0565b60209081029190910101528015613363576103e8818860e0015161330991906156c6565b61331391906157a5565b8b8460ff1681518110613328576133286156f0565b6020026020010181815250508a8360ff1681518110613349576133496156f0565b60200260200101518961335c91906156dd565b9850613381565b5f8d81526013602052604090206007015461337e90896156dd565b97505b50506001016131a5565b505050505091939590929450565b6004546001600160a01b031633146133c35760405162461bcd60e51b8152600401610bbf90615730565b600480546001600160a01b0319166001600160a01b0392909216919091179055565b6001600160a01b038084165f81815260106020908152604080832054808452600f90925290912060010154606093919291161461345557604080515f808252602082019092529061344c565b61343961468d565b8152602001906001900390816134315790505b509150506139ab565b83158015613461575082155b1561347a575f818152600f602052604090206002015492505b5f818152600f60205260409020600201548411156134ca57604080515f808252602082019092529061344c565b6134af61468d565b8152602001906001900390816134a7579050509150506139ab565b5f818152600f60205260409020600201546134e584866156dd565b111561350a575f818152600f602052604090206002015461350790859061571d565b92505b5f836001600160401b0381111561352357613523614a47565b60405190808252806020026020018201604052801561355c57816020015b61354961468d565b8152602001906001900390816135415790505b5090505f5b848110156139a657604080516060810182525f85815260116020908152838220600f9091529281206002015491928392601392919082908c906135a590899061571d565b6135af919061571d565b81526020019081526020015f205481526020019081526020015f20604051806101200160405290815f82015f9054906101000a900460ff1660048111156135f8576135f86148a9565b6004811115613609576136096148a9565b815260200160018201548152602001600282015481526020016003820154815260200160048201548152602001600582015481526020016006820154815260200160078201548152602001600882015481525050815260200160155f60115f8881526020019081526020015f205f8b87600f5f8c81526020019081526020015f2060020154613698919061571d565b6136a2919061571d565b81526020019081526020015f205481526020019081526020015f206040518060c00160405290815f8201600480602002604051908101604052809291905f905b8282101561374557604080516101e08101918290529085840190600f90825f855b825461010083900a900460ff168152602060019283018181049485019490930390920291018084116137035790505050505050815260200190600101906136e2565b50505090825250600482015460ff1660208083019190915260058301805460408051828502810185018252828152940193928301828280156137c357602002820191905f5260205f20905f905b825461010083900a900460ff1615158152602060019283018181049485019490930390920291018084116137925790505b5050509183525050604080516103c0810191829052602090920191906006840190601e90825f855b825461010083900a900460ff168152602060019283018181049485019490930390920291018084116137eb5750505092845250506040805160808101918290526020909301929150600784019060049082845b81548152602001906001019080831161383e57505050918352505060408051608081019182905260209092019190600b84019060049082845b815481526020019060010190808311613877575050509190925250505081525f858152601160209081526040808320600f83529083206002015491909301926014929182908c906138c990899061571d565b6138d3919061571d565b815260208082019290925260409081015f908120548452838301949094529182018320825160a08101845281548152600182015492810192909252600281015482840152600381015460ff16151560608301528251610140810193849052919390926080850192916004850191600a918390855b825461010083900a900460ff16815260206001928301818104948501949093039092029101808411613947579050505050505081525050815250828281518110613993576139936156f0565b6020908102919091010152600101613561565b509150505b9392505050565b601781815481106139c1575f80fd5b5f91825260209091206003909102018054600182015460029092015490925083565b60025f5403613a345760405162461bcd60e51b815260206004820152601f60248201527f5265656e7472616e637947756172643a207265656e7472616e742063616c6c006044820152606401610bbf565b60025f55565b5f805b8251811015613a7457828181518110613a5857613a586156f0565b602002602001015115613a6c576001909101905b600101613a3d565b50919050565b60408051602880825261052082019092526060915f919060208201610500803683370190505090505f5b60288160ff161015613af957838160ff1660288110613ac557613ac56156f0565b6020020151828260ff1681518110613adf57613adf6156f0565b60ff90921660209283029190910190910152600101613aa4565b5092915050565b601754600a1115613bad5760408051606081018252938452602084019283528301908152601780546001810182555f9190915292517fc624b66cc0138b8fabc209247f72d758e1cf3343756d543badbf24212bed8c1560039094029384015590517fc624b66cc0138b8fabc209247f72d758e1cf3343756d543badbf24212bed8c16830155517fc624b66cc0138b8fabc209247f72d758e1cf3343756d543badbf24212bed8c1790910155565b5f60015b600a811015613c125760178281548110613bcd57613bcd6156f0565b905f5260205f2090600302016001015460178281548110613bf057613bf06156f0565b905f5260205f209060030201600101541015613c0a578091505b600101613bb1565b5060178181548110613c2657613c266156f0565b905f5260205f20906003020160010154831115613c975760405180606001604052808581526020018481526020018381525060178281548110613c6b57613c6b6156f0565b905f5260205f2090600302015f820151815f015560208201518160010155604082015181600201559050505b50505050565b6005548110158015613cb157506006548111155b156112e05760048751116140e957613cc88861427c565b6001600160a01b0388165f908152601060209081526040808320548352600f9091529020600260088201545f9081526013602052604090205460ff166004811115613d1557613d156148a9565b148015613d3557506008808201545f908152601360205260409020015415155b15613d5c576008808201545f81815260136020526040902090910154613d5c919042613b00565b5f613d6688613a3a565b613d7090846156c6565b60025460405163c084b10b60e01b81526001600160a01b038d8116600483015292935083929091169063c084b10b90602401602060405180830381865afa158015613dbd573d5f803e3d5ffd5b505050506040513d601f19601f82011682018060405250810190613de19190615583565b106112ad5760128054905f613df58361578d565b90915550506012545f613e0b828c8c8989614369565b604080516101208101909152909150806002815260208082018590528654604080840191909152606083018d9052608083018c905260a083018b90524260c084015260e083018990526101009092018490525f85815260139091522081518154829060ff19166001836004811115613e8557613e856148a9565b0217905550602082015160018201556040820151600280830191909155606083015160038301556080830151600483015560a0830151600583015560c0830151600683015560e083015160078301556101009092015160089091015584018054905f613ef08361578d565b909155505083545f9081526011602090815260408083206002880154845290915281208390556008850183905560078054859290613f2f9084906156dd565b90915550505f8281526013602052604090819020600801829055600254905163785283ed60e11b81526001600160a01b038e81166004830152602482018690529091169063f0a507da906044015f604051808303815f87803b158015613f93575f80fd5b505af1158015613fa5573d5f803e3d5ffd5b505050505f81111561408657600254604051639546717760e01b81526001600160a01b038e8116600483015260248201849052909116906395467177906044015f604051808303815f87803b158015613ffc575f80fd5b505af115801561400e573d5f803e3d5ffd5b5050505080831115614081576002546001600160a01b0316632edcbd60614035838661571d565b6040518263ffffffff1660e01b815260040161405391815260200190565b5f604051808303815f87803b15801561406a575f80fd5b505af115801561407c573d5f803e3d5ffd5b505050505b6140e0565b600254604051630176e5eb60e51b8152600481018590526001600160a01b0390911690632edcbd60906024015f604051808303815f87803b1580156140c9575f80fd5b505af11580156140db573d5f803e3d5ffd5b505050505b50505050611afd565b60405162461bcd60e51b8152602060048201526002602482015261229960f11b6044820152606401610bbf565b5f81815260156020526040812060048101546060929060ff166001600160401b0381111561414657614146614a47565b60405190808252806020026020018201604052801561417957816020015b60608152602001906001900390816141645790505b5090505f5b600483015460ff90811690821610156142745760408051600f808252610200820190925290602082016101e08036833701905050828260ff16815181106141c7576141c76156f0565b60200260200101819052505f5b600f8160ff16101561426b578360ff8316600481106141f5576141f56156f0565b018160ff16600f811061420a5761420a6156f0565b602091828204019190069054906101000a900460ff16838360ff1681518110614235576142356156f0565b60200260200101518260ff1681518110614251576142516156f0565b60ff909216602092830291909101909101526001016141d4565b5060010161417e565b509392505050565b6001600160a01b0381165f908152601060205260408120549003611aaf57600e8054905f6142a98361578d565b9091555050600e5460408051610120810182528281526001600160a01b0393841660208083018281525f848601818152606086018281526080870183815260a0880184815260c0890185815260e08a018681526101008b018781528d8852600f8a528c88209b518c55975160018c0180546001600160a01b03191691909f1617909d55935160028a015591516003890155516004880155516005870155516006860155965160078501555160089093019290925584526010905290912055565b5f805f8061437a888888885f6128ec565b509250925092505f5b88518160ff1610156144e2575f5b600f8160ff16101561443f57898260ff16815181106143b2576143b26156f0565b60200260200101518160ff16815181106143ce576143ce6156f0565b602002602001015160155f8d81526020019081526020015f205f018360ff16600481106143fd576143fd6156f0565b018260ff16600f8110614412576144126156f0565b602091828204019190066101000a81548160ff021916908360ff1602179055508080600101915050614391565b50838160ff1681518110614455576144556156f0565b602002602001015160155f8c81526020019081526020015f206007018260ff1660048110614485576144856156f0565b01558251839060ff831690811061449e5761449e6156f0565b602002602001015160155f8c81526020019081526020015f20600b018260ff16600481106144ce576144ce6156f0565b0155806144da8161576f565b915050614383565b505f5b86518160ff16101561456957868160ff1681518110614506576145066156f0565b602002602001015160155f8c81526020019081526020015f206006018260ff16601e8110614536576145366156f0565b602091828204019190066101000a81548160ff021916908360ff16021790555080806145619061576f565b9150506144e5565b505f898152601560209081526040909120885161458e926005909201918a019061471d565b5096515f98895260156020526040909820600401805460ff191660ff90991698909817909755509395945050505050565b60018301918390821561463f579160200282015f5b8382111561461157835183826101000a81548160ff021916908360ff16021790555092602001926001016020815f010492830192600103026145d4565b801561463d5782816101000a81549060ff02191690556001016020815f01049283019260010302614611565b505b5061464b92915061477f565b5090565b6040518061050001604052806028906020820280368337509192915050565b604051806107a00160405280603d906020820280368337509192915050565b6040805161018081019091525f606082018181526080830182905260a0830182905260c0830182905260e083018290526101008301829052610120830182905261014083018290526101608301919091528152602081016146ec614793565b81526020016146f96147da565b905290565b604051806101e00160405280600f906020820280368337509192915050565b828054828255905f5260205f2090601f0160209004810192821561463f579160200282015f5b8382111561461157835183826101000a81548160ff02191690831515021790555092602001926001016020815f01049283019260010302614743565b5b8082111561464b575f8155600101614780565b6040518060c001604052806147a6614809565b81525f6020820152606060408201819052016147c0614836565b81526020016147cd614855565b81526020016146f9614855565b6040805160a0810182525f808252602082018190529181018290526060810191909152608081016146f9614873565b60405180608001604052806004905b6148206146fe565b8152602001906001900390816148185790505090565b604051806103c00160405280601e906020820280368337509192915050565b60405180608001604052806004906020820280368337509192915050565b604051806101400160405280600a906020820280368337509192915050565b5f602082840312156148a2575f80fd5b5035919050565b634e487b7160e01b5f52602160045260245ffd5b600581106148d957634e487b7160e01b5f52602160045260245ffd5b9052565b61012081016148ec828c6148bd565b602082019990995260408101979097526060870195909552608086019390935260a085019190915260c084015260e083015261010090910152919050565b6001600160a01b0381168114611aaf575f80fd5b80356149498161492a565b919050565b5f6020828403121561495e575f80fd5b81356139ab8161492a565b5f5b8381101561498357818101518382015260200161496b565b50505f910152565b5f81518084526149a2816020860160208601614969565b601f01601f19169290920160200192915050565b602080825282516001600160a01b03168282015282015160ff811660408301525f905060408301516101008060608501526149f561012085018361498b565b91506060850151601f19858403016080860152614a12838261498b565b925050608085015160a085015260a085015160c085015260c085015160e085015260e085015181850152508091505092915050565b634e487b7160e01b5f52604160045260245ffd5b60405161014081016001600160401b0381118282101715614a7e57614a7e614a47565b60405290565b60405161010081016001600160401b0381118282101715614a7e57614a7e614a47565b604051601f8201601f191681016001600160401b0381118282101715614acf57614acf614a47565b604052919050565b60ff81168114611aaf575f80fd5b5f805f805f806101e080888a031215614afc575f80fd5b8735614b078161492a565b9650602088810135965060408901359550606089013594506080890135935060bf89018a13614b34575f80fd5b614b3c614a5b565b91890191808b841115614b4d575f80fd5b60a08b015b84811015614b72578035614b6581614ad7565b8352918301918301614b52565b50809450505050509295509295509295565b5f8060408385031215614b95575f80fd5b8235614ba081614ad7565b91506020830135614bb081614ad7565b809150509250929050565b5f8060408385031215614bcc575f80fd5b8235614bd78161492a565b946020939093013593505050565b602080825282518282018190525f919060409081850190868401855b82811015614c305781518051855286810151878601528501518585015260609093019290850190600101614c01565b5091979650505050505050565b5f6001600160401b03821115614c5557614c55614a47565b5060051b60200190565b5f82601f830112614c6e575f80fd5b81356020614c83614c7e83614c3d565b614aa7565b8083825260208201915060208460051b870101935086841115614ca4575f80fd5b602086015b84811015614cc9578035614cbc81614ad7565b8352918301918301614ca9565b509695505050505050565b5f82601f830112614ce3575f80fd5b81356020614cf3614c7e83614c3d565b82815260059290921b84018101918181019086841115614d11575f80fd5b8286015b84811015614cc95780356001600160401b03811115614d32575f80fd5b614d408986838b0101614c5f565b845250918301918301614d15565b8015158114611aaf575f80fd5b5f82601f830112614d6a575f80fd5b81356020614d7a614c7e83614c3d565b8083825260208201915060208460051b870101935086841115614d9b575f80fd5b602086015b84811015614cc9578035614db381614d4e565b8352918301918301614da0565b5f6020808385031215614dd1575f80fd5b82356001600160401b0380821115614de7575f80fd5b818501915085601f830112614dfa575f80fd5b8135614e08614c7e82614c3d565b81815260059190911b83018401908481019088831115614e26575f80fd5b8585015b83811015614f0f57803585811115614e40575f80fd5b8601610100818c03601f1901811315614e57575f80fd5b614e5f614a84565b614e6a8a840161493e565b8152604083013588811115614e7d575f80fd5b614e8b8e8c83870101614cd4565b8b83015250606083013588811115614ea1575f80fd5b614eaf8e8c83870101614d5b565b6040830152506080830135606082015260a0830135608082015260c083013560a082015260e08084013589811115614ee5575f80fd5b614ef38f8d83880101614c5f565b60c0840152509190920135908201528352918601918601614e2a565b5098975050505050505050565b5f805f805f805f80610100898b031215614f34575f80fd5b614f3d8961493e565b975060208901356001600160401b0380821115614f58575f80fd5b614f648c838d01614cd4565b985060408b0135915080821115614f79575f80fd5b614f858c838d01614d5b565b975060608b0135965060808b0135955060a08b0135945060c08b0135915080821115614faf575f80fd5b50614fbc8b828c01614c5f565b92505060e089013590509295985092959890939650565b5f815180845260208085019450602084015f5b83811015615004578151151587529582019590820190600101614fe6565b509495945050505050565b805f5b601e811015613c9757815160ff16845260209384019390910190600101615012565b805f5b6004811015613c97578151845260209384019390910190600101615037565b80515f90610c809084835b60048110156150ab578251825f5b600f81101561509157825160ff1682526020928301929091019060010161506f565b505050602092909201916101e09190910190600101615061565b505050602083015160ff1661078085015260408301516107a085018290526150d582860182614fd3565b91505060608301516150eb6107c086018261500f565b5060808301516150ff610b80860182615034565b5060a083015161267f610c00860182615034565b805182526020808201516020840152604082015160408401526060820151151560608401526080820151608084015f5b600a81101561131657825160ff1682529183019190830190600101615143565b5f61030082516151748582516148bd565b6020810151602086015260408101516040860152606081015160608601526080810151608086015260a081015160a086015260c081015160c086015260e081015160e0860152610100808201518187015250506020830151816101208601526151df82860182615056565b915050604083015161267f610140860182615113565b602081525f6139ab6020830184615163565b5f8060408385031215615218575f80fd5b50508035926020909101359150565b5f60208083016020845280855180835260408601915060408160051b8701019250602087015f5b8281101561527c57603f1988860301845261526a858351615163565b9450928501929085019060010161524e565b5092979650505050505050565b5f806040838503121561529a575f80fd5b8235915060208301356001600160401b038111156152b6575f80fd5b6152c285828601614c5f565b9150509250929050565b5f815180845260208085019450602084015f5b83811015615004578151875295820195908201906001016152df565b608081525f61530d60808301876152cc565b828103602084015261531f81876152cc565b604084019590955250506060015292915050565b5f6101408451835260018060a01b03602086015116602084015260408501516040840152606085015160608401526080850151608084015260a085015160a084015260c085015160c084015260e085015160e0840152610100808601518185015250806101208401526153a881840185615163565b95945050505050565b5f805f805f60a086880312156153c5575f80fd5b85356001600160401b03808211156153db575f80fd5b6153e789838a01614cd4565b965060208801359150808211156153fc575f80fd5b61540889838a01614d5b565b9550604088013591508082111561541d575f80fd5b5061542a88828901614c5f565b93505060608601359150608086013561544281614d4e565b809150509295509295909350565b60a081525f61546260a08301886152cc565b828103602084015261547481886152cc565b905082810360408401526154888187614fd3565b60608401959095525050608001529392505050565b5f805f606084860312156154af575f80fd5b83356154ba8161492a565b95602085013595506040909401359392505050565b5f602082840312156154df575f80fd5b81516139ab81614ad7565b5f82601f8301126154f9575f80fd5b81516001600160401b0381111561551257615512614a47565b615525601f8201601f1916602001614aa7565b818152846020838601011115615539575f80fd5b61554a826020830160208701614969565b949350505050565b5f60208284031215615562575f80fd5b81516001600160401b03811115615577575f80fd5b61554a848285016154ea565b5f60208284031215615593575f80fd5b5051919050565b80516149498161492a565b5f602082840312156155b5575f80fd5b81516001600160401b03808211156155cb575f80fd5b9083019061014082860312156155df575f80fd5b6155e7614a5b565b825181526020830151828111156155fc575f80fd5b615608878286016154ea565b602083015250604083015160408201526156246060840161559a565b60608201526080830151608082015260a083015160a082015260c083015160c082015260e083015160e08201526101008084015181830152506101208084015183811115615670575f80fd5b61567c888287016154ea565b918301919091525095945050505050565b6020808252600b908201526a4f6e6c79206f7261636c6560a81b604082015260600190565b634e487b7160e01b5f52601160045260245ffd5b8082028115828204841417612683576126836156b2565b80820180821115612683576126836156b2565b634e487b7160e01b5f52603260045260245ffd5b60ff8181168382160190811115612683576126836156b2565b81810381811115612683576126836156b2565b6020808252600a908201526927b7363c9037bbb732b960b11b604082015260600190565b5f60208284031215615764575f80fd5b81516139ab81614d4e565b5f60ff821660ff8103615784576157846156b2565b60010192915050565b5f6001820161579e5761579e6156b2565b5060010190565b5f826157bf57634e487b7160e01b5f52601260045260245ffd5b50049056fea26469706673582212203dbe791489ce01bd34143363ec341a1f0d1ce10bf3f9069fcdc5ef51cee5821664736f6c63430008180033",
			"opcodes": "PUSH1 0x80 PUSH1 0x40 MSTORE PUSH8 0xDE0B6B3A7640000 PUSH1 0x5 SSTORE PUSH9 0x56BC75E2D63100000 PUSH1 0x6 SSTORE PUSH0 PUSH1 0x7 SSTORE PUSH0 PUSH1 0x8 SSTORE PUSH0 PUSH1 0x9 SSTORE PUSH0 PUSH1 0xA SSTORE PUSH0 PUSH1 0xB SSTORE PUSH1 0x10 PUSH1 0xD SSTORE PUSH0 PUSH1 0xE SSTORE PUSH0 PUSH1 0x12 SSTORE CALLVALUE DUP1 ISZERO PUSH3 0x4A JUMPI PUSH0 DUP1 REVERT JUMPDEST POP PUSH1 0x40 MLOAD PUSH3 0x68E5 CODESIZE SUB DUP1 PUSH3 0x68E5 DUP4 CODECOPY DUP2 ADD PUSH1 0x40 DUP2 SWAP1 MSTORE PUSH3 0x6D SWAP2 PUSH3 0x1096 JUMP JUMPDEST PUSH1 0x1 PUSH0 DUP2 DUP2 SSTORE PUSH1 0x4 DUP1 SLOAD CALLER PUSH1 0x1 PUSH1 0x1 PUSH1 0xA0 SHL SUB NOT SWAP2 DUP3 AND OR SWAP1 SWAP2 SSTORE DUP3 SLOAD DUP2 AND PUSH1 0x1 PUSH1 0x1 PUSH1 0xA0 SHL SUB DUP8 DUP2 AND SWAP2 SWAP1 SWAP2 OR DUP5 SSTORE PUSH1 0x3 DUP1 SLOAD DUP4 AND DUP8 DUP4 AND OR SWAP1 SSTORE PUSH1 0x2 DUP1 SLOAD SWAP1 SWAP3 AND SWAP1 DUP6 AND OR SWAP1 SSTORE PUSH1 0x40 DUP1 MLOAD DUP1 DUP3 ADD DUP3 MSTORE PUSH3 0x55730 DUP2 MSTORE DUP2 MLOAD PUSH2 0x1E0 DUP2 ADD DUP4 MSTORE DUP5 DUP2 MSTORE PUSH1 0x20 DUP1 DUP3 ADD DUP7 SWAP1 MSTORE SWAP3 DUP2 ADD DUP6 SWAP1 MSTORE PUSH1 0x60 DUP2 ADD DUP6 SWAP1 MSTORE PUSH1 0x80 DUP2 ADD DUP6 SWAP1 MSTORE PUSH1 0xA0 DUP2 ADD DUP6 SWAP1 MSTORE PUSH1 0xC0 DUP2 ADD DUP6 SWAP1 MSTORE PUSH1 0xE0 DUP2 ADD DUP6 SWAP1 MSTORE PUSH2 0x100 DUP2 ADD DUP6 SWAP1 MSTORE PUSH2 0x120 DUP2 ADD DUP6 SWAP1 MSTORE PUSH2 0x140 DUP2 ADD DUP6 SWAP1 MSTORE PUSH2 0x160 DUP2 ADD DUP6 SWAP1 MSTORE PUSH2 0x180 DUP2 ADD DUP6 SWAP1 MSTORE PUSH2 0x1A0 DUP2 ADD DUP6 SWAP1 MSTORE PUSH2 0x1C0 DUP2 ADD SWAP5 SWAP1 SWAP5 MSTORE DUP2 DUP2 ADD SWAP4 DUP5 MSTORE SWAP2 DUP1 MSTORE PUSH1 0xC SWAP1 MSTORE DUP1 MLOAD PUSH32 0x13649B2456F1B42FEF0F0040B3AAEABCD21A76A0F3F5DEFD4F583839455116E8 SWAP1 DUP2 SSTORE SWAP2 MLOAD SWAP1 SWAP2 SWAP1 PUSH3 0x1A2 SWAP1 PUSH32 0x13649B2456F1B42FEF0F0040B3AAEABCD21A76A0F3F5DEFD4F583839455116E9 SWAP1 PUSH1 0xF PUSH3 0xFCE JUMP JUMPDEST POP POP PUSH1 0x40 DUP1 MLOAD DUP1 DUP3 ADD DUP3 MSTORE PUSH3 0x2DC6C DUP2 MSTORE DUP2 MLOAD PUSH2 0x1E0 DUP2 ADD DUP4 MSTORE PUSH1 0x1 DUP1 DUP3 MSTORE PUSH1 0x20 DUP3 DUP2 ADD DUP3 SWAP1 MSTORE SWAP4 DUP3 ADD DUP2 SWAP1 MSTORE PUSH1 0x60 DUP3 ADD DUP2 SWAP1 MSTORE PUSH1 0x80 DUP3 ADD DUP2 SWAP1 MSTORE PUSH1 0xA0 DUP3 ADD DUP2 SWAP1 MSTORE PUSH0 PUSH1 0xC0 DUP4 ADD DUP2 SWAP1 MSTORE PUSH1 0xE0 DUP4 ADD DUP2 SWAP1 MSTORE PUSH2 0x100 DUP4 ADD DUP2 SWAP1 MSTORE PUSH2 0x120 DUP4 ADD DUP3 SWAP1 MSTORE PUSH2 0x140 DUP4 ADD DUP3 SWAP1 MSTORE PUSH2 0x160 DUP4 ADD DUP3 SWAP1 MSTORE PUSH2 0x180 DUP4 ADD DUP3 SWAP1 MSTORE PUSH2 0x1A0 DUP4 ADD DUP3 SWAP1 MSTORE PUSH2 0x1C0 DUP4 ADD DUP3 SWAP1 MSTORE DUP5 DUP5 ADD SWAP3 DUP4 MSTORE MSTORE PUSH1 0xC SWAP1 SWAP3 MSTORE DUP1 MLOAD PUSH32 0xD421A5181C571BBA3F01190C922C3B2A896FC1D84E86C9F17AC10E67EBEF8B5C SWAP1 DUP2 SSTORE SWAP2 MLOAD SWAP1 SWAP3 POP PUSH3 0x291 SWAP1 PUSH32 0xD421A5181C571BBA3F01190C922C3B2A896FC1D84E86C9F17AC10E67EBEF8B5D SWAP1 PUSH1 0xF PUSH3 0xFCE JUMP JUMPDEST POP POP PUSH1 0x40 DUP1 MLOAD DUP1 DUP3 ADD DUP3 MSTORE PUSH3 0x1E848 DUP2 MSTORE DUP2 MLOAD PUSH2 0x1E0 DUP2 ADD DUP4 MSTORE PUSH1 0x1 DUP1 DUP3 MSTORE PUSH1 0x20 DUP3 DUP2 ADD DUP3 SWAP1 MSTORE SWAP4 DUP3 ADD DUP2 SWAP1 MSTORE PUSH1 0x60 DUP3 ADD DUP2 SWAP1 MSTORE PUSH1 0x80 DUP3 ADD DUP2 SWAP1 MSTORE PUSH0 PUSH1 0xA0 DUP4 ADD DUP2 SWAP1 MSTORE PUSH1 0xC0 DUP4 ADD DUP3 SWAP1 MSTORE PUSH1 0xE0 DUP4 ADD DUP2 SWAP1 MSTORE PUSH2 0x100 DUP4 ADD DUP3 SWAP1 MSTORE PUSH2 0x120 DUP4 ADD DUP2 SWAP1 MSTORE PUSH2 0x140 DUP4 ADD DUP3 SWAP1 MSTORE PUSH2 0x160 DUP4 ADD DUP3 SWAP1 MSTORE PUSH2 0x180 DUP4 ADD DUP3 SWAP1 MSTORE PUSH2 0x1A0 DUP4 ADD DUP3 SWAP1 MSTORE PUSH2 0x1C0 DUP4 ADD SWAP2 SWAP1 SWAP2 MSTORE DUP4 DUP4 ADD SWAP2 DUP3 MSTORE PUSH1 0x2 SWAP1 MSTORE PUSH1 0xC SWAP1 SWAP3 MSTORE DUP1 MLOAD PUSH32 0x5D6016397A73F5E079297AC5A36FEF17B4D9C3831618E63AB105738020DDD720 SWAP1 DUP2 SSTORE SWAP2 MLOAD SWAP1 SWAP3 POP PUSH3 0x384 SWAP1 PUSH32 0x5D6016397A73F5E079297AC5A36FEF17B4D9C3831618E63AB105738020DDD721 SWAP1 PUSH1 0xF PUSH3 0xFCE JUMP JUMPDEST POP POP PUSH1 0x40 DUP1 MLOAD DUP1 DUP3 ADD DUP3 MSTORE PUSH3 0x124F8 DUP2 MSTORE DUP2 MLOAD PUSH2 0x1E0 DUP2 ADD DUP4 MSTORE PUSH1 0x1 DUP1 DUP3 MSTORE PUSH0 PUSH1 0x20 DUP4 DUP2 ADD DUP3 SWAP1 MSTORE SWAP5 DUP4 ADD DUP3 SWAP1 MSTORE PUSH1 0x60 DUP4 ADD DUP2 SWAP1 MSTORE PUSH1 0x80 DUP4 ADD DUP3 SWAP1 MSTORE PUSH1 0xA0 DUP4 ADD DUP3 SWAP1 MSTORE PUSH1 0xC0 DUP4 ADD DUP3 SWAP1 MSTORE PUSH1 0xE0 DUP4 ADD DUP3 SWAP1 MSTORE PUSH2 0x100 DUP4 ADD DUP3 SWAP1 MSTORE PUSH2 0x120 DUP4 ADD DUP3 SWAP1 MSTORE PUSH2 0x140 DUP4 ADD DUP3 SWAP1 MSTORE PUSH2 0x160 DUP4 ADD DUP2 SWAP1 MSTORE PUSH2 0x180 DUP4 ADD DUP3 SWAP1 MSTORE PUSH2 0x1A0 DUP4 ADD DUP2 SWAP1 MSTORE PUSH2 0x1C0 DUP4 ADD SWAP2 SWAP1 SWAP2 MSTORE DUP4 DUP4 ADD SWAP2 DUP3 MSTORE PUSH1 0x3 SWAP1 MSTORE PUSH1 0xC SWAP1 SWAP3 MSTORE DUP1 MLOAD PUSH32 0xC0DA782485E77AE272268AE0A3FF44C1552ECB60B3743924DE17A815E0A3CFD7 SWAP1 DUP2 SSTORE SWAP2 MLOAD SWAP1 SWAP3 POP PUSH3 0x477 SWAP1 PUSH32 0xC0DA782485E77AE272268AE0A3FF44C1552ECB60B3743924DE17A815E0A3CFD8 SWAP1 PUSH1 0xF PUSH3 0xFCE JUMP JUMPDEST POP POP PUSH1 0x40 DUP1 MLOAD DUP1 DUP3 ADD DUP3 MSTORE PUSH2 0xC350 DUP2 MSTORE DUP2 MLOAD PUSH2 0x1E0 DUP2 ADD DUP4 MSTORE PUSH1 0x1 DUP1 DUP3 MSTORE PUSH1 0x20 DUP3 DUP2 ADD DUP3 SWAP1 MSTORE SWAP4 DUP3 ADD DUP2 SWAP1 MSTORE PUSH1 0x60 DUP3 ADD DUP2 SWAP1 MSTORE PUSH1 0x80 DUP3 ADD DUP2 SWAP1 MSTORE PUSH0 PUSH1 0xA0 DUP4 ADD DUP2 SWAP1 MSTORE PUSH1 0xC0 DUP4 ADD DUP3 SWAP1 MSTORE PUSH1 0xE0 DUP4 ADD DUP2 SWAP1 MSTORE PUSH2 0x100 DUP4 ADD DUP3 SWAP1 MSTORE PUSH2 0x120 DUP4 ADD DUP2 SWAP1 MSTORE PUSH2 0x140 DUP4 ADD DUP2 SWAP1 MSTORE PUSH2 0x160 DUP4 ADD DUP3 SWAP1 MSTORE PUSH2 0x180 DUP4 ADD DUP2 SWAP1 MSTORE PUSH2 0x1A0 DUP4 ADD SWAP2 SWAP1 SWAP2 MSTORE PUSH2 0x1C0 DUP3 ADD DUP2 SWAP1 MSTORE DUP4 DUP4 ADD SWAP2 DUP3 MSTORE PUSH1 0x4 SWAP1 MSTORE PUSH1 0xC SWAP1 SWAP3 MSTORE DUP1 MLOAD PUSH32 0x5B84BB9E0F5AA9CC45A8BB66468DB5D4816D1E75FF86B5E1F1DD8D144DAB8097 SWAP1 DUP2 SSTORE SWAP2 MLOAD SWAP1 SWAP3 POP PUSH3 0x569 SWAP1 PUSH32 0x5B84BB9E0F5AA9CC45A8BB66468DB5D4816D1E75FF86B5E1F1DD8D144DAB8098 SWAP1 PUSH1 0xF PUSH3 0xFCE JUMP JUMPDEST POP POP PUSH1 0x40 DUP1 MLOAD DUP1 DUP3 ADD DUP3 MSTORE PUSH2 0x61A8 DUP2 MSTORE DUP2 MLOAD PUSH2 0x1E0 DUP2 ADD DUP4 MSTORE PUSH1 0x1 DUP1 DUP3 MSTORE PUSH1 0x20 DUP3 DUP2 ADD DUP3 SWAP1 MSTORE SWAP4 DUP3 ADD DUP2 SWAP1 MSTORE PUSH1 0x60 DUP3 ADD DUP2 SWAP1 MSTORE PUSH1 0x80 DUP3 ADD DUP2 SWAP1 MSTORE PUSH1 0xA0 DUP3 ADD DUP2 SWAP1 MSTORE PUSH1 0xC0 DUP3 ADD DUP2 SWAP1 MSTORE PUSH1 0xE0 DUP3 ADD DUP2 SWAP1 MSTORE PUSH2 0x100 DUP3 ADD DUP2 SWAP1 MSTORE PUSH2 0x120 DUP3 ADD MSTORE PUSH0 PUSH2 0x140 DUP3 ADD DUP2 SWAP1 MSTORE PUSH2 0x160 DUP3 ADD DUP2 SWAP1 MSTORE PUSH2 0x180 DUP3 ADD DUP2 SWAP1 MSTORE PUSH2 0x1A0 DUP3 ADD DUP2 SWAP1 MSTORE PUSH2 0x1C0 DUP3 ADD DUP2 SWAP1 MSTORE DUP4 DUP4 ADD SWAP2 DUP3 MSTORE PUSH1 0x5 SWAP1 MSTORE PUSH1 0xC SWAP1 SWAP3 MSTORE DUP1 MLOAD PUSH32 0x2CD9EBF6FF19CDD7FFCC447D7C7D47B5991F5C7392A04512134E765802361FA6 SWAP1 DUP2 SSTORE SWAP2 MLOAD SWAP1 SWAP3 POP PUSH3 0x658 SWAP1 PUSH32 0x2CD9EBF6FF19CDD7FFCC447D7C7D47B5991F5C7392A04512134E765802361FA7 SWAP1 PUSH1 0xF PUSH3 0xFCE JUMP JUMPDEST POP POP PUSH1 0x40 DUP1 MLOAD DUP1 DUP3 ADD DUP3 MSTORE PUSH2 0x61A8 DUP2 MSTORE DUP2 MLOAD PUSH2 0x1E0 DUP2 ADD DUP4 MSTORE PUSH0 DUP1 DUP3 MSTORE PUSH1 0x20 DUP3 DUP2 ADD DUP3 SWAP1 MSTORE SWAP4 DUP3 ADD DUP2 SWAP1 MSTORE PUSH1 0x60 DUP3 ADD DUP2 SWAP1 MSTORE PUSH1 0x80 DUP3 ADD DUP2 SWAP1 MSTORE PUSH1 0x1 PUSH1 0xA0 DUP4 ADD DUP2 SWAP1 MSTORE PUSH1 0xC0 DUP4 ADD DUP2 SWAP1 MSTORE PUSH1 0xE0 DUP4 ADD DUP2 SWAP1 MSTORE PUSH2 0x100 DUP4 ADD DUP2 SWAP1 MSTORE PUSH2 0x120 DUP4 ADD DUP2 SWAP1 MSTORE PUSH2 0x140 DUP4 ADD DUP2 SWAP1 MSTORE PUSH2 0x160 DUP4 ADD DUP2 SWAP1 MSTORE PUSH2 0x180 DUP4 ADD DUP2 SWAP1 MSTORE PUSH2 0x1A0 DUP4 ADD DUP2 SWAP1 MSTORE PUSH2 0x1C0 DUP4 ADD MSTORE DUP4 DUP4 ADD SWAP2 DUP3 MSTORE PUSH1 0x6 SWAP1 MSTORE PUSH1 0xC SWAP1 SWAP3 MSTORE DUP1 MLOAD PUSH32 0x980F427E00E74F6D338ADFCCC7468518C8C8EA00836D0DCE98C5FE154E17BF2B SWAP1 DUP2 SSTORE SWAP2 MLOAD SWAP1 SWAP3 POP PUSH3 0x747 SWAP1 PUSH32 0x980F427E00E74F6D338ADFCCC7468518C8C8EA00836D0DCE98C5FE154E17BF2C SWAP1 PUSH1 0xF PUSH3 0xFCE JUMP JUMPDEST POP POP PUSH1 0x40 DUP1 MLOAD DUP1 DUP3 ADD DUP3 MSTORE PUSH2 0x61A8 DUP2 MSTORE DUP2 MLOAD PUSH2 0x1E0 DUP2 ADD DUP4 MSTORE PUSH1 0x1 DUP1 DUP3 MSTORE PUSH1 0x20 DUP3 DUP2 ADD DUP3 SWAP1 MSTORE SWAP4 DUP3 ADD DUP2 SWAP1 MSTORE PUSH1 0x60 DUP3 ADD DUP2 SWAP1 MSTORE PUSH1 0x80 DUP3 ADD DUP2 SWAP1 MSTORE PUSH0 PUSH1 0xA0 DUP4 ADD DUP2 SWAP1 MSTORE PUSH1 0xC0 DUP4 ADD DUP2 SWAP1 MSTORE PUSH1 0xE0 DUP4 ADD DUP2 SWAP1 MSTORE PUSH2 0x100 DUP4 ADD DUP2 SWAP1 MSTORE PUSH2 0x120 DUP4 ADD DUP2 SWAP1 MSTORE PUSH2 0x140 DUP4 ADD DUP3 SWAP1 MSTORE PUSH2 0x160 DUP4 ADD DUP3 SWAP1 MSTORE PUSH2 0x180 DUP4 ADD DUP3 SWAP1 MSTORE PUSH2 0x1A0 DUP4 ADD DUP3 SWAP1 MSTORE PUSH2 0x1C0 DUP4 ADD SWAP2 SWAP1 SWAP2 MSTORE DUP4 DUP4 ADD SWAP2 DUP3 MSTORE PUSH1 0x7 SWAP1 MSTORE PUSH1 0xC SWAP1 SWAP3 MSTORE DUP1 MLOAD PUSH32 0xDAE089ABD7155AA13CE498EDB0D7A7156B783D015031F10C9A3D4F5FCB518971 SWAP1 DUP2 SSTORE SWAP2 MLOAD SWAP1 SWAP3 POP PUSH3 0x839 SWAP1 PUSH32 0xDAE089ABD7155AA13CE498EDB0D7A7156B783D015031F10C9A3D4F5FCB518972 SWAP1 PUSH1 0xF PUSH3 0xFCE JUMP JUMPDEST POP POP PUSH1 0x40 DUP1 MLOAD DUP1 DUP3 ADD DUP3 MSTORE PUSH2 0x2710 DUP2 MSTORE DUP2 MLOAD PUSH2 0x1E0 DUP2 ADD DUP4 MSTORE PUSH1 0x1 DUP1 DUP3 MSTORE PUSH0 PUSH1 0x20 DUP4 DUP2 ADD DUP3 SWAP1 MSTORE SWAP5 DUP4 ADD DUP3 SWAP1 MSTORE PUSH1 0x60 DUP4 ADD DUP2 SWAP1 MSTORE PUSH1 0x80 DUP4 ADD DUP3 SWAP1 MSTORE PUSH1 0xA0 DUP4 ADD DUP2 SWAP1 MSTORE PUSH1 0xC0 DUP4 ADD DUP3 SWAP1 MSTORE PUSH1 0xE0 DUP4 ADD DUP2 SWAP1 MSTORE PUSH2 0x100 DUP4 ADD DUP3 SWAP1 MSTORE PUSH2 0x120 DUP4 ADD DUP2 SWAP1 MSTORE PUSH2 0x140 DUP4 ADD DUP3 SWAP1 MSTORE PUSH2 0x160 DUP4 ADD DUP2 SWAP1 MSTORE PUSH2 0x180 DUP4 ADD DUP3 SWAP1 MSTORE PUSH2 0x1A0 DUP4 ADD DUP2 SWAP1 MSTORE PUSH2 0x1C0 DUP4 ADD SWAP2 SWAP1 SWAP2 MSTORE DUP4 DUP4 ADD SWAP2 DUP3 MSTORE PUSH1 0x8 SWAP1 MSTORE PUSH1 0xC SWAP1 SWAP3 MSTORE DUP1 MLOAD PUSH32 0x5FF1BE3842B54290A9D10674244DAE5848D2371B5314790C54805C086586E1DF SWAP1 DUP2 SSTORE SWAP2 MLOAD SWAP1 SWAP3 POP PUSH3 0x92B SWAP1 PUSH32 0x5FF1BE3842B54290A9D10674244DAE5848D2371B5314790C54805C086586E1E0 SWAP1 PUSH1 0xF PUSH3 0xFCE JUMP JUMPDEST POP POP PUSH1 0x40 DUP1 MLOAD DUP1 DUP3 ADD DUP3 MSTORE PUSH2 0x186A DUP2 MSTORE DUP2 MLOAD PUSH2 0x1E0 DUP2 ADD DUP4 MSTORE PUSH0 DUP1 DUP3 MSTORE PUSH1 0x20 DUP3 DUP2 ADD DUP3 SWAP1 MSTORE PUSH1 0x1 SWAP5 DUP4 ADD DUP6 SWAP1 MSTORE PUSH1 0x60 DUP4 ADD DUP3 SWAP1 MSTORE PUSH1 0x80 DUP4 ADD DUP3 SWAP1 MSTORE PUSH1 0xA0 DUP4 ADD DUP3 SWAP1 MSTORE PUSH1 0xC0 DUP4 ADD DUP6 SWAP1 MSTORE PUSH1 0xE0 DUP4 ADD DUP3 SWAP1 MSTORE PUSH2 0x100 DUP4 ADD DUP6 SWAP1 MSTORE PUSH2 0x120 DUP4 ADD DUP3 SWAP1 MSTORE PUSH2 0x140 DUP4 ADD DUP6 SWAP1 MSTORE PUSH2 0x160 DUP4 ADD DUP6 SWAP1 MSTORE PUSH2 0x180 DUP4 ADD DUP6 SWAP1 MSTORE PUSH2 0x1A0 DUP4 ADD DUP6 SWAP1 MSTORE PUSH2 0x1C0 DUP4 ADD SWAP5 SWAP1 SWAP5 MSTORE DUP4 DUP4 ADD SWAP2 DUP3 MSTORE PUSH1 0x9 SWAP1 MSTORE PUSH1 0xC SWAP1 SWAP3 MSTORE DUP1 MLOAD PUSH32 0x2FB3C9AFECD3F0D43923381D3E9F60168C039B98F0B7120382E81B682B7BC316 SWAP1 DUP2 SSTORE SWAP2 MLOAD SWAP1 SWAP3 POP PUSH3 0xA1D SWAP1 PUSH32 0x2FB3C9AFECD3F0D43923381D3E9F60168C039B98F0B7120382E81B682B7BC317 SWAP1 PUSH1 0xF PUSH3 0xFCE JUMP JUMPDEST POP POP PUSH1 0x40 DUP1 MLOAD DUP1 DUP3 ADD DUP3 MSTORE PUSH2 0xEA6 DUP2 MSTORE DUP2 MLOAD PUSH2 0x1E0 DUP2 ADD DUP4 MSTORE PUSH0 DUP1 DUP3 MSTORE PUSH1 0x20 DUP3 DUP2 ADD DUP3 SWAP1 MSTORE PUSH1 0x1 SWAP5 DUP4 ADD DUP6 SWAP1 MSTORE PUSH1 0x60 DUP4 ADD DUP3 SWAP1 MSTORE PUSH1 0x80 DUP4 ADD DUP3 SWAP1 MSTORE PUSH1 0xA0 DUP4 ADD DUP6 SWAP1 MSTORE PUSH1 0xC0 DUP4 ADD DUP6 SWAP1 MSTORE PUSH1 0xE0 DUP4 ADD DUP6 SWAP1 MSTORE PUSH2 0x100 DUP4 ADD DUP6 SWAP1 MSTORE PUSH2 0x120 DUP4 ADD DUP6 SWAP1 MSTORE PUSH2 0x140 DUP4 ADD DUP3 SWAP1 MSTORE PUSH2 0x160 DUP4 ADD DUP3 SWAP1 MSTORE PUSH2 0x180 DUP4 ADD SWAP5 SWAP1 SWAP5 MSTORE PUSH2 0x1A0 DUP3 ADD DUP2 SWAP1 MSTORE PUSH2 0x1C0 DUP3 ADD DUP2 SWAP1 MSTORE DUP4 DUP4 ADD SWAP2 DUP3 MSTORE PUSH1 0xA SWAP1 MSTORE PUSH1 0xC SWAP1 SWAP3 MSTORE DUP1 MLOAD PUSH32 0x9E6C92D7BE355807BD948171438A5E65AAF9E4C36F1405C1B9CA25D27C4EA3A0 SWAP1 DUP2 SSTORE SWAP2 MLOAD SWAP1 SWAP3 POP PUSH3 0xB0F SWAP1 PUSH32 0x9E6C92D7BE355807BD948171438A5E65AAF9E4C36F1405C1B9CA25D27C4EA3A1 SWAP1 PUSH1 0xF PUSH3 0xFCE JUMP JUMPDEST POP POP PUSH1 0x40 DUP1 MLOAD DUP1 DUP3 ADD DUP3 MSTORE PUSH2 0x7D0 DUP2 MSTORE DUP2 MLOAD PUSH2 0x1E0 DUP2 ADD DUP4 MSTORE PUSH1 0x1 DUP1 DUP3 MSTORE PUSH0 PUSH1 0x20 DUP4 DUP2 ADD DUP3 SWAP1 MSTORE SWAP5 DUP4 ADD DUP2 SWAP1 MSTORE PUSH1 0x60 DUP4 ADD DUP2 SWAP1 MSTORE PUSH1 0x80 DUP4 ADD DUP3 SWAP1 MSTORE PUSH1 0xA0 DUP4 ADD DUP3 SWAP1 MSTORE PUSH1 0xC0 DUP4 ADD DUP2 SWAP1 MSTORE PUSH1 0xE0 DUP4 ADD DUP2 SWAP1 MSTORE PUSH2 0x100 DUP4 ADD DUP2 SWAP1 MSTORE PUSH2 0x120 DUP4 ADD DUP3 SWAP1 MSTORE PUSH2 0x140 DUP4 ADD DUP3 SWAP1 MSTORE PUSH2 0x160 DUP4 ADD DUP2 SWAP1 MSTORE PUSH2 0x180 DUP4 ADD DUP2 SWAP1 MSTORE PUSH2 0x1A0 DUP4 ADD DUP2 SWAP1 MSTORE PUSH2 0x1C0 DUP4 ADD SWAP2 SWAP1 SWAP2 MSTORE DUP4 DUP4 ADD SWAP2 DUP3 MSTORE PUSH1 0xB SWAP1 MSTORE PUSH1 0xC SWAP1 SWAP3 MSTORE DUP1 MLOAD PUSH32 0x6A9911425952520EFA6DE3784A0AC63C35D3C5BB392028EA0BEB0DC41A191957 SWAP1 DUP2 SSTORE SWAP2 MLOAD SWAP1 SWAP3 POP PUSH3 0xC01 SWAP1 PUSH32 0x6A9911425952520EFA6DE3784A0AC63C35D3C5BB392028EA0BEB0DC41A191958 SWAP1 PUSH1 0xF PUSH3 0xFCE JUMP JUMPDEST POP POP PUSH1 0x40 DUP1 MLOAD DUP1 DUP3 ADD DUP3 MSTORE PUSH2 0x2EE DUP2 MSTORE DUP2 MLOAD PUSH2 0x1E0 DUP2 ADD DUP4 MSTORE PUSH1 0x1 DUP1 DUP3 MSTORE PUSH1 0x20 DUP3 DUP2 ADD DUP3 SWAP1 MSTORE SWAP4 DUP3 ADD DUP2 SWAP1 MSTORE PUSH1 0x60 DUP3 ADD DUP2 SWAP1 MSTORE PUSH1 0x80 DUP3 ADD MSTORE PUSH0 PUSH1 0xA0 DUP3 ADD DUP2 SWAP1 MSTORE PUSH1 0xC0 DUP3 ADD DUP2 SWAP1 MSTORE PUSH1 0xE0 DUP3 ADD DUP2 SWAP1 MSTORE PUSH2 0x100 DUP3 ADD DUP2 SWAP1 MSTORE PUSH2 0x120 DUP3 ADD DUP2 SWAP1 MSTORE PUSH2 0x140 DUP3 ADD DUP2 SWAP1 MSTORE PUSH2 0x160 DUP3 ADD DUP2 SWAP1 MSTORE PUSH2 0x180 DUP3 ADD DUP2 SWAP1 MSTORE PUSH2 0x1A0 DUP3 ADD DUP2 SWAP1 MSTORE PUSH2 0x1C0 DUP3 ADD DUP2 SWAP1 MSTORE DUP4 DUP4 ADD SWAP2 DUP3 MSTORE PUSH1 0xC SWAP1 DUP2 SWAP1 MSTORE SWAP1 SWAP3 MSTORE DUP1 MLOAD PUSH32 0x37877AB6AC9E279D19A4DB3294B259B5A4163C0ED597627AE79E33D80CDE4DB8 SWAP1 DUP2 SSTORE SWAP2 MLOAD SWAP1 SWAP3 POP PUSH3 0xCF0 SWAP1 PUSH32 0x37877AB6AC9E279D19A4DB3294B259B5A4163C0ED597627AE79E33D80CDE4DB9 SWAP1 PUSH1 0xF PUSH3 0xFCE JUMP JUMPDEST POP POP PUSH1 0x40 DUP1 MLOAD DUP1 DUP3 ADD DUP3 MSTORE PUSH2 0x2EE DUP2 MSTORE DUP2 MLOAD PUSH2 0x1E0 DUP2 ADD DUP4 MSTORE PUSH0 DUP1 DUP3 MSTORE PUSH1 0x20 DUP3 DUP2 ADD DUP3 SWAP1 MSTORE SWAP4 DUP3 ADD DUP2 SWAP1 MSTORE PUSH1 0x60 DUP3 ADD DUP2 SWAP1 MSTORE PUSH1 0x80 DUP3 ADD DUP2 SWAP1 MSTORE PUSH1 0x1 PUSH1 0xA0 DUP4 ADD DUP2 SWAP1 MSTORE PUSH1 0xC0 DUP4 ADD DUP2 SWAP1 MSTORE PUSH1 0xE0 DUP4 ADD DUP2 SWAP1 MSTORE PUSH2 0x100 DUP4 ADD DUP2 SWAP1 MSTORE PUSH2 0x120 DUP4 ADD MSTORE PUSH2 0x140 DUP3 ADD DUP2 SWAP1 MSTORE PUSH2 0x160 DUP3 ADD DUP2 SWAP1 MSTORE PUSH2 0x180 DUP3 ADD DUP2 SWAP1 MSTORE PUSH2 0x1A0 DUP3 ADD DUP2 SWAP1 MSTORE PUSH2 0x1C0 DUP3 ADD DUP2 SWAP1 MSTORE DUP4 DUP4 ADD SWAP2 DUP3 MSTORE PUSH1 0xD SWAP1 MSTORE PUSH1 0xC SWAP1 SWAP3 MSTORE DUP1 MLOAD PUSH32 0x551134C3788A756A109C6E227F794518FEF985FA2BA3FAC727BCD6DAC5E98E8F SWAP1 DUP2 SSTORE SWAP2 MLOAD SWAP1 SWAP3 POP PUSH3 0xDDF SWAP1 PUSH32 0x551134C3788A756A109C6E227F794518FEF985FA2BA3FAC727BCD6DAC5E98E90 SWAP1 PUSH1 0xF PUSH3 0xFCE JUMP JUMPDEST POP POP PUSH1 0x40 DUP1 MLOAD DUP1 DUP3 ADD DUP3 MSTORE PUSH2 0x2EE DUP2 MSTORE DUP2 MLOAD PUSH2 0x1E0 DUP2 ADD DUP4 MSTORE PUSH0 DUP1 DUP3 MSTORE PUSH1 0x20 DUP3 DUP2 ADD DUP3 SWAP1 MSTORE SWAP4 DUP3 ADD DUP2 SWAP1 MSTORE PUSH1 0x60 DUP3 ADD DUP2 SWAP1 MSTORE PUSH1 0x80 DUP3 ADD DUP2 SWAP1 MSTORE PUSH1 0xA0 DUP3 ADD DUP2 SWAP1 MSTORE PUSH1 0xC0 DUP3 ADD DUP2 SWAP1 MSTORE PUSH1 0xE0 DUP3 ADD DUP2 SWAP1 MSTORE PUSH2 0x100 DUP3 ADD DUP2 SWAP1 MSTORE PUSH2 0x120 DUP3 ADD DUP2 SWAP1 MSTORE PUSH1 0x1 PUSH2 0x140 DUP4 ADD DUP2 SWAP1 MSTORE PUSH2 0x160 DUP4 ADD DUP2 SWAP1 MSTORE PUSH2 0x180 DUP4 ADD DUP2 SWAP1 MSTORE PUSH2 0x1A0 DUP4 ADD DUP2 SWAP1 MSTORE PUSH2 0x1C0 DUP4 ADD MSTORE DUP4 DUP4 ADD SWAP2 DUP3 MSTORE PUSH1 0xE SWAP1 MSTORE PUSH1 0xC SWAP1 SWAP3 MSTORE DUP1 MLOAD PUSH32 0x4C711C77A2730B2744C96EF60E2967C2B4247D6A372F8B2E95C748D1459B2380 SWAP1 DUP2 SSTORE SWAP2 MLOAD SWAP1 SWAP3 POP PUSH3 0xECE SWAP1 PUSH32 0x4C711C77A2730B2744C96EF60E2967C2B4247D6A372F8B2E95C748D1459B2381 SWAP1 PUSH1 0xF PUSH3 0xFCE JUMP JUMPDEST POP POP PUSH1 0x40 DUP1 MLOAD DUP1 DUP3 ADD DUP3 MSTORE PUSH2 0x1F4 DUP2 MSTORE DUP2 MLOAD PUSH2 0x1E0 DUP2 ADD DUP4 MSTORE PUSH1 0x1 DUP1 DUP3 MSTORE PUSH0 PUSH1 0x20 DUP4 DUP2 ADD DUP3 SWAP1 MSTORE SWAP5 DUP4 ADD DUP2 SWAP1 MSTORE PUSH1 0x60 DUP4 ADD DUP2 SWAP1 MSTORE PUSH1 0x80 DUP4 ADD DUP3 SWAP1 MSTORE PUSH1 0xA0 DUP4 ADD DUP2 SWAP1 MSTORE PUSH1 0xC0 DUP4 ADD DUP3 SWAP1 MSTORE PUSH1 0xE0 DUP4 ADD DUP2 SWAP1 MSTORE PUSH2 0x100 DUP4 ADD DUP3 SWAP1 MSTORE PUSH2 0x120 DUP4 ADD DUP2 SWAP1 MSTORE PUSH2 0x140 DUP4 ADD DUP2 SWAP1 MSTORE PUSH2 0x160 DUP4 ADD DUP2 SWAP1 MSTORE PUSH2 0x180 DUP4 ADD SWAP2 SWAP1 SWAP2 MSTORE PUSH2 0x1A0 DUP3 ADD DUP2 SWAP1 MSTORE PUSH2 0x1C0 DUP3 ADD DUP2 SWAP1 MSTORE DUP4 DUP4 ADD SWAP2 DUP3 MSTORE PUSH1 0xF SWAP1 DUP2 SWAP1 MSTORE PUSH1 0xC SWAP1 SWAP4 MSTORE DUP2 MLOAD PUSH32 0x977A47AF6886C81CCCBA9CEB5316EC9B4027C59AC276DE3E2CB39EC8AF72EE7B SWAP1 DUP2 SSTORE SWAP1 MLOAD SWAP2 SWAP4 POP SWAP2 PUSH3 0xFC1 SWAP2 PUSH32 0x977A47AF6886C81CCCBA9CEB5316EC9B4027C59AC276DE3E2CB39EC8AF72EE7C SWAP2 PUSH3 0xFCE JUMP JUMPDEST POP SWAP1 POP POP POP POP POP PUSH3 0x10DD JUMP JUMPDEST PUSH1 0x1 DUP4 ADD SWAP2 DUP4 SWAP1 DUP3 ISZERO PUSH3 0x1052 JUMPI SWAP2 PUSH1 0x20 MUL DUP3 ADD PUSH0 JUMPDEST DUP4 DUP3 GT ISZERO PUSH3 0x1022 JUMPI DUP4 MLOAD DUP4 DUP3 PUSH2 0x100 EXP DUP2 SLOAD DUP2 PUSH1 0xFF MUL NOT AND SWAP1 DUP4 ISZERO ISZERO MUL OR SWAP1 SSTORE POP SWAP3 PUSH1 0x20 ADD SWAP3 PUSH1 0x1 ADD PUSH1 0x20 DUP2 PUSH0 ADD DIV SWAP3 DUP4 ADD SWAP3 PUSH1 0x1 SUB MUL PUSH3 0xFE4 JUMP JUMPDEST DUP1 ISZERO PUSH3 0x1050 JUMPI DUP3 DUP2 PUSH2 0x100 EXP DUP2 SLOAD SWAP1 PUSH1 0xFF MUL NOT AND SWAP1 SSTORE PUSH1 0x1 ADD PUSH1 0x20 DUP2 PUSH0 ADD DIV SWAP3 DUP4 ADD SWAP3 PUSH1 0x1 SUB MUL PUSH3 0x1022 JUMP JUMPDEST POP JUMPDEST POP PUSH3 0x1060 SWAP3 SWAP2 POP PUSH3 0x1064 JUMP JUMPDEST POP SWAP1 JUMP JUMPDEST JUMPDEST DUP1 DUP3 GT ISZERO PUSH3 0x1060 JUMPI PUSH0 DUP2 SSTORE PUSH1 0x1 ADD PUSH3 0x1065 JUMP JUMPDEST DUP1 MLOAD PUSH1 0x1 PUSH1 0x1 PUSH1 0xA0 SHL SUB DUP2 AND DUP2 EQ PUSH3 0x1091 JUMPI PUSH0 DUP1 REVERT JUMPDEST SWAP2 SWAP1 POP JUMP JUMPDEST PUSH0 DUP1 PUSH0 PUSH1 0x60 DUP5 DUP7 SUB SLT ISZERO PUSH3 0x10A9 JUMPI PUSH0 DUP1 REVERT JUMPDEST PUSH3 0x10B4 DUP5 PUSH3 0x107A JUMP JUMPDEST SWAP3 POP PUSH3 0x10C4 PUSH1 0x20 DUP6 ADD PUSH3 0x107A JUMP JUMPDEST SWAP2 POP PUSH3 0x10D4 PUSH1 0x40 DUP6 ADD PUSH3 0x107A JUMP JUMPDEST SWAP1 POP SWAP3 POP SWAP3 POP SWAP3 JUMP JUMPDEST PUSH2 0x57FA DUP1 PUSH3 0x10EB PUSH0 CODECOPY PUSH0 RETURN INVALID PUSH1 0x80 PUSH1 0x40 MSTORE CALLVALUE DUP1 ISZERO PUSH2 0xF JUMPI PUSH0 DUP1 REVERT JUMPDEST POP PUSH1 0x4 CALLDATASIZE LT PUSH2 0x26B JUMPI PUSH0 CALLDATALOAD PUSH1 0xE0 SHR DUP1 PUSH4 0x9188483B GT PUSH2 0x14B JUMPI DUP1 PUSH4 0xE3DD6664 GT PUSH2 0xBF JUMPI DUP1 PUSH4 0xF538FCA4 GT PUSH2 0x84 JUMPI DUP1 PUSH4 0xF538FCA4 EQ PUSH2 0x6A4 JUMPI DUP1 PUSH4 0xF71D96CB EQ PUSH2 0x6B7 JUMPI DUP1 PUSH4 0xF7EAD092 EQ PUSH2 0x765 JUMPI DUP1 PUSH4 0xF9B2A8BC EQ PUSH2 0x76E JUMPI DUP1 PUSH4 0xFB632B7C EQ PUSH2 0x79C JUMPI DUP1 PUSH4 0xFC0C546A EQ PUSH2 0x7A5 JUMPI PUSH0 DUP1 REVERT JUMPDEST DUP1 PUSH4 0xE3DD6664 EQ PUSH2 0x627 JUMPI DUP1 PUSH4 0xE5A84FEE EQ PUSH2 0x651 JUMPI DUP1 PUSH4 0xEBDA5F1C EQ PUSH2 0x664 JUMPI DUP1 PUSH4 0xEFBD7BD2 EQ PUSH2 0x688 JUMPI DUP1 PUSH4 0xF2FDE38B EQ PUSH2 0x691 JUMPI PUSH0 DUP1 REVERT JUMPDEST DUP1 PUSH4 0xAAF5EB68 GT PUSH2 0x110 JUMPI DUP1 PUSH4 0xAAF5EB68 EQ PUSH2 0x575 JUMPI DUP1 PUSH4 0xAC451185 EQ PUSH2 0x584 JUMPI DUP1 PUSH4 0xB42A275E EQ PUSH2 0x5A4 JUMPI DUP1 PUSH4 0xC1686071 EQ PUSH2 0x5AC JUMPI DUP1 PUSH4 0xCDE40637 EQ PUSH2 0x5E3 JUMPI DUP1 PUSH4 0xD4D51269 EQ PUSH2 0x606 JUMPI PUSH0 DUP1 REVERT JUMPDEST DUP1 PUSH4 0x9188483B EQ PUSH2 0x527 JUMPI DUP1 PUSH4 0x9619367D EQ PUSH2 0x530 JUMPI DUP1 PUSH4 0xA2F77BCC EQ PUSH2 0x539 JUMPI DUP1 PUSH4 0xA3F67D6D EQ PUSH2 0x559 JUMPI DUP1 PUSH4 0xA9FF89F9 EQ PUSH2 0x562 JUMPI PUSH0 DUP1 REVERT JUMPDEST DUP1 PUSH4 0x41FAC50F GT PUSH2 0x1E2 JUMPI DUP1 PUSH4 0x7526D839 GT PUSH2 0x1A7 JUMPI DUP1 PUSH4 0x7526D839 EQ PUSH2 0x46F JUMPI DUP1 PUSH4 0x7BC712CD EQ PUSH2 0x4C8 JUMPI DUP1 PUSH4 0x7DC0D1D0 EQ PUSH2 0x4DB JUMPI DUP1 PUSH4 0x881EFF1E EQ PUSH2 0x4EE JUMPI DUP1 PUSH4 0x88EA41B9 EQ PUSH2 0x501 JUMPI DUP1 PUSH4 0x8DA5CB5B EQ PUSH2 0x514 JUMPI PUSH0 DUP1 REVERT JUMPDEST DUP1 PUSH4 0x41FAC50F EQ PUSH2 0x3DA JUMPI DUP1 PUSH4 0x5CD4818E EQ PUSH2 0x3EF JUMPI DUP1 PUSH4 0x6A1738DA EQ PUSH2 0x412 JUMPI DUP1 PUSH4 0x6C1A6CB1 EQ PUSH2 0x425 JUMPI DUP1 PUSH4 0x6C7AC9D8 EQ PUSH2 0x444 JUMPI PUSH0 DUP1 REVERT JUMPDEST DUP1 PUSH4 0x2643EF1D GT PUSH2 0x233 JUMPI DUP1 PUSH4 0x2643EF1D EQ PUSH2 0x33E JUMPI DUP1 PUSH4 0x2E5B2168 EQ PUSH2 0x368 JUMPI DUP1 PUSH4 0x30CCEBB5 EQ PUSH2 0x371 JUMPI DUP1 PUSH4 0x322668A4 EQ PUSH2 0x39F JUMPI DUP1 PUSH4 0x38E49CB8 EQ PUSH2 0x3A8 JUMPI DUP1 PUSH4 0x3C28F9CE EQ PUSH2 0x3C7 JUMPI PUSH0 DUP1 REVERT JUMPDEST DUP1 PUSH4 0x117A5B90 EQ PUSH2 0x26F JUMPI DUP1 PUSH4 0x1B43E5AF EQ PUSH2 0x2E9 JUMPI DUP1 PUSH4 0x1B7953EE EQ PUSH2 0x300 JUMPI DUP1 PUSH4 0x1F69565F EQ PUSH2 0x309 JUMPI DUP1 PUSH4 0x21E8A62C EQ PUSH2 0x329 JUMPI JUMPDEST PUSH0 DUP1 REVERT JUMPDEST PUSH2 0x2CB PUSH2 0x27D CALLDATASIZE PUSH1 0x4 PUSH2 0x4892 JUMP JUMPDEST PUSH1 0x13 PUSH1 0x20 MSTORE PUSH0 SWAP1 DUP2 MSTORE PUSH1 0x40 SWAP1 KECCAK256 DUP1 SLOAD PUSH1 0x1 DUP3 ADD SLOAD PUSH1 0x2 DUP4 ADD SLOAD PUSH1 0x3 DUP5 ADD SLOAD PUSH1 0x4 DUP6 ADD SLOAD PUSH1 0x5 DUP7 ADD SLOAD PUSH1 0x6 DUP8 ADD SLOAD PUSH1 0x7 DUP9 ADD SLOAD PUSH1 0x8 SWAP1 SWAP9 ADD SLOAD PUSH1 0xFF SWAP1 SWAP8 AND SWAP8 SWAP6 SWAP7 SWAP5 SWAP6 SWAP4 SWAP5 SWAP3 SWAP4 SWAP2 SWAP3 SWAP1 SWAP2 SWAP1 DUP10 JUMP JUMPDEST PUSH1 0x40 MLOAD PUSH2 0x2E0 SWAP10 SWAP9 SWAP8 SWAP7 SWAP6 SWAP5 SWAP4 SWAP3 SWAP2 SWAP1 PUSH2 0x48DD JUMP JUMPDEST PUSH1 0x40 MLOAD DUP1 SWAP2 SUB SWAP1 RETURN JUMPDEST PUSH2 0x2F2 PUSH1 0xA SLOAD DUP2 JUMP JUMPDEST PUSH1 0x40 MLOAD SWAP1 DUP2 MSTORE PUSH1 0x20 ADD PUSH2 0x2E0 JUMP JUMPDEST PUSH2 0x2F2 PUSH1 0xD SLOAD DUP2 JUMP JUMPDEST PUSH2 0x31C PUSH2 0x317 CALLDATASIZE PUSH1 0x4 PUSH2 0x494E JUMP JUMPDEST PUSH2 0x7B8 JUMP JUMPDEST PUSH1 0x40 MLOAD PUSH2 0x2E0 SWAP2 SWAP1 PUSH2 0x49B6 JUMP JUMPDEST PUSH2 0x33C PUSH2 0x337 CALLDATASIZE PUSH1 0x4 PUSH2 0x4AE5 JUMP JUMPDEST PUSH2 0xB8D JUMP JUMPDEST STOP JUMPDEST PUSH2 0x2F2 PUSH2 0x34C CALLDATASIZE PUSH1 0x4 PUSH2 0x4B84 JUMP JUMPDEST PUSH1 0x16 PUSH1 0x20 SWAP1 DUP2 MSTORE PUSH0 SWAP3 DUP4 MSTORE PUSH1 0x40 DUP1 DUP5 KECCAK256 SWAP1 SWAP2 MSTORE SWAP1 DUP3 MSTORE SWAP1 KECCAK256 SLOAD DUP2 JUMP JUMPDEST PUSH2 0x2F2 PUSH1 0x6 SLOAD DUP2 JUMP JUMPDEST PUSH2 0x384 PUSH2 0x37F CALLDATASIZE PUSH1 0x4 PUSH2 0x494E JUMP JUMPDEST PUSH2 0x131E JUMP JUMPDEST PUSH1 0x40 DUP1 MLOAD DUP3 MLOAD DUP2 MSTORE PUSH1 0x20 SWAP3 DUP4 ADD MLOAD SWAP3 DUP2 ADD SWAP3 SWAP1 SWAP3 MSTORE ADD PUSH2 0x2E0 JUMP JUMPDEST PUSH2 0x2F2 PUSH1 0x8 SLOAD DUP2 JUMP JUMPDEST PUSH2 0x2F2 PUSH2 0x3B6 CALLDATASIZE PUSH1 0x4 PUSH2 0x494E JUMP JUMPDEST PUSH1 0x10 PUSH1 0x20 MSTORE PUSH0 SWAP1 DUP2 MSTORE PUSH1 0x40 SWAP1 KECCAK256 SLOAD DUP2 JUMP JUMPDEST PUSH2 0x33C PUSH2 0x3D5 CALLDATASIZE PUSH1 0x4 PUSH2 0x4BBB JUMP JUMPDEST PUSH2 0x1417 JUMP JUMPDEST PUSH2 0x3E2 PUSH2 0x152E JUMP JUMPDEST PUSH1 0x40 MLOAD PUSH2 0x2E0 SWAP2 SWAP1 PUSH2 0x4BE5 JUMP JUMPDEST PUSH2 0x402 PUSH2 0x3FD CALLDATASIZE PUSH1 0x4 PUSH2 0x4892 JUMP JUMPDEST PUSH2 0x15A7 JUMP JUMPDEST PUSH1 0x40 MLOAD SWAP1 ISZERO ISZERO DUP2 MSTORE PUSH1 0x20 ADD PUSH2 0x2E0 JUMP JUMPDEST PUSH2 0x33C PUSH2 0x420 CALLDATASIZE PUSH1 0x4 PUSH2 0x4DC0 JUMP JUMPDEST PUSH2 0x1969 JUMP JUMPDEST PUSH2 0x2F2 PUSH2 0x433 CALLDATASIZE PUSH1 0x4 PUSH2 0x4892 JUMP JUMPDEST PUSH1 0xC PUSH1 0x20 MSTORE PUSH0 SWAP1 DUP2 MSTORE PUSH1 0x40 SWAP1 KECCAK256 SLOAD DUP2 JUMP JUMPDEST PUSH1 0x2 SLOAD PUSH2 0x457 SWAP1 PUSH1 0x1 PUSH1 0x1 PUSH1 0xA0 SHL SUB AND DUP2 JUMP JUMPDEST PUSH1 0x40 MLOAD PUSH1 0x1 PUSH1 0x1 PUSH1 0xA0 SHL SUB SWAP1 SWAP2 AND DUP2 MSTORE PUSH1 0x20 ADD PUSH2 0x2E0 JUMP JUMPDEST PUSH2 0x4A6 PUSH2 0x47D CALLDATASIZE PUSH1 0x4 PUSH2 0x4892 JUMP JUMPDEST PUSH1 0x14 PUSH1 0x20 MSTORE PUSH0 SWAP1 DUP2 MSTORE PUSH1 0x40 SWAP1 KECCAK256 DUP1 SLOAD PUSH1 0x1 DUP3 ADD SLOAD PUSH1 0x2 DUP4 ADD SLOAD PUSH1 0x3 SWAP1 SWAP4 ADD SLOAD SWAP2 SWAP3 SWAP1 SWAP2 PUSH1 0xFF AND DUP5 JUMP JUMPDEST PUSH1 0x40 DUP1 MLOAD SWAP5 DUP6 MSTORE PUSH1 0x20 DUP6 ADD SWAP4 SWAP1 SWAP4 MSTORE SWAP2 DUP4 ADD MSTORE ISZERO ISZERO PUSH1 0x60 DUP3 ADD MSTORE PUSH1 0x80 ADD PUSH2 0x2E0 JUMP JUMPDEST PUSH2 0x33C PUSH2 0x4D6 CALLDATASIZE PUSH1 0x4 PUSH2 0x4F1C JUMP JUMPDEST PUSH2 0x1AB2 JUMP JUMPDEST PUSH1 0x3 SLOAD PUSH2 0x457 SWAP1 PUSH1 0x1 PUSH1 0x1 PUSH1 0xA0 SHL SUB AND DUP2 JUMP JUMPDEST PUSH2 0x33C PUSH2 0x4FC CALLDATASIZE PUSH1 0x4 PUSH2 0x4892 JUMP JUMPDEST PUSH2 0x1B07 JUMP JUMPDEST PUSH2 0x33C PUSH2 0x50F CALLDATASIZE PUSH1 0x4 PUSH2 0x4892 JUMP JUMPDEST PUSH2 0x1B36 JUMP JUMPDEST PUSH1 0x4 SLOAD PUSH2 0x457 SWAP1 PUSH1 0x1 PUSH1 0x1 PUSH1 0xA0 SHL SUB AND DUP2 JUMP JUMPDEST PUSH2 0x2F2 PUSH1 0xB SLOAD DUP2 JUMP JUMPDEST PUSH2 0x2F2 PUSH1 0x5 SLOAD DUP2 JUMP JUMPDEST PUSH2 0x54C PUSH2 0x547 CALLDATASIZE PUSH1 0x4 PUSH2 0x4892 JUMP JUMPDEST PUSH2 0x1B65 JUMP JUMPDEST PUSH1 0x40 MLOAD PUSH2 0x2E0 SWAP2 SWAP1 PUSH2 0x51F5 JUMP JUMPDEST PUSH2 0x2F2 PUSH1 0xE SLOAD DUP2 JUMP JUMPDEST PUSH2 0x54C PUSH2 0x570 CALLDATASIZE PUSH1 0x4 PUSH2 0x494E JUMP JUMPDEST PUSH2 0x1E9D JUMP JUMPDEST PUSH2 0x2F2 PUSH8 0xDE0B6B3A7640000 DUP2 JUMP JUMPDEST PUSH2 0x597 PUSH2 0x592 CALLDATASIZE PUSH1 0x4 PUSH2 0x5207 JUMP JUMPDEST PUSH2 0x2202 JUMP JUMPDEST PUSH1 0x40 MLOAD PUSH2 0x2E0 SWAP2 SWAP1 PUSH2 0x5227 JUMP JUMPDEST PUSH2 0x2F2 PUSH2 0x2689 JUMP JUMPDEST PUSH2 0x5D1 PUSH2 0x5BA CALLDATASIZE PUSH1 0x4 PUSH2 0x4892 JUMP JUMPDEST PUSH1 0x15 PUSH1 0x20 MSTORE PUSH0 SWAP1 DUP2 MSTORE PUSH1 0x40 SWAP1 KECCAK256 PUSH1 0x4 ADD SLOAD PUSH1 0xFF AND DUP2 JUMP JUMPDEST PUSH1 0x40 MLOAD PUSH1 0xFF SWAP1 SWAP2 AND DUP2 MSTORE PUSH1 0x20 ADD PUSH2 0x2E0 JUMP JUMPDEST PUSH2 0x5F6 PUSH2 0x5F1 CALLDATASIZE PUSH1 0x4 PUSH2 0x5289 JUMP JUMPDEST PUSH2 0x26FE JUMP JUMPDEST PUSH1 0x40 MLOAD PUSH2 0x2E0 SWAP5 SWAP4 SWAP3 SWAP2 SWAP1 PUSH2 0x52FB JUMP JUMPDEST PUSH2 0x619 PUSH2 0x614 CALLDATASIZE PUSH1 0x4 PUSH2 0x494E JUMP JUMPDEST PUSH2 0x27B2 JUMP JUMPDEST PUSH1 0x40 MLOAD PUSH2 0x2E0 SWAP3 SWAP2 SWAP1 PUSH2 0x5333 JUMP JUMPDEST PUSH2 0x2F2 PUSH2 0x635 CALLDATASIZE PUSH1 0x4 PUSH2 0x5207 JUMP JUMPDEST PUSH1 0x11 PUSH1 0x20 SWAP1 DUP2 MSTORE PUSH0 SWAP3 DUP4 MSTORE PUSH1 0x40 DUP1 DUP5 KECCAK256 SWAP1 SWAP2 MSTORE SWAP1 DUP3 MSTORE SWAP1 KECCAK256 SLOAD DUP2 JUMP JUMPDEST PUSH2 0x5F6 PUSH2 0x65F CALLDATASIZE PUSH1 0x4 PUSH2 0x53B1 JUMP JUMPDEST PUSH2 0x28EC JUMP JUMPDEST PUSH2 0x677 PUSH2 0x672 CALLDATASIZE PUSH1 0x4 PUSH2 0x4892 JUMP JUMPDEST PUSH2 0x2D08 JUMP JUMPDEST PUSH1 0x40 MLOAD PUSH2 0x2E0 SWAP6 SWAP5 SWAP4 SWAP3 SWAP2 SWAP1 PUSH2 0x5450 JUMP JUMPDEST PUSH2 0x2F2 PUSH1 0x7 SLOAD DUP2 JUMP JUMPDEST PUSH2 0x33C PUSH2 0x69F CALLDATASIZE PUSH1 0x4 PUSH2 0x494E JUMP JUMPDEST PUSH2 0x3399 JUMP JUMPDEST PUSH2 0x597 PUSH2 0x6B2 CALLDATASIZE PUSH1 0x4 PUSH2 0x549D JUMP JUMPDEST PUSH2 0x33E5 JUMP JUMPDEST PUSH2 0x719 PUSH2 0x6C5 CALLDATASIZE PUSH1 0x4 PUSH2 0x4892 JUMP JUMPDEST PUSH1 0xF PUSH1 0x20 MSTORE PUSH0 SWAP1 DUP2 MSTORE PUSH1 0x40 SWAP1 KECCAK256 DUP1 SLOAD PUSH1 0x1 DUP3 ADD SLOAD PUSH1 0x2 DUP4 ADD SLOAD PUSH1 0x3 DUP5 ADD SLOAD PUSH1 0x4 DUP6 ADD SLOAD PUSH1 0x5 DUP7 ADD SLOAD PUSH1 0x6 DUP8 ADD SLOAD PUSH1 0x7 DUP9 ADD SLOAD PUSH1 0x8 SWAP1 SWAP9 ADD SLOAD SWAP7 SWAP8 PUSH1 0x1 PUSH1 0x1 PUSH1 0xA0 SHL SUB SWAP1 SWAP7 AND SWAP7 SWAP5 SWAP6 SWAP4 SWAP5 SWAP3 SWAP4 SWAP2 SWAP3 SWAP1 SWAP2 SWAP1 DUP10 JUMP JUMPDEST PUSH1 0x40 DUP1 MLOAD SWAP10 DUP11 MSTORE PUSH1 0x1 PUSH1 0x1 PUSH1 0xA0 SHL SUB SWAP1 SWAP9 AND PUSH1 0x20 DUP11 ADD MSTORE SWAP7 DUP9 ADD SWAP6 SWAP1 SWAP6 MSTORE PUSH1 0x60 DUP8 ADD SWAP4 SWAP1 SWAP4 MSTORE PUSH1 0x80 DUP7 ADD SWAP2 SWAP1 SWAP2 MSTORE PUSH1 0xA0 DUP6 ADD MSTORE PUSH1 0xC0 DUP5 ADD MSTORE PUSH1 0xE0 DUP4 ADD MSTORE PUSH2 0x100 DUP3 ADD MSTORE PUSH2 0x120 ADD PUSH2 0x2E0 JUMP JUMPDEST PUSH2 0x2F2 PUSH1 0x9 SLOAD DUP2 JUMP JUMPDEST PUSH2 0x781 PUSH2 0x77C CALLDATASIZE PUSH1 0x4 PUSH2 0x4892 JUMP JUMPDEST PUSH2 0x39B2 JUMP JUMPDEST PUSH1 0x40 DUP1 MLOAD SWAP4 DUP5 MSTORE PUSH1 0x20 DUP5 ADD SWAP3 SWAP1 SWAP3 MSTORE SWAP1 DUP3 ADD MSTORE PUSH1 0x60 ADD PUSH2 0x2E0 JUMP JUMPDEST PUSH2 0x2F2 PUSH1 0x12 SLOAD DUP2 JUMP JUMPDEST PUSH1 0x1 SLOAD PUSH2 0x457 SWAP1 PUSH1 0x1 PUSH1 0x1 PUSH1 0xA0 SHL SUB AND DUP2 JUMP JUMPDEST PUSH2 0x806 PUSH1 0x40 MLOAD DUP1 PUSH2 0x100 ADD PUSH1 0x40 MSTORE DUP1 PUSH0 PUSH1 0x1 PUSH1 0x1 PUSH1 0xA0 SHL SUB AND DUP2 MSTORE PUSH1 0x20 ADD PUSH0 PUSH1 0xFF AND DUP2 MSTORE PUSH1 0x20 ADD PUSH1 0x60 DUP2 MSTORE PUSH1 0x20 ADD PUSH1 0x60 DUP2 MSTORE PUSH1 0x20 ADD PUSH0 DUP2 MSTORE PUSH1 0x20 ADD PUSH0 DUP2 MSTORE PUSH1 0x20 ADD PUSH0 DUP2 MSTORE PUSH1 0x20 ADD PUSH0 DUP2 MSTORE POP SWAP1 JUMP JUMPDEST PUSH1 0x40 DUP1 MLOAD PUSH2 0x100 DUP2 ADD DUP3 MSTORE PUSH1 0x1 SLOAD PUSH1 0x1 PUSH1 0x1 PUSH1 0xA0 SHL SUB AND DUP1 DUP3 MSTORE DUP3 MLOAD PUSH4 0x313CE567 PUSH1 0xE0 SHL DUP2 MSTORE SWAP3 MLOAD SWAP2 SWAP3 PUSH1 0x20 DUP1 DUP6 ADD SWAP4 PUSH4 0x313CE567 SWAP3 PUSH1 0x4 DUP1 DUP3 ADD SWAP4 SWAP3 SWAP2 DUP3 SWAP1 SUB ADD DUP2 DUP7 GAS STATICCALL ISZERO DUP1 ISZERO PUSH2 0x85B JUMPI RETURNDATASIZE PUSH0 DUP1 RETURNDATACOPY RETURNDATASIZE PUSH0 REVERT JUMPDEST POP POP POP POP PUSH1 0x40 MLOAD RETURNDATASIZE PUSH1 0x1F NOT PUSH1 0x1F DUP3 ADD AND DUP3 ADD DUP1 PUSH1 0x40 MSTORE POP DUP2 ADD SWAP1 PUSH2 0x87F SWAP2 SWAP1 PUSH2 0x54CF JUMP JUMPDEST PUSH1 0xFF AND DUP2 MSTORE PUSH1 0x20 ADD PUSH1 0x1 PUSH0 SWAP1 SLOAD SWAP1 PUSH2 0x100 EXP SWAP1 DIV PUSH1 0x1 PUSH1 0x1 PUSH1 0xA0 SHL SUB AND PUSH1 0x1 PUSH1 0x1 PUSH1 0xA0 SHL SUB AND PUSH4 0x6FDDE03 PUSH1 0x40 MLOAD DUP2 PUSH4 0xFFFFFFFF AND PUSH1 0xE0 SHL DUP2 MSTORE PUSH1 0x4 ADD PUSH0 PUSH1 0x40 MLOAD DUP1 DUP4 SUB DUP2 DUP7 GAS STATICCALL ISZERO DUP1 ISZERO PUSH2 0x8D6 JUMPI RETURNDATASIZE PUSH0 DUP1 RETURNDATACOPY RETURNDATASIZE PUSH0 REVERT JUMPDEST POP POP POP POP PUSH1 0x40 MLOAD RETURNDATASIZE PUSH0 DUP3 RETURNDATACOPY PUSH1 0x1F RETURNDATASIZE SWAP1 DUP2 ADD PUSH1 0x1F NOT AND DUP3 ADD PUSH1 0x40 MSTORE PUSH2 0x8FD SWAP2 SWAP1 DUP2 ADD SWAP1 PUSH2 0x5552 JUMP JUMPDEST DUP2 MSTORE PUSH1 0x20 ADD PUSH1 0x1 PUSH0 SWAP1 SLOAD SWAP1 PUSH2 0x100 EXP SWAP1 DIV PUSH1 0x1 PUSH1 0x1 PUSH1 0xA0 SHL SUB AND PUSH1 0x1 PUSH1 0x1 PUSH1 0xA0 SHL SUB AND PUSH4 0x95D89B41 PUSH1 0x40 MLOAD DUP2 PUSH4 0xFFFFFFFF AND PUSH1 0xE0 SHL DUP2 MSTORE PUSH1 0x4 ADD PUSH0 PUSH1 0x40 MLOAD DUP1 DUP4 SUB DUP2 DUP7 GAS STATICCALL ISZERO DUP1 ISZERO PUSH2 0x951 JUMPI RETURNDATASIZE PUSH0 DUP1 RETURNDATACOPY RETURNDATASIZE PUSH0 REVERT JUMPDEST POP POP POP POP PUSH1 0x40 MLOAD RETURNDATASIZE PUSH0 DUP3 RETURNDATACOPY PUSH1 0x1F RETURNDATASIZE SWAP1 DUP2 ADD PUSH1 0x1F NOT AND DUP3 ADD PUSH1 0x40 MSTORE PUSH2 0x978 SWAP2 SWAP1 DUP2 ADD SWAP1 PUSH2 0x5552 JUMP JUMPDEST DUP2 MSTORE PUSH1 0x20 ADD PUSH1 0x1 PUSH1 0x1 PUSH1 0xA0 SHL SUB DUP5 AND PUSH2 0x991 JUMPI PUSH0 PUSH2 0x9FD JUMP JUMPDEST PUSH1 0x1 SLOAD PUSH1 0x40 MLOAD PUSH4 0x70A08231 PUSH1 0xE0 SHL DUP2 MSTORE PUSH1 0x1 PUSH1 0x1 PUSH1 0xA0 SHL SUB DUP7 DUP2 AND PUSH1 0x4 DUP4 ADD MSTORE SWAP1 SWAP2 AND SWAP1 PUSH4 0x70A08231 SWAP1 PUSH1 0x24 ADD PUSH1 0x20 PUSH1 0x40 MLOAD DUP1 DUP4 SUB DUP2 DUP7 GAS STATICCALL ISZERO DUP1 ISZERO PUSH2 0x9D9 JUMPI RETURNDATASIZE PUSH0 DUP1 RETURNDATACOPY RETURNDATASIZE PUSH0 REVERT JUMPDEST POP POP POP POP PUSH1 0x40 MLOAD RETURNDATASIZE PUSH1 0x1F NOT PUSH1 0x1F DUP3 ADD AND DUP3 ADD DUP1 PUSH1 0x40 MSTORE POP DUP2 ADD SWAP1 PUSH2 0x9FD SWAP2 SWAP1 PUSH2 0x5583 JUMP JUMPDEST DUP2 MSTORE PUSH1 0x20 ADD PUSH1 0x1 PUSH1 0x1 PUSH1 0xA0 SHL SUB DUP5 AND PUSH2 0xA16 JUMPI PUSH0 PUSH2 0xA88 JUMP JUMPDEST PUSH1 0x1 SLOAD PUSH1 0x40 MLOAD PUSH4 0x6EB1769F PUSH1 0xE1 SHL DUP2 MSTORE PUSH1 0x1 PUSH1 0x1 PUSH1 0xA0 SHL SUB DUP7 DUP2 AND PUSH1 0x4 DUP4 ADD MSTORE ADDRESS PUSH1 0x24 DUP4 ADD MSTORE SWAP1 SWAP2 AND SWAP1 PUSH4 0xDD62ED3E SWAP1 PUSH1 0x44 ADD PUSH1 0x20 PUSH1 0x40 MLOAD DUP1 DUP4 SUB DUP2 DUP7 GAS STATICCALL ISZERO DUP1 ISZERO PUSH2 0xA64 JUMPI RETURNDATASIZE PUSH0 DUP1 RETURNDATACOPY RETURNDATASIZE PUSH0 REVERT JUMPDEST POP POP POP POP PUSH1 0x40 MLOAD RETURNDATASIZE PUSH1 0x1F NOT PUSH1 0x1F DUP3 ADD AND DUP3 ADD DUP1 PUSH1 0x40 MSTORE POP DUP2 ADD SWAP1 PUSH2 0xA88 SWAP2 SWAP1 PUSH2 0x5583 JUMP JUMPDEST DUP2 MSTORE PUSH1 0x20 ADD PUSH1 0x1 PUSH1 0x1 PUSH1 0xA0 SHL SUB DUP5 AND PUSH2 0xAA1 JUMPI PUSH0 PUSH2 0xB0D JUMP JUMPDEST PUSH1 0x2 SLOAD PUSH1 0x40 MLOAD PUSH4 0xC084B10B PUSH1 0xE0 SHL DUP2 MSTORE PUSH1 0x1 PUSH1 0x1 PUSH1 0xA0 SHL SUB DUP7 DUP2 AND PUSH1 0x4 DUP4 ADD MSTORE SWAP1 SWAP2 AND SWAP1 PUSH4 0xC084B10B SWAP1 PUSH1 0x24 ADD PUSH1 0x20 PUSH1 0x40 MLOAD DUP1 DUP4 SUB DUP2 DUP7 GAS STATICCALL ISZERO DUP1 ISZERO PUSH2 0xAE9 JUMPI RETURNDATASIZE PUSH0 DUP1 RETURNDATACOPY RETURNDATASIZE PUSH0 REVERT JUMPDEST POP POP POP POP PUSH1 0x40 MLOAD RETURNDATASIZE PUSH1 0x1F NOT PUSH1 0x1F DUP3 ADD AND DUP3 ADD DUP1 PUSH1 0x40 MSTORE POP DUP2 ADD SWAP1 PUSH2 0xB0D SWAP2 SWAP1 PUSH2 0x5583 JUMP JUMPDEST DUP2 MSTORE PUSH1 0x2 SLOAD PUSH1 0x40 MLOAD PUSH4 0x11A34965 PUSH1 0xE3 SHL DUP2 MSTORE ADDRESS PUSH1 0x4 DUP3 ADD MSTORE PUSH1 0x20 SWAP1 SWAP3 ADD SWAP2 PUSH1 0x1 PUSH1 0x1 PUSH1 0xA0 SHL SUB SWAP1 SWAP2 AND SWAP1 PUSH4 0x8D1A4B28 SWAP1 PUSH1 0x24 ADD PUSH0 PUSH1 0x40 MLOAD DUP1 DUP4 SUB DUP2 DUP7 GAS STATICCALL ISZERO DUP1 ISZERO PUSH2 0xB5A JUMPI RETURNDATASIZE PUSH0 DUP1 RETURNDATACOPY RETURNDATASIZE PUSH0 REVERT JUMPDEST POP POP POP POP PUSH1 0x40 MLOAD RETURNDATASIZE PUSH0 DUP3 RETURNDATACOPY PUSH1 0x1F RETURNDATASIZE SWAP1 DUP2 ADD PUSH1 0x1F NOT AND DUP3 ADD PUSH1 0x40 MSTORE PUSH2 0xB81 SWAP2 SWAP1 DUP2 ADD SWAP1 PUSH2 0x55A5 JUMP JUMPDEST PUSH1 0x80 ADD MLOAD SWAP1 MSTORE SWAP3 SWAP2 POP POP JUMP JUMPDEST PUSH2 0xB95 PUSH2 0x39E3 JUMP JUMPDEST PUSH1 0x3 SLOAD PUSH1 0x1 PUSH1 0x1 PUSH1 0xA0 SHL SUB AND CALLER EQ PUSH2 0xBC8 JUMPI PUSH1 0x40 MLOAD PUSH3 0x461BCD PUSH1 0xE5 SHL DUP2 MSTORE PUSH1 0x4 ADD PUSH2 0xBBF SWAP1 PUSH2 0x568D JUMP JUMPDEST PUSH1 0x40 MLOAD DUP1 SWAP2 SUB SWAP1 REVERT JUMPDEST PUSH2 0xBD1 DUP6 PUSH2 0x15A7 JUMP JUMPDEST ISZERO PUSH2 0x12E0 JUMPI PUSH0 DUP6 DUP2 MSTORE PUSH1 0x13 PUSH1 0x20 MSTORE PUSH1 0x40 SWAP1 KECCAK256 PUSH1 0x2 DUP2 SLOAD PUSH1 0xFF AND PUSH1 0x4 DUP2 GT ISZERO PUSH2 0xBFB JUMPI PUSH2 0xBFB PUSH2 0x48A9 JUMP JUMPDEST SUB PUSH2 0x12AD JUMPI PUSH0 DUP7 DUP2 MSTORE PUSH1 0x15 PUSH1 0x20 SWAP1 DUP2 MSTORE PUSH1 0x40 DUP1 DUP4 KECCAK256 PUSH1 0x5 DUP2 ADD DUP1 SLOAD DUP4 MLOAD DUP2 DUP7 MUL DUP2 ADD DUP7 ADD SWAP1 SWAP5 MSTORE DUP1 DUP5 MSTORE SWAP2 SWAP5 SWAP4 PUSH2 0xC84 SWAP4 SWAP3 SWAP1 DUP4 ADD DUP3 DUP3 DUP1 ISZERO PUSH2 0xC7A JUMPI PUSH1 0x20 MUL DUP3 ADD SWAP2 SWAP1 PUSH0 MSTORE PUSH1 0x20 PUSH0 KECCAK256 SWAP1 PUSH0 SWAP1 JUMPDEST DUP3 SLOAD PUSH2 0x100 DUP4 SWAP1 EXP SWAP1 DIV PUSH1 0xFF AND ISZERO ISZERO DUP2 MSTORE PUSH1 0x20 PUSH1 0x1 SWAP3 DUP4 ADD DUP2 DUP2 DIV SWAP5 DUP6 ADD SWAP5 SWAP1 SWAP4 SUB SWAP1 SWAP3 MUL SWAP2 ADD DUP1 DUP5 GT PUSH2 0xC49 JUMPI SWAP1 POP JUMPDEST POP POP POP POP POP PUSH2 0x3A3A JUMP JUMPDEST DUP4 PUSH1 0x7 ADD SLOAD PUSH2 0xC93 SWAP2 SWAP1 PUSH2 0x56C6 JUMP JUMPDEST PUSH1 0x2 DUP5 ADD SLOAD PUSH0 SWAP1 DUP2 MSTORE PUSH1 0xF PUSH1 0x20 MSTORE PUSH1 0x40 SWAP1 KECCAK256 PUSH1 0x1 DUP2 ADD SLOAD SWAP2 SWAP3 POP SWAP1 PUSH1 0x1 PUSH1 0x1 PUSH1 0xA0 SHL SUB SWAP1 DUP2 AND SWAP1 DUP12 AND DUP2 SUB PUSH2 0x1277 JUMPI PUSH1 0x2 SLOAD PUSH1 0x40 MLOAD PUSH4 0xC084B10B PUSH1 0xE0 SHL DUP2 MSTORE PUSH1 0x1 PUSH1 0x1 PUSH1 0xA0 SHL SUB DUP4 DUP2 AND PUSH1 0x4 DUP4 ADD MSTORE DUP6 SWAP3 AND SWAP1 PUSH4 0xC084B10B SWAP1 PUSH1 0x24 ADD PUSH1 0x20 PUSH1 0x40 MLOAD DUP1 DUP4 SUB DUP2 DUP7 GAS STATICCALL ISZERO DUP1 ISZERO PUSH2 0xD0A JUMPI RETURNDATASIZE PUSH0 DUP1 RETURNDATACOPY RETURNDATASIZE PUSH0 REVERT JUMPDEST POP POP POP POP PUSH1 0x40 MLOAD RETURNDATASIZE PUSH1 0x1F NOT PUSH1 0x1F DUP3 ADD AND DUP3 ADD DUP1 PUSH1 0x40 MSTORE POP DUP2 ADD SWAP1 PUSH2 0xD2E SWAP2 SWAP1 PUSH2 0x5583 JUMP JUMPDEST LT PUSH2 0x124A JUMPI PUSH1 0x2 SLOAD PUSH1 0x40 MLOAD PUSH4 0x785283ED PUSH1 0xE1 SHL DUP2 MSTORE PUSH1 0x1 PUSH1 0x1 PUSH1 0xA0 SHL SUB DUP4 DUP2 AND PUSH1 0x4 DUP4 ADD MSTORE PUSH1 0x24 DUP3 ADD DUP7 SWAP1 MSTORE SWAP1 SWAP2 AND SWAP1 PUSH4 0xF0A507DA SWAP1 PUSH1 0x44 ADD PUSH0 PUSH1 0x40 MLOAD DUP1 DUP4 SUB DUP2 PUSH0 DUP8 DUP1 EXTCODESIZE ISZERO DUP1 ISZERO PUSH2 0xD7E JUMPI PUSH0 DUP1 REVERT JUMPDEST POP GAS CALL ISZERO DUP1 ISZERO PUSH2 0xD90 JUMPI RETURNDATASIZE PUSH0 DUP1 RETURNDATACOPY RETURNDATASIZE PUSH0 REVERT JUMPDEST POP POP POP POP DUP3 PUSH1 0x7 PUSH0 DUP3 DUP3 SLOAD PUSH2 0xDA5 SWAP2 SWAP1 PUSH2 0x56DD JUMP JUMPDEST SWAP3 POP POP DUP2 SWAP1 SSTORE POP PUSH1 0x40 MLOAD DUP1 PUSH1 0xA0 ADD PUSH1 0x40 MSTORE DUP1 DUP10 DUP2 MSTORE PUSH1 0x20 ADD DUP9 DUP2 MSTORE PUSH1 0x20 ADD DUP11 DUP2 MSTORE PUSH1 0x20 ADD PUSH1 0x1 ISZERO ISZERO DUP2 MSTORE PUSH1 0x20 ADD DUP8 DUP2 MSTORE POP PUSH1 0x14 PUSH0 DUP13 DUP2 MSTORE PUSH1 0x20 ADD SWAP1 DUP2 MSTORE PUSH1 0x20 ADD PUSH0 KECCAK256 PUSH0 DUP3 ADD MLOAD DUP2 PUSH0 ADD SSTORE PUSH1 0x20 DUP3 ADD MLOAD DUP2 PUSH1 0x1 ADD SSTORE PUSH1 0x40 DUP3 ADD MLOAD DUP2 PUSH1 0x2 ADD SSTORE PUSH1 0x60 DUP3 ADD MLOAD DUP2 PUSH1 0x3 ADD PUSH0 PUSH2 0x100 EXP DUP2 SLOAD DUP2 PUSH1 0xFF MUL NOT AND SWAP1 DUP4 ISZERO ISZERO MUL OR SWAP1 SSTORE POP PUSH1 0x80 DUP3 ADD MLOAD DUP2 PUSH1 0x4 ADD SWAP1 PUSH1 0xA PUSH2 0xE39 SWAP3 SWAP2 SWAP1 PUSH2 0x45BF JUMP JUMPDEST POP SWAP1 POP POP PUSH2 0xE45 PUSH2 0x464F JUMP JUMPDEST PUSH0 JUMPDEST PUSH1 0x1E DUP2 PUSH1 0xFF AND LT ISZERO PUSH2 0xEAB JUMPI DUP6 PUSH1 0x6 ADD DUP2 PUSH1 0xFF AND PUSH1 0x1E DUP2 LT PUSH2 0xE6B JUMPI PUSH2 0xE6B PUSH2 0x56F0 JUMP JUMPDEST PUSH1 0x20 SWAP2 DUP3 DUP3 DIV ADD SWAP2 SWAP1 MOD SWAP1 SLOAD SWAP1 PUSH2 0x100 EXP SWAP1 DIV PUSH1 0xFF AND DUP3 DUP3 PUSH1 0xFF AND PUSH1 0x28 DUP2 LT PUSH2 0xE96 JUMPI PUSH2 0xE96 PUSH2 0x56F0 JUMP JUMPDEST PUSH1 0xFF SWAP1 SWAP3 AND PUSH1 0x20 SWAP3 SWAP1 SWAP3 MUL ADD MSTORE PUSH1 0x1 ADD PUSH2 0xE47 JUMP JUMPDEST POP PUSH0 JUMPDEST PUSH1 0xA DUP2 PUSH1 0xFF AND LT ISZERO PUSH2 0xF08 JUMPI DUP8 DUP2 PUSH1 0xFF AND PUSH1 0xA DUP2 LT PUSH2 0xECF JUMPI PUSH2 0xECF PUSH2 0x56F0 JUMP JUMPDEST PUSH1 0x20 MUL ADD MLOAD DUP3 PUSH2 0xEE0 DUP4 PUSH1 0x1E PUSH2 0x5704 JUMP JUMPDEST PUSH1 0xFF AND PUSH1 0x28 DUP2 LT PUSH2 0xEF3 JUMPI PUSH2 0xEF3 PUSH2 0x56F0 JUMP JUMPDEST PUSH1 0xFF SWAP1 SWAP3 AND PUSH1 0x20 SWAP3 SWAP1 SWAP3 MUL ADD MSTORE PUSH1 0x1 ADD PUSH2 0xEAE JUMP JUMPDEST POP PUSH0 DUP1 PUSH0 PUSH2 0xF19 DUP15 PUSH2 0x5F1 DUP7 PUSH2 0x3A7A JUMP JUMPDEST POP SWAP3 POP SWAP3 POP SWAP3 POP PUSH0 DUP10 PUSH1 0x8 ADD SLOAD DUP3 GT PUSH2 0xF32 JUMPI PUSH0 PUSH2 0xF41 JUMP JUMPDEST PUSH1 0x8 DUP11 ADD SLOAD PUSH2 0xF41 SWAP1 DUP4 PUSH2 0x571D JUMP JUMPDEST SWAP1 POP PUSH0 JUMPDEST PUSH1 0x4 DUP11 ADD SLOAD PUSH1 0xFF SWAP1 DUP2 AND SWAP1 DUP3 AND LT ISZERO PUSH2 0xFD0 JUMPI DUP5 DUP2 PUSH1 0xFF AND DUP2 MLOAD DUP2 LT PUSH2 0xF6D JUMPI PUSH2 0xF6D PUSH2 0x56F0 JUMP JUMPDEST PUSH1 0x20 MUL PUSH1 0x20 ADD ADD MLOAD DUP11 PUSH1 0x7 ADD DUP3 PUSH1 0xFF AND PUSH1 0x4 DUP2 LT PUSH2 0xF8D JUMPI PUSH2 0xF8D PUSH2 0x56F0 JUMP JUMPDEST ADD SSTORE DUP4 MLOAD DUP5 SWAP1 PUSH1 0xFF DUP4 AND SWAP1 DUP2 LT PUSH2 0xFA6 JUMPI PUSH2 0xFA6 PUSH2 0x56F0 JUMP JUMPDEST PUSH1 0x20 MUL PUSH1 0x20 ADD ADD MLOAD DUP11 PUSH1 0xB ADD DUP3 PUSH1 0xFF AND PUSH1 0x4 DUP2 LT PUSH2 0xFC6 JUMPI PUSH2 0xFC6 PUSH2 0x56F0 JUMP JUMPDEST ADD SSTORE PUSH1 0x1 ADD PUSH2 0xF45 JUMP JUMPDEST POP DUP10 SLOAD PUSH1 0xFF NOT AND PUSH1 0x3 OR DUP11 SSTORE PUSH1 0x8 DUP11 ADD DUP3 SWAP1 SSTORE DUP1 ISZERO PUSH2 0x112D JUMPI PUSH1 0x2 SLOAD PUSH1 0x40 MLOAD PUSH4 0x95467177 PUSH1 0xE0 SHL DUP2 MSTORE PUSH1 0x1 PUSH1 0x1 PUSH1 0xA0 SHL SUB DUP9 DUP2 AND PUSH1 0x4 DUP4 ADD MSTORE PUSH1 0x24 DUP3 ADD DUP5 SWAP1 MSTORE SWAP1 SWAP2 AND SWAP1 PUSH4 0x95467177 SWAP1 PUSH1 0x44 ADD PUSH0 PUSH1 0x40 MLOAD DUP1 DUP4 SUB DUP2 PUSH0 DUP8 DUP1 EXTCODESIZE ISZERO DUP1 ISZERO PUSH2 0x1034 JUMPI PUSH0 DUP1 REVERT JUMPDEST POP GAS CALL ISZERO DUP1 ISZERO PUSH2 0x1046 JUMPI RETURNDATASIZE PUSH0 DUP1 RETURNDATACOPY RETURNDATASIZE PUSH0 REVERT JUMPDEST POP POP POP POP DUP1 DUP8 PUSH1 0x5 ADD PUSH0 DUP3 DUP3 SLOAD PUSH2 0x105D SWAP2 SWAP1 PUSH2 0x56DD JUMP JUMPDEST SWAP3 POP POP DUP2 SWAP1 SSTORE POP PUSH1 0x1 DUP8 PUSH1 0x7 ADD PUSH0 DUP3 DUP3 SLOAD PUSH2 0x1078 SWAP2 SWAP1 PUSH2 0x56DD JUMP JUMPDEST SWAP3 POP POP DUP2 SWAP1 SSTORE POP DUP1 PUSH1 0x9 PUSH0 DUP3 DUP3 SLOAD PUSH2 0x1090 SWAP2 SWAP1 PUSH2 0x56DD JUMP JUMPDEST SWAP3 POP POP DUP2 SWAP1 SSTORE POP PUSH1 0x1 PUSH1 0xA PUSH0 DUP3 DUP3 SLOAD PUSH2 0x10A9 SWAP2 SWAP1 PUSH2 0x56DD JUMP JUMPDEST SWAP1 SWAP2 SSTORE POP POP DUP1 DUP9 GT ISZERO PUSH2 0x111D JUMPI PUSH1 0x2 SLOAD PUSH1 0x1 PUSH1 0x1 PUSH1 0xA0 SHL SUB AND PUSH4 0x2EDCBD60 PUSH2 0x10D1 DUP4 DUP12 PUSH2 0x571D JUMP JUMPDEST PUSH1 0x40 MLOAD DUP3 PUSH4 0xFFFFFFFF AND PUSH1 0xE0 SHL DUP2 MSTORE PUSH1 0x4 ADD PUSH2 0x10EF SWAP2 DUP2 MSTORE PUSH1 0x20 ADD SWAP1 JUMP JUMPDEST PUSH0 PUSH1 0x40 MLOAD DUP1 DUP4 SUB DUP2 PUSH0 DUP8 DUP1 EXTCODESIZE ISZERO DUP1 ISZERO PUSH2 0x1106 JUMPI PUSH0 DUP1 REVERT JUMPDEST POP GAS CALL ISZERO DUP1 ISZERO PUSH2 0x1118 JUMPI RETURNDATASIZE PUSH0 DUP1 RETURNDATACOPY RETURNDATASIZE PUSH0 REVERT JUMPDEST POP POP POP POP JUMPDEST PUSH2 0x1128 DUP16 DUP3 TIMESTAMP PUSH2 0x3B00 JUMP JUMPDEST PUSH2 0x11EB JUMP JUMPDEST DUP8 DUP8 PUSH1 0x4 ADD PUSH0 DUP3 DUP3 SLOAD PUSH2 0x1140 SWAP2 SWAP1 PUSH2 0x56DD JUMP JUMPDEST SWAP3 POP POP DUP2 SWAP1 SSTORE POP PUSH1 0x1 DUP8 PUSH1 0x6 ADD PUSH0 DUP3 DUP3 SLOAD PUSH2 0x115B SWAP2 SWAP1 PUSH2 0x56DD JUMP JUMPDEST SWAP3 POP POP DUP2 SWAP1 SSTORE POP DUP8 PUSH1 0x8 PUSH0 DUP3 DUP3 SLOAD PUSH2 0x1173 SWAP2 SWAP1 PUSH2 0x56DD JUMP JUMPDEST SWAP3 POP POP DUP2 SWAP1 SSTORE POP PUSH1 0x1 PUSH1 0xB PUSH0 DUP3 DUP3 SLOAD PUSH2 0x118C SWAP2 SWAP1 PUSH2 0x56DD JUMP JUMPDEST SWAP1 SWAP2 SSTORE POP POP PUSH1 0x2 SLOAD PUSH1 0x40 MLOAD PUSH4 0x176E5EB PUSH1 0xE5 SHL DUP2 MSTORE PUSH1 0x4 DUP2 ADD DUP11 SWAP1 MSTORE PUSH1 0x1 PUSH1 0x1 PUSH1 0xA0 SHL SUB SWAP1 SWAP2 AND SWAP1 PUSH4 0x2EDCBD60 SWAP1 PUSH1 0x24 ADD PUSH0 PUSH1 0x40 MLOAD DUP1 DUP4 SUB DUP2 PUSH0 DUP8 DUP1 EXTCODESIZE ISZERO DUP1 ISZERO PUSH2 0x11D4 JUMPI PUSH0 DUP1 REVERT JUMPDEST POP GAS CALL ISZERO DUP1 ISZERO PUSH2 0x11E6 JUMPI RETURNDATASIZE PUSH0 DUP1 RETURNDATACOPY RETURNDATASIZE PUSH0 REVERT JUMPDEST POP POP POP POP JUMPDEST PUSH1 0x1 DUP8 PUSH1 0x2 ADD PUSH0 DUP3 DUP3 SLOAD PUSH2 0x11FF SWAP2 SWAP1 PUSH2 0x56DD JUMP JUMPDEST SWAP3 POP POP DUP2 SWAP1 SSTORE POP DUP8 DUP8 PUSH1 0x3 ADD PUSH0 DUP3 DUP3 SLOAD PUSH2 0x1219 SWAP2 SWAP1 PUSH2 0x56DD JUMP JUMPDEST SWAP1 SWAP2 SSTORE POP POP DUP7 SLOAD PUSH0 SWAP1 DUP2 MSTORE PUSH1 0x11 PUSH1 0x20 SWAP1 DUP2 MSTORE PUSH1 0x40 DUP1 DUP4 KECCAK256 PUSH1 0x2 DUP12 ADD SLOAD DUP5 MSTORE SWAP1 SWAP2 MSTORE SWAP1 KECCAK256 DUP16 SWAP1 SSTORE POP PUSH2 0x12A4 SWAP4 POP POP POP POP JUMP JUMPDEST PUSH1 0x40 MLOAD PUSH3 0x461BCD PUSH1 0xE5 SHL DUP2 MSTORE PUSH1 0x20 PUSH1 0x4 DUP3 ADD MSTORE PUSH1 0x2 PUSH1 0x24 DUP3 ADD MSTORE PUSH2 0x4535 PUSH1 0xF0 SHL PUSH1 0x44 DUP3 ADD MSTORE PUSH1 0x64 ADD PUSH2 0xBBF JUMP JUMPDEST PUSH1 0x40 MLOAD PUSH3 0x461BCD PUSH1 0xE5 SHL DUP2 MSTORE PUSH1 0x20 PUSH1 0x4 DUP3 ADD MSTORE PUSH1 0x2 PUSH1 0x24 DUP3 ADD MSTORE PUSH2 0x114D PUSH1 0xF2 SHL PUSH1 0x44 DUP3 ADD MSTORE PUSH1 0x64 ADD PUSH2 0xBBF JUMP JUMPDEST POP POP POP POP PUSH2 0x12DA JUMP JUMPDEST PUSH1 0x40 MLOAD PUSH3 0x461BCD PUSH1 0xE5 SHL DUP2 MSTORE PUSH1 0x20 PUSH1 0x4 DUP3 ADD MSTORE PUSH1 0x2 PUSH1 0x24 DUP3 ADD MSTORE PUSH2 0x4533 PUSH1 0xF0 SHL PUSH1 0x44 DUP3 ADD MSTORE PUSH1 0x64 ADD PUSH2 0xBBF JUMP JUMPDEST POP PUSH2 0x130D JUMP JUMPDEST PUSH1 0x40 MLOAD PUSH3 0x461BCD PUSH1 0xE5 SHL DUP2 MSTORE PUSH1 0x20 PUSH1 0x4 DUP3 ADD MSTORE PUSH1 0x2 PUSH1 0x24 DUP3 ADD MSTORE PUSH2 0x4531 PUSH1 0xF0 SHL PUSH1 0x44 DUP3 ADD MSTORE PUSH1 0x64 ADD PUSH2 0xBBF JUMP JUMPDEST PUSH2 0x1316 PUSH1 0x1 PUSH0 SSTORE JUMP JUMPDEST POP POP POP POP POP POP JUMP JUMPDEST PUSH1 0x40 DUP1 MLOAD DUP1 DUP3 ADD DUP3 MSTORE PUSH0 DUP1 DUP3 MSTORE PUSH1 0x20 DUP3 ADD MSTORE PUSH1 0x2 SLOAD SWAP2 MLOAD PUSH4 0x11A34965 PUSH1 0xE3 SHL DUP2 MSTORE ADDRESS PUSH1 0x4 DUP3 ADD MSTORE SWAP1 SWAP2 PUSH1 0x1 PUSH1 0x1 PUSH1 0xA0 SHL SUB AND SWAP1 PUSH4 0x8D1A4B28 SWAP1 PUSH1 0x24 ADD PUSH0 PUSH1 0x40 MLOAD DUP1 DUP4 SUB DUP2 DUP7 GAS STATICCALL ISZERO DUP1 ISZERO PUSH2 0x1374 JUMPI RETURNDATASIZE PUSH0 DUP1 RETURNDATACOPY RETURNDATASIZE PUSH0 REVERT JUMPDEST POP POP POP POP PUSH1 0x40 MLOAD RETURNDATASIZE PUSH0 DUP3 RETURNDATACOPY PUSH1 0x1F RETURNDATASIZE SWAP1 DUP2 ADD PUSH1 0x1F NOT AND DUP3 ADD PUSH1 0x40 MSTORE PUSH2 0x139B SWAP2 SWAP1 DUP2 ADD SWAP1 PUSH2 0x55A5 JUMP JUMPDEST PUSH1 0x80 ADD MLOAD PUSH1 0x20 DUP3 ADD MSTORE PUSH1 0x2 SLOAD PUSH1 0x40 MLOAD PUSH4 0xC084B10B PUSH1 0xE0 SHL DUP2 MSTORE PUSH1 0x1 PUSH1 0x1 PUSH1 0xA0 SHL SUB DUP5 DUP2 AND PUSH1 0x4 DUP4 ADD MSTORE SWAP1 SWAP2 AND SWAP1 PUSH4 0xC084B10B SWAP1 PUSH1 0x24 ADD PUSH1 0x20 PUSH1 0x40 MLOAD DUP1 DUP4 SUB DUP2 DUP7 GAS STATICCALL ISZERO DUP1 ISZERO PUSH2 0x13EC JUMPI RETURNDATASIZE PUSH0 DUP1 RETURNDATACOPY RETURNDATASIZE PUSH0 REVERT JUMPDEST POP POP POP POP PUSH1 0x40 MLOAD RETURNDATASIZE PUSH1 0x1F NOT PUSH1 0x1F DUP3 ADD AND DUP3 ADD DUP1 PUSH1 0x40 MSTORE POP DUP2 ADD SWAP1 PUSH2 0x1410 SWAP2 SWAP1 PUSH2 0x5583 JUMP JUMPDEST DUP2 MSTORE SWAP2 SWAP1 POP JUMP JUMPDEST PUSH1 0x4 SLOAD PUSH1 0x1 PUSH1 0x1 PUSH1 0xA0 SHL SUB AND CALLER EQ PUSH2 0x1441 JUMPI PUSH1 0x40 MLOAD PUSH3 0x461BCD PUSH1 0xE5 SHL DUP2 MSTORE PUSH1 0x4 ADD PUSH2 0xBBF SWAP1 PUSH2 0x5730 JUMP JUMPDEST PUSH1 0x1 SLOAD PUSH1 0x1 PUSH1 0x1 PUSH1 0xA0 SHL SUB SWAP1 DUP2 AND SWAP1 DUP4 AND SUB PUSH2 0x14B3 JUMPI PUSH1 0x40 MLOAD PUSH3 0x461BCD PUSH1 0xE5 SHL DUP2 MSTORE PUSH1 0x20 PUSH1 0x4 DUP3 ADD MSTORE PUSH1 0x2B PUSH1 0x24 DUP3 ADD MSTORE PUSH32 0x43616E74207265636F7765722067616D6520746F6B656E2E204F6E6C79206261 PUSH1 0x44 DUP3 ADD MSTORE PUSH11 0x6E6B207769746864726177 PUSH1 0xA8 SHL PUSH1 0x64 DUP3 ADD MSTORE PUSH1 0x84 ADD PUSH2 0xBBF JUMP JUMPDEST PUSH1 0x4 DUP1 SLOAD PUSH1 0x40 MLOAD PUSH4 0xA9059CBB PUSH1 0xE0 SHL DUP2 MSTORE PUSH1 0x1 PUSH1 0x1 PUSH1 0xA0 SHL SUB SWAP2 DUP3 AND SWAP3 DUP2 ADD SWAP3 SWAP1 SWAP3 MSTORE PUSH1 0x24 DUP3 ADD DUP4 SWAP1 MSTORE DUP4 AND SWAP1 PUSH4 0xA9059CBB SWAP1 PUSH1 0x44 ADD PUSH1 0x20 PUSH1 0x40 MLOAD DUP1 DUP4 SUB DUP2 PUSH0 DUP8 GAS CALL ISZERO DUP1 ISZERO PUSH2 0x1505 JUMPI RETURNDATASIZE PUSH0 DUP1 RETURNDATACOPY RETURNDATASIZE PUSH0 REVERT JUMPDEST POP POP POP POP PUSH1 0x40 MLOAD RETURNDATASIZE PUSH1 0x1F NOT PUSH1 0x1F DUP3 ADD AND DUP3 ADD DUP1 PUSH1 0x40 MSTORE POP DUP2 ADD SWAP1 PUSH2 0x1529 SWAP2 SWAP1 PUSH2 0x5754 JUMP JUMPDEST POP POP POP JUMP JUMPDEST PUSH1 0x60 PUSH1 0x17 DUP1 SLOAD DUP1 PUSH1 0x20 MUL PUSH1 0x20 ADD PUSH1 0x40 MLOAD SWAP1 DUP2 ADD PUSH1 0x40 MSTORE DUP1 SWAP3 SWAP2 SWAP1 DUP2 DUP2 MSTORE PUSH1 0x20 ADD PUSH0 SWAP1 JUMPDEST DUP3 DUP3 LT ISZERO PUSH2 0x159E JUMPI DUP4 DUP3 SWAP1 PUSH0 MSTORE PUSH1 0x20 PUSH0 KECCAK256 SWAP1 PUSH1 0x3 MUL ADD PUSH1 0x40 MLOAD DUP1 PUSH1 0x60 ADD PUSH1 0x40 MSTORE SWAP1 DUP2 PUSH0 DUP3 ADD SLOAD DUP2 MSTORE PUSH1 0x20 ADD PUSH1 0x1 DUP3 ADD SLOAD DUP2 MSTORE PUSH1 0x20 ADD PUSH1 0x2 DUP3 ADD SLOAD DUP2 MSTORE POP POP DUP2 MSTORE PUSH1 0x20 ADD SWAP1 PUSH1 0x1 ADD SWAP1 PUSH2 0x1551 JUMP JUMPDEST POP POP POP POP SWAP1 POP SWAP1 JUMP JUMPDEST PUSH0 DUP2 DUP2 MSTORE PUSH1 0x15 PUSH1 0x20 MSTORE PUSH1 0x40 DUP1 DUP3 KECCAK256 DUP2 MLOAD PUSH2 0x140 DUP2 ADD SWAP1 SWAP3 MSTORE DUP3 SWAP2 SWAP1 DUP2 PUSH1 0xC0 DUP2 ADD DUP3 PUSH1 0x4 DUP7 DUP4 JUMPDEST DUP3 DUP3 LT ISZERO PUSH2 0x1630 JUMPI PUSH1 0x40 DUP1 MLOAD PUSH2 0x1E0 DUP2 ADD SWAP2 DUP3 SWAP1 MSTORE SWAP1 DUP6 DUP5 ADD SWAP1 PUSH1 0xF SWAP1 DUP3 PUSH0 DUP6 JUMPDEST DUP3 SLOAD PUSH2 0x100 DUP4 SWAP1 EXP SWAP1 DIV PUSH1 0xFF AND DUP2 MSTORE PUSH1 0x20 PUSH1 0x1 SWAP3 DUP4 ADD DUP2 DUP2 DIV SWAP5 DUP6 ADD SWAP5 SWAP1 SWAP4 SUB SWAP1 SWAP3 MUL SWAP2 ADD DUP1 DUP5 GT PUSH2 0x15EE JUMPI SWAP1 POP POP POP POP POP POP DUP2 MSTORE PUSH1 0x20 ADD SWAP1 PUSH1 0x1 ADD SWAP1 PUSH2 0x15CD JUMP JUMPDEST POP POP POP SWAP1 DUP3 MSTORE POP PUSH1 0x4 DUP3 ADD SLOAD PUSH1 0xFF AND PUSH1 0x20 DUP1 DUP4 ADD SWAP2 SWAP1 SWAP2 MSTORE PUSH1 0x5 DUP4 ADD DUP1 SLOAD PUSH1 0x40 DUP1 MLOAD DUP3 DUP6 MUL DUP2 ADD DUP6 ADD DUP3 MSTORE DUP3 DUP2 MSTORE SWAP5 ADD SWAP4 SWAP3 DUP4 ADD DUP3 DUP3 DUP1 ISZERO PUSH2 0x16AE JUMPI PUSH1 0x20 MUL DUP3 ADD SWAP2 SWAP1 PUSH0 MSTORE PUSH1 0x20 PUSH0 KECCAK256 SWAP1 PUSH0 SWAP1 JUMPDEST DUP3 SLOAD PUSH2 0x100 DUP4 SWAP1 EXP SWAP1 DIV PUSH1 0xFF AND ISZERO ISZERO DUP2 MSTORE PUSH1 0x20 PUSH1 0x1 SWAP3 DUP4 ADD DUP2 DUP2 DIV SWAP5 DUP6 ADD SWAP5 SWAP1 SWAP4 SUB SWAP1 SWAP3 MUL SWAP2 ADD DUP1 DUP5 GT PUSH2 0x167D JUMPI SWAP1 POP JUMPDEST POP POP POP SWAP2 DUP4 MSTORE POP POP PUSH1 0x40 DUP1 MLOAD PUSH2 0x3C0 DUP2 ADD SWAP2 DUP3 SWAP1 MSTORE PUSH1 0x20 SWAP1 SWAP3 ADD SWAP2 SWAP1 PUSH1 0x6 DUP5 ADD SWAP1 PUSH1 0x1E SWAP1 DUP3 PUSH0 DUP6 JUMPDEST DUP3 SLOAD PUSH2 0x100 DUP4 SWAP1 EXP SWAP1 DIV PUSH1 0xFF AND DUP2 MSTORE PUSH1 0x20 PUSH1 0x1 SWAP3 DUP4 ADD DUP2 DUP2 DIV SWAP5 DUP6 ADD SWAP5 SWAP1 SWAP4 SUB SWAP1 SWAP3 MUL SWAP2 ADD DUP1 DUP5 GT PUSH2 0x16D6 JUMPI POP POP POP SWAP3 DUP5 MSTORE POP POP PUSH1 0x40 DUP1 MLOAD PUSH1 0x80 DUP2 ADD SWAP2 DUP3 SWAP1 MSTORE PUSH1 0x20 SWAP1 SWAP4 ADD SWAP3 SWAP2 POP PUSH1 0x7 DUP5 ADD SWAP1 PUSH1 0x4 SWAP1 DUP3 DUP5 JUMPDEST DUP2 SLOAD DUP2 MSTORE PUSH1 0x20 ADD SWAP1 PUSH1 0x1 ADD SWAP1 DUP1 DUP4 GT PUSH2 0x1729 JUMPI POP POP POP SWAP2 DUP4 MSTORE POP POP PUSH1 0x40 DUP1 MLOAD PUSH1 0x80 DUP2 ADD SWAP2 DUP3 SWAP1 MSTORE PUSH1 0x20 SWAP1 SWAP3 ADD SWAP2 SWAP1 PUSH1 0xB DUP5 ADD SWAP1 PUSH1 0x4 SWAP1 DUP3 DUP5 JUMPDEST DUP2 SLOAD DUP2 MSTORE PUSH1 0x20 ADD SWAP1 PUSH1 0x1 ADD SWAP1 DUP1 DUP4 GT PUSH2 0x1762 JUMPI POP POP POP POP POP DUP2 MSTORE POP POP SWAP1 POP PUSH2 0x1788 PUSH2 0x466E JUMP JUMPDEST PUSH0 JUMPDEST PUSH1 0x1E DUP2 PUSH1 0xFF AND LT ISZERO PUSH2 0x17DC JUMPI PUSH1 0x1 DUP3 DUP5 PUSH1 0x60 ADD MLOAD DUP4 PUSH1 0xFF AND PUSH1 0x1E DUP2 LT PUSH2 0x17B2 JUMPI PUSH2 0x17B2 PUSH2 0x56F0 JUMP JUMPDEST PUSH1 0x20 MUL ADD MLOAD PUSH1 0xFF AND PUSH1 0x3D DUP2 LT PUSH2 0x17CA JUMPI PUSH2 0x17CA PUSH2 0x56F0 JUMP JUMPDEST SWAP2 ISZERO ISZERO PUSH1 0x20 SWAP1 SWAP3 MUL ADD MSTORE PUSH1 0x1 ADD PUSH2 0x178A JUMP JUMPDEST POP PUSH0 DUP1 DUP3 MSTORE JUMPDEST DUP3 PUSH1 0x20 ADD MLOAD PUSH1 0xFF AND DUP2 PUSH1 0xFF AND LT ISZERO PUSH2 0x195F JUMPI PUSH0 JUMPDEST PUSH1 0xD SLOAD DUP2 LT ISZERO PUSH2 0x1956 JUMPI PUSH0 DUP2 DUP2 MSTORE PUSH1 0xC PUSH1 0x20 SWAP1 DUP2 MSTORE PUSH1 0x40 DUP1 DUP4 KECCAK256 DUP2 MLOAD DUP1 DUP4 ADD DUP4 MSTORE DUP2 SLOAD DUP2 MSTORE DUP3 MLOAD PUSH2 0x1E0 DUP2 ADD SWAP4 DUP5 SWAP1 MSTORE SWAP1 SWAP4 SWAP2 SWAP3 SWAP2 DUP5 ADD SWAP2 PUSH1 0x1 DUP5 ADD SWAP1 PUSH1 0xF SWAP1 DUP3 DUP9 DUP6 JUMPDEST DUP3 SLOAD PUSH2 0x100 DUP4 SWAP1 EXP SWAP1 DIV PUSH1 0xFF AND ISZERO ISZERO DUP2 MSTORE PUSH1 0x20 PUSH1 0x1 SWAP3 DUP4 ADD DUP2 DUP2 DIV SWAP5 DUP6 ADD SWAP5 SWAP1 SWAP4 SUB SWAP1 SWAP3 MUL SWAP2 ADD DUP1 DUP5 GT PUSH2 0x183A JUMPI SWAP1 POP POP POP POP POP POP DUP2 MSTORE POP POP SWAP1 POP PUSH0 DUP1 PUSH0 JUMPDEST PUSH1 0xF DUP2 PUSH1 0xFF AND LT ISZERO PUSH2 0x191F JUMPI DUP4 PUSH1 0x20 ADD MLOAD DUP2 PUSH1 0xFF AND PUSH1 0xF DUP2 LT PUSH2 0x189E JUMPI PUSH2 0x189E PUSH2 0x56F0 JUMP JUMPDEST PUSH1 0x20 MUL ADD MLOAD ISZERO PUSH2 0x1917 JUMPI DUP3 PUSH2 0x18B2 DUP2 PUSH2 0x576F JUMP JUMPDEST SWAP4 POP POP DUP7 DUP9 PUSH0 ADD MLOAD DUP8 PUSH1 0xFF AND PUSH1 0x4 DUP2 LT PUSH2 0x18CE JUMPI PUSH2 0x18CE PUSH2 0x56F0 JUMP JUMPDEST PUSH1 0x20 MUL ADD MLOAD DUP3 PUSH1 0xFF AND PUSH1 0xF DUP2 LT PUSH2 0x18E7 JUMPI PUSH2 0x18E7 PUSH2 0x56F0 JUMP JUMPDEST PUSH1 0x20 MUL ADD MLOAD PUSH1 0xFF AND PUSH1 0x3D DUP2 LT PUSH2 0x18FF JUMPI PUSH2 0x18FF PUSH2 0x56F0 JUMP JUMPDEST PUSH1 0x20 MUL ADD MLOAD ISZERO PUSH2 0x1917 JUMPI DUP2 PUSH2 0x1913 DUP2 PUSH2 0x576F JUMP JUMPDEST SWAP3 POP POP JUMPDEST PUSH1 0x1 ADD PUSH2 0x1879 JUMP JUMPDEST POP PUSH0 DUP2 PUSH1 0xFF AND GT DUP1 ISZERO PUSH2 0x1937 JUMPI POP DUP2 PUSH1 0xFF AND DUP2 PUSH1 0xFF AND LT JUMPDEST ISZERO PUSH2 0x194B JUMPI POP PUSH1 0x1 SWAP9 SWAP8 POP POP POP POP POP POP POP POP JUMP JUMPDEST POP POP POP PUSH1 0x1 ADD PUSH2 0x17F6 JUMP JUMPDEST POP PUSH1 0x1 ADD PUSH2 0x17E2 JUMP JUMPDEST POP PUSH0 SWAP5 SWAP4 POP POP POP POP JUMP JUMPDEST PUSH2 0x1971 PUSH2 0x39E3 JUMP JUMPDEST PUSH1 0x3 SLOAD PUSH1 0x1 PUSH1 0x1 PUSH1 0xA0 SHL SUB AND CALLER EQ PUSH2 0x199B JUMPI PUSH1 0x40 MLOAD PUSH3 0x461BCD PUSH1 0xE5 SHL DUP2 MSTORE PUSH1 0x4 ADD PUSH2 0xBBF SWAP1 PUSH2 0x568D JUMP JUMPDEST PUSH0 JUMPDEST DUP2 MLOAD DUP2 LT ISZERO PUSH2 0x1AA5 JUMPI PUSH2 0x1A9D DUP3 DUP3 DUP2 MLOAD DUP2 LT PUSH2 0x19BB JUMPI PUSH2 0x19BB PUSH2 0x56F0 JUMP JUMPDEST PUSH1 0x20 MUL PUSH1 0x20 ADD ADD MLOAD PUSH0 ADD MLOAD DUP4 DUP4 DUP2 MLOAD DUP2 LT PUSH2 0x19D8 JUMPI PUSH2 0x19D8 PUSH2 0x56F0 JUMP JUMPDEST PUSH1 0x20 MUL PUSH1 0x20 ADD ADD MLOAD PUSH1 0x20 ADD MLOAD DUP5 DUP5 DUP2 MLOAD DUP2 LT PUSH2 0x19F6 JUMPI PUSH2 0x19F6 PUSH2 0x56F0 JUMP JUMPDEST PUSH1 0x20 MUL PUSH1 0x20 ADD ADD MLOAD PUSH1 0x40 ADD MLOAD DUP6 DUP6 DUP2 MLOAD DUP2 LT PUSH2 0x1A14 JUMPI PUSH2 0x1A14 PUSH2 0x56F0 JUMP JUMPDEST PUSH1 0x20 MUL PUSH1 0x20 ADD ADD MLOAD PUSH1 0x60 ADD MLOAD DUP7 DUP7 DUP2 MLOAD DUP2 LT PUSH2 0x1A32 JUMPI PUSH2 0x1A32 PUSH2 0x56F0 JUMP JUMPDEST PUSH1 0x20 MUL PUSH1 0x20 ADD ADD MLOAD PUSH1 0x80 ADD MLOAD DUP8 DUP8 DUP2 MLOAD DUP2 LT PUSH2 0x1A50 JUMPI PUSH2 0x1A50 PUSH2 0x56F0 JUMP JUMPDEST PUSH1 0x20 MUL PUSH1 0x20 ADD ADD MLOAD PUSH1 0xA0 ADD MLOAD DUP9 DUP9 DUP2 MLOAD DUP2 LT PUSH2 0x1A6E JUMPI PUSH2 0x1A6E PUSH2 0x56F0 JUMP JUMPDEST PUSH1 0x20 MUL PUSH1 0x20 ADD ADD MLOAD PUSH1 0xC0 ADD MLOAD DUP10 DUP10 DUP2 MLOAD DUP2 LT PUSH2 0x1A8C JUMPI PUSH2 0x1A8C PUSH2 0x56F0 JUMP JUMPDEST PUSH1 0x20 MUL PUSH1 0x20 ADD ADD MLOAD PUSH1 0xE0 ADD MLOAD PUSH2 0x3C9D JUMP JUMPDEST PUSH1 0x1 ADD PUSH2 0x199D JUMP JUMPDEST POP PUSH2 0x1AAF PUSH1 0x1 PUSH0 SSTORE JUMP JUMPDEST POP JUMP JUMPDEST PUSH2 0x1ABA PUSH2 0x39E3 JUMP JUMPDEST PUSH1 0x3 SLOAD PUSH1 0x1 PUSH1 0x1 PUSH1 0xA0 SHL SUB AND CALLER EQ PUSH2 0x1AE4 JUMPI PUSH1 0x40 MLOAD PUSH3 0x461BCD PUSH1 0xE5 SHL DUP2 MSTORE PUSH1 0x4 ADD PUSH2 0xBBF SWAP1 PUSH2 0x568D JUMP JUMPDEST PUSH2 0x1AF4 DUP9 DUP9 DUP9 DUP9 DUP9 DUP9 DUP9 DUP9 PUSH2 0x3C9D JUMP JUMPDEST PUSH2 0x1AFD PUSH1 0x1 PUSH0 SSTORE JUMP JUMPDEST POP POP POP POP POP POP POP POP JUMP JUMPDEST PUSH1 0x4 SLOAD PUSH1 0x1 PUSH1 0x1 PUSH1 0xA0 SHL SUB AND CALLER EQ PUSH2 0x1B31 JUMPI PUSH1 0x40 MLOAD PUSH3 0x461BCD PUSH1 0xE5 SHL DUP2 MSTORE PUSH1 0x4 ADD PUSH2 0xBBF SWAP1 PUSH2 0x5730 JUMP JUMPDEST PUSH1 0x6 SSTORE JUMP JUMPDEST PUSH1 0x4 SLOAD PUSH1 0x1 PUSH1 0x1 PUSH1 0xA0 SHL SUB AND CALLER EQ PUSH2 0x1B60 JUMPI PUSH1 0x40 MLOAD PUSH3 0x461BCD PUSH1 0xE5 SHL DUP2 MSTORE PUSH1 0x4 ADD PUSH2 0xBBF SWAP1 PUSH2 0x5730 JUMP JUMPDEST PUSH1 0x5 SSTORE JUMP JUMPDEST PUSH2 0x1B6D PUSH2 0x468D JUMP JUMPDEST PUSH1 0x40 DUP1 MLOAD PUSH0 DUP5 DUP2 MSTORE PUSH1 0x13 PUSH1 0x20 MSTORE DUP3 SWAP1 KECCAK256 PUSH2 0x180 DUP3 ADD SWAP1 SWAP3 MSTORE DUP2 SLOAD SWAP1 SWAP2 DUP3 SWAP2 PUSH1 0x60 DUP4 ADD SWAP2 SWAP1 DUP3 SWAP1 PUSH1 0xFF AND PUSH1 0x4 DUP2 GT ISZERO PUSH2 0x1BA7 JUMPI PUSH2 0x1BA7 PUSH2 0x48A9 JUMP JUMPDEST PUSH1 0x4 DUP2 GT ISZERO PUSH2 0x1BB8 JUMPI PUSH2 0x1BB8 PUSH2 0x48A9 JUMP JUMPDEST DUP2 MSTORE PUSH1 0x20 ADD PUSH1 0x1 DUP3 ADD SLOAD DUP2 MSTORE PUSH1 0x20 ADD PUSH1 0x2 DUP3 ADD SLOAD DUP2 MSTORE PUSH1 0x20 ADD PUSH1 0x3 DUP3 ADD SLOAD DUP2 MSTORE PUSH1 0x20 ADD PUSH1 0x4 DUP3 ADD SLOAD DUP2 MSTORE PUSH1 0x20 ADD PUSH1 0x5 DUP3 ADD SLOAD DUP2 MSTORE PUSH1 0x20 ADD PUSH1 0x6 DUP3 ADD SLOAD DUP2 MSTORE PUSH1 0x20 ADD PUSH1 0x7 DUP3 ADD SLOAD DUP2 MSTORE PUSH1 0x20 ADD PUSH1 0x8 DUP3 ADD SLOAD DUP2 MSTORE POP POP DUP2 MSTORE PUSH1 0x20 ADD PUSH1 0x15 PUSH0 DUP6 DUP2 MSTORE PUSH1 0x20 ADD SWAP1 DUP2 MSTORE PUSH1 0x20 ADD PUSH0 KECCAK256 PUSH1 0x40 MLOAD DUP1 PUSH1 0xC0 ADD PUSH1 0x40 MSTORE SWAP1 DUP2 PUSH0 DUP3 ADD PUSH1 0x4 DUP1 PUSH1 0x20 MUL PUSH1 0x40 MLOAD SWAP1 DUP2 ADD PUSH1 0x40 MSTORE DUP1 SWAP3 SWAP2 SWAP1 PUSH0 SWAP1 JUMPDEST DUP3 DUP3 LT ISZERO PUSH2 0x1CAA JUMPI PUSH1 0x40 DUP1 MLOAD PUSH2 0x1E0 DUP2 ADD SWAP2 DUP3 SWAP1 MSTORE SWAP1 DUP6 DUP5 ADD SWAP1 PUSH1 0xF SWAP1 DUP3 PUSH0 DUP6 JUMPDEST DUP3 SLOAD PUSH2 0x100 DUP4 SWAP1 EXP SWAP1 DIV PUSH1 0xFF AND DUP2 MSTORE PUSH1 0x20 PUSH1 0x1 SWAP3 DUP4 ADD DUP2 DUP2 DIV SWAP5 DUP6 ADD SWAP5 SWAP1 SWAP4 SUB SWAP1 SWAP3 MUL SWAP2 ADD DUP1 DUP5 GT PUSH2 0x1C68 JUMPI SWAP1 POP POP POP POP POP POP DUP2 MSTORE PUSH1 0x20 ADD SWAP1 PUSH1 0x1 ADD SWAP1 PUSH2 0x1C47 JUMP JUMPDEST POP POP POP SWAP1 DUP3 MSTORE POP PUSH1 0x4 DUP3 ADD SLOAD PUSH1 0xFF AND PUSH1 0x20 DUP1 DUP4 ADD SWAP2 SWAP1 SWAP2 MSTORE PUSH1 0x5 DUP4 ADD DUP1 SLOAD PUSH1 0x40 DUP1 MLOAD DUP3 DUP6 MUL DUP2 ADD DUP6 ADD DUP3 MSTORE DUP3 DUP2 MSTORE SWAP5 ADD SWAP4 SWAP3 DUP4 ADD DUP3 DUP3 DUP1 ISZERO PUSH2 0x1D28 JUMPI PUSH1 0x20 MUL DUP3 ADD SWAP2 SWAP1 PUSH0 MSTORE PUSH1 0x20 PUSH0 KECCAK256 SWAP1 PUSH0 SWAP1 JUMPDEST DUP3 SLOAD PUSH2 0x100 DUP4 SWAP1 EXP SWAP1 DIV PUSH1 0xFF AND ISZERO ISZERO DUP2 MSTORE PUSH1 0x20 PUSH1 0x1 SWAP3 DUP4 ADD DUP2 DUP2 DIV SWAP5 DUP6 ADD SWAP5 SWAP1 SWAP4 SUB SWAP1 SWAP3 MUL SWAP2 ADD DUP1 DUP5 GT PUSH2 0x1CF7 JUMPI SWAP1 POP JUMPDEST POP POP POP SWAP2 DUP4 MSTORE POP POP PUSH1 0x40 DUP1 MLOAD PUSH2 0x3C0 DUP2 ADD SWAP2 DUP3 SWAP1 MSTORE PUSH1 0x20 SWAP1 SWAP3 ADD SWAP2 SWAP1 PUSH1 0x6 DUP5 ADD SWAP1 PUSH1 0x1E SWAP1 DUP3 PUSH0 DUP6 JUMPDEST DUP3 SLOAD PUSH2 0x100 DUP4 SWAP1 EXP SWAP1 DIV PUSH1 0xFF AND DUP2 MSTORE PUSH1 0x20 PUSH1 0x1 SWAP3 DUP4 ADD DUP2 DUP2 DIV SWAP5 DUP6 ADD SWAP5 SWAP1 SWAP4 SUB SWAP1 SWAP3 MUL SWAP2 ADD DUP1 DUP5 GT PUSH2 0x1D50 JUMPI POP POP POP SWAP3 DUP5 MSTORE POP POP PUSH1 0x40 DUP1 MLOAD PUSH1 0x80 DUP2 ADD SWAP2 DUP3 SWAP1 MSTORE PUSH1 0x20 SWAP1 SWAP4 ADD SWAP3 SWAP2 POP PUSH1 0x7 DUP5 ADD SWAP1 PUSH1 0x4 SWAP1 DUP3 DUP5 JUMPDEST DUP2 SLOAD DUP2 MSTORE PUSH1 0x20 ADD SWAP1 PUSH1 0x1 ADD SWAP1 DUP1 DUP4 GT PUSH2 0x1DA3 JUMPI POP POP POP SWAP2 DUP4 MSTORE POP POP PUSH1 0x40 DUP1 MLOAD PUSH1 0x80 DUP2 ADD SWAP2 DUP3 SWAP1 MSTORE PUSH1 0x20 SWAP1 SWAP3 ADD SWAP2 SWAP1 PUSH1 0xB DUP5 ADD SWAP1 PUSH1 0x4 SWAP1 DUP3 DUP5 JUMPDEST DUP2 SLOAD DUP2 MSTORE PUSH1 0x20 ADD SWAP1 PUSH1 0x1 ADD SWAP1 DUP1 DUP4 GT PUSH2 0x1DDC JUMPI POP POP POP SWAP2 SWAP1 SWAP3 MSTORE POP POP POP DUP2 MSTORE PUSH0 DUP5 DUP2 MSTORE PUSH1 0x14 PUSH1 0x20 SWAP1 DUP2 MSTORE PUSH1 0x40 DUP1 DUP4 KECCAK256 DUP2 MLOAD PUSH1 0xA0 DUP2 ADD DUP4 MSTORE DUP2 SLOAD DUP2 MSTORE PUSH1 0x1 DUP3 ADD SLOAD DUP2 DUP6 ADD MSTORE PUSH1 0x2 DUP3 ADD SLOAD DUP2 DUP5 ADD MSTORE PUSH1 0x3 DUP3 ADD SLOAD PUSH1 0xFF AND ISZERO ISZERO PUSH1 0x60 DUP3 ADD MSTORE DUP3 MLOAD PUSH2 0x140 DUP2 ADD SWAP4 DUP5 SWAP1 MSTORE SWAP4 SWAP1 SWAP6 ADD SWAP5 SWAP4 SWAP1 SWAP3 PUSH1 0x80 DUP6 ADD SWAP3 SWAP1 SWAP2 PUSH1 0x4 DUP6 ADD SWAP2 PUSH1 0xA SWAP2 DUP4 SWAP1 DUP6 JUMPDEST DUP3 SLOAD PUSH2 0x100 DUP4 SWAP1 EXP SWAP1 DIV PUSH1 0xFF AND DUP2 MSTORE PUSH1 0x20 PUSH1 0x1 SWAP3 DUP4 ADD DUP2 DUP2 DIV SWAP5 DUP6 ADD SWAP5 SWAP1 SWAP4 SUB SWAP1 SWAP3 MUL SWAP2 ADD DUP1 DUP5 GT PUSH2 0x1E5E JUMPI POP POP POP SWAP3 SWAP1 SWAP4 MSTORE POP POP POP SWAP2 MSTORE POP SWAP3 SWAP2 POP POP JUMP JUMPDEST PUSH2 0x1EA5 PUSH2 0x468D JUMP JUMPDEST PUSH1 0x1 PUSH1 0x1 PUSH1 0xA0 SHL SUB DUP3 AND PUSH0 SWAP1 DUP2 MSTORE PUSH1 0x10 PUSH1 0x20 SWAP1 DUP2 MSTORE PUSH1 0x40 DUP1 DUP4 KECCAK256 SLOAD DUP4 MSTORE PUSH1 0xF DUP3 MSTORE DUP1 DUP4 KECCAK256 DUP2 MLOAD PUSH1 0x8 DUP3 ADD SLOAD DUP6 MSTORE PUSH1 0x13 SWAP1 SWAP4 MSTORE SWAP3 DUP2 SWAP1 KECCAK256 PUSH2 0x180 DUP4 ADD SWAP1 SWAP2 MSTORE DUP1 SLOAD DUP3 SWAP2 PUSH1 0x60 DUP4 ADD SWAP2 DUP3 SWAP1 PUSH1 0xFF AND PUSH1 0x4 DUP2 GT ISZERO PUSH2 0x1F02 JUMPI PUSH2 0x1F02 PUSH2 0x48A9 JUMP JUMPDEST PUSH1 0x4 DUP2 GT ISZERO PUSH2 0x1F13 JUMPI PUSH2 0x1F13 PUSH2 0x48A9 JUMP JUMPDEST DUP2 MSTORE PUSH1 0x20 ADD PUSH1 0x1 DUP3 ADD SLOAD DUP2 MSTORE PUSH1 0x20 ADD PUSH1 0x2 DUP3 ADD SLOAD DUP2 MSTORE PUSH1 0x20 ADD PUSH1 0x3 DUP3 ADD SLOAD DUP2 MSTORE PUSH1 0x20 ADD PUSH1 0x4 DUP3 ADD SLOAD DUP2 MSTORE PUSH1 0x20 ADD PUSH1 0x5 DUP3 ADD SLOAD DUP2 MSTORE PUSH1 0x20 ADD PUSH1 0x6 DUP3 ADD SLOAD DUP2 MSTORE PUSH1 0x20 ADD PUSH1 0x7 DUP3 ADD SLOAD DUP2 MSTORE PUSH1 0x20 ADD PUSH1 0x8 DUP3 ADD SLOAD DUP2 MSTORE POP POP DUP2 MSTORE PUSH1 0x20 ADD PUSH1 0x15 PUSH0 DUP5 PUSH1 0x8 ADD SLOAD DUP2 MSTORE PUSH1 0x20 ADD SWAP1 DUP2 MSTORE PUSH1 0x20 ADD PUSH0 KECCAK256 PUSH1 0x40 MLOAD DUP1 PUSH1 0xC0 ADD PUSH1 0x40 MSTORE SWAP1 DUP2 PUSH0 DUP3 ADD PUSH1 0x4 DUP1 PUSH1 0x20 MUL PUSH1 0x40 MLOAD SWAP1 DUP2 ADD PUSH1 0x40 MSTORE DUP1 SWAP3 SWAP2 SWAP1 PUSH0 SWAP1 JUMPDEST DUP3 DUP3 LT ISZERO PUSH2 0x2009 JUMPI PUSH1 0x40 DUP1 MLOAD PUSH2 0x1E0 DUP2 ADD SWAP2 DUP3 SWAP1 MSTORE SWAP1 DUP6 DUP5 ADD SWAP1 PUSH1 0xF SWAP1 DUP3 PUSH0 DUP6 JUMPDEST DUP3 SLOAD PUSH2 0x100 DUP4 SWAP1 EXP SWAP1 DIV PUSH1 0xFF AND DUP2 MSTORE PUSH1 0x20 PUSH1 0x1 SWAP3 DUP4 ADD DUP2 DUP2 DIV SWAP5 DUP6 ADD SWAP5 SWAP1 SWAP4 SUB SWAP1 SWAP3 MUL SWAP2 ADD DUP1 DUP5 GT PUSH2 0x1FC7 JUMPI SWAP1 POP POP POP POP POP POP DUP2 MSTORE PUSH1 0x20 ADD SWAP1 PUSH1 0x1 ADD SWAP1 PUSH2 0x1FA6 JUMP JUMPDEST POP POP POP SWAP1 DUP3 MSTORE POP PUSH1 0x4 DUP3 ADD SLOAD PUSH1 0xFF AND PUSH1 0x20 DUP1 DUP4 ADD SWAP2 SWAP1 SWAP2 MSTORE PUSH1 0x5 DUP4 ADD DUP1 SLOAD PUSH1 0x40 DUP1 MLOAD DUP3 DUP6 MUL DUP2 ADD DUP6 ADD DUP3 MSTORE DUP3 DUP2 MSTORE SWAP5 ADD SWAP4 SWAP3 DUP4 ADD DUP3 DUP3 DUP1 ISZERO PUSH2 0x2087 JUMPI PUSH1 0x20 MUL DUP3 ADD SWAP2 SWAP1 PUSH0 MSTORE PUSH1 0x20 PUSH0 KECCAK256 SWAP1 PUSH0 SWAP1 JUMPDEST DUP3 SLOAD PUSH2 0x100 DUP4 SWAP1 EXP SWAP1 DIV PUSH1 0xFF AND ISZERO ISZERO DUP2 MSTORE PUSH1 0x20 PUSH1 0x1 SWAP3 DUP4 ADD DUP2 DUP2 DIV SWAP5 DUP6 ADD SWAP5 SWAP1 SWAP4 SUB SWAP1 SWAP3 MUL SWAP2 ADD DUP1 DUP5 GT PUSH2 0x2056 JUMPI SWAP1 POP JUMPDEST POP POP POP SWAP2 DUP4 MSTORE POP POP PUSH1 0x40 DUP1 MLOAD PUSH2 0x3C0 DUP2 ADD SWAP2 DUP3 SWAP1 MSTORE PUSH1 0x20 SWAP1 SWAP3 ADD SWAP2 SWAP1 PUSH1 0x6 DUP5 ADD SWAP1 PUSH1 0x1E SWAP1 DUP3 PUSH0 DUP6 JUMPDEST DUP3 SLOAD PUSH2 0x100 DUP4 SWAP1 EXP SWAP1 DIV PUSH1 0xFF AND DUP2 MSTORE PUSH1 0x20 PUSH1 0x1 SWAP3 DUP4 ADD DUP2 DUP2 DIV SWAP5 DUP6 ADD SWAP5 SWAP1 SWAP4 SUB SWAP1 SWAP3 MUL SWAP2 ADD DUP1 DUP5 GT PUSH2 0x20AF JUMPI POP POP POP SWAP3 DUP5 MSTORE POP POP PUSH1 0x40 DUP1 MLOAD PUSH1 0x80 DUP2 ADD SWAP2 DUP3 SWAP1 MSTORE PUSH1 0x20 SWAP1 SWAP4 ADD SWAP3 SWAP2 POP PUSH1 0x7 DUP5 ADD SWAP1 PUSH1 0x4 SWAP1 DUP3 DUP5 JUMPDEST DUP2 SLOAD DUP2 MSTORE PUSH1 0x20 ADD SWAP1 PUSH1 0x1 ADD SWAP1 DUP1 DUP4 GT PUSH2 0x2102 JUMPI POP POP POP SWAP2 DUP4 MSTORE POP POP PUSH1 0x40 DUP1 MLOAD PUSH1 0x80 DUP2 ADD SWAP2 DUP3 SWAP1 MSTORE PUSH1 0x20 SWAP1 SWAP3 ADD SWAP2 SWAP1 PUSH1 0xB DUP5 ADD SWAP1 PUSH1 0x4 SWAP1 DUP3 DUP5 JUMPDEST DUP2 SLOAD DUP2 MSTORE PUSH1 0x20 ADD SWAP1 PUSH1 0x1 ADD SWAP1 DUP1 DUP4 GT PUSH2 0x213B JUMPI POP POP POP SWAP2 SWAP1 SWAP3 MSTORE POP POP POP DUP2 MSTORE PUSH1 0x8 DUP4 ADD SLOAD PUSH0 SWAP1 DUP2 MSTORE PUSH1 0x14 PUSH1 0x20 SWAP1 DUP2 MSTORE PUSH1 0x40 DUP1 DUP4 KECCAK256 DUP2 MLOAD PUSH1 0xA0 DUP2 ADD DUP4 MSTORE DUP2 SLOAD DUP2 MSTORE PUSH1 0x1 DUP3 ADD SLOAD DUP2 DUP6 ADD MSTORE PUSH1 0x2 DUP3 ADD SLOAD DUP2 DUP5 ADD MSTORE PUSH1 0x3 DUP3 ADD SLOAD PUSH1 0xFF AND ISZERO ISZERO PUSH1 0x60 DUP3 ADD MSTORE DUP3 MLOAD PUSH2 0x140 DUP2 ADD SWAP4 DUP5 SWAP1 MSTORE SWAP4 SWAP1 SWAP6 ADD SWAP5 SWAP4 SWAP1 SWAP3 PUSH1 0x80 DUP6 ADD SWAP3 SWAP1 SWAP2 PUSH1 0x4 DUP6 ADD SWAP2 PUSH1 0xA SWAP2 DUP4 SWAP1 DUP6 JUMPDEST DUP3 SLOAD PUSH2 0x100 DUP4 SWAP1 EXP SWAP1 DIV PUSH1 0xFF AND DUP2 MSTORE PUSH1 0x20 PUSH1 0x1 SWAP3 DUP4 ADD DUP2 DUP2 DIV SWAP5 DUP6 ADD SWAP5 SWAP1 SWAP4 SUB SWAP1 SWAP3 MUL SWAP2 ADD DUP1 DUP5 GT PUSH2 0x21C2 JUMPI POP POP POP SWAP3 SWAP1 SWAP4 MSTORE POP POP POP SWAP2 MSTORE POP SWAP4 SWAP3 POP POP POP JUMP JUMPDEST PUSH1 0x60 PUSH1 0x12 SLOAD DUP4 GT ISZERO PUSH2 0x2246 JUMPI PUSH1 0x40 DUP1 MLOAD PUSH0 DUP1 DUP3 MSTORE PUSH1 0x20 DUP3 ADD SWAP1 SWAP3 MSTORE SWAP1 PUSH2 0x223E JUMP JUMPDEST PUSH2 0x222B PUSH2 0x468D JUMP JUMPDEST DUP2 MSTORE PUSH1 0x20 ADD SWAP1 PUSH1 0x1 SWAP1 SUB SWAP1 DUP2 PUSH2 0x2223 JUMPI SWAP1 POP JUMPDEST POP SWAP1 POP PUSH2 0x2683 JUMP JUMPDEST DUP3 ISZERO DUP1 ISZERO PUSH2 0x2252 JUMPI POP DUP2 ISZERO JUMPDEST ISZERO PUSH2 0x225D JUMPI PUSH1 0x12 SLOAD SWAP2 POP JUMPDEST PUSH1 0x12 SLOAD PUSH2 0x226A DUP4 DUP6 PUSH2 0x56DD JUMP JUMPDEST GT ISZERO PUSH2 0x2281 JUMPI DUP3 PUSH1 0x12 SLOAD PUSH2 0x227E SWAP2 SWAP1 PUSH2 0x571D JUMP JUMPDEST SWAP2 POP JUMPDEST PUSH0 DUP3 PUSH1 0x1 PUSH1 0x1 PUSH1 0x40 SHL SUB DUP2 GT ISZERO PUSH2 0x229A JUMPI PUSH2 0x229A PUSH2 0x4A47 JUMP JUMPDEST PUSH1 0x40 MLOAD SWAP1 DUP1 DUP3 MSTORE DUP1 PUSH1 0x20 MUL PUSH1 0x20 ADD DUP3 ADD PUSH1 0x40 MSTORE DUP1 ISZERO PUSH2 0x22D3 JUMPI DUP2 PUSH1 0x20 ADD JUMPDEST PUSH2 0x22C0 PUSH2 0x468D JUMP JUMPDEST DUP2 MSTORE PUSH1 0x20 ADD SWAP1 PUSH1 0x1 SWAP1 SUB SWAP1 DUP2 PUSH2 0x22B8 JUMPI SWAP1 POP JUMPDEST POP SWAP1 POP PUSH0 JUMPDEST DUP4 DUP2 LT ISZERO PUSH2 0x267F JUMPI PUSH1 0x40 MLOAD DUP1 PUSH1 0x60 ADD PUSH1 0x40 MSTORE DUP1 PUSH1 0x13 PUSH0 DUP9 DUP6 PUSH1 0x12 SLOAD PUSH2 0x22FD SWAP2 SWAP1 PUSH2 0x571D JUMP JUMPDEST PUSH2 0x2307 SWAP2 SWAP1 PUSH2 0x571D JUMP JUMPDEST DUP2 MSTORE PUSH1 0x20 DUP2 ADD SWAP2 SWAP1 SWAP2 MSTORE PUSH1 0x40 SWAP1 DUP2 ADD PUSH0 KECCAK256 DUP2 MLOAD PUSH2 0x120 DUP2 ADD SWAP1 SWAP3 MSTORE DUP1 SLOAD DUP3 SWAP1 PUSH1 0xFF AND PUSH1 0x4 DUP2 GT ISZERO PUSH2 0x233A JUMPI PUSH2 0x233A PUSH2 0x48A9 JUMP JUMPDEST PUSH1 0x4 DUP2 GT ISZERO PUSH2 0x234B JUMPI PUSH2 0x234B PUSH2 0x48A9 JUMP JUMPDEST DUP2 MSTORE PUSH1 0x20 ADD PUSH1 0x1 DUP3 ADD SLOAD DUP2 MSTORE PUSH1 0x20 ADD PUSH1 0x2 DUP3 ADD SLOAD DUP2 MSTORE PUSH1 0x20 ADD PUSH1 0x3 DUP3 ADD SLOAD DUP2 MSTORE PUSH1 0x20 ADD PUSH1 0x4 DUP3 ADD SLOAD DUP2 MSTORE PUSH1 0x20 ADD PUSH1 0x5 DUP3 ADD SLOAD DUP2 MSTORE PUSH1 0x20 ADD PUSH1 0x6 DUP3 ADD SLOAD DUP2 MSTORE PUSH1 0x20 ADD PUSH1 0x7 DUP3 ADD SLOAD DUP2 MSTORE PUSH1 0x20 ADD PUSH1 0x8 DUP3 ADD SLOAD DUP2 MSTORE POP POP DUP2 MSTORE PUSH1 0x20 ADD PUSH1 0x15 PUSH0 DUP9 DUP6 PUSH1 0x12 SLOAD PUSH2 0x23B6 SWAP2 SWAP1 PUSH2 0x571D JUMP JUMPDEST PUSH2 0x23C0 SWAP2 SWAP1 PUSH2 0x571D JUMP JUMPDEST DUP2 MSTORE PUSH1 0x20 DUP2 ADD SWAP2 SWAP1 SWAP2 MSTORE PUSH1 0x40 SWAP1 DUP2 ADD PUSH0 SWAP1 DUP2 KECCAK256 DUP3 MLOAD PUSH2 0x140 DUP2 ADD SWAP1 SWAP4 MSTORE SWAP1 DUP3 SWAP1 PUSH1 0xC0 DUP3 ADD SWAP1 DUP4 SWAP1 PUSH1 0x4 SWAP1 DUP4 JUMPDEST DUP3 DUP3 LT ISZERO PUSH2 0x244F JUMPI PUSH1 0x40 DUP1 MLOAD PUSH2 0x1E0 DUP2 ADD SWAP2 DUP3 SWAP1 MSTORE SWAP1 DUP6 DUP5 ADD SWAP1 PUSH1 0xF SWAP1 DUP3 PUSH0 DUP6 JUMPDEST DUP3 SLOAD PUSH2 0x100 DUP4 SWAP1 EXP SWAP1 DIV PUSH1 0xFF AND DUP2 MSTORE PUSH1 0x20 PUSH1 0x1 SWAP3 DUP4 ADD DUP2 DUP2 DIV SWAP5 DUP6 ADD SWAP5 SWAP1 SWAP4 SUB SWAP1 SWAP3 MUL SWAP2 ADD DUP1 DUP5 GT PUSH2 0x240D JUMPI SWAP1 POP POP POP POP POP POP DUP2 MSTORE PUSH1 0x20 ADD SWAP1 PUSH1 0x1 ADD SWAP1 PUSH2 0x23EC JUMP JUMPDEST POP POP POP SWAP1 DUP3 MSTORE POP PUSH1 0x4 DUP3 ADD SLOAD PUSH1 0xFF AND PUSH1 0x20 DUP1 DUP4 ADD SWAP2 SWAP1 SWAP2 MSTORE PUSH1 0x5 DUP4 ADD DUP1 SLOAD PUSH1 0x40 DUP1 MLOAD DUP3 DUP6 MUL DUP2 ADD DUP6 ADD DUP3 MSTORE DUP3 DUP2 MSTORE SWAP5 ADD SWAP4 SWAP3 DUP4 ADD DUP3 DUP3 DUP1 ISZERO PUSH2 0x24CD JUMPI PUSH1 0x20 MUL DUP3 ADD SWAP2 SWAP1 PUSH0 MSTORE PUSH1 0x20 PUSH0 KECCAK256 SWAP1 PUSH0 SWAP1 JUMPDEST DUP3 SLOAD PUSH2 0x100 DUP4 SWAP1 EXP SWAP1 DIV PUSH1 0xFF AND ISZERO ISZERO DUP2 MSTORE PUSH1 0x20 PUSH1 0x1 SWAP3 DUP4 ADD DUP2 DUP2 DIV SWAP5 DUP6 ADD SWAP5 SWAP1 SWAP4 SUB SWAP1 SWAP3 MUL SWAP2 ADD DUP1 DUP5 GT PUSH2 0x249C JUMPI SWAP1 POP JUMPDEST POP POP POP SWAP2 DUP4 MSTORE POP POP PUSH1 0x40 DUP1 MLOAD PUSH2 0x3C0 DUP2 ADD SWAP2 DUP3 SWAP1 MSTORE PUSH1 0x20 SWAP1 SWAP3 ADD SWAP2 SWAP1 PUSH1 0x6 DUP5 ADD SWAP1 PUSH1 0x1E SWAP1 DUP3 PUSH0 DUP6 JUMPDEST DUP3 SLOAD PUSH2 0x100 DUP4 SWAP1 EXP SWAP1 DIV PUSH1 0xFF AND DUP2 MSTORE PUSH1 0x20 PUSH1 0x1 SWAP3 DUP4 ADD DUP2 DUP2 DIV SWAP5 DUP6 ADD SWAP5 SWAP1 SWAP4 SUB SWAP1 SWAP3 MUL SWAP2 ADD DUP1 DUP5 GT PUSH2 0x24F5 JUMPI POP POP POP SWAP3 DUP5 MSTORE POP POP PUSH1 0x40 DUP1 MLOAD PUSH1 0x80 DUP2 ADD SWAP2 DUP3 SWAP1 MSTORE PUSH1 0x20 SWAP1 SWAP4 ADD SWAP3 SWAP2 POP PUSH1 0x7 DUP5 ADD SWAP1 PUSH1 0x4 SWAP1 DUP3 DUP5 JUMPDEST DUP2 SLOAD DUP2 MSTORE PUSH1 0x20 ADD SWAP1 PUSH1 0x1 ADD SWAP1 DUP1 DUP4 GT PUSH2 0x2548 JUMPI POP POP POP SWAP2 DUP4 MSTORE POP POP PUSH1 0x40 DUP1 MLOAD PUSH1 0x80 DUP2 ADD SWAP2 DUP3 SWAP1 MSTORE PUSH1 0x20 SWAP1 SWAP3 ADD SWAP2 SWAP1 PUSH1 0xB DUP5 ADD SWAP1 PUSH1 0x4 SWAP1 DUP3 DUP5 JUMPDEST DUP2 SLOAD DUP2 MSTORE PUSH1 0x20 ADD SWAP1 PUSH1 0x1 ADD SWAP1 DUP1 DUP4 GT PUSH2 0x2581 JUMPI POP POP POP POP POP DUP2 MSTORE POP POP DUP2 MSTORE PUSH1 0x20 ADD PUSH1 0x14 PUSH0 DUP9 DUP6 PUSH1 0x12 SLOAD PUSH2 0x25B4 SWAP2 SWAP1 PUSH2 0x571D JUMP JUMPDEST PUSH2 0x25BE SWAP2 SWAP1 PUSH2 0x571D JUMP JUMPDEST DUP2 MSTORE PUSH1 0x20 DUP1 DUP3 ADD SWAP3 SWAP1 SWAP3 MSTORE PUSH1 0x40 SWAP1 DUP2 ADD PUSH0 SWAP1 DUP2 KECCAK256 DUP3 MLOAD PUSH1 0xA0 DUP2 ADD DUP5 MSTORE DUP2 SLOAD DUP2 MSTORE PUSH1 0x1 DUP3 ADD SLOAD SWAP5 DUP2 ADD SWAP5 SWAP1 SWAP5 MSTORE PUSH1 0x2 DUP2 ADD SLOAD DUP5 DUP5 ADD MSTORE PUSH1 0x3 DUP2 ADD SLOAD PUSH1 0xFF AND ISZERO ISZERO PUSH1 0x60 DUP6 ADD MSTORE DUP3 MLOAD PUSH2 0x140 DUP2 ADD SWAP4 DUP5 SWAP1 MSTORE SWAP1 SWAP3 PUSH1 0x80 DUP6 ADD SWAP3 PUSH1 0x4 DUP6 ADD SWAP2 PUSH1 0xA SWAP2 DUP4 SWAP1 DUP6 JUMPDEST DUP3 SLOAD PUSH2 0x100 DUP4 SWAP1 EXP SWAP1 DIV PUSH1 0xFF AND DUP2 MSTORE PUSH1 0x20 PUSH1 0x1 SWAP3 DUP4 ADD DUP2 DUP2 DIV SWAP5 DUP6 ADD SWAP5 SWAP1 SWAP4 SUB SWAP1 SWAP3 MUL SWAP2 ADD DUP1 DUP5 GT PUSH2 0x2620 JUMPI SWAP1 POP POP POP POP POP POP DUP2 MSTORE POP POP DUP2 MSTORE POP DUP3 DUP3 DUP2 MLOAD DUP2 LT PUSH2 0x266C JUMPI PUSH2 0x266C PUSH2 0x56F0 JUMP JUMPDEST PUSH1 0x20 SWAP1 DUP2 MUL SWAP2 SWAP1 SWAP2 ADD ADD MSTORE PUSH1 0x1 ADD PUSH2 0x22D8 JUMP JUMPDEST POP SWAP1 POP JUMPDEST SWAP3 SWAP2 POP POP JUMP JUMPDEST PUSH1 0x2 SLOAD PUSH1 0x40 MLOAD PUSH4 0x11A34965 PUSH1 0xE3 SHL DUP2 MSTORE ADDRESS PUSH1 0x4 DUP3 ADD MSTORE PUSH0 SWAP2 PUSH1 0x1 PUSH1 0x1 PUSH1 0xA0 SHL SUB AND SWAP1 PUSH4 0x8D1A4B28 SWAP1 PUSH1 0x24 ADD PUSH0 PUSH1 0x40 MLOAD DUP1 DUP4 SUB DUP2 DUP7 GAS STATICCALL ISZERO DUP1 ISZERO PUSH2 0x26CE JUMPI RETURNDATASIZE PUSH0 DUP1 RETURNDATACOPY RETURNDATASIZE PUSH0 REVERT JUMPDEST POP POP POP POP PUSH1 0x40 MLOAD RETURNDATASIZE PUSH0 DUP3 RETURNDATACOPY PUSH1 0x1F RETURNDATASIZE SWAP1 DUP2 ADD PUSH1 0x1F NOT AND DUP3 ADD PUSH1 0x40 MSTORE PUSH2 0x26F5 SWAP2 SWAP1 DUP2 ADD SWAP1 PUSH2 0x55A5 JUMP JUMPDEST PUSH1 0x80 ADD MLOAD SWAP1 POP SWAP1 JUMP JUMPDEST PUSH1 0x60 DUP1 PUSH0 DUP1 PUSH2 0x27A2 PUSH2 0x270F DUP8 PUSH2 0x4116 JUMP JUMPDEST PUSH0 DUP9 DUP2 MSTORE PUSH1 0x15 PUSH1 0x20 SWAP1 DUP2 MSTORE PUSH1 0x40 SWAP2 DUP3 SWAP1 KECCAK256 PUSH1 0x5 ADD DUP1 SLOAD DUP4 MLOAD DUP2 DUP5 MUL DUP2 ADD DUP5 ADD SWAP1 SWAP5 MSTORE DUP1 DUP5 MSTORE SWAP1 SWAP2 DUP4 ADD DUP3 DUP3 DUP1 ISZERO PUSH2 0x2782 JUMPI PUSH1 0x20 MUL DUP3 ADD SWAP2 SWAP1 PUSH0 MSTORE PUSH1 0x20 PUSH0 KECCAK256 SWAP1 PUSH0 SWAP1 JUMPDEST DUP3 SLOAD PUSH2 0x100 DUP4 SWAP1 EXP SWAP1 DIV PUSH1 0xFF AND ISZERO ISZERO DUP2 MSTORE PUSH1 0x20 PUSH1 0x1 SWAP3 DUP4 ADD DUP2 DUP2 DIV SWAP5 DUP6 ADD SWAP5 SWAP1 SWAP4 SUB SWAP1 SWAP3 MUL SWAP2 ADD DUP1 DUP5 GT PUSH2 0x2751 JUMPI SWAP1 POP JUMPDEST POP POP POP PUSH0 DUP12 DUP2 MSTORE PUSH1 0x13 PUSH1 0x20 MSTORE PUSH1 0x40 SWAP1 KECCAK256 PUSH1 0x7 ADD SLOAD DUP11 SWAP3 POP SWAP1 POP PUSH1 0x1 PUSH2 0x28EC JUMP JUMPDEST SWAP3 SWAP10 SWAP2 SWAP9 POP SWAP7 POP SWAP1 SWAP5 POP SWAP3 POP POP POP JUMP JUMPDEST PUSH2 0x2801 PUSH1 0x40 MLOAD DUP1 PUSH2 0x120 ADD PUSH1 0x40 MSTORE DUP1 PUSH0 DUP2 MSTORE PUSH1 0x20 ADD PUSH0 PUSH1 0x1 PUSH1 0x1 PUSH1 0xA0 SHL SUB AND DUP2 MSTORE PUSH1 0x20 ADD PUSH0 DUP2 MSTORE PUSH1 0x20 ADD PUSH0 DUP2 MSTORE PUSH1 0x20 ADD PUSH0 DUP2 MSTORE PUSH1 0x20 ADD PUSH0 DUP2 MSTORE PUSH1 0x20 ADD PUSH0 DUP2 MSTORE PUSH1 0x20 ADD PUSH0 DUP2 MSTORE PUSH1 0x20 ADD PUSH0 DUP2 MSTORE POP SWAP1 JUMP JUMPDEST PUSH2 0x2809 PUSH2 0x468D JUMP JUMPDEST PUSH1 0x1 PUSH1 0x1 PUSH1 0xA0 SHL SUB DUP4 AND PUSH0 SWAP1 DUP2 MSTORE PUSH1 0x10 PUSH1 0x20 MSTORE PUSH1 0x40 SWAP1 KECCAK256 SLOAD ISZERO PUSH2 0x28E7 JUMPI PUSH1 0x1 PUSH1 0x1 PUSH1 0xA0 SHL SUB DUP1 DUP5 AND PUSH0 SWAP1 DUP2 MSTORE PUSH1 0x10 PUSH1 0x20 SWAP1 DUP2 MSTORE PUSH1 0x40 DUP1 DUP4 KECCAK256 SLOAD DUP4 MSTORE PUSH1 0xF DUP3 MSTORE SWAP2 DUP3 SWAP1 KECCAK256 DUP3 MLOAD PUSH2 0x120 DUP2 ADD DUP5 MSTORE DUP2 SLOAD DUP2 MSTORE PUSH1 0x1 DUP3 ADD SLOAD SWAP1 SWAP5 AND SWAP2 DUP5 ADD SWAP2 SWAP1 SWAP2 MSTORE PUSH1 0x2 DUP2 ADD SLOAD SWAP2 DUP4 ADD SWAP2 SWAP1 SWAP2 MSTORE PUSH1 0x3 DUP2 ADD SLOAD PUSH1 0x60 DUP4 ADD MSTORE PUSH1 0x4 DUP2 ADD SLOAD PUSH1 0x80 DUP4 ADD MSTORE PUSH1 0x5 DUP2 ADD SLOAD PUSH1 0xA0 DUP4 ADD MSTORE PUSH1 0x6 DUP2 ADD SLOAD PUSH1 0xC0 DUP4 ADD MSTORE PUSH1 0x7 DUP2 ADD SLOAD PUSH1 0xE0 DUP4 ADD MSTORE PUSH1 0x8 ADD SLOAD PUSH2 0x100 DUP3 ADD DUP2 SWAP1 MSTORE SWAP1 SWAP3 POP ISZERO PUSH2 0x28E7 JUMPI PUSH2 0x28C8 DUP3 PUSH2 0x100 ADD MLOAD PUSH2 0x1B65 JUMP JUMPDEST SWAP1 POP PUSH2 0x28D8 DUP3 PUSH2 0x100 ADD MLOAD PUSH2 0x15A7 JUMP JUMPDEST PUSH1 0x40 DUP3 ADD MLOAD SWAP1 ISZERO ISZERO PUSH1 0x60 SWAP1 SWAP2 ADD MSTORE JUMPDEST SWAP2 POP SWAP2 JUMP JUMPDEST PUSH1 0x60 DUP1 PUSH0 DUP1 PUSH0 DUP10 MLOAD SWAP1 POP DUP1 PUSH1 0x1 PUSH1 0x1 PUSH1 0x40 SHL SUB DUP2 GT ISZERO PUSH2 0x290E JUMPI PUSH2 0x290E PUSH2 0x4A47 JUMP JUMPDEST PUSH1 0x40 MLOAD SWAP1 DUP1 DUP3 MSTORE DUP1 PUSH1 0x20 MUL PUSH1 0x20 ADD DUP3 ADD PUSH1 0x40 MSTORE DUP1 ISZERO PUSH2 0x2937 JUMPI DUP2 PUSH1 0x20 ADD PUSH1 0x20 DUP3 MUL DUP1 CALLDATASIZE DUP4 CALLDATACOPY ADD SWAP1 POP JUMPDEST POP SWAP5 POP DUP1 PUSH1 0x1 PUSH1 0x1 PUSH1 0x40 SHL SUB DUP2 GT ISZERO PUSH2 0x2952 JUMPI PUSH2 0x2952 PUSH2 0x4A47 JUMP JUMPDEST PUSH1 0x40 MLOAD SWAP1 DUP1 DUP3 MSTORE DUP1 PUSH1 0x20 MUL PUSH1 0x20 ADD DUP3 ADD PUSH1 0x40 MSTORE DUP1 ISZERO PUSH2 0x297B JUMPI DUP2 PUSH1 0x20 ADD PUSH1 0x20 DUP3 MUL DUP1 CALLDATASIZE DUP4 CALLDATACOPY ADD SWAP1 POP JUMPDEST POP SWAP4 POP PUSH2 0x2986 PUSH2 0x466E JUMP JUMPDEST PUSH0 DUP8 PUSH2 0x2993 JUMPI PUSH1 0x1E PUSH2 0x2996 JUMP JUMPDEST PUSH1 0x28 JUMPDEST PUSH1 0xFF AND SWAP1 POP PUSH0 JUMPDEST DUP2 DUP2 LT DUP1 ISZERO PUSH2 0x29AC JUMPI POP DUP11 MLOAD DUP2 LT JUMPDEST ISZERO PUSH2 0x2A20 JUMPI PUSH0 DUP12 DUP3 DUP2 MLOAD DUP2 LT PUSH2 0x29C4 JUMPI PUSH2 0x29C4 PUSH2 0x56F0 JUMP JUMPDEST PUSH1 0x20 MUL PUSH1 0x20 ADD ADD MLOAD SWAP1 POP PUSH1 0x1 DUP2 PUSH1 0xFF AND LT ISZERO DUP1 ISZERO PUSH2 0x29E6 JUMPI POP PUSH1 0x3C DUP2 PUSH1 0xFF AND GT ISZERO JUMPDEST ISZERO PUSH2 0x2A0D JUMPI PUSH1 0x1 DUP5 DUP3 PUSH1 0xFF AND PUSH1 0x3D DUP2 LT PUSH2 0x2A02 JUMPI PUSH2 0x2A02 PUSH2 0x56F0 JUMP JUMPDEST SWAP2 ISZERO ISZERO PUSH1 0x20 SWAP1 SWAP3 MUL ADD MSTORE JUMPDEST POP DUP1 PUSH2 0x2A18 DUP2 PUSH2 0x578D JUMP JUMPDEST SWAP2 POP POP PUSH2 0x299D JUMP JUMPDEST POP PUSH0 SWAP5 POP PUSH0 SWAP4 POP PUSH0 JUMPDEST DUP4 DUP2 LT ISZERO PUSH2 0x2CF8 JUMPI DUP12 DUP2 DUP2 MLOAD DUP2 LT PUSH2 0x2A43 JUMPI PUSH2 0x2A43 PUSH2 0x56F0 JUMP JUMPDEST PUSH1 0x20 MUL PUSH1 0x20 ADD ADD MLOAD PUSH2 0x2A92 JUMPI PUSH0 DUP9 DUP3 DUP2 MLOAD DUP2 LT PUSH2 0x2A62 JUMPI PUSH2 0x2A62 PUSH2 0x56F0 JUMP JUMPDEST PUSH1 0x20 MUL PUSH1 0x20 ADD ADD DUP2 DUP2 MSTORE POP POP PUSH0 DUP8 DUP3 DUP2 MLOAD DUP2 LT PUSH2 0x2A81 JUMPI PUSH2 0x2A81 PUSH2 0x56F0 JUMP JUMPDEST PUSH1 0x20 MUL PUSH1 0x20 ADD ADD DUP2 DUP2 MSTORE POP POP PUSH2 0x2CF0 JUMP JUMPDEST PUSH2 0x2A9A PUSH2 0x46FE JUMP JUMPDEST PUSH0 JUMPDEST PUSH1 0xF DUP2 PUSH1 0xFF AND LT ISZERO PUSH2 0x2B08 JUMPI DUP15 DUP4 DUP2 MLOAD DUP2 LT PUSH2 0x2ABA JUMPI PUSH2 0x2ABA PUSH2 0x56F0 JUMP JUMPDEST PUSH1 0x20 MUL PUSH1 0x20 ADD ADD MLOAD DUP2 PUSH1 0xFF AND DUP2 MLOAD DUP2 LT PUSH2 0x2AD6 JUMPI PUSH2 0x2AD6 PUSH2 0x56F0 JUMP JUMPDEST PUSH1 0x20 MUL PUSH1 0x20 ADD ADD MLOAD DUP3 DUP3 PUSH1 0xFF AND PUSH1 0xF DUP2 LT PUSH2 0x2AF3 JUMPI PUSH2 0x2AF3 PUSH2 0x56F0 JUMP JUMPDEST PUSH1 0xFF SWAP1 SWAP3 AND PUSH1 0x20 SWAP3 SWAP1 SWAP3 MUL ADD MSTORE PUSH1 0x1 ADD PUSH2 0x2A9C JUMP JUMPDEST POP PUSH0 DUP1 JUMPDEST PUSH1 0xD SLOAD DUP2 LT ISZERO PUSH2 0x2C71 JUMPI PUSH0 DUP2 DUP2 MSTORE PUSH1 0xC PUSH1 0x20 SWAP1 DUP2 MSTORE PUSH1 0x40 DUP1 DUP4 KECCAK256 DUP2 MLOAD DUP1 DUP4 ADD DUP4 MSTORE DUP2 SLOAD DUP2 MSTORE DUP3 MLOAD PUSH2 0x1E0 DUP2 ADD SWAP4 DUP5 SWAP1 MSTORE SWAP1 SWAP4 SWAP2 SWAP3 SWAP2 DUP5 ADD SWAP2 PUSH1 0x1 DUP5 ADD SWAP1 PUSH1 0xF SWAP1 DUP3 DUP9 DUP6 JUMPDEST DUP3 SLOAD PUSH2 0x100 DUP4 SWAP1 EXP SWAP1 DIV PUSH1 0xFF AND ISZERO ISZERO DUP2 MSTORE PUSH1 0x20 PUSH1 0x1 SWAP3 DUP4 ADD DUP2 DUP2 DIV SWAP5 DUP6 ADD SWAP5 SWAP1 SWAP4 SUB SWAP1 SWAP3 MUL SWAP2 ADD DUP1 DUP5 GT PUSH2 0x2B50 JUMPI SWAP1 POP POP POP POP POP POP DUP2 MSTORE POP POP SWAP1 POP PUSH0 DUP1 PUSH0 JUMPDEST PUSH1 0xF DUP2 PUSH1 0xFF AND LT ISZERO PUSH2 0x2C3F JUMPI DUP4 PUSH1 0x20 ADD MLOAD DUP2 PUSH1 0xFF AND PUSH1 0xF DUP2 LT PUSH2 0x2BB4 JUMPI PUSH2 0x2BB4 PUSH2 0x56F0 JUMP JUMPDEST PUSH1 0x20 MUL ADD MLOAD ISZERO PUSH2 0x2C37 JUMPI DUP3 PUSH2 0x2BC8 DUP2 PUSH2 0x576F JUMP JUMPDEST SWAP4 POP POP PUSH0 DUP8 DUP3 PUSH1 0xFF AND PUSH1 0xF DUP2 LT PUSH2 0x2BE1 JUMPI PUSH2 0x2BE1 PUSH2 0x56F0 JUMP JUMPDEST PUSH1 0x20 MUL ADD MLOAD SWAP1 POP PUSH1 0x1 DUP2 PUSH1 0xFF AND LT ISZERO DUP1 ISZERO PUSH2 0x2C00 JUMPI POP PUSH1 0x3C DUP2 PUSH1 0xFF AND GT ISZERO JUMPDEST DUP1 ISZERO PUSH2 0x2C22 JUMPI POP DUP11 DUP2 PUSH1 0xFF AND PUSH1 0x3D DUP2 LT PUSH2 0x2C1C JUMPI PUSH2 0x2C1C PUSH2 0x56F0 JUMP JUMPDEST PUSH1 0x20 MUL ADD MLOAD JUMPDEST ISZERO PUSH2 0x2C35 JUMPI DUP3 PUSH2 0x2C31 DUP2 PUSH2 0x576F JUMP JUMPDEST SWAP4 POP POP JUMPDEST POP JUMPDEST PUSH1 0x1 ADD PUSH2 0x2B8F JUMP JUMPDEST POP PUSH0 DUP3 PUSH1 0xFF AND GT DUP1 ISZERO PUSH2 0x2C57 JUMPI POP DUP2 PUSH1 0xFF AND DUP2 PUSH1 0xFF AND EQ JUMPDEST ISZERO PUSH2 0x2C66 JUMPI POP POP MLOAD SWAP2 POP PUSH2 0x2C71 JUMP JUMPDEST POP POP POP PUSH1 0x1 ADD PUSH2 0x2B0C JUMP JUMPDEST POP DUP1 DUP11 DUP5 DUP2 MLOAD DUP2 LT PUSH2 0x2C85 JUMPI PUSH2 0x2C85 PUSH2 0x56F0 JUMP JUMPDEST PUSH1 0x20 SWAP1 DUP2 MUL SWAP2 SWAP1 SWAP2 ADD ADD MSTORE DUP1 ISZERO PUSH2 0x2CE0 JUMPI PUSH0 PUSH2 0x3E8 PUSH2 0x2CA4 DUP4 DUP16 PUSH2 0x56C6 JUMP JUMPDEST PUSH2 0x2CAE SWAP2 SWAP1 PUSH2 0x57A5 JUMP JUMPDEST SWAP1 POP DUP1 DUP11 DUP6 DUP2 MLOAD DUP2 LT PUSH2 0x2CC3 JUMPI PUSH2 0x2CC3 PUSH2 0x56F0 JUMP JUMPDEST PUSH1 0x20 SWAP1 DUP2 MUL SWAP2 SWAP1 SWAP2 ADD ADD MSTORE PUSH2 0x2CD8 DUP2 DUP11 PUSH2 0x56DD JUMP JUMPDEST SWAP9 POP POP PUSH2 0x2CED JUMP JUMPDEST PUSH2 0x2CEA DUP13 DUP9 PUSH2 0x56DD JUMP JUMPDEST SWAP7 POP JUMPDEST POP POP JUMPDEST PUSH1 0x1 ADD PUSH2 0x2A29 JUMP JUMPDEST POP POP POP POP SWAP6 POP SWAP6 POP SWAP6 POP SWAP6 SWAP2 POP POP JUMP JUMPDEST PUSH0 DUP2 DUP2 MSTORE PUSH1 0x13 PUSH1 0x20 MSTORE PUSH1 0x40 DUP1 DUP3 KECCAK256 DUP2 MLOAD PUSH2 0x120 DUP2 ADD SWAP1 SWAP3 MSTORE DUP1 SLOAD PUSH1 0x60 SWAP4 DUP5 SWAP4 DUP5 SWAP4 SWAP2 SWAP3 DUP4 SWAP3 DUP4 SWAP3 SWAP2 DUP3 SWAP1 PUSH1 0xFF AND PUSH1 0x4 DUP2 GT ISZERO PUSH2 0x2D46 JUMPI PUSH2 0x2D46 PUSH2 0x48A9 JUMP JUMPDEST PUSH1 0x4 DUP2 GT ISZERO PUSH2 0x2D57 JUMPI PUSH2 0x2D57 PUSH2 0x48A9 JUMP JUMPDEST DUP2 MSTORE PUSH1 0x20 ADD PUSH1 0x1 DUP3 ADD SLOAD DUP2 MSTORE PUSH1 0x20 ADD PUSH1 0x2 DUP3 ADD SLOAD DUP2 MSTORE PUSH1 0x20 ADD PUSH1 0x3 DUP3 ADD SLOAD DUP2 MSTORE PUSH1 0x20 ADD PUSH1 0x4 DUP3 ADD SLOAD DUP2 MSTORE PUSH1 0x20 ADD PUSH1 0x5 DUP3 ADD SLOAD DUP2 MSTORE PUSH1 0x20 ADD PUSH1 0x6 DUP3 ADD SLOAD DUP2 MSTORE PUSH1 0x20 ADD PUSH1 0x7 DUP3 ADD SLOAD DUP2 MSTORE PUSH1 0x20 ADD PUSH1 0x8 DUP3 ADD SLOAD DUP2 MSTORE POP POP SWAP1 POP PUSH0 PUSH1 0x15 PUSH0 DUP10 DUP2 MSTORE PUSH1 0x20 ADD SWAP1 DUP2 MSTORE PUSH1 0x20 ADD PUSH0 KECCAK256 PUSH1 0x40 MLOAD DUP1 PUSH1 0xC0 ADD PUSH1 0x40 MSTORE SWAP1 DUP2 PUSH0 DUP3 ADD PUSH1 0x4 DUP1 PUSH1 0x20 MUL PUSH1 0x40 MLOAD SWAP1 DUP2 ADD PUSH1 0x40 MSTORE DUP1 SWAP3 SWAP2 SWAP1 PUSH0 SWAP1 JUMPDEST DUP3 DUP3 LT ISZERO PUSH2 0x2E47 JUMPI PUSH1 0x40 DUP1 MLOAD PUSH2 0x1E0 DUP2 ADD SWAP2 DUP3 SWAP1 MSTORE SWAP1 DUP6 DUP5 ADD SWAP1 PUSH1 0xF SWAP1 DUP3 PUSH0 DUP6 JUMPDEST DUP3 SLOAD PUSH2 0x100 DUP4 SWAP1 EXP SWAP1 DIV PUSH1 0xFF AND DUP2 MSTORE PUSH1 0x20 PUSH1 0x1 SWAP3 DUP4 ADD DUP2 DUP2 DIV SWAP5 DUP6 ADD SWAP5 SWAP1 SWAP4 SUB SWAP1 SWAP3 MUL SWAP2 ADD DUP1 DUP5 GT PUSH2 0x2E05 JUMPI SWAP1 POP POP POP POP POP POP DUP2 MSTORE PUSH1 0x20 ADD SWAP1 PUSH1 0x1 ADD SWAP1 PUSH2 0x2DE4 JUMP JUMPDEST POP POP POP SWAP1 DUP3 MSTORE POP PUSH1 0x4 DUP3 ADD SLOAD PUSH1 0xFF AND PUSH1 0x20 DUP1 DUP4 ADD SWAP2 SWAP1 SWAP2 MSTORE PUSH1 0x5 DUP4 ADD DUP1 SLOAD PUSH1 0x40 DUP1 MLOAD DUP3 DUP6 MUL DUP2 ADD DUP6 ADD DUP3 MSTORE DUP3 DUP2 MSTORE SWAP5 ADD SWAP4 SWAP3 DUP4 ADD DUP3 DUP3 DUP1 ISZERO PUSH2 0x2EC5 JUMPI PUSH1 0x20 MUL DUP3 ADD SWAP2 SWAP1 PUSH0 MSTORE PUSH1 0x20 PUSH0 KECCAK256 SWAP1 PUSH0 SWAP1 JUMPDEST DUP3 SLOAD PUSH2 0x100 DUP4 SWAP1 EXP SWAP1 DIV PUSH1 0xFF AND ISZERO ISZERO DUP2 MSTORE PUSH1 0x20 PUSH1 0x1 SWAP3 DUP4 ADD DUP2 DUP2 DIV SWAP5 DUP6 ADD SWAP5 SWAP1 SWAP4 SUB SWAP1 SWAP3 MUL SWAP2 ADD DUP1 DUP5 GT PUSH2 0x2E94 JUMPI SWAP1 POP JUMPDEST POP POP POP SWAP2 DUP4 MSTORE POP POP PUSH1 0x40 DUP1 MLOAD PUSH2 0x3C0 DUP2 ADD SWAP2 DUP3 SWAP1 MSTORE PUSH1 0x20 SWAP1 SWAP3 ADD SWAP2 SWAP1 PUSH1 0x6 DUP5 ADD SWAP1 PUSH1 0x1E SWAP1 DUP3 PUSH0 DUP6 JUMPDEST DUP3 SLOAD PUSH2 0x100 DUP4 SWAP1 EXP SWAP1 DIV PUSH1 0xFF AND DUP2 MSTORE PUSH1 0x20 PUSH1 0x1 SWAP3 DUP4 ADD DUP2 DUP2 DIV SWAP5 DUP6 ADD SWAP5 SWAP1 SWAP4 SUB SWAP1 SWAP3 MUL SWAP2 ADD DUP1 DUP5 GT PUSH2 0x2EED JUMPI POP POP POP SWAP3 DUP5 MSTORE POP POP PUSH1 0x40 DUP1 MLOAD PUSH1 0x80 DUP2 ADD SWAP2 DUP3 SWAP1 MSTORE PUSH1 0x20 SWAP1 SWAP4 ADD SWAP3 SWAP2 POP PUSH1 0x7 DUP5 ADD SWAP1 PUSH1 0x4 SWAP1 DUP3 DUP5 JUMPDEST DUP2 SLOAD DUP2 MSTORE PUSH1 0x20 ADD SWAP1 PUSH1 0x1 ADD SWAP1 DUP1 DUP4 GT PUSH2 0x2F40 JUMPI POP POP POP SWAP2 DUP4 MSTORE POP POP PUSH1 0x40 DUP1 MLOAD PUSH1 0x80 DUP2 ADD SWAP2 DUP3 SWAP1 MSTORE PUSH1 0x20 SWAP1 SWAP3 ADD SWAP2 SWAP1 PUSH1 0xB DUP5 ADD SWAP1 PUSH1 0x4 SWAP1 DUP3 DUP5 JUMPDEST DUP2 SLOAD DUP2 MSTORE PUSH1 0x20 ADD SWAP1 PUSH1 0x1 ADD SWAP1 DUP1 DUP4 GT PUSH2 0x2F79 JUMPI POP POP POP POP POP DUP2 MSTORE POP POP SWAP1 POP DUP1 PUSH1 0x20 ADD MLOAD PUSH1 0xFF AND PUSH1 0x1 PUSH1 0x1 PUSH1 0x40 SHL SUB DUP2 GT ISZERO PUSH2 0x2FB6 JUMPI PUSH2 0x2FB6 PUSH2 0x4A47 JUMP JUMPDEST PUSH1 0x40 MLOAD SWAP1 DUP1 DUP3 MSTORE DUP1 PUSH1 0x20 MUL PUSH1 0x20 ADD DUP3 ADD PUSH1 0x40 MSTORE DUP1 ISZERO PUSH2 0x2FDF JUMPI DUP2 PUSH1 0x20 ADD PUSH1 0x20 DUP3 MUL DUP1 CALLDATASIZE DUP4 CALLDATACOPY ADD SWAP1 POP JUMPDEST POP SWAP7 POP DUP1 PUSH1 0x20 ADD MLOAD PUSH1 0xFF AND PUSH1 0x1 PUSH1 0x1 PUSH1 0x40 SHL SUB DUP2 GT ISZERO PUSH2 0x3001 JUMPI PUSH2 0x3001 PUSH2 0x4A47 JUMP JUMPDEST PUSH1 0x40 MLOAD SWAP1 DUP1 DUP3 MSTORE DUP1 PUSH1 0x20 MUL PUSH1 0x20 ADD DUP3 ADD PUSH1 0x40 MSTORE DUP1 ISZERO PUSH2 0x302A JUMPI DUP2 PUSH1 0x20 ADD PUSH1 0x20 DUP3 MUL DUP1 CALLDATASIZE DUP4 CALLDATACOPY ADD SWAP1 POP JUMPDEST POP SWAP6 POP DUP1 PUSH1 0x40 ADD MLOAD SWAP5 POP PUSH2 0x303C PUSH2 0x464F JUMP JUMPDEST PUSH2 0x3044 PUSH2 0x466E JUMP JUMPDEST PUSH0 JUMPDEST PUSH1 0x1E DUP2 PUSH1 0xFF AND LT ISZERO PUSH2 0x30D8 JUMPI DUP4 PUSH1 0x60 ADD MLOAD DUP2 PUSH1 0xFF AND PUSH1 0x1E DUP2 LT PUSH2 0x306B JUMPI PUSH2 0x306B PUSH2 0x56F0 JUMP JUMPDEST PUSH1 0x20 MUL ADD MLOAD DUP4 DUP3 PUSH1 0xFF AND PUSH1 0x28 DUP2 LT PUSH2 0x3085 JUMPI PUSH2 0x3085 PUSH2 0x56F0 JUMP JUMPDEST PUSH1 0x20 MUL ADD SWAP1 PUSH1 0xFF AND SWAP1 DUP2 PUSH1 0xFF AND DUP2 MSTORE POP POP PUSH1 0x1 DUP3 DUP5 DUP4 PUSH1 0xFF AND PUSH1 0x28 DUP2 LT PUSH2 0x30AE JUMPI PUSH2 0x30AE PUSH2 0x56F0 JUMP JUMPDEST PUSH1 0x20 MUL ADD MLOAD PUSH1 0xFF AND PUSH1 0x3D DUP2 LT PUSH2 0x30C6 JUMPI PUSH2 0x30C6 PUSH2 0x56F0 JUMP JUMPDEST SWAP2 ISZERO ISZERO PUSH1 0x20 SWAP1 SWAP3 MUL ADD MSTORE PUSH1 0x1 ADD PUSH2 0x3046 JUMP JUMPDEST POP PUSH0 JUMPDEST PUSH1 0xA DUP2 PUSH1 0xFF AND LT ISZERO PUSH2 0x3199 JUMPI PUSH0 DUP12 DUP2 MSTORE PUSH1 0x14 PUSH1 0x20 MSTORE PUSH1 0x40 SWAP1 KECCAK256 PUSH1 0x4 ADD PUSH1 0xFF DUP3 AND PUSH1 0xA DUP2 LT PUSH2 0x310B JUMPI PUSH2 0x310B PUSH2 0x56F0 JUMP JUMPDEST PUSH1 0x20 DUP2 DIV SWAP1 SWAP2 ADD SLOAD PUSH1 0xFF PUSH1 0x1F SWAP1 SWAP3 AND PUSH2 0x100 EXP SWAP1 DIV AND DUP4 PUSH2 0x312D DUP4 PUSH1 0x1E PUSH2 0x5704 JUMP JUMPDEST PUSH1 0xFF AND PUSH1 0x28 DUP2 LT PUSH2 0x3140 JUMPI PUSH2 0x3140 PUSH2 0x56F0 JUMP JUMPDEST PUSH1 0xFF SWAP1 SWAP3 AND PUSH1 0x20 SWAP3 SWAP1 SWAP3 MUL ADD MSTORE PUSH1 0x1 DUP3 DUP5 PUSH2 0x315C DUP5 PUSH1 0x1E PUSH2 0x5704 JUMP JUMPDEST PUSH1 0xFF AND PUSH1 0x28 DUP2 LT PUSH2 0x316F JUMPI PUSH2 0x316F PUSH2 0x56F0 JUMP JUMPDEST PUSH1 0x20 MUL ADD MLOAD PUSH1 0xFF AND PUSH1 0x3D DUP2 LT PUSH2 0x3187 JUMPI PUSH2 0x3187 PUSH2 0x56F0 JUMP JUMPDEST SWAP2 ISZERO ISZERO PUSH1 0x20 SWAP1 SWAP3 MUL ADD MSTORE PUSH1 0x1 ADD PUSH2 0x30DB JUMP JUMPDEST POP PUSH0 DUP1 DUP3 MSTORE SWAP6 POP DUP6 SWAP5 POP DUP5 JUMPDEST DUP4 PUSH1 0x20 ADD MLOAD PUSH1 0xFF AND DUP2 PUSH1 0xFF AND LT ISZERO PUSH2 0x338B JUMPI DUP4 MLOAD PUSH0 SWAP1 PUSH1 0xFF DUP4 AND PUSH1 0x4 DUP2 LT PUSH2 0x31CF JUMPI PUSH2 0x31CF PUSH2 0x56F0 JUMP JUMPDEST PUSH1 0x20 MUL ADD MLOAD SWAP1 POP PUSH0 DUP1 JUMPDEST PUSH1 0xD SLOAD DUP2 LT ISZERO PUSH2 0x32CE JUMPI PUSH0 DUP1 PUSH0 JUMPDEST PUSH1 0xF DUP2 PUSH1 0xFF AND LT ISZERO PUSH2 0x328D JUMPI PUSH0 DUP5 DUP2 MSTORE PUSH1 0xC PUSH1 0x20 MSTORE PUSH1 0x40 SWAP1 KECCAK256 PUSH1 0x1 ADD PUSH1 0xFF DUP3 AND PUSH1 0xF DUP2 LT PUSH2 0x3217 JUMPI PUSH2 0x3217 PUSH2 0x56F0 JUMP JUMPDEST PUSH1 0x20 DUP2 DIV SWAP1 SWAP2 ADD SLOAD PUSH1 0xFF PUSH1 0x1F SWAP1 SWAP3 AND PUSH2 0x100 EXP SWAP1 DIV AND ISZERO PUSH2 0x3285 JUMPI DUP3 PUSH2 0x323C DUP2 PUSH2 0x576F JUMP JUMPDEST SWAP4 POP POP DUP8 DUP7 DUP3 PUSH1 0xFF AND PUSH1 0xF DUP2 LT PUSH2 0x3255 JUMPI PUSH2 0x3255 PUSH2 0x56F0 JUMP JUMPDEST PUSH1 0x20 MUL ADD MLOAD PUSH1 0xFF AND PUSH1 0x3D DUP2 LT PUSH2 0x326D JUMPI PUSH2 0x326D PUSH2 0x56F0 JUMP JUMPDEST PUSH1 0x20 MUL ADD MLOAD ISZERO PUSH2 0x3285 JUMPI DUP2 PUSH2 0x3281 DUP2 PUSH2 0x576F JUMP JUMPDEST SWAP3 POP POP JUMPDEST PUSH1 0x1 ADD PUSH2 0x31E7 JUMP JUMPDEST POP PUSH0 DUP3 PUSH1 0xFF AND GT DUP1 ISZERO PUSH2 0x32A5 JUMPI POP DUP1 PUSH1 0xFF AND DUP3 PUSH1 0xFF AND EQ JUMPDEST ISZERO PUSH2 0x32C4 JUMPI POP POP PUSH0 DUP2 DUP2 MSTORE PUSH1 0xC PUSH1 0x20 MSTORE PUSH1 0x40 SWAP1 KECCAK256 SLOAD SWAP2 SWAP1 SWAP2 ADD SWAP1 PUSH2 0x32CE JUMP JUMPDEST POP POP PUSH1 0x1 ADD PUSH2 0x31D9 JUMP JUMPDEST POP DUP1 DUP13 DUP5 PUSH1 0xFF AND DUP2 MLOAD DUP2 LT PUSH2 0x32E5 JUMPI PUSH2 0x32E5 PUSH2 0x56F0 JUMP JUMPDEST PUSH1 0x20 SWAP1 DUP2 MUL SWAP2 SWAP1 SWAP2 ADD ADD MSTORE DUP1 ISZERO PUSH2 0x3363 JUMPI PUSH2 0x3E8 DUP2 DUP9 PUSH1 0xE0 ADD MLOAD PUSH2 0x3309 SWAP2 SWAP1 PUSH2 0x56C6 JUMP JUMPDEST PUSH2 0x3313 SWAP2 SWAP1 PUSH2 0x57A5 JUMP JUMPDEST DUP12 DUP5 PUSH1 0xFF AND DUP2 MLOAD DUP2 LT PUSH2 0x3328 JUMPI PUSH2 0x3328 PUSH2 0x56F0 JUMP JUMPDEST PUSH1 0x20 MUL PUSH1 0x20 ADD ADD DUP2 DUP2 MSTORE POP POP DUP11 DUP4 PUSH1 0xFF AND DUP2 MLOAD DUP2 LT PUSH2 0x3349 JUMPI PUSH2 0x3349 PUSH2 0x56F0 JUMP JUMPDEST PUSH1 0x20 MUL PUSH1 0x20 ADD ADD MLOAD DUP10 PUSH2 0x335C SWAP2 SWAP1 PUSH2 0x56DD JUMP JUMPDEST SWAP9 POP PUSH2 0x3381 JUMP JUMPDEST PUSH0 DUP14 DUP2 MSTORE PUSH1 0x13 PUSH1 0x20 MSTORE PUSH1 0x40 SWAP1 KECCAK256 PUSH1 0x7 ADD SLOAD PUSH2 0x337E SWAP1 DUP10 PUSH2 0x56DD JUMP JUMPDEST SWAP8 POP JUMPDEST POP POP PUSH1 0x1 ADD PUSH2 0x31A5 JUMP JUMPDEST POP POP POP POP POP SWAP2 SWAP4 SWAP6 SWAP1 SWAP3 SWAP5 POP JUMP JUMPDEST PUSH1 0x4 SLOAD PUSH1 0x1 PUSH1 0x1 PUSH1 0xA0 SHL SUB AND CALLER EQ PUSH2 0x33C3 JUMPI PUSH1 0x40 MLOAD PUSH3 0x461BCD PUSH1 0xE5 SHL DUP2 MSTORE PUSH1 0x4 ADD PUSH2 0xBBF SWAP1 PUSH2 0x5730 JUMP JUMPDEST PUSH1 0x4 DUP1 SLOAD PUSH1 0x1 PUSH1 0x1 PUSH1 0xA0 SHL SUB NOT AND PUSH1 0x1 PUSH1 0x1 PUSH1 0xA0 SHL SUB SWAP3 SWAP1 SWAP3 AND SWAP2 SWAP1 SWAP2 OR SWAP1 SSTORE JUMP JUMPDEST PUSH1 0x1 PUSH1 0x1 PUSH1 0xA0 SHL SUB DUP1 DUP5 AND PUSH0 DUP2 DUP2 MSTORE PUSH1 0x10 PUSH1 0x20 SWAP1 DUP2 MSTORE PUSH1 0x40 DUP1 DUP4 KECCAK256 SLOAD DUP1 DUP5 MSTORE PUSH1 0xF SWAP1 SWAP3 MSTORE SWAP1 SWAP2 KECCAK256 PUSH1 0x1 ADD SLOAD PUSH1 0x60 SWAP4 SWAP2 SWAP3 SWAP2 AND EQ PUSH2 0x3455 JUMPI PUSH1 0x40 DUP1 MLOAD PUSH0 DUP1 DUP3 MSTORE PUSH1 0x20 DUP3 ADD SWAP1 SWAP3 MSTORE SWAP1 PUSH2 0x344C JUMP JUMPDEST PUSH2 0x3439 PUSH2 0x468D JUMP JUMPDEST DUP2 MSTORE PUSH1 0x20 ADD SWAP1 PUSH1 0x1 SWAP1 SUB SWAP1 DUP2 PUSH2 0x3431 JUMPI SWAP1 POP JUMPDEST POP SWAP2 POP POP PUSH2 0x39AB JUMP JUMPDEST DUP4 ISZERO DUP1 ISZERO PUSH2 0x3461 JUMPI POP DUP3 ISZERO JUMPDEST ISZERO PUSH2 0x347A JUMPI PUSH0 DUP2 DUP2 MSTORE PUSH1 0xF PUSH1 0x20 MSTORE PUSH1 0x40 SWAP1 KECCAK256 PUSH1 0x2 ADD SLOAD SWAP3 POP JUMPDEST PUSH0 DUP2 DUP2 MSTORE PUSH1 0xF PUSH1 0x20 MSTORE PUSH1 0x40 SWAP1 KECCAK256 PUSH1 0x2 ADD SLOAD DUP5 GT ISZERO PUSH2 0x34CA JUMPI PUSH1 0x40 DUP1 MLOAD PUSH0 DUP1 DUP3 MSTORE PUSH1 0x20 DUP3 ADD SWAP1 SWAP3 MSTORE SWAP1 PUSH2 0x344C JUMP JUMPDEST PUSH2 0x34AF PUSH2 0x468D JUMP JUMPDEST DUP2 MSTORE PUSH1 0x20 ADD SWAP1 PUSH1 0x1 SWAP1 SUB SWAP1 DUP2 PUSH2 0x34A7 JUMPI SWAP1 POP POP SWAP2 POP POP PUSH2 0x39AB JUMP JUMPDEST PUSH0 DUP2 DUP2 MSTORE PUSH1 0xF PUSH1 0x20 MSTORE PUSH1 0x40 SWAP1 KECCAK256 PUSH1 0x2 ADD SLOAD PUSH2 0x34E5 DUP5 DUP7 PUSH2 0x56DD JUMP JUMPDEST GT ISZERO PUSH2 0x350A JUMPI PUSH0 DUP2 DUP2 MSTORE PUSH1 0xF PUSH1 0x20 MSTORE PUSH1 0x40 SWAP1 KECCAK256 PUSH1 0x2 ADD SLOAD PUSH2 0x3507 SWAP1 DUP6 SWAP1 PUSH2 0x571D JUMP JUMPDEST SWAP3 POP JUMPDEST PUSH0 DUP4 PUSH1 0x1 PUSH1 0x1 PUSH1 0x40 SHL SUB DUP2 GT ISZERO PUSH2 0x3523 JUMPI PUSH2 0x3523 PUSH2 0x4A47 JUMP JUMPDEST PUSH1 0x40 MLOAD SWAP1 DUP1 DUP3 MSTORE DUP1 PUSH1 0x20 MUL PUSH1 0x20 ADD DUP3 ADD PUSH1 0x40 MSTORE DUP1 ISZERO PUSH2 0x355C JUMPI DUP2 PUSH1 0x20 ADD JUMPDEST PUSH2 0x3549 PUSH2 0x468D JUMP JUMPDEST DUP2 MSTORE PUSH1 0x20 ADD SWAP1 PUSH1 0x1 SWAP1 SUB SWAP1 DUP2 PUSH2 0x3541 JUMPI SWAP1 POP JUMPDEST POP SWAP1 POP PUSH0 JUMPDEST DUP5 DUP2 LT ISZERO PUSH2 0x39A6 JUMPI PUSH1 0x40 DUP1 MLOAD PUSH1 0x60 DUP2 ADD DUP3 MSTORE PUSH0 DUP6 DUP2 MSTORE PUSH1 0x11 PUSH1 0x20 SWAP1 DUP2 MSTORE DUP4 DUP3 KECCAK256 PUSH1 0xF SWAP1 SWAP2 MSTORE SWAP3 DUP2 KECCAK256 PUSH1 0x2 ADD SLOAD SWAP2 SWAP3 DUP4 SWAP3 PUSH1 0x13 SWAP3 SWAP2 SWAP1 DUP3 SWAP1 DUP13 SWAP1 PUSH2 0x35A5 SWAP1 DUP10 SWAP1 PUSH2 0x571D JUMP JUMPDEST PUSH2 0x35AF SWAP2 SWAP1 PUSH2 0x571D JUMP JUMPDEST DUP2 MSTORE PUSH1 0x20 ADD SWAP1 DUP2 MSTORE PUSH1 0x20 ADD PUSH0 KECCAK256 SLOAD DUP2 MSTORE PUSH1 0x20 ADD SWAP1 DUP2 MSTORE PUSH1 0x20 ADD PUSH0 KECCAK256 PUSH1 0x40 MLOAD DUP1 PUSH2 0x120 ADD PUSH1 0x40 MSTORE SWAP1 DUP2 PUSH0 DUP3 ADD PUSH0 SWAP1 SLOAD SWAP1 PUSH2 0x100 EXP SWAP1 DIV PUSH1 0xFF AND PUSH1 0x4 DUP2 GT ISZERO PUSH2 0x35F8 JUMPI PUSH2 0x35F8 PUSH2 0x48A9 JUMP JUMPDEST PUSH1 0x4 DUP2 GT ISZERO PUSH2 0x3609 JUMPI PUSH2 0x3609 PUSH2 0x48A9 JUMP JUMPDEST DUP2 MSTORE PUSH1 0x20 ADD PUSH1 0x1 DUP3 ADD SLOAD DUP2 MSTORE PUSH1 0x20 ADD PUSH1 0x2 DUP3 ADD SLOAD DUP2 MSTORE PUSH1 0x20 ADD PUSH1 0x3 DUP3 ADD SLOAD DUP2 MSTORE PUSH1 0x20 ADD PUSH1 0x4 DUP3 ADD SLOAD DUP2 MSTORE PUSH1 0x20 ADD PUSH1 0x5 DUP3 ADD SLOAD DUP2 MSTORE PUSH1 0x20 ADD PUSH1 0x6 DUP3 ADD SLOAD DUP2 MSTORE PUSH1 0x20 ADD PUSH1 0x7 DUP3 ADD SLOAD DUP2 MSTORE PUSH1 0x20 ADD PUSH1 0x8 DUP3 ADD SLOAD DUP2 MSTORE POP POP DUP2 MSTORE PUSH1 0x20 ADD PUSH1 0x15 PUSH0 PUSH1 0x11 PUSH0 DUP9 DUP2 MSTORE PUSH1 0x20 ADD SWAP1 DUP2 MSTORE PUSH1 0x20 ADD PUSH0 KECCAK256 PUSH0 DUP12 DUP8 PUSH1 0xF PUSH0 DUP13 DUP2 MSTORE PUSH1 0x20 ADD SWAP1 DUP2 MSTORE PUSH1 0x20 ADD PUSH0 KECCAK256 PUSH1 0x2 ADD SLOAD PUSH2 0x3698 SWAP2 SWAP1 PUSH2 0x571D JUMP JUMPDEST PUSH2 0x36A2 SWAP2 SWAP1 PUSH2 0x571D JUMP JUMPDEST DUP2 MSTORE PUSH1 0x20 ADD SWAP1 DUP2 MSTORE PUSH1 0x20 ADD PUSH0 KECCAK256 SLOAD DUP2 MSTORE PUSH1 0x20 ADD SWAP1 DUP2 MSTORE PUSH1 0x20 ADD PUSH0 KECCAK256 PUSH1 0x40 MLOAD DUP1 PUSH1 0xC0 ADD PUSH1 0x40 MSTORE SWAP1 DUP2 PUSH0 DUP3 ADD PUSH1 0x4 DUP1 PUSH1 0x20 MUL PUSH1 0x40 MLOAD SWAP1 DUP2 ADD PUSH1 0x40 MSTORE DUP1 SWAP3 SWAP2 SWAP1 PUSH0 SWAP1 JUMPDEST DUP3 DUP3 LT ISZERO PUSH2 0x3745 JUMPI PUSH1 0x40 DUP1 MLOAD PUSH2 0x1E0 DUP2 ADD SWAP2 DUP3 SWAP1 MSTORE SWAP1 DUP6 DUP5 ADD SWAP1 PUSH1 0xF SWAP1 DUP3 PUSH0 DUP6 JUMPDEST DUP3 SLOAD PUSH2 0x100 DUP4 SWAP1 EXP SWAP1 DIV PUSH1 0xFF AND DUP2 MSTORE PUSH1 0x20 PUSH1 0x1 SWAP3 DUP4 ADD DUP2 DUP2 DIV SWAP5 DUP6 ADD SWAP5 SWAP1 SWAP4 SUB SWAP1 SWAP3 MUL SWAP2 ADD DUP1 DUP5 GT PUSH2 0x3703 JUMPI SWAP1 POP POP POP POP POP POP DUP2 MSTORE PUSH1 0x20 ADD SWAP1 PUSH1 0x1 ADD SWAP1 PUSH2 0x36E2 JUMP JUMPDEST POP POP POP SWAP1 DUP3 MSTORE POP PUSH1 0x4 DUP3 ADD SLOAD PUSH1 0xFF AND PUSH1 0x20 DUP1 DUP4 ADD SWAP2 SWAP1 SWAP2 MSTORE PUSH1 0x5 DUP4 ADD DUP1 SLOAD PUSH1 0x40 DUP1 MLOAD DUP3 DUP6 MUL DUP2 ADD DUP6 ADD DUP3 MSTORE DUP3 DUP2 MSTORE SWAP5 ADD SWAP4 SWAP3 DUP4 ADD DUP3 DUP3 DUP1 ISZERO PUSH2 0x37C3 JUMPI PUSH1 0x20 MUL DUP3 ADD SWAP2 SWAP1 PUSH0 MSTORE PUSH1 0x20 PUSH0 KECCAK256 SWAP1 PUSH0 SWAP1 JUMPDEST DUP3 SLOAD PUSH2 0x100 DUP4 SWAP1 EXP SWAP1 DIV PUSH1 0xFF AND ISZERO ISZERO DUP2 MSTORE PUSH1 0x20 PUSH1 0x1 SWAP3 DUP4 ADD DUP2 DUP2 DIV SWAP5 DUP6 ADD SWAP5 SWAP1 SWAP4 SUB SWAP1 SWAP3 MUL SWAP2 ADD DUP1 DUP5 GT PUSH2 0x3792 JUMPI SWAP1 POP JUMPDEST POP POP POP SWAP2 DUP4 MSTORE POP POP PUSH1 0x40 DUP1 MLOAD PUSH2 0x3C0 DUP2 ADD SWAP2 DUP3 SWAP1 MSTORE PUSH1 0x20 SWAP1 SWAP3 ADD SWAP2 SWAP1 PUSH1 0x6 DUP5 ADD SWAP1 PUSH1 0x1E SWAP1 DUP3 PUSH0 DUP6 JUMPDEST DUP3 SLOAD PUSH2 0x100 DUP4 SWAP1 EXP SWAP1 DIV PUSH1 0xFF AND DUP2 MSTORE PUSH1 0x20 PUSH1 0x1 SWAP3 DUP4 ADD DUP2 DUP2 DIV SWAP5 DUP6 ADD SWAP5 SWAP1 SWAP4 SUB SWAP1 SWAP3 MUL SWAP2 ADD DUP1 DUP5 GT PUSH2 0x37EB JUMPI POP POP POP SWAP3 DUP5 MSTORE POP POP PUSH1 0x40 DUP1 MLOAD PUSH1 0x80 DUP2 ADD SWAP2 DUP3 SWAP1 MSTORE PUSH1 0x20 SWAP1 SWAP4 ADD SWAP3 SWAP2 POP PUSH1 0x7 DUP5 ADD SWAP1 PUSH1 0x4 SWAP1 DUP3 DUP5 JUMPDEST DUP2 SLOAD DUP2 MSTORE PUSH1 0x20 ADD SWAP1 PUSH1 0x1 ADD SWAP1 DUP1 DUP4 GT PUSH2 0x383E JUMPI POP POP POP SWAP2 DUP4 MSTORE POP POP PUSH1 0x40 DUP1 MLOAD PUSH1 0x80 DUP2 ADD SWAP2 DUP3 SWAP1 MSTORE PUSH1 0x20 SWAP1 SWAP3 ADD SWAP2 SWAP1 PUSH1 0xB DUP5 ADD SWAP1 PUSH1 0x4 SWAP1 DUP3 DUP5 JUMPDEST DUP2 SLOAD DUP2 MSTORE PUSH1 0x20 ADD SWAP1 PUSH1 0x1 ADD SWAP1 DUP1 DUP4 GT PUSH2 0x3877 JUMPI POP POP POP SWAP2 SWAP1 SWAP3 MSTORE POP POP POP DUP2 MSTORE PUSH0 DUP6 DUP2 MSTORE PUSH1 0x11 PUSH1 0x20 SWAP1 DUP2 MSTORE PUSH1 0x40 DUP1 DUP4 KECCAK256 PUSH1 0xF DUP4 MSTORE SWAP1 DUP4 KECCAK256 PUSH1 0x2 ADD SLOAD SWAP2 SWAP1 SWAP4 ADD SWAP3 PUSH1 0x14 SWAP3 SWAP2 DUP3 SWAP1 DUP13 SWAP1 PUSH2 0x38C9 SWAP1 DUP10 SWAP1 PUSH2 0x571D JUMP JUMPDEST PUSH2 0x38D3 SWAP2 SWAP1 PUSH2 0x571D JUMP JUMPDEST DUP2 MSTORE PUSH1 0x20 DUP1 DUP3 ADD SWAP3 SWAP1 SWAP3 MSTORE PUSH1 0x40 SWAP1 DUP2 ADD PUSH0 SWAP1 DUP2 KECCAK256 SLOAD DUP5 MSTORE DUP4 DUP4 ADD SWAP5 SWAP1 SWAP5 MSTORE SWAP2 DUP3 ADD DUP4 KECCAK256 DUP3 MLOAD PUSH1 0xA0 DUP2 ADD DUP5 MSTORE DUP2 SLOAD DUP2 MSTORE PUSH1 0x1 DUP3 ADD SLOAD SWAP3 DUP2 ADD SWAP3 SWAP1 SWAP3 MSTORE PUSH1 0x2 DUP2 ADD SLOAD DUP3 DUP5 ADD MSTORE PUSH1 0x3 DUP2 ADD SLOAD PUSH1 0xFF AND ISZERO ISZERO PUSH1 0x60 DUP4 ADD MSTORE DUP3 MLOAD PUSH2 0x140 DUP2 ADD SWAP4 DUP5 SWAP1 MSTORE SWAP2 SWAP4 SWAP1 SWAP3 PUSH1 0x80 DUP6 ADD SWAP3 SWAP2 PUSH1 0x4 DUP6 ADD SWAP2 PUSH1 0xA SWAP2 DUP4 SWAP1 DUP6 JUMPDEST DUP3 SLOAD PUSH2 0x100 DUP4 SWAP1 EXP SWAP1 DIV PUSH1 0xFF AND DUP2 MSTORE PUSH1 0x20 PUSH1 0x1 SWAP3 DUP4 ADD DUP2 DUP2 DIV SWAP5 DUP6 ADD SWAP5 SWAP1 SWAP4 SUB SWAP1 SWAP3 MUL SWAP2 ADD DUP1 DUP5 GT PUSH2 0x3947 JUMPI SWAP1 POP POP POP POP POP POP DUP2 MSTORE POP POP DUP2 MSTORE POP DUP3 DUP3 DUP2 MLOAD DUP2 LT PUSH2 0x3993 JUMPI PUSH2 0x3993 PUSH2 0x56F0 JUMP JUMPDEST PUSH1 0x20 SWAP1 DUP2 MUL SWAP2 SWAP1 SWAP2 ADD ADD MSTORE PUSH1 0x1 ADD PUSH2 0x3561 JUMP JUMPDEST POP SWAP2 POP POP JUMPDEST SWAP4 SWAP3 POP POP POP JUMP JUMPDEST PUSH1 0x17 DUP2 DUP2 SLOAD DUP2 LT PUSH2 0x39C1 JUMPI PUSH0 DUP1 REVERT JUMPDEST PUSH0 SWAP2 DUP3 MSTORE PUSH1 0x20 SWAP1 SWAP2 KECCAK256 PUSH1 0x3 SWAP1 SWAP2 MUL ADD DUP1 SLOAD PUSH1 0x1 DUP3 ADD SLOAD PUSH1 0x2 SWAP1 SWAP3 ADD SLOAD SWAP1 SWAP3 POP DUP4 JUMP JUMPDEST PUSH1 0x2 PUSH0 SLOAD SUB PUSH2 0x3A34 JUMPI PUSH1 0x40 MLOAD PUSH3 0x461BCD PUSH1 0xE5 SHL DUP2 MSTORE PUSH1 0x20 PUSH1 0x4 DUP3 ADD MSTORE PUSH1 0x1F PUSH1 0x24 DUP3 ADD MSTORE PUSH32 0x5265656E7472616E637947756172643A207265656E7472616E742063616C6C00 PUSH1 0x44 DUP3 ADD MSTORE PUSH1 0x64 ADD PUSH2 0xBBF JUMP JUMPDEST PUSH1 0x2 PUSH0 SSTORE JUMP JUMPDEST PUSH0 DUP1 JUMPDEST DUP3 MLOAD DUP2 LT ISZERO PUSH2 0x3A74 JUMPI DUP3 DUP2 DUP2 MLOAD DUP2 LT PUSH2 0x3A58 JUMPI PUSH2 0x3A58 PUSH2 0x56F0 JUMP JUMPDEST PUSH1 0x20 MUL PUSH1 0x20 ADD ADD MLOAD ISZERO PUSH2 0x3A6C JUMPI PUSH1 0x1 SWAP1 SWAP2 ADD SWAP1 JUMPDEST PUSH1 0x1 ADD PUSH2 0x3A3D JUMP JUMPDEST POP SWAP2 SWAP1 POP JUMP JUMPDEST PUSH1 0x40 DUP1 MLOAD PUSH1 0x28 DUP1 DUP3 MSTORE PUSH2 0x520 DUP3 ADD SWAP1 SWAP3 MSTORE PUSH1 0x60 SWAP2 PUSH0 SWAP2 SWAP1 PUSH1 0x20 DUP3 ADD PUSH2 0x500 DUP1 CALLDATASIZE DUP4 CALLDATACOPY ADD SWAP1 POP POP SWAP1 POP PUSH0 JUMPDEST PUSH1 0x28 DUP2 PUSH1 0xFF AND LT ISZERO PUSH2 0x3AF9 JUMPI DUP4 DUP2 PUSH1 0xFF AND PUSH1 0x28 DUP2 LT PUSH2 0x3AC5 JUMPI PUSH2 0x3AC5 PUSH2 0x56F0 JUMP JUMPDEST PUSH1 0x20 MUL ADD MLOAD DUP3 DUP3 PUSH1 0xFF AND DUP2 MLOAD DUP2 LT PUSH2 0x3ADF JUMPI PUSH2 0x3ADF PUSH2 0x56F0 JUMP JUMPDEST PUSH1 0xFF SWAP1 SWAP3 AND PUSH1 0x20 SWAP3 DUP4 MUL SWAP2 SWAP1 SWAP2 ADD SWAP1 SWAP2 ADD MSTORE PUSH1 0x1 ADD PUSH2 0x3AA4 JUMP JUMPDEST POP SWAP3 SWAP2 POP POP JUMP JUMPDEST PUSH1 0x17 SLOAD PUSH1 0xA GT ISZERO PUSH2 0x3BAD JUMPI PUSH1 0x40 DUP1 MLOAD PUSH1 0x60 DUP2 ADD DUP3 MSTORE SWAP4 DUP5 MSTORE PUSH1 0x20 DUP5 ADD SWAP3 DUP4 MSTORE DUP4 ADD SWAP1 DUP2 MSTORE PUSH1 0x17 DUP1 SLOAD PUSH1 0x1 DUP2 ADD DUP3 SSTORE PUSH0 SWAP2 SWAP1 SWAP2 MSTORE SWAP3 MLOAD PUSH32 0xC624B66CC0138B8FABC209247F72D758E1CF3343756D543BADBF24212BED8C15 PUSH1 0x3 SWAP1 SWAP5 MUL SWAP4 DUP5 ADD SSTORE SWAP1 MLOAD PUSH32 0xC624B66CC0138B8FABC209247F72D758E1CF3343756D543BADBF24212BED8C16 DUP4 ADD SSTORE MLOAD PUSH32 0xC624B66CC0138B8FABC209247F72D758E1CF3343756D543BADBF24212BED8C17 SWAP1 SWAP2 ADD SSTORE JUMP JUMPDEST PUSH0 PUSH1 0x1 JUMPDEST PUSH1 0xA DUP2 LT ISZERO PUSH2 0x3C12 JUMPI PUSH1 0x17 DUP3 DUP2 SLOAD DUP2 LT PUSH2 0x3BCD JUMPI PUSH2 0x3BCD PUSH2 0x56F0 JUMP JUMPDEST SWAP1 PUSH0 MSTORE PUSH1 0x20 PUSH0 KECCAK256 SWAP1 PUSH1 0x3 MUL ADD PUSH1 0x1 ADD SLOAD PUSH1 0x17 DUP3 DUP2 SLOAD DUP2 LT PUSH2 0x3BF0 JUMPI PUSH2 0x3BF0 PUSH2 0x56F0 JUMP JUMPDEST SWAP1 PUSH0 MSTORE PUSH1 0x20 PUSH0 KECCAK256 SWAP1 PUSH1 0x3 MUL ADD PUSH1 0x1 ADD SLOAD LT ISZERO PUSH2 0x3C0A JUMPI DUP1 SWAP2 POP JUMPDEST PUSH1 0x1 ADD PUSH2 0x3BB1 JUMP JUMPDEST POP PUSH1 0x17 DUP2 DUP2 SLOAD DUP2 LT PUSH2 0x3C26 JUMPI PUSH2 0x3C26 PUSH2 0x56F0 JUMP JUMPDEST SWAP1 PUSH0 MSTORE PUSH1 0x20 PUSH0 KECCAK256 SWAP1 PUSH1 0x3 MUL ADD PUSH1 0x1 ADD SLOAD DUP4 GT ISZERO PUSH2 0x3C97 JUMPI PUSH1 0x40 MLOAD DUP1 PUSH1 0x60 ADD PUSH1 0x40 MSTORE DUP1 DUP6 DUP2 MSTORE PUSH1 0x20 ADD DUP5 DUP2 MSTORE PUSH1 0x20 ADD DUP4 DUP2 MSTORE POP PUSH1 0x17 DUP3 DUP2 SLOAD DUP2 LT PUSH2 0x3C6B JUMPI PUSH2 0x3C6B PUSH2 0x56F0 JUMP JUMPDEST SWAP1 PUSH0 MSTORE PUSH1 0x20 PUSH0 KECCAK256 SWAP1 PUSH1 0x3 MUL ADD PUSH0 DUP3 ADD MLOAD DUP2 PUSH0 ADD SSTORE PUSH1 0x20 DUP3 ADD MLOAD DUP2 PUSH1 0x1 ADD SSTORE PUSH1 0x40 DUP3 ADD MLOAD DUP2 PUSH1 0x2 ADD SSTORE SWAP1 POP POP JUMPDEST POP POP POP POP JUMP JUMPDEST PUSH1 0x5 SLOAD DUP2 LT ISZERO DUP1 ISZERO PUSH2 0x3CB1 JUMPI POP PUSH1 0x6 SLOAD DUP2 GT ISZERO JUMPDEST ISZERO PUSH2 0x12E0 JUMPI PUSH1 0x4 DUP8 MLOAD GT PUSH2 0x40E9 JUMPI PUSH2 0x3CC8 DUP9 PUSH2 0x427C JUMP JUMPDEST PUSH1 0x1 PUSH1 0x1 PUSH1 0xA0 SHL SUB DUP9 AND PUSH0 SWAP1 DUP2 MSTORE PUSH1 0x10 PUSH1 0x20 SWAP1 DUP2 MSTORE PUSH1 0x40 DUP1 DUP4 KECCAK256 SLOAD DUP4 MSTORE PUSH1 0xF SWAP1 SWAP2 MSTORE SWAP1 KECCAK256 PUSH1 0x2 PUSH1 0x8 DUP3 ADD SLOAD PUSH0 SWAP1 DUP2 MSTORE PUSH1 0x13 PUSH1 0x20 MSTORE PUSH1 0x40 SWAP1 KECCAK256 SLOAD PUSH1 0xFF AND PUSH1 0x4 DUP2 GT ISZERO PUSH2 0x3D15 JUMPI PUSH2 0x3D15 PUSH2 0x48A9 JUMP JUMPDEST EQ DUP1 ISZERO PUSH2 0x3D35 JUMPI POP PUSH1 0x8 DUP1 DUP3 ADD SLOAD PUSH0 SWAP1 DUP2 MSTORE PUSH1 0x13 PUSH1 0x20 MSTORE PUSH1 0x40 SWAP1 KECCAK256 ADD SLOAD ISZERO ISZERO JUMPDEST ISZERO PUSH2 0x3D5C JUMPI PUSH1 0x8 DUP1 DUP3 ADD SLOAD PUSH0 DUP2 DUP2 MSTORE PUSH1 0x13 PUSH1 0x20 MSTORE PUSH1 0x40 SWAP1 KECCAK256 SWAP1 SWAP2 ADD SLOAD PUSH2 0x3D5C SWAP2 SWAP1 TIMESTAMP PUSH2 0x3B00 JUMP JUMPDEST PUSH0 PUSH2 0x3D66 DUP9 PUSH2 0x3A3A JUMP JUMPDEST PUSH2 0x3D70 SWAP1 DUP5 PUSH2 0x56C6 JUMP JUMPDEST PUSH1 0x2 SLOAD PUSH1 0x40 MLOAD PUSH4 0xC084B10B PUSH1 0xE0 SHL DUP2 MSTORE PUSH1 0x1 PUSH1 0x1 PUSH1 0xA0 SHL SUB DUP14 DUP2 AND PUSH1 0x4 DUP4 ADD MSTORE SWAP3 SWAP4 POP DUP4 SWAP3 SWAP1 SWAP2 AND SWAP1 PUSH4 0xC084B10B SWAP1 PUSH1 0x24 ADD PUSH1 0x20 PUSH1 0x40 MLOAD DUP1 DUP4 SUB DUP2 DUP7 GAS STATICCALL ISZERO DUP1 ISZERO PUSH2 0x3DBD JUMPI RETURNDATASIZE PUSH0 DUP1 RETURNDATACOPY RETURNDATASIZE PUSH0 REVERT JUMPDEST POP POP POP POP PUSH1 0x40 MLOAD RETURNDATASIZE PUSH1 0x1F NOT PUSH1 0x1F DUP3 ADD AND DUP3 ADD DUP1 PUSH1 0x40 MSTORE POP DUP2 ADD SWAP1 PUSH2 0x3DE1 SWAP2 SWAP1 PUSH2 0x5583 JUMP JUMPDEST LT PUSH2 0x12AD JUMPI PUSH1 0x12 DUP1 SLOAD SWAP1 PUSH0 PUSH2 0x3DF5 DUP4 PUSH2 0x578D JUMP JUMPDEST SWAP1 SWAP2 SSTORE POP POP PUSH1 0x12 SLOAD PUSH0 PUSH2 0x3E0B DUP3 DUP13 DUP13 DUP10 DUP10 PUSH2 0x4369 JUMP JUMPDEST PUSH1 0x40 DUP1 MLOAD PUSH2 0x120 DUP2 ADD SWAP1 SWAP2 MSTORE SWAP1 SWAP2 POP DUP1 PUSH1 0x2 DUP2 MSTORE PUSH1 0x20 DUP1 DUP3 ADD DUP6 SWAP1 MSTORE DUP7 SLOAD PUSH1 0x40 DUP1 DUP5 ADD SWAP2 SWAP1 SWAP2 MSTORE PUSH1 0x60 DUP4 ADD DUP14 SWAP1 MSTORE PUSH1 0x80 DUP4 ADD DUP13 SWAP1 MSTORE PUSH1 0xA0 DUP4 ADD DUP12 SWAP1 MSTORE TIMESTAMP PUSH1 0xC0 DUP5 ADD MSTORE PUSH1 0xE0 DUP4 ADD DUP10 SWAP1 MSTORE PUSH2 0x100 SWAP1 SWAP3 ADD DUP5 SWAP1 MSTORE PUSH0 DUP6 DUP2 MSTORE PUSH1 0x13 SWAP1 SWAP2 MSTORE KECCAK256 DUP2 MLOAD DUP2 SLOAD DUP3 SWAP1 PUSH1 0xFF NOT AND PUSH1 0x1 DUP4 PUSH1 0x4 DUP2 GT ISZERO PUSH2 0x3E85 JUMPI PUSH2 0x3E85 PUSH2 0x48A9 JUMP JUMPDEST MUL OR SWAP1 SSTORE POP PUSH1 0x20 DUP3 ADD MLOAD PUSH1 0x1 DUP3 ADD SSTORE PUSH1 0x40 DUP3 ADD MLOAD PUSH1 0x2 DUP1 DUP4 ADD SWAP2 SWAP1 SWAP2 SSTORE PUSH1 0x60 DUP4 ADD MLOAD PUSH1 0x3 DUP4 ADD SSTORE PUSH1 0x80 DUP4 ADD MLOAD PUSH1 0x4 DUP4 ADD SSTORE PUSH1 0xA0 DUP4 ADD MLOAD PUSH1 0x5 DUP4 ADD SSTORE PUSH1 0xC0 DUP4 ADD MLOAD PUSH1 0x6 DUP4 ADD SSTORE PUSH1 0xE0 DUP4 ADD MLOAD PUSH1 0x7 DUP4 ADD SSTORE PUSH2 0x100 SWAP1 SWAP3 ADD MLOAD PUSH1 0x8 SWAP1 SWAP2 ADD SSTORE DUP5 ADD DUP1 SLOAD SWAP1 PUSH0 PUSH2 0x3EF0 DUP4 PUSH2 0x578D JUMP JUMPDEST SWAP1 SWAP2 SSTORE POP POP DUP4 SLOAD PUSH0 SWAP1 DUP2 MSTORE PUSH1 0x11 PUSH1 0x20 SWAP1 DUP2 MSTORE PUSH1 0x40 DUP1 DUP4 KECCAK256 PUSH1 0x2 DUP9 ADD SLOAD DUP5 MSTORE SWAP1 SWAP2 MSTORE DUP2 KECCAK256 DUP4 SWAP1 SSTORE PUSH1 0x8 DUP6 ADD DUP4 SWAP1 SSTORE PUSH1 0x7 DUP1 SLOAD DUP6 SWAP3 SWAP1 PUSH2 0x3F2F SWAP1 DUP5 SWAP1 PUSH2 0x56DD JUMP JUMPDEST SWAP1 SWAP2 SSTORE POP POP PUSH0 DUP3 DUP2 MSTORE PUSH1 0x13 PUSH1 0x20 MSTORE PUSH1 0x40 SWAP1 DUP2 SWAP1 KECCAK256 PUSH1 0x8 ADD DUP3 SWAP1 SSTORE PUSH1 0x2 SLOAD SWAP1 MLOAD PUSH4 0x785283ED PUSH1 0xE1 SHL DUP2 MSTORE PUSH1 0x1 PUSH1 0x1 PUSH1 0xA0 SHL SUB DUP15 DUP2 AND PUSH1 0x4 DUP4 ADD MSTORE PUSH1 0x24 DUP3 ADD DUP7 SWAP1 MSTORE SWAP1 SWAP2 AND SWAP1 PUSH4 0xF0A507DA SWAP1 PUSH1 0x44 ADD PUSH0 PUSH1 0x40 MLOAD DUP1 DUP4 SUB DUP2 PUSH0 DUP8 DUP1 EXTCODESIZE ISZERO DUP1 ISZERO PUSH2 0x3F93 JUMPI PUSH0 DUP1 REVERT JUMPDEST POP GAS CALL ISZERO DUP1 ISZERO PUSH2 0x3FA5 JUMPI RETURNDATASIZE PUSH0 DUP1 RETURNDATACOPY RETURNDATASIZE PUSH0 REVERT JUMPDEST POP POP POP POP PUSH0 DUP2 GT ISZERO PUSH2 0x4086 JUMPI PUSH1 0x2 SLOAD PUSH1 0x40 MLOAD PUSH4 0x95467177 PUSH1 0xE0 SHL DUP2 MSTORE PUSH1 0x1 PUSH1 0x1 PUSH1 0xA0 SHL SUB DUP15 DUP2 AND PUSH1 0x4 DUP4 ADD MSTORE PUSH1 0x24 DUP3 ADD DUP5 SWAP1 MSTORE SWAP1 SWAP2 AND SWAP1 PUSH4 0x95467177 SWAP1 PUSH1 0x44 ADD PUSH0 PUSH1 0x40 MLOAD DUP1 DUP4 SUB DUP2 PUSH0 DUP8 DUP1 EXTCODESIZE ISZERO DUP1 ISZERO PUSH2 0x3FFC JUMPI PUSH0 DUP1 REVERT JUMPDEST POP GAS CALL ISZERO DUP1 ISZERO PUSH2 0x400E JUMPI RETURNDATASIZE PUSH0 DUP1 RETURNDATACOPY RETURNDATASIZE PUSH0 REVERT JUMPDEST POP POP POP POP DUP1 DUP4 GT ISZERO PUSH2 0x4081 JUMPI PUSH1 0x2 SLOAD PUSH1 0x1 PUSH1 0x1 PUSH1 0xA0 SHL SUB AND PUSH4 0x2EDCBD60 PUSH2 0x4035 DUP4 DUP7 PUSH2 0x571D JUMP JUMPDEST PUSH1 0x40 MLOAD DUP3 PUSH4 0xFFFFFFFF AND PUSH1 0xE0 SHL DUP2 MSTORE PUSH1 0x4 ADD PUSH2 0x4053 SWAP2 DUP2 MSTORE PUSH1 0x20 ADD SWAP1 JUMP JUMPDEST PUSH0 PUSH1 0x40 MLOAD DUP1 DUP4 SUB DUP2 PUSH0 DUP8 DUP1 EXTCODESIZE ISZERO DUP1 ISZERO PUSH2 0x406A JUMPI PUSH0 DUP1 REVERT JUMPDEST POP GAS CALL ISZERO DUP1 ISZERO PUSH2 0x407C JUMPI RETURNDATASIZE PUSH0 DUP1 RETURNDATACOPY RETURNDATASIZE PUSH0 REVERT JUMPDEST POP POP POP POP JUMPDEST PUSH2 0x40E0 JUMP JUMPDEST PUSH1 0x2 SLOAD PUSH1 0x40 MLOAD PUSH4 0x176E5EB PUSH1 0xE5 SHL DUP2 MSTORE PUSH1 0x4 DUP2 ADD DUP6 SWAP1 MSTORE PUSH1 0x1 PUSH1 0x1 PUSH1 0xA0 SHL SUB SWAP1 SWAP2 AND SWAP1 PUSH4 0x2EDCBD60 SWAP1 PUSH1 0x24 ADD PUSH0 PUSH1 0x40 MLOAD DUP1 DUP4 SUB DUP2 PUSH0 DUP8 DUP1 EXTCODESIZE ISZERO DUP1 ISZERO PUSH2 0x40C9 JUMPI PUSH0 DUP1 REVERT JUMPDEST POP GAS CALL ISZERO DUP1 ISZERO PUSH2 0x40DB JUMPI RETURNDATASIZE PUSH0 DUP1 RETURNDATACOPY RETURNDATASIZE PUSH0 REVERT JUMPDEST POP POP POP POP JUMPDEST POP POP POP POP PUSH2 0x1AFD JUMP JUMPDEST PUSH1 0x40 MLOAD PUSH3 0x461BCD PUSH1 0xE5 SHL DUP2 MSTORE PUSH1 0x20 PUSH1 0x4 DUP3 ADD MSTORE PUSH1 0x2 PUSH1 0x24 DUP3 ADD MSTORE PUSH2 0x2299 PUSH1 0xF1 SHL PUSH1 0x44 DUP3 ADD MSTORE PUSH1 0x64 ADD PUSH2 0xBBF JUMP JUMPDEST PUSH0 DUP2 DUP2 MSTORE PUSH1 0x15 PUSH1 0x20 MSTORE PUSH1 0x40 DUP2 KECCAK256 PUSH1 0x4 DUP2 ADD SLOAD PUSH1 0x60 SWAP3 SWAP1 PUSH1 0xFF AND PUSH1 0x1 PUSH1 0x1 PUSH1 0x40 SHL SUB DUP2 GT ISZERO PUSH2 0x4146 JUMPI PUSH2 0x4146 PUSH2 0x4A47 JUMP JUMPDEST PUSH1 0x40 MLOAD SWAP1 DUP1 DUP3 MSTORE DUP1 PUSH1 0x20 MUL PUSH1 0x20 ADD DUP3 ADD PUSH1 0x40 MSTORE DUP1 ISZERO PUSH2 0x4179 JUMPI DUP2 PUSH1 0x20 ADD JUMPDEST PUSH1 0x60 DUP2 MSTORE PUSH1 0x20 ADD SWAP1 PUSH1 0x1 SWAP1 SUB SWAP1 DUP2 PUSH2 0x4164 JUMPI SWAP1 POP JUMPDEST POP SWAP1 POP PUSH0 JUMPDEST PUSH1 0x4 DUP4 ADD SLOAD PUSH1 0xFF SWAP1 DUP2 AND SWAP1 DUP3 AND LT ISZERO PUSH2 0x4274 JUMPI PUSH1 0x40 DUP1 MLOAD PUSH1 0xF DUP1 DUP3 MSTORE PUSH2 0x200 DUP3 ADD SWAP1 SWAP3 MSTORE SWAP1 PUSH1 0x20 DUP3 ADD PUSH2 0x1E0 DUP1 CALLDATASIZE DUP4 CALLDATACOPY ADD SWAP1 POP POP DUP3 DUP3 PUSH1 0xFF AND DUP2 MLOAD DUP2 LT PUSH2 0x41C7 JUMPI PUSH2 0x41C7 PUSH2 0x56F0 JUMP JUMPDEST PUSH1 0x20 MUL PUSH1 0x20 ADD ADD DUP2 SWAP1 MSTORE POP PUSH0 JUMPDEST PUSH1 0xF DUP2 PUSH1 0xFF AND LT ISZERO PUSH2 0x426B JUMPI DUP4 PUSH1 0xFF DUP4 AND PUSH1 0x4 DUP2 LT PUSH2 0x41F5 JUMPI PUSH2 0x41F5 PUSH2 0x56F0 JUMP JUMPDEST ADD DUP2 PUSH1 0xFF AND PUSH1 0xF DUP2 LT PUSH2 0x420A JUMPI PUSH2 0x420A PUSH2 0x56F0 JUMP JUMPDEST PUSH1 0x20 SWAP2 DUP3 DUP3 DIV ADD SWAP2 SWAP1 MOD SWAP1 SLOAD SWAP1 PUSH2 0x100 EXP SWAP1 DIV PUSH1 0xFF AND DUP4 DUP4 PUSH1 0xFF AND DUP2 MLOAD DUP2 LT PUSH2 0x4235 JUMPI PUSH2 0x4235 PUSH2 0x56F0 JUMP JUMPDEST PUSH1 0x20 MUL PUSH1 0x20 ADD ADD MLOAD DUP3 PUSH1 0xFF AND DUP2 MLOAD DUP2 LT PUSH2 0x4251 JUMPI PUSH2 0x4251 PUSH2 0x56F0 JUMP JUMPDEST PUSH1 0xFF SWAP1 SWAP3 AND PUSH1 0x20 SWAP3 DUP4 MUL SWAP2 SWAP1 SWAP2 ADD SWAP1 SWAP2 ADD MSTORE PUSH1 0x1 ADD PUSH2 0x41D4 JUMP JUMPDEST POP PUSH1 0x1 ADD PUSH2 0x417E JUMP JUMPDEST POP SWAP4 SWAP3 POP POP POP JUMP JUMPDEST PUSH1 0x1 PUSH1 0x1 PUSH1 0xA0 SHL SUB DUP2 AND PUSH0 SWAP1 DUP2 MSTORE PUSH1 0x10 PUSH1 0x20 MSTORE PUSH1 0x40 DUP2 KECCAK256 SLOAD SWAP1 SUB PUSH2 0x1AAF JUMPI PUSH1 0xE DUP1 SLOAD SWAP1 PUSH0 PUSH2 0x42A9 DUP4 PUSH2 0x578D JUMP JUMPDEST SWAP1 SWAP2 SSTORE POP POP PUSH1 0xE SLOAD PUSH1 0x40 DUP1 MLOAD PUSH2 0x120 DUP2 ADD DUP3 MSTORE DUP3 DUP2 MSTORE PUSH1 0x1 PUSH1 0x1 PUSH1 0xA0 SHL SUB SWAP4 DUP5 AND PUSH1 0x20 DUP1 DUP4 ADD DUP3 DUP2 MSTORE PUSH0 DUP5 DUP7 ADD DUP2 DUP2 MSTORE PUSH1 0x60 DUP7 ADD DUP3 DUP2 MSTORE PUSH1 0x80 DUP8 ADD DUP4 DUP2 MSTORE PUSH1 0xA0 DUP9 ADD DUP5 DUP2 MSTORE PUSH1 0xC0 DUP10 ADD DUP6 DUP2 MSTORE PUSH1 0xE0 DUP11 ADD DUP7 DUP2 MSTORE PUSH2 0x100 DUP12 ADD DUP8 DUP2 MSTORE DUP14 DUP9 MSTORE PUSH1 0xF DUP11 MSTORE DUP13 DUP9 KECCAK256 SWAP12 MLOAD DUP13 SSTORE SWAP8 MLOAD PUSH1 0x1 DUP13 ADD DUP1 SLOAD PUSH1 0x1 PUSH1 0x1 PUSH1 0xA0 SHL SUB NOT AND SWAP2 SWAP1 SWAP16 AND OR SWAP1 SWAP14 SSTORE SWAP4 MLOAD PUSH1 0x2 DUP11 ADD SSTORE SWAP2 MLOAD PUSH1 0x3 DUP10 ADD SSTORE MLOAD PUSH1 0x4 DUP9 ADD SSTORE MLOAD PUSH1 0x5 DUP8 ADD SSTORE MLOAD PUSH1 0x6 DUP7 ADD SSTORE SWAP7 MLOAD PUSH1 0x7 DUP6 ADD SSTORE MLOAD PUSH1 0x8 SWAP1 SWAP4 ADD SWAP3 SWAP1 SWAP3 SSTORE DUP5 MSTORE PUSH1 0x10 SWAP1 MSTORE SWAP1 SWAP2 KECCAK256 SSTORE JUMP JUMPDEST PUSH0 DUP1 PUSH0 DUP1 PUSH2 0x437A DUP9 DUP9 DUP9 DUP9 PUSH0 PUSH2 0x28EC JUMP JUMPDEST POP SWAP3 POP SWAP3 POP SWAP3 POP PUSH0 JUMPDEST DUP9 MLOAD DUP2 PUSH1 0xFF AND LT ISZERO PUSH2 0x44E2 JUMPI PUSH0 JUMPDEST PUSH1 0xF DUP2 PUSH1 0xFF AND LT ISZERO PUSH2 0x443F JUMPI DUP10 DUP3 PUSH1 0xFF AND DUP2 MLOAD DUP2 LT PUSH2 0x43B2 JUMPI PUSH2 0x43B2 PUSH2 0x56F0 JUMP JUMPDEST PUSH1 0x20 MUL PUSH1 0x20 ADD ADD MLOAD DUP2 PUSH1 0xFF AND DUP2 MLOAD DUP2 LT PUSH2 0x43CE JUMPI PUSH2 0x43CE PUSH2 0x56F0 JUMP JUMPDEST PUSH1 0x20 MUL PUSH1 0x20 ADD ADD MLOAD PUSH1 0x15 PUSH0 DUP14 DUP2 MSTORE PUSH1 0x20 ADD SWAP1 DUP2 MSTORE PUSH1 0x20 ADD PUSH0 KECCAK256 PUSH0 ADD DUP4 PUSH1 0xFF AND PUSH1 0x4 DUP2 LT PUSH2 0x43FD JUMPI PUSH2 0x43FD PUSH2 0x56F0 JUMP JUMPDEST ADD DUP3 PUSH1 0xFF AND PUSH1 0xF DUP2 LT PUSH2 0x4412 JUMPI PUSH2 0x4412 PUSH2 0x56F0 JUMP JUMPDEST PUSH1 0x20 SWAP2 DUP3 DUP3 DIV ADD SWAP2 SWAP1 MOD PUSH2 0x100 EXP DUP2 SLOAD DUP2 PUSH1 0xFF MUL NOT AND SWAP1 DUP4 PUSH1 0xFF AND MUL OR SWAP1 SSTORE POP DUP1 DUP1 PUSH1 0x1 ADD SWAP2 POP POP PUSH2 0x4391 JUMP JUMPDEST POP DUP4 DUP2 PUSH1 0xFF AND DUP2 MLOAD DUP2 LT PUSH2 0x4455 JUMPI PUSH2 0x4455 PUSH2 0x56F0 JUMP JUMPDEST PUSH1 0x20 MUL PUSH1 0x20 ADD ADD MLOAD PUSH1 0x15 PUSH0 DUP13 DUP2 MSTORE PUSH1 0x20 ADD SWAP1 DUP2 MSTORE PUSH1 0x20 ADD PUSH0 KECCAK256 PUSH1 0x7 ADD DUP3 PUSH1 0xFF AND PUSH1 0x4 DUP2 LT PUSH2 0x4485 JUMPI PUSH2 0x4485 PUSH2 0x56F0 JUMP JUMPDEST ADD SSTORE DUP3 MLOAD DUP4 SWAP1 PUSH1 0xFF DUP4 AND SWAP1 DUP2 LT PUSH2 0x449E JUMPI PUSH2 0x449E PUSH2 0x56F0 JUMP JUMPDEST PUSH1 0x20 MUL PUSH1 0x20 ADD ADD MLOAD PUSH1 0x15 PUSH0 DUP13 DUP2 MSTORE PUSH1 0x20 ADD SWAP1 DUP2 MSTORE PUSH1 0x20 ADD PUSH0 KECCAK256 PUSH1 0xB ADD DUP3 PUSH1 0xFF AND PUSH1 0x4 DUP2 LT PUSH2 0x44CE JUMPI PUSH2 0x44CE PUSH2 0x56F0 JUMP JUMPDEST ADD SSTORE DUP1 PUSH2 0x44DA DUP2 PUSH2 0x576F JUMP JUMPDEST SWAP2 POP POP PUSH2 0x4383 JUMP JUMPDEST POP PUSH0 JUMPDEST DUP7 MLOAD DUP2 PUSH1 0xFF AND LT ISZERO PUSH2 0x4569 JUMPI DUP7 DUP2 PUSH1 0xFF AND DUP2 MLOAD DUP2 LT PUSH2 0x4506 JUMPI PUSH2 0x4506 PUSH2 0x56F0 JUMP JUMPDEST PUSH1 0x20 MUL PUSH1 0x20 ADD ADD MLOAD PUSH1 0x15 PUSH0 DUP13 DUP2 MSTORE PUSH1 0x20 ADD SWAP1 DUP2 MSTORE PUSH1 0x20 ADD PUSH0 KECCAK256 PUSH1 0x6 ADD DUP3 PUSH1 0xFF AND PUSH1 0x1E DUP2 LT PUSH2 0x4536 JUMPI PUSH2 0x4536 PUSH2 0x56F0 JUMP JUMPDEST PUSH1 0x20 SWAP2 DUP3 DUP3 DIV ADD SWAP2 SWAP1 MOD PUSH2 0x100 EXP DUP2 SLOAD DUP2 PUSH1 0xFF MUL NOT AND SWAP1 DUP4 PUSH1 0xFF AND MUL OR SWAP1 SSTORE POP DUP1 DUP1 PUSH2 0x4561 SWAP1 PUSH2 0x576F JUMP JUMPDEST SWAP2 POP POP PUSH2 0x44E5 JUMP JUMPDEST POP PUSH0 DUP10 DUP2 MSTORE PUSH1 0x15 PUSH1 0x20 SWAP1 DUP2 MSTORE PUSH1 0x40 SWAP1 SWAP2 KECCAK256 DUP9 MLOAD PUSH2 0x458E SWAP3 PUSH1 0x5 SWAP1 SWAP3 ADD SWAP2 DUP11 ADD SWAP1 PUSH2 0x471D JUMP JUMPDEST POP SWAP7 MLOAD PUSH0 SWAP9 DUP10 MSTORE PUSH1 0x15 PUSH1 0x20 MSTORE PUSH1 0x40 SWAP1 SWAP9 KECCAK256 PUSH1 0x4 ADD DUP1 SLOAD PUSH1 0xFF NOT AND PUSH1 0xFF SWAP1 SWAP10 AND SWAP9 SWAP1 SWAP9 OR SWAP1 SWAP8 SSTORE POP SWAP4 SWAP6 SWAP5 POP POP POP POP POP JUMP JUMPDEST PUSH1 0x1 DUP4 ADD SWAP2 DUP4 SWAP1 DUP3 ISZERO PUSH2 0x463F JUMPI SWAP2 PUSH1 0x20 MUL DUP3 ADD PUSH0 JUMPDEST DUP4 DUP3 GT ISZERO PUSH2 0x4611 JUMPI DUP4 MLOAD DUP4 DUP3 PUSH2 0x100 EXP DUP2 SLOAD DUP2 PUSH1 0xFF MUL NOT AND SWAP1 DUP4 PUSH1 0xFF AND MUL OR SWAP1 SSTORE POP SWAP3 PUSH1 0x20 ADD SWAP3 PUSH1 0x1 ADD PUSH1 0x20 DUP2 PUSH0 ADD DIV SWAP3 DUP4 ADD SWAP3 PUSH1 0x1 SUB MUL PUSH2 0x45D4 JUMP JUMPDEST DUP1 ISZERO PUSH2 0x463D JUMPI DUP3 DUP2 PUSH2 0x100 EXP DUP2 SLOAD SWAP1 PUSH1 0xFF MUL NOT AND SWAP1 SSTORE PUSH1 0x1 ADD PUSH1 0x20 DUP2 PUSH0 ADD DIV SWAP3 DUP4 ADD SWAP3 PUSH1 0x1 SUB MUL PUSH2 0x4611 JUMP JUMPDEST POP JUMPDEST POP PUSH2 0x464B SWAP3 SWAP2 POP PUSH2 0x477F JUMP JUMPDEST POP SWAP1 JUMP JUMPDEST PUSH1 0x40 MLOAD DUP1 PUSH2 0x500 ADD PUSH1 0x40 MSTORE DUP1 PUSH1 0x28 SWAP1 PUSH1 0x20 DUP3 MUL DUP1 CALLDATASIZE DUP4 CALLDATACOPY POP SWAP2 SWAP3 SWAP2 POP POP JUMP JUMPDEST PUSH1 0x40 MLOAD DUP1 PUSH2 0x7A0 ADD PUSH1 0x40 MSTORE DUP1 PUSH1 0x3D SWAP1 PUSH1 0x20 DUP3 MUL DUP1 CALLDATASIZE DUP4 CALLDATACOPY POP SWAP2 SWAP3 SWAP2 POP POP JUMP JUMPDEST PUSH1 0x40 DUP1 MLOAD PUSH2 0x180 DUP2 ADD SWAP1 SWAP2 MSTORE PUSH0 PUSH1 0x60 DUP3 ADD DUP2 DUP2 MSTORE PUSH1 0x80 DUP4 ADD DUP3 SWAP1 MSTORE PUSH1 0xA0 DUP4 ADD DUP3 SWAP1 MSTORE PUSH1 0xC0 DUP4 ADD DUP3 SWAP1 MSTORE PUSH1 0xE0 DUP4 ADD DUP3 SWAP1 MSTORE PUSH2 0x100 DUP4 ADD DUP3 SWAP1 MSTORE PUSH2 0x120 DUP4 ADD DUP3 SWAP1 MSTORE PUSH2 0x140 DUP4 ADD DUP3 SWAP1 MSTORE PUSH2 0x160 DUP4 ADD SWAP2 SWAP1 SWAP2 MSTORE DUP2 MSTORE PUSH1 0x20 DUP2 ADD PUSH2 0x46EC PUSH2 0x4793 JUMP JUMPDEST DUP2 MSTORE PUSH1 0x20 ADD PUSH2 0x46F9 PUSH2 0x47DA JUMP JUMPDEST SWAP1 MSTORE SWAP1 JUMP JUMPDEST PUSH1 0x40 MLOAD DUP1 PUSH2 0x1E0 ADD PUSH1 0x40 MSTORE DUP1 PUSH1 0xF SWAP1 PUSH1 0x20 DUP3 MUL DUP1 CALLDATASIZE DUP4 CALLDATACOPY POP SWAP2 SWAP3 SWAP2 POP POP JUMP JUMPDEST DUP3 DUP1 SLOAD DUP3 DUP3 SSTORE SWAP1 PUSH0 MSTORE PUSH1 0x20 PUSH0 KECCAK256 SWAP1 PUSH1 0x1F ADD PUSH1 0x20 SWAP1 DIV DUP2 ADD SWAP3 DUP3 ISZERO PUSH2 0x463F JUMPI SWAP2 PUSH1 0x20 MUL DUP3 ADD PUSH0 JUMPDEST DUP4 DUP3 GT ISZERO PUSH2 0x4611 JUMPI DUP4 MLOAD DUP4 DUP3 PUSH2 0x100 EXP DUP2 SLOAD DUP2 PUSH1 0xFF MUL NOT AND SWAP1 DUP4 ISZERO ISZERO MUL OR SWAP1 SSTORE POP SWAP3 PUSH1 0x20 ADD SWAP3 PUSH1 0x1 ADD PUSH1 0x20 DUP2 PUSH0 ADD DIV SWAP3 DUP4 ADD SWAP3 PUSH1 0x1 SUB MUL PUSH2 0x4743 JUMP JUMPDEST JUMPDEST DUP1 DUP3 GT ISZERO PUSH2 0x464B JUMPI PUSH0 DUP2 SSTORE PUSH1 0x1 ADD PUSH2 0x4780 JUMP JUMPDEST PUSH1 0x40 MLOAD DUP1 PUSH1 0xC0 ADD PUSH1 0x40 MSTORE DUP1 PUSH2 0x47A6 PUSH2 0x4809 JUMP JUMPDEST DUP2 MSTORE PUSH0 PUSH1 0x20 DUP3 ADD MSTORE PUSH1 0x60 PUSH1 0x40 DUP3 ADD DUP2 SWAP1 MSTORE ADD PUSH2 0x47C0 PUSH2 0x4836 JUMP JUMPDEST DUP2 MSTORE PUSH1 0x20 ADD PUSH2 0x47CD PUSH2 0x4855 JUMP JUMPDEST DUP2 MSTORE PUSH1 0x20 ADD PUSH2 0x46F9 PUSH2 0x4855 JUMP JUMPDEST PUSH1 0x40 DUP1 MLOAD PUSH1 0xA0 DUP2 ADD DUP3 MSTORE PUSH0 DUP1 DUP3 MSTORE PUSH1 0x20 DUP3 ADD DUP2 SWAP1 MSTORE SWAP2 DUP2 ADD DUP3 SWAP1 MSTORE PUSH1 0x60 DUP2 ADD SWAP2 SWAP1 SWAP2 MSTORE PUSH1 0x80 DUP2 ADD PUSH2 0x46F9 PUSH2 0x4873 JUMP JUMPDEST PUSH1 0x40 MLOAD DUP1 PUSH1 0x80 ADD PUSH1 0x40 MSTORE DUP1 PUSH1 0x4 SWAP1 JUMPDEST PUSH2 0x4820 PUSH2 0x46FE JUMP JUMPDEST DUP2 MSTORE PUSH1 0x20 ADD SWAP1 PUSH1 0x1 SWAP1 SUB SWAP1 DUP2 PUSH2 0x4818 JUMPI SWAP1 POP POP SWAP1 JUMP JUMPDEST PUSH1 0x40 MLOAD DUP1 PUSH2 0x3C0 ADD PUSH1 0x40 MSTORE DUP1 PUSH1 0x1E SWAP1 PUSH1 0x20 DUP3 MUL DUP1 CALLDATASIZE DUP4 CALLDATACOPY POP SWAP2 SWAP3 SWAP2 POP POP JUMP JUMPDEST PUSH1 0x40 MLOAD DUP1 PUSH1 0x80 ADD PUSH1 0x40 MSTORE DUP1 PUSH1 0x4 SWAP1 PUSH1 0x20 DUP3 MUL DUP1 CALLDATASIZE DUP4 CALLDATACOPY POP SWAP2 SWAP3 SWAP2 POP POP JUMP JUMPDEST PUSH1 0x40 MLOAD DUP1 PUSH2 0x140 ADD PUSH1 0x40 MSTORE DUP1 PUSH1 0xA SWAP1 PUSH1 0x20 DUP3 MUL DUP1 CALLDATASIZE DUP4 CALLDATACOPY POP SWAP2 SWAP3 SWAP2 POP POP JUMP JUMPDEST PUSH0 PUSH1 0x20 DUP3 DUP5 SUB SLT ISZERO PUSH2 0x48A2 JUMPI PUSH0 DUP1 REVERT JUMPDEST POP CALLDATALOAD SWAP2 SWAP1 POP JUMP JUMPDEST PUSH4 0x4E487B71 PUSH1 0xE0 SHL PUSH0 MSTORE PUSH1 0x21 PUSH1 0x4 MSTORE PUSH1 0x24 PUSH0 REVERT JUMPDEST PUSH1 0x5 DUP2 LT PUSH2 0x48D9 JUMPI PUSH4 0x4E487B71 PUSH1 0xE0 SHL PUSH0 MSTORE PUSH1 0x21 PUSH1 0x4 MSTORE PUSH1 0x24 PUSH0 REVERT JUMPDEST SWAP1 MSTORE JUMP JUMPDEST PUSH2 0x120 DUP2 ADD PUSH2 0x48EC DUP3 DUP13 PUSH2 0x48BD JUMP JUMPDEST PUSH1 0x20 DUP3 ADD SWAP10 SWAP1 SWAP10 MSTORE PUSH1 0x40 DUP2 ADD SWAP8 SWAP1 SWAP8 MSTORE PUSH1 0x60 DUP8 ADD SWAP6 SWAP1 SWAP6 MSTORE PUSH1 0x80 DUP7 ADD SWAP4 SWAP1 SWAP4 MSTORE PUSH1 0xA0 DUP6 ADD SWAP2 SWAP1 SWAP2 MSTORE PUSH1 0xC0 DUP5 ADD MSTORE PUSH1 0xE0 DUP4 ADD MSTORE PUSH2 0x100 SWAP1 SWAP2 ADD MSTORE SWAP2 SWAP1 POP JUMP JUMPDEST PUSH1 0x1 PUSH1 0x1 PUSH1 0xA0 SHL SUB DUP2 AND DUP2 EQ PUSH2 0x1AAF JUMPI PUSH0 DUP1 REVERT JUMPDEST DUP1 CALLDATALOAD PUSH2 0x4949 DUP2 PUSH2 0x492A JUMP JUMPDEST SWAP2 SWAP1 POP JUMP JUMPDEST PUSH0 PUSH1 0x20 DUP3 DUP5 SUB SLT ISZERO PUSH2 0x495E JUMPI PUSH0 DUP1 REVERT JUMPDEST DUP2 CALLDATALOAD PUSH2 0x39AB DUP2 PUSH2 0x492A JUMP JUMPDEST PUSH0 JUMPDEST DUP4 DUP2 LT ISZERO PUSH2 0x4983 JUMPI DUP2 DUP2 ADD MLOAD DUP4 DUP3 ADD MSTORE PUSH1 0x20 ADD PUSH2 0x496B JUMP JUMPDEST POP POP PUSH0 SWAP2 ADD MSTORE JUMP JUMPDEST PUSH0 DUP2 MLOAD DUP1 DUP5 MSTORE PUSH2 0x49A2 DUP2 PUSH1 0x20 DUP7 ADD PUSH1 0x20 DUP7 ADD PUSH2 0x4969 JUMP JUMPDEST PUSH1 0x1F ADD PUSH1 0x1F NOT AND SWAP3 SWAP1 SWAP3 ADD PUSH1 0x20 ADD SWAP3 SWAP2 POP POP JUMP JUMPDEST PUSH1 0x20 DUP1 DUP3 MSTORE DUP3 MLOAD PUSH1 0x1 PUSH1 0x1 PUSH1 0xA0 SHL SUB AND DUP3 DUP3 ADD MSTORE DUP3 ADD MLOAD PUSH1 0xFF DUP2 AND PUSH1 0x40 DUP4 ADD MSTORE PUSH0 SWAP1 POP PUSH1 0x40 DUP4 ADD MLOAD PUSH2 0x100 DUP1 PUSH1 0x60 DUP6 ADD MSTORE PUSH2 0x49F5 PUSH2 0x120 DUP6 ADD DUP4 PUSH2 0x498B JUMP JUMPDEST SWAP2 POP PUSH1 0x60 DUP6 ADD MLOAD PUSH1 0x1F NOT DUP6 DUP5 SUB ADD PUSH1 0x80 DUP7 ADD MSTORE PUSH2 0x4A12 DUP4 DUP3 PUSH2 0x498B JUMP JUMPDEST SWAP3 POP POP PUSH1 0x80 DUP6 ADD MLOAD PUSH1 0xA0 DUP6 ADD MSTORE PUSH1 0xA0 DUP6 ADD MLOAD PUSH1 0xC0 DUP6 ADD MSTORE PUSH1 0xC0 DUP6 ADD MLOAD PUSH1 0xE0 DUP6 ADD MSTORE PUSH1 0xE0 DUP6 ADD MLOAD DUP2 DUP6 ADD MSTORE POP DUP1 SWAP2 POP POP SWAP3 SWAP2 POP POP JUMP JUMPDEST PUSH4 0x4E487B71 PUSH1 0xE0 SHL PUSH0 MSTORE PUSH1 0x41 PUSH1 0x4 MSTORE PUSH1 0x24 PUSH0 REVERT JUMPDEST PUSH1 0x40 MLOAD PUSH2 0x140 DUP2 ADD PUSH1 0x1 PUSH1 0x1 PUSH1 0x40 SHL SUB DUP2 GT DUP3 DUP3 LT OR ISZERO PUSH2 0x4A7E JUMPI PUSH2 0x4A7E PUSH2 0x4A47 JUMP JUMPDEST PUSH1 0x40 MSTORE SWAP1 JUMP JUMPDEST PUSH1 0x40 MLOAD PUSH2 0x100 DUP2 ADD PUSH1 0x1 PUSH1 0x1 PUSH1 0x40 SHL SUB DUP2 GT DUP3 DUP3 LT OR ISZERO PUSH2 0x4A7E JUMPI PUSH2 0x4A7E PUSH2 0x4A47 JUMP JUMPDEST PUSH1 0x40 MLOAD PUSH1 0x1F DUP3 ADD PUSH1 0x1F NOT AND DUP2 ADD PUSH1 0x1 PUSH1 0x1 PUSH1 0x40 SHL SUB DUP2 GT DUP3 DUP3 LT OR ISZERO PUSH2 0x4ACF JUMPI PUSH2 0x4ACF PUSH2 0x4A47 JUMP JUMPDEST PUSH1 0x40 MSTORE SWAP2 SWAP1 POP JUMP JUMPDEST PUSH1 0xFF DUP2 AND DUP2 EQ PUSH2 0x1AAF JUMPI PUSH0 DUP1 REVERT JUMPDEST PUSH0 DUP1 PUSH0 DUP1 PUSH0 DUP1 PUSH2 0x1E0 DUP1 DUP9 DUP11 SUB SLT ISZERO PUSH2 0x4AFC JUMPI PUSH0 DUP1 REVERT JUMPDEST DUP8 CALLDATALOAD PUSH2 0x4B07 DUP2 PUSH2 0x492A JUMP JUMPDEST SWAP7 POP PUSH1 0x20 DUP9 DUP2 ADD CALLDATALOAD SWAP7 POP PUSH1 0x40 DUP10 ADD CALLDATALOAD SWAP6 POP PUSH1 0x60 DUP10 ADD CALLDATALOAD SWAP5 POP PUSH1 0x80 DUP10 ADD CALLDATALOAD SWAP4 POP PUSH1 0xBF DUP10 ADD DUP11 SGT PUSH2 0x4B34 JUMPI PUSH0 DUP1 REVERT JUMPDEST PUSH2 0x4B3C PUSH2 0x4A5B JUMP JUMPDEST SWAP2 DUP10 ADD SWAP2 DUP1 DUP12 DUP5 GT ISZERO PUSH2 0x4B4D JUMPI PUSH0 DUP1 REVERT JUMPDEST PUSH1 0xA0 DUP12 ADD JUMPDEST DUP5 DUP2 LT ISZERO PUSH2 0x4B72 JUMPI DUP1 CALLDATALOAD PUSH2 0x4B65 DUP2 PUSH2 0x4AD7 JUMP JUMPDEST DUP4 MSTORE SWAP2 DUP4 ADD SWAP2 DUP4 ADD PUSH2 0x4B52 JUMP JUMPDEST POP DUP1 SWAP5 POP POP POP POP POP SWAP3 SWAP6 POP SWAP3 SWAP6 POP SWAP3 SWAP6 JUMP JUMPDEST PUSH0 DUP1 PUSH1 0x40 DUP4 DUP6 SUB SLT ISZERO PUSH2 0x4B95 JUMPI PUSH0 DUP1 REVERT JUMPDEST DUP3 CALLDATALOAD PUSH2 0x4BA0 DUP2 PUSH2 0x4AD7 JUMP JUMPDEST SWAP2 POP PUSH1 0x20 DUP4 ADD CALLDATALOAD PUSH2 0x4BB0 DUP2 PUSH2 0x4AD7 JUMP JUMPDEST DUP1 SWAP2 POP POP SWAP3 POP SWAP3 SWAP1 POP JUMP JUMPDEST PUSH0 DUP1 PUSH1 0x40 DUP4 DUP6 SUB SLT ISZERO PUSH2 0x4BCC JUMPI PUSH0 DUP1 REVERT JUMPDEST DUP3 CALLDATALOAD PUSH2 0x4BD7 DUP2 PUSH2 0x492A JUMP JUMPDEST SWAP5 PUSH1 0x20 SWAP4 SWAP1 SWAP4 ADD CALLDATALOAD SWAP4 POP POP POP JUMP JUMPDEST PUSH1 0x20 DUP1 DUP3 MSTORE DUP3 MLOAD DUP3 DUP3 ADD DUP2 SWAP1 MSTORE PUSH0 SWAP2 SWAP1 PUSH1 0x40 SWAP1 DUP2 DUP6 ADD SWAP1 DUP7 DUP5 ADD DUP6 JUMPDEST DUP3 DUP2 LT ISZERO PUSH2 0x4C30 JUMPI DUP2 MLOAD DUP1 MLOAD DUP6 MSTORE DUP7 DUP2 ADD MLOAD DUP8 DUP7 ADD MSTORE DUP6 ADD MLOAD DUP6 DUP6 ADD MSTORE PUSH1 0x60 SWAP1 SWAP4 ADD SWAP3 SWAP1 DUP6 ADD SWAP1 PUSH1 0x1 ADD PUSH2 0x4C01 JUMP JUMPDEST POP SWAP2 SWAP8 SWAP7 POP POP POP POP POP POP POP JUMP JUMPDEST PUSH0 PUSH1 0x1 PUSH1 0x1 PUSH1 0x40 SHL SUB DUP3 GT ISZERO PUSH2 0x4C55 JUMPI PUSH2 0x4C55 PUSH2 0x4A47 JUMP JUMPDEST POP PUSH1 0x5 SHL PUSH1 0x20 ADD SWAP1 JUMP JUMPDEST PUSH0 DUP3 PUSH1 0x1F DUP4 ADD SLT PUSH2 0x4C6E JUMPI PUSH0 DUP1 REVERT JUMPDEST DUP2 CALLDATALOAD PUSH1 0x20 PUSH2 0x4C83 PUSH2 0x4C7E DUP4 PUSH2 0x4C3D JUMP JUMPDEST PUSH2 0x4AA7 JUMP JUMPDEST DUP1 DUP4 DUP3 MSTORE PUSH1 0x20 DUP3 ADD SWAP2 POP PUSH1 0x20 DUP5 PUSH1 0x5 SHL DUP8 ADD ADD SWAP4 POP DUP7 DUP5 GT ISZERO PUSH2 0x4CA4 JUMPI PUSH0 DUP1 REVERT JUMPDEST PUSH1 0x20 DUP7 ADD JUMPDEST DUP5 DUP2 LT ISZERO PUSH2 0x4CC9 JUMPI DUP1 CALLDATALOAD PUSH2 0x4CBC DUP2 PUSH2 0x4AD7 JUMP JUMPDEST DUP4 MSTORE SWAP2 DUP4 ADD SWAP2 DUP4 ADD PUSH2 0x4CA9 JUMP JUMPDEST POP SWAP7 SWAP6 POP POP POP POP POP POP JUMP JUMPDEST PUSH0 DUP3 PUSH1 0x1F DUP4 ADD SLT PUSH2 0x4CE3 JUMPI PUSH0 DUP1 REVERT JUMPDEST DUP2 CALLDATALOAD PUSH1 0x20 PUSH2 0x4CF3 PUSH2 0x4C7E DUP4 PUSH2 0x4C3D JUMP JUMPDEST DUP3 DUP2 MSTORE PUSH1 0x5 SWAP3 SWAP1 SWAP3 SHL DUP5 ADD DUP2 ADD SWAP2 DUP2 DUP2 ADD SWAP1 DUP7 DUP5 GT ISZERO PUSH2 0x4D11 JUMPI PUSH0 DUP1 REVERT JUMPDEST DUP3 DUP7 ADD JUMPDEST DUP5 DUP2 LT ISZERO PUSH2 0x4CC9 JUMPI DUP1 CALLDATALOAD PUSH1 0x1 PUSH1 0x1 PUSH1 0x40 SHL SUB DUP2 GT ISZERO PUSH2 0x4D32 JUMPI PUSH0 DUP1 REVERT JUMPDEST PUSH2 0x4D40 DUP10 DUP7 DUP4 DUP12 ADD ADD PUSH2 0x4C5F JUMP JUMPDEST DUP5 MSTORE POP SWAP2 DUP4 ADD SWAP2 DUP4 ADD PUSH2 0x4D15 JUMP JUMPDEST DUP1 ISZERO ISZERO DUP2 EQ PUSH2 0x1AAF JUMPI PUSH0 DUP1 REVERT JUMPDEST PUSH0 DUP3 PUSH1 0x1F DUP4 ADD SLT PUSH2 0x4D6A JUMPI PUSH0 DUP1 REVERT JUMPDEST DUP2 CALLDATALOAD PUSH1 0x20 PUSH2 0x4D7A PUSH2 0x4C7E DUP4 PUSH2 0x4C3D JUMP JUMPDEST DUP1 DUP4 DUP3 MSTORE PUSH1 0x20 DUP3 ADD SWAP2 POP PUSH1 0x20 DUP5 PUSH1 0x5 SHL DUP8 ADD ADD SWAP4 POP DUP7 DUP5 GT ISZERO PUSH2 0x4D9B JUMPI PUSH0 DUP1 REVERT JUMPDEST PUSH1 0x20 DUP7 ADD JUMPDEST DUP5 DUP2 LT ISZERO PUSH2 0x4CC9 JUMPI DUP1 CALLDATALOAD PUSH2 0x4DB3 DUP2 PUSH2 0x4D4E JUMP JUMPDEST DUP4 MSTORE SWAP2 DUP4 ADD SWAP2 DUP4 ADD PUSH2 0x4DA0 JUMP JUMPDEST PUSH0 PUSH1 0x20 DUP1 DUP4 DUP6 SUB SLT ISZERO PUSH2 0x4DD1 JUMPI PUSH0 DUP1 REVERT JUMPDEST DUP3 CALLDATALOAD PUSH1 0x1 PUSH1 0x1 PUSH1 0x40 SHL SUB DUP1 DUP3 GT ISZERO PUSH2 0x4DE7 JUMPI PUSH0 DUP1 REVERT JUMPDEST DUP2 DUP6 ADD SWAP2 POP DUP6 PUSH1 0x1F DUP4 ADD SLT PUSH2 0x4DFA JUMPI PUSH0 DUP1 REVERT JUMPDEST DUP2 CALLDATALOAD PUSH2 0x4E08 PUSH2 0x4C7E DUP3 PUSH2 0x4C3D JUMP JUMPDEST DUP2 DUP2 MSTORE PUSH1 0x5 SWAP2 SWAP1 SWAP2 SHL DUP4 ADD DUP5 ADD SWAP1 DUP5 DUP2 ADD SWAP1 DUP9 DUP4 GT ISZERO PUSH2 0x4E26 JUMPI PUSH0 DUP1 REVERT JUMPDEST DUP6 DUP6 ADD JUMPDEST DUP4 DUP2 LT ISZERO PUSH2 0x4F0F JUMPI DUP1 CALLDATALOAD DUP6 DUP2 GT ISZERO PUSH2 0x4E40 JUMPI PUSH0 DUP1 REVERT JUMPDEST DUP7 ADD PUSH2 0x100 DUP2 DUP13 SUB PUSH1 0x1F NOT ADD DUP2 SGT ISZERO PUSH2 0x4E57 JUMPI PUSH0 DUP1 REVERT JUMPDEST PUSH2 0x4E5F PUSH2 0x4A84 JUMP JUMPDEST PUSH2 0x4E6A DUP11 DUP5 ADD PUSH2 0x493E JUMP JUMPDEST DUP2 MSTORE PUSH1 0x40 DUP4 ADD CALLDATALOAD DUP9 DUP2 GT ISZERO PUSH2 0x4E7D JUMPI PUSH0 DUP1 REVERT JUMPDEST PUSH2 0x4E8B DUP15 DUP13 DUP4 DUP8 ADD ADD PUSH2 0x4CD4 JUMP JUMPDEST DUP12 DUP4 ADD MSTORE POP PUSH1 0x60 DUP4 ADD CALLDATALOAD DUP9 DUP2 GT ISZERO PUSH2 0x4EA1 JUMPI PUSH0 DUP1 REVERT JUMPDEST PUSH2 0x4EAF DUP15 DUP13 DUP4 DUP8 ADD ADD PUSH2 0x4D5B JUMP JUMPDEST PUSH1 0x40 DUP4 ADD MSTORE POP PUSH1 0x80 DUP4 ADD CALLDATALOAD PUSH1 0x60 DUP3 ADD MSTORE PUSH1 0xA0 DUP4 ADD CALLDATALOAD PUSH1 0x80 DUP3 ADD MSTORE PUSH1 0xC0 DUP4 ADD CALLDATALOAD PUSH1 0xA0 DUP3 ADD MSTORE PUSH1 0xE0 DUP1 DUP5 ADD CALLDATALOAD DUP10 DUP2 GT ISZERO PUSH2 0x4EE5 JUMPI PUSH0 DUP1 REVERT JUMPDEST PUSH2 0x4EF3 DUP16 DUP14 DUP4 DUP9 ADD ADD PUSH2 0x4C5F JUMP JUMPDEST PUSH1 0xC0 DUP5 ADD MSTORE POP SWAP2 SWAP1 SWAP3 ADD CALLDATALOAD SWAP1 DUP3 ADD MSTORE DUP4 MSTORE SWAP2 DUP7 ADD SWAP2 DUP7 ADD PUSH2 0x4E2A JUMP JUMPDEST POP SWAP9 SWAP8 POP POP POP POP POP POP POP POP JUMP JUMPDEST PUSH0 DUP1 PUSH0 DUP1 PUSH0 DUP1 PUSH0 DUP1 PUSH2 0x100 DUP10 DUP12 SUB SLT ISZERO PUSH2 0x4F34 JUMPI PUSH0 DUP1 REVERT JUMPDEST PUSH2 0x4F3D DUP10 PUSH2 0x493E JUMP JUMPDEST SWAP8 POP PUSH1 0x20 DUP10 ADD CALLDATALOAD PUSH1 0x1 PUSH1 0x1 PUSH1 0x40 SHL SUB DUP1 DUP3 GT ISZERO PUSH2 0x4F58 JUMPI PUSH0 DUP1 REVERT JUMPDEST PUSH2 0x4F64 DUP13 DUP4 DUP14 ADD PUSH2 0x4CD4 JUMP JUMPDEST SWAP9 POP PUSH1 0x40 DUP12 ADD CALLDATALOAD SWAP2 POP DUP1 DUP3 GT ISZERO PUSH2 0x4F79 JUMPI PUSH0 DUP1 REVERT JUMPDEST PUSH2 0x4F85 DUP13 DUP4 DUP14 ADD PUSH2 0x4D5B JUMP JUMPDEST SWAP8 POP PUSH1 0x60 DUP12 ADD CALLDATALOAD SWAP7 POP PUSH1 0x80 DUP12 ADD CALLDATALOAD SWAP6 POP PUSH1 0xA0 DUP12 ADD CALLDATALOAD SWAP5 POP PUSH1 0xC0 DUP12 ADD CALLDATALOAD SWAP2 POP DUP1 DUP3 GT ISZERO PUSH2 0x4FAF JUMPI PUSH0 DUP1 REVERT JUMPDEST POP PUSH2 0x4FBC DUP12 DUP3 DUP13 ADD PUSH2 0x4C5F JUMP JUMPDEST SWAP3 POP POP PUSH1 0xE0 DUP10 ADD CALLDATALOAD SWAP1 POP SWAP3 SWAP6 SWAP9 POP SWAP3 SWAP6 SWAP9 SWAP1 SWAP4 SWAP7 POP JUMP JUMPDEST PUSH0 DUP2 MLOAD DUP1 DUP5 MSTORE PUSH1 0x20 DUP1 DUP6 ADD SWAP5 POP PUSH1 0x20 DUP5 ADD PUSH0 JUMPDEST DUP4 DUP2 LT ISZERO PUSH2 0x5004 JUMPI DUP2 MLOAD ISZERO ISZERO DUP8 MSTORE SWAP6 DUP3 ADD SWAP6 SWAP1 DUP3 ADD SWAP1 PUSH1 0x1 ADD PUSH2 0x4FE6 JUMP JUMPDEST POP SWAP5 SWAP6 SWAP5 POP POP POP POP POP JUMP JUMPDEST DUP1 PUSH0 JUMPDEST PUSH1 0x1E DUP2 LT ISZERO PUSH2 0x3C97 JUMPI DUP2 MLOAD PUSH1 0xFF AND DUP5 MSTORE PUSH1 0x20 SWAP4 DUP5 ADD SWAP4 SWAP1 SWAP2 ADD SWAP1 PUSH1 0x1 ADD PUSH2 0x5012 JUMP JUMPDEST DUP1 PUSH0 JUMPDEST PUSH1 0x4 DUP2 LT ISZERO PUSH2 0x3C97 JUMPI DUP2 MLOAD DUP5 MSTORE PUSH1 0x20 SWAP4 DUP5 ADD SWAP4 SWAP1 SWAP2 ADD SWAP1 PUSH1 0x1 ADD PUSH2 0x5037 JUMP JUMPDEST DUP1 MLOAD PUSH0 SWAP1 PUSH2 0xC80 SWAP1 DUP5 DUP4 JUMPDEST PUSH1 0x4 DUP2 LT ISZERO PUSH2 0x50AB JUMPI DUP3 MLOAD DUP3 PUSH0 JUMPDEST PUSH1 0xF DUP2 LT ISZERO PUSH2 0x5091 JUMPI DUP3 MLOAD PUSH1 0xFF AND DUP3 MSTORE PUSH1 0x20 SWAP3 DUP4 ADD SWAP3 SWAP1 SWAP2 ADD SWAP1 PUSH1 0x1 ADD PUSH2 0x506F JUMP JUMPDEST POP POP POP PUSH1 0x20 SWAP3 SWAP1 SWAP3 ADD SWAP2 PUSH2 0x1E0 SWAP2 SWAP1 SWAP2 ADD SWAP1 PUSH1 0x1 ADD PUSH2 0x5061 JUMP JUMPDEST POP POP POP PUSH1 0x20 DUP4 ADD MLOAD PUSH1 0xFF AND PUSH2 0x780 DUP6 ADD MSTORE PUSH1 0x40 DUP4 ADD MLOAD PUSH2 0x7A0 DUP6 ADD DUP3 SWAP1 MSTORE PUSH2 0x50D5 DUP3 DUP7 ADD DUP3 PUSH2 0x4FD3 JUMP JUMPDEST SWAP2 POP POP PUSH1 0x60 DUP4 ADD MLOAD PUSH2 0x50EB PUSH2 0x7C0 DUP7 ADD DUP3 PUSH2 0x500F JUMP JUMPDEST POP PUSH1 0x80 DUP4 ADD MLOAD PUSH2 0x50FF PUSH2 0xB80 DUP7 ADD DUP3 PUSH2 0x5034 JUMP JUMPDEST POP PUSH1 0xA0 DUP4 ADD MLOAD PUSH2 0x267F PUSH2 0xC00 DUP7 ADD DUP3 PUSH2 0x5034 JUMP JUMPDEST DUP1 MLOAD DUP3 MSTORE PUSH1 0x20 DUP1 DUP3 ADD MLOAD PUSH1 0x20 DUP5 ADD MSTORE PUSH1 0x40 DUP3 ADD MLOAD PUSH1 0x40 DUP5 ADD MSTORE PUSH1 0x60 DUP3 ADD MLOAD ISZERO ISZERO PUSH1 0x60 DUP5 ADD MSTORE PUSH1 0x80 DUP3 ADD MLOAD PUSH1 0x80 DUP5 ADD PUSH0 JUMPDEST PUSH1 0xA DUP2 LT ISZERO PUSH2 0x1316 JUMPI DUP3 MLOAD PUSH1 0xFF AND DUP3 MSTORE SWAP2 DUP4 ADD SWAP2 SWAP1 DUP4 ADD SWAP1 PUSH1 0x1 ADD PUSH2 0x5143 JUMP JUMPDEST PUSH0 PUSH2 0x300 DUP3 MLOAD PUSH2 0x5174 DUP6 DUP3 MLOAD PUSH2 0x48BD JUMP JUMPDEST PUSH1 0x20 DUP2 ADD MLOAD PUSH1 0x20 DUP7 ADD MSTORE PUSH1 0x40 DUP2 ADD MLOAD PUSH1 0x40 DUP7 ADD MSTORE PUSH1 0x60 DUP2 ADD MLOAD PUSH1 0x60 DUP7 ADD MSTORE PUSH1 0x80 DUP2 ADD MLOAD PUSH1 0x80 DUP7 ADD MSTORE PUSH1 0xA0 DUP2 ADD MLOAD PUSH1 0xA0 DUP7 ADD MSTORE PUSH1 0xC0 DUP2 ADD MLOAD PUSH1 0xC0 DUP7 ADD MSTORE PUSH1 0xE0 DUP2 ADD MLOAD PUSH1 0xE0 DUP7 ADD MSTORE PUSH2 0x100 DUP1 DUP3 ADD MLOAD DUP2 DUP8 ADD MSTORE POP POP PUSH1 0x20 DUP4 ADD MLOAD DUP2 PUSH2 0x120 DUP7 ADD MSTORE PUSH2 0x51DF DUP3 DUP7 ADD DUP3 PUSH2 0x5056 JUMP JUMPDEST SWAP2 POP POP PUSH1 0x40 DUP4 ADD MLOAD PUSH2 0x267F PUSH2 0x140 DUP7 ADD DUP3 PUSH2 0x5113 JUMP JUMPDEST PUSH1 0x20 DUP2 MSTORE PUSH0 PUSH2 0x39AB PUSH1 0x20 DUP4 ADD DUP5 PUSH2 0x5163 JUMP JUMPDEST PUSH0 DUP1 PUSH1 0x40 DUP4 DUP6 SUB SLT ISZERO PUSH2 0x5218 JUMPI PUSH0 DUP1 REVERT JUMPDEST POP POP DUP1 CALLDATALOAD SWAP3 PUSH1 0x20 SWAP1 SWAP2 ADD CALLDATALOAD SWAP2 POP JUMP JUMPDEST PUSH0 PUSH1 0x20 DUP1 DUP4 ADD PUSH1 0x20 DUP5 MSTORE DUP1 DUP6 MLOAD DUP1 DUP4 MSTORE PUSH1 0x40 DUP7 ADD SWAP2 POP PUSH1 0x40 DUP2 PUSH1 0x5 SHL DUP8 ADD ADD SWAP3 POP PUSH1 0x20 DUP8 ADD PUSH0 JUMPDEST DUP3 DUP2 LT ISZERO PUSH2 0x527C JUMPI PUSH1 0x3F NOT DUP9 DUP7 SUB ADD DUP5 MSTORE PUSH2 0x526A DUP6 DUP4 MLOAD PUSH2 0x5163 JUMP JUMPDEST SWAP5 POP SWAP3 DUP6 ADD SWAP3 SWAP1 DUP6 ADD SWAP1 PUSH1 0x1 ADD PUSH2 0x524E JUMP JUMPDEST POP SWAP3 SWAP8 SWAP7 POP POP POP POP POP POP POP JUMP JUMPDEST PUSH0 DUP1 PUSH1 0x40 DUP4 DUP6 SUB SLT ISZERO PUSH2 0x529A JUMPI PUSH0 DUP1 REVERT JUMPDEST DUP3 CALLDATALOAD SWAP2 POP PUSH1 0x20 DUP4 ADD CALLDATALOAD PUSH1 0x1 PUSH1 0x1 PUSH1 0x40 SHL SUB DUP2 GT ISZERO PUSH2 0x52B6 JUMPI PUSH0 DUP1 REVERT JUMPDEST PUSH2 0x52C2 DUP6 DUP3 DUP7 ADD PUSH2 0x4C5F JUMP JUMPDEST SWAP2 POP POP SWAP3 POP SWAP3 SWAP1 POP JUMP JUMPDEST PUSH0 DUP2 MLOAD DUP1 DUP5 MSTORE PUSH1 0x20 DUP1 DUP6 ADD SWAP5 POP PUSH1 0x20 DUP5 ADD PUSH0 JUMPDEST DUP4 DUP2 LT ISZERO PUSH2 0x5004 JUMPI DUP2 MLOAD DUP8 MSTORE SWAP6 DUP3 ADD SWAP6 SWAP1 DUP3 ADD SWAP1 PUSH1 0x1 ADD PUSH2 0x52DF JUMP JUMPDEST PUSH1 0x80 DUP2 MSTORE PUSH0 PUSH2 0x530D PUSH1 0x80 DUP4 ADD DUP8 PUSH2 0x52CC JUMP JUMPDEST DUP3 DUP2 SUB PUSH1 0x20 DUP5 ADD MSTORE PUSH2 0x531F DUP2 DUP8 PUSH2 0x52CC JUMP JUMPDEST PUSH1 0x40 DUP5 ADD SWAP6 SWAP1 SWAP6 MSTORE POP POP PUSH1 0x60 ADD MSTORE SWAP3 SWAP2 POP POP JUMP JUMPDEST PUSH0 PUSH2 0x140 DUP5 MLOAD DUP4 MSTORE PUSH1 0x1 DUP1 PUSH1 0xA0 SHL SUB PUSH1 0x20 DUP7 ADD MLOAD AND PUSH1 0x20 DUP5 ADD MSTORE PUSH1 0x40 DUP6 ADD MLOAD PUSH1 0x40 DUP5 ADD MSTORE PUSH1 0x60 DUP6 ADD MLOAD PUSH1 0x60 DUP5 ADD MSTORE PUSH1 0x80 DUP6 ADD MLOAD PUSH1 0x80 DUP5 ADD MSTORE PUSH1 0xA0 DUP6 ADD MLOAD PUSH1 0xA0 DUP5 ADD MSTORE PUSH1 0xC0 DUP6 ADD MLOAD PUSH1 0xC0 DUP5 ADD MSTORE PUSH1 0xE0 DUP6 ADD MLOAD PUSH1 0xE0 DUP5 ADD MSTORE PUSH2 0x100 DUP1 DUP7 ADD MLOAD DUP2 DUP6 ADD MSTORE POP DUP1 PUSH2 0x120 DUP5 ADD MSTORE PUSH2 0x53A8 DUP2 DUP5 ADD DUP6 PUSH2 0x5163 JUMP JUMPDEST SWAP6 SWAP5 POP POP POP POP POP JUMP JUMPDEST PUSH0 DUP1 PUSH0 DUP1 PUSH0 PUSH1 0xA0 DUP7 DUP9 SUB SLT ISZERO PUSH2 0x53C5 JUMPI PUSH0 DUP1 REVERT JUMPDEST DUP6 CALLDATALOAD PUSH1 0x1 PUSH1 0x1 PUSH1 0x40 SHL SUB DUP1 DUP3 GT ISZERO PUSH2 0x53DB JUMPI PUSH0 DUP1 REVERT JUMPDEST PUSH2 0x53E7 DUP10 DUP4 DUP11 ADD PUSH2 0x4CD4 JUMP JUMPDEST SWAP7 POP PUSH1 0x20 DUP9 ADD CALLDATALOAD SWAP2 POP DUP1 DUP3 GT ISZERO PUSH2 0x53FC JUMPI PUSH0 DUP1 REVERT JUMPDEST PUSH2 0x5408 DUP10 DUP4 DUP11 ADD PUSH2 0x4D5B JUMP JUMPDEST SWAP6 POP PUSH1 0x40 DUP9 ADD CALLDATALOAD SWAP2 POP DUP1 DUP3 GT ISZERO PUSH2 0x541D JUMPI PUSH0 DUP1 REVERT JUMPDEST POP PUSH2 0x542A DUP9 DUP3 DUP10 ADD PUSH2 0x4C5F JUMP JUMPDEST SWAP4 POP POP PUSH1 0x60 DUP7 ADD CALLDATALOAD SWAP2 POP PUSH1 0x80 DUP7 ADD CALLDATALOAD PUSH2 0x5442 DUP2 PUSH2 0x4D4E JUMP JUMPDEST DUP1 SWAP2 POP POP SWAP3 SWAP6 POP SWAP3 SWAP6 SWAP1 SWAP4 POP JUMP JUMPDEST PUSH1 0xA0 DUP2 MSTORE PUSH0 PUSH2 0x5462 PUSH1 0xA0 DUP4 ADD DUP9 PUSH2 0x52CC JUMP JUMPDEST DUP3 DUP2 SUB PUSH1 0x20 DUP5 ADD MSTORE PUSH2 0x5474 DUP2 DUP9 PUSH2 0x52CC JUMP JUMPDEST SWAP1 POP DUP3 DUP2 SUB PUSH1 0x40 DUP5 ADD MSTORE PUSH2 0x5488 DUP2 DUP8 PUSH2 0x4FD3 JUMP JUMPDEST PUSH1 0x60 DUP5 ADD SWAP6 SWAP1 SWAP6 MSTORE POP POP PUSH1 0x80 ADD MSTORE SWAP4 SWAP3 POP POP POP JUMP JUMPDEST PUSH0 DUP1 PUSH0 PUSH1 0x60 DUP5 DUP7 SUB SLT ISZERO PUSH2 0x54AF JUMPI PUSH0 DUP1 REVERT JUMPDEST DUP4 CALLDATALOAD PUSH2 0x54BA DUP2 PUSH2 0x492A JUMP JUMPDEST SWAP6 PUSH1 0x20 DUP6 ADD CALLDATALOAD SWAP6 POP PUSH1 0x40 SWAP1 SWAP5 ADD CALLDATALOAD SWAP4 SWAP3 POP POP POP JUMP JUMPDEST PUSH0 PUSH1 0x20 DUP3 DUP5 SUB SLT ISZERO PUSH2 0x54DF JUMPI PUSH0 DUP1 REVERT JUMPDEST DUP2 MLOAD PUSH2 0x39AB DUP2 PUSH2 0x4AD7 JUMP JUMPDEST PUSH0 DUP3 PUSH1 0x1F DUP4 ADD SLT PUSH2 0x54F9 JUMPI PUSH0 DUP1 REVERT JUMPDEST DUP2 MLOAD PUSH1 0x1 PUSH1 0x1 PUSH1 0x40 SHL SUB DUP2 GT ISZERO PUSH2 0x5512 JUMPI PUSH2 0x5512 PUSH2 0x4A47 JUMP JUMPDEST PUSH2 0x5525 PUSH1 0x1F DUP3 ADD PUSH1 0x1F NOT AND PUSH1 0x20 ADD PUSH2 0x4AA7 JUMP JUMPDEST DUP2 DUP2 MSTORE DUP5 PUSH1 0x20 DUP4 DUP7 ADD ADD GT ISZERO PUSH2 0x5539 JUMPI PUSH0 DUP1 REVERT JUMPDEST PUSH2 0x554A DUP3 PUSH1 0x20 DUP4 ADD PUSH1 0x20 DUP8 ADD PUSH2 0x4969 JUMP JUMPDEST SWAP5 SWAP4 POP POP POP POP JUMP JUMPDEST PUSH0 PUSH1 0x20 DUP3 DUP5 SUB SLT ISZERO PUSH2 0x5562 JUMPI PUSH0 DUP1 REVERT JUMPDEST DUP2 MLOAD PUSH1 0x1 PUSH1 0x1 PUSH1 0x40 SHL SUB DUP2 GT ISZERO PUSH2 0x5577 JUMPI PUSH0 DUP1 REVERT JUMPDEST PUSH2 0x554A DUP5 DUP3 DUP6 ADD PUSH2 0x54EA JUMP JUMPDEST PUSH0 PUSH1 0x20 DUP3 DUP5 SUB SLT ISZERO PUSH2 0x5593 JUMPI PUSH0 DUP1 REVERT JUMPDEST POP MLOAD SWAP2 SWAP1 POP JUMP JUMPDEST DUP1 MLOAD PUSH2 0x4949 DUP2 PUSH2 0x492A JUMP JUMPDEST PUSH0 PUSH1 0x20 DUP3 DUP5 SUB SLT ISZERO PUSH2 0x55B5 JUMPI PUSH0 DUP1 REVERT JUMPDEST DUP2 MLOAD PUSH1 0x1 PUSH1 0x1 PUSH1 0x40 SHL SUB DUP1 DUP3 GT ISZERO PUSH2 0x55CB JUMPI PUSH0 DUP1 REVERT JUMPDEST SWAP1 DUP4 ADD SWAP1 PUSH2 0x140 DUP3 DUP7 SUB SLT ISZERO PUSH2 0x55DF JUMPI PUSH0 DUP1 REVERT JUMPDEST PUSH2 0x55E7 PUSH2 0x4A5B JUMP JUMPDEST DUP3 MLOAD DUP2 MSTORE PUSH1 0x20 DUP4 ADD MLOAD DUP3 DUP2 GT ISZERO PUSH2 0x55FC JUMPI PUSH0 DUP1 REVERT JUMPDEST PUSH2 0x5608 DUP8 DUP3 DUP7 ADD PUSH2 0x54EA JUMP JUMPDEST PUSH1 0x20 DUP4 ADD MSTORE POP PUSH1 0x40 DUP4 ADD MLOAD PUSH1 0x40 DUP3 ADD MSTORE PUSH2 0x5624 PUSH1 0x60 DUP5 ADD PUSH2 0x559A JUMP JUMPDEST PUSH1 0x60 DUP3 ADD MSTORE PUSH1 0x80 DUP4 ADD MLOAD PUSH1 0x80 DUP3 ADD MSTORE PUSH1 0xA0 DUP4 ADD MLOAD PUSH1 0xA0 DUP3 ADD MSTORE PUSH1 0xC0 DUP4 ADD MLOAD PUSH1 0xC0 DUP3 ADD MSTORE PUSH1 0xE0 DUP4 ADD MLOAD PUSH1 0xE0 DUP3 ADD MSTORE PUSH2 0x100 DUP1 DUP5 ADD MLOAD DUP2 DUP4 ADD MSTORE POP PUSH2 0x120 DUP1 DUP5 ADD MLOAD DUP4 DUP2 GT ISZERO PUSH2 0x5670 JUMPI PUSH0 DUP1 REVERT JUMPDEST PUSH2 0x567C DUP9 DUP3 DUP8 ADD PUSH2 0x54EA JUMP JUMPDEST SWAP2 DUP4 ADD SWAP2 SWAP1 SWAP2 MSTORE POP SWAP6 SWAP5 POP POP POP POP POP JUMP JUMPDEST PUSH1 0x20 DUP1 DUP3 MSTORE PUSH1 0xB SWAP1 DUP3 ADD MSTORE PUSH11 0x4F6E6C79206F7261636C65 PUSH1 0xA8 SHL PUSH1 0x40 DUP3 ADD MSTORE PUSH1 0x60 ADD SWAP1 JUMP JUMPDEST PUSH4 0x4E487B71 PUSH1 0xE0 SHL PUSH0 MSTORE PUSH1 0x11 PUSH1 0x4 MSTORE PUSH1 0x24 PUSH0 REVERT JUMPDEST DUP1 DUP3 MUL DUP2 ISZERO DUP3 DUP3 DIV DUP5 EQ OR PUSH2 0x2683 JUMPI PUSH2 0x2683 PUSH2 0x56B2 JUMP JUMPDEST DUP1 DUP3 ADD DUP1 DUP3 GT ISZERO PUSH2 0x2683 JUMPI PUSH2 0x2683 PUSH2 0x56B2 JUMP JUMPDEST PUSH4 0x4E487B71 PUSH1 0xE0 SHL PUSH0 MSTORE PUSH1 0x32 PUSH1 0x4 MSTORE PUSH1 0x24 PUSH0 REVERT JUMPDEST PUSH1 0xFF DUP2 DUP2 AND DUP4 DUP3 AND ADD SWAP1 DUP2 GT ISZERO PUSH2 0x2683 JUMPI PUSH2 0x2683 PUSH2 0x56B2 JUMP JUMPDEST DUP2 DUP2 SUB DUP2 DUP2 GT ISZERO PUSH2 0x2683 JUMPI PUSH2 0x2683 PUSH2 0x56B2 JUMP JUMPDEST PUSH1 0x20 DUP1 DUP3 MSTORE PUSH1 0xA SWAP1 DUP3 ADD MSTORE PUSH10 0x27B7363C9037BBB732B9 PUSH1 0xB1 SHL PUSH1 0x40 DUP3 ADD MSTORE PUSH1 0x60 ADD SWAP1 JUMP JUMPDEST PUSH0 PUSH1 0x20 DUP3 DUP5 SUB SLT ISZERO PUSH2 0x5764 JUMPI PUSH0 DUP1 REVERT JUMPDEST DUP2 MLOAD PUSH2 0x39AB DUP2 PUSH2 0x4D4E JUMP JUMPDEST PUSH0 PUSH1 0xFF DUP3 AND PUSH1 0xFF DUP2 SUB PUSH2 0x5784 JUMPI PUSH2 0x5784 PUSH2 0x56B2 JUMP JUMPDEST PUSH1 0x1 ADD SWAP3 SWAP2 POP POP JUMP JUMPDEST PUSH0 PUSH1 0x1 DUP3 ADD PUSH2 0x579E JUMPI PUSH2 0x579E PUSH2 0x56B2 JUMP JUMPDEST POP PUSH1 0x1 ADD SWAP1 JUMP JUMPDEST PUSH0 DUP3 PUSH2 0x57BF JUMPI PUSH4 0x4E487B71 PUSH1 0xE0 SHL PUSH0 MSTORE PUSH1 0x12 PUSH1 0x4 MSTORE PUSH1 0x24 PUSH0 REVERT JUMPDEST POP DIV SWAP1 JUMP INVALID LOG2 PUSH5 0x6970667358 0x22 SLT KECCAK256 RETURNDATASIZE 0xBE PUSH26 0x1489CE01BD34143363EC341A1F0D1CE10BF3F9069FCDC5EF51CE 0xE5 DUP3 AND PUSH5 0x736F6C6343 STOP ADDMOD XOR STOP CALLER "
		},
		"gasEstimates": {
			"creation": {
				"codeDepositCost": "4504400",
				"executionCost": "infinite",
				"totalCost": "infinite"
			},
			"external": {
				"PRECISION()": "239",
				"bankAmount()": "infinite",
				"calculateWonAmount(uint8[][],bool[],uint8[],uint256,bool)": "infinite",
				"calculateWonAmountExtra(uint256,uint8[])": "infinite",
				"depositManager()": "2470",
				"gameMultiplyMap(uint8,uint8)": "infinite",
				"games(uint256)": "19685",
				"gamesCards(uint256)": "2567",
				"gamesCount()": "2426",
				"gamesExtra(uint256)": "8894",
				"getGame(uint256)": "infinite",
				"getGameWonAmount(uint256)": "infinite",
				"getGames(uint256,uint256)": "infinite",
				"getLastGameInfo(address)": "infinite",
				"getPlayerByAddress(address)": "infinite",
				"getPlayerGames(address,uint256,uint256)": "infinite",
				"getStatus(address)": "infinite",
				"getTokenInfo(address)": "infinite",
				"getTopWins()": "infinite",
				"hasGameExtraBalls(uint256)": "infinite",
				"maxBet()": "2362",
				"minBet()": "2362",
				"oracle()": "2425",
				"owner()": "2491",
				"playBatch((address,uint8[][],bool[],bytes32,bytes32,bytes32,uint8[],uint256)[])": "infinite",
				"playSingleExtraGame(address,uint256,bytes32,bytes32,bytes32,uint8[10])": "infinite",
				"playSingleGame(address,uint8[][],bool[],bytes32,bytes32,bytes32,uint8[],uint256)": "infinite",
				"playerGames(uint256,uint256)": "2575",
				"players(uint256)": "19619",
				"playersCount()": "2406",
				"playersIds(address)": "2644",
				"recoverWrongToken(address,uint256)": "infinite",
				"setMaxBet(uint256)": "24573",
				"setMinBet(uint256)": "24595",
				"token()": "2490",
				"topWonGames(uint256)": "8965",
				"totalBetsAmount()": "2405",
				"totalLostAmount()": "2406",
				"totalLostGamesCount()": "2340",
				"totalWinAmount()": "2382",
				"totalWinGamesCount()": "2363",
				"transferOwnership(address)": "26836",
				"winPatterns(uint256)": "2547",
				"winPatternsCount()": "2385"
			},
			"internal": {
				"_checkSeed(uint256,bytes32,bytes32)": "infinite",
				"_fillGameCard(uint256,uint8[] memory[] memory,bool[] memory,uint8[] memory,uint256)": "infinite",
				"_fixed40ToDynamic(uint8[40] memory)": "infinite",
				"_getCardBallsFromStorage(uint256)": "infinite",
				"_playSingleGame(address,uint8[] memory[] memory,bool[] memory,bytes32,bytes32,bytes32,uint8[] memory,uint256)": "infinite",
				"addTopWonGame(uint256,uint256,uint256)": "infinite",
				"countUsedCards(bool[] memory)": "infinite",
				"hasDuplicatesBalls(uint8[] memory)": "infinite",
				"registerPlayer(address)": "infinite",
				"shuffleNotExists(bytes32,uint256,uint256,uint256,uint8[] memory)": "infinite"
			}
		},
		"methodIdentifiers": {
			"PRECISION()": "aaf5eb68",
			"bankAmount()": "b42a275e",
			"calculateWonAmount(uint8[][],bool[],uint8[],uint256,bool)": "e5a84fee",
			"calculateWonAmountExtra(uint256,uint8[])": "cde40637",
			"depositManager()": "6c7ac9d8",
			"gameMultiplyMap(uint8,uint8)": "2643ef1d",
			"games(uint256)": "117a5b90",
			"gamesCards(uint256)": "c1686071",
			"gamesCount()": "fb632b7c",
			"gamesExtra(uint256)": "7526d839",
			"getGame(uint256)": "a2f77bcc",
			"getGameWonAmount(uint256)": "ebda5f1c",
			"getGames(uint256,uint256)": "ac451185",
			"getLastGameInfo(address)": "a9ff89f9",
			"getPlayerByAddress(address)": "d4d51269",
			"getPlayerGames(address,uint256,uint256)": "f538fca4",
			"getStatus(address)": "30ccebb5",
			"getTokenInfo(address)": "1f69565f",
			"getTopWins()": "41fac50f",
			"hasGameExtraBalls(uint256)": "5cd4818e",
			"maxBet()": "2e5b2168",
			"minBet()": "9619367d",
			"oracle()": "7dc0d1d0",
			"owner()": "8da5cb5b",
			"playBatch((address,uint8[][],bool[],bytes32,bytes32,bytes32,uint8[],uint256)[])": "6a1738da",
			"playSingleExtraGame(address,uint256,bytes32,bytes32,bytes32,uint8[10])": "21e8a62c",
			"playSingleGame(address,uint8[][],bool[],bytes32,bytes32,bytes32,uint8[],uint256)": "7bc712cd",
			"playerGames(uint256,uint256)": "e3dd6664",
			"players(uint256)": "f71d96cb",
			"playersCount()": "a3f67d6d",
			"playersIds(address)": "38e49cb8",
			"recoverWrongToken(address,uint256)": "3c28f9ce",
			"setMaxBet(uint256)": "881eff1e",
			"setMinBet(uint256)": "88ea41b9",
			"token()": "fc0c546a",
			"topWonGames(uint256)": "f9b2a8bc",
			"totalBetsAmount()": "efbd7bd2",
			"totalLostAmount()": "322668a4",
			"totalLostGamesCount()": "9188483b",
			"totalWinAmount()": "f7ead092",
			"totalWinGamesCount()": "1b43e5af",
			"transferOwnership(address)": "f2fde38b",
			"winPatterns(uint256)": "6c1a6cb1",
			"winPatternsCount()": "1b7953ee"
		}
	},
	"abi": [
		{
			"inputs": [
				{
					"internalType": "address",
					"name": "tokenAddress",
					"type": "address"
				},
				{
					"internalType": "address",
					"name": "oracleAddress",
					"type": "address"
				},
				{
					"internalType": "address",
					"name": "depositManagerAddress",
					"type": "address"
				}
			],
			"stateMutability": "nonpayable",
			"type": "constructor"
		},
		{
			"inputs": [],
			"name": "PRECISION",
			"outputs": [
				{
					"internalType": "uint256",
					"name": "",
					"type": "uint256"
				}
			],
			"stateMutability": "view",
			"type": "function"
		},
		{
			"inputs": [],
			"name": "bankAmount",
			"outputs": [
				{
					"internalType": "uint256",
					"name": "",
					"type": "uint256"
				}
			],
			"stateMutability": "view",
			"type": "function"
		},
		{
			"inputs": [
				{
					"internalType": "uint8[][]",
					"name": "cardBalls",
					"type": "uint8[][]"
				},
				{
					"internalType": "bool[]",
					"name": "usedCardsMap",
					"type": "bool[]"
				},
				{
					"internalType": "uint8[]",
					"name": "winBalls",
					"type": "uint8[]"
				},
				{
					"internalType": "uint256",
					"name": "betAmount",
					"type": "uint256"
				},
				{
					"internalType": "bool",
					"name": "hasExtraBalls",
					"type": "bool"
				}
			],
			"name": "calculateWonAmount",
			"outputs": [
				{
					"internalType": "uint256[]",
					"name": "cardMultipliers",
					"type": "uint256[]"
				},
				{
					"internalType": "uint256[]",
					"name": "cardWonAmount",
					"type": "uint256[]"
				},
				{
					"internalType": "uint256",
					"name": "_totalWonAmount",
					"type": "uint256"
				},
				{
					"internalType": "uint256",
					"name": "_totalLostAmount",
					"type": "uint256"
				}
			],
			"stateMutability": "view",
			"type": "function"
		},
		{
			"inputs": [
				{
					"internalType": "uint256",
					"name": "gameId",
					"type": "uint256"
				},
				{
					"internalType": "uint8[]",
					"name": "winBalls",
					"type": "uint8[]"
				}
			],
			"name": "calculateWonAmountExtra",
			"outputs": [
				{
					"internalType": "uint256[]",
					"name": "cardMultipliers",
					"type": "uint256[]"
				},
				{
					"internalType": "uint256[]",
					"name": "cardWonAmount",
					"type": "uint256[]"
				},
				{
					"internalType": "uint256",
					"name": "_totalWonAmount",
					"type": "uint256"
				},
				{
					"internalType": "uint256",
					"name": "_totalLostAmount",
					"type": "uint256"
				}
			],
			"stateMutability": "view",
			"type": "function"
		},
		{
			"inputs": [],
			"name": "depositManager",
			"outputs": [
				{
					"internalType": "contract IGGWDeposit",
					"name": "",
					"type": "address"
				}
			],
			"stateMutability": "view",
			"type": "function"
		},
		{
			"inputs": [
				{
					"internalType": "uint8",
					"name": "",
					"type": "uint8"
				},
				{
					"internalType": "uint8",
					"name": "",
					"type": "uint8"
				}
			],
			"name": "gameMultiplyMap",
			"outputs": [
				{
					"internalType": "uint256",
					"name": "",
					"type": "uint256"
				}
			],
			"stateMutability": "view",
			"type": "function"
		},
		{
			"inputs": [
				{
					"internalType": "uint256",
					"name": "",
					"type": "uint256"
				}
			],
			"name": "games",
			"outputs": [
				{
					"internalType": "enum GGWorldBingoGame.GAME_STATUS",
					"name": "status",
					"type": "uint8"
				},
				{
					"internalType": "uint256",
					"name": "gameId",
					"type": "uint256"
				},
				{
					"internalType": "uint256",
					"name": "playerId",
					"type": "uint256"
				},
				{
					"internalType": "bytes32",
					"name": "playerSeed",
					"type": "bytes32"
				},
				{
					"internalType": "bytes32",
					"name": "serverSeed",
					"type": "bytes32"
				},
				{
					"internalType": "bytes32",
					"name": "serverSeedHash",
					"type": "bytes32"
				},
				{
					"internalType": "uint256",
					"name": "startsIn",
					"type": "uint256"
				},
				{
					"internalType": "uint256",
					"name": "betAmount",
					"type": "uint256"
				},
				{
					"internalType": "uint256",
					"name": "wonAmount",
					"type": "uint256"
				}
			],
			"stateMutability": "view",
			"type": "function"
		},
		{
			"inputs": [
				{
					"internalType": "uint256",
					"name": "",
					"type": "uint256"
				}
			],
			"name": "gamesCards",
			"outputs": [
				{
					"internalType": "uint8",
					"name": "cardsCount",
					"type": "uint8"
				}
			],
			"stateMutability": "view",
			"type": "function"
		},
		{
			"inputs": [],
			"name": "gamesCount",
			"outputs": [
				{
					"internalType": "uint256",
					"name": "",
					"type": "uint256"
				}
			],
			"stateMutability": "view",
			"type": "function"
		},
		{
			"inputs": [
				{
					"internalType": "uint256",
					"name": "",
					"type": "uint256"
				}
			],
			"name": "gamesExtra",
			"outputs": [
				{
					"internalType": "bytes32",
					"name": "serverSeed",
					"type": "bytes32"
				},
				{
					"internalType": "bytes32",
					"name": "serverSeedHash",
					"type": "bytes32"
				},
				{
					"internalType": "bytes32",
					"name": "playerSeed",
					"type": "bytes32"
				},
				{
					"internalType": "bool",
					"name": "hasExtraBalls",
					"type": "bool"
				}
			],
			"stateMutability": "view",
			"type": "function"
		},
		{
			"inputs": [
				{
					"internalType": "uint256",
					"name": "gameId",
					"type": "uint256"
				}
			],
			"name": "getGame",
			"outputs": [
				{
					"components": [
						{
							"components": [
								{
									"internalType": "enum GGWorldBingoGame.GAME_STATUS",
									"name": "status",
									"type": "uint8"
								},
								{
									"internalType": "uint256",
									"name": "gameId",
									"type": "uint256"
								},
								{
									"internalType": "uint256",
									"name": "playerId",
									"type": "uint256"
								},
								{
									"internalType": "bytes32",
									"name": "playerSeed",
									"type": "bytes32"
								},
								{
									"internalType": "bytes32",
									"name": "serverSeed",
									"type": "bytes32"
								},
								{
									"internalType": "bytes32",
									"name": "serverSeedHash",
									"type": "bytes32"
								},
								{
									"internalType": "uint256",
									"name": "startsIn",
									"type": "uint256"
								},
								{
									"internalType": "uint256",
									"name": "betAmount",
									"type": "uint256"
								},
								{
									"internalType": "uint256",
									"name": "wonAmount",
									"type": "uint256"
								}
							],
							"internalType": "struct GGWorldBingoGame.GameRound",
							"name": "main",
							"type": "tuple"
						},
						{
							"components": [
								{
									"internalType": "uint8[15][4]",
									"name": "cards",
									"type": "uint8[15][4]"
								},
								{
									"internalType": "uint8",
									"name": "cardsCount",
									"type": "uint8"
								},
								{
									"internalType": "bool[]",
									"name": "usedCardsMap",
									"type": "bool[]"
								},
								{
									"internalType": "uint8[30]",
									"name": "resultBalls",
									"type": "uint8[30]"
								},
								{
									"internalType": "uint256[4]",
									"name": "resultMultiplier",
									"type": "uint256[4]"
								},
								{
									"internalType": "uint256[4]",
									"name": "wonAmount",
									"type": "uint256[4]"
								}
							],
							"internalType": "struct GGWorldBingoGame.GameRoundCard",
							"name": "cards",
							"type": "tuple"
						},
						{
							"components": [
								{
									"internalType": "bytes32",
									"name": "serverSeed",
									"type": "bytes32"
								},
								{
									"internalType": "bytes32",
									"name": "serverSeedHash",
									"type": "bytes32"
								},
								{
									"internalType": "bytes32",
									"name": "playerSeed",
									"type": "bytes32"
								},
								{
									"internalType": "bool",
									"name": "hasExtraBalls",
									"type": "bool"
								},
								{
									"internalType": "uint8[10]",
									"name": "balls",
									"type": "uint8[10]"
								}
							],
							"internalType": "struct GGWorldBingoGame.GameRoundExtra",
							"name": "extra",
							"type": "tuple"
						}
					],
					"internalType": "struct GGWorldBingoGame.GameInfo",
					"name": "",
					"type": "tuple"
				}
			],
			"stateMutability": "view",
			"type": "function"
		},
		{
			"inputs": [
				{
					"internalType": "uint256",
					"name": "gameId",
					"type": "uint256"
				}
			],
			"name": "getGameWonAmount",
			"outputs": [
				{
					"internalType": "uint256[]",
					"name": "cardMultipliers",
					"type": "uint256[]"
				},
				{
					"internalType": "uint256[]",
					"name": "cardWonAmount",
					"type": "uint256[]"
				},
				{
					"internalType": "bool[]",
					"name": "usedCardsMap",
					"type": "bool[]"
				},
				{
					"internalType": "uint256",
					"name": "wonAmount",
					"type": "uint256"
				},
				{
					"internalType": "uint256",
					"name": "lostAmount",
					"type": "uint256"
				}
			],
			"stateMutability": "view",
			"type": "function"
		},
		{
			"inputs": [
				{
					"internalType": "uint256",
					"name": "offset",
					"type": "uint256"
				},
				{
					"internalType": "uint256",
					"name": "limit",
					"type": "uint256"
				}
			],
			"name": "getGames",
			"outputs": [
				{
					"components": [
						{
							"components": [
								{
									"internalType": "enum GGWorldBingoGame.GAME_STATUS",
									"name": "status",
									"type": "uint8"
								},
								{
									"internalType": "uint256",
									"name": "gameId",
									"type": "uint256"
								},
								{
									"internalType": "uint256",
									"name": "playerId",
									"type": "uint256"
								},
								{
									"internalType": "bytes32",
									"name": "playerSeed",
									"type": "bytes32"
								},
								{
									"internalType": "bytes32",
									"name": "serverSeed",
									"type": "bytes32"
								},
								{
									"internalType": "bytes32",
									"name": "serverSeedHash",
									"type": "bytes32"
								},
								{
									"internalType": "uint256",
									"name": "startsIn",
									"type": "uint256"
								},
								{
									"internalType": "uint256",
									"name": "betAmount",
									"type": "uint256"
								},
								{
									"internalType": "uint256",
									"name": "wonAmount",
									"type": "uint256"
								}
							],
							"internalType": "struct GGWorldBingoGame.GameRound",
							"name": "main",
							"type": "tuple"
						},
						{
							"components": [
								{
									"internalType": "uint8[15][4]",
									"name": "cards",
									"type": "uint8[15][4]"
								},
								{
									"internalType": "uint8",
									"name": "cardsCount",
									"type": "uint8"
								},
								{
									"internalType": "bool[]",
									"name": "usedCardsMap",
									"type": "bool[]"
								},
								{
									"internalType": "uint8[30]",
									"name": "resultBalls",
									"type": "uint8[30]"
								},
								{
									"internalType": "uint256[4]",
									"name": "resultMultiplier",
									"type": "uint256[4]"
								},
								{
									"internalType": "uint256[4]",
									"name": "wonAmount",
									"type": "uint256[4]"
								}
							],
							"internalType": "struct GGWorldBingoGame.GameRoundCard",
							"name": "cards",
							"type": "tuple"
						},
						{
							"components": [
								{
									"internalType": "bytes32",
									"name": "serverSeed",
									"type": "bytes32"
								},
								{
									"internalType": "bytes32",
									"name": "serverSeedHash",
									"type": "bytes32"
								},
								{
									"internalType": "bytes32",
									"name": "playerSeed",
									"type": "bytes32"
								},
								{
									"internalType": "bool",
									"name": "hasExtraBalls",
									"type": "bool"
								},
								{
									"internalType": "uint8[10]",
									"name": "balls",
									"type": "uint8[10]"
								}
							],
							"internalType": "struct GGWorldBingoGame.GameRoundExtra",
							"name": "extra",
							"type": "tuple"
						}
					],
					"internalType": "struct GGWorldBingoGame.GameInfo[]",
					"name": "",
					"type": "tuple[]"
				}
			],
			"stateMutability": "view",
			"type": "function"
		},
		{
			"inputs": [
				{
					"internalType": "address",
					"name": "playerAddress",
					"type": "address"
				}
			],
			"name": "getLastGameInfo",
			"outputs": [
				{
					"components": [
						{
							"components": [
								{
									"internalType": "enum GGWorldBingoGame.GAME_STATUS",
									"name": "status",
									"type": "uint8"
								},
								{
									"internalType": "uint256",
									"name": "gameId",
									"type": "uint256"
								},
								{
									"internalType": "uint256",
									"name": "playerId",
									"type": "uint256"
								},
								{
									"internalType": "bytes32",
									"name": "playerSeed",
									"type": "bytes32"
								},
								{
									"internalType": "bytes32",
									"name": "serverSeed",
									"type": "bytes32"
								},
								{
									"internalType": "bytes32",
									"name": "serverSeedHash",
									"type": "bytes32"
								},
								{
									"internalType": "uint256",
									"name": "startsIn",
									"type": "uint256"
								},
								{
									"internalType": "uint256",
									"name": "betAmount",
									"type": "uint256"
								},
								{
									"internalType": "uint256",
									"name": "wonAmount",
									"type": "uint256"
								}
							],
							"internalType": "struct GGWorldBingoGame.GameRound",
							"name": "main",
							"type": "tuple"
						},
						{
							"components": [
								{
									"internalType": "uint8[15][4]",
									"name": "cards",
									"type": "uint8[15][4]"
								},
								{
									"internalType": "uint8",
									"name": "cardsCount",
									"type": "uint8"
								},
								{
									"internalType": "bool[]",
									"name": "usedCardsMap",
									"type": "bool[]"
								},
								{
									"internalType": "uint8[30]",
									"name": "resultBalls",
									"type": "uint8[30]"
								},
								{
									"internalType": "uint256[4]",
									"name": "resultMultiplier",
									"type": "uint256[4]"
								},
								{
									"internalType": "uint256[4]",
									"name": "wonAmount",
									"type": "uint256[4]"
								}
							],
							"internalType": "struct GGWorldBingoGame.GameRoundCard",
							"name": "cards",
							"type": "tuple"
						},
						{
							"components": [
								{
									"internalType": "bytes32",
									"name": "serverSeed",
									"type": "bytes32"
								},
								{
									"internalType": "bytes32",
									"name": "serverSeedHash",
									"type": "bytes32"
								},
								{
									"internalType": "bytes32",
									"name": "playerSeed",
									"type": "bytes32"
								},
								{
									"internalType": "bool",
									"name": "hasExtraBalls",
									"type": "bool"
								},
								{
									"internalType": "uint8[10]",
									"name": "balls",
									"type": "uint8[10]"
								}
							],
							"internalType": "struct GGWorldBingoGame.GameRoundExtra",
							"name": "extra",
							"type": "tuple"
						}
					],
					"internalType": "struct GGWorldBingoGame.GameInfo",
					"name": "",
					"type": "tuple"
				}
			],
			"stateMutability": "view",
			"type": "function"
		},
		{
			"inputs": [
				{
					"internalType": "address",
					"name": "playerAddress",
					"type": "address"
				}
			],
			"name": "getPlayerByAddress",
			"outputs": [
				{
					"components": [
						{
							"internalType": "uint256",
							"name": "playerId",
							"type": "uint256"
						},
						{
							"internalType": "address",
							"name": "playerAddress",
							"type": "address"
						},
						{
							"internalType": "uint256",
							"name": "gamesCount",
							"type": "uint256"
						},
						{
							"internalType": "uint256",
							"name": "betsAmount",
							"type": "uint256"
						},
						{
							"internalType": "uint256",
							"name": "lostAmount",
							"type": "uint256"
						},
						{
							"internalType": "uint256",
							"name": "winAmount",
							"type": "uint256"
						},
						{
							"internalType": "uint256",
							"name": "lostCount",
							"type": "uint256"
						},
						{
							"internalType": "uint256",
							"name": "winCount",
							"type": "uint256"
						},
						{
							"internalType": "uint256",
							"name": "lastGameId",
							"type": "uint256"
						}
					],
					"internalType": "struct GGWorldBingoGame.Player",
					"name": "playerInfo",
					"type": "tuple"
				},
				{
					"components": [
						{
							"components": [
								{
									"internalType": "enum GGWorldBingoGame.GAME_STATUS",
									"name": "status",
									"type": "uint8"
								},
								{
									"internalType": "uint256",
									"name": "gameId",
									"type": "uint256"
								},
								{
									"internalType": "uint256",
									"name": "playerId",
									"type": "uint256"
								},
								{
									"internalType": "bytes32",
									"name": "playerSeed",
									"type": "bytes32"
								},
								{
									"internalType": "bytes32",
									"name": "serverSeed",
									"type": "bytes32"
								},
								{
									"internalType": "bytes32",
									"name": "serverSeedHash",
									"type": "bytes32"
								},
								{
									"internalType": "uint256",
									"name": "startsIn",
									"type": "uint256"
								},
								{
									"internalType": "uint256",
									"name": "betAmount",
									"type": "uint256"
								},
								{
									"internalType": "uint256",
									"name": "wonAmount",
									"type": "uint256"
								}
							],
							"internalType": "struct GGWorldBingoGame.GameRound",
							"name": "main",
							"type": "tuple"
						},
						{
							"components": [
								{
									"internalType": "uint8[15][4]",
									"name": "cards",
									"type": "uint8[15][4]"
								},
								{
									"internalType": "uint8",
									"name": "cardsCount",
									"type": "uint8"
								},
								{
									"internalType": "bool[]",
									"name": "usedCardsMap",
									"type": "bool[]"
								},
								{
									"internalType": "uint8[30]",
									"name": "resultBalls",
									"type": "uint8[30]"
								},
								{
									"internalType": "uint256[4]",
									"name": "resultMultiplier",
									"type": "uint256[4]"
								},
								{
									"internalType": "uint256[4]",
									"name": "wonAmount",
									"type": "uint256[4]"
								}
							],
							"internalType": "struct GGWorldBingoGame.GameRoundCard",
							"name": "cards",
							"type": "tuple"
						},
						{
							"components": [
								{
									"internalType": "bytes32",
									"name": "serverSeed",
									"type": "bytes32"
								},
								{
									"internalType": "bytes32",
									"name": "serverSeedHash",
									"type": "bytes32"
								},
								{
									"internalType": "bytes32",
									"name": "playerSeed",
									"type": "bytes32"
								},
								{
									"internalType": "bool",
									"name": "hasExtraBalls",
									"type": "bool"
								},
								{
									"internalType": "uint8[10]",
									"name": "balls",
									"type": "uint8[10]"
								}
							],
							"internalType": "struct GGWorldBingoGame.GameRoundExtra",
							"name": "extra",
							"type": "tuple"
						}
					],
					"internalType": "struct GGWorldBingoGame.GameInfo",
					"name": "lastGameInfo",
					"type": "tuple"
				}
			],
			"stateMutability": "view",
			"type": "function"
		},
		{
			"inputs": [
				{
					"internalType": "address",
					"name": "playerAddress",
					"type": "address"
				},
				{
					"internalType": "uint256",
					"name": "offset",
					"type": "uint256"
				},
				{
					"internalType": "uint256",
					"name": "limit",
					"type": "uint256"
				}
			],
			"name": "getPlayerGames",
			"outputs": [
				{
					"components": [
						{
							"components": [
								{
									"internalType": "enum GGWorldBingoGame.GAME_STATUS",
									"name": "status",
									"type": "uint8"
								},
								{
									"internalType": "uint256",
									"name": "gameId",
									"type": "uint256"
								},
								{
									"internalType": "uint256",
									"name": "playerId",
									"type": "uint256"
								},
								{
									"internalType": "bytes32",
									"name": "playerSeed",
									"type": "bytes32"
								},
								{
									"internalType": "bytes32",
									"name": "serverSeed",
									"type": "bytes32"
								},
								{
									"internalType": "bytes32",
									"name": "serverSeedHash",
									"type": "bytes32"
								},
								{
									"internalType": "uint256",
									"name": "startsIn",
									"type": "uint256"
								},
								{
									"internalType": "uint256",
									"name": "betAmount",
									"type": "uint256"
								},
								{
									"internalType": "uint256",
									"name": "wonAmount",
									"type": "uint256"
								}
							],
							"internalType": "struct GGWorldBingoGame.GameRound",
							"name": "main",
							"type": "tuple"
						},
						{
							"components": [
								{
									"internalType": "uint8[15][4]",
									"name": "cards",
									"type": "uint8[15][4]"
								},
								{
									"internalType": "uint8",
									"name": "cardsCount",
									"type": "uint8"
								},
								{
									"internalType": "bool[]",
									"name": "usedCardsMap",
									"type": "bool[]"
								},
								{
									"internalType": "uint8[30]",
									"name": "resultBalls",
									"type": "uint8[30]"
								},
								{
									"internalType": "uint256[4]",
									"name": "resultMultiplier",
									"type": "uint256[4]"
								},
								{
									"internalType": "uint256[4]",
									"name": "wonAmount",
									"type": "uint256[4]"
								}
							],
							"internalType": "struct GGWorldBingoGame.GameRoundCard",
							"name": "cards",
							"type": "tuple"
						},
						{
							"components": [
								{
									"internalType": "bytes32",
									"name": "serverSeed",
									"type": "bytes32"
								},
								{
									"internalType": "bytes32",
									"name": "serverSeedHash",
									"type": "bytes32"
								},
								{
									"internalType": "bytes32",
									"name": "playerSeed",
									"type": "bytes32"
								},
								{
									"internalType": "bool",
									"name": "hasExtraBalls",
									"type": "bool"
								},
								{
									"internalType": "uint8[10]",
									"name": "balls",
									"type": "uint8[10]"
								}
							],
							"internalType": "struct GGWorldBingoGame.GameRoundExtra",
							"name": "extra",
							"type": "tuple"
						}
					],
					"internalType": "struct GGWorldBingoGame.GameInfo[]",
					"name": "",
					"type": "tuple[]"
				}
			],
			"stateMutability": "view",
			"type": "function"
		},
		{
			"inputs": [
				{
					"internalType": "address",
					"name": "playerAddress",
					"type": "address"
				}
			],
			"name": "getStatus",
			"outputs": [
				{
					"components": [
						{
							"internalType": "uint256",
							"name": "depositAmount",
							"type": "uint256"
						},
						{
							"internalType": "uint256",
							"name": "bankAmount",
							"type": "uint256"
						}
					],
					"internalType": "struct GGWorldBingoGame.PlayerStatus",
					"name": "status",
					"type": "tuple"
				}
			],
			"stateMutability": "view",
			"type": "function"
		},
		{
			"inputs": [
				{
					"internalType": "address",
					"name": "playerAddress",
					"type": "address"
				}
			],
			"name": "getTokenInfo",
			"outputs": [
				{
					"components": [
						{
							"internalType": "address",
							"name": "tokenAddress",
							"type": "address"
						},
						{
							"internalType": "uint8",
							"name": "decimals",
							"type": "uint8"
						},
						{
							"internalType": "string",
							"name": "name",
							"type": "string"
						},
						{
							"internalType": "string",
							"name": "symbol",
							"type": "string"
						},
						{
							"internalType": "uint256",
							"name": "balance",
							"type": "uint256"
						},
						{
							"internalType": "uint256",
							"name": "allowance",
							"type": "uint256"
						},
						{
							"internalType": "uint256",
							"name": "deposit",
							"type": "uint256"
						},
						{
							"internalType": "uint256",
							"name": "bankAmount",
							"type": "uint256"
						}
					],
					"internalType": "struct GGWorldBingoGame.GameTokenInfo",
					"name": "",
					"type": "tuple"
				}
			],
			"stateMutability": "view",
			"type": "function"
		},
		{
			"inputs": [],
			"name": "getTopWins",
			"outputs": [
				{
					"components": [
						{
							"internalType": "uint256",
							"name": "gameId",
							"type": "uint256"
						},
						{
							"internalType": "uint256",
							"name": "amount",
							"type": "uint256"
						},
						{
							"internalType": "uint256",
							"name": "timestamp",
							"type": "uint256"
						}
					],
					"internalType": "struct GGWorldBingoGame.GameWin[]",
					"name": "",
					"type": "tuple[]"
				}
			],
			"stateMutability": "view",
			"type": "function"
		},
		{
			"inputs": [
				{
					"internalType": "uint256",
					"name": "gameId",
					"type": "uint256"
				}
			],
			"name": "hasGameExtraBalls",
			"outputs": [
				{
					"internalType": "bool",
					"name": "",
					"type": "bool"
				}
			],
			"stateMutability": "view",
			"type": "function"
		},
		{
			"inputs": [],
			"name": "maxBet",
			"outputs": [
				{
					"internalType": "uint256",
					"name": "",
					"type": "uint256"
				}
			],
			"stateMutability": "view",
			"type": "function"
		},
		{
			"inputs": [],
			"name": "minBet",
			"outputs": [
				{
					"internalType": "uint256",
					"name": "",
					"type": "uint256"
				}
			],
			"stateMutability": "view",
			"type": "function"
		},
		{
			"inputs": [],
			"name": "oracle",
			"outputs": [
				{
					"internalType": "address",
					"name": "",
					"type": "address"
				}
			],
			"stateMutability": "view",
			"type": "function"
		},
		{
			"inputs": [],
			"name": "owner",
			"outputs": [
				{
					"internalType": "address",
					"name": "",
					"type": "address"
				}
			],
			"stateMutability": "view",
			"type": "function"
		},
		{
			"inputs": [
				{
					"components": [
						{
							"internalType": "address",
							"name": "playerAddress",
							"type": "address"
						},
						{
							"internalType": "uint8[][]",
							"name": "cardBalls",
							"type": "uint8[][]"
						},
						{
							"internalType": "bool[]",
							"name": "usedCardsMap",
							"type": "bool[]"
						},
						{
							"internalType": "bytes32",
							"name": "playerSeed",
							"type": "bytes32"
						},
						{
							"internalType": "bytes32",
							"name": "serverSeed",
							"type": "bytes32"
						},
						{
							"internalType": "bytes32",
							"name": "serverSeedHash",
							"type": "bytes32"
						},
						{
							"internalType": "uint8[]",
							"name": "winBalls",
							"type": "uint8[]"
						},
						{
							"internalType": "uint256",
							"name": "betAmount",
							"type": "uint256"
						}
					],
					"internalType": "struct GGWorldBingoGame.PlayGameInfo[]",
					"name": "batch",
					"type": "tuple[]"
				}
			],
			"name": "playBatch",
			"outputs": [],
			"stateMutability": "nonpayable",
			"type": "function"
		},
		{
			"inputs": [
				{
					"internalType": "address",
					"name": "_playerAddress",
					"type": "address"
				},
				{
					"internalType": "uint256",
					"name": "gameId",
					"type": "uint256"
				},
				{
					"internalType": "bytes32",
					"name": "playerExtraSeed",
					"type": "bytes32"
				},
				{
					"internalType": "bytes32",
					"name": "serverExtraSeed",
					"type": "bytes32"
				},
				{
					"internalType": "bytes32",
					"name": "serverExtraSeedHash",
					"type": "bytes32"
				},
				{
					"internalType": "uint8[10]",
					"name": "extraBalls",
					"type": "uint8[10]"
				}
			],
			"name": "playSingleExtraGame",
			"outputs": [],
			"stateMutability": "nonpayable",
			"type": "function"
		},
		{
			"inputs": [
				{
					"internalType": "address",
					"name": "playerAddress",
					"type": "address"
				},
				{
					"internalType": "uint8[][]",
					"name": "cardBalls",
					"type": "uint8[][]"
				},
				{
					"internalType": "bool[]",
					"name": "usedCardsMap",
					"type": "bool[]"
				},
				{
					"internalType": "bytes32",
					"name": "playerSeed",
					"type": "bytes32"
				},
				{
					"internalType": "bytes32",
					"name": "serverSeed",
					"type": "bytes32"
				},
				{
					"internalType": "bytes32",
					"name": "serverSeedHash",
					"type": "bytes32"
				},
				{
					"internalType": "uint8[]",
					"name": "winBalls",
					"type": "uint8[]"
				},
				{
					"internalType": "uint256",
					"name": "betAmount",
					"type": "uint256"
				}
			],
			"name": "playSingleGame",
			"outputs": [],
			"stateMutability": "nonpayable",
			"type": "function"
		},
		{
			"inputs": [
				{
					"internalType": "uint256",
					"name": "",
					"type": "uint256"
				},
				{
					"internalType": "uint256",
					"name": "",
					"type": "uint256"
				}
			],
			"name": "playerGames",
			"outputs": [
				{
					"internalType": "uint256",
					"name": "",
					"type": "uint256"
				}
			],
			"stateMutability": "view",
			"type": "function"
		},
		{
			"inputs": [
				{
					"internalType": "uint256",
					"name": "",
					"type": "uint256"
				}
			],
			"name": "players",
			"outputs": [
				{
					"internalType": "uint256",
					"name": "playerId",
					"type": "uint256"
				},
				{
					"internalType": "address",
					"name": "playerAddress",
					"type": "address"
				},
				{
					"internalType": "uint256",
					"name": "gamesCount",
					"type": "uint256"
				},
				{
					"internalType": "uint256",
					"name": "betsAmount",
					"type": "uint256"
				},
				{
					"internalType": "uint256",
					"name": "lostAmount",
					"type": "uint256"
				},
				{
					"internalType": "uint256",
					"name": "winAmount",
					"type": "uint256"
				},
				{
					"internalType": "uint256",
					"name": "lostCount",
					"type": "uint256"
				},
				{
					"internalType": "uint256",
					"name": "winCount",
					"type": "uint256"
				},
				{
					"internalType": "uint256",
					"name": "lastGameId",
					"type": "uint256"
				}
			],
			"stateMutability": "view",
			"type": "function"
		},
		{
			"inputs": [],
			"name": "playersCount",
			"outputs": [
				{
					"internalType": "uint256",
					"name": "",
					"type": "uint256"
				}
			],
			"stateMutability": "view",
			"type": "function"
		},
		{
			"inputs": [
				{
					"internalType": "address",
					"name": "",
					"type": "address"
				}
			],
			"name": "playersIds",
			"outputs": [
				{
					"internalType": "uint256",
					"name": "",
					"type": "uint256"
				}
			],
			"stateMutability": "view",
			"type": "function"
		},
		{
			"inputs": [
				{
					"internalType": "address",
					"name": "tokenAddress",
					"type": "address"
				},
				{
					"internalType": "uint256",
					"name": "amount",
					"type": "uint256"
				}
			],
			"name": "recoverWrongToken",
			"outputs": [],
			"stateMutability": "nonpayable",
			"type": "function"
		},
		{
			"inputs": [
				{
					"internalType": "uint256",
					"name": "_maxBet",
					"type": "uint256"
				}
			],
			"name": "setMaxBet",
			"outputs": [],
			"stateMutability": "nonpayable",
			"type": "function"
		},
		{
			"inputs": [
				{
					"internalType": "uint256",
					"name": "_minBet",
					"type": "uint256"
				}
			],
			"name": "setMinBet",
			"outputs": [],
			"stateMutability": "nonpayable",
			"type": "function"
		},
		{
			"inputs": [],
			"name": "token",
			"outputs": [
				{
					"internalType": "contract IERC20",
					"name": "",
					"type": "address"
				}
			],
			"stateMutability": "view",
			"type": "function"
		},
		{
			"inputs": [
				{
					"internalType": "uint256",
					"name": "",
					"type": "uint256"
				}
			],
			"name": "topWonGames",
			"outputs": [
				{
					"internalType": "uint256",
					"name": "gameId",
					"type": "uint256"
				},
				{
					"internalType": "uint256",
					"name": "amount",
					"type": "uint256"
				},
				{
					"internalType": "uint256",
					"name": "timestamp",
					"type": "uint256"
				}
			],
			"stateMutability": "view",
			"type": "function"
		},
		{
			"inputs": [],
			"name": "totalBetsAmount",
			"outputs": [
				{
					"internalType": "uint256",
					"name": "",
					"type": "uint256"
				}
			],
			"stateMutability": "view",
			"type": "function"
		},
		{
			"inputs": [],
			"name": "totalLostAmount",
			"outputs": [
				{
					"internalType": "uint256",
					"name": "",
					"type": "uint256"
				}
			],
			"stateMutability": "view",
			"type": "function"
		},
		{
			"inputs": [],
			"name": "totalLostGamesCount",
			"outputs": [
				{
					"internalType": "uint256",
					"name": "",
					"type": "uint256"
				}
			],
			"stateMutability": "view",
			"type": "function"
		},
		{
			"inputs": [],
			"name": "totalWinAmount",
			"outputs": [
				{
					"internalType": "uint256",
					"name": "",
					"type": "uint256"
				}
			],
			"stateMutability": "view",
			"type": "function"
		},
		{
			"inputs": [],
			"name": "totalWinGamesCount",
			"outputs": [
				{
					"internalType": "uint256",
					"name": "",
					"type": "uint256"
				}
			],
			"stateMutability": "view",
			"type": "function"
		},
		{
			"inputs": [
				{
					"internalType": "address",
					"name": "newOwner",
					"type": "address"
				}
			],
			"name": "transferOwnership",
			"outputs": [],
			"stateMutability": "nonpayable",
			"type": "function"
		},
		{
			"inputs": [
				{
					"internalType": "uint256",
					"name": "",
					"type": "uint256"
				}
			],
			"name": "winPatterns",
			"outputs": [
				{
					"internalType": "uint256",
					"name": "multiplier",
					"type": "uint256"
				}
			],
			"stateMutability": "view",
			"type": "function"
		},
		{
			"inputs": [],
			"name": "winPatternsCount",
			"outputs": [
				{
					"internalType": "uint256",
					"name": "",
					"type": "uint256"
				}
			],
			"stateMutability": "view",
			"type": "function"
		}
	]
}