{
	"data": {
		"bytecode": {
			"linkReferences": {},
			"object": "60806040526103e8600555670de0b6b3a764000060065568056bc75e2d631000006007555f6008555f6009555f600a555f600b555f600c555f600d555f6011553480156200004b575f80fd5b50604051620043bf380380620043bf8339810160408190526200006e9162000302565b60015f81815560048054336001600160a01b031991821617909155825481166001600160a01b0387811691909117845560028054831687831617905560038054909216908516179055620000d99190620000d390609681808080808080808062000215565b62000269565b620000f66002620000d35f806102bc818080808080808062000215565b620001146003620000d35f8060c86103848280808080808062000215565b620001336004620000d35f80606460c8610bb883808080808062000215565b620001536005620000d35f808060c86103846130d4838080808062000215565b620001756006620000d35f8080606461012c610a8c6161a88480808062000215565b620001996007620000d35f8080606460c8610190610ce4620124f885808062000215565b620001be6008620000d360645f808083610190610898613a986207a120858062000215565b620001e46009620000d360645f80808360c86101f461138861927c622625a08662000215565b6200020c600a620000d361012c60645f808083856106406130d4620249f06298968062000215565b5050506200035d565b6200021f620002c7565b9a8b5260208b019990995260408a01979097526060890195909552608088019390935260a087019190915260c086015260e085015261010084015261012083015261014082015290565b5f5b600b8160ff161015620002c257818160ff16600b811062000290576200029062000349565b6020908102919091015160ff8086165f908152601484526040808220928616825291909352909120556001016200026b565b505050565b604051806101600160405280600b906020820280368337509192915050565b80516001600160a01b0381168114620002fd575f80fd5b919050565b5f805f6060848603121562000315575f80fd5b6200032084620002e6565b92506200033060208501620002e6565b91506200034060408501620002e6565b90509250925092565b634e487b7160e01b5f52603260045260245ffd5b614054806200036b5f395ff3fe608060405234801561000f575f80fd5b50600436106102d7575f3560e01c8063881eff1e11610187578063bb2ea49a116100dd578063f538fca411610093578063f9b2a8bc1161006e578063f9b2a8bc146107d5578063fb632b7c14610803578063fc0c546a1461080c575f80fd5b8063f538fca4146106f1578063f71d96cb14610704578063f7ead092146107cc575f80fd5b8063e3dd6664116100c3578063e3dd6664146106ab578063efbd7bd2146106d5578063f2fde38b146106de575f80fd5b8063bb2ea49a14610685578063bf7c8b2114610698575f80fd5b80639d9976cf1161013d578063aaf5eb6811610118578063aaf5eb681461064e578063ac4511851461065d578063b42a275e1461067d575f80fd5b80639d9976cf14610610578063a2f77bcc14610625578063a3f67d6d14610645575f80fd5b80638da5cb5b1161016d5780638da5cb5b146105de5780639188483b146105fe5780639619367d14610607575f80fd5b8063881eff1e146105b857806388ea41b9146105cb575f80fd5b8063322668a41161023c5780634219eca5116101f25780636c7ac9d8116101cd5780636c7ac9d8146105405780637adbf973146105855780637dc0d1d014610598575f80fd5b80634219eca5146104c45780634df2a219146104d75780635c62124a14610521575f80fd5b80633c28f9ce116102225780633c28f9ce1461047b5780633ceb735d1461048e57806341fac50f146104af575f80fd5b8063322668a41461045357806338e49cb81461045c575f80fd5b80631f69565f1161029157806322f513421161027757806322f513421461040b5780632643ef1d146104205780632e5b21681461044a575f80fd5b80631f69565f146103e257806322d4bcbd14610402575f80fd5b806318d485a6116102c157806318d485a6146103915780631908eeb5146103ab5780631b43e5af146103cb575f80fd5b80627be4e5146102db578063117a5b90146102f0575b5f80fd5b6102ee6102e9366004613455565b61082c565b005b6103486102fe3660046134fa565b6012602052805f5260405f205f91509050805f0154908060010154908060020154908060030154908060040154908060050154908060060154908060070154908060080154905089565b60408051998a5260208a0198909852968801959095526060870193909352608086019190915260a085015260c084015260e0830152610100820152610120015b60405180910390f35b610399601481565b60405160ff9091168152602001610388565b6103be6103b9366004613511565b610947565b604051610388919061357c565b6103d4600b5481565b604051908152602001610388565b6103f56103f03660046135ce565b610999565b6040516103889190613654565b6103d460055481565b610413610e43565b6040516103889190613717565b6103d461042e366004613787565b601460209081525f928352604080842090915290825290205481565b6103d460075481565b6103d460095481565b6103d461046a3660046135ce565b600f6020525f908152604090205481565b6102ee6104893660046137be565b610eff565b6104a161049c3660046135ce565b6110cc565b60405161038892919061387a565b6104b7611353565b60405161038891906138ec565b6102ee6104d2366004613967565b6113cc565b6105076104e53660046134fa565b60136020525f90815260409020600181015460039091015460ff918216911682565b6040805160ff938416815292909116602083015201610388565b6103d461052f366004613b02565b60156020525f908152604090205481565b6003546105609073ffffffffffffffffffffffffffffffffffffffff1681565b60405173ffffffffffffffffffffffffffffffffffffffff9091168152602001610388565b6102ee6105933660046135ce565b61158c565b6002546105609073ffffffffffffffffffffffffffffffffffffffff1681565b6102ee6105c63660046134fa565b611654565b6102ee6105d93660046134fa565b6116da565b6004546105609073ffffffffffffffffffffffffffffffffffffffff1681565b6103d4600c5481565b6103d460065481565b610618611760565b6040516103889190613b1d565b6106386106333660046134fa565b6117ea565b6040516103889190613bd3565b6103d4600d5481565b6103d4670de0b6b3a764000081565b61067061066b366004613be2565b611998565b6040516103889190613c02565b6103d4611c89565b6103d46106933660046135ce565b611d47565b6102ee6106a63660046135ce565b611da8565b6103d46106b9366004613be2565b601060209081525f928352604080842090915290825290205481565b6103d460085481565b6102ee6106ec3660046135ce565b611e70565b6106706106ff366004613c44565b611f38565b6107736107123660046134fa565b600e6020525f9081526040902080546001820154600283015460038401546004850154600586015460068701546007880154600890980154969773ffffffffffffffffffffffffffffffffffffffff90961696949593949293919290919089565b60408051998a5273ffffffffffffffffffffffffffffffffffffffff90981660208a0152968801959095526060870193909352608086019190915260a085015260c084015260e083015261010082015261012001610388565b6103d4600a5481565b6107e86107e33660046134fa565b612332565b60408051938452602084019290925290820152606001610388565b6103d460115481565b6001546105609073ffffffffffffffffffffffffffffffffffffffff1681565b60045473ffffffffffffffffffffffffffffffffffffffff1633146108b2576040517f08c379a000000000000000000000000000000000000000000000000000000000815260206004820152600a60248201527f4f6e6c79206f776e65720000000000000000000000000000000000000000000060448201526064015b60405180910390fd5b5f5b600a8160ff161015610943575f5b600b8160ff16101561093a57828260ff16600b81106108e3576108e3613c76565b60200201518160ff16600a81106108fc576108fc613c76565b602002015160145f61090f856001613cd0565b60ff908116825260208083019390935260409182015f908120918616815292529020556001016108c2565b506001016108b4565b5050565b61094f6131e7565b9a8b5260208b019990995260408a01979097526060890195909552608088019390935260a087019190915260c086015260e085015261010084015261012083015261014082015290565b6109f46040518061010001604052805f73ffffffffffffffffffffffffffffffffffffffff1681526020015f60ff16815260200160608152602001606081526020015f81526020015f81526020015f81526020015f81525090565b604080516101008101825260015473ffffffffffffffffffffffffffffffffffffffff1680825282517f313ce5670000000000000000000000000000000000000000000000000000000081529251919260208085019363313ce5679260048082019392918290030181865afa158015610a6f573d5f803e3d5ffd5b505050506040513d601f19601f82011682018060405250810190610a939190613ce9565b60ff16815260200160015f9054906101000a900473ffffffffffffffffffffffffffffffffffffffff1673ffffffffffffffffffffffffffffffffffffffff166306fdde036040518163ffffffff1660e01b81526004015f60405180830381865afa158015610b04573d5f803e3d5ffd5b505050506040513d5f823e601f3d9081017fffffffffffffffffffffffffffffffffffffffffffffffffffffffffffffffe0168201604052610b499190810190613d8b565b815260200160015f9054906101000a900473ffffffffffffffffffffffffffffffffffffffff1673ffffffffffffffffffffffffffffffffffffffff166395d89b416040518163ffffffff1660e01b81526004015f60405180830381865afa158015610bb7573d5f803e3d5ffd5b505050506040513d5f823e601f3d9081017fffffffffffffffffffffffffffffffffffffffffffffffffffffffffffffffe0168201604052610bfc9190810190613d8b565b815260200173ffffffffffffffffffffffffffffffffffffffff8416610c22575f610cb4565b6001546040517f70a0823100000000000000000000000000000000000000000000000000000000815273ffffffffffffffffffffffffffffffffffffffff8681166004830152909116906370a0823190602401602060405180830381865afa158015610c90573d5f803e3d5ffd5b505050506040513d601f19601f82011682018060405250810190610cb49190613dbd565b815260200173ffffffffffffffffffffffffffffffffffffffff8416610cda575f610d76565b6001546003546040517fdd62ed3e00000000000000000000000000000000000000000000000000000000815273ffffffffffffffffffffffffffffffffffffffff8781166004830152918216602482015291169063dd62ed3e90604401602060405180830381865afa158015610d52573d5f803e3d5ffd5b505050506040513d601f19601f82011682018060405250810190610d769190613dbd565b815260200173ffffffffffffffffffffffffffffffffffffffff8416610d9c575f610e2e565b6003546040517fc084b10b00000000000000000000000000000000000000000000000000000000815273ffffffffffffffffffffffffffffffffffffffff86811660048301529091169063c084b10b90602401602060405180830381865afa158015610e0a573d5f803e3d5ffd5b505050506040513d601f19601f82011682018060405250810190610e2e9190613dbd565b8152602001610e3b611c89565b905292915050565b610e4b613206565b60015b600a8160ff1611610efb5780828260ff16600b8110610e6f57610e6f613c76565b602002015160ff90911690525f5b600b8160ff161015610ee85760ff8083165f81815260146020908152604080832094861683529390529190912054908490600b8110610ebe57610ebe613c76565b6020020151602001518260ff16600b8110610edb57610edb613c76565b6020020152600101610e7d565b5080610ef381613dd4565b915050610e4e565b5090565b60045473ffffffffffffffffffffffffffffffffffffffff163314610f80576040517f08c379a000000000000000000000000000000000000000000000000000000000815260206004820152600a60248201527f4f6e6c79206f776e65720000000000000000000000000000000000000000000060448201526064016108a9565b60015473ffffffffffffffffffffffffffffffffffffffff9081169083160361102b576040517f08c379a000000000000000000000000000000000000000000000000000000000815260206004820152602b60248201527f43616e74207265636f7765722067616d6520746f6b656e2e204f6e6c7920626160448201527f6e6b20776974686472617700000000000000000000000000000000000000000060648201526084016108a9565b600480546040517fa9059cbb00000000000000000000000000000000000000000000000000000000815273ffffffffffffffffffffffffffffffffffffffff918216928101929092526024820183905283169063a9059cbb906044016020604051808303815f875af11580156110a3573d5f803e3d5ffd5b505050506040513d601f19601f820116820180604052508101906110c79190613df2565b505050565b60408051610120810182525f80825260208201819052918101829052606081018290526080810182905260a0810182905260c0810182905260e0810182905261010081019190915261111c613234565b73ffffffffffffffffffffffffffffffffffffffff83165f908152600f602052604090205415801590611182575073ffffffffffffffffffffffffffffffffffffffff83165f908152600f60209081526040808320548352600e90915290206008015415155b1561134e5773ffffffffffffffffffffffffffffffffffffffff83165f908152600f60209081526040808320548352600e825280832060089081015480855260128452828520835161012081018552815481526001820154818701526002820154818601526003820154606082015260048201546080820152600582015460a080830191909152600683015460c0830152600783015460e08301529190930154610100840152908552601390935281842082516103208101938490529196509093909284929083019184916014918390855b825461010083900a900460ff1681526020600192830181810494850194909303909202910180841161125457505050928452505050600182015460ff1660208201526040805161014081018083529190920191906002840190600a90825f855b825461010083900a900460ff168152602060019283018181049485019490930390920291018084116112b457505050928452505050600382015460ff1660208201526040805161014081018083529190920191906004840190600a90825f855b825461010083900a900460ff1681526020600192830181810494850194909303909202910180841161131457905050505050508152505090505b915091565b60606016805480602002602001604051908101604052809291908181526020015f905b828210156113c3578382905f5260205f2090600302016040518060600160405290815f82015481526020016001820154815260200160028201548152505081526020019060010190611376565b50505050905090565b6113d4612363565b60025473ffffffffffffffffffffffffffffffffffffffff163314611455576040517f08c379a000000000000000000000000000000000000000000000000000000000815260206004820152600b60248201527f4f6e6c79206f7261636c6500000000000000000000000000000000000000000060448201526064016108a9565b8051806114be576040517f08c379a000000000000000000000000000000000000000000000000000000000815260206004820152600b60248201527f456d70747920626174636800000000000000000000000000000000000000000060448201526064016108a9565b6014811115611529576040517f08c379a000000000000000000000000000000000000000000000000000000000815260206004820152601660248201527f4d61782032302067616d6573207065722062617463680000000000000000000060448201526064016108a9565b5f5b8181101561157e575f83828151811061154657611546613c76565b60200260200101519050611575815f015182602001518360400151846060015185608001518660a001516123d4565b5060010161152b565b505061158960015f55565b50565b60045473ffffffffffffffffffffffffffffffffffffffff16331461160d576040517f08c379a000000000000000000000000000000000000000000000000000000000815260206004820152600a60248201527f4f6e6c79206f776e65720000000000000000000000000000000000000000000060448201526064016108a9565b600280547fffffffffffffffffffffffff00000000000000000000000000000000000000001673ffffffffffffffffffffffffffffffffffffffff92909216919091179055565b60045473ffffffffffffffffffffffffffffffffffffffff1633146116d5576040517f08c379a000000000000000000000000000000000000000000000000000000000815260206004820152600a60248201527f4f6e6c79206f776e65720000000000000000000000000000000000000000000060448201526064016108a9565b600755565b60045473ffffffffffffffffffffffffffffffffffffffff16331461175b576040517f08c379a000000000000000000000000000000000000000000000000000000000815260206004820152600a60248201527f4f6e6c79206f776e65720000000000000000000000000000000000000000000060448201526064016108a9565b600655565b6040805160468082526108e082019092526060915f9190602082016108c08036833701905050905060015b60468160ff16116117e45760ff81165f90815260156020526040902054826117b4600184613e11565b60ff16815181106117c7576117c7613c76565b6020908102919091010152806117dc81613dd4565b91505061178b565b50919050565b6117f2613272565b604080515f848152601260209081528382206101608401855280548486019081526001820154606086015260028201546080860152600382015460a080870191909152600483015460c0870152600583015460e0870152600683015461010087015260078301546101208701526008909201546101408601528452868352601382528483208551610320810196879052949592860194939092849283019184916014918390855b825461010083900a900460ff1681526020600192830181810494850194909303909202910180841161189957505050928452505050600182015460ff1660208201526040805161014081018083529190920191906002840190600a90825f855b825461010083900a900460ff168152602060019283018181049485019490930390920291018084116118f957505050928452505050600382015460ff1660208201526040805161014081018083529190920191906004840190600a90825f855b825461010083900a900460ff16815260206001928301818104948501949093039092029101808411611959575050509290935250505091525092915050565b60606011548311156119dc57604080515f80825260208201909252906119d4565b6119c1613272565b8152602001906001900390816119b95790505b509050611c83565b821580156119e8575081155b156119f35760115491505b601154611a008385613e2a565b1115611a175782601154611a149190613e3d565b91505b5f8267ffffffffffffffff811115611a3157611a31613368565b604051908082528060200260200182016040528015611a6a57816020015b611a57613272565b815260200190600190039081611a4f5790505b5090505f5b83811015611c7f57604051806040016040528060125f8885601154611a949190613e3d565b611a9e9190613e3d565b81526020019081526020015f20604051806101200160405290815f820154815260200160018201548152602001600282015481526020016003820154815260200160048201548152602001600582015481526020016006820154815260200160078201548152602001600882015481525050815260200160135f8885601154611b279190613e3d565b611b319190613e3d565b8152602081019190915260409081015f20815161032081019092528160a081018260148282826020028201915f905b825461010083900a900460ff16815260206001928301818104948501949093039092029101808411611b6057505050928452505050600182015460ff1660208201526040805161014081018083529190920191906002840190600a90825f855b825461010083900a900460ff16815260206001928301818104948501949093039092029101808411611bc057505050928452505050600382015460ff1660208201526040805161014081018083529190920191906004840190600a90825f855b825461010083900a900460ff16815260206001928301818104948501949093039092029101808411611c20579050505050505081525050815250828281518110611c6c57611c6c613c76565b6020908102919091010152600101611a6f565b5090505b92915050565b6003546040517f8d1a4b280000000000000000000000000000000000000000000000000000000081523060048201525f91829173ffffffffffffffffffffffffffffffffffffffff90911690638d1a4b28906024015f60405180830381865afa158015611cf8573d5f803e3d5ffd5b505050506040513d5f823e601f3d9081017fffffffffffffffffffffffffffffffffffffffffffffffffffffffffffffffe0168201604052611d3d9190810190613e60565b6080015192915050565b73ffffffffffffffffffffffffffffffffffffffff8082165f818152600f6020908152604080832054808452600e90925282206001015491939092911614611d9157505f92915050565b5f908152600e602052604090206002015492915050565b60045473ffffffffffffffffffffffffffffffffffffffff163314611e29576040517f08c379a000000000000000000000000000000000000000000000000000000000815260206004820152600a60248201527f4f6e6c79206f776e65720000000000000000000000000000000000000000000060448201526064016108a9565b600380547fffffffffffffffffffffffff00000000000000000000000000000000000000001673ffffffffffffffffffffffffffffffffffffffff92909216919091179055565b60045473ffffffffffffffffffffffffffffffffffffffff163314611ef1576040517f08c379a000000000000000000000000000000000000000000000000000000000815260206004820152600a60248201527f4f6e6c79206f776e65720000000000000000000000000000000000000000000060448201526064016108a9565b600480547fffffffffffffffffffffffff00000000000000000000000000000000000000001673ffffffffffffffffffffffffffffffffffffffff92909216919091179055565b73ffffffffffffffffffffffffffffffffffffffff8084165f818152600f6020908152604080832054808452600e909252909120600101546060939192911614611fb557604080515f8082526020820190925290611fac565b611f99613272565b815260200190600190039081611f915790505b5091505061232b565b83158015611fc1575082155b15611fda575f818152600e602052604090206002015492505b5f818152600e602052604090206002015484111561202a57604080515f8082526020820190925290611fac565b61200f613272565b8152602001906001900390816120075790505091505061232b565b5f818152600e60205260409020600201546120458486613e2a565b111561206a575f818152600e6020526040902060020154612067908590613e3d565b92505b5f8367ffffffffffffffff81111561208457612084613368565b6040519080825280602002602001820160405280156120bd57816020015b6120aa613272565b8152602001906001900390816120a25790505b5090505f5b84811015612326576040805180820182525f85815260106020908152838220600e9091529281206002015491928392601292919082908c90612105908990613e3d565b61210f9190613e3d565b815260208082019290925260409081015f90812054845283830194909452918201832082516101208101845281548152600182015481840152600280830154828601526003830154606083015260048301546080830152600583015460a0830152600683015460c0830152600783015460e0830152600890920154610100820152855288845260108252828420600e83529284200154930192601392919082908c906121bc908990613e3d565b6121c69190613e3d565b815260208082019290925260409081015f908120548452918301939093529082019020815161032081019092528160a081018260148282826020028201915f905b825461010083900a900460ff1681526020600192830181810494850194909303909202910180841161220757505050928452505050600182015460ff1660208201526040805161014081018083529190920191906002840190600a90825f855b825461010083900a900460ff1681526020600192830181810494850194909303909202910180841161226757505050928452505050600382015460ff1660208201526040805161014081018083529190920191906004840190600a90825f855b825461010083900a900460ff168152602060019283018181049485019490930390920291018084116122c757905050505050508152505081525082828151811061231357612313613c76565b60209081029190910101526001016120c2565b509150505b9392505050565b60168181548110612341575f80fd5b5f91825260209091206003909102018054600182015460029092015490925083565b60025f54036123ce576040517f08c379a000000000000000000000000000000000000000000000000000000000815260206004820152601f60248201527f5265656e7472616e637947756172643a207265656e7472616e742063616c6c0060448201526064016108a9565b60025f55565b6123dd86612bbd565b60018551101580156123f15750600a855111155b15612bb5576123ff85612cdc565b612bb557600654811015801561241757506007548111155b15612bb5576003546040517fc084b10b00000000000000000000000000000000000000000000000000000000815273ffffffffffffffffffffffffffffffffffffffff88811660048301528392169063c084b10b90602401602060405180830381865afa15801561248a573d5f803e3d5ffd5b505050506040513d601f19601f820116820180604052508101906124ae9190613dbd565b10612bb55773ffffffffffffffffffffffffffffffffffffffff86165f908152600f60209081526040808320548352600e90915281206011805491926124f383613f49565b90915550506011546040805161012081018252828152835460208083019182528284018a8152606084018a8152608085018a81524260a0870190815260c087018b81525f60e089018181526101008a018281528c8352601289528b83209a518b5598516001808c0191909155965160028b0155945160038a0155925160048901559051600588015551600687015590516007860155925160088501558b51601390925293822090930180547fffffffffffffffffffffffffffffffffffffffffffffffffffffffffffffff001660ff90941693909317909255905b88518160ff16101561265257888160ff16815181106125ef576125ef613c76565b602002602001015160135f8581526020019081526020015f206002018260ff16600a811061261f5761261f613c76565b602091828204019190066101000a81548160ff021916908360ff160217905550808061264a90613dd4565b9150506125ce565b506040805160208082018990528183018a9052825180830384018152606090920190925280519101205f61268b82600160466014612d70565b5f8581526013602052604090209091506126a36132cf565b5f8681526013602052604081206001015460ff16905b8160ff168160ff161015612728575f888152601360205260409020600190849060020160ff8416600a81106126f0576126f0613c76565b602081049091015460ff601f9092166101000a9004166047811061271657612716613c76565b911515602090920201526001016126b9565b505f805b601460ff82161015612837575f868260ff168151811061274e5761274e613c76565b6020026020010151905080865f018360ff166014811061277057612770613c76565b6020808204909201805460ff948516601f9093166101000a92830292850219169190911790559082165f9081526015909152604081208054916127b283613f49565b919050555060468160ff16111580156127e15750848160ff16604781106127db576127db613c76565b60200201515b1561282e5780866004018460ff16600a81106127ff576127ff613c76565b602091828204019190066101000a81548160ff021916908360ff160217905550828061282a90613dd4565b9350505b5060010161272c565b506003840180547fffffffffffffffffffffffffffffffffffffffffffffffffffffffffffffff001660ff83811691821790925560018601549091165f90815260146020908152604080832093835292905220546007880181905560068801546064916128a391613f80565b6128ad9190613fc4565b60088801819055156129c657600789018054905f6128ca83613f49565b91905055508660080154896005015f8282546128e69190613e2a565b90915550506008870154600a80545f90612901908490613e2a565b9091555050600b8054905f61291583613f49565b909155505060035460018a015460088901546040517f9546717700000000000000000000000000000000000000000000000000000000815273ffffffffffffffffffffffffffffffffffffffff928316600482015260248101919091529116906395467177906044015f604051808303815f87803b158015612995575f80fd5b505af11580156129a7573d5f803e3d5ffd5b505050506129c1875f01548860080154896005015461304a565b612a28565b600689018054905f6129d783613f49565b91905055508660060154896004015f8282546129f39190613e2a565b90915550506006870154600980545f90612a0e908490613e2a565b9091555050600c8054905f612a2283613f49565b91905055505b60035460018a01546040517ff0a507da00000000000000000000000000000000000000000000000000000000815273ffffffffffffffffffffffffffffffffffffffff9182166004820152602481018d905291169063f0a507da906044015f604051808303815f87803b158015612a9d575f80fd5b505af1158015612aaf573d5f803e3d5ffd5b505050508987600801541115612b3f576003546040517f2edcbd60000000000000000000000000000000000000000000000000000000008152600481018c905273ffffffffffffffffffffffffffffffffffffffff90911690632edcbd60906024015f604051808303815f87803b158015612b28575f80fd5b505af1158015612b3a573d5f803e3d5ffd5b505050505b600289018054905f612b5083613f49565b919050555089896003015f828254612b689190613e2a565b909155505088545f90815260106020908152604080832060028d0154845290915281208990556008808b018a905580548c9290612ba6908490613e2a565b90915550505050505050505050505b505050505050565b73ffffffffffffffffffffffffffffffffffffffff81165f908152600f6020526040812054900361158957600d8054905f612bf783613f49565b9091555050600d54604080516101208101825282815273ffffffffffffffffffffffffffffffffffffffff93841660208083018281525f848601818152606086018281526080870183815260a0880184815260c0890185815260e08a018681526101008b018781528d8852600e8a528c88209b518c55975160018c0180547fffffffffffffffffffffffff00000000000000000000000000000000000000001691909f1617909d55935160028a01559151600389015551600488015551600587015551600686015596516007850155516008909301929092558452600f905290912055565b80515f90612ce86132ee565b5f5b82811015612d66575f858281518110612d0557612d05613c76565b60200260200101519050828160ff166101008110612d2557612d25613c76565b602002015115612d3b5750600195945050505050565b6001838260ff166101008110612d5357612d53613c76565b9115156020909202015250600101612cea565b505f949350505050565b606081612d7d8585613e3d565b612d88906001613e2a565b1015612e16576040517f08c379a000000000000000000000000000000000000000000000000000000000815260206004820152602260248201527f4e6f7420656e6f75676820756e69717565206e756d6265727320696e2072616e60448201527f676500000000000000000000000000000000000000000000000000000000000060648201526084016108a9565b5f612e218585613e3d565b612e2c906001613e2a565b90505f8167ffffffffffffffff811115612e4857612e48613368565b604051908082528060200260200182016040528015612e71578160200160208202803683370190505b5090505f5b82811015612eb457612e888188613e2a565b828281518110612e9a57612e9a613c76565b60ff90921660209283029190910190910152600101612e76565b505f612ec1600184613e3d565b90505b8015612fa7575f612ed6826001613e2a565b60408051602081018c9052908101849052606001604051602081830303815290604052805190602001205f1c612f0c9190613fd7565b90505f838381518110612f2157612f21613c76565b60200260200101519050838281518110612f3d57612f3d613c76565b6020026020010151848481518110612f5757612f57613c76565b602002602001019060ff16908160ff168152505080848381518110612f7e57612f7e613c76565b602002602001019060ff16908160ff168152505050508080612f9f90613fea565b915050612ec4565b505f8467ffffffffffffffff811115612fc257612fc2613368565b604051908082528060200260200182016040528015612feb578160200160208202803683370190505b5090505f5b8581101561303e5782818151811061300a5761300a613c76565b602002602001015182828151811061302457613024613c76565b60ff90921660209283029190910190910152600101612ff0565b50979650505050505050565b601654600a11156130f75760408051606081018252938452602084019283528301908152601680546001810182555f9190915292517fd833147d7dc355ba459fc788f669e58cfaf9dc25ddcd0702e87d69c7b512428960039094029384015590517fd833147d7dc355ba459fc788f669e58cfaf9dc25ddcd0702e87d69c7b512428a830155517fd833147d7dc355ba459fc788f669e58cfaf9dc25ddcd0702e87d69c7b512428b90910155565b5f60015b600a81101561315c576016828154811061311757613117613c76565b905f5260205f209060030201600101546016828154811061313a5761313a613c76565b905f5260205f209060030201600101541015613154578091505b6001016130fb565b506016818154811061317057613170613c76565b905f5260205f209060030201600101548311156131e157604051806060016040528085815260200184815260200183815250601682815481106131b5576131b5613c76565b905f5260205f2090600302015f820151815f015560208201518160010155604082015181600201559050505b50505050565b604051806101600160405280600b906020820280368337509192915050565b604051806101600160405280600b905b61321e61330e565b8152602001906001900390816132165790505090565b6040518060a0016040528061324761332a565b81525f602082015260400161325a613349565b81525f602082015260400161326d613349565b905290565b60408051610160810182525f918101828152606082018390526080820183905260a0820183905260c0820183905260e08201839052610100820183905261012082018390526101408201929092529081526020810161326d613234565b604051806108e001604052806047906020820280368337509192915050565b604051806120000160405280610100906020820280368337509192915050565b60405180604001604052805f60ff16815260200161326d6131e7565b6040518061028001604052806014906020820280368337509192915050565b604051806101400160405280600a906020820280368337509192915050565b7f4e487b71000000000000000000000000000000000000000000000000000000005f52604160045260245ffd5b60405160c0810167ffffffffffffffff811182821017156133b8576133b8613368565b60405290565b604051610140810167ffffffffffffffff811182821017156133b8576133b8613368565b604051610160810167ffffffffffffffff811182821017156133b8576133b8613368565b604051601f82017fffffffffffffffffffffffffffffffffffffffffffffffffffffffffffffffe016810167ffffffffffffffff8111828210171561344d5761344d613368565b604052919050565b5f610dc0808385031215613467575f80fd5b601f84601f850112613477575f80fd5b61347f6133e2565b918401918086841115613490575f80fd5b855b848110156134ef5787848201126134a7575f80fd5b6134af6133be565b8061014083018a8111156134c1575f80fd5b835b818110156134db5780358452602093840193016134c3565b505084525060209092019161014001613492565b509695505050505050565b5f6020828403121561350a575f80fd5b5035919050565b5f805f805f805f805f805f6101608c8e03121561352c575f80fd5b505089359b60208b01359b5060408b01359a60608101359a506080810135995060a0810135985060c0810135975060e0810135965061010081013595506101208101359450610140013592509050565b610160810181835f5b600b8110156135a4578151835260209283019290910190600101613585565b50505092915050565b73ffffffffffffffffffffffffffffffffffffffff81168114611589575f80fd5b5f602082840312156135de575f80fd5b813561232b816135ad565b5f5b838110156136035781810151838201526020016135eb565b50505f910152565b5f81518084526136228160208601602086016135e9565b601f017fffffffffffffffffffffffffffffffffffffffffffffffffffffffffffffffe0169290920160200192915050565b6020815273ffffffffffffffffffffffffffffffffffffffff82511660208201525f602083015161368a604084018260ff169052565b5060408301516101008060608501526136a761012085018361360b565b915060608501517fffffffffffffffffffffffffffffffffffffffffffffffffffffffffffffffe08584030160808601526136e2838261360b565b925050608085015160a085015260a085015160c085015260c085015160e085015260e085015181850152508091505092915050565b611080810181835f5b600b80821061372f57506135a4565b8251805160ff168552602090810151908086015f5b8481101561376057835182529282019290820190600101613744565b5050610180959095019493909301925050600101613720565b60ff81168114611589575f80fd5b5f8060408385031215613798575f80fd5b82356137a381613779565b915060208301356137b381613779565b809150509250929050565b5f80604083850312156137cf575f80fd5b82356137da816135ad565b946020939093013593505050565b805f5b600a8110156131e157815160ff168452602093840193909101906001016137eb565b8051825f5b601481101561383457825160ff16825260209283019290910190600101613812565b50505060ff60208201511661028083015260408101516138586102a08401826137e8565b50606081015160ff166103e083015260808101516110c76104008401826137e8565b61066081016138de8285805182526020810151602083015260408101516040830152606081015160608301526080810151608083015260a081015160a083015260c081015160c083015260e081015160e08301526101008082015181840152505050565b61232b61012083018461380d565b602080825282518282018190525f919060409081850190868401855b828110156139375781518051855286810151878601528501518585015260609093019290850190600101613908565b5091979650505050505050565b5f67ffffffffffffffff82111561395d5761395d613368565b5060051b60200190565b5f6020808385031215613978575f80fd5b823567ffffffffffffffff8082111561398f575f80fd5b818501915085601f8301126139a2575f80fd5b81356139b56139b082613944565b613406565b81815260059190911b830184019084810190888311156139d3575f80fd5b8585015b83811015613af5578035858111156139ed575f80fd5b860160c0818c037fffffffffffffffffffffffffffffffffffffffffffffffffffffffffffffffe0011215613a20575f80fd5b613a28613395565b88820135613a35816135ad565b8152604082013587811115613a48575f80fd5b8201603f81018d13613a58575f80fd5b89810135613a686139b082613944565b81815260059190911b8201604001908b8101908f831115613a87575f80fd5b6040840193505b82841015613ab0578335613aa181613779565b8252928c0192908c0190613a8e565b808d86015250505050606082013560408201526080820135606082015260a0820135608082015260c082013560a08201528085525050868301925086810190506139d7565b5098975050505050505050565b5f60208284031215613b12575f80fd5b813561232b81613779565b602080825282518282018190525f9190848201906040850190845b81811015613b5457835183529284019291840191600101613b38565b50909695505050505050565b613bc0828251805182526020810151602083015260408101516040830152606081015160608301526080810151608083015260a081015160a083015260c081015160c083015260e081015160e08301526101008082015181840152505050565b60208101516110c761012084018261380d565b6106608101611c838284613b60565b5f8060408385031215613bf3575f80fd5b50508035926020909101359150565b602080825282518282018190525f9190848201906040850190845b81811015613b5457613c30838551613b60565b928401926106609290920191600101613c1d565b5f805f60608486031215613c56575f80fd5b8335613c61816135ad565b95602085013595506040909401359392505050565b7f4e487b71000000000000000000000000000000000000000000000000000000005f52603260045260245ffd5b7f4e487b71000000000000000000000000000000000000000000000000000000005f52601160045260245ffd5b60ff8181168382160190811115611c8357611c83613ca3565b5f60208284031215613cf9575f80fd5b815161232b81613779565b5f82601f830112613d13575f80fd5b815167ffffffffffffffff811115613d2d57613d2d613368565b613d5e60207fffffffffffffffffffffffffffffffffffffffffffffffffffffffffffffffe0601f84011601613406565b818152846020838601011115613d72575f80fd5b613d838260208301602087016135e9565b949350505050565b5f60208284031215613d9b575f80fd5b815167ffffffffffffffff811115613db1575f80fd5b613d8384828501613d04565b5f60208284031215613dcd575f80fd5b5051919050565b5f60ff821660ff8103613de957613de9613ca3565b60010192915050565b5f60208284031215613e02575f80fd5b8151801515811461232b575f80fd5b60ff8281168282160390811115611c8357611c83613ca3565b80820180821115611c8357611c83613ca3565b81810381811115611c8357611c83613ca3565b8051613e5b816135ad565b919050565b5f60208284031215613e70575f80fd5b815167ffffffffffffffff80821115613e87575f80fd5b908301906101408286031215613e9b575f80fd5b613ea36133be565b82518152602083015182811115613eb8575f80fd5b613ec487828601613d04565b60208301525060408301516040820152613ee060608401613e50565b60608201526080830151608082015260a083015160a082015260c083015160c082015260e083015160e08201526101008084015181830152506101208084015183811115613f2c575f80fd5b613f3888828701613d04565b918301919091525095945050505050565b5f7fffffffffffffffffffffffffffffffffffffffffffffffffffffffffffffffff8203613f7957613f79613ca3565b5060010190565b8082028115828204841417611c8357611c83613ca3565b7f4e487b71000000000000000000000000000000000000000000000000000000005f52601260045260245ffd5b5f82613fd257613fd2613f97565b500490565b5f82613fe557613fe5613f97565b500690565b5f81613ff857613ff8613ca3565b507fffffffffffffffffffffffffffffffffffffffffffffffffffffffffffffffff019056fea264697066735822122095d37c638ac7c1874ba849ad9ab4d2eb3a51970bbf1fc59e56227ac84ea2eb2d64736f6c63430008180033",
			"opcodes": "PUSH1 0x80 PUSH1 0x40 MSTORE PUSH2 0x3E8 PUSH1 0x5 SSTORE PUSH8 0xDE0B6B3A7640000 PUSH1 0x6 SSTORE PUSH9 0x56BC75E2D63100000 PUSH1 0x7 SSTORE PUSH0 PUSH1 0x8 SSTORE PUSH0 PUSH1 0x9 SSTORE PUSH0 PUSH1 0xA SSTORE PUSH0 PUSH1 0xB SSTORE PUSH0 PUSH1 0xC SSTORE PUSH0 PUSH1 0xD SSTORE PUSH0 PUSH1 0x11 SSTORE CALLVALUE DUP1 ISZERO PUSH3 0x4B JUMPI PUSH0 DUP1 REVERT JUMPDEST POP PUSH1 0x40 MLOAD PUSH3 0x43BF CODESIZE SUB DUP1 PUSH3 0x43BF DUP4 CODECOPY DUP2 ADD PUSH1 0x40 DUP2 SWAP1 MSTORE PUSH3 0x6E SWAP2 PUSH3 0x302 JUMP JUMPDEST PUSH1 0x1 PUSH0 DUP2 DUP2 SSTORE PUSH1 0x4 DUP1 SLOAD CALLER PUSH1 0x1 PUSH1 0x1 PUSH1 0xA0 SHL SUB NOT SWAP2 DUP3 AND OR SWAP1 SWAP2 SSTORE DUP3 SLOAD DUP2 AND PUSH1 0x1 PUSH1 0x1 PUSH1 0xA0 SHL SUB DUP8 DUP2 AND SWAP2 SWAP1 SWAP2 OR DUP5 SSTORE PUSH1 0x2 DUP1 SLOAD DUP4 AND DUP8 DUP4 AND OR SWAP1 SSTORE PUSH1 0x3 DUP1 SLOAD SWAP1 SWAP3 AND SWAP1 DUP6 AND OR SWAP1 SSTORE PUSH3 0xD9 SWAP2 SWAP1 PUSH3 0xD3 SWAP1 PUSH1 0x96 DUP2 DUP1 DUP1 DUP1 DUP1 DUP1 DUP1 DUP1 DUP1 PUSH3 0x215 JUMP JUMPDEST PUSH3 0x269 JUMP JUMPDEST PUSH3 0xF6 PUSH1 0x2 PUSH3 0xD3 PUSH0 DUP1 PUSH2 0x2BC DUP2 DUP1 DUP1 DUP1 DUP1 DUP1 DUP1 DUP1 PUSH3 0x215 JUMP JUMPDEST PUSH3 0x114 PUSH1 0x3 PUSH3 0xD3 PUSH0 DUP1 PUSH1 0xC8 PUSH2 0x384 DUP3 DUP1 DUP1 DUP1 DUP1 DUP1 DUP1 PUSH3 0x215 JUMP JUMPDEST PUSH3 0x133 PUSH1 0x4 PUSH3 0xD3 PUSH0 DUP1 PUSH1 0x64 PUSH1 0xC8 PUSH2 0xBB8 DUP4 DUP1 DUP1 DUP1 DUP1 DUP1 PUSH3 0x215 JUMP JUMPDEST PUSH3 0x153 PUSH1 0x5 PUSH3 0xD3 PUSH0 DUP1 DUP1 PUSH1 0xC8 PUSH2 0x384 PUSH2 0x30D4 DUP4 DUP1 DUP1 DUP1 DUP1 PUSH3 0x215 JUMP JUMPDEST PUSH3 0x175 PUSH1 0x6 PUSH3 0xD3 PUSH0 DUP1 DUP1 PUSH1 0x64 PUSH2 0x12C PUSH2 0xA8C PUSH2 0x61A8 DUP5 DUP1 DUP1 DUP1 PUSH3 0x215 JUMP JUMPDEST PUSH3 0x199 PUSH1 0x7 PUSH3 0xD3 PUSH0 DUP1 DUP1 PUSH1 0x64 PUSH1 0xC8 PUSH2 0x190 PUSH2 0xCE4 PUSH3 0x124F8 DUP6 DUP1 DUP1 PUSH3 0x215 JUMP JUMPDEST PUSH3 0x1BE PUSH1 0x8 PUSH3 0xD3 PUSH1 0x64 PUSH0 DUP1 DUP1 DUP4 PUSH2 0x190 PUSH2 0x898 PUSH2 0x3A98 PUSH3 0x7A120 DUP6 DUP1 PUSH3 0x215 JUMP JUMPDEST PUSH3 0x1E4 PUSH1 0x9 PUSH3 0xD3 PUSH1 0x64 PUSH0 DUP1 DUP1 DUP4 PUSH1 0xC8 PUSH2 0x1F4 PUSH2 0x1388 PUSH2 0x927C PUSH3 0x2625A0 DUP7 PUSH3 0x215 JUMP JUMPDEST PUSH3 0x20C PUSH1 0xA PUSH3 0xD3 PUSH2 0x12C PUSH1 0x64 PUSH0 DUP1 DUP1 DUP4 DUP6 PUSH2 0x640 PUSH2 0x30D4 PUSH3 0x249F0 PUSH3 0x989680 PUSH3 0x215 JUMP JUMPDEST POP POP POP PUSH3 0x35D JUMP JUMPDEST PUSH3 0x21F PUSH3 0x2C7 JUMP JUMPDEST SWAP11 DUP12 MSTORE PUSH1 0x20 DUP12 ADD SWAP10 SWAP1 SWAP10 MSTORE PUSH1 0x40 DUP11 ADD SWAP8 SWAP1 SWAP8 MSTORE PUSH1 0x60 DUP10 ADD SWAP6 SWAP1 SWAP6 MSTORE PUSH1 0x80 DUP9 ADD SWAP4 SWAP1 SWAP4 MSTORE PUSH1 0xA0 DUP8 ADD SWAP2 SWAP1 SWAP2 MSTORE PUSH1 0xC0 DUP7 ADD MSTORE PUSH1 0xE0 DUP6 ADD MSTORE PUSH2 0x100 DUP5 ADD MSTORE PUSH2 0x120 DUP4 ADD MSTORE PUSH2 0x140 DUP3 ADD MSTORE SWAP1 JUMP JUMPDEST PUSH0 JUMPDEST PUSH1 0xB DUP2 PUSH1 0xFF AND LT ISZERO PUSH3 0x2C2 JUMPI DUP2 DUP2 PUSH1 0xFF AND PUSH1 0xB DUP2 LT PUSH3 0x290 JUMPI PUSH3 0x290 PUSH3 0x349 JUMP JUMPDEST PUSH1 0x20 SWAP1 DUP2 MUL SWAP2 SWAP1 SWAP2 ADD MLOAD PUSH1 0xFF DUP1 DUP7 AND PUSH0 SWAP1 DUP2 MSTORE PUSH1 0x14 DUP5 MSTORE PUSH1 0x40 DUP1 DUP3 KECCAK256 SWAP3 DUP7 AND DUP3 MSTORE SWAP2 SWAP1 SWAP4 MSTORE SWAP1 SWAP2 KECCAK256 SSTORE PUSH1 0x1 ADD PUSH3 0x26B JUMP JUMPDEST POP POP POP JUMP JUMPDEST PUSH1 0x40 MLOAD DUP1 PUSH2 0x160 ADD PUSH1 0x40 MSTORE DUP1 PUSH1 0xB SWAP1 PUSH1 0x20 DUP3 MUL DUP1 CALLDATASIZE DUP4 CALLDATACOPY POP SWAP2 SWAP3 SWAP2 POP POP JUMP JUMPDEST DUP1 MLOAD PUSH1 0x1 PUSH1 0x1 PUSH1 0xA0 SHL SUB DUP2 AND DUP2 EQ PUSH3 0x2FD JUMPI PUSH0 DUP1 REVERT JUMPDEST SWAP2 SWAP1 POP JUMP JUMPDEST PUSH0 DUP1 PUSH0 PUSH1 0x60 DUP5 DUP7 SUB SLT ISZERO PUSH3 0x315 JUMPI PUSH0 DUP1 REVERT JUMPDEST PUSH3 0x320 DUP5 PUSH3 0x2E6 JUMP JUMPDEST SWAP3 POP PUSH3 0x330 PUSH1 0x20 DUP6 ADD PUSH3 0x2E6 JUMP JUMPDEST SWAP2 POP PUSH3 0x340 PUSH1 0x40 DUP6 ADD PUSH3 0x2E6 JUMP JUMPDEST SWAP1 POP SWAP3 POP SWAP3 POP SWAP3 JUMP JUMPDEST PUSH4 0x4E487B71 PUSH1 0xE0 SHL PUSH0 MSTORE PUSH1 0x32 PUSH1 0x4 MSTORE PUSH1 0x24 PUSH0 REVERT JUMPDEST PUSH2 0x4054 DUP1 PUSH3 0x36B PUSH0 CODECOPY PUSH0 RETURN INVALID PUSH1 0x80 PUSH1 0x40 MSTORE CALLVALUE DUP1 ISZERO PUSH2 0xF JUMPI PUSH0 DUP1 REVERT JUMPDEST POP PUSH1 0x4 CALLDATASIZE LT PUSH2 0x2D7 JUMPI PUSH0 CALLDATALOAD PUSH1 0xE0 SHR DUP1 PUSH4 0x881EFF1E GT PUSH2 0x187 JUMPI DUP1 PUSH4 0xBB2EA49A GT PUSH2 0xDD JUMPI DUP1 PUSH4 0xF538FCA4 GT PUSH2 0x93 JUMPI DUP1 PUSH4 0xF9B2A8BC GT PUSH2 0x6E JUMPI DUP1 PUSH4 0xF9B2A8BC EQ PUSH2 0x7D5 JUMPI DUP1 PUSH4 0xFB632B7C EQ PUSH2 0x803 JUMPI DUP1 PUSH4 0xFC0C546A EQ PUSH2 0x80C JUMPI PUSH0 DUP1 REVERT JUMPDEST DUP1 PUSH4 0xF538FCA4 EQ PUSH2 0x6F1 JUMPI DUP1 PUSH4 0xF71D96CB EQ PUSH2 0x704 JUMPI DUP1 PUSH4 0xF7EAD092 EQ PUSH2 0x7CC JUMPI PUSH0 DUP1 REVERT JUMPDEST DUP1 PUSH4 0xE3DD6664 GT PUSH2 0xC3 JUMPI DUP1 PUSH4 0xE3DD6664 EQ PUSH2 0x6AB JUMPI DUP1 PUSH4 0xEFBD7BD2 EQ PUSH2 0x6D5 JUMPI DUP1 PUSH4 0xF2FDE38B EQ PUSH2 0x6DE JUMPI PUSH0 DUP1 REVERT JUMPDEST DUP1 PUSH4 0xBB2EA49A EQ PUSH2 0x685 JUMPI DUP1 PUSH4 0xBF7C8B21 EQ PUSH2 0x698 JUMPI PUSH0 DUP1 REVERT JUMPDEST DUP1 PUSH4 0x9D9976CF GT PUSH2 0x13D JUMPI DUP1 PUSH4 0xAAF5EB68 GT PUSH2 0x118 JUMPI DUP1 PUSH4 0xAAF5EB68 EQ PUSH2 0x64E JUMPI DUP1 PUSH4 0xAC451185 EQ PUSH2 0x65D JUMPI DUP1 PUSH4 0xB42A275E EQ PUSH2 0x67D JUMPI PUSH0 DUP1 REVERT JUMPDEST DUP1 PUSH4 0x9D9976CF EQ PUSH2 0x610 JUMPI DUP1 PUSH4 0xA2F77BCC EQ PUSH2 0x625 JUMPI DUP1 PUSH4 0xA3F67D6D EQ PUSH2 0x645 JUMPI PUSH0 DUP1 REVERT JUMPDEST DUP1 PUSH4 0x8DA5CB5B GT PUSH2 0x16D JUMPI DUP1 PUSH4 0x8DA5CB5B EQ PUSH2 0x5DE JUMPI DUP1 PUSH4 0x9188483B EQ PUSH2 0x5FE JUMPI DUP1 PUSH4 0x9619367D EQ PUSH2 0x607 JUMPI PUSH0 DUP1 REVERT JUMPDEST DUP1 PUSH4 0x881EFF1E EQ PUSH2 0x5B8 JUMPI DUP1 PUSH4 0x88EA41B9 EQ PUSH2 0x5CB JUMPI PUSH0 DUP1 REVERT JUMPDEST DUP1 PUSH4 0x322668A4 GT PUSH2 0x23C JUMPI DUP1 PUSH4 0x4219ECA5 GT PUSH2 0x1F2 JUMPI DUP1 PUSH4 0x6C7AC9D8 GT PUSH2 0x1CD JUMPI DUP1 PUSH4 0x6C7AC9D8 EQ PUSH2 0x540 JUMPI DUP1 PUSH4 0x7ADBF973 EQ PUSH2 0x585 JUMPI DUP1 PUSH4 0x7DC0D1D0 EQ PUSH2 0x598 JUMPI PUSH0 DUP1 REVERT JUMPDEST DUP1 PUSH4 0x4219ECA5 EQ PUSH2 0x4C4 JUMPI DUP1 PUSH4 0x4DF2A219 EQ PUSH2 0x4D7 JUMPI DUP1 PUSH4 0x5C62124A EQ PUSH2 0x521 JUMPI PUSH0 DUP1 REVERT JUMPDEST DUP1 PUSH4 0x3C28F9CE GT PUSH2 0x222 JUMPI DUP1 PUSH4 0x3C28F9CE EQ PUSH2 0x47B JUMPI DUP1 PUSH4 0x3CEB735D EQ PUSH2 0x48E JUMPI DUP1 PUSH4 0x41FAC50F EQ PUSH2 0x4AF JUMPI PUSH0 DUP1 REVERT JUMPDEST DUP1 PUSH4 0x322668A4 EQ PUSH2 0x453 JUMPI DUP1 PUSH4 0x38E49CB8 EQ PUSH2 0x45C JUMPI PUSH0 DUP1 REVERT JUMPDEST DUP1 PUSH4 0x1F69565F GT PUSH2 0x291 JUMPI DUP1 PUSH4 0x22F51342 GT PUSH2 0x277 JUMPI DUP1 PUSH4 0x22F51342 EQ PUSH2 0x40B JUMPI DUP1 PUSH4 0x2643EF1D EQ PUSH2 0x420 JUMPI DUP1 PUSH4 0x2E5B2168 EQ PUSH2 0x44A JUMPI PUSH0 DUP1 REVERT JUMPDEST DUP1 PUSH4 0x1F69565F EQ PUSH2 0x3E2 JUMPI DUP1 PUSH4 0x22D4BCBD EQ PUSH2 0x402 JUMPI PUSH0 DUP1 REVERT JUMPDEST DUP1 PUSH4 0x18D485A6 GT PUSH2 0x2C1 JUMPI DUP1 PUSH4 0x18D485A6 EQ PUSH2 0x391 JUMPI DUP1 PUSH4 0x1908EEB5 EQ PUSH2 0x3AB JUMPI DUP1 PUSH4 0x1B43E5AF EQ PUSH2 0x3CB JUMPI PUSH0 DUP1 REVERT JUMPDEST DUP1 PUSH3 0x7BE4E5 EQ PUSH2 0x2DB JUMPI DUP1 PUSH4 0x117A5B90 EQ PUSH2 0x2F0 JUMPI JUMPDEST PUSH0 DUP1 REVERT JUMPDEST PUSH2 0x2EE PUSH2 0x2E9 CALLDATASIZE PUSH1 0x4 PUSH2 0x3455 JUMP JUMPDEST PUSH2 0x82C JUMP JUMPDEST STOP JUMPDEST PUSH2 0x348 PUSH2 0x2FE CALLDATASIZE PUSH1 0x4 PUSH2 0x34FA JUMP JUMPDEST PUSH1 0x12 PUSH1 0x20 MSTORE DUP1 PUSH0 MSTORE PUSH1 0x40 PUSH0 KECCAK256 PUSH0 SWAP2 POP SWAP1 POP DUP1 PUSH0 ADD SLOAD SWAP1 DUP1 PUSH1 0x1 ADD SLOAD SWAP1 DUP1 PUSH1 0x2 ADD SLOAD SWAP1 DUP1 PUSH1 0x3 ADD SLOAD SWAP1 DUP1 PUSH1 0x4 ADD SLOAD SWAP1 DUP1 PUSH1 0x5 ADD SLOAD SWAP1 DUP1 PUSH1 0x6 ADD SLOAD SWAP1 DUP1 PUSH1 0x7 ADD SLOAD SWAP1 DUP1 PUSH1 0x8 ADD SLOAD SWAP1 POP DUP10 JUMP JUMPDEST PUSH1 0x40 DUP1 MLOAD SWAP10 DUP11 MSTORE PUSH1 0x20 DUP11 ADD SWAP9 SWAP1 SWAP9 MSTORE SWAP7 DUP9 ADD SWAP6 SWAP1 SWAP6 MSTORE PUSH1 0x60 DUP8 ADD SWAP4 SWAP1 SWAP4 MSTORE PUSH1 0x80 DUP7 ADD SWAP2 SWAP1 SWAP2 MSTORE PUSH1 0xA0 DUP6 ADD MSTORE PUSH1 0xC0 DUP5 ADD MSTORE PUSH1 0xE0 DUP4 ADD MSTORE PUSH2 0x100 DUP3 ADD MSTORE PUSH2 0x120 ADD JUMPDEST PUSH1 0x40 MLOAD DUP1 SWAP2 SUB SWAP1 RETURN JUMPDEST PUSH2 0x399 PUSH1 0x14 DUP2 JUMP JUMPDEST PUSH1 0x40 MLOAD PUSH1 0xFF SWAP1 SWAP2 AND DUP2 MSTORE PUSH1 0x20 ADD PUSH2 0x388 JUMP JUMPDEST PUSH2 0x3BE PUSH2 0x3B9 CALLDATASIZE PUSH1 0x4 PUSH2 0x3511 JUMP JUMPDEST PUSH2 0x947 JUMP JUMPDEST PUSH1 0x40 MLOAD PUSH2 0x388 SWAP2 SWAP1 PUSH2 0x357C JUMP JUMPDEST PUSH2 0x3D4 PUSH1 0xB SLOAD DUP2 JUMP JUMPDEST PUSH1 0x40 MLOAD SWAP1 DUP2 MSTORE PUSH1 0x20 ADD PUSH2 0x388 JUMP JUMPDEST PUSH2 0x3F5 PUSH2 0x3F0 CALLDATASIZE PUSH1 0x4 PUSH2 0x35CE JUMP JUMPDEST PUSH2 0x999 JUMP JUMPDEST PUSH1 0x40 MLOAD PUSH2 0x388 SWAP2 SWAP1 PUSH2 0x3654 JUMP JUMPDEST PUSH2 0x3D4 PUSH1 0x5 SLOAD DUP2 JUMP JUMPDEST PUSH2 0x413 PUSH2 0xE43 JUMP JUMPDEST PUSH1 0x40 MLOAD PUSH2 0x388 SWAP2 SWAP1 PUSH2 0x3717 JUMP JUMPDEST PUSH2 0x3D4 PUSH2 0x42E CALLDATASIZE PUSH1 0x4 PUSH2 0x3787 JUMP JUMPDEST PUSH1 0x14 PUSH1 0x20 SWAP1 DUP2 MSTORE PUSH0 SWAP3 DUP4 MSTORE PUSH1 0x40 DUP1 DUP5 KECCAK256 SWAP1 SWAP2 MSTORE SWAP1 DUP3 MSTORE SWAP1 KECCAK256 SLOAD DUP2 JUMP JUMPDEST PUSH2 0x3D4 PUSH1 0x7 SLOAD DUP2 JUMP JUMPDEST PUSH2 0x3D4 PUSH1 0x9 SLOAD DUP2 JUMP JUMPDEST PUSH2 0x3D4 PUSH2 0x46A CALLDATASIZE PUSH1 0x4 PUSH2 0x35CE JUMP JUMPDEST PUSH1 0xF PUSH1 0x20 MSTORE PUSH0 SWAP1 DUP2 MSTORE PUSH1 0x40 SWAP1 KECCAK256 SLOAD DUP2 JUMP JUMPDEST PUSH2 0x2EE PUSH2 0x489 CALLDATASIZE PUSH1 0x4 PUSH2 0x37BE JUMP JUMPDEST PUSH2 0xEFF JUMP JUMPDEST PUSH2 0x4A1 PUSH2 0x49C CALLDATASIZE PUSH1 0x4 PUSH2 0x35CE JUMP JUMPDEST PUSH2 0x10CC JUMP JUMPDEST PUSH1 0x40 MLOAD PUSH2 0x388 SWAP3 SWAP2 SWAP1 PUSH2 0x387A JUMP JUMPDEST PUSH2 0x4B7 PUSH2 0x1353 JUMP JUMPDEST PUSH1 0x40 MLOAD PUSH2 0x388 SWAP2 SWAP1 PUSH2 0x38EC JUMP JUMPDEST PUSH2 0x2EE PUSH2 0x4D2 CALLDATASIZE PUSH1 0x4 PUSH2 0x3967 JUMP JUMPDEST PUSH2 0x13CC JUMP JUMPDEST PUSH2 0x507 PUSH2 0x4E5 CALLDATASIZE PUSH1 0x4 PUSH2 0x34FA JUMP JUMPDEST PUSH1 0x13 PUSH1 0x20 MSTORE PUSH0 SWAP1 DUP2 MSTORE PUSH1 0x40 SWAP1 KECCAK256 PUSH1 0x1 DUP2 ADD SLOAD PUSH1 0x3 SWAP1 SWAP2 ADD SLOAD PUSH1 0xFF SWAP2 DUP3 AND SWAP2 AND DUP3 JUMP JUMPDEST PUSH1 0x40 DUP1 MLOAD PUSH1 0xFF SWAP4 DUP5 AND DUP2 MSTORE SWAP3 SWAP1 SWAP2 AND PUSH1 0x20 DUP4 ADD MSTORE ADD PUSH2 0x388 JUMP JUMPDEST PUSH2 0x3D4 PUSH2 0x52F CALLDATASIZE PUSH1 0x4 PUSH2 0x3B02 JUMP JUMPDEST PUSH1 0x15 PUSH1 0x20 MSTORE PUSH0 SWAP1 DUP2 MSTORE PUSH1 0x40 SWAP1 KECCAK256 SLOAD DUP2 JUMP JUMPDEST PUSH1 0x3 SLOAD PUSH2 0x560 SWAP1 PUSH20 0xFFFFFFFFFFFFFFFFFFFFFFFFFFFFFFFFFFFFFFFF AND DUP2 JUMP JUMPDEST PUSH1 0x40 MLOAD PUSH20 0xFFFFFFFFFFFFFFFFFFFFFFFFFFFFFFFFFFFFFFFF SWAP1 SWAP2 AND DUP2 MSTORE PUSH1 0x20 ADD PUSH2 0x388 JUMP JUMPDEST PUSH2 0x2EE PUSH2 0x593 CALLDATASIZE PUSH1 0x4 PUSH2 0x35CE JUMP JUMPDEST PUSH2 0x158C JUMP JUMPDEST PUSH1 0x2 SLOAD PUSH2 0x560 SWAP1 PUSH20 0xFFFFFFFFFFFFFFFFFFFFFFFFFFFFFFFFFFFFFFFF AND DUP2 JUMP JUMPDEST PUSH2 0x2EE PUSH2 0x5C6 CALLDATASIZE PUSH1 0x4 PUSH2 0x34FA JUMP JUMPDEST PUSH2 0x1654 JUMP JUMPDEST PUSH2 0x2EE PUSH2 0x5D9 CALLDATASIZE PUSH1 0x4 PUSH2 0x34FA JUMP JUMPDEST PUSH2 0x16DA JUMP JUMPDEST PUSH1 0x4 SLOAD PUSH2 0x560 SWAP1 PUSH20 0xFFFFFFFFFFFFFFFFFFFFFFFFFFFFFFFFFFFFFFFF AND DUP2 JUMP JUMPDEST PUSH2 0x3D4 PUSH1 0xC SLOAD DUP2 JUMP JUMPDEST PUSH2 0x3D4 PUSH1 0x6 SLOAD DUP2 JUMP JUMPDEST PUSH2 0x618 PUSH2 0x1760 JUMP JUMPDEST PUSH1 0x40 MLOAD PUSH2 0x388 SWAP2 SWAP1 PUSH2 0x3B1D JUMP JUMPDEST PUSH2 0x638 PUSH2 0x633 CALLDATASIZE PUSH1 0x4 PUSH2 0x34FA JUMP JUMPDEST PUSH2 0x17EA JUMP JUMPDEST PUSH1 0x40 MLOAD PUSH2 0x388 SWAP2 SWAP1 PUSH2 0x3BD3 JUMP JUMPDEST PUSH2 0x3D4 PUSH1 0xD SLOAD DUP2 JUMP JUMPDEST PUSH2 0x3D4 PUSH8 0xDE0B6B3A7640000 DUP2 JUMP JUMPDEST PUSH2 0x670 PUSH2 0x66B CALLDATASIZE PUSH1 0x4 PUSH2 0x3BE2 JUMP JUMPDEST PUSH2 0x1998 JUMP JUMPDEST PUSH1 0x40 MLOAD PUSH2 0x388 SWAP2 SWAP1 PUSH2 0x3C02 JUMP JUMPDEST PUSH2 0x3D4 PUSH2 0x1C89 JUMP JUMPDEST PUSH2 0x3D4 PUSH2 0x693 CALLDATASIZE PUSH1 0x4 PUSH2 0x35CE JUMP JUMPDEST PUSH2 0x1D47 JUMP JUMPDEST PUSH2 0x2EE PUSH2 0x6A6 CALLDATASIZE PUSH1 0x4 PUSH2 0x35CE JUMP JUMPDEST PUSH2 0x1DA8 JUMP JUMPDEST PUSH2 0x3D4 PUSH2 0x6B9 CALLDATASIZE PUSH1 0x4 PUSH2 0x3BE2 JUMP JUMPDEST PUSH1 0x10 PUSH1 0x20 SWAP1 DUP2 MSTORE PUSH0 SWAP3 DUP4 MSTORE PUSH1 0x40 DUP1 DUP5 KECCAK256 SWAP1 SWAP2 MSTORE SWAP1 DUP3 MSTORE SWAP1 KECCAK256 SLOAD DUP2 JUMP JUMPDEST PUSH2 0x3D4 PUSH1 0x8 SLOAD DUP2 JUMP JUMPDEST PUSH2 0x2EE PUSH2 0x6EC CALLDATASIZE PUSH1 0x4 PUSH2 0x35CE JUMP JUMPDEST PUSH2 0x1E70 JUMP JUMPDEST PUSH2 0x670 PUSH2 0x6FF CALLDATASIZE PUSH1 0x4 PUSH2 0x3C44 JUMP JUMPDEST PUSH2 0x1F38 JUMP JUMPDEST PUSH2 0x773 PUSH2 0x712 CALLDATASIZE PUSH1 0x4 PUSH2 0x34FA JUMP JUMPDEST PUSH1 0xE PUSH1 0x20 MSTORE PUSH0 SWAP1 DUP2 MSTORE PUSH1 0x40 SWAP1 KECCAK256 DUP1 SLOAD PUSH1 0x1 DUP3 ADD SLOAD PUSH1 0x2 DUP4 ADD SLOAD PUSH1 0x3 DUP5 ADD SLOAD PUSH1 0x4 DUP6 ADD SLOAD PUSH1 0x5 DUP7 ADD SLOAD PUSH1 0x6 DUP8 ADD SLOAD PUSH1 0x7 DUP9 ADD SLOAD PUSH1 0x8 SWAP1 SWAP9 ADD SLOAD SWAP7 SWAP8 PUSH20 0xFFFFFFFFFFFFFFFFFFFFFFFFFFFFFFFFFFFFFFFF SWAP1 SWAP7 AND SWAP7 SWAP5 SWAP6 SWAP4 SWAP5 SWAP3 SWAP4 SWAP2 SWAP3 SWAP1 SWAP2 SWAP1 DUP10 JUMP JUMPDEST PUSH1 0x40 DUP1 MLOAD SWAP10 DUP11 MSTORE PUSH20 0xFFFFFFFFFFFFFFFFFFFFFFFFFFFFFFFFFFFFFFFF SWAP1 SWAP9 AND PUSH1 0x20 DUP11 ADD MSTORE SWAP7 DUP9 ADD SWAP6 SWAP1 SWAP6 MSTORE PUSH1 0x60 DUP8 ADD SWAP4 SWAP1 SWAP4 MSTORE PUSH1 0x80 DUP7 ADD SWAP2 SWAP1 SWAP2 MSTORE PUSH1 0xA0 DUP6 ADD MSTORE PUSH1 0xC0 DUP5 ADD MSTORE PUSH1 0xE0 DUP4 ADD MSTORE PUSH2 0x100 DUP3 ADD MSTORE PUSH2 0x120 ADD PUSH2 0x388 JUMP JUMPDEST PUSH2 0x3D4 PUSH1 0xA SLOAD DUP2 JUMP JUMPDEST PUSH2 0x7E8 PUSH2 0x7E3 CALLDATASIZE PUSH1 0x4 PUSH2 0x34FA JUMP JUMPDEST PUSH2 0x2332 JUMP JUMPDEST PUSH1 0x40 DUP1 MLOAD SWAP4 DUP5 MSTORE PUSH1 0x20 DUP5 ADD SWAP3 SWAP1 SWAP3 MSTORE SWAP1 DUP3 ADD MSTORE PUSH1 0x60 ADD PUSH2 0x388 JUMP JUMPDEST PUSH2 0x3D4 PUSH1 0x11 SLOAD DUP2 JUMP JUMPDEST PUSH1 0x1 SLOAD PUSH2 0x560 SWAP1 PUSH20 0xFFFFFFFFFFFFFFFFFFFFFFFFFFFFFFFFFFFFFFFF AND DUP2 JUMP JUMPDEST PUSH1 0x4 SLOAD PUSH20 0xFFFFFFFFFFFFFFFFFFFFFFFFFFFFFFFFFFFFFFFF AND CALLER EQ PUSH2 0x8B2 JUMPI PUSH1 0x40 MLOAD PUSH32 0x8C379A000000000000000000000000000000000000000000000000000000000 DUP2 MSTORE PUSH1 0x20 PUSH1 0x4 DUP3 ADD MSTORE PUSH1 0xA PUSH1 0x24 DUP3 ADD MSTORE PUSH32 0x4F6E6C79206F776E657200000000000000000000000000000000000000000000 PUSH1 0x44 DUP3 ADD MSTORE PUSH1 0x64 ADD JUMPDEST PUSH1 0x40 MLOAD DUP1 SWAP2 SUB SWAP1 REVERT JUMPDEST PUSH0 JUMPDEST PUSH1 0xA DUP2 PUSH1 0xFF AND LT ISZERO PUSH2 0x943 JUMPI PUSH0 JUMPDEST PUSH1 0xB DUP2 PUSH1 0xFF AND LT ISZERO PUSH2 0x93A JUMPI DUP3 DUP3 PUSH1 0xFF AND PUSH1 0xB DUP2 LT PUSH2 0x8E3 JUMPI PUSH2 0x8E3 PUSH2 0x3C76 JUMP JUMPDEST PUSH1 0x20 MUL ADD MLOAD DUP2 PUSH1 0xFF AND PUSH1 0xA DUP2 LT PUSH2 0x8FC JUMPI PUSH2 0x8FC PUSH2 0x3C76 JUMP JUMPDEST PUSH1 0x20 MUL ADD MLOAD PUSH1 0x14 PUSH0 PUSH2 0x90F DUP6 PUSH1 0x1 PUSH2 0x3CD0 JUMP JUMPDEST PUSH1 0xFF SWAP1 DUP2 AND DUP3 MSTORE PUSH1 0x20 DUP1 DUP4 ADD SWAP4 SWAP1 SWAP4 MSTORE PUSH1 0x40 SWAP2 DUP3 ADD PUSH0 SWAP1 DUP2 KECCAK256 SWAP2 DUP7 AND DUP2 MSTORE SWAP3 MSTORE SWAP1 KECCAK256 SSTORE PUSH1 0x1 ADD PUSH2 0x8C2 JUMP JUMPDEST POP PUSH1 0x1 ADD PUSH2 0x8B4 JUMP JUMPDEST POP POP JUMP JUMPDEST PUSH2 0x94F PUSH2 0x31E7 JUMP JUMPDEST SWAP11 DUP12 MSTORE PUSH1 0x20 DUP12 ADD SWAP10 SWAP1 SWAP10 MSTORE PUSH1 0x40 DUP11 ADD SWAP8 SWAP1 SWAP8 MSTORE PUSH1 0x60 DUP10 ADD SWAP6 SWAP1 SWAP6 MSTORE PUSH1 0x80 DUP9 ADD SWAP4 SWAP1 SWAP4 MSTORE PUSH1 0xA0 DUP8 ADD SWAP2 SWAP1 SWAP2 MSTORE PUSH1 0xC0 DUP7 ADD MSTORE PUSH1 0xE0 DUP6 ADD MSTORE PUSH2 0x100 DUP5 ADD MSTORE PUSH2 0x120 DUP4 ADD MSTORE PUSH2 0x140 DUP3 ADD MSTORE SWAP1 JUMP JUMPDEST PUSH2 0x9F4 PUSH1 0x40 MLOAD DUP1 PUSH2 0x100 ADD PUSH1 0x40 MSTORE DUP1 PUSH0 PUSH20 0xFFFFFFFFFFFFFFFFFFFFFFFFFFFFFFFFFFFFFFFF AND DUP2 MSTORE PUSH1 0x20 ADD PUSH0 PUSH1 0xFF AND DUP2 MSTORE PUSH1 0x20 ADD PUSH1 0x60 DUP2 MSTORE PUSH1 0x20 ADD PUSH1 0x60 DUP2 MSTORE PUSH1 0x20 ADD PUSH0 DUP2 MSTORE PUSH1 0x20 ADD PUSH0 DUP2 MSTORE PUSH1 0x20 ADD PUSH0 DUP2 MSTORE PUSH1 0x20 ADD PUSH0 DUP2 MSTORE POP SWAP1 JUMP JUMPDEST PUSH1 0x40 DUP1 MLOAD PUSH2 0x100 DUP2 ADD DUP3 MSTORE PUSH1 0x1 SLOAD PUSH20 0xFFFFFFFFFFFFFFFFFFFFFFFFFFFFFFFFFFFFFFFF AND DUP1 DUP3 MSTORE DUP3 MLOAD PUSH32 0x313CE56700000000000000000000000000000000000000000000000000000000 DUP2 MSTORE SWAP3 MLOAD SWAP2 SWAP3 PUSH1 0x20 DUP1 DUP6 ADD SWAP4 PUSH4 0x313CE567 SWAP3 PUSH1 0x4 DUP1 DUP3 ADD SWAP4 SWAP3 SWAP2 DUP3 SWAP1 SUB ADD DUP2 DUP7 GAS STATICCALL ISZERO DUP1 ISZERO PUSH2 0xA6F JUMPI RETURNDATASIZE PUSH0 DUP1 RETURNDATACOPY RETURNDATASIZE PUSH0 REVERT JUMPDEST POP POP POP POP PUSH1 0x40 MLOAD RETURNDATASIZE PUSH1 0x1F NOT PUSH1 0x1F DUP3 ADD AND DUP3 ADD DUP1 PUSH1 0x40 MSTORE POP DUP2 ADD SWAP1 PUSH2 0xA93 SWAP2 SWAP1 PUSH2 0x3CE9 JUMP JUMPDEST PUSH1 0xFF AND DUP2 MSTORE PUSH1 0x20 ADD PUSH1 0x1 PUSH0 SWAP1 SLOAD SWAP1 PUSH2 0x100 EXP SWAP1 DIV PUSH20 0xFFFFFFFFFFFFFFFFFFFFFFFFFFFFFFFFFFFFFFFF AND PUSH20 0xFFFFFFFFFFFFFFFFFFFFFFFFFFFFFFFFFFFFFFFF AND PUSH4 0x6FDDE03 PUSH1 0x40 MLOAD DUP2 PUSH4 0xFFFFFFFF AND PUSH1 0xE0 SHL DUP2 MSTORE PUSH1 0x4 ADD PUSH0 PUSH1 0x40 MLOAD DUP1 DUP4 SUB DUP2 DUP7 GAS STATICCALL ISZERO DUP1 ISZERO PUSH2 0xB04 JUMPI RETURNDATASIZE PUSH0 DUP1 RETURNDATACOPY RETURNDATASIZE PUSH0 REVERT JUMPDEST POP POP POP POP PUSH1 0x40 MLOAD RETURNDATASIZE PUSH0 DUP3 RETURNDATACOPY PUSH1 0x1F RETURNDATASIZE SWAP1 DUP2 ADD PUSH32 0xFFFFFFFFFFFFFFFFFFFFFFFFFFFFFFFFFFFFFFFFFFFFFFFFFFFFFFFFFFFFFFE0 AND DUP3 ADD PUSH1 0x40 MSTORE PUSH2 0xB49 SWAP2 SWAP1 DUP2 ADD SWAP1 PUSH2 0x3D8B JUMP JUMPDEST DUP2 MSTORE PUSH1 0x20 ADD PUSH1 0x1 PUSH0 SWAP1 SLOAD SWAP1 PUSH2 0x100 EXP SWAP1 DIV PUSH20 0xFFFFFFFFFFFFFFFFFFFFFFFFFFFFFFFFFFFFFFFF AND PUSH20 0xFFFFFFFFFFFFFFFFFFFFFFFFFFFFFFFFFFFFFFFF AND PUSH4 0x95D89B41 PUSH1 0x40 MLOAD DUP2 PUSH4 0xFFFFFFFF AND PUSH1 0xE0 SHL DUP2 MSTORE PUSH1 0x4 ADD PUSH0 PUSH1 0x40 MLOAD DUP1 DUP4 SUB DUP2 DUP7 GAS STATICCALL ISZERO DUP1 ISZERO PUSH2 0xBB7 JUMPI RETURNDATASIZE PUSH0 DUP1 RETURNDATACOPY RETURNDATASIZE PUSH0 REVERT JUMPDEST POP POP POP POP PUSH1 0x40 MLOAD RETURNDATASIZE PUSH0 DUP3 RETURNDATACOPY PUSH1 0x1F RETURNDATASIZE SWAP1 DUP2 ADD PUSH32 0xFFFFFFFFFFFFFFFFFFFFFFFFFFFFFFFFFFFFFFFFFFFFFFFFFFFFFFFFFFFFFFE0 AND DUP3 ADD PUSH1 0x40 MSTORE PUSH2 0xBFC SWAP2 SWAP1 DUP2 ADD SWAP1 PUSH2 0x3D8B JUMP JUMPDEST DUP2 MSTORE PUSH1 0x20 ADD PUSH20 0xFFFFFFFFFFFFFFFFFFFFFFFFFFFFFFFFFFFFFFFF DUP5 AND PUSH2 0xC22 JUMPI PUSH0 PUSH2 0xCB4 JUMP JUMPDEST PUSH1 0x1 SLOAD PUSH1 0x40 MLOAD PUSH32 0x70A0823100000000000000000000000000000000000000000000000000000000 DUP2 MSTORE PUSH20 0xFFFFFFFFFFFFFFFFFFFFFFFFFFFFFFFFFFFFFFFF DUP7 DUP2 AND PUSH1 0x4 DUP4 ADD MSTORE SWAP1 SWAP2 AND SWAP1 PUSH4 0x70A08231 SWAP1 PUSH1 0x24 ADD PUSH1 0x20 PUSH1 0x40 MLOAD DUP1 DUP4 SUB DUP2 DUP7 GAS STATICCALL ISZERO DUP1 ISZERO PUSH2 0xC90 JUMPI RETURNDATASIZE PUSH0 DUP1 RETURNDATACOPY RETURNDATASIZE PUSH0 REVERT JUMPDEST POP POP POP POP PUSH1 0x40 MLOAD RETURNDATASIZE PUSH1 0x1F NOT PUSH1 0x1F DUP3 ADD AND DUP3 ADD DUP1 PUSH1 0x40 MSTORE POP DUP2 ADD SWAP1 PUSH2 0xCB4 SWAP2 SWAP1 PUSH2 0x3DBD JUMP JUMPDEST DUP2 MSTORE PUSH1 0x20 ADD PUSH20 0xFFFFFFFFFFFFFFFFFFFFFFFFFFFFFFFFFFFFFFFF DUP5 AND PUSH2 0xCDA JUMPI PUSH0 PUSH2 0xD76 JUMP JUMPDEST PUSH1 0x1 SLOAD PUSH1 0x3 SLOAD PUSH1 0x40 MLOAD PUSH32 0xDD62ED3E00000000000000000000000000000000000000000000000000000000 DUP2 MSTORE PUSH20 0xFFFFFFFFFFFFFFFFFFFFFFFFFFFFFFFFFFFFFFFF DUP8 DUP2 AND PUSH1 0x4 DUP4 ADD MSTORE SWAP2 DUP3 AND PUSH1 0x24 DUP3 ADD MSTORE SWAP2 AND SWAP1 PUSH4 0xDD62ED3E SWAP1 PUSH1 0x44 ADD PUSH1 0x20 PUSH1 0x40 MLOAD DUP1 DUP4 SUB DUP2 DUP7 GAS STATICCALL ISZERO DUP1 ISZERO PUSH2 0xD52 JUMPI RETURNDATASIZE PUSH0 DUP1 RETURNDATACOPY RETURNDATASIZE PUSH0 REVERT JUMPDEST POP POP POP POP PUSH1 0x40 MLOAD RETURNDATASIZE PUSH1 0x1F NOT PUSH1 0x1F DUP3 ADD AND DUP3 ADD DUP1 PUSH1 0x40 MSTORE POP DUP2 ADD SWAP1 PUSH2 0xD76 SWAP2 SWAP1 PUSH2 0x3DBD JUMP JUMPDEST DUP2 MSTORE PUSH1 0x20 ADD PUSH20 0xFFFFFFFFFFFFFFFFFFFFFFFFFFFFFFFFFFFFFFFF DUP5 AND PUSH2 0xD9C JUMPI PUSH0 PUSH2 0xE2E JUMP JUMPDEST PUSH1 0x3 SLOAD PUSH1 0x40 MLOAD PUSH32 0xC084B10B00000000000000000000000000000000000000000000000000000000 DUP2 MSTORE PUSH20 0xFFFFFFFFFFFFFFFFFFFFFFFFFFFFFFFFFFFFFFFF DUP7 DUP2 AND PUSH1 0x4 DUP4 ADD MSTORE SWAP1 SWAP2 AND SWAP1 PUSH4 0xC084B10B SWAP1 PUSH1 0x24 ADD PUSH1 0x20 PUSH1 0x40 MLOAD DUP1 DUP4 SUB DUP2 DUP7 GAS STATICCALL ISZERO DUP1 ISZERO PUSH2 0xE0A JUMPI RETURNDATASIZE PUSH0 DUP1 RETURNDATACOPY RETURNDATASIZE PUSH0 REVERT JUMPDEST POP POP POP POP PUSH1 0x40 MLOAD RETURNDATASIZE PUSH1 0x1F NOT PUSH1 0x1F DUP3 ADD AND DUP3 ADD DUP1 PUSH1 0x40 MSTORE POP DUP2 ADD SWAP1 PUSH2 0xE2E SWAP2 SWAP1 PUSH2 0x3DBD JUMP JUMPDEST DUP2 MSTORE PUSH1 0x20 ADD PUSH2 0xE3B PUSH2 0x1C89 JUMP JUMPDEST SWAP1 MSTORE SWAP3 SWAP2 POP POP JUMP JUMPDEST PUSH2 0xE4B PUSH2 0x3206 JUMP JUMPDEST PUSH1 0x1 JUMPDEST PUSH1 0xA DUP2 PUSH1 0xFF AND GT PUSH2 0xEFB JUMPI DUP1 DUP3 DUP3 PUSH1 0xFF AND PUSH1 0xB DUP2 LT PUSH2 0xE6F JUMPI PUSH2 0xE6F PUSH2 0x3C76 JUMP JUMPDEST PUSH1 0x20 MUL ADD MLOAD PUSH1 0xFF SWAP1 SWAP2 AND SWAP1 MSTORE PUSH0 JUMPDEST PUSH1 0xB DUP2 PUSH1 0xFF AND LT ISZERO PUSH2 0xEE8 JUMPI PUSH1 0xFF DUP1 DUP4 AND PUSH0 DUP2 DUP2 MSTORE PUSH1 0x14 PUSH1 0x20 SWAP1 DUP2 MSTORE PUSH1 0x40 DUP1 DUP4 KECCAK256 SWAP5 DUP7 AND DUP4 MSTORE SWAP4 SWAP1 MSTORE SWAP2 SWAP1 SWAP2 KECCAK256 SLOAD SWAP1 DUP5 SWAP1 PUSH1 0xB DUP2 LT PUSH2 0xEBE JUMPI PUSH2 0xEBE PUSH2 0x3C76 JUMP JUMPDEST PUSH1 0x20 MUL ADD MLOAD PUSH1 0x20 ADD MLOAD DUP3 PUSH1 0xFF AND PUSH1 0xB DUP2 LT PUSH2 0xEDB JUMPI PUSH2 0xEDB PUSH2 0x3C76 JUMP JUMPDEST PUSH1 0x20 MUL ADD MSTORE PUSH1 0x1 ADD PUSH2 0xE7D JUMP JUMPDEST POP DUP1 PUSH2 0xEF3 DUP2 PUSH2 0x3DD4 JUMP JUMPDEST SWAP2 POP POP PUSH2 0xE4E JUMP JUMPDEST POP SWAP1 JUMP JUMPDEST PUSH1 0x4 SLOAD PUSH20 0xFFFFFFFFFFFFFFFFFFFFFFFFFFFFFFFFFFFFFFFF AND CALLER EQ PUSH2 0xF80 JUMPI PUSH1 0x40 MLOAD PUSH32 0x8C379A000000000000000000000000000000000000000000000000000000000 DUP2 MSTORE PUSH1 0x20 PUSH1 0x4 DUP3 ADD MSTORE PUSH1 0xA PUSH1 0x24 DUP3 ADD MSTORE PUSH32 0x4F6E6C79206F776E657200000000000000000000000000000000000000000000 PUSH1 0x44 DUP3 ADD MSTORE PUSH1 0x64 ADD PUSH2 0x8A9 JUMP JUMPDEST PUSH1 0x1 SLOAD PUSH20 0xFFFFFFFFFFFFFFFFFFFFFFFFFFFFFFFFFFFFFFFF SWAP1 DUP2 AND SWAP1 DUP4 AND SUB PUSH2 0x102B JUMPI PUSH1 0x40 MLOAD PUSH32 0x8C379A000000000000000000000000000000000000000000000000000000000 DUP2 MSTORE PUSH1 0x20 PUSH1 0x4 DUP3 ADD MSTORE PUSH1 0x2B PUSH1 0x24 DUP3 ADD MSTORE PUSH32 0x43616E74207265636F7765722067616D6520746F6B656E2E204F6E6C79206261 PUSH1 0x44 DUP3 ADD MSTORE PUSH32 0x6E6B207769746864726177000000000000000000000000000000000000000000 PUSH1 0x64 DUP3 ADD MSTORE PUSH1 0x84 ADD PUSH2 0x8A9 JUMP JUMPDEST PUSH1 0x4 DUP1 SLOAD PUSH1 0x40 MLOAD PUSH32 0xA9059CBB00000000000000000000000000000000000000000000000000000000 DUP2 MSTORE PUSH20 0xFFFFFFFFFFFFFFFFFFFFFFFFFFFFFFFFFFFFFFFF SWAP2 DUP3 AND SWAP3 DUP2 ADD SWAP3 SWAP1 SWAP3 MSTORE PUSH1 0x24 DUP3 ADD DUP4 SWAP1 MSTORE DUP4 AND SWAP1 PUSH4 0xA9059CBB SWAP1 PUSH1 0x44 ADD PUSH1 0x20 PUSH1 0x40 MLOAD DUP1 DUP4 SUB DUP2 PUSH0 DUP8 GAS CALL ISZERO DUP1 ISZERO PUSH2 0x10A3 JUMPI RETURNDATASIZE PUSH0 DUP1 RETURNDATACOPY RETURNDATASIZE PUSH0 REVERT JUMPDEST POP POP POP POP PUSH1 0x40 MLOAD RETURNDATASIZE PUSH1 0x1F NOT PUSH1 0x1F DUP3 ADD AND DUP3 ADD DUP1 PUSH1 0x40 MSTORE POP DUP2 ADD SWAP1 PUSH2 0x10C7 SWAP2 SWAP1 PUSH2 0x3DF2 JUMP JUMPDEST POP POP POP JUMP JUMPDEST PUSH1 0x40 DUP1 MLOAD PUSH2 0x120 DUP2 ADD DUP3 MSTORE PUSH0 DUP1 DUP3 MSTORE PUSH1 0x20 DUP3 ADD DUP2 SWAP1 MSTORE SWAP2 DUP2 ADD DUP3 SWAP1 MSTORE PUSH1 0x60 DUP2 ADD DUP3 SWAP1 MSTORE PUSH1 0x80 DUP2 ADD DUP3 SWAP1 MSTORE PUSH1 0xA0 DUP2 ADD DUP3 SWAP1 MSTORE PUSH1 0xC0 DUP2 ADD DUP3 SWAP1 MSTORE PUSH1 0xE0 DUP2 ADD DUP3 SWAP1 MSTORE PUSH2 0x100 DUP2 ADD SWAP2 SWAP1 SWAP2 MSTORE PUSH2 0x111C PUSH2 0x3234 JUMP JUMPDEST PUSH20 0xFFFFFFFFFFFFFFFFFFFFFFFFFFFFFFFFFFFFFFFF DUP4 AND PUSH0 SWAP1 DUP2 MSTORE PUSH1 0xF PUSH1 0x20 MSTORE PUSH1 0x40 SWAP1 KECCAK256 SLOAD ISZERO DUP1 ISZERO SWAP1 PUSH2 0x1182 JUMPI POP PUSH20 0xFFFFFFFFFFFFFFFFFFFFFFFFFFFFFFFFFFFFFFFF DUP4 AND PUSH0 SWAP1 DUP2 MSTORE PUSH1 0xF PUSH1 0x20 SWAP1 DUP2 MSTORE PUSH1 0x40 DUP1 DUP4 KECCAK256 SLOAD DUP4 MSTORE PUSH1 0xE SWAP1 SWAP2 MSTORE SWAP1 KECCAK256 PUSH1 0x8 ADD SLOAD ISZERO ISZERO JUMPDEST ISZERO PUSH2 0x134E JUMPI PUSH20 0xFFFFFFFFFFFFFFFFFFFFFFFFFFFFFFFFFFFFFFFF DUP4 AND PUSH0 SWAP1 DUP2 MSTORE PUSH1 0xF PUSH1 0x20 SWAP1 DUP2 MSTORE PUSH1 0x40 DUP1 DUP4 KECCAK256 SLOAD DUP4 MSTORE PUSH1 0xE DUP3 MSTORE DUP1 DUP4 KECCAK256 PUSH1 0x8 SWAP1 DUP2 ADD SLOAD DUP1 DUP6 MSTORE PUSH1 0x12 DUP5 MSTORE DUP3 DUP6 KECCAK256 DUP4 MLOAD PUSH2 0x120 DUP2 ADD DUP6 MSTORE DUP2 SLOAD DUP2 MSTORE PUSH1 0x1 DUP3 ADD SLOAD DUP2 DUP8 ADD MSTORE PUSH1 0x2 DUP3 ADD SLOAD DUP2 DUP7 ADD MSTORE PUSH1 0x3 DUP3 ADD SLOAD PUSH1 0x60 DUP3 ADD MSTORE PUSH1 0x4 DUP3 ADD SLOAD PUSH1 0x80 DUP3 ADD MSTORE PUSH1 0x5 DUP3 ADD SLOAD PUSH1 0xA0 DUP1 DUP4 ADD SWAP2 SWAP1 SWAP2 MSTORE PUSH1 0x6 DUP4 ADD SLOAD PUSH1 0xC0 DUP4 ADD MSTORE PUSH1 0x7 DUP4 ADD SLOAD PUSH1 0xE0 DUP4 ADD MSTORE SWAP2 SWAP1 SWAP4 ADD SLOAD PUSH2 0x100 DUP5 ADD MSTORE SWAP1 DUP6 MSTORE PUSH1 0x13 SWAP1 SWAP4 MSTORE DUP2 DUP5 KECCAK256 DUP3 MLOAD PUSH2 0x320 DUP2 ADD SWAP4 DUP5 SWAP1 MSTORE SWAP2 SWAP7 POP SWAP1 SWAP4 SWAP1 SWAP3 DUP5 SWAP3 SWAP1 DUP4 ADD SWAP2 DUP5 SWAP2 PUSH1 0x14 SWAP2 DUP4 SWAP1 DUP6 JUMPDEST DUP3 SLOAD PUSH2 0x100 DUP4 SWAP1 EXP SWAP1 DIV PUSH1 0xFF AND DUP2 MSTORE PUSH1 0x20 PUSH1 0x1 SWAP3 DUP4 ADD DUP2 DUP2 DIV SWAP5 DUP6 ADD SWAP5 SWAP1 SWAP4 SUB SWAP1 SWAP3 MUL SWAP2 ADD DUP1 DUP5 GT PUSH2 0x1254 JUMPI POP POP POP SWAP3 DUP5 MSTORE POP POP POP PUSH1 0x1 DUP3 ADD SLOAD PUSH1 0xFF AND PUSH1 0x20 DUP3 ADD MSTORE PUSH1 0x40 DUP1 MLOAD PUSH2 0x140 DUP2 ADD DUP1 DUP4 MSTORE SWAP2 SWAP1 SWAP3 ADD SWAP2 SWAP1 PUSH1 0x2 DUP5 ADD SWAP1 PUSH1 0xA SWAP1 DUP3 PUSH0 DUP6 JUMPDEST DUP3 SLOAD PUSH2 0x100 DUP4 SWAP1 EXP SWAP1 DIV PUSH1 0xFF AND DUP2 MSTORE PUSH1 0x20 PUSH1 0x1 SWAP3 DUP4 ADD DUP2 DUP2 DIV SWAP5 DUP6 ADD SWAP5 SWAP1 SWAP4 SUB SWAP1 SWAP3 MUL SWAP2 ADD DUP1 DUP5 GT PUSH2 0x12B4 JUMPI POP POP POP SWAP3 DUP5 MSTORE POP POP POP PUSH1 0x3 DUP3 ADD SLOAD PUSH1 0xFF AND PUSH1 0x20 DUP3 ADD MSTORE PUSH1 0x40 DUP1 MLOAD PUSH2 0x140 DUP2 ADD DUP1 DUP4 MSTORE SWAP2 SWAP1 SWAP3 ADD SWAP2 SWAP1 PUSH1 0x4 DUP5 ADD SWAP1 PUSH1 0xA SWAP1 DUP3 PUSH0 DUP6 JUMPDEST DUP3 SLOAD PUSH2 0x100 DUP4 SWAP1 EXP SWAP1 DIV PUSH1 0xFF AND DUP2 MSTORE PUSH1 0x20 PUSH1 0x1 SWAP3 DUP4 ADD DUP2 DUP2 DIV SWAP5 DUP6 ADD SWAP5 SWAP1 SWAP4 SUB SWAP1 SWAP3 MUL SWAP2 ADD DUP1 DUP5 GT PUSH2 0x1314 JUMPI SWAP1 POP POP POP POP POP POP DUP2 MSTORE POP POP SWAP1 POP JUMPDEST SWAP2 POP SWAP2 JUMP JUMPDEST PUSH1 0x60 PUSH1 0x16 DUP1 SLOAD DUP1 PUSH1 0x20 MUL PUSH1 0x20 ADD PUSH1 0x40 MLOAD SWAP1 DUP2 ADD PUSH1 0x40 MSTORE DUP1 SWAP3 SWAP2 SWAP1 DUP2 DUP2 MSTORE PUSH1 0x20 ADD PUSH0 SWAP1 JUMPDEST DUP3 DUP3 LT ISZERO PUSH2 0x13C3 JUMPI DUP4 DUP3 SWAP1 PUSH0 MSTORE PUSH1 0x20 PUSH0 KECCAK256 SWAP1 PUSH1 0x3 MUL ADD PUSH1 0x40 MLOAD DUP1 PUSH1 0x60 ADD PUSH1 0x40 MSTORE SWAP1 DUP2 PUSH0 DUP3 ADD SLOAD DUP2 MSTORE PUSH1 0x20 ADD PUSH1 0x1 DUP3 ADD SLOAD DUP2 MSTORE PUSH1 0x20 ADD PUSH1 0x2 DUP3 ADD SLOAD DUP2 MSTORE POP POP DUP2 MSTORE PUSH1 0x20 ADD SWAP1 PUSH1 0x1 ADD SWAP1 PUSH2 0x1376 JUMP JUMPDEST POP POP POP POP SWAP1 POP SWAP1 JUMP JUMPDEST PUSH2 0x13D4 PUSH2 0x2363 JUMP JUMPDEST PUSH1 0x2 SLOAD PUSH20 0xFFFFFFFFFFFFFFFFFFFFFFFFFFFFFFFFFFFFFFFF AND CALLER EQ PUSH2 0x1455 JUMPI PUSH1 0x40 MLOAD PUSH32 0x8C379A000000000000000000000000000000000000000000000000000000000 DUP2 MSTORE PUSH1 0x20 PUSH1 0x4 DUP3 ADD MSTORE PUSH1 0xB PUSH1 0x24 DUP3 ADD MSTORE PUSH32 0x4F6E6C79206F7261636C65000000000000000000000000000000000000000000 PUSH1 0x44 DUP3 ADD MSTORE PUSH1 0x64 ADD PUSH2 0x8A9 JUMP JUMPDEST DUP1 MLOAD DUP1 PUSH2 0x14BE JUMPI PUSH1 0x40 MLOAD PUSH32 0x8C379A000000000000000000000000000000000000000000000000000000000 DUP2 MSTORE PUSH1 0x20 PUSH1 0x4 DUP3 ADD MSTORE PUSH1 0xB PUSH1 0x24 DUP3 ADD MSTORE PUSH32 0x456D707479206261746368000000000000000000000000000000000000000000 PUSH1 0x44 DUP3 ADD MSTORE PUSH1 0x64 ADD PUSH2 0x8A9 JUMP JUMPDEST PUSH1 0x14 DUP2 GT ISZERO PUSH2 0x1529 JUMPI PUSH1 0x40 MLOAD PUSH32 0x8C379A000000000000000000000000000000000000000000000000000000000 DUP2 MSTORE PUSH1 0x20 PUSH1 0x4 DUP3 ADD MSTORE PUSH1 0x16 PUSH1 0x24 DUP3 ADD MSTORE PUSH32 0x4D61782032302067616D65732070657220626174636800000000000000000000 PUSH1 0x44 DUP3 ADD MSTORE PUSH1 0x64 ADD PUSH2 0x8A9 JUMP JUMPDEST PUSH0 JUMPDEST DUP2 DUP2 LT ISZERO PUSH2 0x157E JUMPI PUSH0 DUP4 DUP3 DUP2 MLOAD DUP2 LT PUSH2 0x1546 JUMPI PUSH2 0x1546 PUSH2 0x3C76 JUMP JUMPDEST PUSH1 0x20 MUL PUSH1 0x20 ADD ADD MLOAD SWAP1 POP PUSH2 0x1575 DUP2 PUSH0 ADD MLOAD DUP3 PUSH1 0x20 ADD MLOAD DUP4 PUSH1 0x40 ADD MLOAD DUP5 PUSH1 0x60 ADD MLOAD DUP6 PUSH1 0x80 ADD MLOAD DUP7 PUSH1 0xA0 ADD MLOAD PUSH2 0x23D4 JUMP JUMPDEST POP PUSH1 0x1 ADD PUSH2 0x152B JUMP JUMPDEST POP POP PUSH2 0x1589 PUSH1 0x1 PUSH0 SSTORE JUMP JUMPDEST POP JUMP JUMPDEST PUSH1 0x4 SLOAD PUSH20 0xFFFFFFFFFFFFFFFFFFFFFFFFFFFFFFFFFFFFFFFF AND CALLER EQ PUSH2 0x160D JUMPI PUSH1 0x40 MLOAD PUSH32 0x8C379A000000000000000000000000000000000000000000000000000000000 DUP2 MSTORE PUSH1 0x20 PUSH1 0x4 DUP3 ADD MSTORE PUSH1 0xA PUSH1 0x24 DUP3 ADD MSTORE PUSH32 0x4F6E6C79206F776E657200000000000000000000000000000000000000000000 PUSH1 0x44 DUP3 ADD MSTORE PUSH1 0x64 ADD PUSH2 0x8A9 JUMP JUMPDEST PUSH1 0x2 DUP1 SLOAD PUSH32 0xFFFFFFFFFFFFFFFFFFFFFFFF0000000000000000000000000000000000000000 AND PUSH20 0xFFFFFFFFFFFFFFFFFFFFFFFFFFFFFFFFFFFFFFFF SWAP3 SWAP1 SWAP3 AND SWAP2 SWAP1 SWAP2 OR SWAP1 SSTORE JUMP JUMPDEST PUSH1 0x4 SLOAD PUSH20 0xFFFFFFFFFFFFFFFFFFFFFFFFFFFFFFFFFFFFFFFF AND CALLER EQ PUSH2 0x16D5 JUMPI PUSH1 0x40 MLOAD PUSH32 0x8C379A000000000000000000000000000000000000000000000000000000000 DUP2 MSTORE PUSH1 0x20 PUSH1 0x4 DUP3 ADD MSTORE PUSH1 0xA PUSH1 0x24 DUP3 ADD MSTORE PUSH32 0x4F6E6C79206F776E657200000000000000000000000000000000000000000000 PUSH1 0x44 DUP3 ADD MSTORE PUSH1 0x64 ADD PUSH2 0x8A9 JUMP JUMPDEST PUSH1 0x7 SSTORE JUMP JUMPDEST PUSH1 0x4 SLOAD PUSH20 0xFFFFFFFFFFFFFFFFFFFFFFFFFFFFFFFFFFFFFFFF AND CALLER EQ PUSH2 0x175B JUMPI PUSH1 0x40 MLOAD PUSH32 0x8C379A000000000000000000000000000000000000000000000000000000000 DUP2 MSTORE PUSH1 0x20 PUSH1 0x4 DUP3 ADD MSTORE PUSH1 0xA PUSH1 0x24 DUP3 ADD MSTORE PUSH32 0x4F6E6C79206F776E657200000000000000000000000000000000000000000000 PUSH1 0x44 DUP3 ADD MSTORE PUSH1 0x64 ADD PUSH2 0x8A9 JUMP JUMPDEST PUSH1 0x6 SSTORE JUMP JUMPDEST PUSH1 0x40 DUP1 MLOAD PUSH1 0x46 DUP1 DUP3 MSTORE PUSH2 0x8E0 DUP3 ADD SWAP1 SWAP3 MSTORE PUSH1 0x60 SWAP2 PUSH0 SWAP2 SWAP1 PUSH1 0x20 DUP3 ADD PUSH2 0x8C0 DUP1 CALLDATASIZE DUP4 CALLDATACOPY ADD SWAP1 POP POP SWAP1 POP PUSH1 0x1 JUMPDEST PUSH1 0x46 DUP2 PUSH1 0xFF AND GT PUSH2 0x17E4 JUMPI PUSH1 0xFF DUP2 AND PUSH0 SWAP1 DUP2 MSTORE PUSH1 0x15 PUSH1 0x20 MSTORE PUSH1 0x40 SWAP1 KECCAK256 SLOAD DUP3 PUSH2 0x17B4 PUSH1 0x1 DUP5 PUSH2 0x3E11 JUMP JUMPDEST PUSH1 0xFF AND DUP2 MLOAD DUP2 LT PUSH2 0x17C7 JUMPI PUSH2 0x17C7 PUSH2 0x3C76 JUMP JUMPDEST PUSH1 0x20 SWAP1 DUP2 MUL SWAP2 SWAP1 SWAP2 ADD ADD MSTORE DUP1 PUSH2 0x17DC DUP2 PUSH2 0x3DD4 JUMP JUMPDEST SWAP2 POP POP PUSH2 0x178B JUMP JUMPDEST POP SWAP2 SWAP1 POP JUMP JUMPDEST PUSH2 0x17F2 PUSH2 0x3272 JUMP JUMPDEST PUSH1 0x40 DUP1 MLOAD PUSH0 DUP5 DUP2 MSTORE PUSH1 0x12 PUSH1 0x20 SWAP1 DUP2 MSTORE DUP4 DUP3 KECCAK256 PUSH2 0x160 DUP5 ADD DUP6 MSTORE DUP1 SLOAD DUP5 DUP7 ADD SWAP1 DUP2 MSTORE PUSH1 0x1 DUP3 ADD SLOAD PUSH1 0x60 DUP7 ADD MSTORE PUSH1 0x2 DUP3 ADD SLOAD PUSH1 0x80 DUP7 ADD MSTORE PUSH1 0x3 DUP3 ADD SLOAD PUSH1 0xA0 DUP1 DUP8 ADD SWAP2 SWAP1 SWAP2 MSTORE PUSH1 0x4 DUP4 ADD SLOAD PUSH1 0xC0 DUP8 ADD MSTORE PUSH1 0x5 DUP4 ADD SLOAD PUSH1 0xE0 DUP8 ADD MSTORE PUSH1 0x6 DUP4 ADD SLOAD PUSH2 0x100 DUP8 ADD MSTORE PUSH1 0x7 DUP4 ADD SLOAD PUSH2 0x120 DUP8 ADD MSTORE PUSH1 0x8 SWAP1 SWAP3 ADD SLOAD PUSH2 0x140 DUP7 ADD MSTORE DUP5 MSTORE DUP7 DUP4 MSTORE PUSH1 0x13 DUP3 MSTORE DUP5 DUP4 KECCAK256 DUP6 MLOAD PUSH2 0x320 DUP2 ADD SWAP7 DUP8 SWAP1 MSTORE SWAP5 SWAP6 SWAP3 DUP7 ADD SWAP5 SWAP4 SWAP1 SWAP3 DUP5 SWAP3 DUP4 ADD SWAP2 DUP5 SWAP2 PUSH1 0x14 SWAP2 DUP4 SWAP1 DUP6 JUMPDEST DUP3 SLOAD PUSH2 0x100 DUP4 SWAP1 EXP SWAP1 DIV PUSH1 0xFF AND DUP2 MSTORE PUSH1 0x20 PUSH1 0x1 SWAP3 DUP4 ADD DUP2 DUP2 DIV SWAP5 DUP6 ADD SWAP5 SWAP1 SWAP4 SUB SWAP1 SWAP3 MUL SWAP2 ADD DUP1 DUP5 GT PUSH2 0x1899 JUMPI POP POP POP SWAP3 DUP5 MSTORE POP POP POP PUSH1 0x1 DUP3 ADD SLOAD PUSH1 0xFF AND PUSH1 0x20 DUP3 ADD MSTORE PUSH1 0x40 DUP1 MLOAD PUSH2 0x140 DUP2 ADD DUP1 DUP4 MSTORE SWAP2 SWAP1 SWAP3 ADD SWAP2 SWAP1 PUSH1 0x2 DUP5 ADD SWAP1 PUSH1 0xA SWAP1 DUP3 PUSH0 DUP6 JUMPDEST DUP3 SLOAD PUSH2 0x100 DUP4 SWAP1 EXP SWAP1 DIV PUSH1 0xFF AND DUP2 MSTORE PUSH1 0x20 PUSH1 0x1 SWAP3 DUP4 ADD DUP2 DUP2 DIV SWAP5 DUP6 ADD SWAP5 SWAP1 SWAP4 SUB SWAP1 SWAP3 MUL SWAP2 ADD DUP1 DUP5 GT PUSH2 0x18F9 JUMPI POP POP POP SWAP3 DUP5 MSTORE POP POP POP PUSH1 0x3 DUP3 ADD SLOAD PUSH1 0xFF AND PUSH1 0x20 DUP3 ADD MSTORE PUSH1 0x40 DUP1 MLOAD PUSH2 0x140 DUP2 ADD DUP1 DUP4 MSTORE SWAP2 SWAP1 SWAP3 ADD SWAP2 SWAP1 PUSH1 0x4 DUP5 ADD SWAP1 PUSH1 0xA SWAP1 DUP3 PUSH0 DUP6 JUMPDEST DUP3 SLOAD PUSH2 0x100 DUP4 SWAP1 EXP SWAP1 DIV PUSH1 0xFF AND DUP2 MSTORE PUSH1 0x20 PUSH1 0x1 SWAP3 DUP4 ADD DUP2 DUP2 DIV SWAP5 DUP6 ADD SWAP5 SWAP1 SWAP4 SUB SWAP1 SWAP3 MUL SWAP2 ADD DUP1 DUP5 GT PUSH2 0x1959 JUMPI POP POP POP SWAP3 SWAP1 SWAP4 MSTORE POP POP POP SWAP2 MSTORE POP SWAP3 SWAP2 POP POP JUMP JUMPDEST PUSH1 0x60 PUSH1 0x11 SLOAD DUP4 GT ISZERO PUSH2 0x19DC JUMPI PUSH1 0x40 DUP1 MLOAD PUSH0 DUP1 DUP3 MSTORE PUSH1 0x20 DUP3 ADD SWAP1 SWAP3 MSTORE SWAP1 PUSH2 0x19D4 JUMP JUMPDEST PUSH2 0x19C1 PUSH2 0x3272 JUMP JUMPDEST DUP2 MSTORE PUSH1 0x20 ADD SWAP1 PUSH1 0x1 SWAP1 SUB SWAP1 DUP2 PUSH2 0x19B9 JUMPI SWAP1 POP JUMPDEST POP SWAP1 POP PUSH2 0x1C83 JUMP JUMPDEST DUP3 ISZERO DUP1 ISZERO PUSH2 0x19E8 JUMPI POP DUP2 ISZERO JUMPDEST ISZERO PUSH2 0x19F3 JUMPI PUSH1 0x11 SLOAD SWAP2 POP JUMPDEST PUSH1 0x11 SLOAD PUSH2 0x1A00 DUP4 DUP6 PUSH2 0x3E2A JUMP JUMPDEST GT ISZERO PUSH2 0x1A17 JUMPI DUP3 PUSH1 0x11 SLOAD PUSH2 0x1A14 SWAP2 SWAP1 PUSH2 0x3E3D JUMP JUMPDEST SWAP2 POP JUMPDEST PUSH0 DUP3 PUSH8 0xFFFFFFFFFFFFFFFF DUP2 GT ISZERO PUSH2 0x1A31 JUMPI PUSH2 0x1A31 PUSH2 0x3368 JUMP JUMPDEST PUSH1 0x40 MLOAD SWAP1 DUP1 DUP3 MSTORE DUP1 PUSH1 0x20 MUL PUSH1 0x20 ADD DUP3 ADD PUSH1 0x40 MSTORE DUP1 ISZERO PUSH2 0x1A6A JUMPI DUP2 PUSH1 0x20 ADD JUMPDEST PUSH2 0x1A57 PUSH2 0x3272 JUMP JUMPDEST DUP2 MSTORE PUSH1 0x20 ADD SWAP1 PUSH1 0x1 SWAP1 SUB SWAP1 DUP2 PUSH2 0x1A4F JUMPI SWAP1 POP JUMPDEST POP SWAP1 POP PUSH0 JUMPDEST DUP4 DUP2 LT ISZERO PUSH2 0x1C7F JUMPI PUSH1 0x40 MLOAD DUP1 PUSH1 0x40 ADD PUSH1 0x40 MSTORE DUP1 PUSH1 0x12 PUSH0 DUP9 DUP6 PUSH1 0x11 SLOAD PUSH2 0x1A94 SWAP2 SWAP1 PUSH2 0x3E3D JUMP JUMPDEST PUSH2 0x1A9E SWAP2 SWAP1 PUSH2 0x3E3D JUMP JUMPDEST DUP2 MSTORE PUSH1 0x20 ADD SWAP1 DUP2 MSTORE PUSH1 0x20 ADD PUSH0 KECCAK256 PUSH1 0x40 MLOAD DUP1 PUSH2 0x120 ADD PUSH1 0x40 MSTORE SWAP1 DUP2 PUSH0 DUP3 ADD SLOAD DUP2 MSTORE PUSH1 0x20 ADD PUSH1 0x1 DUP3 ADD SLOAD DUP2 MSTORE PUSH1 0x20 ADD PUSH1 0x2 DUP3 ADD SLOAD DUP2 MSTORE PUSH1 0x20 ADD PUSH1 0x3 DUP3 ADD SLOAD DUP2 MSTORE PUSH1 0x20 ADD PUSH1 0x4 DUP3 ADD SLOAD DUP2 MSTORE PUSH1 0x20 ADD PUSH1 0x5 DUP3 ADD SLOAD DUP2 MSTORE PUSH1 0x20 ADD PUSH1 0x6 DUP3 ADD SLOAD DUP2 MSTORE PUSH1 0x20 ADD PUSH1 0x7 DUP3 ADD SLOAD DUP2 MSTORE PUSH1 0x20 ADD PUSH1 0x8 DUP3 ADD SLOAD DUP2 MSTORE POP POP DUP2 MSTORE PUSH1 0x20 ADD PUSH1 0x13 PUSH0 DUP9 DUP6 PUSH1 0x11 SLOAD PUSH2 0x1B27 SWAP2 SWAP1 PUSH2 0x3E3D JUMP JUMPDEST PUSH2 0x1B31 SWAP2 SWAP1 PUSH2 0x3E3D JUMP JUMPDEST DUP2 MSTORE PUSH1 0x20 DUP2 ADD SWAP2 SWAP1 SWAP2 MSTORE PUSH1 0x40 SWAP1 DUP2 ADD PUSH0 KECCAK256 DUP2 MLOAD PUSH2 0x320 DUP2 ADD SWAP1 SWAP3 MSTORE DUP2 PUSH1 0xA0 DUP2 ADD DUP3 PUSH1 0x14 DUP3 DUP3 DUP3 PUSH1 0x20 MUL DUP3 ADD SWAP2 PUSH0 SWAP1 JUMPDEST DUP3 SLOAD PUSH2 0x100 DUP4 SWAP1 EXP SWAP1 DIV PUSH1 0xFF AND DUP2 MSTORE PUSH1 0x20 PUSH1 0x1 SWAP3 DUP4 ADD DUP2 DUP2 DIV SWAP5 DUP6 ADD SWAP5 SWAP1 SWAP4 SUB SWAP1 SWAP3 MUL SWAP2 ADD DUP1 DUP5 GT PUSH2 0x1B60 JUMPI POP POP POP SWAP3 DUP5 MSTORE POP POP POP PUSH1 0x1 DUP3 ADD SLOAD PUSH1 0xFF AND PUSH1 0x20 DUP3 ADD MSTORE PUSH1 0x40 DUP1 MLOAD PUSH2 0x140 DUP2 ADD DUP1 DUP4 MSTORE SWAP2 SWAP1 SWAP3 ADD SWAP2 SWAP1 PUSH1 0x2 DUP5 ADD SWAP1 PUSH1 0xA SWAP1 DUP3 PUSH0 DUP6 JUMPDEST DUP3 SLOAD PUSH2 0x100 DUP4 SWAP1 EXP SWAP1 DIV PUSH1 0xFF AND DUP2 MSTORE PUSH1 0x20 PUSH1 0x1 SWAP3 DUP4 ADD DUP2 DUP2 DIV SWAP5 DUP6 ADD SWAP5 SWAP1 SWAP4 SUB SWAP1 SWAP3 MUL SWAP2 ADD DUP1 DUP5 GT PUSH2 0x1BC0 JUMPI POP POP POP SWAP3 DUP5 MSTORE POP POP POP PUSH1 0x3 DUP3 ADD SLOAD PUSH1 0xFF AND PUSH1 0x20 DUP3 ADD MSTORE PUSH1 0x40 DUP1 MLOAD PUSH2 0x140 DUP2 ADD DUP1 DUP4 MSTORE SWAP2 SWAP1 SWAP3 ADD SWAP2 SWAP1 PUSH1 0x4 DUP5 ADD SWAP1 PUSH1 0xA SWAP1 DUP3 PUSH0 DUP6 JUMPDEST DUP3 SLOAD PUSH2 0x100 DUP4 SWAP1 EXP SWAP1 DIV PUSH1 0xFF AND DUP2 MSTORE PUSH1 0x20 PUSH1 0x1 SWAP3 DUP4 ADD DUP2 DUP2 DIV SWAP5 DUP6 ADD SWAP5 SWAP1 SWAP4 SUB SWAP1 SWAP3 MUL SWAP2 ADD DUP1 DUP5 GT PUSH2 0x1C20 JUMPI SWAP1 POP POP POP POP POP POP DUP2 MSTORE POP POP DUP2 MSTORE POP DUP3 DUP3 DUP2 MLOAD DUP2 LT PUSH2 0x1C6C JUMPI PUSH2 0x1C6C PUSH2 0x3C76 JUMP JUMPDEST PUSH1 0x20 SWAP1 DUP2 MUL SWAP2 SWAP1 SWAP2 ADD ADD MSTORE PUSH1 0x1 ADD PUSH2 0x1A6F JUMP JUMPDEST POP SWAP1 POP JUMPDEST SWAP3 SWAP2 POP POP JUMP JUMPDEST PUSH1 0x3 SLOAD PUSH1 0x40 MLOAD PUSH32 0x8D1A4B2800000000000000000000000000000000000000000000000000000000 DUP2 MSTORE ADDRESS PUSH1 0x4 DUP3 ADD MSTORE PUSH0 SWAP2 DUP3 SWAP2 PUSH20 0xFFFFFFFFFFFFFFFFFFFFFFFFFFFFFFFFFFFFFFFF SWAP1 SWAP2 AND SWAP1 PUSH4 0x8D1A4B28 SWAP1 PUSH1 0x24 ADD PUSH0 PUSH1 0x40 MLOAD DUP1 DUP4 SUB DUP2 DUP7 GAS STATICCALL ISZERO DUP1 ISZERO PUSH2 0x1CF8 JUMPI RETURNDATASIZE PUSH0 DUP1 RETURNDATACOPY RETURNDATASIZE PUSH0 REVERT JUMPDEST POP POP POP POP PUSH1 0x40 MLOAD RETURNDATASIZE PUSH0 DUP3 RETURNDATACOPY PUSH1 0x1F RETURNDATASIZE SWAP1 DUP2 ADD PUSH32 0xFFFFFFFFFFFFFFFFFFFFFFFFFFFFFFFFFFFFFFFFFFFFFFFFFFFFFFFFFFFFFFE0 AND DUP3 ADD PUSH1 0x40 MSTORE PUSH2 0x1D3D SWAP2 SWAP1 DUP2 ADD SWAP1 PUSH2 0x3E60 JUMP JUMPDEST PUSH1 0x80 ADD MLOAD SWAP3 SWAP2 POP POP JUMP JUMPDEST PUSH20 0xFFFFFFFFFFFFFFFFFFFFFFFFFFFFFFFFFFFFFFFF DUP1 DUP3 AND PUSH0 DUP2 DUP2 MSTORE PUSH1 0xF PUSH1 0x20 SWAP1 DUP2 MSTORE PUSH1 0x40 DUP1 DUP4 KECCAK256 SLOAD DUP1 DUP5 MSTORE PUSH1 0xE SWAP1 SWAP3 MSTORE DUP3 KECCAK256 PUSH1 0x1 ADD SLOAD SWAP2 SWAP4 SWAP1 SWAP3 SWAP2 AND EQ PUSH2 0x1D91 JUMPI POP PUSH0 SWAP3 SWAP2 POP POP JUMP JUMPDEST PUSH0 SWAP1 DUP2 MSTORE PUSH1 0xE PUSH1 0x20 MSTORE PUSH1 0x40 SWAP1 KECCAK256 PUSH1 0x2 ADD SLOAD SWAP3 SWAP2 POP POP JUMP JUMPDEST PUSH1 0x4 SLOAD PUSH20 0xFFFFFFFFFFFFFFFFFFFFFFFFFFFFFFFFFFFFFFFF AND CALLER EQ PUSH2 0x1E29 JUMPI PUSH1 0x40 MLOAD PUSH32 0x8C379A000000000000000000000000000000000000000000000000000000000 DUP2 MSTORE PUSH1 0x20 PUSH1 0x4 DUP3 ADD MSTORE PUSH1 0xA PUSH1 0x24 DUP3 ADD MSTORE PUSH32 0x4F6E6C79206F776E657200000000000000000000000000000000000000000000 PUSH1 0x44 DUP3 ADD MSTORE PUSH1 0x64 ADD PUSH2 0x8A9 JUMP JUMPDEST PUSH1 0x3 DUP1 SLOAD PUSH32 0xFFFFFFFFFFFFFFFFFFFFFFFF0000000000000000000000000000000000000000 AND PUSH20 0xFFFFFFFFFFFFFFFFFFFFFFFFFFFFFFFFFFFFFFFF SWAP3 SWAP1 SWAP3 AND SWAP2 SWAP1 SWAP2 OR SWAP1 SSTORE JUMP JUMPDEST PUSH1 0x4 SLOAD PUSH20 0xFFFFFFFFFFFFFFFFFFFFFFFFFFFFFFFFFFFFFFFF AND CALLER EQ PUSH2 0x1EF1 JUMPI PUSH1 0x40 MLOAD PUSH32 0x8C379A000000000000000000000000000000000000000000000000000000000 DUP2 MSTORE PUSH1 0x20 PUSH1 0x4 DUP3 ADD MSTORE PUSH1 0xA PUSH1 0x24 DUP3 ADD MSTORE PUSH32 0x4F6E6C79206F776E657200000000000000000000000000000000000000000000 PUSH1 0x44 DUP3 ADD MSTORE PUSH1 0x64 ADD PUSH2 0x8A9 JUMP JUMPDEST PUSH1 0x4 DUP1 SLOAD PUSH32 0xFFFFFFFFFFFFFFFFFFFFFFFF0000000000000000000000000000000000000000 AND PUSH20 0xFFFFFFFFFFFFFFFFFFFFFFFFFFFFFFFFFFFFFFFF SWAP3 SWAP1 SWAP3 AND SWAP2 SWAP1 SWAP2 OR SWAP1 SSTORE JUMP JUMPDEST PUSH20 0xFFFFFFFFFFFFFFFFFFFFFFFFFFFFFFFFFFFFFFFF DUP1 DUP5 AND PUSH0 DUP2 DUP2 MSTORE PUSH1 0xF PUSH1 0x20 SWAP1 DUP2 MSTORE PUSH1 0x40 DUP1 DUP4 KECCAK256 SLOAD DUP1 DUP5 MSTORE PUSH1 0xE SWAP1 SWAP3 MSTORE SWAP1 SWAP2 KECCAK256 PUSH1 0x1 ADD SLOAD PUSH1 0x60 SWAP4 SWAP2 SWAP3 SWAP2 AND EQ PUSH2 0x1FB5 JUMPI PUSH1 0x40 DUP1 MLOAD PUSH0 DUP1 DUP3 MSTORE PUSH1 0x20 DUP3 ADD SWAP1 SWAP3 MSTORE SWAP1 PUSH2 0x1FAC JUMP JUMPDEST PUSH2 0x1F99 PUSH2 0x3272 JUMP JUMPDEST DUP2 MSTORE PUSH1 0x20 ADD SWAP1 PUSH1 0x1 SWAP1 SUB SWAP1 DUP2 PUSH2 0x1F91 JUMPI SWAP1 POP JUMPDEST POP SWAP2 POP POP PUSH2 0x232B JUMP JUMPDEST DUP4 ISZERO DUP1 ISZERO PUSH2 0x1FC1 JUMPI POP DUP3 ISZERO JUMPDEST ISZERO PUSH2 0x1FDA JUMPI PUSH0 DUP2 DUP2 MSTORE PUSH1 0xE PUSH1 0x20 MSTORE PUSH1 0x40 SWAP1 KECCAK256 PUSH1 0x2 ADD SLOAD SWAP3 POP JUMPDEST PUSH0 DUP2 DUP2 MSTORE PUSH1 0xE PUSH1 0x20 MSTORE PUSH1 0x40 SWAP1 KECCAK256 PUSH1 0x2 ADD SLOAD DUP5 GT ISZERO PUSH2 0x202A JUMPI PUSH1 0x40 DUP1 MLOAD PUSH0 DUP1 DUP3 MSTORE PUSH1 0x20 DUP3 ADD SWAP1 SWAP3 MSTORE SWAP1 PUSH2 0x1FAC JUMP JUMPDEST PUSH2 0x200F PUSH2 0x3272 JUMP JUMPDEST DUP2 MSTORE PUSH1 0x20 ADD SWAP1 PUSH1 0x1 SWAP1 SUB SWAP1 DUP2 PUSH2 0x2007 JUMPI SWAP1 POP POP SWAP2 POP POP PUSH2 0x232B JUMP JUMPDEST PUSH0 DUP2 DUP2 MSTORE PUSH1 0xE PUSH1 0x20 MSTORE PUSH1 0x40 SWAP1 KECCAK256 PUSH1 0x2 ADD SLOAD PUSH2 0x2045 DUP5 DUP7 PUSH2 0x3E2A JUMP JUMPDEST GT ISZERO PUSH2 0x206A JUMPI PUSH0 DUP2 DUP2 MSTORE PUSH1 0xE PUSH1 0x20 MSTORE PUSH1 0x40 SWAP1 KECCAK256 PUSH1 0x2 ADD SLOAD PUSH2 0x2067 SWAP1 DUP6 SWAP1 PUSH2 0x3E3D JUMP JUMPDEST SWAP3 POP JUMPDEST PUSH0 DUP4 PUSH8 0xFFFFFFFFFFFFFFFF DUP2 GT ISZERO PUSH2 0x2084 JUMPI PUSH2 0x2084 PUSH2 0x3368 JUMP JUMPDEST PUSH1 0x40 MLOAD SWAP1 DUP1 DUP3 MSTORE DUP1 PUSH1 0x20 MUL PUSH1 0x20 ADD DUP3 ADD PUSH1 0x40 MSTORE DUP1 ISZERO PUSH2 0x20BD JUMPI DUP2 PUSH1 0x20 ADD JUMPDEST PUSH2 0x20AA PUSH2 0x3272 JUMP JUMPDEST DUP2 MSTORE PUSH1 0x20 ADD SWAP1 PUSH1 0x1 SWAP1 SUB SWAP1 DUP2 PUSH2 0x20A2 JUMPI SWAP1 POP JUMPDEST POP SWAP1 POP PUSH0 JUMPDEST DUP5 DUP2 LT ISZERO PUSH2 0x2326 JUMPI PUSH1 0x40 DUP1 MLOAD DUP1 DUP3 ADD DUP3 MSTORE PUSH0 DUP6 DUP2 MSTORE PUSH1 0x10 PUSH1 0x20 SWAP1 DUP2 MSTORE DUP4 DUP3 KECCAK256 PUSH1 0xE SWAP1 SWAP2 MSTORE SWAP3 DUP2 KECCAK256 PUSH1 0x2 ADD SLOAD SWAP2 SWAP3 DUP4 SWAP3 PUSH1 0x12 SWAP3 SWAP2 SWAP1 DUP3 SWAP1 DUP13 SWAP1 PUSH2 0x2105 SWAP1 DUP10 SWAP1 PUSH2 0x3E3D JUMP JUMPDEST PUSH2 0x210F SWAP2 SWAP1 PUSH2 0x3E3D JUMP JUMPDEST DUP2 MSTORE PUSH1 0x20 DUP1 DUP3 ADD SWAP3 SWAP1 SWAP3 MSTORE PUSH1 0x40 SWAP1 DUP2 ADD PUSH0 SWAP1 DUP2 KECCAK256 SLOAD DUP5 MSTORE DUP4 DUP4 ADD SWAP5 SWAP1 SWAP5 MSTORE SWAP2 DUP3 ADD DUP4 KECCAK256 DUP3 MLOAD PUSH2 0x120 DUP2 ADD DUP5 MSTORE DUP2 SLOAD DUP2 MSTORE PUSH1 0x1 DUP3 ADD SLOAD DUP2 DUP5 ADD MSTORE PUSH1 0x2 DUP1 DUP4 ADD SLOAD DUP3 DUP7 ADD MSTORE PUSH1 0x3 DUP4 ADD SLOAD PUSH1 0x60 DUP4 ADD MSTORE PUSH1 0x4 DUP4 ADD SLOAD PUSH1 0x80 DUP4 ADD MSTORE PUSH1 0x5 DUP4 ADD SLOAD PUSH1 0xA0 DUP4 ADD MSTORE PUSH1 0x6 DUP4 ADD SLOAD PUSH1 0xC0 DUP4 ADD MSTORE PUSH1 0x7 DUP4 ADD SLOAD PUSH1 0xE0 DUP4 ADD MSTORE PUSH1 0x8 SWAP1 SWAP3 ADD SLOAD PUSH2 0x100 DUP3 ADD MSTORE DUP6 MSTORE DUP9 DUP5 MSTORE PUSH1 0x10 DUP3 MSTORE DUP3 DUP5 KECCAK256 PUSH1 0xE DUP4 MSTORE SWAP3 DUP5 KECCAK256 ADD SLOAD SWAP4 ADD SWAP3 PUSH1 0x13 SWAP3 SWAP2 SWAP1 DUP3 SWAP1 DUP13 SWAP1 PUSH2 0x21BC SWAP1 DUP10 SWAP1 PUSH2 0x3E3D JUMP JUMPDEST PUSH2 0x21C6 SWAP2 SWAP1 PUSH2 0x3E3D JUMP JUMPDEST DUP2 MSTORE PUSH1 0x20 DUP1 DUP3 ADD SWAP3 SWAP1 SWAP3 MSTORE PUSH1 0x40 SWAP1 DUP2 ADD PUSH0 SWAP1 DUP2 KECCAK256 SLOAD DUP5 MSTORE SWAP2 DUP4 ADD SWAP4 SWAP1 SWAP4 MSTORE SWAP1 DUP3 ADD SWAP1 KECCAK256 DUP2 MLOAD PUSH2 0x320 DUP2 ADD SWAP1 SWAP3 MSTORE DUP2 PUSH1 0xA0 DUP2 ADD DUP3 PUSH1 0x14 DUP3 DUP3 DUP3 PUSH1 0x20 MUL DUP3 ADD SWAP2 PUSH0 SWAP1 JUMPDEST DUP3 SLOAD PUSH2 0x100 DUP4 SWAP1 EXP SWAP1 DIV PUSH1 0xFF AND DUP2 MSTORE PUSH1 0x20 PUSH1 0x1 SWAP3 DUP4 ADD DUP2 DUP2 DIV SWAP5 DUP6 ADD SWAP5 SWAP1 SWAP4 SUB SWAP1 SWAP3 MUL SWAP2 ADD DUP1 DUP5 GT PUSH2 0x2207 JUMPI POP POP POP SWAP3 DUP5 MSTORE POP POP POP PUSH1 0x1 DUP3 ADD SLOAD PUSH1 0xFF AND PUSH1 0x20 DUP3 ADD MSTORE PUSH1 0x40 DUP1 MLOAD PUSH2 0x140 DUP2 ADD DUP1 DUP4 MSTORE SWAP2 SWAP1 SWAP3 ADD SWAP2 SWAP1 PUSH1 0x2 DUP5 ADD SWAP1 PUSH1 0xA SWAP1 DUP3 PUSH0 DUP6 JUMPDEST DUP3 SLOAD PUSH2 0x100 DUP4 SWAP1 EXP SWAP1 DIV PUSH1 0xFF AND DUP2 MSTORE PUSH1 0x20 PUSH1 0x1 SWAP3 DUP4 ADD DUP2 DUP2 DIV SWAP5 DUP6 ADD SWAP5 SWAP1 SWAP4 SUB SWAP1 SWAP3 MUL SWAP2 ADD DUP1 DUP5 GT PUSH2 0x2267 JUMPI POP POP POP SWAP3 DUP5 MSTORE POP POP POP PUSH1 0x3 DUP3 ADD SLOAD PUSH1 0xFF AND PUSH1 0x20 DUP3 ADD MSTORE PUSH1 0x40 DUP1 MLOAD PUSH2 0x140 DUP2 ADD DUP1 DUP4 MSTORE SWAP2 SWAP1 SWAP3 ADD SWAP2 SWAP1 PUSH1 0x4 DUP5 ADD SWAP1 PUSH1 0xA SWAP1 DUP3 PUSH0 DUP6 JUMPDEST DUP3 SLOAD PUSH2 0x100 DUP4 SWAP1 EXP SWAP1 DIV PUSH1 0xFF AND DUP2 MSTORE PUSH1 0x20 PUSH1 0x1 SWAP3 DUP4 ADD DUP2 DUP2 DIV SWAP5 DUP6 ADD SWAP5 SWAP1 SWAP4 SUB SWAP1 SWAP3 MUL SWAP2 ADD DUP1 DUP5 GT PUSH2 0x22C7 JUMPI SWAP1 POP POP POP POP POP POP DUP2 MSTORE POP POP DUP2 MSTORE POP DUP3 DUP3 DUP2 MLOAD DUP2 LT PUSH2 0x2313 JUMPI PUSH2 0x2313 PUSH2 0x3C76 JUMP JUMPDEST PUSH1 0x20 SWAP1 DUP2 MUL SWAP2 SWAP1 SWAP2 ADD ADD MSTORE PUSH1 0x1 ADD PUSH2 0x20C2 JUMP JUMPDEST POP SWAP2 POP POP JUMPDEST SWAP4 SWAP3 POP POP POP JUMP JUMPDEST PUSH1 0x16 DUP2 DUP2 SLOAD DUP2 LT PUSH2 0x2341 JUMPI PUSH0 DUP1 REVERT JUMPDEST PUSH0 SWAP2 DUP3 MSTORE PUSH1 0x20 SWAP1 SWAP2 KECCAK256 PUSH1 0x3 SWAP1 SWAP2 MUL ADD DUP1 SLOAD PUSH1 0x1 DUP3 ADD SLOAD PUSH1 0x2 SWAP1 SWAP3 ADD SLOAD SWAP1 SWAP3 POP DUP4 JUMP JUMPDEST PUSH1 0x2 PUSH0 SLOAD SUB PUSH2 0x23CE JUMPI PUSH1 0x40 MLOAD PUSH32 0x8C379A000000000000000000000000000000000000000000000000000000000 DUP2 MSTORE PUSH1 0x20 PUSH1 0x4 DUP3 ADD MSTORE PUSH1 0x1F PUSH1 0x24 DUP3 ADD MSTORE PUSH32 0x5265656E7472616E637947756172643A207265656E7472616E742063616C6C00 PUSH1 0x44 DUP3 ADD MSTORE PUSH1 0x64 ADD PUSH2 0x8A9 JUMP JUMPDEST PUSH1 0x2 PUSH0 SSTORE JUMP JUMPDEST PUSH2 0x23DD DUP7 PUSH2 0x2BBD JUMP JUMPDEST PUSH1 0x1 DUP6 MLOAD LT ISZERO DUP1 ISZERO PUSH2 0x23F1 JUMPI POP PUSH1 0xA DUP6 MLOAD GT ISZERO JUMPDEST ISZERO PUSH2 0x2BB5 JUMPI PUSH2 0x23FF DUP6 PUSH2 0x2CDC JUMP JUMPDEST PUSH2 0x2BB5 JUMPI PUSH1 0x6 SLOAD DUP2 LT ISZERO DUP1 ISZERO PUSH2 0x2417 JUMPI POP PUSH1 0x7 SLOAD DUP2 GT ISZERO JUMPDEST ISZERO PUSH2 0x2BB5 JUMPI PUSH1 0x3 SLOAD PUSH1 0x40 MLOAD PUSH32 0xC084B10B00000000000000000000000000000000000000000000000000000000 DUP2 MSTORE PUSH20 0xFFFFFFFFFFFFFFFFFFFFFFFFFFFFFFFFFFFFFFFF DUP9 DUP2 AND PUSH1 0x4 DUP4 ADD MSTORE DUP4 SWAP3 AND SWAP1 PUSH4 0xC084B10B SWAP1 PUSH1 0x24 ADD PUSH1 0x20 PUSH1 0x40 MLOAD DUP1 DUP4 SUB DUP2 DUP7 GAS STATICCALL ISZERO DUP1 ISZERO PUSH2 0x248A JUMPI RETURNDATASIZE PUSH0 DUP1 RETURNDATACOPY RETURNDATASIZE PUSH0 REVERT JUMPDEST POP POP POP POP PUSH1 0x40 MLOAD RETURNDATASIZE PUSH1 0x1F NOT PUSH1 0x1F DUP3 ADD AND DUP3 ADD DUP1 PUSH1 0x40 MSTORE POP DUP2 ADD SWAP1 PUSH2 0x24AE SWAP2 SWAP1 PUSH2 0x3DBD JUMP JUMPDEST LT PUSH2 0x2BB5 JUMPI PUSH20 0xFFFFFFFFFFFFFFFFFFFFFFFFFFFFFFFFFFFFFFFF DUP7 AND PUSH0 SWAP1 DUP2 MSTORE PUSH1 0xF PUSH1 0x20 SWAP1 DUP2 MSTORE PUSH1 0x40 DUP1 DUP4 KECCAK256 SLOAD DUP4 MSTORE PUSH1 0xE SWAP1 SWAP2 MSTORE DUP2 KECCAK256 PUSH1 0x11 DUP1 SLOAD SWAP2 SWAP3 PUSH2 0x24F3 DUP4 PUSH2 0x3F49 JUMP JUMPDEST SWAP1 SWAP2 SSTORE POP POP PUSH1 0x11 SLOAD PUSH1 0x40 DUP1 MLOAD PUSH2 0x120 DUP2 ADD DUP3 MSTORE DUP3 DUP2 MSTORE DUP4 SLOAD PUSH1 0x20 DUP1 DUP4 ADD SWAP2 DUP3 MSTORE DUP3 DUP5 ADD DUP11 DUP2 MSTORE PUSH1 0x60 DUP5 ADD DUP11 DUP2 MSTORE PUSH1 0x80 DUP6 ADD DUP11 DUP2 MSTORE TIMESTAMP PUSH1 0xA0 DUP8 ADD SWAP1 DUP2 MSTORE PUSH1 0xC0 DUP8 ADD DUP12 DUP2 MSTORE PUSH0 PUSH1 0xE0 DUP10 ADD DUP2 DUP2 MSTORE PUSH2 0x100 DUP11 ADD DUP3 DUP2 MSTORE DUP13 DUP4 MSTORE PUSH1 0x12 DUP10 MSTORE DUP12 DUP4 KECCAK256 SWAP11 MLOAD DUP12 SSTORE SWAP9 MLOAD PUSH1 0x1 DUP1 DUP13 ADD SWAP2 SWAP1 SWAP2 SSTORE SWAP7 MLOAD PUSH1 0x2 DUP12 ADD SSTORE SWAP5 MLOAD PUSH1 0x3 DUP11 ADD SSTORE SWAP3 MLOAD PUSH1 0x4 DUP10 ADD SSTORE SWAP1 MLOAD PUSH1 0x5 DUP9 ADD SSTORE MLOAD PUSH1 0x6 DUP8 ADD SSTORE SWAP1 MLOAD PUSH1 0x7 DUP7 ADD SSTORE SWAP3 MLOAD PUSH1 0x8 DUP6 ADD SSTORE DUP12 MLOAD PUSH1 0x13 SWAP1 SWAP3 MSTORE SWAP4 DUP3 KECCAK256 SWAP1 SWAP4 ADD DUP1 SLOAD PUSH32 0xFFFFFFFFFFFFFFFFFFFFFFFFFFFFFFFFFFFFFFFFFFFFFFFFFFFFFFFFFFFFFF00 AND PUSH1 0xFF SWAP1 SWAP5 AND SWAP4 SWAP1 SWAP4 OR SWAP1 SWAP3 SSTORE SWAP1 JUMPDEST DUP9 MLOAD DUP2 PUSH1 0xFF AND LT ISZERO PUSH2 0x2652 JUMPI DUP9 DUP2 PUSH1 0xFF AND DUP2 MLOAD DUP2 LT PUSH2 0x25EF JUMPI PUSH2 0x25EF PUSH2 0x3C76 JUMP JUMPDEST PUSH1 0x20 MUL PUSH1 0x20 ADD ADD MLOAD PUSH1 0x13 PUSH0 DUP6 DUP2 MSTORE PUSH1 0x20 ADD SWAP1 DUP2 MSTORE PUSH1 0x20 ADD PUSH0 KECCAK256 PUSH1 0x2 ADD DUP3 PUSH1 0xFF AND PUSH1 0xA DUP2 LT PUSH2 0x261F JUMPI PUSH2 0x261F PUSH2 0x3C76 JUMP JUMPDEST PUSH1 0x20 SWAP2 DUP3 DUP3 DIV ADD SWAP2 SWAP1 MOD PUSH2 0x100 EXP DUP2 SLOAD DUP2 PUSH1 0xFF MUL NOT AND SWAP1 DUP4 PUSH1 0xFF AND MUL OR SWAP1 SSTORE POP DUP1 DUP1 PUSH2 0x264A SWAP1 PUSH2 0x3DD4 JUMP JUMPDEST SWAP2 POP POP PUSH2 0x25CE JUMP JUMPDEST POP PUSH1 0x40 DUP1 MLOAD PUSH1 0x20 DUP1 DUP3 ADD DUP10 SWAP1 MSTORE DUP2 DUP4 ADD DUP11 SWAP1 MSTORE DUP3 MLOAD DUP1 DUP4 SUB DUP5 ADD DUP2 MSTORE PUSH1 0x60 SWAP1 SWAP3 ADD SWAP1 SWAP3 MSTORE DUP1 MLOAD SWAP2 ADD KECCAK256 PUSH0 PUSH2 0x268B DUP3 PUSH1 0x1 PUSH1 0x46 PUSH1 0x14 PUSH2 0x2D70 JUMP JUMPDEST PUSH0 DUP6 DUP2 MSTORE PUSH1 0x13 PUSH1 0x20 MSTORE PUSH1 0x40 SWAP1 KECCAK256 SWAP1 SWAP2 POP PUSH2 0x26A3 PUSH2 0x32CF JUMP JUMPDEST PUSH0 DUP7 DUP2 MSTORE PUSH1 0x13 PUSH1 0x20 MSTORE PUSH1 0x40 DUP2 KECCAK256 PUSH1 0x1 ADD SLOAD PUSH1 0xFF AND SWAP1 JUMPDEST DUP2 PUSH1 0xFF AND DUP2 PUSH1 0xFF AND LT ISZERO PUSH2 0x2728 JUMPI PUSH0 DUP9 DUP2 MSTORE PUSH1 0x13 PUSH1 0x20 MSTORE PUSH1 0x40 SWAP1 KECCAK256 PUSH1 0x1 SWAP1 DUP5 SWAP1 PUSH1 0x2 ADD PUSH1 0xFF DUP5 AND PUSH1 0xA DUP2 LT PUSH2 0x26F0 JUMPI PUSH2 0x26F0 PUSH2 0x3C76 JUMP JUMPDEST PUSH1 0x20 DUP2 DIV SWAP1 SWAP2 ADD SLOAD PUSH1 0xFF PUSH1 0x1F SWAP1 SWAP3 AND PUSH2 0x100 EXP SWAP1 DIV AND PUSH1 0x47 DUP2 LT PUSH2 0x2716 JUMPI PUSH2 0x2716 PUSH2 0x3C76 JUMP JUMPDEST SWAP2 ISZERO ISZERO PUSH1 0x20 SWAP1 SWAP3 MUL ADD MSTORE PUSH1 0x1 ADD PUSH2 0x26B9 JUMP JUMPDEST POP PUSH0 DUP1 JUMPDEST PUSH1 0x14 PUSH1 0xFF DUP3 AND LT ISZERO PUSH2 0x2837 JUMPI PUSH0 DUP7 DUP3 PUSH1 0xFF AND DUP2 MLOAD DUP2 LT PUSH2 0x274E JUMPI PUSH2 0x274E PUSH2 0x3C76 JUMP JUMPDEST PUSH1 0x20 MUL PUSH1 0x20 ADD ADD MLOAD SWAP1 POP DUP1 DUP7 PUSH0 ADD DUP4 PUSH1 0xFF AND PUSH1 0x14 DUP2 LT PUSH2 0x2770 JUMPI PUSH2 0x2770 PUSH2 0x3C76 JUMP JUMPDEST PUSH1 0x20 DUP1 DUP3 DIV SWAP1 SWAP3 ADD DUP1 SLOAD PUSH1 0xFF SWAP5 DUP6 AND PUSH1 0x1F SWAP1 SWAP4 AND PUSH2 0x100 EXP SWAP3 DUP4 MUL SWAP3 DUP6 MUL NOT AND SWAP2 SWAP1 SWAP2 OR SWAP1 SSTORE SWAP1 DUP3 AND PUSH0 SWAP1 DUP2 MSTORE PUSH1 0x15 SWAP1 SWAP2 MSTORE PUSH1 0x40 DUP2 KECCAK256 DUP1 SLOAD SWAP2 PUSH2 0x27B2 DUP4 PUSH2 0x3F49 JUMP JUMPDEST SWAP2 SWAP1 POP SSTORE POP PUSH1 0x46 DUP2 PUSH1 0xFF AND GT ISZERO DUP1 ISZERO PUSH2 0x27E1 JUMPI POP DUP5 DUP2 PUSH1 0xFF AND PUSH1 0x47 DUP2 LT PUSH2 0x27DB JUMPI PUSH2 0x27DB PUSH2 0x3C76 JUMP JUMPDEST PUSH1 0x20 MUL ADD MLOAD JUMPDEST ISZERO PUSH2 0x282E JUMPI DUP1 DUP7 PUSH1 0x4 ADD DUP5 PUSH1 0xFF AND PUSH1 0xA DUP2 LT PUSH2 0x27FF JUMPI PUSH2 0x27FF PUSH2 0x3C76 JUMP JUMPDEST PUSH1 0x20 SWAP2 DUP3 DUP3 DIV ADD SWAP2 SWAP1 MOD PUSH2 0x100 EXP DUP2 SLOAD DUP2 PUSH1 0xFF MUL NOT AND SWAP1 DUP4 PUSH1 0xFF AND MUL OR SWAP1 SSTORE POP DUP3 DUP1 PUSH2 0x282A SWAP1 PUSH2 0x3DD4 JUMP JUMPDEST SWAP4 POP POP JUMPDEST POP PUSH1 0x1 ADD PUSH2 0x272C JUMP JUMPDEST POP PUSH1 0x3 DUP5 ADD DUP1 SLOAD PUSH32 0xFFFFFFFFFFFFFFFFFFFFFFFFFFFFFFFFFFFFFFFFFFFFFFFFFFFFFFFFFFFFFF00 AND PUSH1 0xFF DUP4 DUP2 AND SWAP2 DUP3 OR SWAP1 SWAP3 SSTORE PUSH1 0x1 DUP7 ADD SLOAD SWAP1 SWAP2 AND PUSH0 SWAP1 DUP2 MSTORE PUSH1 0x14 PUSH1 0x20 SWAP1 DUP2 MSTORE PUSH1 0x40 DUP1 DUP4 KECCAK256 SWAP4 DUP4 MSTORE SWAP3 SWAP1 MSTORE KECCAK256 SLOAD PUSH1 0x7 DUP9 ADD DUP2 SWAP1 SSTORE PUSH1 0x6 DUP9 ADD SLOAD PUSH1 0x64 SWAP2 PUSH2 0x28A3 SWAP2 PUSH2 0x3F80 JUMP JUMPDEST PUSH2 0x28AD SWAP2 SWAP1 PUSH2 0x3FC4 JUMP JUMPDEST PUSH1 0x8 DUP9 ADD DUP2 SWAP1 SSTORE ISZERO PUSH2 0x29C6 JUMPI PUSH1 0x7 DUP10 ADD DUP1 SLOAD SWAP1 PUSH0 PUSH2 0x28CA DUP4 PUSH2 0x3F49 JUMP JUMPDEST SWAP2 SWAP1 POP SSTORE POP DUP7 PUSH1 0x8 ADD SLOAD DUP10 PUSH1 0x5 ADD PUSH0 DUP3 DUP3 SLOAD PUSH2 0x28E6 SWAP2 SWAP1 PUSH2 0x3E2A JUMP JUMPDEST SWAP1 SWAP2 SSTORE POP POP PUSH1 0x8 DUP8 ADD SLOAD PUSH1 0xA DUP1 SLOAD PUSH0 SWAP1 PUSH2 0x2901 SWAP1 DUP5 SWAP1 PUSH2 0x3E2A JUMP JUMPDEST SWAP1 SWAP2 SSTORE POP POP PUSH1 0xB DUP1 SLOAD SWAP1 PUSH0 PUSH2 0x2915 DUP4 PUSH2 0x3F49 JUMP JUMPDEST SWAP1 SWAP2 SSTORE POP POP PUSH1 0x3 SLOAD PUSH1 0x1 DUP11 ADD SLOAD PUSH1 0x8 DUP10 ADD SLOAD PUSH1 0x40 MLOAD PUSH32 0x9546717700000000000000000000000000000000000000000000000000000000 DUP2 MSTORE PUSH20 0xFFFFFFFFFFFFFFFFFFFFFFFFFFFFFFFFFFFFFFFF SWAP3 DUP4 AND PUSH1 0x4 DUP3 ADD MSTORE PUSH1 0x24 DUP2 ADD SWAP2 SWAP1 SWAP2 MSTORE SWAP2 AND SWAP1 PUSH4 0x95467177 SWAP1 PUSH1 0x44 ADD PUSH0 PUSH1 0x40 MLOAD DUP1 DUP4 SUB DUP2 PUSH0 DUP8 DUP1 EXTCODESIZE ISZERO DUP1 ISZERO PUSH2 0x2995 JUMPI PUSH0 DUP1 REVERT JUMPDEST POP GAS CALL ISZERO DUP1 ISZERO PUSH2 0x29A7 JUMPI RETURNDATASIZE PUSH0 DUP1 RETURNDATACOPY RETURNDATASIZE PUSH0 REVERT JUMPDEST POP POP POP POP PUSH2 0x29C1 DUP8 PUSH0 ADD SLOAD DUP9 PUSH1 0x8 ADD SLOAD DUP10 PUSH1 0x5 ADD SLOAD PUSH2 0x304A JUMP JUMPDEST PUSH2 0x2A28 JUMP JUMPDEST PUSH1 0x6 DUP10 ADD DUP1 SLOAD SWAP1 PUSH0 PUSH2 0x29D7 DUP4 PUSH2 0x3F49 JUMP JUMPDEST SWAP2 SWAP1 POP SSTORE POP DUP7 PUSH1 0x6 ADD SLOAD DUP10 PUSH1 0x4 ADD PUSH0 DUP3 DUP3 SLOAD PUSH2 0x29F3 SWAP2 SWAP1 PUSH2 0x3E2A JUMP JUMPDEST SWAP1 SWAP2 SSTORE POP POP PUSH1 0x6 DUP8 ADD SLOAD PUSH1 0x9 DUP1 SLOAD PUSH0 SWAP1 PUSH2 0x2A0E SWAP1 DUP5 SWAP1 PUSH2 0x3E2A JUMP JUMPDEST SWAP1 SWAP2 SSTORE POP POP PUSH1 0xC DUP1 SLOAD SWAP1 PUSH0 PUSH2 0x2A22 DUP4 PUSH2 0x3F49 JUMP JUMPDEST SWAP2 SWAP1 POP SSTORE POP JUMPDEST PUSH1 0x3 SLOAD PUSH1 0x1 DUP11 ADD SLOAD PUSH1 0x40 MLOAD PUSH32 0xF0A507DA00000000000000000000000000000000000000000000000000000000 DUP2 MSTORE PUSH20 0xFFFFFFFFFFFFFFFFFFFFFFFFFFFFFFFFFFFFFFFF SWAP2 DUP3 AND PUSH1 0x4 DUP3 ADD MSTORE PUSH1 0x24 DUP2 ADD DUP14 SWAP1 MSTORE SWAP2 AND SWAP1 PUSH4 0xF0A507DA SWAP1 PUSH1 0x44 ADD PUSH0 PUSH1 0x40 MLOAD DUP1 DUP4 SUB DUP2 PUSH0 DUP8 DUP1 EXTCODESIZE ISZERO DUP1 ISZERO PUSH2 0x2A9D JUMPI PUSH0 DUP1 REVERT JUMPDEST POP GAS CALL ISZERO DUP1 ISZERO PUSH2 0x2AAF JUMPI RETURNDATASIZE PUSH0 DUP1 RETURNDATACOPY RETURNDATASIZE PUSH0 REVERT JUMPDEST POP POP POP POP DUP10 DUP8 PUSH1 0x8 ADD SLOAD GT ISZERO PUSH2 0x2B3F JUMPI PUSH1 0x3 SLOAD PUSH1 0x40 MLOAD PUSH32 0x2EDCBD6000000000000000000000000000000000000000000000000000000000 DUP2 MSTORE PUSH1 0x4 DUP2 ADD DUP13 SWAP1 MSTORE PUSH20 0xFFFFFFFFFFFFFFFFFFFFFFFFFFFFFFFFFFFFFFFF SWAP1 SWAP2 AND SWAP1 PUSH4 0x2EDCBD60 SWAP1 PUSH1 0x24 ADD PUSH0 PUSH1 0x40 MLOAD DUP1 DUP4 SUB DUP2 PUSH0 DUP8 DUP1 EXTCODESIZE ISZERO DUP1 ISZERO PUSH2 0x2B28 JUMPI PUSH0 DUP1 REVERT JUMPDEST POP GAS CALL ISZERO DUP1 ISZERO PUSH2 0x2B3A JUMPI RETURNDATASIZE PUSH0 DUP1 RETURNDATACOPY RETURNDATASIZE PUSH0 REVERT JUMPDEST POP POP POP POP JUMPDEST PUSH1 0x2 DUP10 ADD DUP1 SLOAD SWAP1 PUSH0 PUSH2 0x2B50 DUP4 PUSH2 0x3F49 JUMP JUMPDEST SWAP2 SWAP1 POP SSTORE POP DUP10 DUP10 PUSH1 0x3 ADD PUSH0 DUP3 DUP3 SLOAD PUSH2 0x2B68 SWAP2 SWAP1 PUSH2 0x3E2A JUMP JUMPDEST SWAP1 SWAP2 SSTORE POP POP DUP9 SLOAD PUSH0 SWAP1 DUP2 MSTORE PUSH1 0x10 PUSH1 0x20 SWAP1 DUP2 MSTORE PUSH1 0x40 DUP1 DUP4 KECCAK256 PUSH1 0x2 DUP14 ADD SLOAD DUP5 MSTORE SWAP1 SWAP2 MSTORE DUP2 KECCAK256 DUP10 SWAP1 SSTORE PUSH1 0x8 DUP1 DUP12 ADD DUP11 SWAP1 SSTORE DUP1 SLOAD DUP13 SWAP3 SWAP1 PUSH2 0x2BA6 SWAP1 DUP5 SWAP1 PUSH2 0x3E2A JUMP JUMPDEST SWAP1 SWAP2 SSTORE POP POP POP POP POP POP POP POP POP POP POP JUMPDEST POP POP POP POP POP POP JUMP JUMPDEST PUSH20 0xFFFFFFFFFFFFFFFFFFFFFFFFFFFFFFFFFFFFFFFF DUP2 AND PUSH0 SWAP1 DUP2 MSTORE PUSH1 0xF PUSH1 0x20 MSTORE PUSH1 0x40 DUP2 KECCAK256 SLOAD SWAP1 SUB PUSH2 0x1589 JUMPI PUSH1 0xD DUP1 SLOAD SWAP1 PUSH0 PUSH2 0x2BF7 DUP4 PUSH2 0x3F49 JUMP JUMPDEST SWAP1 SWAP2 SSTORE POP POP PUSH1 0xD SLOAD PUSH1 0x40 DUP1 MLOAD PUSH2 0x120 DUP2 ADD DUP3 MSTORE DUP3 DUP2 MSTORE PUSH20 0xFFFFFFFFFFFFFFFFFFFFFFFFFFFFFFFFFFFFFFFF SWAP4 DUP5 AND PUSH1 0x20 DUP1 DUP4 ADD DUP3 DUP2 MSTORE PUSH0 DUP5 DUP7 ADD DUP2 DUP2 MSTORE PUSH1 0x60 DUP7 ADD DUP3 DUP2 MSTORE PUSH1 0x80 DUP8 ADD DUP4 DUP2 MSTORE PUSH1 0xA0 DUP9 ADD DUP5 DUP2 MSTORE PUSH1 0xC0 DUP10 ADD DUP6 DUP2 MSTORE PUSH1 0xE0 DUP11 ADD DUP7 DUP2 MSTORE PUSH2 0x100 DUP12 ADD DUP8 DUP2 MSTORE DUP14 DUP9 MSTORE PUSH1 0xE DUP11 MSTORE DUP13 DUP9 KECCAK256 SWAP12 MLOAD DUP13 SSTORE SWAP8 MLOAD PUSH1 0x1 DUP13 ADD DUP1 SLOAD PUSH32 0xFFFFFFFFFFFFFFFFFFFFFFFF0000000000000000000000000000000000000000 AND SWAP2 SWAP1 SWAP16 AND OR SWAP1 SWAP14 SSTORE SWAP4 MLOAD PUSH1 0x2 DUP11 ADD SSTORE SWAP2 MLOAD PUSH1 0x3 DUP10 ADD SSTORE MLOAD PUSH1 0x4 DUP9 ADD SSTORE MLOAD PUSH1 0x5 DUP8 ADD SSTORE MLOAD PUSH1 0x6 DUP7 ADD SSTORE SWAP7 MLOAD PUSH1 0x7 DUP6 ADD SSTORE MLOAD PUSH1 0x8 SWAP1 SWAP4 ADD SWAP3 SWAP1 SWAP3 SSTORE DUP5 MSTORE PUSH1 0xF SWAP1 MSTORE SWAP1 SWAP2 KECCAK256 SSTORE JUMP JUMPDEST DUP1 MLOAD PUSH0 SWAP1 PUSH2 0x2CE8 PUSH2 0x32EE JUMP JUMPDEST PUSH0 JUMPDEST DUP3 DUP2 LT ISZERO PUSH2 0x2D66 JUMPI PUSH0 DUP6 DUP3 DUP2 MLOAD DUP2 LT PUSH2 0x2D05 JUMPI PUSH2 0x2D05 PUSH2 0x3C76 JUMP JUMPDEST PUSH1 0x20 MUL PUSH1 0x20 ADD ADD MLOAD SWAP1 POP DUP3 DUP2 PUSH1 0xFF AND PUSH2 0x100 DUP2 LT PUSH2 0x2D25 JUMPI PUSH2 0x2D25 PUSH2 0x3C76 JUMP JUMPDEST PUSH1 0x20 MUL ADD MLOAD ISZERO PUSH2 0x2D3B JUMPI POP PUSH1 0x1 SWAP6 SWAP5 POP POP POP POP POP JUMP JUMPDEST PUSH1 0x1 DUP4 DUP3 PUSH1 0xFF AND PUSH2 0x100 DUP2 LT PUSH2 0x2D53 JUMPI PUSH2 0x2D53 PUSH2 0x3C76 JUMP JUMPDEST SWAP2 ISZERO ISZERO PUSH1 0x20 SWAP1 SWAP3 MUL ADD MSTORE POP PUSH1 0x1 ADD PUSH2 0x2CEA JUMP JUMPDEST POP PUSH0 SWAP5 SWAP4 POP POP POP POP JUMP JUMPDEST PUSH1 0x60 DUP2 PUSH2 0x2D7D DUP6 DUP6 PUSH2 0x3E3D JUMP JUMPDEST PUSH2 0x2D88 SWAP1 PUSH1 0x1 PUSH2 0x3E2A JUMP JUMPDEST LT ISZERO PUSH2 0x2E16 JUMPI PUSH1 0x40 MLOAD PUSH32 0x8C379A000000000000000000000000000000000000000000000000000000000 DUP2 MSTORE PUSH1 0x20 PUSH1 0x4 DUP3 ADD MSTORE PUSH1 0x22 PUSH1 0x24 DUP3 ADD MSTORE PUSH32 0x4E6F7420656E6F75676820756E69717565206E756D6265727320696E2072616E PUSH1 0x44 DUP3 ADD MSTORE PUSH32 0x6765000000000000000000000000000000000000000000000000000000000000 PUSH1 0x64 DUP3 ADD MSTORE PUSH1 0x84 ADD PUSH2 0x8A9 JUMP JUMPDEST PUSH0 PUSH2 0x2E21 DUP6 DUP6 PUSH2 0x3E3D JUMP JUMPDEST PUSH2 0x2E2C SWAP1 PUSH1 0x1 PUSH2 0x3E2A JUMP JUMPDEST SWAP1 POP PUSH0 DUP2 PUSH8 0xFFFFFFFFFFFFFFFF DUP2 GT ISZERO PUSH2 0x2E48 JUMPI PUSH2 0x2E48 PUSH2 0x3368 JUMP JUMPDEST PUSH1 0x40 MLOAD SWAP1 DUP1 DUP3 MSTORE DUP1 PUSH1 0x20 MUL PUSH1 0x20 ADD DUP3 ADD PUSH1 0x40 MSTORE DUP1 ISZERO PUSH2 0x2E71 JUMPI DUP2 PUSH1 0x20 ADD PUSH1 0x20 DUP3 MUL DUP1 CALLDATASIZE DUP4 CALLDATACOPY ADD SWAP1 POP JUMPDEST POP SWAP1 POP PUSH0 JUMPDEST DUP3 DUP2 LT ISZERO PUSH2 0x2EB4 JUMPI PUSH2 0x2E88 DUP2 DUP9 PUSH2 0x3E2A JUMP JUMPDEST DUP3 DUP3 DUP2 MLOAD DUP2 LT PUSH2 0x2E9A JUMPI PUSH2 0x2E9A PUSH2 0x3C76 JUMP JUMPDEST PUSH1 0xFF SWAP1 SWAP3 AND PUSH1 0x20 SWAP3 DUP4 MUL SWAP2 SWAP1 SWAP2 ADD SWAP1 SWAP2 ADD MSTORE PUSH1 0x1 ADD PUSH2 0x2E76 JUMP JUMPDEST POP PUSH0 PUSH2 0x2EC1 PUSH1 0x1 DUP5 PUSH2 0x3E3D JUMP JUMPDEST SWAP1 POP JUMPDEST DUP1 ISZERO PUSH2 0x2FA7 JUMPI PUSH0 PUSH2 0x2ED6 DUP3 PUSH1 0x1 PUSH2 0x3E2A JUMP JUMPDEST PUSH1 0x40 DUP1 MLOAD PUSH1 0x20 DUP2 ADD DUP13 SWAP1 MSTORE SWAP1 DUP2 ADD DUP5 SWAP1 MSTORE PUSH1 0x60 ADD PUSH1 0x40 MLOAD PUSH1 0x20 DUP2 DUP4 SUB SUB DUP2 MSTORE SWAP1 PUSH1 0x40 MSTORE DUP1 MLOAD SWAP1 PUSH1 0x20 ADD KECCAK256 PUSH0 SHR PUSH2 0x2F0C SWAP2 SWAP1 PUSH2 0x3FD7 JUMP JUMPDEST SWAP1 POP PUSH0 DUP4 DUP4 DUP2 MLOAD DUP2 LT PUSH2 0x2F21 JUMPI PUSH2 0x2F21 PUSH2 0x3C76 JUMP JUMPDEST PUSH1 0x20 MUL PUSH1 0x20 ADD ADD MLOAD SWAP1 POP DUP4 DUP3 DUP2 MLOAD DUP2 LT PUSH2 0x2F3D JUMPI PUSH2 0x2F3D PUSH2 0x3C76 JUMP JUMPDEST PUSH1 0x20 MUL PUSH1 0x20 ADD ADD MLOAD DUP5 DUP5 DUP2 MLOAD DUP2 LT PUSH2 0x2F57 JUMPI PUSH2 0x2F57 PUSH2 0x3C76 JUMP JUMPDEST PUSH1 0x20 MUL PUSH1 0x20 ADD ADD SWAP1 PUSH1 0xFF AND SWAP1 DUP2 PUSH1 0xFF AND DUP2 MSTORE POP POP DUP1 DUP5 DUP4 DUP2 MLOAD DUP2 LT PUSH2 0x2F7E JUMPI PUSH2 0x2F7E PUSH2 0x3C76 JUMP JUMPDEST PUSH1 0x20 MUL PUSH1 0x20 ADD ADD SWAP1 PUSH1 0xFF AND SWAP1 DUP2 PUSH1 0xFF AND DUP2 MSTORE POP POP POP POP DUP1 DUP1 PUSH2 0x2F9F SWAP1 PUSH2 0x3FEA JUMP JUMPDEST SWAP2 POP POP PUSH2 0x2EC4 JUMP JUMPDEST POP PUSH0 DUP5 PUSH8 0xFFFFFFFFFFFFFFFF DUP2 GT ISZERO PUSH2 0x2FC2 JUMPI PUSH2 0x2FC2 PUSH2 0x3368 JUMP JUMPDEST PUSH1 0x40 MLOAD SWAP1 DUP1 DUP3 MSTORE DUP1 PUSH1 0x20 MUL PUSH1 0x20 ADD DUP3 ADD PUSH1 0x40 MSTORE DUP1 ISZERO PUSH2 0x2FEB JUMPI DUP2 PUSH1 0x20 ADD PUSH1 0x20 DUP3 MUL DUP1 CALLDATASIZE DUP4 CALLDATACOPY ADD SWAP1 POP JUMPDEST POP SWAP1 POP PUSH0 JUMPDEST DUP6 DUP2 LT ISZERO PUSH2 0x303E JUMPI DUP3 DUP2 DUP2 MLOAD DUP2 LT PUSH2 0x300A JUMPI PUSH2 0x300A PUSH2 0x3C76 JUMP JUMPDEST PUSH1 0x20 MUL PUSH1 0x20 ADD ADD MLOAD DUP3 DUP3 DUP2 MLOAD DUP2 LT PUSH2 0x3024 JUMPI PUSH2 0x3024 PUSH2 0x3C76 JUMP JUMPDEST PUSH1 0xFF SWAP1 SWAP3 AND PUSH1 0x20 SWAP3 DUP4 MUL SWAP2 SWAP1 SWAP2 ADD SWAP1 SWAP2 ADD MSTORE PUSH1 0x1 ADD PUSH2 0x2FF0 JUMP JUMPDEST POP SWAP8 SWAP7 POP POP POP POP POP POP POP JUMP JUMPDEST PUSH1 0x16 SLOAD PUSH1 0xA GT ISZERO PUSH2 0x30F7 JUMPI PUSH1 0x40 DUP1 MLOAD PUSH1 0x60 DUP2 ADD DUP3 MSTORE SWAP4 DUP5 MSTORE PUSH1 0x20 DUP5 ADD SWAP3 DUP4 MSTORE DUP4 ADD SWAP1 DUP2 MSTORE PUSH1 0x16 DUP1 SLOAD PUSH1 0x1 DUP2 ADD DUP3 SSTORE PUSH0 SWAP2 SWAP1 SWAP2 MSTORE SWAP3 MLOAD PUSH32 0xD833147D7DC355BA459FC788F669E58CFAF9DC25DDCD0702E87D69C7B5124289 PUSH1 0x3 SWAP1 SWAP5 MUL SWAP4 DUP5 ADD SSTORE SWAP1 MLOAD PUSH32 0xD833147D7DC355BA459FC788F669E58CFAF9DC25DDCD0702E87D69C7B512428A DUP4 ADD SSTORE MLOAD PUSH32 0xD833147D7DC355BA459FC788F669E58CFAF9DC25DDCD0702E87D69C7B512428B SWAP1 SWAP2 ADD SSTORE JUMP JUMPDEST PUSH0 PUSH1 0x1 JUMPDEST PUSH1 0xA DUP2 LT ISZERO PUSH2 0x315C JUMPI PUSH1 0x16 DUP3 DUP2 SLOAD DUP2 LT PUSH2 0x3117 JUMPI PUSH2 0x3117 PUSH2 0x3C76 JUMP JUMPDEST SWAP1 PUSH0 MSTORE PUSH1 0x20 PUSH0 KECCAK256 SWAP1 PUSH1 0x3 MUL ADD PUSH1 0x1 ADD SLOAD PUSH1 0x16 DUP3 DUP2 SLOAD DUP2 LT PUSH2 0x313A JUMPI PUSH2 0x313A PUSH2 0x3C76 JUMP JUMPDEST SWAP1 PUSH0 MSTORE PUSH1 0x20 PUSH0 KECCAK256 SWAP1 PUSH1 0x3 MUL ADD PUSH1 0x1 ADD SLOAD LT ISZERO PUSH2 0x3154 JUMPI DUP1 SWAP2 POP JUMPDEST PUSH1 0x1 ADD PUSH2 0x30FB JUMP JUMPDEST POP PUSH1 0x16 DUP2 DUP2 SLOAD DUP2 LT PUSH2 0x3170 JUMPI PUSH2 0x3170 PUSH2 0x3C76 JUMP JUMPDEST SWAP1 PUSH0 MSTORE PUSH1 0x20 PUSH0 KECCAK256 SWAP1 PUSH1 0x3 MUL ADD PUSH1 0x1 ADD SLOAD DUP4 GT ISZERO PUSH2 0x31E1 JUMPI PUSH1 0x40 MLOAD DUP1 PUSH1 0x60 ADD PUSH1 0x40 MSTORE DUP1 DUP6 DUP2 MSTORE PUSH1 0x20 ADD DUP5 DUP2 MSTORE PUSH1 0x20 ADD DUP4 DUP2 MSTORE POP PUSH1 0x16 DUP3 DUP2 SLOAD DUP2 LT PUSH2 0x31B5 JUMPI PUSH2 0x31B5 PUSH2 0x3C76 JUMP JUMPDEST SWAP1 PUSH0 MSTORE PUSH1 0x20 PUSH0 KECCAK256 SWAP1 PUSH1 0x3 MUL ADD PUSH0 DUP3 ADD MLOAD DUP2 PUSH0 ADD SSTORE PUSH1 0x20 DUP3 ADD MLOAD DUP2 PUSH1 0x1 ADD SSTORE PUSH1 0x40 DUP3 ADD MLOAD DUP2 PUSH1 0x2 ADD SSTORE SWAP1 POP POP JUMPDEST POP POP POP POP JUMP JUMPDEST PUSH1 0x40 MLOAD DUP1 PUSH2 0x160 ADD PUSH1 0x40 MSTORE DUP1 PUSH1 0xB SWAP1 PUSH1 0x20 DUP3 MUL DUP1 CALLDATASIZE DUP4 CALLDATACOPY POP SWAP2 SWAP3 SWAP2 POP POP JUMP JUMPDEST PUSH1 0x40 MLOAD DUP1 PUSH2 0x160 ADD PUSH1 0x40 MSTORE DUP1 PUSH1 0xB SWAP1 JUMPDEST PUSH2 0x321E PUSH2 0x330E JUMP JUMPDEST DUP2 MSTORE PUSH1 0x20 ADD SWAP1 PUSH1 0x1 SWAP1 SUB SWAP1 DUP2 PUSH2 0x3216 JUMPI SWAP1 POP POP SWAP1 JUMP JUMPDEST PUSH1 0x40 MLOAD DUP1 PUSH1 0xA0 ADD PUSH1 0x40 MSTORE DUP1 PUSH2 0x3247 PUSH2 0x332A JUMP JUMPDEST DUP2 MSTORE PUSH0 PUSH1 0x20 DUP3 ADD MSTORE PUSH1 0x40 ADD PUSH2 0x325A PUSH2 0x3349 JUMP JUMPDEST DUP2 MSTORE PUSH0 PUSH1 0x20 DUP3 ADD MSTORE PUSH1 0x40 ADD PUSH2 0x326D PUSH2 0x3349 JUMP JUMPDEST SWAP1 MSTORE SWAP1 JUMP JUMPDEST PUSH1 0x40 DUP1 MLOAD PUSH2 0x160 DUP2 ADD DUP3 MSTORE PUSH0 SWAP2 DUP2 ADD DUP3 DUP2 MSTORE PUSH1 0x60 DUP3 ADD DUP4 SWAP1 MSTORE PUSH1 0x80 DUP3 ADD DUP4 SWAP1 MSTORE PUSH1 0xA0 DUP3 ADD DUP4 SWAP1 MSTORE PUSH1 0xC0 DUP3 ADD DUP4 SWAP1 MSTORE PUSH1 0xE0 DUP3 ADD DUP4 SWAP1 MSTORE PUSH2 0x100 DUP3 ADD DUP4 SWAP1 MSTORE PUSH2 0x120 DUP3 ADD DUP4 SWAP1 MSTORE PUSH2 0x140 DUP3 ADD SWAP3 SWAP1 SWAP3 MSTORE SWAP1 DUP2 MSTORE PUSH1 0x20 DUP2 ADD PUSH2 0x326D PUSH2 0x3234 JUMP JUMPDEST PUSH1 0x40 MLOAD DUP1 PUSH2 0x8E0 ADD PUSH1 0x40 MSTORE DUP1 PUSH1 0x47 SWAP1 PUSH1 0x20 DUP3 MUL DUP1 CALLDATASIZE DUP4 CALLDATACOPY POP SWAP2 SWAP3 SWAP2 POP POP JUMP JUMPDEST PUSH1 0x40 MLOAD DUP1 PUSH2 0x2000 ADD PUSH1 0x40 MSTORE DUP1 PUSH2 0x100 SWAP1 PUSH1 0x20 DUP3 MUL DUP1 CALLDATASIZE DUP4 CALLDATACOPY POP SWAP2 SWAP3 SWAP2 POP POP JUMP JUMPDEST PUSH1 0x40 MLOAD DUP1 PUSH1 0x40 ADD PUSH1 0x40 MSTORE DUP1 PUSH0 PUSH1 0xFF AND DUP2 MSTORE PUSH1 0x20 ADD PUSH2 0x326D PUSH2 0x31E7 JUMP JUMPDEST PUSH1 0x40 MLOAD DUP1 PUSH2 0x280 ADD PUSH1 0x40 MSTORE DUP1 PUSH1 0x14 SWAP1 PUSH1 0x20 DUP3 MUL DUP1 CALLDATASIZE DUP4 CALLDATACOPY POP SWAP2 SWAP3 SWAP2 POP POP JUMP JUMPDEST PUSH1 0x40 MLOAD DUP1 PUSH2 0x140 ADD PUSH1 0x40 MSTORE DUP1 PUSH1 0xA SWAP1 PUSH1 0x20 DUP3 MUL DUP1 CALLDATASIZE DUP4 CALLDATACOPY POP SWAP2 SWAP3 SWAP2 POP POP JUMP JUMPDEST PUSH32 0x4E487B7100000000000000000000000000000000000000000000000000000000 PUSH0 MSTORE PUSH1 0x41 PUSH1 0x4 MSTORE PUSH1 0x24 PUSH0 REVERT JUMPDEST PUSH1 0x40 MLOAD PUSH1 0xC0 DUP2 ADD PUSH8 0xFFFFFFFFFFFFFFFF DUP2 GT DUP3 DUP3 LT OR ISZERO PUSH2 0x33B8 JUMPI PUSH2 0x33B8 PUSH2 0x3368 JUMP JUMPDEST PUSH1 0x40 MSTORE SWAP1 JUMP JUMPDEST PUSH1 0x40 MLOAD PUSH2 0x140 DUP2 ADD PUSH8 0xFFFFFFFFFFFFFFFF DUP2 GT DUP3 DUP3 LT OR ISZERO PUSH2 0x33B8 JUMPI PUSH2 0x33B8 PUSH2 0x3368 JUMP JUMPDEST PUSH1 0x40 MLOAD PUSH2 0x160 DUP2 ADD PUSH8 0xFFFFFFFFFFFFFFFF DUP2 GT DUP3 DUP3 LT OR ISZERO PUSH2 0x33B8 JUMPI PUSH2 0x33B8 PUSH2 0x3368 JUMP JUMPDEST PUSH1 0x40 MLOAD PUSH1 0x1F DUP3 ADD PUSH32 0xFFFFFFFFFFFFFFFFFFFFFFFFFFFFFFFFFFFFFFFFFFFFFFFFFFFFFFFFFFFFFFE0 AND DUP2 ADD PUSH8 0xFFFFFFFFFFFFFFFF DUP2 GT DUP3 DUP3 LT OR ISZERO PUSH2 0x344D JUMPI PUSH2 0x344D PUSH2 0x3368 JUMP JUMPDEST PUSH1 0x40 MSTORE SWAP2 SWAP1 POP JUMP JUMPDEST PUSH0 PUSH2 0xDC0 DUP1 DUP4 DUP6 SUB SLT ISZERO PUSH2 0x3467 JUMPI PUSH0 DUP1 REVERT JUMPDEST PUSH1 0x1F DUP5 PUSH1 0x1F DUP6 ADD SLT PUSH2 0x3477 JUMPI PUSH0 DUP1 REVERT JUMPDEST PUSH2 0x347F PUSH2 0x33E2 JUMP JUMPDEST SWAP2 DUP5 ADD SWAP2 DUP1 DUP7 DUP5 GT ISZERO PUSH2 0x3490 JUMPI PUSH0 DUP1 REVERT JUMPDEST DUP6 JUMPDEST DUP5 DUP2 LT ISZERO PUSH2 0x34EF JUMPI DUP8 DUP5 DUP3 ADD SLT PUSH2 0x34A7 JUMPI PUSH0 DUP1 REVERT JUMPDEST PUSH2 0x34AF PUSH2 0x33BE JUMP JUMPDEST DUP1 PUSH2 0x140 DUP4 ADD DUP11 DUP2 GT ISZERO PUSH2 0x34C1 JUMPI PUSH0 DUP1 REVERT JUMPDEST DUP4 JUMPDEST DUP2 DUP2 LT ISZERO PUSH2 0x34DB JUMPI DUP1 CALLDATALOAD DUP5 MSTORE PUSH1 0x20 SWAP4 DUP5 ADD SWAP4 ADD PUSH2 0x34C3 JUMP JUMPDEST POP POP DUP5 MSTORE POP PUSH1 0x20 SWAP1 SWAP3 ADD SWAP2 PUSH2 0x140 ADD PUSH2 0x3492 JUMP JUMPDEST POP SWAP7 SWAP6 POP POP POP POP POP POP JUMP JUMPDEST PUSH0 PUSH1 0x20 DUP3 DUP5 SUB SLT ISZERO PUSH2 0x350A JUMPI PUSH0 DUP1 REVERT JUMPDEST POP CALLDATALOAD SWAP2 SWAP1 POP JUMP JUMPDEST PUSH0 DUP1 PUSH0 DUP1 PUSH0 DUP1 PUSH0 DUP1 PUSH0 DUP1 PUSH0 PUSH2 0x160 DUP13 DUP15 SUB SLT ISZERO PUSH2 0x352C JUMPI PUSH0 DUP1 REVERT JUMPDEST POP POP DUP10 CALLDATALOAD SWAP12 PUSH1 0x20 DUP12 ADD CALLDATALOAD SWAP12 POP PUSH1 0x40 DUP12 ADD CALLDATALOAD SWAP11 PUSH1 0x60 DUP2 ADD CALLDATALOAD SWAP11 POP PUSH1 0x80 DUP2 ADD CALLDATALOAD SWAP10 POP PUSH1 0xA0 DUP2 ADD CALLDATALOAD SWAP9 POP PUSH1 0xC0 DUP2 ADD CALLDATALOAD SWAP8 POP PUSH1 0xE0 DUP2 ADD CALLDATALOAD SWAP7 POP PUSH2 0x100 DUP2 ADD CALLDATALOAD SWAP6 POP PUSH2 0x120 DUP2 ADD CALLDATALOAD SWAP5 POP PUSH2 0x140 ADD CALLDATALOAD SWAP3 POP SWAP1 POP JUMP JUMPDEST PUSH2 0x160 DUP2 ADD DUP2 DUP4 PUSH0 JUMPDEST PUSH1 0xB DUP2 LT ISZERO PUSH2 0x35A4 JUMPI DUP2 MLOAD DUP4 MSTORE PUSH1 0x20 SWAP3 DUP4 ADD SWAP3 SWAP1 SWAP2 ADD SWAP1 PUSH1 0x1 ADD PUSH2 0x3585 JUMP JUMPDEST POP POP POP SWAP3 SWAP2 POP POP JUMP JUMPDEST PUSH20 0xFFFFFFFFFFFFFFFFFFFFFFFFFFFFFFFFFFFFFFFF DUP2 AND DUP2 EQ PUSH2 0x1589 JUMPI PUSH0 DUP1 REVERT JUMPDEST PUSH0 PUSH1 0x20 DUP3 DUP5 SUB SLT ISZERO PUSH2 0x35DE JUMPI PUSH0 DUP1 REVERT JUMPDEST DUP2 CALLDATALOAD PUSH2 0x232B DUP2 PUSH2 0x35AD JUMP JUMPDEST PUSH0 JUMPDEST DUP4 DUP2 LT ISZERO PUSH2 0x3603 JUMPI DUP2 DUP2 ADD MLOAD DUP4 DUP3 ADD MSTORE PUSH1 0x20 ADD PUSH2 0x35EB JUMP JUMPDEST POP POP PUSH0 SWAP2 ADD MSTORE JUMP JUMPDEST PUSH0 DUP2 MLOAD DUP1 DUP5 MSTORE PUSH2 0x3622 DUP2 PUSH1 0x20 DUP7 ADD PUSH1 0x20 DUP7 ADD PUSH2 0x35E9 JUMP JUMPDEST PUSH1 0x1F ADD PUSH32 0xFFFFFFFFFFFFFFFFFFFFFFFFFFFFFFFFFFFFFFFFFFFFFFFFFFFFFFFFFFFFFFE0 AND SWAP3 SWAP1 SWAP3 ADD PUSH1 0x20 ADD SWAP3 SWAP2 POP POP JUMP JUMPDEST PUSH1 0x20 DUP2 MSTORE PUSH20 0xFFFFFFFFFFFFFFFFFFFFFFFFFFFFFFFFFFFFFFFF DUP3 MLOAD AND PUSH1 0x20 DUP3 ADD MSTORE PUSH0 PUSH1 0x20 DUP4 ADD MLOAD PUSH2 0x368A PUSH1 0x40 DUP5 ADD DUP3 PUSH1 0xFF AND SWAP1 MSTORE JUMP JUMPDEST POP PUSH1 0x40 DUP4 ADD MLOAD PUSH2 0x100 DUP1 PUSH1 0x60 DUP6 ADD MSTORE PUSH2 0x36A7 PUSH2 0x120 DUP6 ADD DUP4 PUSH2 0x360B JUMP JUMPDEST SWAP2 POP PUSH1 0x60 DUP6 ADD MLOAD PUSH32 0xFFFFFFFFFFFFFFFFFFFFFFFFFFFFFFFFFFFFFFFFFFFFFFFFFFFFFFFFFFFFFFE0 DUP6 DUP5 SUB ADD PUSH1 0x80 DUP7 ADD MSTORE PUSH2 0x36E2 DUP4 DUP3 PUSH2 0x360B JUMP JUMPDEST SWAP3 POP POP PUSH1 0x80 DUP6 ADD MLOAD PUSH1 0xA0 DUP6 ADD MSTORE PUSH1 0xA0 DUP6 ADD MLOAD PUSH1 0xC0 DUP6 ADD MSTORE PUSH1 0xC0 DUP6 ADD MLOAD PUSH1 0xE0 DUP6 ADD MSTORE PUSH1 0xE0 DUP6 ADD MLOAD DUP2 DUP6 ADD MSTORE POP DUP1 SWAP2 POP POP SWAP3 SWAP2 POP POP JUMP JUMPDEST PUSH2 0x1080 DUP2 ADD DUP2 DUP4 PUSH0 JUMPDEST PUSH1 0xB DUP1 DUP3 LT PUSH2 0x372F JUMPI POP PUSH2 0x35A4 JUMP JUMPDEST DUP3 MLOAD DUP1 MLOAD PUSH1 0xFF AND DUP6 MSTORE PUSH1 0x20 SWAP1 DUP2 ADD MLOAD SWAP1 DUP1 DUP7 ADD PUSH0 JUMPDEST DUP5 DUP2 LT ISZERO PUSH2 0x3760 JUMPI DUP4 MLOAD DUP3 MSTORE SWAP3 DUP3 ADD SWAP3 SWAP1 DUP3 ADD SWAP1 PUSH1 0x1 ADD PUSH2 0x3744 JUMP JUMPDEST POP POP PUSH2 0x180 SWAP6 SWAP1 SWAP6 ADD SWAP5 SWAP4 SWAP1 SWAP4 ADD SWAP3 POP POP PUSH1 0x1 ADD PUSH2 0x3720 JUMP JUMPDEST PUSH1 0xFF DUP2 AND DUP2 EQ PUSH2 0x1589 JUMPI PUSH0 DUP1 REVERT JUMPDEST PUSH0 DUP1 PUSH1 0x40 DUP4 DUP6 SUB SLT ISZERO PUSH2 0x3798 JUMPI PUSH0 DUP1 REVERT JUMPDEST DUP3 CALLDATALOAD PUSH2 0x37A3 DUP2 PUSH2 0x3779 JUMP JUMPDEST SWAP2 POP PUSH1 0x20 DUP4 ADD CALLDATALOAD PUSH2 0x37B3 DUP2 PUSH2 0x3779 JUMP JUMPDEST DUP1 SWAP2 POP POP SWAP3 POP SWAP3 SWAP1 POP JUMP JUMPDEST PUSH0 DUP1 PUSH1 0x40 DUP4 DUP6 SUB SLT ISZERO PUSH2 0x37CF JUMPI PUSH0 DUP1 REVERT JUMPDEST DUP3 CALLDATALOAD PUSH2 0x37DA DUP2 PUSH2 0x35AD JUMP JUMPDEST SWAP5 PUSH1 0x20 SWAP4 SWAP1 SWAP4 ADD CALLDATALOAD SWAP4 POP POP POP JUMP JUMPDEST DUP1 PUSH0 JUMPDEST PUSH1 0xA DUP2 LT ISZERO PUSH2 0x31E1 JUMPI DUP2 MLOAD PUSH1 0xFF AND DUP5 MSTORE PUSH1 0x20 SWAP4 DUP5 ADD SWAP4 SWAP1 SWAP2 ADD SWAP1 PUSH1 0x1 ADD PUSH2 0x37EB JUMP JUMPDEST DUP1 MLOAD DUP3 PUSH0 JUMPDEST PUSH1 0x14 DUP2 LT ISZERO PUSH2 0x3834 JUMPI DUP3 MLOAD PUSH1 0xFF AND DUP3 MSTORE PUSH1 0x20 SWAP3 DUP4 ADD SWAP3 SWAP1 SWAP2 ADD SWAP1 PUSH1 0x1 ADD PUSH2 0x3812 JUMP JUMPDEST POP POP POP PUSH1 0xFF PUSH1 0x20 DUP3 ADD MLOAD AND PUSH2 0x280 DUP4 ADD MSTORE PUSH1 0x40 DUP2 ADD MLOAD PUSH2 0x3858 PUSH2 0x2A0 DUP5 ADD DUP3 PUSH2 0x37E8 JUMP JUMPDEST POP PUSH1 0x60 DUP2 ADD MLOAD PUSH1 0xFF AND PUSH2 0x3E0 DUP4 ADD MSTORE PUSH1 0x80 DUP2 ADD MLOAD PUSH2 0x10C7 PUSH2 0x400 DUP5 ADD DUP3 PUSH2 0x37E8 JUMP JUMPDEST PUSH2 0x660 DUP2 ADD PUSH2 0x38DE DUP3 DUP6 DUP1 MLOAD DUP3 MSTORE PUSH1 0x20 DUP2 ADD MLOAD PUSH1 0x20 DUP4 ADD MSTORE PUSH1 0x40 DUP2 ADD MLOAD PUSH1 0x40 DUP4 ADD MSTORE PUSH1 0x60 DUP2 ADD MLOAD PUSH1 0x60 DUP4 ADD MSTORE PUSH1 0x80 DUP2 ADD MLOAD PUSH1 0x80 DUP4 ADD MSTORE PUSH1 0xA0 DUP2 ADD MLOAD PUSH1 0xA0 DUP4 ADD MSTORE PUSH1 0xC0 DUP2 ADD MLOAD PUSH1 0xC0 DUP4 ADD MSTORE PUSH1 0xE0 DUP2 ADD MLOAD PUSH1 0xE0 DUP4 ADD MSTORE PUSH2 0x100 DUP1 DUP3 ADD MLOAD DUP2 DUP5 ADD MSTORE POP POP POP JUMP JUMPDEST PUSH2 0x232B PUSH2 0x120 DUP4 ADD DUP5 PUSH2 0x380D JUMP JUMPDEST PUSH1 0x20 DUP1 DUP3 MSTORE DUP3 MLOAD DUP3 DUP3 ADD DUP2 SWAP1 MSTORE PUSH0 SWAP2 SWAP1 PUSH1 0x40 SWAP1 DUP2 DUP6 ADD SWAP1 DUP7 DUP5 ADD DUP6 JUMPDEST DUP3 DUP2 LT ISZERO PUSH2 0x3937 JUMPI DUP2 MLOAD DUP1 MLOAD DUP6 MSTORE DUP7 DUP2 ADD MLOAD DUP8 DUP7 ADD MSTORE DUP6 ADD MLOAD DUP6 DUP6 ADD MSTORE PUSH1 0x60 SWAP1 SWAP4 ADD SWAP3 SWAP1 DUP6 ADD SWAP1 PUSH1 0x1 ADD PUSH2 0x3908 JUMP JUMPDEST POP SWAP2 SWAP8 SWAP7 POP POP POP POP POP POP POP JUMP JUMPDEST PUSH0 PUSH8 0xFFFFFFFFFFFFFFFF DUP3 GT ISZERO PUSH2 0x395D JUMPI PUSH2 0x395D PUSH2 0x3368 JUMP JUMPDEST POP PUSH1 0x5 SHL PUSH1 0x20 ADD SWAP1 JUMP JUMPDEST PUSH0 PUSH1 0x20 DUP1 DUP4 DUP6 SUB SLT ISZERO PUSH2 0x3978 JUMPI PUSH0 DUP1 REVERT JUMPDEST DUP3 CALLDATALOAD PUSH8 0xFFFFFFFFFFFFFFFF DUP1 DUP3 GT ISZERO PUSH2 0x398F JUMPI PUSH0 DUP1 REVERT JUMPDEST DUP2 DUP6 ADD SWAP2 POP DUP6 PUSH1 0x1F DUP4 ADD SLT PUSH2 0x39A2 JUMPI PUSH0 DUP1 REVERT JUMPDEST DUP2 CALLDATALOAD PUSH2 0x39B5 PUSH2 0x39B0 DUP3 PUSH2 0x3944 JUMP JUMPDEST PUSH2 0x3406 JUMP JUMPDEST DUP2 DUP2 MSTORE PUSH1 0x5 SWAP2 SWAP1 SWAP2 SHL DUP4 ADD DUP5 ADD SWAP1 DUP5 DUP2 ADD SWAP1 DUP9 DUP4 GT ISZERO PUSH2 0x39D3 JUMPI PUSH0 DUP1 REVERT JUMPDEST DUP6 DUP6 ADD JUMPDEST DUP4 DUP2 LT ISZERO PUSH2 0x3AF5 JUMPI DUP1 CALLDATALOAD DUP6 DUP2 GT ISZERO PUSH2 0x39ED JUMPI PUSH0 DUP1 REVERT JUMPDEST DUP7 ADD PUSH1 0xC0 DUP2 DUP13 SUB PUSH32 0xFFFFFFFFFFFFFFFFFFFFFFFFFFFFFFFFFFFFFFFFFFFFFFFFFFFFFFFFFFFFFFE0 ADD SLT ISZERO PUSH2 0x3A20 JUMPI PUSH0 DUP1 REVERT JUMPDEST PUSH2 0x3A28 PUSH2 0x3395 JUMP JUMPDEST DUP9 DUP3 ADD CALLDATALOAD PUSH2 0x3A35 DUP2 PUSH2 0x35AD JUMP JUMPDEST DUP2 MSTORE PUSH1 0x40 DUP3 ADD CALLDATALOAD DUP8 DUP2 GT ISZERO PUSH2 0x3A48 JUMPI PUSH0 DUP1 REVERT JUMPDEST DUP3 ADD PUSH1 0x3F DUP2 ADD DUP14 SGT PUSH2 0x3A58 JUMPI PUSH0 DUP1 REVERT JUMPDEST DUP10 DUP2 ADD CALLDATALOAD PUSH2 0x3A68 PUSH2 0x39B0 DUP3 PUSH2 0x3944 JUMP JUMPDEST DUP2 DUP2 MSTORE PUSH1 0x5 SWAP2 SWAP1 SWAP2 SHL DUP3 ADD PUSH1 0x40 ADD SWAP1 DUP12 DUP2 ADD SWAP1 DUP16 DUP4 GT ISZERO PUSH2 0x3A87 JUMPI PUSH0 DUP1 REVERT JUMPDEST PUSH1 0x40 DUP5 ADD SWAP4 POP JUMPDEST DUP3 DUP5 LT ISZERO PUSH2 0x3AB0 JUMPI DUP4 CALLDATALOAD PUSH2 0x3AA1 DUP2 PUSH2 0x3779 JUMP JUMPDEST DUP3 MSTORE SWAP3 DUP13 ADD SWAP3 SWAP1 DUP13 ADD SWAP1 PUSH2 0x3A8E JUMP JUMPDEST DUP1 DUP14 DUP7 ADD MSTORE POP POP POP POP PUSH1 0x60 DUP3 ADD CALLDATALOAD PUSH1 0x40 DUP3 ADD MSTORE PUSH1 0x80 DUP3 ADD CALLDATALOAD PUSH1 0x60 DUP3 ADD MSTORE PUSH1 0xA0 DUP3 ADD CALLDATALOAD PUSH1 0x80 DUP3 ADD MSTORE PUSH1 0xC0 DUP3 ADD CALLDATALOAD PUSH1 0xA0 DUP3 ADD MSTORE DUP1 DUP6 MSTORE POP POP DUP7 DUP4 ADD SWAP3 POP DUP7 DUP2 ADD SWAP1 POP PUSH2 0x39D7 JUMP JUMPDEST POP SWAP9 SWAP8 POP POP POP POP POP POP POP POP JUMP JUMPDEST PUSH0 PUSH1 0x20 DUP3 DUP5 SUB SLT ISZERO PUSH2 0x3B12 JUMPI PUSH0 DUP1 REVERT JUMPDEST DUP2 CALLDATALOAD PUSH2 0x232B DUP2 PUSH2 0x3779 JUMP JUMPDEST PUSH1 0x20 DUP1 DUP3 MSTORE DUP3 MLOAD DUP3 DUP3 ADD DUP2 SWAP1 MSTORE PUSH0 SWAP2 SWAP1 DUP5 DUP3 ADD SWAP1 PUSH1 0x40 DUP6 ADD SWAP1 DUP5 JUMPDEST DUP2 DUP2 LT ISZERO PUSH2 0x3B54 JUMPI DUP4 MLOAD DUP4 MSTORE SWAP3 DUP5 ADD SWAP3 SWAP2 DUP5 ADD SWAP2 PUSH1 0x1 ADD PUSH2 0x3B38 JUMP JUMPDEST POP SWAP1 SWAP7 SWAP6 POP POP POP POP POP POP JUMP JUMPDEST PUSH2 0x3BC0 DUP3 DUP3 MLOAD DUP1 MLOAD DUP3 MSTORE PUSH1 0x20 DUP2 ADD MLOAD PUSH1 0x20 DUP4 ADD MSTORE PUSH1 0x40 DUP2 ADD MLOAD PUSH1 0x40 DUP4 ADD MSTORE PUSH1 0x60 DUP2 ADD MLOAD PUSH1 0x60 DUP4 ADD MSTORE PUSH1 0x80 DUP2 ADD MLOAD PUSH1 0x80 DUP4 ADD MSTORE PUSH1 0xA0 DUP2 ADD MLOAD PUSH1 0xA0 DUP4 ADD MSTORE PUSH1 0xC0 DUP2 ADD MLOAD PUSH1 0xC0 DUP4 ADD MSTORE PUSH1 0xE0 DUP2 ADD MLOAD PUSH1 0xE0 DUP4 ADD MSTORE PUSH2 0x100 DUP1 DUP3 ADD MLOAD DUP2 DUP5 ADD MSTORE POP POP POP JUMP JUMPDEST PUSH1 0x20 DUP2 ADD MLOAD PUSH2 0x10C7 PUSH2 0x120 DUP5 ADD DUP3 PUSH2 0x380D JUMP JUMPDEST PUSH2 0x660 DUP2 ADD PUSH2 0x1C83 DUP3 DUP5 PUSH2 0x3B60 JUMP JUMPDEST PUSH0 DUP1 PUSH1 0x40 DUP4 DUP6 SUB SLT ISZERO PUSH2 0x3BF3 JUMPI PUSH0 DUP1 REVERT JUMPDEST POP POP DUP1 CALLDATALOAD SWAP3 PUSH1 0x20 SWAP1 SWAP2 ADD CALLDATALOAD SWAP2 POP JUMP JUMPDEST PUSH1 0x20 DUP1 DUP3 MSTORE DUP3 MLOAD DUP3 DUP3 ADD DUP2 SWAP1 MSTORE PUSH0 SWAP2 SWAP1 DUP5 DUP3 ADD SWAP1 PUSH1 0x40 DUP6 ADD SWAP1 DUP5 JUMPDEST DUP2 DUP2 LT ISZERO PUSH2 0x3B54 JUMPI PUSH2 0x3C30 DUP4 DUP6 MLOAD PUSH2 0x3B60 JUMP JUMPDEST SWAP3 DUP5 ADD SWAP3 PUSH2 0x660 SWAP3 SWAP1 SWAP3 ADD SWAP2 PUSH1 0x1 ADD PUSH2 0x3C1D JUMP JUMPDEST PUSH0 DUP1 PUSH0 PUSH1 0x60 DUP5 DUP7 SUB SLT ISZERO PUSH2 0x3C56 JUMPI PUSH0 DUP1 REVERT JUMPDEST DUP4 CALLDATALOAD PUSH2 0x3C61 DUP2 PUSH2 0x35AD JUMP JUMPDEST SWAP6 PUSH1 0x20 DUP6 ADD CALLDATALOAD SWAP6 POP PUSH1 0x40 SWAP1 SWAP5 ADD CALLDATALOAD SWAP4 SWAP3 POP POP POP JUMP JUMPDEST PUSH32 0x4E487B7100000000000000000000000000000000000000000000000000000000 PUSH0 MSTORE PUSH1 0x32 PUSH1 0x4 MSTORE PUSH1 0x24 PUSH0 REVERT JUMPDEST PUSH32 0x4E487B7100000000000000000000000000000000000000000000000000000000 PUSH0 MSTORE PUSH1 0x11 PUSH1 0x4 MSTORE PUSH1 0x24 PUSH0 REVERT JUMPDEST PUSH1 0xFF DUP2 DUP2 AND DUP4 DUP3 AND ADD SWAP1 DUP2 GT ISZERO PUSH2 0x1C83 JUMPI PUSH2 0x1C83 PUSH2 0x3CA3 JUMP JUMPDEST PUSH0 PUSH1 0x20 DUP3 DUP5 SUB SLT ISZERO PUSH2 0x3CF9 JUMPI PUSH0 DUP1 REVERT JUMPDEST DUP2 MLOAD PUSH2 0x232B DUP2 PUSH2 0x3779 JUMP JUMPDEST PUSH0 DUP3 PUSH1 0x1F DUP4 ADD SLT PUSH2 0x3D13 JUMPI PUSH0 DUP1 REVERT JUMPDEST DUP2 MLOAD PUSH8 0xFFFFFFFFFFFFFFFF DUP2 GT ISZERO PUSH2 0x3D2D JUMPI PUSH2 0x3D2D PUSH2 0x3368 JUMP JUMPDEST PUSH2 0x3D5E PUSH1 0x20 PUSH32 0xFFFFFFFFFFFFFFFFFFFFFFFFFFFFFFFFFFFFFFFFFFFFFFFFFFFFFFFFFFFFFFE0 PUSH1 0x1F DUP5 ADD AND ADD PUSH2 0x3406 JUMP JUMPDEST DUP2 DUP2 MSTORE DUP5 PUSH1 0x20 DUP4 DUP7 ADD ADD GT ISZERO PUSH2 0x3D72 JUMPI PUSH0 DUP1 REVERT JUMPDEST PUSH2 0x3D83 DUP3 PUSH1 0x20 DUP4 ADD PUSH1 0x20 DUP8 ADD PUSH2 0x35E9 JUMP JUMPDEST SWAP5 SWAP4 POP POP POP POP JUMP JUMPDEST PUSH0 PUSH1 0x20 DUP3 DUP5 SUB SLT ISZERO PUSH2 0x3D9B JUMPI PUSH0 DUP1 REVERT JUMPDEST DUP2 MLOAD PUSH8 0xFFFFFFFFFFFFFFFF DUP2 GT ISZERO PUSH2 0x3DB1 JUMPI PUSH0 DUP1 REVERT JUMPDEST PUSH2 0x3D83 DUP5 DUP3 DUP6 ADD PUSH2 0x3D04 JUMP JUMPDEST PUSH0 PUSH1 0x20 DUP3 DUP5 SUB SLT ISZERO PUSH2 0x3DCD JUMPI PUSH0 DUP1 REVERT JUMPDEST POP MLOAD SWAP2 SWAP1 POP JUMP JUMPDEST PUSH0 PUSH1 0xFF DUP3 AND PUSH1 0xFF DUP2 SUB PUSH2 0x3DE9 JUMPI PUSH2 0x3DE9 PUSH2 0x3CA3 JUMP JUMPDEST PUSH1 0x1 ADD SWAP3 SWAP2 POP POP JUMP JUMPDEST PUSH0 PUSH1 0x20 DUP3 DUP5 SUB SLT ISZERO PUSH2 0x3E02 JUMPI PUSH0 DUP1 REVERT JUMPDEST DUP2 MLOAD DUP1 ISZERO ISZERO DUP2 EQ PUSH2 0x232B JUMPI PUSH0 DUP1 REVERT JUMPDEST PUSH1 0xFF DUP3 DUP2 AND DUP3 DUP3 AND SUB SWAP1 DUP2 GT ISZERO PUSH2 0x1C83 JUMPI PUSH2 0x1C83 PUSH2 0x3CA3 JUMP JUMPDEST DUP1 DUP3 ADD DUP1 DUP3 GT ISZERO PUSH2 0x1C83 JUMPI PUSH2 0x1C83 PUSH2 0x3CA3 JUMP JUMPDEST DUP2 DUP2 SUB DUP2 DUP2 GT ISZERO PUSH2 0x1C83 JUMPI PUSH2 0x1C83 PUSH2 0x3CA3 JUMP JUMPDEST DUP1 MLOAD PUSH2 0x3E5B DUP2 PUSH2 0x35AD JUMP JUMPDEST SWAP2 SWAP1 POP JUMP JUMPDEST PUSH0 PUSH1 0x20 DUP3 DUP5 SUB SLT ISZERO PUSH2 0x3E70 JUMPI PUSH0 DUP1 REVERT JUMPDEST DUP2 MLOAD PUSH8 0xFFFFFFFFFFFFFFFF DUP1 DUP3 GT ISZERO PUSH2 0x3E87 JUMPI PUSH0 DUP1 REVERT JUMPDEST SWAP1 DUP4 ADD SWAP1 PUSH2 0x140 DUP3 DUP7 SUB SLT ISZERO PUSH2 0x3E9B JUMPI PUSH0 DUP1 REVERT JUMPDEST PUSH2 0x3EA3 PUSH2 0x33BE JUMP JUMPDEST DUP3 MLOAD DUP2 MSTORE PUSH1 0x20 DUP4 ADD MLOAD DUP3 DUP2 GT ISZERO PUSH2 0x3EB8 JUMPI PUSH0 DUP1 REVERT JUMPDEST PUSH2 0x3EC4 DUP8 DUP3 DUP7 ADD PUSH2 0x3D04 JUMP JUMPDEST PUSH1 0x20 DUP4 ADD MSTORE POP PUSH1 0x40 DUP4 ADD MLOAD PUSH1 0x40 DUP3 ADD MSTORE PUSH2 0x3EE0 PUSH1 0x60 DUP5 ADD PUSH2 0x3E50 JUMP JUMPDEST PUSH1 0x60 DUP3 ADD MSTORE PUSH1 0x80 DUP4 ADD MLOAD PUSH1 0x80 DUP3 ADD MSTORE PUSH1 0xA0 DUP4 ADD MLOAD PUSH1 0xA0 DUP3 ADD MSTORE PUSH1 0xC0 DUP4 ADD MLOAD PUSH1 0xC0 DUP3 ADD MSTORE PUSH1 0xE0 DUP4 ADD MLOAD PUSH1 0xE0 DUP3 ADD MSTORE PUSH2 0x100 DUP1 DUP5 ADD MLOAD DUP2 DUP4 ADD MSTORE POP PUSH2 0x120 DUP1 DUP5 ADD MLOAD DUP4 DUP2 GT ISZERO PUSH2 0x3F2C JUMPI PUSH0 DUP1 REVERT JUMPDEST PUSH2 0x3F38 DUP9 DUP3 DUP8 ADD PUSH2 0x3D04 JUMP JUMPDEST SWAP2 DUP4 ADD SWAP2 SWAP1 SWAP2 MSTORE POP SWAP6 SWAP5 POP POP POP POP POP JUMP JUMPDEST PUSH0 PUSH32 0xFFFFFFFFFFFFFFFFFFFFFFFFFFFFFFFFFFFFFFFFFFFFFFFFFFFFFFFFFFFFFFFF DUP3 SUB PUSH2 0x3F79 JUMPI PUSH2 0x3F79 PUSH2 0x3CA3 JUMP JUMPDEST POP PUSH1 0x1 ADD SWAP1 JUMP JUMPDEST DUP1 DUP3 MUL DUP2 ISZERO DUP3 DUP3 DIV DUP5 EQ OR PUSH2 0x1C83 JUMPI PUSH2 0x1C83 PUSH2 0x3CA3 JUMP JUMPDEST PUSH32 0x4E487B7100000000000000000000000000000000000000000000000000000000 PUSH0 MSTORE PUSH1 0x12 PUSH1 0x4 MSTORE PUSH1 0x24 PUSH0 REVERT JUMPDEST PUSH0 DUP3 PUSH2 0x3FD2 JUMPI PUSH2 0x3FD2 PUSH2 0x3F97 JUMP JUMPDEST POP DIV SWAP1 JUMP JUMPDEST PUSH0 DUP3 PUSH2 0x3FE5 JUMPI PUSH2 0x3FE5 PUSH2 0x3F97 JUMP JUMPDEST POP MOD SWAP1 JUMP JUMPDEST PUSH0 DUP2 PUSH2 0x3FF8 JUMPI PUSH2 0x3FF8 PUSH2 0x3CA3 JUMP JUMPDEST POP PUSH32 0xFFFFFFFFFFFFFFFFFFFFFFFFFFFFFFFFFFFFFFFFFFFFFFFFFFFFFFFFFFFFFFFF ADD SWAP1 JUMP INVALID LOG2 PUSH5 0x6970667358 0x22 SLT KECCAK256 SWAP6 0xD3 PUSH29 0x638AC7C1874BA849AD9AB4D2EB3A51970BBF1FC59E56227AC84EA2EB2D PUSH5 0x736F6C6343 STOP ADDMOD XOR STOP CALLER "
		},
		"gasEstimates": {
			"creation": {
				"codeDepositCost": "3293600",
				"executionCost": "infinite",
				"totalCost": "infinite"
			},
			"external": {
				"PRECISION()": "261",
				"_uint256Map(uint256,uint256,uint256,uint256,uint256,uint256,uint256,uint256,uint256,uint256,uint256)": "infinite",
				"ballsStatistic(uint8)": "2610",
				"bankAmount()": "infinite",
				"depositManager()": "2379",
				"drawBallsCount()": "272",
				"gameMultiplyMap(uint8,uint8)": "infinite",
				"games(uint256)": "19592",
				"gamesBalls(uint256)": "4700",
				"gamesCount()": "2382",
				"getBallsStatistic()": "infinite",
				"getGame(uint256)": "infinite",
				"getGames(uint256,uint256)": "infinite",
				"getLastPlayerGame(address)": "infinite",
				"getMultiplyMap()": "infinite",
				"getPlayerGames(address,uint256,uint256)": "infinite",
				"getPlayerGamesCount(address)": "6987",
				"getTokenInfo(address)": "infinite",
				"getTopWins()": "infinite",
				"maxBet()": "2406",
				"minBet()": "2406",
				"onLosePercentToProcess()": "2385",
				"oracle()": "2423",
				"owner()": "2380",
				"playBatch((address,uint8[],bytes32,bytes32,bytes32,uint256)[])": "infinite",
				"playerGames(uint256,uint256)": "2597",
				"players(uint256)": "19618",
				"playersCount()": "2406",
				"playersIds(address)": "2589",
				"recoverWrongToken(address,uint256)": "infinite",
				"setDepostiManager(address)": "26742",
				"setMaxBet(uint256)": "24519",
				"setMinBet(uint256)": "24541",
				"setMultiplyMap(uint256[10][11])": "infinite",
				"setOracle(address)": "26741",
				"token()": "2422",
				"topWonGames(uint256)": "8921",
				"totalBetsAmount()": "2383",
				"totalLostAmount()": "2363",
				"totalLostGamesCount()": "2384",
				"totalWinAmount()": "2405",
				"totalWinGamesCount()": "2407",
				"transferOwnership(address)": "26763"
			},
			"internal": {
				"addTopWonGame(uint256,uint256,uint256)": "infinite",
				"hasDuplicatesBalls(uint8[] memory)": "infinite",
				"play(address,uint8[] memory,bytes32,bytes32,bytes32,uint256)": "infinite",
				"registerPlayer(address)": "infinite",
				"setMultiplyMapLine(uint8,uint256[11] memory)": "infinite",
				"shuffle(bytes32,uint256,uint256,uint256)": "infinite"
			}
		},
		"methodIdentifiers": {
			"PRECISION()": "aaf5eb68",
			"_uint256Map(uint256,uint256,uint256,uint256,uint256,uint256,uint256,uint256,uint256,uint256,uint256)": "1908eeb5",
			"ballsStatistic(uint8)": "5c62124a",
			"bankAmount()": "b42a275e",
			"depositManager()": "6c7ac9d8",
			"drawBallsCount()": "18d485a6",
			"gameMultiplyMap(uint8,uint8)": "2643ef1d",
			"games(uint256)": "117a5b90",
			"gamesBalls(uint256)": "4df2a219",
			"gamesCount()": "fb632b7c",
			"getBallsStatistic()": "9d9976cf",
			"getGame(uint256)": "a2f77bcc",
			"getGames(uint256,uint256)": "ac451185",
			"getLastPlayerGame(address)": "3ceb735d",
			"getMultiplyMap()": "22f51342",
			"getPlayerGames(address,uint256,uint256)": "f538fca4",
			"getPlayerGamesCount(address)": "bb2ea49a",
			"getTokenInfo(address)": "1f69565f",
			"getTopWins()": "41fac50f",
			"maxBet()": "2e5b2168",
			"minBet()": "9619367d",
			"onLosePercentToProcess()": "22d4bcbd",
			"oracle()": "7dc0d1d0",
			"owner()": "8da5cb5b",
			"playBatch((address,uint8[],bytes32,bytes32,bytes32,uint256)[])": "4219eca5",
			"playerGames(uint256,uint256)": "e3dd6664",
			"players(uint256)": "f71d96cb",
			"playersCount()": "a3f67d6d",
			"playersIds(address)": "38e49cb8",
			"recoverWrongToken(address,uint256)": "3c28f9ce",
			"setDepostiManager(address)": "bf7c8b21",
			"setMaxBet(uint256)": "881eff1e",
			"setMinBet(uint256)": "88ea41b9",
			"setMultiplyMap(uint256[10][11])": "007be4e5",
			"setOracle(address)": "7adbf973",
			"token()": "fc0c546a",
			"topWonGames(uint256)": "f9b2a8bc",
			"totalBetsAmount()": "efbd7bd2",
			"totalLostAmount()": "322668a4",
			"totalLostGamesCount()": "9188483b",
			"totalWinAmount()": "f7ead092",
			"totalWinGamesCount()": "1b43e5af",
			"transferOwnership(address)": "f2fde38b"
		}
	},
	"abi": [
		{
			"inputs": [
				{
					"internalType": "address",
					"name": "tokenAddress",
					"type": "address"
				},
				{
					"internalType": "address",
					"name": "oracleAddress",
					"type": "address"
				},
				{
					"internalType": "address",
					"name": "depositManagerAddress",
					"type": "address"
				}
			],
			"stateMutability": "nonpayable",
			"type": "constructor"
		},
		{
			"inputs": [],
			"name": "PRECISION",
			"outputs": [
				{
					"internalType": "uint256",
					"name": "",
					"type": "uint256"
				}
			],
			"stateMutability": "view",
			"type": "function"
		},
		{
			"inputs": [
				{
					"internalType": "uint256",
					"name": "zeroMath",
					"type": "uint256"
				},
				{
					"internalType": "uint256",
					"name": "m1",
					"type": "uint256"
				},
				{
					"internalType": "uint256",
					"name": "m2",
					"type": "uint256"
				},
				{
					"internalType": "uint256",
					"name": "m3",
					"type": "uint256"
				},
				{
					"internalType": "uint256",
					"name": "m4",
					"type": "uint256"
				},
				{
					"internalType": "uint256",
					"name": "m5",
					"type": "uint256"
				},
				{
					"internalType": "uint256",
					"name": "m6",
					"type": "uint256"
				},
				{
					"internalType": "uint256",
					"name": "m7",
					"type": "uint256"
				},
				{
					"internalType": "uint256",
					"name": "m8",
					"type": "uint256"
				},
				{
					"internalType": "uint256",
					"name": "m9",
					"type": "uint256"
				},
				{
					"internalType": "uint256",
					"name": "m10",
					"type": "uint256"
				}
			],
			"name": "_uint256Map",
			"outputs": [
				{
					"internalType": "uint256[11]",
					"name": "ret",
					"type": "uint256[11]"
				}
			],
			"stateMutability": "pure",
			"type": "function"
		},
		{
			"inputs": [
				{
					"internalType": "uint8",
					"name": "",
					"type": "uint8"
				}
			],
			"name": "ballsStatistic",
			"outputs": [
				{
					"internalType": "uint256",
					"name": "",
					"type": "uint256"
				}
			],
			"stateMutability": "view",
			"type": "function"
		},
		{
			"inputs": [],
			"name": "bankAmount",
			"outputs": [
				{
					"internalType": "uint256",
					"name": "",
					"type": "uint256"
				}
			],
			"stateMutability": "view",
			"type": "function"
		},
		{
			"inputs": [],
			"name": "depositManager",
			"outputs": [
				{
					"internalType": "contract IGGWDeposit",
					"name": "",
					"type": "address"
				}
			],
			"stateMutability": "view",
			"type": "function"
		},
		{
			"inputs": [],
			"name": "drawBallsCount",
			"outputs": [
				{
					"internalType": "uint8",
					"name": "",
					"type": "uint8"
				}
			],
			"stateMutability": "view",
			"type": "function"
		},
		{
			"inputs": [
				{
					"internalType": "uint8",
					"name": "",
					"type": "uint8"
				},
				{
					"internalType": "uint8",
					"name": "",
					"type": "uint8"
				}
			],
			"name": "gameMultiplyMap",
			"outputs": [
				{
					"internalType": "uint256",
					"name": "",
					"type": "uint256"
				}
			],
			"stateMutability": "view",
			"type": "function"
		},
		{
			"inputs": [
				{
					"internalType": "uint256",
					"name": "",
					"type": "uint256"
				}
			],
			"name": "games",
			"outputs": [
				{
					"internalType": "uint256",
					"name": "gameId",
					"type": "uint256"
				},
				{
					"internalType": "uint256",
					"name": "playerId",
					"type": "uint256"
				},
				{
					"internalType": "bytes32",
					"name": "playerSeed",
					"type": "bytes32"
				},
				{
					"internalType": "bytes32",
					"name": "serverSeed",
					"type": "bytes32"
				},
				{
					"internalType": "bytes32",
					"name": "serverSeedHash",
					"type": "bytes32"
				},
				{
					"internalType": "uint256",
					"name": "startsIn",
					"type": "uint256"
				},
				{
					"internalType": "uint256",
					"name": "betAmount",
					"type": "uint256"
				},
				{
					"internalType": "uint256",
					"name": "wonMultiplier",
					"type": "uint256"
				},
				{
					"internalType": "uint256",
					"name": "wonAmount",
					"type": "uint256"
				}
			],
			"stateMutability": "view",
			"type": "function"
		},
		{
			"inputs": [
				{
					"internalType": "uint256",
					"name": "",
					"type": "uint256"
				}
			],
			"name": "gamesBalls",
			"outputs": [
				{
					"internalType": "uint8",
					"name": "playerBallsCount",
					"type": "uint8"
				},
				{
					"internalType": "uint8",
					"name": "matchBallsCount",
					"type": "uint8"
				}
			],
			"stateMutability": "view",
			"type": "function"
		},
		{
			"inputs": [],
			"name": "gamesCount",
			"outputs": [
				{
					"internalType": "uint256",
					"name": "",
					"type": "uint256"
				}
			],
			"stateMutability": "view",
			"type": "function"
		},
		{
			"inputs": [],
			"name": "getBallsStatistic",
			"outputs": [
				{
					"internalType": "uint256[]",
					"name": "",
					"type": "uint256[]"
				}
			],
			"stateMutability": "view",
			"type": "function"
		},
		{
			"inputs": [
				{
					"internalType": "uint256",
					"name": "gameId",
					"type": "uint256"
				}
			],
			"name": "getGame",
			"outputs": [
				{
					"components": [
						{
							"components": [
								{
									"internalType": "uint256",
									"name": "gameId",
									"type": "uint256"
								},
								{
									"internalType": "uint256",
									"name": "playerId",
									"type": "uint256"
								},
								{
									"internalType": "bytes32",
									"name": "playerSeed",
									"type": "bytes32"
								},
								{
									"internalType": "bytes32",
									"name": "serverSeed",
									"type": "bytes32"
								},
								{
									"internalType": "bytes32",
									"name": "serverSeedHash",
									"type": "bytes32"
								},
								{
									"internalType": "uint256",
									"name": "startsIn",
									"type": "uint256"
								},
								{
									"internalType": "uint256",
									"name": "betAmount",
									"type": "uint256"
								},
								{
									"internalType": "uint256",
									"name": "wonMultiplier",
									"type": "uint256"
								},
								{
									"internalType": "uint256",
									"name": "wonAmount",
									"type": "uint256"
								}
							],
							"internalType": "struct GGWorldKenoGame.GameRound",
							"name": "main",
							"type": "tuple"
						},
						{
							"components": [
								{
									"internalType": "uint8[20]",
									"name": "resultBalls",
									"type": "uint8[20]"
								},
								{
									"internalType": "uint8",
									"name": "playerBallsCount",
									"type": "uint8"
								},
								{
									"internalType": "uint8[10]",
									"name": "playerBalls",
									"type": "uint8[10]"
								},
								{
									"internalType": "uint8",
									"name": "matchBallsCount",
									"type": "uint8"
								},
								{
									"internalType": "uint8[10]",
									"name": "matchBalls",
									"type": "uint8[10]"
								}
							],
							"internalType": "struct GGWorldKenoGame.GameRoundBalls",
							"name": "balls",
							"type": "tuple"
						}
					],
					"internalType": "struct GGWorldKenoGame.GameInfo",
					"name": "",
					"type": "tuple"
				}
			],
			"stateMutability": "view",
			"type": "function"
		},
		{
			"inputs": [
				{
					"internalType": "uint256",
					"name": "offset",
					"type": "uint256"
				},
				{
					"internalType": "uint256",
					"name": "limit",
					"type": "uint256"
				}
			],
			"name": "getGames",
			"outputs": [
				{
					"components": [
						{
							"components": [
								{
									"internalType": "uint256",
									"name": "gameId",
									"type": "uint256"
								},
								{
									"internalType": "uint256",
									"name": "playerId",
									"type": "uint256"
								},
								{
									"internalType": "bytes32",
									"name": "playerSeed",
									"type": "bytes32"
								},
								{
									"internalType": "bytes32",
									"name": "serverSeed",
									"type": "bytes32"
								},
								{
									"internalType": "bytes32",
									"name": "serverSeedHash",
									"type": "bytes32"
								},
								{
									"internalType": "uint256",
									"name": "startsIn",
									"type": "uint256"
								},
								{
									"internalType": "uint256",
									"name": "betAmount",
									"type": "uint256"
								},
								{
									"internalType": "uint256",
									"name": "wonMultiplier",
									"type": "uint256"
								},
								{
									"internalType": "uint256",
									"name": "wonAmount",
									"type": "uint256"
								}
							],
							"internalType": "struct GGWorldKenoGame.GameRound",
							"name": "main",
							"type": "tuple"
						},
						{
							"components": [
								{
									"internalType": "uint8[20]",
									"name": "resultBalls",
									"type": "uint8[20]"
								},
								{
									"internalType": "uint8",
									"name": "playerBallsCount",
									"type": "uint8"
								},
								{
									"internalType": "uint8[10]",
									"name": "playerBalls",
									"type": "uint8[10]"
								},
								{
									"internalType": "uint8",
									"name": "matchBallsCount",
									"type": "uint8"
								},
								{
									"internalType": "uint8[10]",
									"name": "matchBalls",
									"type": "uint8[10]"
								}
							],
							"internalType": "struct GGWorldKenoGame.GameRoundBalls",
							"name": "balls",
							"type": "tuple"
						}
					],
					"internalType": "struct GGWorldKenoGame.GameInfo[]",
					"name": "",
					"type": "tuple[]"
				}
			],
			"stateMutability": "view",
			"type": "function"
		},
		{
			"inputs": [
				{
					"internalType": "address",
					"name": "playerAddress",
					"type": "address"
				}
			],
			"name": "getLastPlayerGame",
			"outputs": [
				{
					"components": [
						{
							"internalType": "uint256",
							"name": "gameId",
							"type": "uint256"
						},
						{
							"internalType": "uint256",
							"name": "playerId",
							"type": "uint256"
						},
						{
							"internalType": "bytes32",
							"name": "playerSeed",
							"type": "bytes32"
						},
						{
							"internalType": "bytes32",
							"name": "serverSeed",
							"type": "bytes32"
						},
						{
							"internalType": "bytes32",
							"name": "serverSeedHash",
							"type": "bytes32"
						},
						{
							"internalType": "uint256",
							"name": "startsIn",
							"type": "uint256"
						},
						{
							"internalType": "uint256",
							"name": "betAmount",
							"type": "uint256"
						},
						{
							"internalType": "uint256",
							"name": "wonMultiplier",
							"type": "uint256"
						},
						{
							"internalType": "uint256",
							"name": "wonAmount",
							"type": "uint256"
						}
					],
					"internalType": "struct GGWorldKenoGame.GameRound",
					"name": "round",
					"type": "tuple"
				},
				{
					"components": [
						{
							"internalType": "uint8[20]",
							"name": "resultBalls",
							"type": "uint8[20]"
						},
						{
							"internalType": "uint8",
							"name": "playerBallsCount",
							"type": "uint8"
						},
						{
							"internalType": "uint8[10]",
							"name": "playerBalls",
							"type": "uint8[10]"
						},
						{
							"internalType": "uint8",
							"name": "matchBallsCount",
							"type": "uint8"
						},
						{
							"internalType": "uint8[10]",
							"name": "matchBalls",
							"type": "uint8[10]"
						}
					],
					"internalType": "struct GGWorldKenoGame.GameRoundBalls",
					"name": "balls",
					"type": "tuple"
				}
			],
			"stateMutability": "view",
			"type": "function"
		},
		{
			"inputs": [],
			"name": "getMultiplyMap",
			"outputs": [
				{
					"components": [
						{
							"internalType": "uint8",
							"name": "ballsCount",
							"type": "uint8"
						},
						{
							"internalType": "uint256[11]",
							"name": "matchCount",
							"type": "uint256[11]"
						}
					],
					"internalType": "struct GGWorldKenoGame.BallMatch[11]",
					"name": "ret",
					"type": "tuple[11]"
				}
			],
			"stateMutability": "view",
			"type": "function"
		},
		{
			"inputs": [
				{
					"internalType": "address",
					"name": "playerAddress",
					"type": "address"
				},
				{
					"internalType": "uint256",
					"name": "offset",
					"type": "uint256"
				},
				{
					"internalType": "uint256",
					"name": "limit",
					"type": "uint256"
				}
			],
			"name": "getPlayerGames",
			"outputs": [
				{
					"components": [
						{
							"components": [
								{
									"internalType": "uint256",
									"name": "gameId",
									"type": "uint256"
								},
								{
									"internalType": "uint256",
									"name": "playerId",
									"type": "uint256"
								},
								{
									"internalType": "bytes32",
									"name": "playerSeed",
									"type": "bytes32"
								},
								{
									"internalType": "bytes32",
									"name": "serverSeed",
									"type": "bytes32"
								},
								{
									"internalType": "bytes32",
									"name": "serverSeedHash",
									"type": "bytes32"
								},
								{
									"internalType": "uint256",
									"name": "startsIn",
									"type": "uint256"
								},
								{
									"internalType": "uint256",
									"name": "betAmount",
									"type": "uint256"
								},
								{
									"internalType": "uint256",
									"name": "wonMultiplier",
									"type": "uint256"
								},
								{
									"internalType": "uint256",
									"name": "wonAmount",
									"type": "uint256"
								}
							],
							"internalType": "struct GGWorldKenoGame.GameRound",
							"name": "main",
							"type": "tuple"
						},
						{
							"components": [
								{
									"internalType": "uint8[20]",
									"name": "resultBalls",
									"type": "uint8[20]"
								},
								{
									"internalType": "uint8",
									"name": "playerBallsCount",
									"type": "uint8"
								},
								{
									"internalType": "uint8[10]",
									"name": "playerBalls",
									"type": "uint8[10]"
								},
								{
									"internalType": "uint8",
									"name": "matchBallsCount",
									"type": "uint8"
								},
								{
									"internalType": "uint8[10]",
									"name": "matchBalls",
									"type": "uint8[10]"
								}
							],
							"internalType": "struct GGWorldKenoGame.GameRoundBalls",
							"name": "balls",
							"type": "tuple"
						}
					],
					"internalType": "struct GGWorldKenoGame.GameInfo[]",
					"name": "",
					"type": "tuple[]"
				}
			],
			"stateMutability": "view",
			"type": "function"
		},
		{
			"inputs": [
				{
					"internalType": "address",
					"name": "playerAddress",
					"type": "address"
				}
			],
			"name": "getPlayerGamesCount",
			"outputs": [
				{
					"internalType": "uint256",
					"name": "",
					"type": "uint256"
				}
			],
			"stateMutability": "view",
			"type": "function"
		},
		{
			"inputs": [
				{
					"internalType": "address",
					"name": "playerAddress",
					"type": "address"
				}
			],
			"name": "getTokenInfo",
			"outputs": [
				{
					"components": [
						{
							"internalType": "address",
							"name": "tokenAddress",
							"type": "address"
						},
						{
							"internalType": "uint8",
							"name": "decimals",
							"type": "uint8"
						},
						{
							"internalType": "string",
							"name": "name",
							"type": "string"
						},
						{
							"internalType": "string",
							"name": "symbol",
							"type": "string"
						},
						{
							"internalType": "uint256",
							"name": "balance",
							"type": "uint256"
						},
						{
							"internalType": "uint256",
							"name": "allowance",
							"type": "uint256"
						},
						{
							"internalType": "uint256",
							"name": "deposit",
							"type": "uint256"
						},
						{
							"internalType": "uint256",
							"name": "bankAmount",
							"type": "uint256"
						}
					],
					"internalType": "struct GGWorldKenoGame.GameTokenInfo",
					"name": "",
					"type": "tuple"
				}
			],
			"stateMutability": "view",
			"type": "function"
		},
		{
			"inputs": [],
			"name": "getTopWins",
			"outputs": [
				{
					"components": [
						{
							"internalType": "uint256",
							"name": "gameId",
							"type": "uint256"
						},
						{
							"internalType": "uint256",
							"name": "amount",
							"type": "uint256"
						},
						{
							"internalType": "uint256",
							"name": "timestamp",
							"type": "uint256"
						}
					],
					"internalType": "struct GGWorldKenoGame.GameWin[]",
					"name": "",
					"type": "tuple[]"
				}
			],
			"stateMutability": "view",
			"type": "function"
		},
		{
			"inputs": [],
			"name": "maxBet",
			"outputs": [
				{
					"internalType": "uint256",
					"name": "",
					"type": "uint256"
				}
			],
			"stateMutability": "view",
			"type": "function"
		},
		{
			"inputs": [],
			"name": "minBet",
			"outputs": [
				{
					"internalType": "uint256",
					"name": "",
					"type": "uint256"
				}
			],
			"stateMutability": "view",
			"type": "function"
		},
		{
			"inputs": [],
			"name": "onLosePercentToProcess",
			"outputs": [
				{
					"internalType": "uint256",
					"name": "",
					"type": "uint256"
				}
			],
			"stateMutability": "view",
			"type": "function"
		},
		{
			"inputs": [],
			"name": "oracle",
			"outputs": [
				{
					"internalType": "address",
					"name": "",
					"type": "address"
				}
			],
			"stateMutability": "view",
			"type": "function"
		},
		{
			"inputs": [],
			"name": "owner",
			"outputs": [
				{
					"internalType": "address",
					"name": "",
					"type": "address"
				}
			],
			"stateMutability": "view",
			"type": "function"
		},
		{
			"inputs": [
				{
					"components": [
						{
							"internalType": "address",
							"name": "playerAddress",
							"type": "address"
						},
						{
							"internalType": "uint8[]",
							"name": "balls",
							"type": "uint8[]"
						},
						{
							"internalType": "bytes32",
							"name": "playerSeed",
							"type": "bytes32"
						},
						{
							"internalType": "bytes32",
							"name": "serverSeed",
							"type": "bytes32"
						},
						{
							"internalType": "bytes32",
							"name": "serverSeedHash",
							"type": "bytes32"
						},
						{
							"internalType": "uint256",
							"name": "betAmount",
							"type": "uint256"
						}
					],
					"internalType": "struct GGWorldKenoGame.PlayInput[]",
					"name": "inputs",
					"type": "tuple[]"
				}
			],
			"name": "playBatch",
			"outputs": [],
			"stateMutability": "nonpayable",
			"type": "function"
		},
		{
			"inputs": [
				{
					"internalType": "uint256",
					"name": "",
					"type": "uint256"
				},
				{
					"internalType": "uint256",
					"name": "",
					"type": "uint256"
				}
			],
			"name": "playerGames",
			"outputs": [
				{
					"internalType": "uint256",
					"name": "",
					"type": "uint256"
				}
			],
			"stateMutability": "view",
			"type": "function"
		},
		{
			"inputs": [
				{
					"internalType": "uint256",
					"name": "",
					"type": "uint256"
				}
			],
			"name": "players",
			"outputs": [
				{
					"internalType": "uint256",
					"name": "playerId",
					"type": "uint256"
				},
				{
					"internalType": "address",
					"name": "playerAddress",
					"type": "address"
				},
				{
					"internalType": "uint256",
					"name": "gamesCount",
					"type": "uint256"
				},
				{
					"internalType": "uint256",
					"name": "betsAmount",
					"type": "uint256"
				},
				{
					"internalType": "uint256",
					"name": "lostAmount",
					"type": "uint256"
				},
				{
					"internalType": "uint256",
					"name": "winAmount",
					"type": "uint256"
				},
				{
					"internalType": "uint256",
					"name": "lostCount",
					"type": "uint256"
				},
				{
					"internalType": "uint256",
					"name": "winCount",
					"type": "uint256"
				},
				{
					"internalType": "uint256",
					"name": "lastGameId",
					"type": "uint256"
				}
			],
			"stateMutability": "view",
			"type": "function"
		},
		{
			"inputs": [],
			"name": "playersCount",
			"outputs": [
				{
					"internalType": "uint256",
					"name": "",
					"type": "uint256"
				}
			],
			"stateMutability": "view",
			"type": "function"
		},
		{
			"inputs": [
				{
					"internalType": "address",
					"name": "",
					"type": "address"
				}
			],
			"name": "playersIds",
			"outputs": [
				{
					"internalType": "uint256",
					"name": "",
					"type": "uint256"
				}
			],
			"stateMutability": "view",
			"type": "function"
		},
		{
			"inputs": [
				{
					"internalType": "address",
					"name": "tokenAddress",
					"type": "address"
				},
				{
					"internalType": "uint256",
					"name": "amount",
					"type": "uint256"
				}
			],
			"name": "recoverWrongToken",
			"outputs": [],
			"stateMutability": "nonpayable",
			"type": "function"
		},
		{
			"inputs": [
				{
					"internalType": "address",
					"name": "_newDepositManager",
					"type": "address"
				}
			],
			"name": "setDepostiManager",
			"outputs": [],
			"stateMutability": "nonpayable",
			"type": "function"
		},
		{
			"inputs": [
				{
					"internalType": "uint256",
					"name": "_maxBet",
					"type": "uint256"
				}
			],
			"name": "setMaxBet",
			"outputs": [],
			"stateMutability": "nonpayable",
			"type": "function"
		},
		{
			"inputs": [
				{
					"internalType": "uint256",
					"name": "_minBet",
					"type": "uint256"
				}
			],
			"name": "setMinBet",
			"outputs": [],
			"stateMutability": "nonpayable",
			"type": "function"
		},
		{
			"inputs": [
				{
					"internalType": "uint256[10][11]",
					"name": "newMap",
					"type": "uint256[10][11]"
				}
			],
			"name": "setMultiplyMap",
			"outputs": [],
			"stateMutability": "nonpayable",
			"type": "function"
		},
		{
			"inputs": [
				{
					"internalType": "address",
					"name": "_newOracle",
					"type": "address"
				}
			],
			"name": "setOracle",
			"outputs": [],
			"stateMutability": "nonpayable",
			"type": "function"
		},
		{
			"inputs": [],
			"name": "token",
			"outputs": [
				{
					"internalType": "contract IERC20",
					"name": "",
					"type": "address"
				}
			],
			"stateMutability": "view",
			"type": "function"
		},
		{
			"inputs": [
				{
					"internalType": "uint256",
					"name": "",
					"type": "uint256"
				}
			],
			"name": "topWonGames",
			"outputs": [
				{
					"internalType": "uint256",
					"name": "gameId",
					"type": "uint256"
				},
				{
					"internalType": "uint256",
					"name": "amount",
					"type": "uint256"
				},
				{
					"internalType": "uint256",
					"name": "timestamp",
					"type": "uint256"
				}
			],
			"stateMutability": "view",
			"type": "function"
		},
		{
			"inputs": [],
			"name": "totalBetsAmount",
			"outputs": [
				{
					"internalType": "uint256",
					"name": "",
					"type": "uint256"
				}
			],
			"stateMutability": "view",
			"type": "function"
		},
		{
			"inputs": [],
			"name": "totalLostAmount",
			"outputs": [
				{
					"internalType": "uint256",
					"name": "",
					"type": "uint256"
				}
			],
			"stateMutability": "view",
			"type": "function"
		},
		{
			"inputs": [],
			"name": "totalLostGamesCount",
			"outputs": [
				{
					"internalType": "uint256",
					"name": "",
					"type": "uint256"
				}
			],
			"stateMutability": "view",
			"type": "function"
		},
		{
			"inputs": [],
			"name": "totalWinAmount",
			"outputs": [
				{
					"internalType": "uint256",
					"name": "",
					"type": "uint256"
				}
			],
			"stateMutability": "view",
			"type": "function"
		},
		{
			"inputs": [],
			"name": "totalWinGamesCount",
			"outputs": [
				{
					"internalType": "uint256",
					"name": "",
					"type": "uint256"
				}
			],
			"stateMutability": "view",
			"type": "function"
		},
		{
			"inputs": [
				{
					"internalType": "address",
					"name": "newOwner",
					"type": "address"
				}
			],
			"name": "transferOwnership",
			"outputs": [],
			"stateMutability": "nonpayable",
			"type": "function"
		}
	]
}